:020000040800F2
:100000000050002099870008217700082377000816
:1000100025770008277700082977000800000000EE
:100020000000000000000000000000002B77000826
:100030002D770008000000002F77000831770008B6
:10004000E1870008E1870008E1870008E1870008F0
:10005000E1870008E1870008E1870008E1870008E0
:10006000E1870008E1870008E1870008E1870008D0
:10007000E18700083977000849770008E187000820
:10008000E1870008E1870008C9780008E1870008D7
:1000900059770008E1870008E1870008E187000838
:1000A000E1870008E1870008E1870008E187000890
:1000B000E1870008E1870008E1870008E187000880
:1000C000E1870008E1870008E1870008E187000870
:1000D000E1870008F94E0008E1870008314F000869
:1000E000E1870008E1870008E187000800000000C0
:1000F0000000000000000000000000000000000000
:0C01000000000000000000005FF808F1A3
:1001100010B5054C237833B9044B13B10448AFF341
:1001200000800123237010BD680200200000000041
:1001300010B3000808B5034B1BB103490348AFF3E4
:10014000008008BD000000006C02002010B3000811
:10015000034613F8012B002AFBD1181A0138704707
:1001600081F0004102E000BF83F0004330B54FEA68
:1001700041044FEA430594EA050F08BF90EA020FD5
:100180001FBF54EA000C55EA020C7FEA645C7FEA68
:10019000655C00F0E2804FEA5454D4EB5555B8BF8B
:1001A0006D420CDD2C4480EA020281EA030382EAFC
:1001B000000083EA010180EA020281EA0303362D8E
:1001C00088BF30BD11F0004F4FEA01314FF4801C61
:1001D0004CEA113102D0404261EB410113F0004F73
:1001E0004FEA03334CEA133302D0524263EB43032A
:1001F00094EA050F00F0A780A4F10104D5F1200EC8
:100200000DDB02FA0EFC22FA05F2801841F1000122
:1002100003FA0EF2801843FA05F359410EE0A5F1F6
:1002200020050EF1200E012A03FA0EFC28BF4CF027
:10023000020C43FA05F3C01851EBE37101F00045DD
:1002400007D54FF0000EDCF1000C7EEB00006EEBEA
:100250000101B1F5801F1BD3B1F5001F0CD3490874
:100260005FEA30004FEA3C0C04F101044FEA4452CB
:1002700012F5800F80F09A80BCF1004F08BF5FEA52
:10028000500C50F1000041EB045141EA050130BD32
:100290005FEA4C0C404141EB010111F4801FA4F1D5
:1002A0000104E9D191F0000F04BF01460020B1FA2A
:1002B00081F308BF2033A3F10B03B3F120020CDA62
:1002C0000C3208DD02F1140CC2F10C0201FA0CF040
:1002D00021FA02F10CE002F11402D8BFC2F1200CA5
:1002E00001FA02F120FA0CFCDCBF41EA0C0190405B
:1002F000E41AA2BF01EB0451294330BD6FEA0404A4
:100300001F3C1CDA0C340EDC04F11404C4F120028E
:1003100020FA04F001FA02F340EA030021FA04F3A0
:1003200045EA030130BDC4F10C04C4F1200220FAF7
:1003300002F001FA04F340EA0300294630BD21FA35
:1003400004F0294630BD94F0000F83F4801306BFFB
:1003500081F480110134013D4EE77FEA645C18BFEF
:100360007FEA655C29D094EA050F08BF90EA020F86
:1003700005D054EA000C04BF1946104630BD91EA7E
:10038000030F1EBF0021002030BD5FEA545C05D181
:100390004000494128BF41F0004130BD14F58004C0
:1003A0003CBF01F5801130BD01F0004545F0FE4134
:1003B00041F470014FF0000030BD7FEA645C1ABF69
:1003C000194610467FEA655C1CBF0B46024650EAA0
:1003D000013406BF52EA033591EA030F41F40021CC
:1003E00030BD00BF90F0000F04BF0021704730B552
:1003F0004FF4806404F132044FF000054FF0000127
:1004000050E700BF90F0000F04BF0021704730B5E7
:100410004FF4806404F1320410F0004548BF4042BC
:100420004FF000013EE700BF42004FEAE2014FEA11
:1004300031014FEA02701FBF12F07F4393F07F4FEC
:1004400081F06051704732F07F4208BF704793F0EF
:100450007F4F04BF41F40021704730B54FF4607402
:1004600001F0004521F000411CE700BF50EA010205
:1004700008BF704730B54FF000050AE050EA0102AE
:1004800008BF704730B511F0004502D5404261EB1E
:1004900041014FF4806404F132045FEA915C3FF45F
:1004A000D8AE4FF003025FEADC0C18BF03325FEAFC
:1004B000DC0C18BF033202EBDC02C2F1200300FAAD
:1004C00003FC20FA02F001FA03FE40EA0E0021FAD2
:1004D00002F11444BDE600BF70B54FF0FF0C4CF4C0
:1004E000E06C1CEA11541DBF1CEA135594EA0C0F72
:1004F00095EA0C0F00F0DEF82C4481EA030621EAAD
:100500004C5123EA4C5350EA013518BF52EA0335E7
:1005100041F4801143F4801338D0A0FB02CE4FF099
:100520000005E1FB02E506F00042E0FB03E54FF0C9
:100530000006E1FB03569CF0000F18BF4EF0010EC1
:10054000A4F1FF04B6F5007F64F5407404D25FEABD
:100550004E0E6D4146EB060642EAC62141EA555170
:100560004FEAC52040EA5E504FEACE2EB4F1FD0CB2
:1005700088BFBCF5E06F1ED8BEF1004F08BF5FEA30
:10058000500E50F1000041EB045170BD06F00046E2
:1005900046EA010140EA020081EA0301B4EB5C048F
:1005A000C2BFD4EB0C0541EA045170BD41F4801187
:1005B0004FF0000E013C00F3AB8014F1360FDEBFAC
:1005C000002001F0004170BDC4F10004203C35DA88
:1005D0000C341BDC04F11404C4F1200500FA05F30B
:1005E00020FA04F001FA05F240EA020001F00042AC
:1005F00021F0004110EBD37021FA04F642EB060122
:100600005EEA430E08BF20EAD37070BDC4F10C044B
:10061000C4F1200500FA04F320FA05F001FA04F20F
:1006200040EA020001F0004110EBD37041F10001FB
:100630005EEA430E08BF20EAD37070BDC4F1200506
:1006400000FA05F24EEA020E20FA04F301FA05F26E
:1006500043EA020321FA04F001F0004121FA04F216
:1006600020EA020000EBD3705EEA430E08BF20EAE6
:10067000D37070BD94F0000F0FD101F00046400020
:1006800041EB010111F4801F08BF013CF7D041EAA2
:10069000060195F0000F18BF704703F000465200A6
:1006A00043EB030313F4801F08BF013DF7D043EA77
:1006B0000603704794EA0C0F0CEA135518BF95EA2D
:1006C0000C0F0CD050EA410618BF52EA4306D1D1B4
:1006D00081EA030101F000414FF0000070BD50EAD3
:1006E000410606BF1046194652EA430619D094EA5D
:1006F0000C0F02D150EA013613D195EA0C0F05D147
:1007000052EA03361CBF104619460AD181EA03019A
:1007100001F0004141F0FE4141F470014FF0000052
:1007200070BD41F0FE4141F4780170BD70B54FF0ED
:10073000FF0C4CF4E06C1CEA11541DBF1CEA13556D
:1007400094EA0C0F95EA0C0F00F0A7F8A4EB05044F
:1007500081EA030E52EA03354FEA013100F0888046
:100760004FEA03334FF0805545EA131343EA12630F
:100770004FEA022245EA111545EA10654FEA0026C4
:100780000EF000419D4208BF964244F1FD0404F57D
:10079000407402D25B084FEA3202B61A65EB0305D9
:1007A0005B084FEA32024FF480104FF4002CB6EB96
:1007B000020E75EB030E22BFB61A754640EA0C0016
:1007C0005B084FEA3202B6EB020E75EB030E22BF56
:1007D000B61A754640EA5C005B084FEA3202B6EB97
:1007E000020E75EB030E22BFB61A754640EA9C0056
:1007F0005B084FEA3202B6EB020E75EB030E22BF26
:10080000B61A754640EADC0055EA060E18D04FEAE3
:10081000051545EA16754FEA06164FEAC30343EA83
:1008200052734FEAC2025FEA1C1CC0D111F4801F50
:100830000BD141EA00014FF000004FF0004CB6E749
:1008400011F4801F04BF01430020B4F1FD0C88BFE8
:10085000BCF5E06F3FF6AFAEB5EB030C04BFB6EBF3
:10086000020C5FEA500C50F1000041EB045170BDE6
:100870000EF0004E4EEA113114EB5C04C2BFD4EB13
:100880000C0541EA045170BD41F480114FF0000E97
:10089000013C90E645EA060E8DE60CEA135594EA13
:1008A0000C0F08BF95EA0C0F3FF43BAF94EA0C0F16
:1008B0000AD150EA01347FF434AF95EA0C0F7FF48B
:1008C00025AF104619462CE795EA0C0F06D152EADF
:1008D00003353FF4FDAE1046194622E750EA4106C3
:1008E00018BF52EA43067FF4C5AE50EA41047FF4D4
:1008F0000DAF52EA43057FF4EBAE12E74FF0FF3C39
:1009000006E000BF4FF0010C02E000BF4FF0010C09
:100910004DF804CD4FEA410C7FEA6C5C4FEA430C82
:1009200018BF7FEA6C5C1BD001B050EA410C0CBFD1
:1009300052EA430C91EA030F02BF90EA020F002033
:10094000704710F1000F91EA030F58BF994208BF9A
:1009500090422CBFD8176FEAE37040F00100704757
:100960004FEA410C7FEA6C5C02D150EA013C07D1AE
:100970004FEA430C7FEA6C5CD6D152EA033CD3D0F9
:100980005DF8040B704700BF8446104662468C46F3
:100990001946634600E000BF01B5FFF7B7FF002826
:1009A00048BF10F1000F01BD4DF808EDFFF7F4FF4F
:1009B0000CBF012000205DF808FB00BF4DF808EDDA
:1009C000FFF7EAFF34BF012000205DF808FB00BFFD
:1009D0004DF808EDFFF7E0FF94BF012000205DF81F
:1009E00008FB00BF4DF808EDFFF7CEFF94BF0120D4
:1009F00000205DF808FB00BF4DF808EDFFF7C4FFCD
:100A000034BF012000205DF808FB00BF4FEA410C15
:100A10007FEA6C5C02D150EA013C0AD14FEA430CF8
:100A20007FEA6C5C02D152EA033C02D14FF0000035
:100A300070474FF0010070474FEA410212F5001273
:100A400015D211D56FF47873B3EB625212D94FEA15
:100A5000C12343F0004343EA505311F0004F23FAFF
:100A600002F018BF404270474FF00000704750EA54
:100A7000013005D111F0004008BF6FF00040704711
:100A80004FF00000704700BF4FEA4102B2F1E0436F
:100A900024BFB3F5001CDCF1FE5C0DD901F0004C65
:100AA0004FEAC0024CEA5070B2F1004F40EB8300B5
:100AB00008BF20F00100704711F0804F21D113F1E1
:100AC0003872BCBF01F00040704741F480114FEA1A
:100AD0005252C2F11802C2F1200C10FA0CF320FAA3
:100AE00002F018BF40F001004FEAC1234FEAD323C0
:100AF00003FA0CFC40EA0C0023FA02F34FEA43032A
:100B0000CCE77FEA625307D150EA01331EBF4FF0B2
:100B1000FE4040F44000704701F0004040F0FE40CD
:100B200040F40000704700BF80F0004002E000BFCA
:100B300081F0004142001FBF5FEA410392EA030FC8
:100B40007FEA226C7FEA236C6AD04FEA1262D2EB12
:100B50001363C1BFD218414048404140B8BF5B4217
:100B6000192B88BF704710F0004F40F4000020F0B0
:100B70007F4018BF404211F0004F41F4000121F0C6
:100B80007F4118BF494292EA030F3FD0A2F1010210
:100B900041FA03FC10EB0C00C3F1200301FA03F14E
:100BA00000F0004302D5494260EB4000B0F5000F71
:100BB00013D3B0F1807F06D340084FEA310102F130
:100BC0000102FE2A51D2B1F1004F40EBC25008BFE2
:100BD00020F0010040EA03007047490040EB0000AC
:100BE00010F4000FA2F10102EDD1B0FA80FCACF1DB
:100BF000080CB2EB0C0200FA0CF0AABF00EBC250DA
:100C000052421843BCBFD0401843704792F0000FC7
:100C100081F4000106BF80F400000132013BB5E71A
:100C20004FEA41037FEA226C18BF7FEA236C21D090
:100C300092EA030F04D092F0000F08BF08467047F5
:100C400090EA010F1CBF0020704712F07F4F04D1C3
:100C5000400028BF40F00040704712F100723CBFD6
:100C600000F50000704700F0004343F0FE4040F400
:100C7000000070477FEA226216BF08467FEA2363BE
:100C80000146420206BF5FEA412390EA010F40F4A9
:100C9000800070474FF0000304E000BF10F00043F5
:100CA00048BF40425FEA000C08BF704743F09643DC
:100CB00001464FF000001CE050EA010208BF7047F7
:100CC0004FF000030AE000BF50EA010208BF70477E
:100CD00011F0004302D5404261EB41015FEA010C93
:100CE00002BF84460146002043F0B64308BFA3F18B
:100CF0008053A3F50003BCFA8CF2083AA3EBC2536D
:100D000010DB01FA02FC634400FA02FCC2F120028B
:100D1000BCF1004F20FA02F243EB020008BF20F0C2
:100D20000100704702F1200201FA02FCC2F1200228
:100D300050EA4C0021FA02F243EB020008BF20EA1D
:100D4000DC7070474FF0FF0C1CEAD0521EBF1CEA4B
:100D5000D15392EA0C0F93EA0C0F6FD01A4480EA39
:100D6000010C400218BF5FEA41211ED04FF0006322
:100D700043EA501043EA5111A0FB01310CF000404E
:100D8000B1F5000F3EBF490041EAD3715B0040EA74
:100D9000010062F17F02FD2A1DD8B3F1004F40EB44
:100DA000C25008BF20F00100704790F0000F0CF017
:100DB000004C08BF49024CEA502040EA51207F3ADB
:100DC000C2BFD2F1FF0340EAC250704740F40000B6
:100DD0004FF00003013A5DDC12F1190FDCBF00F0A7
:100DE00000407047C2F10002410021FA02F1C2F155
:100DF000200200FA02FC5FEA310040F1000053EAF1
:100E00004C0308BF20EADC70704792F0000F00F03E
:100E1000004C02BF400010F4000F013AF9D040EA44
:100E20000C0093F0000F01F0004C02BF490011F4D8
:100E3000000F013BF9D041EA0C018FE70CEAD153D6
:100E400092EA0C0F18BF93EA0C0F0AD030F0004C56
:100E500018BF31F0004CD8D180EA010000F000400A
:100E6000704790F0000F17BF90F0004F084691F0C8
:100E7000000F91F0004F14D092EA0C0F01D1420202
:100E80000FD193EA0C0F03D14B0218BF084608D1CB
:100E900080EA010000F0004040F0FE4040F4000015
:100EA000704740F0FE4040F4400070474FF0FF0CA8
:100EB0001CEAD0521EBF1CEAD15392EA0C0F93EAEF
:100EC0000C0F69D0A2EB030280EA010C49024FEA41
:100ED000402037D04FF0805343EA111143EA1013FA
:100EE0000CF000408B4238BF5B0042F17D024FF4B2
:100EF000000C8B4224BF5B1A40EA0C00B3EB510F8D
:100F000024BFA3EB510340EA5C00B3EB910F24BF75
:100F1000A3EB910340EA9C00B3EBD10F24BFA3EBFA
:100F2000D10340EADC001B0118BF5FEA1C1CE0D1C2
:100F3000FD2A3FF650AF8B4240EBC25008BF20F075
:100F4000010070470CF0004C4CEA50207F32C2BFC9
:100F5000D2F1FF0340EAC250704740F400004FF066
:100F60000003013A37E792F0000F00F0004C02BF97
:100F7000400010F4000F013AF9D040EA0C0093F061
:100F8000000F01F0004C02BF490011F4000F013BBB
:100F9000F9D041EA0C0195E70CEAD15392EA0C0F23
:100FA00008D142027FF47DAF93EA0C0F7FF470AF5B
:100FB000084676E793EA0C0F04D14B023FF44CAF9E
:100FC00008466EE730F0004C18BF31F0004CCAD133
:100FD00030F000427FF45CAF31F000437FF43CAF6F
:100FE0005FE700BF4FF0FF3C06E000BF4FF0010C91
:100FF00002E000BF4FF0010C4DF804CD4FEA400273
:101000004FEA41037FEA226C18BF7FEA236C11D0BC
:1010100001B052EA530C18BF90EA010F58BFB2EB6F
:10102000030088BFC81738BF6FEAE17018BF40F0EF
:10103000010070477FEA226C02D15FEA402C05D1A3
:101040007FEA236CE4D15FEA412CE1D05DF8040B28
:10105000704700BF844608466146FFE70FB5FFF7BB
:10106000C9FF002848BF10F1000F0FBD4DF808ED73
:10107000FFF7F4FF0CBF012000205DF808FB00BF64
:101080004DF808EDFFF7EAFF34BF012000205DF8BE
:1010900008FB00BF4DF808EDFFF7E0FF94BF01200B
:1010A00000205DF808FB00BF4DF808EDFFF7D2FF08
:1010B00094BF012000205DF808FB00BF4DF808ED4B
:1010C000FFF7C8FF34BF012000205DF808FB00BF18
:1010D0004FEA4002B2F1FE4F0FD34FF09E03B3EB45
:1010E00012620DD94FEA002343F0004310F0004F85
:1010F00023FA02F018BF404270474FF000007047DB
:1011000012F1610F01D1420205D110F0004008BF79
:101110006FF0004070474FF00000704742000ED261
:10112000B2F1FE4F0BD34FF09E03B3EB126209D422
:101130004FEA002343F0004323FA02F070474FF0D8
:101140000000704712F1610F01D1420202D14FF04D
:10115000FF3070474FF00000704700BF10B50446E5
:101160000E4B18784FF47A73B3FBF0F30C4A106807
:10117000B0FBF3F000F022FB68B90F2C01D901207D
:101180000AE0002221464FF0FF3000F0D5FA054B6F
:101190001C60002000E0012010BD00BF0000002006
:1011A000740000200400002008B5074A136843F0CB
:1011B00010031360032000F0ADFA0020FFF7CEFF0C
:1011C00006F0D0F9002008BD00200240034A116853
:1011D000034B1B780B441360704700BFD8050020F9
:1011E00000000020014B1868704700BFD8050020A0
:1011F0000368D86C7047704710B5044603685A6896
:1012000012F0200F18D01A6812F0020F14D0826A60
:1012100012F0100F03D1826A42F4007282629A685F
:1012200002F46022B2F5602F38D0204606F054FB5D
:1012300023686FF012021A6023685A6812F0800F58
:1012400022D01A6812F0040F1ED0A26A12F0100FFA
:1012500003D1A26A42F40052A2629A6802F4E04208
:10126000B2F5E04F31D05A6812F4806F05D19A6818
:1012700002F46022B2F5602F24D0204600F048FA34
:1012800023686FF00C021A6023685A6812F0400F4E
:1012900003D01B6813F0010F28D110BD227B002A58
:1012A000C3D15A6822F020025A60A36A23F48073E3
:1012B000A362A36A13F4805FB7D1A36A43F001036A
:1012C000A362B2E7227B002AD7D15A6822F08002BB
:1012D0005A60A36A23F48053A362A36A13F4807F45
:1012E000CBD1A36A43F00103A362C6E7A36A43F428
:1012F0008033A3622046FFF77EFF23686FF0010270
:101300001A60CAE730B482B00023019390F8243009
:10131000012B00F08B800246012380F824304B68BB
:10132000062B29D80568686B03EB8303053B1F2454
:101330009C4020EA04000C6804FA03F303436B6347
:101340000B68092B38D91568E86803EB43031E3B8B
:1013500007249C4020EA04008C6804FA03F303434A
:10136000EB600B68103B012B34D90020002382F87E
:10137000243002B030BC70470C2B0ED80568286BA7
:1013800003EB8303233B1F249C4020EA04000C68EA
:1013900004FA03F303432B63D2E70568E86A03EB1F
:1013A0008303413B1F249C4020EA04000C6804FA9C
:1013B00003F30343EB62C3E71568286903EB4303B8
:1013C00007249C4020EA04008C6804FA03F30343DA
:1013D0002B61C6E713681648834205D0936A43F031
:1013E000200393620120C1E7986810F4000F1BD11D
:1013F000986840F4000098600B68102B01D0002022
:10140000B4E70C4B1B680C49A1FB03139B0C03EBCB
:1014100083035900019102E0019B013B0193019B71
:10142000002BF9D10020A1E700209FE70220A0E7D0
:10143000002401407400002083DE1B4330B583B0DC
:101440000023019303689A6812F0010F2ED19A6865
:1014500042F001029A60174B1B68174AA2FB032354
:101460009B0C019302E0019B013B0193019B002B2C
:10147000F9D10446FFF7B6FE054623689B6813F0D2
:10148000010F11D1FFF7AEFE401B0228F5D9A36A68
:1014900043F01003A362E36A43F00103E362002315
:1014A00084F82430012002E0002000E0002003B096
:1014B00030BD00BF7400002083DE1B4390F8243051
:1014C000012B6FD010B50446012380F82430FFF7BC
:1014D000B5FF0246002860D1A36A23F4706323F0AD
:1014E000010343F48073A362236830498B422CD0FC
:1014F000A16A21F48011A162596811F4806F05D0AE
:10150000A16A21F4405141F48051A162A16A11F411
:10151000805F30D0E16A21F00601E162002184F8A9
:1015200024106FF00201196021684B6843F020031A
:101530004B602368996801F46021B1F5602F1DD0DC
:10154000996841F4801199602AE0A1F580614968A9
:1015500011F4702FCCD0A16A41F48011A16214491A
:10156000496811F4806FD1D0A16A21F4405141F44F
:101570008051A162CAE70021E162CFE70B498B42AB
:1015800004D0996841F4A001996009E0A1F5806157
:10159000496811F4702FD3D1F3E7002384F8243085
:1015A000104610BD02221046704700BF00280140BF
:1015B0000024014038B503689A6812F0010F01D188
:1015C000002038BD04469A6822F001029A60FFF7B5
:1015D00009FE054623689B6813F0010F0ED0FFF744
:1015E00001FE401B0228F5D9A36A43F01003A36251
:1015F000E36A43F00103E3620120E2E70020E0E751
:1016000000287FD038B50446836A002B33D02046AB
:10161000FFF7D0FFA36A13F010036DD100286BD140
:10162000A26A22F4885222F0020242F00202A2626E
:101630006268E1690A43257B42EA4502A168B1F587
:10164000807F21D001291CD0217D01291FD0256850
:10165000696821F469410B436B6021688D682A4BEE
:101660002B4013438B60A368B3F5807F20D0012B00
:101670001ED000211FE0C36280F8243005F094FFE3
:10168000C5E74FF48073DFE74FF48073DCE735B9CB
:10169000A169013943EA413343F40063D7E7A16A02
:1016A00041F02001A162E16A41F00101E162CEE76F
:1016B0002369013B19052568EB6A23F470030B438A
:1016C000EB6223689968114B0B409A420BD0A36AD6
:1016D00023F0120343F01003A362E36A43F0010313
:1016E000E36201200DE00023E362A36A23F0030319
:1016F00043F00103A36204E0A36A43F01003A36272
:10170000012038BD01207047FDF7E1FFFE0E1FFFED
:1017100070470000074AD36823F4E0631B041B0CE6
:10172000000200F4E060184340F0BF6040F4003075
:10173000D060704700ED00E030B4174BDB68C3F3B6
:101740000223C3F10704042C28BF04241D1D062D09
:1017500018D9033B4FF0FF3505FA04F421EA0401E0
:10176000994005FA03F322EA0303194300280BDB2F
:101770000901C9B200F1604000F5614080F8001332
:1017800030BC70470023E5E700F00F000901C9B243
:10179000024B1954F4E700BF00ED00E014ED00E047
:1017A000002807DB00F01F02400901239340024A92
:1017B00042F82030704700BF00E100E00138B0F18E
:1017C000807F0AD2064B5860064AF02182F8231027
:1017D0000020986007221A6070470120704700BF00
:1017E00010E000E000ED00E070B4066CC56B012471
:1017F000B4406C60046863604368102B05D00368D4
:1018000099600368DA6070BC704703689A60036887
:10181000D960F8E760B310B402460168154B0B4479
:101820001548A0FB03031B099B001364134BD363F0
:10183000022382F82130086820F47F5020F0300025
:10184000536894682343D468234314692343546939
:10185000234394692343D469234303430B6000204B
:101860009063012382F8213082F8200010BC704779
:1018700001207047F8FFFDBFCDCCCCCC000002406A
:1018800038B590F82040012C32D0012480F8204057
:1018900090F82140012C04D0002380F82030022051
:1018A00038BD0446022084F821000020A06325688A
:1018B000286820F0010028602046FFF795FFE36AC2
:1018C0005BB12268136843F00E031360226813684B
:1018D00043F0010313600020E2E72268136823F05D
:1018E000040313602268136843F00A031360EDE7F2
:1018F0000220D5E708B590F82130022B03D004234D
:101900008363012008BD0268136823F00E0313608F
:101910000268136823F0010313600368194A9342B5
:1019200014D0143293421FD0143293421ED014327A
:1019300093421ED0143293421ED01432934202D0EE
:101940004FF0807203E04FF4801200E001220E4B52
:101950005A60012380F82130002380F82030436B47
:101960006BB198470020CDE71022F0E74FF480726A
:10197000EDE74FF48052EAE74FF48032E7E70020CA
:10198000C0E700BF080002400000024038B5C36B4A
:101990001A6804682568016C04238B40134235D013
:1019A00015F0040F32D0236813F0200F03D1236801
:1019B00023F0040323600368434A934214D0143293
:1019C000934218D01432934217D01432934217D056
:1019D0001432934217D01432934202D04FF08062F7
:1019E00003E04FF4800200E00422384B5A60C36ADF
:1019F00003B1984738BD4022F7E74FF48062F4E71F
:101A00004FF48042F1E74FF48022EEE702238B404F
:101A100013423CD015F0020F39D0236813F0200F89
:101A200006D1236823F00A032360012380F82130C4
:101A30000368254A934214D0143293421CD01432C6
:101A400093421BD0143293421BD0143293421BD0CA
:101A50001432934202D04FF0007203E04FF40012B0
:101A600000E00222194B5A60002380F82030836A7C
:101A7000002BBFD09847BDE72022F3E74FF4007258
:101A8000F0E74FF40052EDE74FF40032EAE70823A5
:101A900003FA01F11142ADD015F0080FAAD0236866
:101AA00023F00E032360026CC16B012303FA02F2E0
:101AB0004A60836380F82130002380F82030036B74
:101AC000002B97D0984795E708000240000002409D
:101AD000044B0022DA61044A136943F001031361E5
:101AE00001807047E0050020002002401A4BDB68AF
:101AF00013F0100F27D0194AD36943F00203D361C2
:101B00001023154AD26812F0040F06D01349CA698F
:101B100042F00102CA6143F004030F4AD26912F095
:101B2000010F09D00D49CA6942F00402CA610A498D
:101B3000CA6922F00102CA6140F20112934204D044
:101B4000054AD36070470023DBE7034AD36923F0DB
:101B50000103D361704700BF00200240E005002070
:101B60000A4B1B6913F0800F0DD0084B084A5A60CE
:101B700002F188325A601B6913F0800F01D00120F6
:101B80007047002070470020704700BF00200240CF
:101B900023016745034A136943F080031361002062
:101BA000704700BF0020024038B50446FFF71AFB1B
:101BB0000546174BDB6813F0010F0AD0B4F1FF3F65
:101BC000F7D00CB3FFF70EFB401BA042F1D9032066
:101BD00019E00F4BDB6813F0200F02D00C4B2022D2
:101BE000DA600B4BDB6813F0100F09D1084BDB698F
:101BF00013F0010F04D1064BDB6813F0040F05D07E
:101C0000FFF774FF012038BD0320FCE70020FAE74E
:101C1000002002402DE9F843234C247E012C41D0C2
:101C20001E4690460F4604461F4B01221A764CF280
:101C30005030FFF7B9FF034670BB012C29D0022CAE
:101C400024D04FF0040900244C4525D22101C1F1D4
:101C50002002A1F1200328FA01F106FA02F2114351
:101C600026FA03F3194389B207EB4400FFF730FF6C
:101C70004CF25030FFF798FF0C4B1D6925F0010521
:101C80001D61034640B90134E4B2DDE74FF00209BB
:101C9000D9E74FF00109D6E7034A0021117618462B
:101CA000BDE8F8830223FAE7E005002000200240A7
:101CB000064B0022DA61064B1A6942F004021A61EF
:101CC0001A6942F040021A61704700BFE005002027
:101CD00000200240064B0022DA61064B1A6942F0EE
:101CE00002021A6158611A6942F040021A61704793
:101CF000E005002000200240264B1B7E012B46D031
:101D000070B50E460446234B01221A760368022B57
:101D100020D04CF25030FFF747FF90BB4FF0FF331D
:101D20003360A5680122E168A36803EB8123AB421D
:101D300028D92846FFF7CEFF4CF25030FFF734FF8A
:101D4000154A136923F0020313610246B8B905F579
:101D50008065E8E74CF25030FFF726FF08B101221A
:101D600010E00120FFF7A4FF4CF25030FFF71CFFFA
:101D7000024609490B6923F004030B6102E0356058
:101D800000E00122034B00211976104670BD0222AB
:101D900010467047E005002000200240F0B482B0F9
:101DA00000263246A2E0002D5AD0012D00D1CE6887
:101DB000FF2B69D88446FF2B69D89500DCF80040DA
:101DC0000F27AF4024EA070406FA05F52C43CCF8A8
:101DD00000404C6814F0805F00F087805F4CA5697C
:101DE00045F00105A561A46904F001040194019C7A
:101DF0009508AF1C5A4C54F8274002F00307BF0067
:101E00004FF00F0C0CFA07FC24EA0C0C554CA042C6
:101E100043D004F58064A04200F0818004F5806422
:101E2000A0427ED004F58064A04234D0042435E082
:101E30004D4FBD4214D00BD94C4FBD4210D007F5C9
:101E40008037BD420CD0A7F58017BD42B0D107E066
:101E5000A7F58017BD4203D007F58037BD42A7D153
:101E60008D687DB1012D08D044610826A0E7CE68B9
:101E700008369DE7CE680C369AE70461082697E796
:101E8000002695E7042693E700F1040C93E7A2F1FE
:101E90000805AD0092E7032400E00024BC4044EABA
:101EA0000C0402352E4F47F825404C6814F4803F4F
:101EB00039D02F4D2C681C432C604C6814F4003F23
:101EC00037D02B4D6C681C436C604C6814F4801F39
:101ED00035D0274DAC681C43AC604C6814F4001F2F
:101EE00033D0234DEC682343EB6001320B6833FAA7
:101EF00002F430D00124944023409C42F5D14D6837
:101F0000122DB7D094D8022DB1D07FF64CAF032D4F
:101F1000B6D0112D7FF44CAFCE68043648E70124CB
:101F2000BCE70224BAE7124D2C6824EA03042C60B3
:101F3000C3E70F4D6C6824EA03046C60C5E70C4DE1
:101F4000AC6824EA0304AC60C7E7094DEC6824EAF6
:101F50000303EB60C9E702B0F0BC70470010024019
:101F60000000014000080140000021100000311075
:101F7000000401408368194201D10020704701200C
:101F8000704712B90904016170470161704790F808
:101F90002832012B0DD010B50446012380F82832D9
:101FA00080F82410006802F0CAF8002084F82802A3
:101FB00010BD0220704770B511F0800F23D101F0E1
:101FC00007056D0105F5947404440544002685F861
:101FD000296101F0070121702261E370627802B18A
:101FE000E181022B1AD090F82832012B19D0054636
:101FF000012380F828322146006801F076FE002097
:1020000085F8280270BD01F007056D0105F128046F
:1020100004440544012685F82960DAE7002323718A
:10202000E1E70220EEE770B501F007056C0104F569
:10203000947101440444C4F83C2105F10A025201A0
:10204000861883500023736084F8293184F828515E
:1020500025B1006802F093F8002070BD006802F01E
:102060008EF8F9E770B501F007056C0104F128015D
:1020700001440444E263AA1C5201861883500023E1
:102080007360012384F8293084F8285025B1006852
:1020900002F075F8002070BD006802F070F8F9E7F2
:1020A000F8B504462068B0F8443013F4004F00F04F
:1020B000AD81B0F844309BB213F00F0540F0CD80F5
:1020C00013F0100F58D003889BB213F4006F40F048
:1020D000898013F4004FE5D0038823F070031B05BB
:1020E0001B0D43F0800303802068B0F8503094F853
:1020F000282103EBC203063300EB4303B3F800349B
:10210000C3F30903C4F844318BB1D4F83C1171B165
:10211000B4F82E2102F0C3F9D4F84421D4F83C31AC
:102120001344C4F83C310021204605F0F4FC236838
:10213000B3F850201344D4F83821002A74D1B3F8EE
:102140000C2492B222F4F84292B2A3F80C24B3F811
:102150000C2442F40042A3F80C24226813889BB29A
:1021600023F4804323F0700383F4405343F400438B
:1021700043F08003138095E703889BB223F4E14387
:1021800023F070036FEA43436FEA53439BB203802B
:102190002268B2F8503094F8281003EBC1030233E0
:1021A00002EB4303B3F80034C3F309036364E26B47
:1021B0001344E3630021204605F0B7FC94F8243073
:1021C000002B3FF46FAF236C002B7FF46BAF94F8C0
:1021D0002430226843F08003A2F84C30002384F8B6
:1021E00024305FE7B0F8503094F8282103EBC203A5
:1021F000063300EB4303B3F80034C3F30903C4F818
:102200004431B4F82E2104F50C7102F048F922682B
:10221000138823F070031B051B0D43F0800313800C
:10222000204605F070FC3DE73E2A09D8510812F01F
:10223000010F00D00131890289B2A3F80C148CE798
:10224000510912F01F0F00D101396FEAC1626FEA24
:10225000524292B2A3F80C247FE730F82560B6B260
:1022600016F4004F33D116F0800F3FF41BAF2268F5
:1022700032F825309BB223F4E14323F070036FEA78
:1022800043436FEA53439BB222F825302268B2F8E9
:10229000503004EB451090F8281003EBC1030233D3
:1022A00002EB4303B3F80024C2F30902AB1C5B0149
:1022B000E1184A60C16B0A44C263E358002B40F046
:1022C0009D8090F82810204605F02FFCEAE630F8B3
:1022D000253023F070031B051B0D43F0800320F80D
:1022E000253004EB451393F83431D3B92068B0F8A6
:1022F000503004EB451292F8282103EBC203063359
:1023000000EB4303B3F80074C7F309078FB304EB82
:1023100045113B46B1F82E21D1F83C1102F0BFF82F
:1023200027E0206804EB451393F8282130F8223089
:1023300013F4804F43D0B0F8503003EBC2030233A4
:1023400000EB4303B3F80074C7F309076FBB2268BF
:1023500004EB451393F8281132F821309BB223F493
:10236000E04323F0700343F4004343F0C00322F83A
:10237000213005F10A035B01E1184A683A444A60DA
:1023800004EB4511D1F83C213A44C1F83C21E35813
:102390001BB1D1F838118F4228D204EB451393F8C2
:1023A0002811204605F0B7FB5DE704EB45113B46DD
:1023B000B1F83021D1F83C1102F071F8C7E7B0F85C
:1023C000503003EBC203063300EB4303B3F8007451
:1023D000C7F30907002FBAD004EB45113B46B1F80B
:1023E0003221D1F83C1102F05AF8B0E704EB451164
:1023F00091F828112046FFF716FE34E704EB451547
:1024000095F828102046FFF72DFE4BE60020F8BD7A
:1024100010B50446006801F098FE10F4004F45D155
:10242000206801F092FE10F4806F43D1206801F023
:102430008CFE10F4804F08D02268B2F844309BB272
:1024400023F480439BB2A2F84430206801F07DFE63
:1024500010F4005F08D02268B2F844309BB223F435
:1024600000539BB2A2F84430206801F06EFE10F4D5
:10247000805F30D1206801F068FE10F4006F49D110
:10248000206801F062FE10F4007F6DD1206801F039
:102490005CFE10F4807F08D02268B2F844309BB212
:1024A00023F480739BB2A2F8443010BD2046FFF79E
:1024B000F7FDB5E72268B2F844309BB223F480639D
:1024C0009BB2A2F84430204605F03EFB0021204696
:1024D000FFF75DFDAAE72268B2F840309BB223F017
:1024E00004039BB2A2F840302268B2F840309BB29D
:1024F00023F008039BB2A2F84030204605F046FBCB
:102500002268B2F844309BB223F480539BB2A2F805
:102510004430AFE72268B2F8403043F00803A2F835
:1025200040302268B2F844309BB223F400639BB27F
:10253000A2F844302268B2F8403043F00403A2F815
:102540004030206801F001FE10F4805F08D022685E
:10255000B2F844309BB223F480539BB2A2F84430CB
:10256000204605F003FB8BE72268B2F844309BB2AB
:1025700023F400739BB2A2F84430204605F0DEFA43
:1025800084E738B501F0070543689D422CD811F067
:10259000800F1AD14B0103F59471014403440022CA
:1025A00083F8292101238B700D7090F82832012BBC
:1025B0001CD00446012380F82832006801F049FD50
:1025C00065B1002084F828020FE06B0103F12801B7
:1025D00001440344012283F82920E3E704F50C7148
:1025E000206801F0B5FDECE7012038BD0220FCE7D2
:1025F00001F00F0243689A422DD810B511F0800FF8
:102600001ED101F007035B0103F5947202440344F9
:10261000002483F829410023937001F0070313700D
:1026200090F82832012B18D00446012380F8283274
:102630001146006801F032FD002084F8280210BD28
:1026400001F007035B0103F1280202440344012463
:1026500083F82940DFE7012070470220EFE7000000
:1026600082B0084B1B68084AA2FB03235B0A00FBED
:1026700003F0019000BF019B5A1E0192002BF9D17B
:1026800002B0704774000020D34D6210002800F0A3
:10269000F58170B582B00446036813F0010F2CD0A9
:1026A000AB4B5B6803F00C03042B1DD0A84B5B689D
:1026B00003F00C03082B12D06368B3F5803F41D0C0
:1026C000002B55D103F1804303F504331A6822F43B
:1026D00080321A601A6822F480221A6037E09C4B1C
:1026E0005B6813F4803FE7D0994B1B6813F4003FFD
:1026F00003D06368002B00F0C381236813F0020F3E
:1027000076D0934B5B6813F00C0F5FD0904B5B68F7
:1027100003F00C03082B54D02369002B00F08A80AF
:102720008C4B01221A60FEF75DFD0546884B1B6845
:1027300013F0020F75D1FEF755FD401B0228F5D9A5
:102740000320A0E1824A136843F480331360636876
:1027500043B3FEF747FD05467D4B1B6813F4003F6E
:10276000CBD1FEF73FFD401B6428F5D903208AE159
:10277000B3F5A02F09D0764B1A6822F480321A6084
:102780001A6822F480221A60E1E703F18043A3F57E
:102790003C331A6842F480221A601A6842F480328C
:1027A0001A60D4E7FEF71EFD0546694B1B6813F45B
:1027B000003FA2D0FEF716FD401B6428F5D9032088
:1027C00061E1634B5B6813F4803FA5D1604B1B68EC
:1027D00013F0020F04D02369012B01D0012052E134
:1027E0005B4A136823F0F803616943EAC10313608D
:1027F000236813F0080F32D0A369002B5BD0564B2F
:1028000001221A60FEF7EEFC0546514B5B6A13F09D
:10281000020F21D1FEF7E6FC401B0228F5D9032068
:1028200031E14B4A136823F0F803616943EAC103BD
:102830001360DDE7474B00221A60FEF7D3FC054624
:10284000434B1B6813F0020FD2D0FEF7CBFC401BAA
:102850000228F5D9032016E10120FFF701FF2368C4
:1028600013F0040F00F09880394BDB6913F0805FA0
:1028700033D1374BDA6942F08052DA61DB6903F019
:1028800080530193019B0125344B1B6813F4807F17
:1028900025D0E368012B36D0002B4CD103F18043C7
:1028A00003F504331A6A22F001021A621A6A22F04E
:1028B00004021A622CE0284B00221A60FEF792FCF8
:1028C0000546234B5B6A13F0020FC8D0FEF78AFC63
:1028D000401B0228F5D90320D5E00025D4E71F4A84
:1028E000136843F480731360FEF77CFC06461B4BB1
:1028F0001B6813F4807FCCD1FEF774FC801B642826
:10290000F5D90320BFE0124A136A43F001031362B2
:10291000E3687BB3FEF766FC06460D4B1B6A13F0BB
:10292000020F38D1FEF75EFC801B41F288339842DB
:10293000F3D90320A7E0052B12D0054B1A6A22F029
:1029400001021A621A6A22F004021A62E0E700BF6A
:1029500000100240000042428004424200700040E9
:102960004C4B1A6A42F004021A621A6A42F00102DF
:102970001A62CDE7FEF736FC0646464B1B6A13F09B
:10298000020F08D0FEF72EFC801B41F288339842DC
:10299000F3D9032077E0E5B9E369002B72D03D4A13
:1029A000526802F00C02082A56D0022B17D03A4B7C
:1029B00000221A60FEF716FC0446364B1B6813F023
:1029C000007F47D0FEF70EFC001B0228F5D903203C
:1029D00059E0304AD36923F08053D361DCE72E4BB2
:1029E00000221A60FEF7FEFB05462A4B1B6813F017
:1029F000007F06D0FEF7F6FB401B0228F5D9032026
:102A000041E0236AB3F5803F1AD022494B6823F492
:102A10007413226A606A024313434B601E4B012207
:102A20001A60FEF7DFFB04461A4B1B6813F0007FA9
:102A30000ED1FEF7D7FB001B0228F5D9032022E0B8
:102A4000144A536823F40033A1680B435360DCE756
:102A5000002018E0002016E0012B16D00D4B5B681B
:102A600003F48031226A914201D001200BE003F48B
:102A70007013626A93420AD0012004E0012070477B
:102A8000012000E0002002B070BD0120FBE7002023
:102A9000F9E700BF001002406000424210B487B066
:102AA000164C94E80F000DF1180C0CE90F00238A66
:102AB000ADF80430124B5B6803F00C02082A1AD1FF
:102AC000C3F38342624412F8102C13F4803F05D103
:102AD0000C4800FB02F007B010BC7047084B5B6865
:102AE000C3F34043634413F8143C074800FB02F06F
:102AF000B0FBF3F0EFE70448EDE700BF28B30008B0
:102B00000010024000093D0000127A00002800F089
:102B1000A38070B50446524B1B6803F007038B4239
:102B20000CD24F4A136823F007030B43136013685A
:102B300003F007038B4201D0012070BD236813F01E
:102B4000020F17D013F0040F04D0464A536843F421
:102B5000E0635360236813F0080F04D0414A5368C0
:102B600043F4605353603F4A536823F0F003A06876
:102B7000034353600D46236813F0010F31D063689F
:102B8000012B20D0022B25D0364A126812F0020FFA
:102B900064D034494A6822F0030213434B60FEF7C5
:102BA00021FB06462F4B5B6803F00C036268B3EB16
:102BB000820F16D0FEF716FB801B41F28833984235
:102BC000F0D90320B9E7274A126812F4003FE0D198
:102BD0000120B2E7234A126812F0007FD9D1012008
:102BE000ABE71F4B1B6803F00703AB420CD91C4A31
:102BF000136823F007032B431360136803F00703E4
:102C0000AB4201D0012098E7236813F0040F06D0EF
:102C1000144A536823F4E063E1680B43536023686C
:102C200013F0080F07D00F4A536823F4605321694B
:102C300043EAC1035360FFF731FF0A4B5B68C3F3FC
:102C40000313094AD35CD840084B1860084B186836
:102C5000FEF784FA002070E70120704701206CE73E
:102C600000200240001002405CC3000874000020F5
:102C700004000020014B1868704700BF740000205A
:102C800008B5FFF7F7FF044B5B68C3F30223034A61
:102C9000D35CD84008BD00BF001002406CC30008E0
:102CA00008B5FFF7E7FF044B5B68C3F3C223034A91
:102CB000D35CD84008BD00BF001002406CC30008C0
:102CC00070B582B00446036813F0010F34D03E4B58
:102CD000DB6913F0805F48D13B4BDA6942F08052E8
:102CE000DA61DB6903F080530193019B0125374BC7
:102CF0001B6813F4807F3AD0334B1B6A13F4407384
:102D000011D0626802F440729A420CD02E4A136AC3
:102D100023F440702E4901260E6000260E601062DA
:102D200013F0010F37D1284A136A23F44073616806
:102D30000B431362002D3FD1236813F0020F06D01E
:102D4000214A536823F44043A1680B43536023682E
:102D500013F0100F35D01C4A536823F48003E16848
:102D60000B435360002002B070BD0025BFE7174A37
:102D7000136843F480731360FEF734FA0646134B6E
:102D80001B6813F4807FB7D1FEF72CFA801B6428F0
:102D9000F5D90320E7E7FEF725FA06460A4B1B6A3A
:102DA00013F0020FBFD1FEF71DFA801B41F28833EA
:102DB0009842F3D90320D6E7D36923F08053D36137
:102DC000BAE70020CFE700BF0010024000700040CB
:102DD00040044242F8B505460F4616461C462B688D
:102DE0009B6837EA03030CBF01230023B34237D0AB
:102DF000B4F1FF3FF3D0FEF7F5F9069BC01AA042ED
:102E000001D2002CEBD12A68536823F0E003536011
:102E10006B68B3F5827F0BD0AB6AB3F5005F14D05B
:102E2000012385F85130002385F85030032018E045
:102E3000AB68B3F5004F02D0B3F5806FECD12A68D0
:102E4000136823F040031360E6E72A68136823F44D
:102E5000005313602A68136843F400531360DFE7DC
:102E60000020F8BD10B582B0044600920B46002247
:102E70008021FFF7AFFF034610B9184602B010BD1E
:102E8000636D43F0200363650323F6E77047002872
:102E900039D010B504460023836290F85130002BDE
:102EA0002CD0022384F851302268136823F04003A9
:102EB00013606368A2681343E268134322691343F3
:102EC00062691343A26902F400721343E269134377
:102ED000226A1343A16A22680B431360638B226842
:102EE00003F0040353602268D36923F40063D361C1
:102EF00000206065012384F8513010BD80F8503007
:102F0000FFF7C4FFCDE7012070472DE9F04182B003
:102F100090F85040012C00F0C3801D4617468846AB
:102F20000446012380F85030FEF75CF9064694F819
:102F30005130DBB2012B09D00220012384F851303B
:102F4000002384F8503002B0BDE8F081B8F1000FE2
:102F500000F09880002F00F09780032384F8513010
:102F600000236365C4F83080A786E786A363A38740
:102F7000E38763642364A368B3F5004F1CD0236820
:102F80001A6812F0400F03D11A6842F040021A602A
:102F9000E368B3F5006F15D063680BB1012F49D119
:102FA000226B236812781A73236B01332363E38E39
:102FB000013B9BB2E3863DE02268136843F4804303
:102FC0001360DCE763680BB1012F15D1226B236816
:102FD0001288DA60236B02332363E38E013B9BB2DA
:102FE000E38609E0FEF7FEF8801BA84202D3B5F1A4
:102FF000FF3F4BD1002D4BD0E38E9BB2002B2CD04A
:1030000023689A6812F0020FECD0226B1288DA6003
:10301000236B02332363E38E013B9BB2E386EBE732
:10302000FEF7E0F8801BA84202D3B5F1FF3F31D193
:10303000002D31D0E38E9BB27BB123689A6812F0E9
:10304000020FEDD0226B12781A73236B01332363C6
:10305000E38E013B9BB2E386ECE7324629462046ED
:10306000FFF700FF08B120236365A36833B901931C
:103070002368DA6801929B680193019B636D6BB9C9
:1030800000205AE7012058E7012056E7032054E7C3
:10309000032052E7032050E703204EE701204CE7CE
:1030A000022050E790F85030012B5FD010B5044655
:1030B000012380F8503090F85130DBB2012B05D05D
:1030C0000223002284F85020184610BD002949D060
:1030D000002A49D0032380F851300023436501635F
:1030E0008286C2868363436403648387C38783685D
:1030F000B3F5004F1CD0A36C1E4ADA62A36C1E4AC3
:103100009A62A36C1D4A1A63A36C00225A63226858
:10311000E38E0C32216BA06CFEF7B2FB034668B164
:10312000636D43F010036365012384F85130C8E7F1
:103130000268136843F480431360DCE72268116877
:1031400011F0400F03D1116841F040011160216876
:103150004A6842F020024A6021684A6842F002024E
:103160004A60AEE70123ACE70123AAE70223184631
:10317000704700BF85310008B33100089131000865
:103180007047704708B5406AFFF7FBFF08BD7047FE
:1031900008B5406A0268536823F003035360436D27
:1031A00043F010034365012380F85130FFF7EFFF30
:1031B00008BD30B583B00546446AFEF713F82B68A6
:1031C0001B6813F0200F23D12268536823F02003DB
:1031D00053602268536823F002035360024664215F
:1031E0002046FFF73FFE18B1636D43F0200363658F
:1031F000A36833B901932368DA6801929B6801934D
:10320000019B0023E386012384F85130636D23B9C9
:103210002046FFF7B5FF03B030BD2046FFF7B7FFEC
:10322000F9E7000070B4036A23F001030362036A44
:103230004268846924F073040D6845EA040623F0AB
:1032400002048B6823430D4DA84209D00B4DA842C0
:103250000DD0426086614A684263036270BC704769
:1032600023F00803CC68234323F00403EEE722F4A1
:1032700040724C6914438A692243EAE7002C0140FA
:1032800030B4036A23F480730362036A4268C4693A
:1032900024F073040D682C4323F400738D6843EA13
:1032A00005230F4DA84209D00D4DA8420ED0426013
:1032B000C4614A68C263036230BC704723F4006390
:1032C000CD6843EA052323F48063EDE722F44052FE
:1032D0004D6942EA05128D6942EA0512E7E700BF2F
:1032E000002C014030B4036A23F480530362036A64
:1032F0004468C26922F4E6420D6842EA052223F4DA
:1033000000538D6843EA0533074DA84206D0446058
:10331000C2614A680264036230BC704724F480448E
:103320004D6944EA8514F2E7002C014010B4036AA9
:10333000046A24F001040462846924F0F00444EA7D
:10334000021223F00A030B438261036210BC704730
:1033500010B4036A23F0100303628469036A24F43F
:10336000704444EA023223F0A00343EA011382616D
:10337000036210BC7047836823F07003194341F067
:103380000701816070477047022380F83D30026872
:10339000936803F00703062B03D0136843F001037F
:1033A0001360012380F83D30002070477047000013
:1033B00003681B4A90420AD0B0F1804F07D0A2F5B3
:1033C0009432904203D002F58062904203D123F000
:1033D00070034A681343124A90420AD0B0F1804FFA
:1033E00007D0A2F59432904203D002F58062904259
:1033F00003D123F44073CA68134323F080034A695E
:10340000134303608B68C3620B688362044B98426A
:1034100002D00123436170470B690363F9E700BFE2
:10342000002C0140A8B110B5044690F83D305BB1C6
:10343000022384F83D30211D2068FFF7B9FF0123E6
:1034400084F83D30002010BD80F83C30FFF79BFF32
:10345000EEE701207047A8B110B5044690F83D3062
:103460005BB1022384F83D30211D2068FFF7A0FFE7
:10347000012384F83D30002010BD80F83C30FFF778
:1034800095FFEEE70120704730B4036A23F0100384
:103490000362036A4468826922F4E6420D6842EAE4
:1034A000052223F020038D6843EA05130E4DA84240
:1034B00009D00D4DA8420ED0446082614A688263F3
:1034C000036230BC704723F08003CD6843EA0513E4
:1034D00023F04003EDE724F440644D6944EA850499
:1034E0008D6944EA8504E7E7002C014038B590F87F
:1034F0003C30012B66D00D460446012380F83C3059
:10350000022380F83D300C2A1AD8DFE802F00719B0
:103510001919201919193419191947000068FFF7EA
:1035200081FE2268936943F00803936122689369DE
:1035300023F0040393612268936929690B43936123
:10354000012384F83D30002084F83C0038BD006839
:10355000FFF79AFF2268936943F40063936122683E
:10356000936923F48063936122689369296943EA2C
:1035700001239361E4E70068FFF782FE2268D369C4
:1035800043F00803D3612268D36923F00403D361B5
:103590002268D36929690B43D361D1E70068FFF73B
:1035A000A1FE2268D36943F40063D3612268D36922
:1035B00023F48063D3612268D369296943EA012334
:1035C000D361BDE70220C1E710B4846824F47F44CE
:1035D00042EA03230B432343836010BC704790F8F7
:1035E0003C30012B66D010B50446012380F83C30F6
:1035F000022380F83D300268936823F47F4323F070
:10360000770393600B68402B4AD013D9602B3DD0D1
:103610001ED9702B28D0B3F5005F30D1CB684A6833
:1036200089680068FFF7D0FF2268936843F48043FD
:10363000936024E0102B06D004D9202B03D0302B2C
:1036400001D01CE0DBB919462068FFF794FE16E0B4
:10365000502B14D1CA6849680068FFF767FE5021F3
:103660002068FFF788FE0AE0CB684A68896800682E
:10367000FFF7AAFF2268936843F077039360012362
:1036800084F83D30002084F83C0010BDCA684968C9
:103690000068FFF75DFE60212068FFF76CFEEEE733
:1036A000CA6849680068FFF741FE40212068FFF7BB
:1036B00062FEE4E70220704710B401F01F0101230D
:1036C00003FA01F4036A23EA04030362036A8A40EB
:1036D0001343036210BC704710B504460122006812
:1036E000FFF7EAFF23680A4A93420BD022689368E7
:1036F00003F00703062B03D0136843F001031360A4
:10370000002010BD5A6C42F400425A64EEE700BF3C
:10371000002C01400268D36823F49073D3600268E0
:10372000536923F001035361202380F83A30704736
:1037300090F83930DBB2212B2AD18368B3F5805F52
:1037400016D0036A5A1C02621A7803685A60C38C46
:10375000013B9BB2C384EBB90268D36823F08003BA
:10376000D3600268D36843F04003D3600020704701
:10377000036A1B880268C3F30803536003691BB91B
:10378000036A02330362E2E7036A01330362DEE79E
:10379000022070470020704738B50446026813695C
:1037A00023F44053C1680B431361836802691343D8
:1037B00042691A430168CB6823F4B05323F00C0329
:1037C0001343CB600268536923F4407381690B4350
:1037D00053610268214B9A421FD0FFF751FA00EB68
:1037E000800000EB800063689B00B0FBF3F01C4D91
:1037F000A5FB00325109642202FB1102130132338E
:10380000A5FB03235B0903F0F00202EB011203F0B6
:103810000F03216813448B6038BDFFF741FA00EBBA
:10382000800000EB800063689B00B0FBF3F00C4D60
:10383000A5FB00325109642202FB1102130132334D
:10384000A5FB03235B0903F0F00202EB011203F076
:103850000F03216813448B60DEE700BF003801408E
:103860001F85EB512DE9F04105460F461646984657
:10387000069C2B681B6837EA03030CBF0123002357
:10388000B3421DD1B4F1FF3FF3D02CB1FDF7AAFC38
:10389000A0EB0800A042ECD92A68D36823F4D073C7
:1038A000D3602A68536923F001035361202385F80C
:1038B000393085F83A30002385F83830032000E0AD
:1038C0000020BDE8F08158B310B5044690F83930B7
:1038D0000BB3242384F839302268D36823F40053CF
:1038E000D3602046FFF758FF2268136923F4904302
:1038F00013612268536923F02A0353612268D36855
:1039000043F40053D3600020E063202384F839306F
:1039100084F83A3010BD80F8383003F097FED8E7CD
:1039200001207047002830D010B5044690F8393097
:1039300033B3242384F839302268D36823F4005346
:10394000D3602046FFF728FF2268136923F49043D1
:1039500013612268536923F022035361226853697B
:1039600043F0080353612268D36843F40053D360E3
:103970000020E063202384F8393084F83A3010BD09
:1039800080F8383003F062FED3E7012070472DE95C
:10399000F04182B01E4690F83930DBB2202B55D171
:1039A00004460D469046002955D0002A55D090F87F
:1039B0003830012B53D0012380F838300023C36303
:1039C000212380F83930FDF70DFC0746A4F8248048
:1039D000A4F8268010E000963B4600228021204675
:1039E000FFF740FF00283CD12B882268C3F308036F
:1039F00053602369C3B90235E38C9BB2B3B1E38C46
:103A0000013B9BB2E384A368B3F5805FE3D00096EB
:103A10003B46002280212046FFF724FF18BB2A786E
:103A200023685A600135E7E70135E5E700963B4634
:103A3000002240212046FFF715FF0346A8B92022A7
:103A400084F83920002284F8382000E00223184648
:103A500002B0BDE8F0810123F9E70123F7E7022373
:103A6000F5E70323F3E70323F1E70323EFE790F8F8
:103A70003A30DBB2202B20D109B312B390F83830A2
:103A8000012B20D081628285C2850023C36322225C
:103A900080F83A2080F838300168CA6842F48072B1
:103AA000CA6001684A6942F001024A610168CA6855
:103AB00042F02002CA601846704702207047012079
:103AC00070470120704702207047704708B50168B1
:103AD000CB6823F04003CB60202380F83930FFF718
:103AE000F4FF002008BD08B590F83A30DBB2222B75
:103AF00045D18368B3F5805F0ED0036903BB0368CB
:103B00005A68836A591C81621A70C38D013B9BB24B
:103B1000C385F3B1002033E0826A036943B90368C7
:103B20005B68C3F308031380836A02338362ECE7A4
:103B300003685B68DBB21380836A01338362E4E766
:103B400003685B68826A511C816203F07F03137013
:103B5000DBE70268D36823F02003D3600268D368F0
:103B600023F48073D3600268536923F00103536127
:103B7000202380F83A3001F0E3F9002000E0022031
:103B800008BD704710B5044602681368D1685269D1
:103B900013F00F0005D113F0200F02D011F0200F09
:103BA00053D1002867D012F0010202D111F4907FA6
:103BB00061D013F0010F06D011F4807F03D0E06BC9
:103BC00040F00100E06313F0040F04D01AB1E06B81
:103BD00040F00200E06313F0020F04D01AB1E06B72
:103BE00040F00400E06313F0080F04D01AB1E26B58
:103BF00042F00802E263E26B002A48D013F0200F83
:103C000002D011F0200F24D123685B6903F0400338
:103C1000E26B12F0080F00D13BB32046FFF77AFDAC
:103C200023685A6912F0400F1BD05A6922F04002F3
:103C30005A61636B8BB11A4A5A63606BFDF75AFE87
:103C400028B3606B436B984721E02046FFF74BFF9A
:103C50001DE02046FFF747FFD6E72046FFF791FF1C
:103C600015E02046FFF78DFF11E02046FFF789FFA2
:103C70000023E3630BE013F0800F02D011F0800FFC
:103C800006D113F0400F02D011F0400F04D110BD47
:103C90002046FFF74DFDFAE72046FFF717FFF6E74E
:103CA000A53C000808B5406A0023C385C384FFF71C
:103CB00068FF08BD90F83830012B14D0012380F83C
:103CC0003830242380F839300268D36823F00C039D
:103CD00043F00403D360202380F83930002380F8B8
:103CE0003830184670470220704730B403460C78CD
:103CF00030F8242092B222F4EC4222F0700292B208
:103D0000C87803285AD8DFE800F04D55025100204A
:103D100048F280052A4323F824200C7833F8242025
:103D200092B222F4E04222F0700222432A4323F8A6
:103D300024200A7B002A40F0B1804A78002A4ED025
:103D4000B3F850201A440C7802EB0412CC886408B3
:103D50006400A2F800440C7833F8242012F0400FDD
:103D60000CD033F8242092B222F4E04222F0700208
:103D700042F4004242F0C00223F82420CA78012A0B
:103D80001ED0097833F8212092B222F4E04222F0CA
:103D9000400282F0200242F4004242F0800223F806
:103DA000212060E042F400720020B1E742F4C062DA
:103DB0000020ADE742F480620020A9E70120A7E7D8
:103DC000097833F8212092B222F4E04222F0400236
:103DD00042F4004242F0800223F8212043E0B3F88D
:103DE00050201A440C7802EB0412CC88640864005A
:103DF000A2F80844B3F850201A440C7802EB0412DD
:103E00000C6994BBB2F80C44A4B224F4F844A4B2F4
:103E1000A2F80C44B2F80C4444F40044A2F80C4458
:103E20000C7833F8242012F4804F0CD033F824207F
:103E300092B222F4E04222F0700242F4404242F098
:103E4000800223F82420097833F8212092B222F44A
:103E5000804222F0700282F4405242F4004242F06A
:103E6000800223F8212030BC70473E2C09D8650819
:103E700014F0010F00D00135AD02ADB2A2F80C5420
:103E8000CEE7650914F01F0F00D1013D6FEAC5644C
:103E90006FEA5444A4B2A2F80C44C1E70C7833F89A
:103EA000242092B222F4E04222F0700242F4014255
:103EB00042F0800223F82420B3F850201A440C78F2
:103EC00002EB04120C8964086400A2F80044B3F801
:103ED00050201A440C7802EB04124C8964086400E8
:103EE000A2F808444A78002A4ED10C7833F82420EE
:103EF00012F4804F0CD033F8242092B222F4E04226
:103F000022F0700242F4404242F0800223F8242062
:103F10000C7833F8242012F0400F0CD033F8242012
:103F200092B222F4E04222F0700242F4004242F0E7
:103F3000C00223F824200C7833F8242092B222F413
:103F4000E04222F0700242F4004242F0C00223F844
:103F500024200D7833F8252092B222F4804222F0FA
:103F6000700282F4405248F28004224323F8252054
:103F7000097833F8212092B222F4E04222F0400284
:103F8000224323F821206EE70C7833F8242012F422
:103F9000804F0CD033F8242092B222F4E04222F079
:103FA000700242F4404242F0800223F824200C7850
:103FB00033F8242012F0400F0CD033F8242092B2B2
:103FC00022F4E04222F0700242F4004242F0C002C9
:103FD00023F824200C7833F8242092B222F4E04213
:103FE00022F0700242F4404242F0800223F8242082
:103FF000CA78012A1ED00C7833F8242092B222F419
:10400000E04222F0400282F0200242F4004242F0FC
:10401000800223F82420097833F8212092B222F478
:10402000804222F0700242F4004242F0800223F803
:10403000212018E70C7833F8242092B222F4E042D1
:1040400022F0400242F4004242F0800223F8242091
:10405000E1E74B788BB90A7830F822309BB223F431
:10406000804323F0700383F4805343F4004343F010
:10407000800320F82230002070470A7830F8223080
:104080009BB223F4E04323F0400383F0100343F496
:10409000004343F0800320F82230ECE70B7B002B39
:1040A0004BD14B7833B30A7830F8223013F0400FFD
:1040B0000CD030F822309BB223F4E04323F070039D
:1040C00043F4004343F0C00320F82230CB78012BA7
:1040D00033D00A7830F822309BB223F4E04323F047
:1040E000400383F0200343F4004343F0800320F8AF
:1040F000223022E00A7830F8223013F4804F0CD0BE
:1041000030F822309BB223F4E04323F0700343F4F1
:10411000404343F0800320F822300A7830F8223000
:104120009BB223F4804323F0700383F4405343F4A1
:10413000004343F0800320F822300020704711B97B
:104140008023A0F84C3000207047B0F8440070473E
:104150000020704701335B0800EB420202F58062E9
:1041600063B110B40C78487844EA002422F8044B78
:104170000231013B002BF5D110BC7047704770B580
:104180004E78012E33D08A690B699A4240F2FC8046
:10419000D21A8A610A7B002A40F01381B0F85020BD
:1041A00002440C7802EB0412002B40F0F180B2F8CC
:1041B0000C349BB223F4F8439BB2A2F80C34B2F84F
:1041C0000C3443F40043A2F80C340A7830F822305F
:1041D0009BB223F4804323F0700383F4405343F4F1
:1041E000004343F0800320F82230002070BD8A692C
:1041F0000B699A4222D9D21A8A610C4605460A7B7B
:1042000002B30A7830F8221011F0400F72D0002E5D
:1042100040D1B0F85010014401EB02120BBBB2F8D0
:104220000C1489B221F4F84189B2A2F80C14B2F846
:104230000C1441F40041A2F80C1433E000238B610C
:104240001346DAE79EB23346CA884969FFF782FF10
:10425000B5F850302B44227803EB0213A3F8046422
:1042600037E03E2B09D8590813F0010F00D0013177
:10427000890289B2A2F80C1414E0590913F01F0F37
:1042800000D101396FEAC1616FEA514189B2A2F8E8
:104290000C1407E0B0F85010014401EB021299B27F
:1042A000A2F80C1462899BB261692846FFF752FF9D
:1042B0006378002B57D1227835F822309BB223F453
:1042C000E04323F0700343F4004343F0C00325F8B8
:1042D0002230227835F822309BB223F4E04323F0D9
:1042E000400383F0300343F4004343F0800325F898
:1042F00022307AE76EBBB0F85010014401EB021295
:1043000073B9B2F8041489B221F4F84189B2A2F861
:104310000414B2F8041441F40041A2F8041420E09B
:104320003E2B09D8590813F0010F00D00131890242
:1043300089B2A2F8041414E0590913F01F0F00D138
:1043400001396FEAC1616FEA514189B2A2F80414E0
:1043500007E0B0F85010014401EB021299B2A2F844
:10436000041422899FE7012BB3D1227835F822303B
:104370009BB223F4E04323F0700343F4404343F043
:10438000800325F82230A4E700238B61134601E760
:104390003E2B09D85C0813F0010F00D00134A402B1
:1043A000A4B2A2F80C4410E75C0913F01F0F00D16F
:1043B000013C6FEAC4646FEA5444A4B2A2F80C440E
:1043C00003E7A6B9B0F8502002440C7802EB0412BF
:1043D00033BBB2F80444A4B224F4F844A4B2A2F863
:1043E0000444B2F8044444F40044A2F804444A7873
:1043F000002A47D1B0F8502002440C7802EB041296
:104400003BBBB2F80C349BB223F4F8439BB2A2F846
:104410000C34B2F80C3443F40043A2F80C34D4E664
:104420003E2B09D85C0813F0010F00D00134A40220
:10443000A4B2A2F80444DAE75C0913F01F0F00D11C
:10444000013C6FEAC4646FEA5444A4B2A2F8044485
:10445000CDE73E2B09D85C0813F0010F00D00134E2
:10446000A402A4B2A2F80C44AFE65C0913F01F0F3B
:1044700000D1013C6FEAC4636FEA53439BB2A2F8D8
:104480000C34A2E6012A7FF4A0AEB0F8502002441A
:104490000C7802EB04129BB2A2F80C3495E630B40F
:1044A0005D0800EB420202F5806207E032F8044B3F
:1044B000A4B20C70240A4C700231013D002DF5D1DC
:1044C00013F0010F01D013880B7030BC704708B592
:1044D000D0F8B43233B11B68984708B9002008BD42
:1044E0000220FCE70220FAE708B5D0F8B4325B6896
:1044F0009847002008BD38B5044600F52A752846BF
:1045000000F02FF90123C4F89432B4F8AE32C4F8A5
:10451000983294F8A81201F01F03012B0ED03BB182
:10452000022B10D001F08001204603F040FB03E095
:104530002946204600F0C3FA002038BD294620460F
:1045400000F0F1FAF8E72946204600F01CFBF3E7FB
:1045500038B50446A1BB1046D4F89432032B03D0DF
:10456000052B24D0002037E0D4F86031D4F8642142
:1045700093420DD99B1AC4F860319A4206D99AB277
:104580000146204600F01BFC002025E092B2F7E730
:10459000D4F8B4321B692BB194F89C22032A01D1C0
:1045A00020469847204600F012FC002014E0002529
:1045B000C4F894522946204603F0F9FA28460BE045
:1045C0000A46D0F8B4329B693BB190F89C1203299B
:1045D00005D111469847002038BD0220FCE7022093
:1045E000FAE710B50446002953D11046D4F89432A6
:1045F000022B0CD0042B00D01BB98021204603F0E5
:10460000D6FA94F8A032012B3FD000204DE0236A67
:10461000626A93421DD8E169B1FBF2F302FB131306
:104620002BB98A4203D8D4F8983299421FD3D4F8D0
:10463000B432DB682BB194F89C22032A01D12046C6
:1046400098478021204603F0B2FA204600F0CAFBCA
:10465000D7E79A1A226292B20146204600F0A7FBE1
:1046600000231A461946204603F0D4FAC9E700226F
:104670001146204600F09BFB0021C4F898120B461F
:104680000A46204603F0C6FABBE7002084F8A002E1
:104690000BE00A46D0F8B4325B693BB190F89C124B
:1046A000032905D111469847002010BD0220FCE7E0
:1046B0000220FAE770B5044640230022114603F0B9
:1046C0006BFA0125C4F858514026C4F8646133469A
:1046D00000228021204603F05FFAA561666284F81B
:1046E0009C520023C4F894326360C4F8A432D4F816
:1046F000B8322BB1D4F8B4325B6800212046984719
:10470000002070BD01740020704790F89C3280F842
:104710009D32042380F89C320020704790F89C3230
:10472000042B01D00020704790F89D3280F89C3215
:10473000F8E708B590F89C32032B01D0002008BDA3
:10474000D0F8B432DB69002BF8D09847F6E708B50B
:104750004B88012B00D008BDC0F8A43200F037FB15
:10476000F9E70B7803704B7843708B78CA7803EBCA
:10477000022343800B794A7903EB022383808B79F0
:10478000CA7903EB0223C380704710B50446802129
:1047900003F00DFA0021204603F009FA10BD30B5F0
:1047A00083B005460C460023ADF806304A88130A4C
:1047B000013B062B00F2A480DFE803F004182CA2D2
:1047C000A2869300D0F8B0321B680DF10601007C80
:1047D0009847BDF806201AB1E388002B40F094807A
:1047E000E388002B00F09A8003B030BD037C43B90E
:1047F000D0F8B4329B6A0DF106009847022343704B
:10480000E7E7D0F8B432DB6A0DF1060098470223DF
:104810004370DEE7D2B2052A52D8DFE802F0031077
:104820001D2A3744D0F8B0325B6823B10DF1060180
:10483000007C9847CDE72146FFF7A7FFD4E7D0F8E3
:10484000B0329B6823B10DF10601007C9847C0E7A8
:104850002146FFF79AFFC7E7D0F8B032DB6823B1F3
:104860000DF10601007C9847B3E72146FFF78DFF65
:10487000BAE7D0F8B0321B6923B10DF10601007C14
:104880009847A6E72146FFF780FFADE7D0F8B032A2
:104890005B6923B10DF10601007C984799E7214639
:1048A000FFF773FFA0E7D0F8B0329B6923B10DF199
:1048B0000601007C98478CE72146FFF766FF93E7E7
:1048C0002146FFF762FF8FE7037C33B9D0F8B4329B
:1048D0005B6B0DF1060098477BE72146FFF755FF1C
:1048E00082E7037C43B9D0F8B4321B6B0DF10600AC
:1048F0009847072343706CE72146FFF746FF73E7AD
:104900002146FFF742FF6FE79A4228BF1A46ADF8EB
:1049100006200146284600F03DFA61E7284600F0EF
:1049200056FA61E738B504468B88F3B9CB88E3B90A
:104930004B887F2B19D803F07F0590F89C32032B0E
:104940000CD080F89E52294603F054F9204600F01E
:104950003EFA35B1022384F89C3209E0FFF715FFD7
:1049600006E0012384F89C3202E02046FFF70DFFA9
:1049700038BD000038B504460D468978284B1970BB
:1049800001290ED890F89C32022B0ED0032B21D097
:104990002946FFF7FAFE224B19782046FFF7A4FDBF
:1049A00002E02946FFF7F1FE38BD81B141600323E3
:1049B00080F89C32FFF78BFD022803D0204600F0E0
:1049C00006FAF1E729462046FFF7DFFEECE700F0A4
:1049D000FEF9E9E789B1436899421DD0D9B2FFF7E2
:1049E00083FD0F4B197861602046FFF770FD0228A8
:1049F0000DD0204600F0EBF9D6E7022380F89C3278
:104A00004160FFF771FD204600F0E1F9CCE729464F
:104A10002046FFF7BAFEC7E700F0D9F9C4E700BFA8
:104A20008402002008B5CB88012B0BD190F89C3272
:104A30009BB1022B09D9032B0FD10122011D00F0DC
:104A4000A9F901E0FFF7A1FE08BD0146002341F8E6
:104A5000083F012200F09EF9F6E7FFF796FEF3E724
:104A600008B590F89C32013B022B12D8CB88022B60
:104A70000CD10123C360D0F8A4320BB10323C3606F
:104A8000022200F10C0100F085F908BDFFF77DFE60
:104A9000FBE7FFF77AFEF8E708B590F89C32013B98
:104AA000022B09D84B88012B00D008BD0023C0F889
:104AB000A43200F08CF9F8E7FFF767FEF5E708B5D8
:104AC0000B7803F06003202B05D0402B03D043B1BB
:104AD000FFF75BFE03E0D0F8B4329B6898470020F4
:104AE00008BD4B78092B1BD8DFE803F011171A1407
:104AF0001A08051A0E0BFFF752FEF0E7FFF712FF38
:104B0000EDE7FFF737FFEAE7FFF78CFFE7E7FFF78F
:104B1000A7FFE4E7FFF71BFEE1E7FFF7BDFFDEE7D6
:104B2000FFF733FEDBE738B505460C460B7803F09C
:104B30006003202B06D0402B04D01BB1FFF725FECD
:104B4000002038BD95F89C32013B022B16D8237902
:104B5000012B0ED8D5F8B4329B68214628469847D9
:104B6000E388002BECD10028EAD1284600F02FF989
:104B7000E6E721462846FFF708FEE1E721462846FA
:104B8000FFF703FEDCE738B504468A880B7803F0AC
:104B90006003202B08D0D0B2402B05D05BB120465B
:104BA000FFF7F3FD002005E0D4F8B4329B682046FF
:104BB0009847002038BD202B05D1D4F8B4329B682B
:104BC00020469847F6E74B78012B32D0002B5ED079
:104BD000032B40F0D88094F89C32022B06D0032B94
:104BE00016D02046FFF7D1FD0020E3E708B180286A
:104BF00004D12046FFF7C9FD0020DBE7014620462F
:104C000002F0D5FF8021204602F0D1FF0020D1E73D
:104C10004B8823B918B1802801D0CB8823B1204616
:104C200000F0D5F80020C5E70146204602F0BFFF9E
:104C3000F5E794F89C32022B06D0032B16D02046C1
:104C4000FFF7A3FD0020B5E708B1802804D1204676
:104C5000FFF79BFD0020ADE70146204602F0A7FFCD
:104C60008021204602F0A3FF0020A3E74B88002B01
:104C700040F08E8010F07F0F04D1204600F0A7F89E
:104C8000002097E70146204602F099FFF5E794F8E7
:104C90009C32022B06D0032B2AD02046FFF775FD4D
:104CA000002087E708B1802813D112F0800F15D1BA
:104CB00000F07F0000EB8000830003F5A871214421
:104CC000043100250D600222204600F063F82846DA
:104CD00070E72046FFF759FD00206BE700F07F00EA
:104CE00000EB8000830003F1100121440431E8E768
:104CF00052B2002A1FDB00F00F0303EB83039D0079
:104D00002544D5F8583123B3002A27DB00F07F0271
:104D100002EB8202930003F5A8752544043508B11F
:104D2000802825D100232B6002222946204600F04E
:104D300031F800203EE700F00F0303EB83039D00F2
:104D40002544AB69002BDFD12046FFF71EFD002074
:104D500030E72046FFF719FD00202BE700F07F0227
:104D600002EB8202930003F1100525440435D6E7D7
:104D70000146204602F02BFF10B101232B60D3E740
:104D800000232B60D0E72046FFF7FFFC002011E74F
:104D900000200FE710B513460222C0F89422C36129
:104DA00003620A46002102F02DFF002010BD08B565
:104DB00013460A46002102F025FF002008BD08B571
:104DC00013460A46002102F025FF002008BD08B561
:104DD0000423C0F8943200231A46194602F012FF49
:104DE000002008BD08B50523C0F8943200231A46F8
:104DF000194602F00FFF002008BD0000014B1860AB
:104E0000704700BF88020020014B1868704700BF40
:104E100088020020014B1878704700BF85020020EF
:104E2000014B1860704700BF90020020014B1868CA
:104E3000704700BF9002002010B5084B186808B1F9
:104E400003F00EFD064B1C68204603F001FD034BEA
:104E500018602246002103F016FD10BD8C020020D0
:104E60009002002010B504460846FFF7C7FF14F073
:104E7000010F02D0084B01221A70074B1B78012B3F
:104E800005D11A20FFF7CCFFFFF7D6FF10BD0B208E
:104E9000FFF7C6FFF8E700BF85020020044B1B6840
:104EA00023B1044A1268824200D91954704700BFE6
:104EB0008C02002090020020064B1B682BB1064A92
:104EC0001268824203D9185C7047002070470020A6
:104ED000704700BF8C02002090020020044B1B682A
:104EE000834203D9034B53F82000704700207047DA
:104EF000900200200800002000B583B00A4B1B6818
:104F00001A6812F0020F09D0002201921A68019269
:104F10005B680193019B054B01221A700248FEF762
:104F200031FE03B05DF804FBC0080020A0020020A1
:104F300008B50248FEF726FE08BD00BFE4070020C2
:104F400010B582B00368424A934204D0414A93426A
:104F500069D002B010BD404B1B788DF807303F4B35
:104F60001B78002B31D03E4A13780133DBB213702B
:104F70001378DBB22C2B15D000233A4A13703A4A2F
:104F80001380364A13709DF8073003F0FF02CBB14F
:104F9000172A2FD00122334B1A702F493348FEF7BE
:104FA00066FDD6E7134600221A70314A1378B3FA29
:104FB00083F35B09137012784FF400512D48FCF70E
:104FC000E0FFD9E72C4B00221A702B4B1B7833B92A
:104FD000254B1B889BB2294A126893420ED2224A63
:104FE000138801339BB2138001221B491F48FEF72F
:104FF0003EFDAEE7204B01221A70E6E71A4B1C88F3
:10500000A4B2FFF713FF1D4B1B6818448442E6D27D
:10501000154B1888194B1B68C01A9DF807100138EA
:10502000FFF73CFFDBE7164B1B7853B10122154914
:10503000154801F0EEF9012212491448FEF717FD58
:1050400087E701220F49124801F0E3F9F3E700BFB7
:10505000003801400048004094020020A0020020D7
:10506000990200207000002096020020C008002055
:1050700098020020001001409A0200209C020020AB
:10508000B00200209502002000060020E407002066
:105090001806002008B5002280210348FCF771FFA4
:1050A0000248FEF707FE08BD000C0140C0080020C2
:1050B00008B530B9094B1A68D36823F40053D3609C
:1050C00008BDFFF7A1FE064B1860FFF7E3FF0122C2
:1050D00004490248FEF7CBFCF2E700BFC0080020FD
:1050E0009C0200209402002008B50120FFF7E0FF99
:1050F000012202490248FEF7BAFC08BD95020020D1
:10510000E407002030B587B004460D46FCF728FDC3
:10511000049501230293A40244F000640394002345
:10512000019305A901A8FCF7E7FD38B9FCF732FDAA
:10513000059BB3F1FF3F06D0002002E0FCF72AFDFB
:10514000002007B030BD0120FBE730B40C4607E07B
:10515000850245F00065655D03F8015B0134A4B28A
:105160005518AC42F4DB012030BC704708B5012172
:105170007F20FFF7C7FF08BD0144B1F5807F0BDD3D
:1051800000207047830003F1006303F5FE331B68C2
:1051900042F8043B013080B28142F3DC01207047C9
:1051A00070B50144B1F5807F02DD0026304670BD48
:1051B0001546FFF7DBFF06460028F7D0FCF7D0FCCA
:1051C0000024FF2C12D8A1002A68002301F10061FD
:1051D00001F5FE310220FCF71DFD18B9043501343C
:1051E000A4B2EEE7FCF7D6FC0026DFE7FCF7D2FC22
:1051F000DCE70000002305E0044A054942F82310DB
:105200000133DBB23F2BF7D9704700BF30060020D7
:1052100080B4000838B50D4609B9012403E00C46F6
:105220000AE00134E4B20C4B53F824301B690BB193
:105230003E2CF6D93F2C09D0074B43F82400C21C62
:105240002146064801F090FD204638BD044801F093
:105250008BFD2C46F8E700BF30060020A4B4000800
:1052600094B4000808B5002002F040FE002002F0CF
:1052700045FE002002F0B8FD002002F0BDFD002038
:1052800003F016F8002002F067FF002002F0E6FEAF
:1052900008BD08B5FFF7E6FF08BD00002B4B53F82B
:1052A00020301B69002B3DD010B50446284B1B78DD
:1052B000032B16D0274B1A78244B53F822100B6976
:1052C0001BB10022C96802209847224B19781F4B56
:1052D00053F821200332204801F046FD1C4B0322E5
:1052E0001A701E4B00221A601A4B19781C4A117052
:1052F0001C704CB3154B53F824301C69DA6800213C
:105300000846A04798B9124B00221A70114B197821
:105310000E4B53F821200332124801F025FD0D4BAE
:10532000187810BD0028BFD00A4B18787047094C78
:105330002178064B53F8212003320B4801F014FD6D
:10534000074B1B782370EAE72046EAE73006002087
:10535000A2020020A1020020B4B40008A402002090
:10536000A8020020D0B40008ECB4000870B5104CBE
:10537000104D2B7854F823301E690022D968022082
:10538000B047297854F8212003320B4801F0ECFC97
:105390000A4B03221A702B7854F82330987820B9DE
:1053A000074B1878FFF77AFF70BDFFF777FFFBE731
:1053B00030060020A1020020B4B40008A2020020A0
:1053C000A80200201E4B1B78002B37D010B51D4AB9
:1053D00052F823305A78012A16D0022A1CD0184BD2
:1053E0001A78184B53F822301C69DA68164B196882
:1053F0000120A04701281ED0144B01221A70124A26
:1054000013680133136010BDDA680F4B1B689A42B2
:10541000E5D1FFF7ABFFF6E7D9680B4A1268914276
:10542000DDD10024084A14601B69224620469847B3
:10543000064B1C70D3E7FFF799FFE4E7704700BF06
:10544000A102002030060020A4020020A2020020B9
:10545000F8B50D46FBF722FC2149FBF727FD044672
:105460002846FBF717FCFAF7DFFF06460F462046F3
:10547000FAF7DAFF02460B4600201A49FBF756F905
:1054800004460D4614A3D3E9002330463946FBF702
:105490004DF922462B4603F0DFFF0FA3D3E900238B
:1054A000FBF71AF8FBF7F0FAFAF7BEFF03F054FF28
:1054B000FBF7EAFA04460C49FBF700FE30B900217D
:1054C0002046FBF7DDFD10B1002400E0064C20462D
:1054D000FBF724FEC0B2F8BD0000000000E06F4002
:1054E0000000C8420000F03F00007F432DE9F04F6C
:1054F00087B001217E20FFF705FE049018B90498BB
:1055000007B0BDE8F08FFCF72BFBDC2301930023F1
:105510000593059B032B78D8059B9946032B07D849
:10552000DFE803F0025A5F64394BB3F94A30019364
:105530004FF0000847464E4645463F2F60D8ECB234
:105540002146DDF804804046FFF782FFC0B24FEAF3
:10555000102B4FEA006A611CC9B2CDF804804046A6
:10556000FFF776FFC0B24FF000094FEA00481AEB90
:1055700008024BEB0903CDE90223A11CC9B2019833
:10558000FFF766FFC0B24FF000094FEA0028DDE9DF
:10559000022312EB080243EB090390469946E11CF3
:1055A000C9B20198FFF754FFC3B2002404352DB2ED
:1055B00007EB8611890013EB080344EB09041A4634
:1055C000234601F1006101F5FC310220FCF722FBCA
:1055D00088B90137FFB2B0E70D4BB3F950300193F2
:1055E000A6E70B4BB3F956300193A1E7084BB3F98B
:1055F000583001939CE7FCF7CDFA002304937EE733
:10560000059B0133DBB2059383E7FCF7C3FA76E72A
:105610003007002000B583B001EB00210DF1070336
:10562000012289B27E20FFF790FD9DF8070003B0AC
:105630005DF804FB10B54FF480410848FCF79AFC74
:1056400050B100244FF400410448FCF793FC08B922
:1056500044F00204204610BD0124F3E7001001408D
:1056600010B54FF400411F48FCF784FCC0B3002480
:1056700008211D48FCF77EFC08B944F00204102103
:105680001948FCF777FC08B944F004044FF4807122
:105690001548FCF76FFC08B944F008044FF400719A
:1056A0001148FCF767FC08B944F010044FF480512E
:1056B0000D48FCF75FFC08B944F020044FF400519A
:1056C0000948FCF757FC08B944F040044FF4804106
:1056D0000548FCF74FFC08B944F08004204610BD93
:1056E0000124C5E700080140000C014008B5202155
:1056F0000348FCF73FFC08B1002008BD0120FCE78F
:10570000000801402DE9F041064614461F4640F2CC
:10571000344000FB06F01A4DA5FB0030C009194BC0
:105720001B8803FB00F0184BA3FB0030C1EB90205B
:10573000FBF7B4FA80462046FBF7B0FA0146404634
:10574000FBF700FB1149FBF7B1FBFBF7C1FC04B20F
:1057500031463846FFF75EFF04FB00F085FB00355D
:105760000544C017D0EBE51008D440F2344398420A
:1057700001DD40F2344080B2BDE8F0810020FAE75C
:1057800081808080AA0200202DD5A0F30000C842AD
:1057900038B50446A84B1B681D780020FFF78CFB2A
:1057A000854200D19CB10020FFF786FB40F23443D4
:1057B00003FB00F0A14BA3FB0030C009A04B1880F5
:1057C0009D4B1C680020FFF777FB207001249A4B4B
:1057D0001B685D780120FFF76FFB854200D1ACB1FB
:1057E0000120FFF769FB97490023B1F94820B1F97F
:1057F0004610FFF787FF02460021084600F0C8FD6B
:105800008D4B1D680120FFF757FB68708A4B1B68A2
:105810009D780220FFF750FB854200D1ACB10220F9
:10582000FFF74AFB87490123B1F94E20B1F94C102B
:10583000FFF768FF02460121002000F0A9FD7E4B22
:105840001D680220FFF738FBA8707B4B1B68DD78D2
:105850000320FFF731FB854200D1ACB10320FFF7F5
:105860002BFB78490223B1F95420B1F95210FFF70C
:1058700049FF02460221002000F08AFD6E4B1D68A0
:105880000320FFF719FBE8706B4B1B681D790420A0
:10589000FFF712FB854200D1ACB10420FFF70CFBEF
:1058A00068490023B1F94820B1F94610FFF72AFFF3
:1058B00002460021012000F06BFD5F4B1D680420B3
:1058C000FFF7FAFA28715C4B1B685D790520FFF73A
:1058D000F3FA854200D1ACB10520FFF7EDFA594942
:1058E0000123B1F94E20B1F94C10FFF70BFF02462E
:1058F0000121084600F04CFD4F4B1D680520FFF7C5
:10590000DBFA68714C4B1B689D790620FFF7D4FACF
:10591000854200D1ACB10620FFF7CEFA49490223F7
:10592000B1F95420B1F95210FFF7ECFE0246022102
:10593000012000F02DFD404B1D680620FFF7BCFA4A
:10594000A8713D4B1B68DD790720FFF7B5FA85424A
:1059500000D1ACB10720FFF7AFFA3A490023B1F903
:105960004820B1F94610FFF7CDFE02460021022083
:1059700000F00EFD304B1D680720FFF79DFAE8711F
:105980002D4B1B681D7A0820FFF796FA854200D13F
:10599000ACB10820FFF790FA2A490123B1F94E2053
:1059A000B1F94C10FFF7AEFE02460121022000F0D3
:1059B000EFFC214B1D680820FFF77EFA28721E4B72
:1059C0001B685D7A0920FFF777FA854200D1ACB1F8
:1059D0000920FFF771FA1B490223B1F95420B1F9EC
:1059E0005210FFF78FFE02460221084600F0D0FC5D
:1059F000114B1D680920FFF75FFA68720E4B1B6898
:105A00009D7A0A20FFF758FA854200D194B10A2006
:105A1000FFF752FA032364220021FFF773FE0246C8
:105A20000321022000F0B4FC034B1C680A20FFF79E
:105A300043FAA07238BD00BFAC0200208180808094
:105A4000AA0200203007002038B50D4B186808B1B5
:105A500002F006FFFFF7EAF902F0FAFE0546084CED
:105A60002060FFF7E3F902460021284602F00BFF11
:105A70002368FF221A700120FFF78AFE38BD00BF9D
:105A8000AC02002010B5FFF7C5F9012800D010BD09
:105A90000B20FFF711FA0B4B93F83030B0FBF3F00B
:105AA000C0B2094B1B68DB7A8342F0D0FFF7F6FBEC
:105AB000044601460B20FFF7F1F9034B1B68DC722B
:105AC000E5E700BF30070020AC0200202DE9F047D9
:105AD00088B000240694484B9A6942F010029A61FB
:105AE0009A6902F010020092009A9A6942F020022C
:105AF0009A619A6902F020020192019A9A6942F031
:105B000004029A619A6902F004020292029A9A6966
:105B100042F008029A619B6903F008030393039B18
:105B20004FF08008CDF810800127059702260796D0
:105B3000324D04A92846FCF731F922464146284651
:105B4000FCF71FFA4FF44043049305940694DFF8E2
:105B5000B48004A94046FCF721F94FF400530493A4
:105B60000597079604A94046FCF718F940F2CE7352
:105B7000049305964FF00308CDF81C80DFF888A049
:105B800004A95046FCF70AF9CDF810800596CDF827
:105B90001C8004A92846FCF701F948F22009CDF839
:105BA00010900594069704A95046FCF7F7F847F2C1
:105BB000183304930594069704A92846FCF7EEF8D9
:105BC000CDF810900596CDF81C8004A92846FCF766
:105BD000E5F84FF48063049305970694079604A9AB
:105BE0002846FCF7DBF8064A536843F0E0633B4382
:105BF000536008B0BDE8F08700100240000C01407F
:105C000000000140001001400008014070B584B060
:105C100000250195029503950B4C0C4B2360A56064
:105C2000257325754FF46023E361656001262661C5
:105C30002046FBF7E5FC01950296039501A9204655
:105C4000FBF760FB04B070BD900800200024014009
:105C500070B584B000250195029503950C4C0D4B51
:105C60002360A560257325754FF46023E3616560AB
:105C7000012626612046FBF7C3FC0423019302960C
:105C800003950DEB03012046FBF73CFB04B070BD10
:105C9000240800200028014000B583B00E4B5A694B
:105CA00042F001025A615B6903F001030193019B19
:105CB000002211460D20FBF73FFD0D20FBF770FD84
:105CC000002211460E20FBF737FD0E20FBF768FD82
:105CD00003B05DF804FB00BF0010024010B50D4892
:105CE0000D4B03600D4B4360002484604FF4005360
:105CF000C36004610C2343618461C461FDF712FE3B
:105D0000224621462520FBF717FD2520FBF748FDFD
:105D100010BD00BFC00800200038014090D0030033
:105D200008B50A480A4B03604FF4E133436000238F
:105D30008360C36003610C2242618361C361FDF72C
:105D4000C2FD044B80225A6008BD00BFE40700205A
:105D50000048004000E100E000B583B0114B9A69B3
:105D600042F480529A619B6903F480530193019B32
:105D70000D480E4B03604FF4827343600023836031
:105D8000C360036143614FF4007282612022C261EB
:105D90000362436283620A23C362FDF778F803B0AB
:105DA0005DF804FB001002400409002000300140AF
:105DB00000B583B0114BDA6942F48042DA61DB69E5
:105DC00003F480430193019B0D480E4B03604FF495
:105DD0008273436000238360C360036143614FF4B7
:105DE000007282612022C2610362436283620A23DD
:105DF000C362FDF74CF803B05DF804FB00100240ED
:105E00008C0700200038004030B595B000240C9479
:105E10000D940F94059406940794089409940194A2
:105E200002940394049409230A934FF480330B9350
:105E300001220E9210920225119512934FF4E01355
:105E400013930AA8FCF722FC0F23059306950794E9
:105E50004FF4806308930994294605A8FCF756FE81
:105E6000122301934FF400430393049401A8FCF719
:105E700027FF15B030BD000038B5FBF795F9FFF7E7
:105E8000C3FFFFF723FE00224FF40051AA48FCF79E
:105E900078F8FFF7BBFEFFF7DBFEFFF71FFFFFF70A
:105EA0003FFFFFF759FFFFF783FFFFF7F5FE0024E1
:105EB00003E0A24800F0EEFF013441F287339C4238
:105EC000F7D99F4C204600F04FFF9E4D284600F02A
:105ED0004BFF01231A469C499C4800F045FF284689
:105EE00000F042FF204600F03FFF994B5B6AFFF74E
:105EF000A1FB0446FFF7B4FB41002046FEF7B2FFCA
:105F0000944800F031FF944800F02EFF8021934820
:105F100000F062FA002800F08B80914800F024FF26
:105F20008021904800F058FA002800F085808E48C3
:105F300000F01AFFFFF7D8F88C4800F015FF00F0CA
:105F4000FBF98B4800F010FF00F0AAFB894800F035
:105F50000BFF894800F008FFFFF7C8FB00286FD14E
:105F600000F056FC40B900F09BFBFFF7BFFA00F0D1
:105F70007BFC824800F0F8FE814B93F83610814A92
:105F8000117093F83720804B1A70804800F0ECFEB7
:105F900000F0C0FB7E4800F0E7FEFEF73BFF012863
:105FA0005ED17C4800F0E0FEFFF724F9FFF771F9BD
:105FB000794800F0D9FE724B598E002002F0D6FAD3
:105FC000002845D0754800F0CFFE002002F0AEFA60
:105FD000002002F007FA6A4B598E012002F0C6FA3F
:105FE000002839D06E4800F0BFFE012002F09EFA72
:105FF000012002F0F7F96B4800F0B6FEFFF724FD30
:10600000694800F0B1FE01F0BBFC684800F0ACFE4E
:10601000674800F0A9FE674800F03CFFFBF7E2F894
:10602000054601224FF400514348FBF7AAFF49E01F
:10603000614800F099FE73E7604800F095FE79E74B
:10604000FFF754FA00F010FC5D4800F08DFE9FE76A
:106050005C4800F089FEBEE75B4800F085FECAE7B9
:106060005A4800F081FEC9E700F02EFF00F056FA12
:10607000FBF7B8F80446631B414AD26A9342F3D354
:106080002BE0FEF7C7FE01281BD1002002F068FBC1
:10609000002002F0A7F9012002F062FB012002F0CB
:1060A000A1F90EE0FFF722FB012837D001F088FCB0
:1060B000FEF7B0FE012835D00020FFF769FBFFF79F
:1060C000E1FC254600F000FF00F028FAFBF78AF813
:1060D00004462B4BDB6A002BCDD1651B3C4B1D606E
:1060E0003C4B1B78002BDDD001F096FB394B187030
:1060F0000028C6D10120FFF74BFBFEF78BFE0128DD
:10610000DFD1002002F012FA002002F06BF901202A
:1061100002F00CFA012002F065F9D2E72D4B0122C2
:106120001A70C3E7FFF74EF9002002F05BF9012077
:1061300002F058F9C0E700BF001001400CB500089C
:1061400000C1000810B5000820B500082CB50008F3
:106150000010024038B5000850B5000818060020AD
:1061600064B5000800060020A4B50008F0B50008DA
:1061700008B600081CB600083CB6000850B6000877
:1061800030070020B0020020B102002064B60008F1
:1061900088B600089CB60008B4B60008D0B600085F
:1061A00004B7000838B7000860B700087CB70008DB
:1061B00094B70008A4B7000884B50008C8B5000863
:1061C00074B60008ECB6000820B700084CB7000809
:1061D00000090020B2020020704700002DE9F041C4
:1061E0008EB0054600230593069307930893099301
:1061F0000A930B930C930D930193029303930493CF
:106200000646012837D080B3022839D0414B03EB32
:1062100085180023C8F80430C8F8083040F22A4234
:10622000C8F80C20C8F81030C8F81430474640466B
:10623000FDF7F8F848BB0EA94FF4805341F8343D00
:106240004046FDF7CCF920BB4046FDF704F920BBE2
:106250006023059340F21A230693002407940894C0
:10626000042309930A940B941CE08301294A4FF0FC
:106270008041D150CAE78301264A2749D150C5E75A
:106280008301244A2549D150C0E7254800F06CFD20
:10629000D1E7244800F068FDD6E7234800F064FD0C
:1062A000D6E70134032C15DC04EB86031F4A52F8B1
:1062B0002330FF2BF5D06BB204EB830352F823207D
:1062C00005A93846FDF712F90028EAD0184800F071
:1062D0004BFDE6E74046FDF757F8002400E00134A7
:1062E000032C14DC04EB8603104A52F82330FF2BF6
:1062F000F5D06BB204EB830352F823103846FDF758
:10630000EBF90028EBD00B4800F02EFDE7E70EB0CC
:10631000BDE8F081E4090020002C014000040040A9
:10632000ACB70008C0B70008D4B7000810B8000820
:10633000E8B70008FCB7000800B585B0134B9A69B0
:1063400042F400629A619A6902F400620192019A31
:10635000DA6942F00102DA61DA6902F001020292BE
:10636000029ADA6942F00202DA61DB6903F00203A1
:106370000393039B0020FFF731FF0120FFF72EFF5F
:106380000220FFF72BFF05B05DF804FB0010024070
:1063900001EB80010E4B53F82130FF2B08D043B1A5
:1063A000042B0BD0082B0ED080010A4B1B581A640B
:1063B00070478001074B1B585A6370478001054B9B
:1063C0001B589A6370478001024B1B58DA63704771
:1063D00010B80008E409002038B50446012303750D
:1063E00068B10D461946284602F000FA206023687D
:1063F0002BB165600023A360E36023612375207DDA
:1064000038BD034618B140681B69C01A70470020A8
:1064100070472DE9F0410446002834D00F46154658
:10642000FFF7EFFFA84232D3A26863689A4201D314
:106430000023A3606668A368F61AB5420ED82068E8
:10644000A3682A463946184402F012FAA3682B447E
:10645000A36023691D442561002015E02068A3681E
:1064600032463946184402F003FA2068A5EB0608C4
:106470004246B91902F0FCF9C4F8088023691D44AA
:106480002561002000E001202075BDE8F081042096
:10649000FAE708B100697047002070472DE9F04124
:1064A0000446002834D00F461546FFF7F2FFA842F5
:1064B00032D3E26863689A4201D30023E3606668DE
:1064C000E368F61AB5420ED22168E3682A461944F9
:1064D000384602F0CDF9E3682B44E36023695D1B85
:1064E0002561002015E02168E368324619443846EA
:1064F00002F0BEF92168A5EB06084246B81902F081
:10650000B7F9C4F80C8023695D1B2561002000E009
:1065100001202075BDE8F0810520FAE710B582B0B2
:10652000FEF784FC0446444B1B6883B9434B1B684D
:106530006BB902B010BD424B1B781BBBFEF7AEFC23
:10654000404A138801339BB21380A34258D20122E0
:106550000DF107013C48FFF7A1FFD8B9394B188866
:10656000A04217D2394B1B78012B13D19DF807108D
:106570005C29E0D1324B1B78002BDCD1304B01225F
:106580001A7007E05C2933D06D2929D009B32C4B50
:1065900000221A702B4B1B88A34203D22B4B1B7873
:1065A000002BC6D101220DF107012748FFF776FF26
:1065B0000028BED19DF807305C2B25D0204A1278E8
:1065C000002AB6D043B36D2B2DD01D4B00221A707C
:1065D000AFE71C4B00221A801C4B01221A70D6E731
:1065E0000023154A1360194A1370164A1380A0E756
:1065F0005C21FEF753FC134A138801331380C6E76E
:10660000124B00221A7094E70D4A1278002AD5D155
:106610000B4B01221A708CE70A4B00221A800B4B9D
:1066200001221A70D1E70023034A1360074A13704E
:10663000044A13807DE700BFB0020020B1020020B1
:10664000B3020020B402002000060020B6020020A1
:1066500008B5064B1B7803B108BD0A46014641F256
:1066600088330348FDF793F9F6E700BFB002002036
:10667000E407002000B583B001220DF107010548B1
:10668000FFF70CFF20B99DF8070003B05DF804FB8D
:106690000020FAE71806002040F2011070470000C1
:1066A00038B51B4D54220021284602F0ECF8A5F124
:1066B0000804442305F8083C4D2363705823A37055
:1066C0004323E370FFF7E8FFA080FF23E380092363
:1066D0006386A3864FF69C73A4F846306422A4F820
:1066E0004820DC23A4F84A304FF6B071A4F84C10CF
:1066F000A4F84E20A4F85030A4F85210A4F8542066
:10670000A4F85630A4F85830012384F8303038BD4E
:106710003807002010B53D4CA1790020FEF7BEFBE4
:10672000217A0120FEF7BAFBA17A0220FEF7B6FB20
:10673000217B0320FEF7B2FBA17B0420FEF7AEFB1A
:10674000217C0520FEF7AAFBA17C0620FEF7A6FB14
:10675000217D0720FEF7A2FBA17D0820FEF79EFB0E
:10676000217E0920FEF79AFBA17E0A20FEF796FB08
:10677000FEF750FB012800D010BD217F0B20FEF753
:106780008DFB617F0C20FEF789FBA17F0D20FEF7BA
:1067900085FBE17F0E20FEF781FB94F820100F208F
:1067A000FEF77CFB94F821101020FEF777FB94F89D
:1067B00022101120FEF772FB94F823101220FEF72E
:1067C0006DFB94F824101320FEF768FB94F8251055
:1067D0001420FEF763FB94F826101520FEF75EFBED
:1067E00094F827101620FEF759FB94F8281017206C
:1067F000FEF754FB94F829101820FEF74FFB94F88D
:106800002A101920FEF74AFBB6E700BF3007002028
:1068100038B5104A5C210020FEF7AEFC044678B182
:106820000C4B1A680C4B9A420ED10A4B9D88FFF70D
:1068300033FF85420CD0094800F096FA002407E0A7
:10684000074800F091FA03E0064800F08DFA0024B2
:10685000204638BD30070020444D584364B8000836
:1068600040B8000854B8000808B5054A5C2100206B
:10687000FEF796FC00B108BD024800F075FAFAE791
:1068800030070020B8BC000870B5924D284600F0D3
:106890006BFA914800F068FA904E304600F064FAC6
:1068A0008F4CE1888F4800F05FFA21898E4800F014
:1068B0005BFA61898D4800F057FAA1898C4800F095
:1068C00053FAE1898B4800F04FFA218A8A4800F098
:1068D0004BFA618A894800F047FAA18A884800F09B
:1068E00043FAE18A874800F03FFA218B864800F09E
:1068F0003BFA618B854800F037FA217F844800F02D
:1069000033FA617F834800F02FFAA17F824800F0BC
:106910002BFAE17F814800F027FA94F82010804894
:1069200000F022FA94F821107E4800F01DFA94F845
:1069300022107D4800F018FA94F823107B4800F0EC
:1069400013FA94F824107A4800F00EFA94F82510FF
:10695000784800F009FA94F82610774800F004FA15
:1069600094F82710754800F0FFF994F8281074483F
:1069700000F0FAF994F82910724800F0F5F994F84B
:106980002A10714800F0F0F9284600F0EDF96F4840
:1069900000F0EAF9304600F0E7F994F830106C485E
:1069A00000F0E2F9618E6B4800F0DEF9A18E6A48D2
:1069B00000F0DAF994F83610684800F0D5F994F848
:1069C0003710674800F0D0F9284600F0CDF9654847
:1069D00000F0CAF9644800F0C7F994F83810634829
:1069E00000F0C2F994F83910614800F0BDF994F84C
:1069F0003A10604800F0B8F994F83B105E4800F097
:106A0000B3F994F83C105D4800F0AEF994F83D10ED
:106A10005B4800F0A9F994F83E105A4800F0A4F938
:106A200094F83F10584800F09FF994F840105748E8
:106A300000F09AF994F84110554800F095F994F84F
:106A40004210544800F090F994F84310524800F076
:106A50008BF994F84410514800F086F994F84510E9
:106A60004F4800F081F9284600F07EF94D4800F0CB
:106A70007BF94D4800F078F9B4F946104B4800F026
:106A800073F9B4F948104A4800F06EF9B4F94A10A5
:106A9000484800F069F9B4F94C10474800F064F92F
:106AA000B4F94E10454800F05FF9B4F9501044486D
:106AB00000F05AF9B4F95210424800F055F9B4F90F
:106AC0005410414800F050F9B4F956103F4800F016
:106AD0004BF970BD00C100087CB8000834BD000847
:106AE0003007002088B8000898B80008A4B800084B
:106AF000B4B80008C4B80008D0B80008E0B800086E
:106B0000F0B80008FCB800080CB900081CB900086F
:106B10002CB900083CB9000850B9000864B9000855
:106B200074B9000888B9000898B90008A8B9000825
:106B3000B8B90008CCB90008E0B90008F0B90008FD
:106B400004BA000814BA000824BA000834BA0008CD
:106B500040BA000854BA000868BA00087CBA0008B5
:106B600094BA0008A8BA0008B4BA0008C0BA00086D
:106B7000D0BA0008E4BA000800BB00081CBB00083B
:106B800038BB000854BB00086CBB00087CBB000885
:106B900090BB0008ACBB0008C8BB0008E4BB000801
:106BA00000BC000818BC000830BD000824BC000868
:106BB00034BC000844BC000854BC000868BC000891
:106BC00078BC000888BC000898BC0008A8BC000875
:106BD000044B1B683F2B04D8591C024A1160024A1F
:106BE000D0547047F8020020B8020020054B1B6803
:106BF000002B05DD013B034A1360034A0021D154F9
:106C0000704700BFF8020020B802002038B50A4DD6
:106C10002C68402209490A4800EB841001F012FF59
:106C200001342C60072C01DD00222A60024B1A6817
:106C3000044B1A6038BD00BF00050020B8020020D8
:106C4000FC020020FC04002038B50D46094901F083
:106C50000FFF2860002406E001340649002001F0FF
:106C600007FF45F8240055F824300BB1062CF3DD5E
:106C7000601E38BD0CB5000808B50021034B196033
:106C80004022034801F0FFFD08BD00BFF8020020CC
:106C9000B802002010B590B9224B1B683BB9224BBB
:106CA0001B68072B2CD01F4B07221A6017E0013BF3
:106CB0001D4A1268934223D01A4A13600FE0194B01
:106CC0001B68194A126893421AD0072B19D0591C15
:106CD0008A421DD00133134A1360082B1DD0FFF7E1
:106CE000CBFF104B1968114C4022114B03EB811163
:106CF000204601F0A7FE2046F9F72AFA0D4B18604E
:106D000010BD002AE6D1074B1A60FFF7B5FFF7E781
:106D1000044B1960FFF7B0FFF2E7134600221A6038
:106D2000DDE700BFFC04002000050020B8020020C1
:106D3000FC020020F802002010B50446FFF79AFC80
:106D400010B12070012010BD2070FCE708B5FFF7DE
:106D50007FFC012008BD08B500F0C0FF18B1017A22
:106D60004068FFF7F3FF08BD0FB430B583B006AB42
:106D700053F8042B01930D4C7C21204601F08AFF2F
:106D80002046F9F7E5F92218094B19889B7821521A
:106D900093702046F9F7DCF981B22046FFF7D6FF61
:106DA00003B0BDE8304004B0704700BF04050020C8
:106DB000CCBC000830B58BB02F4B1B789BB901A918
:106DC0002D48FFF741FF054640222C49019801F06C
:106DD00027FE044650B140222949019801F020FEC7
:106DE000A8B100241BE0FFF711FFE8E72548FFF7F3
:106DF000BBFF07E004EB44029300234AD058FFF79F
:106E0000B3FF0134214B1B68A342F3DCE3E70D2001
:106E1000FFF7A1FF0E20FFF79EFF24E001341B4B7C
:106E20001B68A3421EDD04EB440293004022164976
:106E3000C958019801F0F4FD0028EFD104EB440398
:106E40009A00114B13449B6801A9284698470028D3
:106E5000E4D104EB44039A000B4B13445868FFF74A
:106E600083FFDBE703D0FFF707FF0BB030BD084817
:106E7000FFF77AFFF7E700BFB8020020D0BC000898
:106E8000D8BC000800C100089CBD0008E4BC000894
:106E9000DCBC00080FB410B582B004AB53F8042B6F
:106EA0000193084C7C21204601F0F4FE2046F9F7BE
:106EB0004FF981B22046FFF749FF02B0BDE810400C
:106EC00004B070470405002010B582B0384B93E839
:106ED000030000908DF80410364B1B786BB1364BD5
:106EE0001B7853B102B010BD02AC14F8010DFFF7CE
:106EF0006FFE01212046FFF729FF0DF10700FFF784
:106F00001BFF0128EED19DF8070000F0B7FE012815
:106F1000EAD0082814D00028EFD007281FD0022874
:106F200026D00328E9D10B20FFF715FF0024234BBF
:106F30001B68A34234DD0C20FFF70DFF0134F6E798
:106F40001F48FFF711FFFFF735FF01210DF1070083
:106F5000FFF7FCFE69461B48FFF79CFFCDE7FFF7F4
:106F600045FE0720FFF7F7FE0A20FFF7F4FEC4E70F
:106F70000B20FFF7F0FE002403E00C20FFF7EBFEF0
:106F800001340E4B1B680433A342F6D86846FFF762
:106F900081FF0020FFF77EFE0B48FFF77BFFACE789
:106FA0000120FFF777FE0848FFF774FFA5E700BF51
:106FB000A4B70008B0020020B1020020F8020020AF
:106FC00000C10008E0BC0008B8020020022801D07F
:106FD0000020704708B5486801F003FC014BD862F7
:106FE000012008BD3007002008B5022802D0002388
:106FF000184608BD486801F0F4FB034618B10128A3
:1070000005D00123F4E70123034A1360F0E7034AA4
:1070100001211160ECE700BFB0020020B1020020A6
:1070200038B5022802D00024204638BD0D464868F5
:1070300001F0D7FB044618B1012809D00124F3E779
:10704000A86801F0CEFB064B83F836000124EBE77D
:10705000A86801F0C6FB024B83F83700E4E700BFE5
:107060003007002038B5022802D00024204638BD61
:107070000D46486801F0B5FB044618B1012808D058
:107080000124F3E7A86801F0ACFB054B5886012406
:10709000ECE7A86801F0A5FB014B9886E6E700BF86
:1070A0003007002070B5052802D00024204670BDAE
:1070B0000D46486801F095FB044618B1012818D028
:1070C0000124F3E7A86801F08CFB154C84F83C0020
:1070D000E86801F086FB84F83D00286901F081FB37
:1070E00084F83A00686901F07CFB84F83B000124D5
:1070F000DCE7A86801F075FB094E86F84300E868F4
:1071000001F06FFB86F84400286901F06AFB86F8FD
:107110004100686901F065FB86F84200C6E700BFE0
:107120003007002070B5042802D00024204670BD2E
:107130000D46486801F055FB044618B1012813D0EC
:107140000124F3E7A86801F04CFB104C84F83800E8
:10715000E86801F046FB84F83900286901F041FB3A
:1071600084F83E000124E1E7A86801F03AFB074EED
:1071700086F83F00E86801F034FB86F84000286993
:1071800001F02FFB86F84500D0E700BF3007002054
:10719000022801D00020704710B50C46486801F065
:1071A00020FB48B102280FD0A06801F01AFB0A4B5F
:1071B000A3F84C00012006E0A06801F012FB064B8A
:1071C000A3F84600012010BDA06801F00AFB024BA5
:1071D000A3F852000120F6E730070020022801D072
:1071E0000020704710B50C46486801F0FAFA48B123
:1071F00002280FD0A06801F0F4FA0A4BA3F84E0061
:10720000012006E0A06801F0ECFA064BA3F8480064
:10721000012010BDA06801F0E4FA024BA3F854006D
:107220000120F6E73007002008B5094B1868F9F788
:1072300031FD01464FF07E50F9F738FEF9F7F4F8CA
:1072400002460B460348FFF78FFD012008BD00BF33
:1072500000090020E8BC000808B5486801F0C1FA40
:10726000C0B204280BD0022809D0012807D0064854
:10727000FFF77AFD054B042283F8302002E0034B30
:1072800083F83000012008BDA4BE000830070020AC
:10729000012801D00020704710B504464968024813
:1072A000FFF762FD204610BDD4BE000808B500F00F
:1072B000F1FB012008BD000010B50020FDF7FCFD2A
:1072C0003B4CE0800120FDF7F7FD20810220FDF717
:1072D000F3FD60810320FDF7EFFDA0810420FDF7A1
:1072E000EBFDE0810520FDF7E7FD20820620FDF79C
:1072F000E3FD60820720FDF7DFFDA0820820FDF797
:10730000DBFDE0820920FDF7D7FD20830A20FDF791
:10731000D3FD6083FDF77EFD012801D0012010BD63
:107320000B20FDF7C9FD20770C20FDF7C5FD607728
:107330000D20FDF7C1FDA0770E20FDF7BDFDE07724
:107340000F20FDF7B9FD84F820001020FDF7B4FDF3
:1073500084F821001120FDF7AFFD84F822001220EF
:10736000FDF7AAFD84F823001320FDF7A5FD84F89E
:1073700024001420FDF7A0FD84F825001520FDF75A
:107380009BFD84F826001620FDF796FD84F8270063
:107390001720FDF791FD84F828001820FDF78CFDDB
:1073A00084F829001920FDF787FD84F82A00B5E745
:1073B0003007002008B5FDF72DFD18B1012805D0D4
:1073C000012008BD0348FFF7CFFCF9E70248FFF7AB
:1073D000CBFCF5E774BD000884BD0008022801D08D
:1073E0000020704738B50C46486801F0FAF90546A8
:1073F000A06801F0F6F9C1B22846FDF74FFD012063
:1074000038BD012801D00020704710B504464868F7
:1074100001F0E7F9C1B20020FDF740FD204610BDA4
:10742000022801D00020704710B50C46486801F0D2
:10743000D8F9022814D0032819D030B1A06801F07F
:10744000D0F9114BA3F8500005E0A06801F0C9F98C
:107450000D4BA3F84A00FEF749F878B1012010BDA2
:10746000A06801F0BEF9084BA3F85600F3E7A06846
:1074700001F0B7F9044BA3F85800ECE70348FFF715
:1074800073FC0120EBE700BF30070020B8BE000806
:1074900008B5FFF7E9F9012008BD032801D0002055
:1074A000704770B50C46486801F09BF90546A06826
:1074B00001F097F90646E06801F093F982B2F1B263
:1074C000E8B2FEF765FF012070BD08B5FFF7DCF9F3
:1074D000012008BD08B5FDF797FC01460248FFF7FB
:1074E00043FC012008BD00BF60BD000870B582B03C
:1074F000FDF78AFC01461648FFF736FCFDF796FCBF
:1075000001461448FFF730FCFDF784FC01461248A1
:10751000FFF72AFC1148FFF727FC002411E0FDF7D4
:1075200073FC05192046FDF7D9FC06462046FDF7F9
:10753000C3FC009033462A4621460948FFF714FC55
:107540000134FDF773FCA042E9D8012002B070BD00
:1075500060BD0008FCBC000814BD000820BD000888
:107560003CBD000882B00E4B9A6942F001029A615C
:107570009A6902F001020092009ADA6942F08052A0
:10758000DA61DB6903F080530193019B054A53687C
:1075900023F0E06343F00073536002B0704700BF14
:1075A000001002400000014000B589B000230493A0
:1075B0000593069307930368204A934205D0204A17
:1075C00093421ED009B05DF804FB1E4B9A6942F449
:1075D00000729A619A6902F400720092009A9A69A4
:1075E00042F004029A619B6903F004030193019B3A
:1075F000012304930323059304A91348FAF7CEFB50
:10760000E0E7104B9A6942F480629A619A6902F449
:1076100080620292029A9A6942F004029A619B691E
:1076200003F004030393039B1023049303230593A4
:1076300004A90548FAF7B2FBC4E700BF00240140E3
:1076400000280140001002400008014010B588B039
:107650000023049305930693079303682B4A9342F0
:1076600004D02B4A934226D008B010BD294B9A690A
:1076700042F480429A619A6902F480420092009A30
:107680009A6942F008029A619B6903F0080301932A
:10769000019B40230493122305930323079304A91A
:1076A0001D48FAF77BFB1D4A536843F0E06343F043
:1076B00004035360D8E7174BDA6942F48022DA6199
:1076C000DA6902F480220292029A9A6942F0080270
:1076D0009A619B6903F008030393039B4FF4806353
:1076E000049302230593032307930B4C04A920461C
:1076F000FAF754FB4FF400630493002305930693B9
:1077000004A92046FAF74AFBAEE700BF0038014063
:107710000048004000100240000C01400000014001
:107720007047FEE7FEE7FEE7FEE7704770477047E9
:1077300008B5F9F74BFD08BD08B50248FAF726F978
:1077400008BD00BFA009002008B50248FAF71EF9DD
:1077500008BD00BF5C09002008B50248FAF758FED2
:1077600008BD00BFC40A002008B503460B4A1268D2
:1077700042B10A4A106803446A46934206D8074A4F
:10778000136008BD054A06491160F2E701F036F8BA
:107790000C2303604FF0FF30F3E700BF84050020A7
:1077A000380D00200F4B1A6842F001021A60596828
:1077B0000D4A0A405A601A6822F0847222F480321C
:1077C0001A601A6822F480221A605A6822F4FE02B3
:1077D0005A604FF41F029A60044B4FF000629A60A7
:1077E000704700BF001002400000FFF800ED00E00D
:1077F00010B500240AE0074B03EB4401002249784E
:1078000013F81400FEF7C4FD0134E4B2092CF2D9D8
:1078100010BD00BF7C00002038B5264B1B785BB143
:10782000254B1B881BB90020224B187016E0013B2A
:10783000214A1380012011E01F4B1B887BB11E4A97
:107840001388013B1380FDF751FF04461B4B1B7847
:107850000BB901281ED0194B1C70012038BD164BE6
:107860004FF416721A80FFF7C3FF154C2078154BA2
:1078700003EB400140F23442497813F81000FEF760
:1078800087FD23780133DBB223700A2BD7D1002286
:107890002270D4E70125094B1D70FFF7A9FF064BA5
:1078A0004FF416721A80064B00221A70014B1D709D
:1078B000D1E700BF8A05002088050020780000205D
:1078C0008B0500207C00002008B5024B1868F9F7F2
:1078D00093FC08BD9000002070B504460268224B5E
:1078E0009A4220D000262046F9F782FC35461F4AEE
:1078F00002EB06118B7BC0F30F1003EBC60602EB05
:107900004606B0800133DBB28B73052B0DD02268A5
:10791000174B9A4223D0174B174A1A60154B186819
:10792000F9F7CCFD70BD0126DDE700200F4A02EB20
:1079300005118B7B013BDBB28B7303EBC50102EBC3
:10794000410292881044002BF0D1A3F13333A3FB02
:107950000030C0F38F002D01044B5853D7E7054B7F
:10796000064A1A60DAE700BF00280140A40A002096
:1079700000240140900000209008002024080020EE
:1079800010B5002309E01C010B48211800222250E9
:107990004A608A60CA600133DBB2012BF3D900224E
:1079A00011461220F9F7C8FE1220F9F7F9FE034B31
:1079B0001868F9F783FD10BDA40A0020900000208C
:1079C00008B5324B93F838305BB1314A1188528890
:1079D000914206D0012B15D0022B1AD02C4B1A88BD
:1079E0005A802A4B93F83F305BB1294A118A528A58
:1079F000914206D0012B27D0022B2CD0244B1A8A7F
:107A00005A8208BDC9B2214B93F83900FDF746FAF6
:107A1000E4E71E4B93F83E30994201D99A420BD3CA
:107A20009942DBD29A42D9D9184B93F83D1093F87A
:107A30003C00FDF733FAD1E7144B93F83B1093F871
:107A40003A00FDF72BFAC9E7C9B2104B93F8400092
:107A5000FDF724FAD2E70D4B93F84530994201D94E
:107A60009A420BD39942C9D29A42C7D9074B93F88D
:107A7000441093F84300FDF711FABFE7034B93F866
:107A8000421093F84100FDF709FAB7E730070020EC
:107A9000A40A002070B500241AE0651C29460E488F
:107AA000FFF762F90D48FFF75FF90D4B24011E192E
:107AB000195B0C48FFF758F971880B48FFF754F928
:107AC000B17B0A48FFF750F90948FFF74DF92C46FA
:107AD000012CE2DD70BD00BF74C3000834BD000896
:107AE000A40A00207CC3000888C300089CC30008C7
:107AF00000C1000818B1022803D0022070470020FE
:107B000070470120704708B500F50C71D0F8680285
:107B1000FCF7F1FC08BD08B500EB4113D3F83C219C
:107B2000D0F86802FCF714FD08BD08B500EB41135E
:107B3000DA6BD0F86802FCF754FD08BD08B5D0F840
:107B40006802FCF7F6FD08BD10B504468368022BF9
:107B500001D0FEF741FB0121D4F86802FCF7D2FD09
:107B6000D4F86802FCF7A6FD10BD000010B504466D
:107B7000D0F86802FCF7C9FDA36923B1024A136972
:107B800043F00603136110BD00ED00E008B5D0F826
:107B90006802FCF7C3FD08BD10B51C46134622461B
:107BA000D0F8C002FAF707FAFFF7A4FF10BD08B536
:107BB000D0F8C002FAF7E5FCFFF79CFF08BD08B556
:107BC000D0F8C002FAF714FDFFF794FF08BDD0F813
:107BD000C03211F0800F06D101F07F0103EB41119B
:107BE00091F82A01704701F07F0103EB411191F8F0
:107BF0002A00704708B5D0F8C002FAF7C8F9FFF7B5
:107C000079FF08BD08B5D0F8C002FAF72BFAFFF7E4
:107C100071FF08BD08B5D0F8C002FAF704FAFFF703
:107C200069FF08BD2038C0B25E288CBF002001204B
:107C30007047000070B506460D46002400E0013490
:107C40000E2C16D804EB44039A000B4B13441B7AFA
:107C5000AB42F4D1084B13442A463146586800F031
:107C6000DFFE0028EBD104EB4404A300024AD05C01
:107C700000E0002070BD00BFDCC3000870B5064600
:107C8000144B1D7815B9FFF7CDFFF0B90D2E1ED09E
:107C90006C1CE4B20F4B1C700F4846552146FFF791
:107CA000C9FF034618B9072C08D8184670BD002232
:107CB00008490A7008490A604A60F6E70022054947
:107CC0000A7005490A604A60EFE70123EDE70823DF
:107CD000EBE700BF940500208C0500200E2813D888
:107CE00000230E2B0ED803EB43018A0007498A5C60
:107CF000824201D00133F4E703EB43039A000846C4
:107D0000104470470020704700207047DCC3000813
:107D100038B501280BD018B1022861D0032005E046
:107D20000024304B1C7000F0CBFA204638BD88B1DF
:107D3000012820D0022830D02A4B1C78102000F0D7
:107D4000E5FA83B2E31A13F4004F2FD1241A254B1E
:107D50001C7007E0234B00221A700D2000F0D6FAA9
:107D600000F0B4FA0E2000F0D1FA05B2092D00DDC2
:107D70000925002425E01B4B1C780F2000F0C6FAD3
:107D800083B223441BB2FF2B03DD164BFF221A7074
:107D9000E8E70444134B1C70E4E7124BFF221A700F
:107DA0000D2000F0B3FA00F091FADBE70D4B002252
:107DB0001A70D7E70B4B1978204600F0A2FA01346D
:107DC000E4B26B1C9C42F5DB0220AFE700212046A9
:107DD00000F097FA0134E4B2092CF7D90120A5E7A5
:107DE0000024F9E7300D002008B501460148FDF7F1
:107DF00011FA08BD90C4000808B501460148FDF716
:107E000009FA08BDA4C4000870B5012812D018B141
:107E1000022861D0032070BD0B2000F019FD324B09
:107E20001860002404604460C0F8074000F048FA7D
:107E30002046F0E70D2000F069FA00F047FA00282C
:107E400050D0002504E0284B1B6898550135EDB251
:107E5000092D0ED82E46244B1B685C5D0F2000F0C8
:107E600055FA80B22044FF3800B20028EBDA002037
:107E7000E9E70E2000F04AFA0446092800D909244F
:107E80000C2000F043FA78B1174B1B689A7A0AB9B4
:107E900001349C729A7A013A9A72134B1B689A7A4F
:107EA000FF219954002413E00F4B1B689A7AA242D9
:107EB00003D09A7A01329A72EFE7FF229A72F8E7BA
:107EC000094B1B68195D204600F01BFA0134E4B22F
:107ED000092CF5D902209EE7034B186800F0C0FC7E
:107EE000012098E7022096E7300D002008B50146F2
:107EF0000148FDF78FF908BDB8C4000808B5014670
:107F00000148FDF787F908BDCCC400080000000057
:107F1000F0B583B0012815D020B1022800F084808C
:107F200003208BE000F0F6F9474B1860002000F0CA
:107F3000F3FA0146454800F0F5F908B100207DE06C
:107F400003207BE000F0E6F93F4B1C68041B0D208A
:107F500000F0DCF9844201D202206FE000F0DAF98F
:107F6000394B18600E2000F0D1F90146374800F077
:107F700018FA374E3088F8F745FA31A3D3E90023D1
:107F8000F8F7AAFA0022334BF8F7D0FB01F02AFAEF
:107F900004460D460F2000F0B9F980B2338818442A
:107FA00080B23080B0F5B47F02D9A0F5B4703080D3
:107FB000002000F0B1FAF8F715FA22462B46F8F740
:107FC0008BFA0022244BF8F787FAF8F735FD84B2D4
:107FD000002000F0A1FAC0F34F000444A4B2102026
:107FE00000F094F901460320FDF714FB064611202A
:107FF00000F08CF901460320FDF70CFB0746122028
:1080000000F084F901460320FDF704FB0F4D0090BA
:108010003B4632462146284600F099F92946002081
:1080200000F0A1F9022009E0002000F07FFA012011
:1080300000F07CFA054800F085F9012003B0F0BD9E
:10804000F1D4C853FB210940A00500209805002069
:10805000A4050020008066400000E03F08B501460E
:108060000148FDF7D7F808BDE0C40008F0B583B0BB
:1080700001285DD0E8B102285ED003201CE0013465
:10808000E4B2012C17D8304EC4EBC40573199878AC
:1080900000F03CF92D4B23F81400705D00F036F928
:1080A0000028ECD0294A32F814305B4222F8143010
:1080B000E5E70024E5E7002003B0F0BD002A32DB4D
:1080C0000134E4B2012C35D8C4EBC4021E4B134476
:1080D000587800F01BF901461D4800EB840000F0C1
:1080E00005F90028ECD0204600F016FA194E36F9B2
:1080F0001430164F37F91420D2B20092DBB2C2B25C
:108100000021204600F0FEFA36F8143037F814202B
:1081100013449BB21AB226F81420FF2ACEDDFF3B8F
:1081200026F81430CCE7FF330A4A22F81430C7E7A8
:108130000024C7E70220BFE7002000F0F7F9012084
:1081400000F0F4F90120B7E71CC50008B4050020D1
:10815000A8050020B005002008B501460148FDF73C
:1081600059F808BDF4C400082DE9F04782B0012891
:1081700000F0898020B3022800F08980032022E0EB
:108180000134E4B2012C1DD8454EC4EBC40573196B
:10819000987800F0BBF8434B23F81400705D00F0B2
:1081A000B5F80028ECD0204600F0B6F93E4B23F895
:1081B00014003C4A32F814305B4222F81430DFE7F6
:1081C0000024DFE7002002B0BDE8F087364B33F92A
:1081D0001420002A4ADB0134E4B2012C55D8C4EB48
:1081E000C4022F4B1344587800F090F801462F48F2
:1081F00000EB840000F07AF80028ECD0204600F074
:1082000095F9294F37F91480C4EBC403244D1D445C
:10821000287900F07BF88146687900F077F882468B
:10822000A87900F073F8009053464A461FFA88F187
:10823000204600F02FF937F814501A4B33F8143059
:108240001D442DB227F81450204600F065F98542F0
:10825000BCDD144A32F814305B429BB222F8143071
:1082600037F814100B4427F81430B4E70D4931F8EF
:1082700014305B429BB221F8143092B213440A4A84
:1082800022F81430A7E70024A7E702209BE700208C
:1082900000F04CF9012000F049F9012093E700BFFC
:1082A0001CC50008C4050020C0050020B80500203A
:1082B00008B501460148FCF7ADFF08BD08C5000838
:1082C000014B00221A607047C8050020064B1B684E
:1082D000834204D00133044A136000207047024BEC
:1082E00000221A6001207047C805002003688B42F5
:1082F00003D0013303600020704700230360012096
:10830000704708B50130FCF7C9FD08BD08B5FCF79A
:10831000D3FD08BD08B5F8F765FF08BD01FB00F007
:10832000000A704738B504460D46002383800321B8
:10833000284600F05BFA206010B1A580012038BD0E
:108340000020FCE708B5006800F08AFA08BD10B408
:10835000046801EB41016018625443709DF80430D9
:10836000837010BC7047F0B583B007460C4600F030
:10837000D3F82568A688864200D3064600240CE080
:1083800004EB4402A9184B78AA5C89780091214635
:10839000384600F07FF80134A4B2B442F0D303B001
:1083A000F0BD2DE9F843814688460768002413E0B4
:1083B00004EB4406BD194146B85DFFF7AFFFB85561
:1083C00041466878FFF7AAFF68704146A878FFF732
:1083D000A5FFA8700134A4B2B9F80430A342E7D8CD
:1083E000BDE8F88338B5044600EB4003DA00274BBC
:1083F00013449B88002B3BD004EB4403DA00234B4F
:1084000013441B691B689B6813F0800FF4D1F8F7C5
:10841000E9FE04EB4402D3001C4AD3589842F6D339
:1084200062002244D100194B0B44DA88996818691C
:10843000FAF738FE18B1164A137801331370F8F7BB
:10844000D1FE0630114963002344DA008B188850AE
:108450009A68D86882420CD00C4D63001919CA0082
:108460002A449060D168D3881A46194400F000FA73
:1084700038BD0D4662001119CB002B44D988084441
:1084800098600A46D96800F0F3F9F1E76008002027
:10849000CC050020F0B49DF8105000EB4000C40063
:1084A00012482044876801EBC1010131781803EBC1
:1084B00043030F4CE618E35C7B5473784370B37846
:1084C000837002EB4202A318A25CC2705A78027158
:1084D0009B78437105EB45056319625D82715A789B
:1084E000C2719B780372F0BC704700BF6008002027
:1084F0002CC5000800B583B0D3B20093C2F30723A4
:10850000C2F30742FFF7C6FF03B05DF804FB0902A0
:1085100041EA00401043704700EB4000C200024BAC
:1085200013449888704700BF6008002010B400EB27
:108530004003DA000C4B13449A680132002407E030
:108540009223137049235370242393700134033210
:1085500000EB4003D900044B0B449B8803EB43031F
:10856000A342EDDC10BC70476008002070B582B0FB
:1085700004460D46474943000344DA0088180023A7
:108580008360C3608B50002C2FD1434A0261434A61
:10859000426100238DF804308DF80530E80080B288
:1085A000284480B2023080B263002344DA00394E9E
:1085B0001644F080400000F04BF9F060F8B133460B
:1085C000B580986000220270B168F388013BCA54FC
:1085D0002046FFF7ABFFE4B104EB4403DA002D4B78
:1085E00013445B692E4A1A601BE062002244D100EA
:1085F000284B0B442B4A1A612B4A5A61C9E7254A7A
:1086000063001819C10011440020C880888002B09E
:1086100070BD04EB4403DA001E4B13445B69234A2C
:108620001A6062002244D1001A4B0B445A6910218F
:108630005160596900228A6059698020C86059696F
:108640000A6159694A6159698A615A694FF48051CE
:10865000D1615869F9F7DEF840B10E4A6300181984
:10866000C10011440020C8808880D0E70949630018
:108670001819C2000A4410695269826450621C448D
:10868000E00008446423012201A90069FAF73DFCD7
:108690000120BCE76008002004090020A009002098
:1086A000440002408C0700205C090020300002409A
:1086B00008B554280ED9A92817D95630C1B2A1EB54
:1086C0008102013A01EB4101D2B2C9B20020FFF7A9
:1086D0001EFF09E0A0EB8001013900EB4000002201
:1086E000C9B2C0B2FFF713FF08BD5538C0B200EBE6
:1086F0004002A0EB80000138D2B20021C0B2FFF7E7
:1087000006FFF1E72DE9F84380460D4616469DF831
:10871000207099468CB204E0B9F1000F19DB0134E6
:10872000A4B2AB199C4218DA5FFA89F0FFF7C0FFD8
:10873000024621464046FFF7DDFE07EB09039BB2E8
:108740000FFA83F9B9F1FF0FE6DDFF3B0FFA83F96A
:10875000E5E7FF330FFA83F9E1E7BDE8F8830000AE
:1087600030B583B00546FFF7D7FE0A4C23780A22BE
:108770000092C2B200212846FFF7C4FF23880133CC
:108780009BB22380FF2B01D003B030BD002222809A
:10879000FAE700BFCE050020002103E00B4B5B5839
:1087A000435004310A480B4B42189A42F6D30A4A06
:1087B00002E0002342F8043B084B9A42F9D3FEF74B
:1087C000F1FF00F021F8FDF757FB704790CB000850
:1087D000000000206802002068020020380D002000
:1087E000FEE70A22002100F013BA0000024B0A46FD
:1087F0000146186800F04FB894000020014B18683B
:10880000704700BF9400002070B500250C4E0D4C41
:10881000A41BA410A54209D102F07AFD00250A4E3E
:108820000A4CA41BA410A54205D170BD56F82530F2
:1088300098470135EEE756F8253098470135F2E7BD
:1088400088CB000888CB000888CB00088CCB0008B8
:10885000024B0146186800F079B800BF9400002070
:10886000024B0146186800F025B800BF94000020B4
:1088700010B5431E0A44914200D110BD11F8014BBE
:1088800003F8014FF7E703460244934200D17047D3
:1088900003F8011BF9E738B502FB01F4214600F0AB
:1088A00055F8054618B122460021FFF7ECFF28468F
:1088B00038BD000038B50546002943D051F8043CC6
:1088C0000C1F002BB8BFE41800F007FA1E4A13680B
:1088D000104633B9636014602846BDE8384000F0A4
:1088E000FDB9A3420BD921686218934201BF1A68EF
:1088F0005B685218226063600460EDE713465A68B3
:108900000AB1A242FAD919685818A0420BD12068BE
:108910000144581882421960DED11068526801443F
:1089200019605A60D8E702D90C232B60D4E720687D
:1089300021188A4201BF11685268091821606260DB
:108940005C60C9E738BD00BFD005002070B5CD1C04
:1089500025F0030508350C2D38BF0C25002D0646E3
:1089600001DBA94203D90C233360002070BD00F065
:10897000B4F9214A1468214691B9204C23681BB9E7
:10898000304600F03DF820602946304600F038F8C7
:10899000431C24D10C233046336000F09FF9E4E7F8
:1089A0000B685B1B18D40B2B0FD90B60CC18CD5068
:1089B000304600F093F904F10B00231D20F007006E
:1089C000C31AD3D05A42E250D0E74B688C4216BF4C
:1089D000636013600C46EBE70C464968CCE7C41CA7
:1089E00024F00304A04205D0211A304600F008F814
:1089F0000130CFD02560DBE7D0050020D405002072
:108A000038B50023054C054608462360FEF7ACFE4A
:108A1000431C02D1236803B12B6038BD340D002004
:108A200010B56AB10139841810F8013B11F8012F13
:108A3000934203D1A04201D0002BF5D1981A10BD6A
:108A40001046FCE770B50446013902B970BD2346F3
:108A500011F8015F561E03F8015B2DB91444A342BF
:108A6000F4D003F8015BFAE71C463246EDE700005C
:108A7000134B2DE9F0411D680646AC6D0F46B4B9A5
:108A80005020FFF7E5FEA865C0E90044C0E90244B4
:108A9000C0E90444C0E90A44C0E90C44C0E90E44FA
:108AA000C0E91044C0E91244846104774462AA6DAD
:108AB00039463046BDE8F041012300F003B800BF5D
:108AC00094000020F0B518B9106808B9F0BD204630
:108AD00004460F4614F8015B17F8016B1EB96DB917
:108AE00015602846F2E7B542F6D1002BEFD11460AD
:108AF0000370EBE72B460DE026B91C4623460F46D4
:108B000013F8015B17F8016BB542F5D1002DF1D0D8
:108B1000002121701360D9E72DE9F047804689468E
:108B200092461E460F463D46089815F8014B00F048
:108B3000BFF82044437813F0080332D12D2C32D1F2
:108B400001227C78BD1C002E5DD0102E09D1302C66
:108B500007D12B7803F0DF03582B4FD110266C7808
:108B60000235002A14BF4FF000416FF0004100278A
:108B7000B1FBF6FC384606FB1C1EA4F13003092BA2
:108B800017D81C46A64223DD7B1C07D084451CD386
:108B900001D1A64519DB012700FB064015F8014B62
:108BA000EBE72F46BFE72B2C04BFBD1C7C781A4691
:108BB000C9E7A4F14103192B01D8373CE2E7A4F13E
:108BC0006103192B04D8573CDCE74FF0FF37E5E78A
:108BD0007B1C08D122230846C8F80030BAF1000FE8
:108BE00007D1BDE8F08702B14042BAF1000FF8D0DA
:108BF0000FB105F1FF39CAF80090F2E73024002EDA
:108C0000AFD10826ADE7302CA3D00A26A9E7000093
:108C1000084B37B51C68084D236A002B08BF2B464C
:108C2000009313460A4601462046FFF775FF03B03E
:108C300030BD00BF94000020F800002030B5141EA5
:108C400005469BB0184605DA8B234FF0FF302B60AA
:108C50001BB030BD4FF40273ADF80C300CBF23468F
:108C600004F1FF33029305934FF6FF7300910491D3
:108C7000ADF80E3002461E9B6946284600F08AF881
:108C8000431CBCBF8B232B60002CE1D00022009B37
:108C90001A70DDE707B5009313460A4601460348FC
:108CA0000068FFF7CBFF03B05DF804FB94000020E1
:108CB000D0F8EC00704782B001B901A942B14BB1C4
:108CC00013780B601278101C18BF012002B0704797
:108CD0001046FBE76FF00100F8E7704770472DE999
:108CE000F0478E6882469E420C469046994637D899
:108CF0008A8912F4906F31D00223256809696F1AAE
:108D0000656905EB450595FBF3F509F101033B4466
:108D10009D4238BF1D46530530D52946FFF716FE44
:108D2000064650B90C234FF0FF30CAF80030A38933
:108D300043F04003A381BDE8F0873A462169FFF77D
:108D400097FDA38923F4906343F08003A3812661F8
:108D50003E4426604E466561ED1BA5604E4500D938
:108D60004E4632464146206800F0AFFAA368002024
:108D70009B1BA36023681E442660DCE72A4600F0A4
:108D8000BDFA06460028E2D121695046FFF792FD60
:108D9000C8E700002DE9F04F1D468B899DB01F06E6
:108DA00080460C4616460FD50B696BB94021FFF77C
:108DB000CDFD2060206128B90C23C8F800304FF0A9
:108DC000FF30C8E0402363610023099320238DF81E
:108DD000293030234FF0010B8DF82A3003953746A8
:108DE0003D4615F8013B0BB1252B3ED1B7EB060AEA
:108DF0000BD05346324621464046FFF770FF013004
:108E000000F0A480099B534409933B78002B00F0A9
:108E10009D8000234FF0FF32CDE905230493079393
:108E20008DF853301A932F46052217F8011B50482E
:108E300000F03DFA049BD0B9D90644BF20228DF83A
:108E400053201A0744BF2B228DF853202A782A2A50
:108E500015D02F4600200A25079A394611F8013B04
:108E6000303B092B4DD9B8B10FE02F46B8E7404A47
:108E70003D46801A0BFA00F018430490D3E7039A9A
:108E8000111D12680391002A01DB079204E052428F
:108E900043F00203079204933B782E2B0CD17B788E
:108EA0002A2B33D1039B02371A1D1B680392002B18
:108EB000B8BF4FF0FF3305932E4D03223978284673
:108EC00000F0F5F938B14023401B03FA00F0049B91
:108ED0000137034304933978062227487E1C8DF816
:108EE000281000F0E4F9002838D0244B13BB039B72
:108EF000073323F0070308330393099B4B4409937B
:108F00006DE705FB023201200F46A6E700230A2584
:108F1000194601370593384610F8012B303A092AD3
:108F200003D9002BC8D00591C6E705FB0121012319
:108F30000746F0E703AB00932246114B04A94046D5
:108F4000AFF30080B0F1FF3F8146D6D1A3895B0625
:108F50003FF535AF09981DB0BDE8F08F03AB009326
:108F60002246074B04A9404600F082F8EAE700BF1A
:108F700036C800083CC8000840C8000800000000CF
:108F8000DF8C00082DE9F04791461F468A680B697F
:108F900006469342B8BF1346C9F8003091F8432003
:108FA0000C46DDF8208012B10133C9F80030236887
:108FB000990642BFD9F800300233C9F8003025685D
:108FC00015F0060507D104F1190AE368D9F8002065
:108FD0009B1AAB4229DC94F843302268003318BF57
:108FE000012392062ED404F1430239463046C0478D
:108FF000013021D02368E56803F00603042B18BF75
:109000000025D9F800204FF0000908BFAD1AA36869
:10901000226908BF25EAE5759342C4BF9B1AED1883
:109020001A344D451AD1002008E001235246394632
:109030003046C047013003D14FF0FF30BDE8F08724
:109040000135C2E73020E11881F843005A1C94F83A
:1090500045102244023382F84310C4E7012322461C
:1090600039463046C0470130E6D009F10109D8E75A
:109070002DE9F04301F1430C0C46097E85B06E29C1
:109080001746064698460C9A00F0B38022D863290A
:1090900036D00AD8002900F0B980582900F0838022
:1090A00004F1420584F8421032E0642901D06929B4
:1090B000F6D120681368050603F104012AD51B6860
:1090C0001160002B03DA2D225B4284F843206F48A5
:1090D0000A2239E0732900F09D8008D86F2920D03A
:1090E0007029DDD1236843F02003236003E0752954
:1090F00017D07829D4D17823654884F8453055E0D5
:10910000136804F14205191D1B68116084F8423090
:1091100001238CE01B6810F0400F116018BF1BB2D8
:10912000CFE713682568181D1060280601D51B6855
:1091300002E06806FBD51B886F2914BF0A220822AB
:109140005248002184F843106568002DA560C0F2E4
:109150009580216821F004012160002B3DD1002D74
:1091600040F08E806546082A0BD12368DB0708D5BE
:10917000236962689A42DEBF302305F8013C05F19D
:10918000FF35ACEB05032361CDF800803B4603AA15
:1091900021463046FFF7F6FE01304DD14FF0FF304B
:1091A00005B0BDE8F083394884F84510136821689C
:1091B0001D1D1B6815600A060BD5CA0744BF41F088
:1091C000200121601BB9226822F0200222601022B7
:1091D000B7E74D0648BF9BB2EFE76546B3FBF2F138
:1091E00002FB1133C35C05F8013D0B460029F5D1A4
:1091F000B9E713682568181D6169106028061B68A7
:1092000001D5196002E06A06FBD519800023654686
:109210002361B9E71368191D11601D686268002198
:10922000284600F044F808B1401B60606368236181
:10923000002384F84330A7E723692A46394630469D
:10924000C0470130AAD023689B0713D4E068039B72
:109250009842B8BF1846A3E701234A46394630462C
:10926000C04701309AD00135E368039A9B1AAB429C
:10927000F2DCEBE7002504F11909F5E7002BACD18E
:10928000037804F1420584F842306CE747C80008CF
:1092900058C8000849B1FF2A8BBF8A230A700360AF
:1092A000012088BF4FF0FF3070470846704710B567
:1092B000C9B202449042034601D1002303E01C7866
:1092C00001308C42F6D1184610BD884210B501EB32
:1092D000020307D8421E99420AD011F8014B02F846
:1092E000014FF8E78342F5D98118D21AD34200D151
:1092F00010BD13F8014D01F8014DF7E7F8B5074629
:1093000014460E4621B9BDE8F8401146FFF71EBBD2
:1093100022B9FFF7CFFA25462846F8BD00F014F829
:10932000A0420FD221463846FFF710FB0546002821
:10933000F2D031462246FFF79BFA31463846FFF716
:10934000B9FAE9E73546E7E751F8043C181F002B66
:10935000BCBF0B58C0187047F8B5C1F30A57A7F245
:10936000FF34132C06460D460B468C46024617DC8E
:10937000002C09DA013401F0004303D143F07F539C
:1093800043F44013002228E0154921410D4200D149
:1093900078B14FF400232341634423EA0103F1E74A
:1093A000332C09DDB4F5806F03D1F6F7DFFE0646F6
:1093B0000D4630462946F8BD4FF0FF30A7F213475F
:1093C000F8400642F5D00121C4F1330401FA04F457
:1093D000321928BF5B1822EA000219461046E6E758
:1093E000FFFF0F0030B51A4A21F00043934287B0C7
:1093F00006DC002300220093002301F039FD06E083
:10940000144A934205DD02460B46F6F7ADFE07B05F
:1094100030BD02AA00F088FEDDE9042300F0030459
:10942000012CDDE9020105D0022C06D064B901242B
:109430000094E2E701F014F9E9E70124009401F057
:1094400017FD01F10041E2E701F00AF9F9E700BF79
:10945000FB21E93FFFFFEF7F2DE9F04F8FB01D4665
:1094600080468946144600F053F9A14FCDE900012A
:1094700097F900303E46029301335FD022462B46D7
:1094800020462946F7F7C2FA8246002856D14246BE
:109490004B4640464946F7F7B9FA0390E8B1002237
:1094A000002320462946F7F77FFA002846D00123FB
:1094B000002204938F4BCDF830A005938E4BCDE95D
:1094C0000689CDE90A23029BCDE90845022B31D05C
:1094D00004A801F011FE38BB58E04FF0000A4FF02D
:1094E000000B52465B4640464946F7F75DFA0028B6
:1094F00051D052465B4620462946F7F755FA0646B4
:1095000008B3012304937B4BCDE906890593039BA4
:10951000CDE908450C93029BCDE90AAB002BD7D0CF
:109520000022754BCDE90A230C9B1BB1FFF766F9AE
:109530000C9B0360DDE90A34CDE90034DDE900016C
:109540000FB0BDE8F08F2046294601F04BFD002802
:10955000F4D052465B4620462946F7F72FFA0028FA
:10956000ECD001230493634B0C96059397F90030DC
:10957000CDE90689CDE9084513B9CDE90AABA7E7DE
:1095800000205E49022BCDE90A01A1D1FFF736F98F
:1095900021230360C8E7DDE9000101F023FD02900B
:1095A000002877D14046494601F01CFD002871D0C3
:1095B0002046294601F016FD00286BD0DDE9002386
:1095C00019461046F7F722FA97F90070494BA0B1F7
:1095D0000122CDE90423029BCDE906890C93CDE954
:1095E0000845002FC9D052465B4650465946F7F70A
:1095F0009DF8022FCDE90A01C7E703220C90CDE9BF
:1096000004232046294600223D4BCDE90845CDE9FB
:109610000689F6F761FF04460D4617BB4FF060421E
:10962000384B4046CDE90A23494652465B46F7F798
:10963000C5F9002854D02046294601F065FD224690
:109640002B46F7F7B1F920B94FF060422E4BCDE928
:109650000A2396F90030022B42D1FFF7CFF82223DC
:1096600097E70022294B4046CDE90A234946524656
:109670005B46F7F7A3F90028EBD02046294601F016
:1096800043FD22462B46F7F78FF90028E1D100224F
:109690001A4BDCE70022DDE900010023F7F784F92B
:1096A00000283FF44BAF4046494601F09BFC0028A0
:1096B0003FF444AF2046294601F094FC00283FF4D3
:1096C0003DAF042304930B4BCDE9084505930023DC
:1096D00000240C930023CDE90689CDE90A34B8E7CC
:1096E00004A801F009FD00287FF41EAFB5E700BF14
:1096F000640200206AC900080000F03F0000F0FF8B
:109700000000E03FFFFFEF47FFFFEFC70000F07FE3
:109710002DE9F04F91B0CDE90223DDE9022626F0D4
:10972000004555EA02030746884600F0B784804B9F
:1097300021F000449C428946824609DC03D138B9B5
:10974000A5420DDC01E09D4202DC9D420ED16AB1D2
:1097500004F1404404F5801454EA0A0300F09E84A6
:10976000744811B0BDE8F04F01F0C8BCB9F1000F6A
:1097700053DA714B9D424EDCA3F154739D424CDD94
:109780002B15A3F2FF33142B28DDC3F1340322FA87
:1097900003F101FA03F393423FD101F00101C1F15A
:1097A00002030093002A5CD1614B9D4226D104F153
:1097B000404303F5801353EA0A0300F06F845F4BC4
:1097C0009C422CDD002E80F26F844FF0000B4FF096
:1097D000000C5846614611B0BDE8F08F002A3ED11A
:1097E000C3F1140345FA03F101FA03F3AB4240F06D
:1097F000638401F00101C1F102030093504B9D42CB
:1098000014D1002E80F254843A46434600204C493D
:10981000F6F78CFF13E00223C3E70023C1E7002E15
:10982000D3DADDE902B303F1004CD2E7B6F1804FA1
:1098300008D13A46434638464146F6F74DFE834640
:109840008C46C6E73F4B9E420BD1B9F1000F08DBB7
:109850003846414611B0BDE8F04F00F055BE002338
:1098600000933846414601F0B9FB83468C46BAF175
:10987000000F2BD124B1324B29F040429A4225D11E
:10988000002E07DA5A46634600202D49F6F74EFFB0
:1098900083468C46B9F1000F9BDA04F14044009BEB
:1098A00004F58014234308D15A466346584661465E
:1098B000F6F75AFC02460B46AAE7009B012B88D11B
:1098C00058460CF1004383469C4682E74FEAD9791B
:1098D00009F1FF330D930D9A009B134304D13A46CF
:1098E000434638464146E3E7174B9D4240F3FE802E
:1098F00003F104739D420BDD104B9C420EDC002EE5
:10990000BFF663AF08A3D3E900231046194694E7D6
:109910000E4B9C42F3DD0A4B9C4219DD002EF1DC1C
:1099200053E700BFAFF300809C7500883CE4377EAE
:109930000000F07F3BC80008FFFF3F43FFFFEF3F01
:109940000000F03F0000E03F0000E041FEFFEF3F7D
:1099500061460022604B5846F6F706FC54A3D3E953
:10996000002304460D46F6F7B7FD53A3D3E90023C1
:1099700006460F4620462946F6F7AEFD00228246EF
:109980008B46564B20462946F6F7A6FD02460B4667
:109990004BA1D1E90001F6F7E7FB22462B46F6F78B
:1099A0009BFD02460B4600204D49F6F7DDFB2246A3
:1099B0002B468046894620462946F6F78DFD02460D
:1099C0000B4640464946F6F787FD3FA3D3E90023FF
:1099D000F6F782FD02460B4650465946F6F7C4FBA1
:1099E00002460B4604460D4630463946F6F7BEFBA6
:1099F00000208B46824632463B46F6F7B5FB0246D0
:109A00000B4620462946F6F7AFFB009B0D9A013B1B
:109A100013434FF000030CBF324C2F4C0646CDE9E8
:109A20000034DDE9024500240F46DDE9020122464B
:109A30002B46F6F799FB52465B46F6F74DFDDDE9FE
:109A400002238046894630463946F6F745FD0246F0
:109A50000B4640464946F6F789FB22462B46804690
:109A6000894650465946F6F737FD04460D460B46E3
:109A7000024649464046CDE90245F6F777FB1A4BC8
:109A8000824699420F460E4640F3E18201F13F4380
:109A900003F5E003034300F0DB810DA3D3E90023CA
:109AA000DDE90001F6F718FD09A3D3E90023C4E6B8
:109AB000000000604715F73F44DF5DF80BAE543EF1
:109AC000555555555555D53FFE822B654715F73FE2
:109AD0009C7500883CE4377E0000F03F0000D03FDA
:109AE0000000E03F0000F0BFFFFF8F40B4F5801F93
:109AF0004FF0000208DA5846CD4B6146F6F7ECFC11
:109B00006FF0340283460C462315A3F2FF3313444F
:109B10000C93C84BC4F3130444F07F559C4245F4A6
:109B2000401508DDC44B9C4240F35B810C9BA5F5BE
:109B3000801501330C934FF0000858462946BF4B5F
:109B40004FEAC8094B44D3E90034CDE908341A463A
:109B50002346CDE90A01F6F707FBDDE90A230646AD
:109B60000F46DDE90801F6F701FB02460B4600202F
:109B7000B349F6F7DBFDCDE90E0102460B46304650
:109B80003946F6F7A9FCCDE90601DDE90634CDE951
:109B90000434002300226D1045F00055049305F5B0
:109BA0000025DDE904AB05EB8843504659461446D1
:109BB0001D46F6F791FC02460B4630463946F6F74D
:109BC000D3FADDE9082306460F4620462946F6F774
:109BD000CBFA02460B46DDE90A01F6F7C5FA524612
:109BE0005B46F6F779FC02460B4630463946F6F7F7
:109BF000BBFADDE90E23F6F76FFCDDE90623CDE9BC
:109C0000080110461946F6F767FC77A3D3E900234D
:109C100004460D46F6F760FC75A3D3E90023F6F77A
:109C2000A5FA22462B46F6F757FC73A3D3E9002387
:109C3000F6F79CFA22462B46F6F74EFC70A3D3E9C2
:109C40000023F6F793FA22462B46F6F745FC6EA35F
:109C5000D3E90023F6F78AFA22462B46F6F73CFCB6
:109C60006BA3D3E90023F6F781FA224606460F4696
:109C70002B4620462946F6F72FFC02460B46304677
:109C80003946F6F729FC04460D46DDE90601524641
:109C90005B46F6F76BFADDE90823F6F71DFC224672
:109CA0002B46F6F763FA524606460F465B46504689
:109CB0005946F6F711FC0022624BCDE90A01F6F78E
:109CC00055FA32463B46F6F751FA04980D460446DB
:109CD00002460B4650465946F6F7FEFB00228246E6
:109CE0008B46584B20462946F6F73EFADDE90A2313
:109CF000F6F73AFA02460B4630463946F6F734FA9A
:109D0000DDE90623F6F7E8FB224606460F46DDE9C5
:109D100008012B46F6F7E0FB02460B463046394673
:109D2000F6F724FA06460F4602460B4650465946B9
:109D3000F6F71CFA38A3D3E9002304980D4604462D
:109D4000F6F7CAFB5246CDE906015B462046294696
:109D5000F6F70AFA02460B4630463946F6F704FA99
:109D60002FA3D3E90023F6F7B7FB2FA3D3E90023F2
:109D700006460F4620462946F6F7AEFB02460B463E
:109D800030463946F6F7F2F92F4B4B44D3E900231E
:109D9000F6F7ECF904460C980D46F6F733FB064649
:109DA0000F462A4B22464B44D3E900892B46DDE976
:109DB0000601F6F7DBF942464B46F6F7D7F932468D
:109DC0003B46F6F7D3F9049832463B4682468B462B
:109DD000F6F7CAF942464B46F6F7C6F9DDE906231F
:109DE0000BE64FF00108A8E6EF4E454A287ECA3F31
:109DF00065DBC9934A86CD3F01411DA96074D13FFF
:109E00004D268F515555D53FFFAB6FDBB66DDB3F10
:109E1000033333333333E33F000000E009C7EE3F41
:109E2000FD033ADC09C7EE3FF5015B14E02F3EBEAF
:109E3000000040438E98030079B60B0070C90008FB
:109E40000000F03F0000084090C9000880C90008E9
:109E50009BA3D3E9002340464946F6F787F92246FB
:109E6000CDE904012B4650463946F6F77DF9024606
:109E70000B46DDE90401F6F7BFFD00287FF40DAEC7
:109E8000A34A26F00043934240F303814FF4801A23
:109E900000201B15A3F2FE334AFA03F33344C3F345
:109EA0000A529C4FA2F2FF321741C3F3130A23EA6E
:109EB0000701C2F114024AF4801A4AFA02FA002E8B
:109EC00002460B4620462946B8BFCAF1000AF6F7FB
:109ED0004BF9CDE90201DDE9020142464B46F6F7B6
:109EE00045F979A3D3E9002300200D460446F6F78F
:109EF000F3FADDE9022306460F4620462946F6F727
:109F000033F902460B4640464946F6F72DF970A351
:109F1000D3E90023F6F7E0FA6FA3D3E900238046E4
:109F2000894620462946F6F7D7FA02460B464046B0
:109F30004946F6F71BF904460D4602460B463046E5
:109F40003946F6F713F932463B4680468946F6F71E
:109F50000BF902460B4620462946F6F705F942461C
:109F600006460F464B4640464946F6F7B5FA5CA30F
:109F7000D3E9002304460D46F6F7AEFA5AA3D3E917
:109F80000023F6F7F1F822462B46F6F7A5FA58A378
:109F9000D3E90023F6F7EAF822462B46F6F79CFAB7
:109FA00055A3D3E90023F6F7DFF822462B46F6F750
:109FB00093FA53A3D3E90023F6F7D8F822462B46A9
:109FC000F6F78AFA02460B4640464946F6F7CCF8C1
:109FD00004460D4602460B4640464946F6F77CFAD3
:109FE0000022CDE902014FF0804320462946F6F7D2
:109FF000BBF802460B46DDE90201F6F797FB324655
:10A0000004460D463B4640464946F6F765FA324659
:10A010003B46F6F7ABF802460B4620462946F6F7D4
:10A02000A3F842464B46F6F79FF802460B4600203F
:10A030003949F6F799F801EB0A54B4F5801F2BDA89
:10A04000524601F0EDF8DDE90023FFF7F6BB334B94
:10A0500021F000479F427FF713AF314B0B4403437E
:10A060000BD029A3D3E90023DDE90001F6F734FA88
:10A0700025A3D3E90023FFF7E0BB22462B46F6F7E2
:10A0800073F842464B46F6F7ADFC00283FF4F8AEB5
:10A09000E7E74FF0000A1EE72146D4E74FF0000B38
:10A0A000DFF874C0FFF795BBDDE902BCFFF791BB99
:10A0B00038464146FFF7C3BB0092FFF79FBB00BF86
:10A0C000FE822B654715973C00000000432EE63FBB
:10A0D000EF39FAFE422EE63F396CA80C615C20BED7
:10A0E000D0A4BE726937663EF16BD2C541BDBB3E9E
:10A0F0002CDE25AF6A56113F93BDBE166CC1663F7C
:10A100003E5555555555C53F59F3F8C21F6EA5012B
:10A110000000E03FFFFF0F000000F03FFFCB90404A
:10A1200000346F3F000000002DE9F04F1446C24A92
:10A1300021F0004A92458DB08B4607DC00220023B7
:10A14000C4E90001C4E90223002523E0BB4A92458B
:10A1500071DCABA3D3E900230029B94D36DDF6F756
:10A1600003F8AA4506460F4618D0A7A3D3E9002353
:10A17000F5F7FAFF02460B463046C4E9002339469C
:10A18000F5F7F2FFA0A3D3E90023F5F7EDFF0125D2
:10A19000C4E9020128460DB0BDE8F08F9CA3D3E9C5
:10A1A0000023F5F7E1FF9CA3D3E9002306460F4601
:10A1B000F5F7DAFF02460B463046C4E9002339467C
:10A1C000F5F7D2FF94A3D3E90023DEE7F5F7CEFF3E
:10A1D000AA4506460F4616D08BA3D3E90023F5F710
:10A1E000C5FF02460B463046C4E900233946F5F761
:10A1F000BBFF85A3D3E90023F5F7B8FF4FF0FF3588
:10A20000C4E90201C6E782A3D3E90023F5F7AEFF54
:10A2100081A3D3E9002306460F46F5F7A7FF0246C0
:10A220000B463046C4E900233946F5F79DFF7AA373
:10A23000D3E90023E0E7834A924500F3D28000F09F
:10A24000CDFE77A3D3E9002306460F46F6F744F97F
:10A2500000227D4BF5F78AFFF6F7EEFB0546F6F791
:10A26000D1F867A3D3E90023CDE90201F6F734F969
:10A2700002460B4630463946F5F776FF62A3D3E92E
:10A28000002306460F46DDE90201F6F725F91F2DEA
:10A29000804689460EDC6D4B6A1E53F822305345CA
:10A2A00008D042464B4630463946F5F75DFFC4E9D3
:10A2B000000111E04B46424630463946F5F754FF5F
:10A2C0004FEA2A5AC1F30A53AAEB0303102B1FDCEF
:10A2D00002460B46C4E90023D4E9002A304653461F
:10A2E0003946F5F741FF42464B46F5F73DFF02463A
:10A2F0000B46BBF1000FC4E90223BFF64BAF0AF1D6
:10A300000043C4E9013001F10041E1606D4241E7E1
:10A310003FA3D3E90023DDE90201F6F7DDF880462B
:10A32000894602460B4630463946F5F71DFFCDE912
:10A33000040102460B4630463946F5F715FF424602
:10A340004B46F5F711FF34A3D3E9002306460F4629
:10A35000DDE90201F6F7C0F832463B46F5F704FFA7
:10A360000B46024680468946DDE90401F5F7FCFE0E
:10A37000C1F30A53AAEB030ABAF1310F06DCDDE997
:10A38000046702460B46C4E90023A5E726A3D3E9E8
:10A390000023DDE90201F6F79FF880468946024670
:10A3A0000B46DDE90401F5F7DFFE02460B460646E3
:10A3B0000F46DDE90401F5F7D7FE42464B46F5F7B7
:10A3C000D3FE1BA3D3E9002380468946DDE90201C1
:10A3D000F6F782F842464B46F5F7C6FE80468946B8
:10A3E0005FE71B4A924535DD02460B46F5F7BCFE9A
:10A3F000C4E90201C4E90001A6E600BFAFF3008092
:10A4000000004054FB21F93F3163621A61B4D03D32
:10A410000000601A61B4D03D7370032E8A19A33B0B
:10A4200083C8C96D305FE43F0000002E8A19A33B4A
:10A43000C14920259A837B39FB21E93F7BD9024022
:10A44000FB21F93FFB2139410000E03FA0C9000892
:10A45000FFFFEF7F4FEA2A55A5F21645AAEB0551FB
:10A460000F460646F6F7E8FAF5F7CCFF02460B462C
:10A4700030463946CDE90623F5F776FE0022204B1B
:10A48000F6F72AF80F460646F6F7D6FAF5F7BAFFBA
:10A4900002460B4630463946CDE90823F5F764FEFF
:10A4A0000022174BF6F718F84FF003080026002794
:10A4B000CDE90A010DF13009324679E902013B4646
:10A4C00008F1FF3AF6F770FAB8B90E4B2A46019335
:10A4D00002232146009306A8434600F07FF9BBF112
:10A4E000000F0546BFF656AE636803F10043636094
:10A4F000E36803F10043E36008E7D046DCE700BF10
:10A500000000704120CA0008544B2DE9F0418B43F4
:10A5100006460D460A460C460FD102460B46F5F795
:10A52000DBFF02460B4630462946F5F71FFE06467E
:10A530000D4630462946BDE8F0810029074603460E
:10A540000EDC21F0004C5CEA0707F2D041B1024674
:10A550000B46F5F709FE02460B46F6F7E7F8E6E785
:10A56000121574D0A2F2FF32D5074FF00005C4F3E4
:10A57000130448BFD90F44F4801444BF5B0001EBBF
:10A5800044045110DA0F02EB4404284616224FF41B
:10A5900000165B008719A742DEBFB819E41BAD198E
:10A5A000DF0F013A07EB44044FEA43034FEA560634
:10A5B000F0D14FF0200C96464FF00046844206EB57
:10A5C0000E0702DC12D19F4210D8002F07EB060EB7
:10A5D00042DABEF1000F3FDB00F10108241A4046C9
:10A5E0009F4288BF04F1FF34DB1B32446400BCF19E
:10A5F000010C04EBD3744FEA56064FEA4303DDD156
:10A60000234306D0541C0BBF62460132013522F0B1
:10A6100001026B105208E80703F17F5303F50013A2
:10A6200048BF42F0004203EB0155164681E7DC0AC1
:10A6300015395B05002CFAD0E6020AD5C2F12000DC
:10A6400023FA00F0551E934004434A1B8AE7114643
:10A65000F0E764000132EFE78046BFE70000F07FDB
:10A660002DE9F74F21F00046B6F1795F80460F469D
:10A67000CDE9002304DAF6F7DFF9002800F0868040
:10A6800042463B4640463946F5F726FF00224E4BF0
:10A6900004460D46F5F720FF3FA3D3E90023824689
:10A6A0008B4620462946F5F717FF3DA3D3E9002343
:10A6B000F5F75CFD22462B46F5F70EFF3AA3D3E9EA
:10A6C0000023F5F751FD22462B46F5F705FF38A389
:10A6D000D3E90023F5F74AFD22462B46F5F7FCFEA9
:10A6E00035A3D3E90023F5F73FFD22462B46F5F7C6
:10A6F000F3FE33A3D3E90023F5F738FD22462B46BA
:10A70000F5F7EAFE22462B46F5F7E6FEDDE90023E3
:10A7100004460D4640463946F5F7DEFE0B46024636
:10A7200029462046F5F720FD284B80469E42894663
:10A730000EDC02460B4650465946F5F715FD02461B
:10A7400000200B462249F5F70FFD03B0BDE8F08F5E
:10A750000024204B22469E42CCBF1F4DA6F500157B
:10A760002B4600201A49F5F7FFFC224606460F4605
:10A770002B4650465946F5F7F7FC42464B46F5F74F
:10A78000F3FC02460B4630463946DCE70020104910
:10A79000DBE700BFAFF30080D43888BEE9FAA8BD7C
:10A7A000C4B1B4BD9EEE213EAD529C804F7E923E20
:10A7B0009015CB19A001FA3E7751C1166CC1563FD6
:10A7C0004C5555555555A53F0000E03F3233D33F1A
:10A7D0000000F03F0000E93F0000D23F2DE9F04FBC
:10A7E000ADF5197D07930491BF4BA299D41E53F880
:10A7F000213000250293079B0890013B0693182304
:10A8000094FBF3F46FF0170324EAE47404FB0333BE
:10A8100003EB020A069A029BA71A03EB0208A39B0A
:10A82000002203EB870900231EAE454514DD0026F8
:10A830000DF5DC7B029B9E4239DC089B4FF0000843
:10A84000083B0093079B4FF000099D1920AB03EBD9
:10A85000C5030593002723E0EF420BD459F82500E8
:10A86000CDE90023F5F7CEFDDDE90023E6E902019D
:10A870000135DAE710461946F8E70599009D71E9B8
:10A8800002230591F5E902010095F5F725FE024640
:10A890000B4640464946F5F769FC80468946013734
:10A8A000069B9F42E9DDEBE902890136C2E7029B84
:10A8B0000CAA02EB83030B93A39B029F03EB84037D
:10A8C0000A93002698AB07F1005B03EBC7030BF17B
:10A8D000FF3B53E928894FEACB0B98AB5B44A3F1CC
:10A8E0009804BB1B002B71DC52464046494600F0E1
:10A8F00097FC00224FF07F5304460D46F5F7ECFD20
:10A9000000F076FB0022794BF5F7E6FD02460B4698
:10A9100020462946F5F728FC0D460446F6F78CF844
:10A920000590F5F76FFD02460B4620462946F5F7E0
:10A930001BFCBAF1000F804689466CDD7A1E0CAB19
:10A9400053F82200CAF11801059C40FA01F31C4497
:10A950008B40C01A0CAB43F82200CAF117030594D0
:10A9600040FA03F30093009B002B62DD00226FF09E
:10A970007F411446059B01330593974200F39F8066
:10A98000BAF1000F07DDBAF1010F00F0BB80BAF198
:10A99000020F00F0C180009B022B4AD142464B4679
:10A9A00000205349F5F7E0FB80468946002C40D053
:10A9B000524600204E4900F033FC02460B4640460A
:10A9C0004946F5F7D1FB8046894632E00022494BE3
:10A9D00040464946F5F780FDF6F72EF8F5F712FDEB
:10A9E0000022454BCDE90001F5F776FD02460B4606
:10A9F00040464946F5F7B8FBF6F71EF80CAB43F8AE
:10AA0000260074E90223DDE90001F5F7AFFB01360A
:10AA10008046894665E705D17B1E0CAA52F82300C3
:10AA2000C3159FE70022354BF5F7DCFF002843D123
:10AA300000900022002340464946F5F7B5FF002864
:10AA400000F0C3807C1E2346002202998B426ADA02
:10AA5000002A00F084800CAB53F82430AAF1180AC5
:10AA6000002B00F0B08052460020214900F0D8FBB6
:10AA7000254606460F464FF0000AE30098AA02EB6F
:10AA80000308DFF870B00693A8F19808002D80F253
:10AA9000D2800025069A98AB9E18A83E631B002B17
:10AAA000C0F2F980DFF85890A6EBC5084FF0000A15
:10AAB0004FF0000B0027E2E00223009356E70CABB7
:10AAC00053F822304CB92BB1C3F180730CA840F875
:10AAD0002230012301321C464FE7CB1A0CA840F864
:10AAE00022302346F6E700BF68CB00080000204074
:10AAF0000000F03F0000703E000070410000E03FA9
:10AB000020CB00087A1E0CAB53F82230C3F3160397
:10AB10000CA941F822303EE77A1E0CAB53F82230E4
:10AB2000C3F31503F4E70CA951F82310013B0A43C2
:10AB30008BE7013453F8042D002AFAD098AB9B44DC
:10AB4000079B7E1CDD1998AB03EBC505ABF1980B99
:10AB5000A5F5F4753C44B44204DA2746B1E60B9BF4
:10AB60000124E7E705F1080309930A9B002753F83E
:10AB70002600F5F747FC4FF000084FF00009089B4E
:10AB8000C5E90201083B009305F110030593069BFC
:10AB90009F4204DDEBE902890136099DDBE7059957
:10ABA000009D71E902230591F5E902010095F5F791
:10ABB00093FC02460B4640464946F5F7D7FA013763
:10ABC00080468946E3E7013C45E7CAF1000240467A
:10ABD000494600F025FB0022A34B04460D46F5F73D
:10ABE00001FFF8B10022A14B20462946F5F774FC7D
:10ABF000F5F722FF0646F5F705FC00229A4BF5F71C
:10AC00006BFC0B46024629462046F5F7ADFAF5F7F0
:10AC100013FF7C1C0CAB43F827000AF1180A43F819
:10AC2000246020E720462946F5F706FF0CAB43F8E1
:10AC300027003C4617E70CAB53F82500F5F7E2FB7D
:10AC400032463B46F5F748FC524668E902015B464E
:10AC500030463946F5F740FC013D06460F4615E7FC
:10AC6000F8E90223F9E90201F5F736FC02460B4642
:10AC700050465946F5F77AFA82468B460137029BD1
:10AC80009F4201DCBD42EBDA48AB03EBC503C3E9ED
:10AC900000AB013502E7A29B032B6CD8DFE803F081
:10ACA000592F2F02069A48AB9D18AA46A346BBF11E
:10ACB000000F00F38780A246BAF1010F00F39F80D6
:10ACC00000273E46069D48AB08351D44012C00F385
:10ACD000B380009B489D49984A9C4B99002B40F0BB
:10ACE000B58003462A460498C0E9002322460B4655
:10ACF000C0E902233A463346C0E904233BE04FF063
:10AD0000000C26466746069D48AB08351D44002EBC
:10AD100042DA009B002B49D007F1004162460B4606
:10AD200004990126C1E9002348A93B46D1E9000165
:10AD3000F5F71AFA84460F4648ADB44238DA009B5C
:10AD40000BB107F1004762463B460499C1E9022373
:10AD500011E000273D46069B98AA1344A3F59C7674
:10AD6000002C0FDA009B0BB105F100453A462B464B
:10AD70000499C1E90023059B03F007000DF5197D37
:10AD8000BDE8F08F384676E902232946F5F7EEF95B
:10AD9000013C07460D46E3E7604675E90223394664
:10ADA000F5F7E4F9013E84460F46B0E73946B5E7CA
:10ADB0006046F5E902233946F5F7D8F901368446AD
:10ADC0000F46BAE77AE90289DAE9022340464946A2
:10ADD000CDE90223F5F7CAF902460B4606460F46AF
:10ADE00040464946F5F7C0F9DDE90223F5F7BEF91B
:10ADF0000BF1FF3BCAE90201CAE9006757E775E9B1
:10AE00000267D5E9022330463946CDE90223F5F73A
:10AE1000ADF902460B468046894630463946F5F77D
:10AE2000A3F9DDE90223F5F7A1F90AF1FF3AC5E933
:10AE30000201C5E900893FE7384675E9022331463A
:10AE4000F5F794F9013C07460E463FE7049B00F1F5
:10AE5000004001F1004106F100461D60C3E9010414
:10AE6000C3E903175E6186E7000070410000703E91
:10AE70002DE9F04786B0CDE9002321F00043B3F17E
:10AE8000795F82460C460E9D03DAF5F7D5FD002862
:10AE900050D05246234650462146F5F71DFB064644
:10AEA0000F4602460B4650462146F5F715FB3EA3DA
:10AEB000D3E900238046894630463946F5F70CFB36
:10AEC0003BA3D3E90023F5F74FF932463B46F5F7AC
:10AED00003FB39A3D3E90023F5F748F932463B4693
:10AEE000F5F7FAFA36A3D3E90023F5F73DF9324630
:10AEF0003B46F5F7F1FA34A3D3E90023F5F736F929
:10AF0000CDE90201DDB902460B4630463946F5F778
:10AF1000E3FA2FA3D3E90023F5F726F942464B467F
:10AF2000F5F7DAFA02460B4650462146F5F71EF9C8
:10AF300082460C465046214606B0BDE8F087002206
:10AF4000DDE90001244BF5F7C7FADDE90223CDE97D
:10AF5000040140464946F5F7BFFA02460B46DDE9D3
:10AF60000401F5F701F932463B46F5F7B5FADDE99C
:10AF70000023F5F7F9F816A3D3E9002306460F4698
:10AF800040464946F5F7A8FA02460B463046394690
:10AF9000F5F7ECF802460B4650462146F5F7E4F883
:10AFA000C6E700BFAFF300807CD5CF5A3AD9E53D64
:10AFB000EB9C2B8AE6E55A3E7DFEB157E31DC73E6A
:10AFC000D561C119A0012A3FA6F810111111813FC6
:10AFD000495555555555C53F0000E03F21F0004308
:10AFE0001946704741F0004101F58010C00F7047CD
:10AFF0002DE9F843C1F30A58A8F2FF36132E07468D
:10B000000B460C46054635DC002E16DA36A3D3E98E
:10B010000023F5F7ABF800220023F5F7EDFC48B16B
:10B02000002C5BDA002524F00043314A3B43AB425D
:10B0300018BF144623462F4626E02E4A42FA06F849
:10B0400001EA080202431FD027A3D3E90023F5F742
:10B050008DF800220023F5F7CFFC0028EAD0002C61
:10B06000BEBF4FF4801343FA06F6A41924EA08047D
:10B070000025DFE7332E0BDDB6F5806F04D10246E5
:10B08000F5F774F807460B4638461946BDE8F883CD
:10B090004FF0FF32A8F2134822FA08F818EA000F1E
:10B0A000F2D011A3D3E90023F5F760F800220023C2
:10B0B000F5F7A2FC0028BDD0002C02DA142E03D133
:10B0C000013425EA0805B5E70123C6F1340603FA81
:10B0D00006F63544BD4238BFE418F2E700252C4699
:10B0E000A8E700BFAFF300809C7500883CE4377E82
:10B0F0000000F0BFFFFF0F00002070470020014953
:10B10000704700BF0000F87FF7B5C1F30A52A2F202
:10B11000FF3CBCF1130F04460D460B4606464FEAB2
:10B12000D1775ADCBCF1000F2BDA21F00042024348
:10B1300023D0C1F313020243564216434B0C360B85
:10B1400034495B0406F4002646EA030501EBC70117
:10B1500002462B46D1E9004520462946F5F706F878
:10B16000CDE90001DDE900012B462246F4F7FCFFA2
:10B17000044621F0004343EAC7752046294603B040
:10B18000F0BD254A42FA0CF211400143F5D05208B5
:10B1900005EA020150EA01060CD04FF48023BCF10D
:10B1A000130F0CBF4FF00046002625EA020243FAB7
:10B1B0000CF313431749324601EBC707D7E90045A3
:10B1C00020462946F4F7D2FFCDE90001DDE9000170
:10B1D00022462B46F4F7C8FF08E0BCF1330F08DD28
:10B1E000BCF5806FC9D10246F4F7C0FF04460D4696
:10B1F000C3E7A2F213414FF0FF32CA401042BCD065
:10B20000520810421FBF4FF0804620EA02020E4152
:10B210001643CFE778CB0008FFFF0F0000000000C7
:10B22000F8B51646C1F30A5204460D460B4682B9DC
:10B2300021F00043034334D02D4B0022F5F74CF9A5
:10B240002C4B04469E420D460DDA25A3D3E900237C
:10B250001CE040F2FF77BA4209D10246F4F786FFBC
:10B2600004460D461DE00B46C1F30A52363A40F241
:10B27000FE7132448A420CDD22462B461AA1D1E9E6
:10B28000000100F03BF818A3D3E90023F5F724F9F7
:10B29000E6E7002A08DD23F0FF4323F4E00343EA56
:10B2A000025520462946F8BD12F1350F0BDA4CF253
:10B2B00050339E4222462B46E0DC09A1D1E9000131
:10B2C00000F01CF8C1E723F0FF43363223F4E0031B
:10B2D00043EA0255204629460022074BD6E700BF25
:10B2E00059F3F8C21F6EA5019C7500883CE4377EB7
:10B2F00000005043B03CFFFF0000903C30B521F00F
:10B30000004203F0004342EA0305294630BD000035
:10B31000F8B500BFF8BC08BC9E467047F8B500BF42
:08B32000F8BC08BC9E46704712
:10B3280002030405060708090A0B0C0D0E0F10107E
:10B33800010200004D41585F4252494748544E00AF
:10B348004348315F524544004348315F47524545C1
:10B358004E0000004348315F424C55450000000054
:10B368004348325F524544004348325F475245459F
:10B378004E0000004348325F424C55450000000033
:10B388004348335F524544004348335F475245457D
:10B398004E0000004348335F424C55450000000012
:10B3A8004348335F574849544500000046585F53A7
:10B3B800454C4543540000005354524950315F50A6
:10B3C80041545445524E00005354524950315F5332
:10B3D80050454544000000005354524950315F53D2
:10B3E800495A45005354524950315F434F4D504CD0
:10B3F800455800005354524950315F5631000000FF
:10B408005354524950315F56320000005354524948
:10B4180050315F56330000005354524950325F5048
:10B4280041545445524E00005354524950325F53D0
:10B4380050454544000000005354524950325F5370
:10B44800495A45005354524950325F434F4D504C6E
:10B45800455800005354524950325F56310000009D
:10B468005354524950325F563200000053545249E7
:10B4780050325F56330000000000004E554C4C001F
:10B4880000000000000000000000000046582053A3
:10B49800706163652066756C6C00000049443A254C
:10B4A80064092046583A202573000000436F6D70E8
:10B4B8006C657465642046582049443A25642046E2
:10B4C800583A202573200000537461727465642013
:10B4D80046582049443A25642046583A2025732086
:10B4E8000000000046582049443A25642046583A4E
:10B4F800202573206661696C656420746F207374FD
:10B5080061727400200000002D2D2D2D2D2D2D2D64
:10B518002D2D2D2D2D000000444D585F4354524CC5
:10B52800000000002573205625642E2564000000C5
:10B53800444D5835313220436F6E66696720636F1A
:10B548006D706C65746500005553422048617264E3
:10B558002044697361626C65640000005368656C1F
:10B568006C2052696E672042756666657220496E66
:10B578006974204641494C45440000005368656C95
:10B588006C2052696E672042756666657220496E46
:10B59800697420436F6D706C6574650053657269DA
:10B5A800616C20444D582052696E6720427566666A
:10B5B800657220496E6974204641494C4544000033
:10B5C80053657269616C20444D582052696E67203A
:10B5D80042756666657220496E697420436F6D70A6
:10B5E8006C65746500000000444D583531322049BF
:10B5F8006E697420636F6D706C657465000000007F
:10B6080054696D657220496E697420636F6D706C42
:10B618006574650044656661756C7420536574745F
:10B62800696E677320496E697469616C697A6564CB
:10B63800000000004C6F6164696E67205365747484
:10B64800696E67732E2E2E0044656661756C74737F
:10B65800206372656174656400000000536574744A
:10B66800696E67206C6F616465640000446566619B
:10B67800756C747320726573746F72656400000072
:10B6880053657474696E677320636F6D706C65744D
:10B6980065000000465820496E7374616C6C6174D3
:10B6A800696F6E2053746172740000004658204917
:10B6B8006E7374616C6C6174696F6E2046696E6933
:10B6C80073686564000000005753323831324220F5
:10B6D80043483120496E697420636F6D706C6574DE
:10B6E8006500000057533238313242204348312038
:10B6F800496E6974204641494C45440057533238D5
:10B708003132422043483220496E697420636F6D9C
:10B71800706C65746500000057533238313242202E
:10B7280043483220496E6974204641494C454400DB
:10B73800444D58204D6F646520322041637469760A
:10B7480065000000444D58204D6F6465203120414C
:10B75800637469766500000050574D205570646128
:10B76800746520496E697420636F6D706C657465CB
:10B77800000000005472696767657220496E697439
:10B7880020636F6D706C6574650000005368656CAC
:10B798006C20416374697665000000004442473EAE
:10B7A8000000000054696D657220496E6974204577
:10B7B80072726F722031000054696D657220496E93
:10B7C8006974204572726F722032000054696D6589
:10B7D8007220496E6974204572726F7220330000BE
:10B7E80054696D657220496E6974204572726F7272
:10B7F8002034000054696D657220496E69742045D3
:10B8080072726F722035000004000000080000000A
:10B818000C000000FF000000000000000400000011
:10B82800080000000C0000000000000004000000F8
:10B8380008000000FF000000454550524F4D2052BF
:10B84800656164204661696C656400004E6F204341
:10B858006F6E6669672049440A00000057726F6E70
:10B8680067204669726D77617265205665727369E3
:10B878006F6E0A0044656661756C747300000000A1
:10B888004D41585F4252494748544E3A202564007A
:10B898004348315F5245443A202564004348315FAC
:10B8A800475245454E3A2025640000004348315F21
:10B8B800424C55453A202564000000004348325F59
:10B8C8005245443A202564004348325F4752454573
:10B8D8004E3A2025640000004348325F424C5545EB
:10B8E8003A202564000000004348335F5245443A3B
:10B8F800202564004348335F475245454E3A20258A
:10B90800640000004348335F424C55453A202564A3
:10B91800000000004348335F57484954453A202502
:10B928006400000046585F53454C4543543A20256F
:10B93800640000005354524950315F5041545445FB
:10B94800524E3A20256400005354524950315F53F7
:10B95800504545443A20256400000000535452499C
:10B9680050315F53495A453A20256400535452498F
:10B9780050315F434F4D504C45583A2025640000E4
:10B988005354524950315F56313A20256400000023
:10B998005354524950315F56323A20256400000012
:10B9A8005354524950315F56333A20256400000001
:10B9B8005354524950325F5041545445524E3A20E4
:10B9C800256400005354524950325F535045454452
:10B9D8003A202564000000005354524950325F5306
:10B9E800495A453A202564005354524950325F431E
:10B9F8004F4D504C45583A20256400005354524945
:10BA080050325F56313A20256400000053545249A1
:10BA180050325F56323A2025640000005354524990
:10BA280050325F56333A2025640000005365747421
:10BA3800696E6773000000004658204D756C746984
:10BA4800706C6965723A202564000000537472694D
:10BA5800702031204C656E6774683A2025640000B8
:10BA680053747269702032204C656E6774683A208E
:10BA78002564000055415254204D6F64652053657C
:10BA88007269616C3A2025640000000055415254E7
:10BA9800204D6F6465205553423A2025640000000C
:10BAA8005472696767657273000000002D2D2D2D93
:10BAB8002D2D2D2D000000005472696767657220D6
:10BAC8004130204D6F646500547269676765722064
:10BAD8004130205265673A20256400005472696736
:10BAE80067657220413020526567204C6F772D3E84
:10BAF80048693A20256400005472696767657220B6
:10BB080041302056616C204C6F772D3E48693A20B1
:10BB180025640000547269676765722041302052BD
:10BB280065672048692D3E4C6F773A2025640000F0
:10BB3800547269676765722041302056616C2048ED
:10BB4800692D4C6F773A20256400000054726967AC
:10BB5800676572204130204C6576656C3A20256413
:10BB68000000000054726967676572204131204DFA
:10BB78006F646500547269676765722041312052AD
:10BB880065673A202564000054726967676572200A
:10BB9800413120526567204C6F772D3E48693A2025
:10BBA8002564000054726967676572204131205628
:10BBB800616C204C6F772D3E48693A20256400005F
:10BBC8005472696767657220413120526567204861
:10BBD800692D3E4C6F773A202564000054726967DE
:10BBE8006765722041312056616C2048692D4C6F81
:10BBF800773A2025640000005472696767657220EF
:10BC08004131204C6576656C3A20256400000000BF
:10BC180043616C6962726174696F6E004F66667326
:10BC28006574205265643A20256400004761696E96
:10BC3800205265643A2025640000000047616D6D5C
:10BC480061205265643A2025640000004F666673DF
:10BC5800657420477265656E3A202564000000000F
:10BC68004761696E20477265656E3A202564000059
:10BC780047616D6D6120477265656E3A20256400E5
:10BC88004F666673657420426C75653A20256400BA
:10BC98004761696E20426C75653A20256400000092
:10BCA80047616D6D6120426C75653A20256400001E
:10BCB800454550524F4D2057726974652046616959
:10BCC8006C6564000D0A000068656C700000000077
:10BCD800636C73003F3F3F000A25730016000000A5
:10BCE80043757272656E74204650533A20252E3281
:10BCF80066000000444D5835313220426C6F636B4A
:10BD08006C656E6774683A20256400004D6F646541
:10BD18003A202564000000002D2D2D2D2D2D2D2DD0
:10BD28002D2D2D2D2D2D2D2D2D2D2D2D2D2D2D2D3B
:10BD38002D2D2D005265673A202564092041646441
:10BD4800723A256420200920282573290920566184
:10BD58006C3A202564000000444D583531322041AA
:10BD68006464726573733A20256400004D6F6465DE
:10BD78002031202850574D29000000004D6F646580
:10BD88002032202850574D202B2053747269702977
:10BD980000000000E8BE0008F0BE0008917200082C
:10BDA80000BF000808BF0008D574000814BF0008C9
:10BDB8001CBF0008B573000828BF000834BF00087E
:10BDC800ED74000840BF000850BF0008CB7400089D
:10BDD80060BF000868BF00089B7400089CBF00088B
:10BDE800ACBF000803740008C8BF0008D8BF00082B
:10BDF80091740008E8BF0008F0BF0008DD71000872
:10BE080020C000082CC000089171000860C000081C
:10BE18006CC0000821740008B0C00008B8C0000851
:10BE2800DD730008D0C00008E0C00008597200089F
:10BE380004C1000818C100082571000884C1000861
:10BE480094C10008A570000804C2000818C20008C0
:10BE5800B97200082CC2000834C20008AD7200088C
:10BE680040C2000850C200086570000880C200087F
:10BE78008CC2000821700008CCC20008DCC200088F
:10BE8800E96F000804C3000810C3000829720008FD
:10BE980020C300082CC30008CD6F0008496E7661E6
:10BEA8006C6964204D756C7469706C69657200000A
:10BEB80047616D6D61205461626C652043726561F4
:10BEC80074696F6E204661696C6564004C6F6F70B1
:10BED8006261636B20446174613A2025730000003D
:10BEE800746573740000000074657374205B6D736F
:10BEF800675D0A0D00000000676574616464720084
:10BF0800676574616464720A0D0000006765746D8A
:10BF18006F6465006765746D6F64650A0D000000E5
:10BF280064756D70726567730000000064756D70EC
:10BF3800726567730A0D000064756D7073657474BB
:10BF4800696E67730000000064756D7073657474C2
:10BF5800696E67730A0D000073657470776D000071
:10BF680073657470776D205B69642028302E2E32DB
:10BF7800295D205B63682028302E2E33295D205BE5
:10BF8800647574792028302E2E3635353335295D81
:10BF98000A0D00007365746272696768746E657370
:10BFA800730000007365746272696768746E657304
:10BFB80073205B302E2E3235355D0A0D00000000EF
:10BFC8007361766573657474696E67730000000049
:10BFD8007361766573657474696E67730A0D000022
:10BFE8007365746761696E007365746761696E2053
:10BFF8005B63682028302E2E32295D205B676169DB
:10C008006E20282D33323736362E2E2E33323736E1
:10C0180036295D0A0D0000007365746F66667365E6
:10C02800740000007365746F6666736574205B63E3
:10C03800682028302E2E32295D205B6F6666736576
:10C048007420282D33323736362E2E2E333237369B
:10C0580036295D0A0D00000073657467616D6D61B6
:10C068000000000073657467616D6D61205B636833
:10C078002028303D522C20313D472C20323D422C87
:10C08800333D5354524950295D205B67616D6D61A2
:10C0980020282D33323736362E2E2E333237363689
:10C0A800295D0A0D00000000736574726567000061
:10C0B800736574726567205B7265675D205B766186
:10C0C8006C5D0A0D0000000073657466786D756C10
:10C0D8007469706C6965720073657466786D756CE7
:10C0E8007469706C69657220205B76616C202831F8
:10C0F8002C322C34295D0A0D00000000736574741D
:10C10800726967676572636F6E6669670000000031
:10C1180073657474726967676572636F6E66696761
:10C1280020205B7472696767657220307C315D20FE
:10C138005B6D6F646528303D4E6F6E652C20313D18
:10C148006D617070696E672C20323D737769746316
:10C1580068295D205B726567697374657220283091
:10C168002E2E32355D205B6C6576656C2028302E6E
:10C178002E323535295D0A0D000000007365747490
:10C188007269676765726374726C000073657474B2
:10C198007269676765726374726C20205B74726978
:10C1A8006767657220307C315D205B526567204887
:10C1B800694C6F2028302E2E3235295D205B566160
:10C1C8006C2048694C6F2028302E2E323535295D79
:10C1D800205B526567204C6F48692028302E2E322C
:10C1E80035295D205B56616C204C6F4869202830EA
:10C1F8002E2E323535295D0A0D00000073746F72DA
:10C208006564656661756C7472656773000000002B
:10C2180073746F726564656661756C747265677353
:10C228000A0D000064756D706164630064756D705B
:10C238006164630A0D000000736574737472697039
:10C248006C656E67746800007365747374726970E6
:10C258006C656E677468205B63682028307C3129C0
:10C268005D205B6C656E6774682028302E2E313037
:10C278003234295D0A0D0000736574756172746D3E
:10C288006F646500736574756172746D6F646520A1
:10C298005B30203D2053657269616C2C2031203D54
:10C2A800205553425D205B30203D205368656C6CFF
:10C2B8002C2031203D2053657269616C20444D5813
:10C2C8005D0A0D00737769746368756172746D6FC8
:10C2D80064650000737769746368756172746D6F63
:10C2E8006465205B30203D2053657269616C2C20A9
:10C2F80031203D205553425D0A0D0000637572726E
:10C30800656E74667073000063757272656E74662C
:10C3180070730A0D000000007461726765746670BE
:10C3280073000000746172676574667073205B54F3
:10C338006172676574204672616D6520447572612B
:10C3480074696F6E20696E204D696C6C69736563E2
:10C358005D0A0D0000000000000000000102030457
:10C3680006070809000000000102030441444320B5
:10C37800256400004144432056414C3A202564007E
:10C38800414443204C4153542056414C3A202564A3
:10C398000000000041444320425546434E543A2091
:10C3A80025640000080000001B5B324B1B5B4B0040
:10C3B8001B5B324A1B5B42001B5B44001B5B430058
:10C3C8001B5B41007F0000001B5B48001B5B0144B6
:10C3D8000900000002000000C8C3000803000000B4
:10C3E80003000000BCC300080300000004000000B4
:10C3F800C0C300080300000005000000C4C3000813
:10C408000300000006000000D8C300080100000077
:10C4180007000000ACC3000801000000090000008C
:10C42800CCC30008010000000A000000B4C30008E3
:10C43800030000000B000000B0C300080400000067
:10C448000C000000D4C30008040000000D00000028
:10C45800B8C30008040000000E000000D0C30008A4
:10C4680003000000000000000000000000000000C1
:10C4780000000000000000000000000000000000B4
:10C4880000000000000000000000005050554C5310
:10C498004500000000000000117D00080001005068
:10C4A80050554C534553000000000000117D000812
:10C4B8000000005052554E0000000000000000002F
:10C4C800097E00080001005052554E53000000003C
:10C4D8000A000000097E00080100005343594C4F30
:10C4E8004E00000000000000117F0008010000530A
:10C4F8005241494E424F5700000000006D8000082D
:10C508000100005352554E000000000000000000DA
:10C51800698100080C0D0E0F10111213141516174F
:10C5280018190000924924924926924934924936B2
:10C538009249A49249A69249B49249B6924D24923E
:10C548004D26924D34924D36924DA4924DA6924D61
:10C55800B4924DB6926924926926926934926936EA
:10C568009269A49269A69269B49269B6926D24926E
:10C578006D26926D34926D36926DA4926DA6926D71
:10C58800B4926DB693492493492693493493493616
:10C598009349A49349A69349B49349B6934D2493D8
:10C5A8004D26934D34934D36934DA4934DA6934DFC
:10C5B800B4934DB693692493692693693493693685
:10C5C8009369A49369A69369B49369B6936D249308
:10C5D8006D26936D34936D36936DA4936DA6936D0C
:10C5E800B4936DB69A49249A49269A49349A493699
:10C5F8009A49A49A49A69A49B49A49B69A4D249A4E
:10C608004D269A4D349A4D369A4DA49A4DA69A4D78
:10C61800B49A4DB69A69249A69269A69349A693601
:10C628009A69A49A69A69A69B49A69B69A6D249A7D
:10C638006D269A6D349A6D369A6DA49A6DA69A6D88
:10C64800B49A6DB69B49249B49269B49349B49362D
:10C658009B49A49B49A69B49B49B49B69B4D249BE7
:10C668004D269B4D349B4D369B4DA49B4DA69B4D13
:10C67800B49B4DB69B69249B69269B69349B69369C
:10C688009B69A49B69A69B69B49B69B69B6D249B17
:10C698006D269B6D349B6D369B6DA49B6DA69B6D23
:10C6A800B49B6DB6D24924D24926D24934D24936F0
:10C6B800D249A4D249A6D249B4D249B6D24D24D23D
:10C6C8004D26D24D34D24D36D24DA4D24DA6D24DA0
:10C6D800B4D24DB6D26924D26926D26934D2693629
:10C6E800D269A4D269A6D269B4D269B6D26D24D26D
:10C6F8006D26D26D34D26D36D26DA4D26DA6D26DB0
:10C70800B4D26DB6D34924D34926D34934D3493654
:10C71800D349A4D349A6D349B4D349B6D34D24D3D6
:10C728004D26D34D34D34D36D34DA4D34DA6D34D3A
:10C73800B4D34DB6D36924D36926D36934D36936C3
:10C74800D369A4D369A6D369B4D369B6D36D24D306
:10C758006D26D36D34D36D36D36DA4D36DA6D36D4A
:10C76800B4D36DB6DA4924DA4926DA4934DA4936D7
:10C77800DA49A4DA49A6DA49B4DA49B6DA4D24DA4C
:10C788004D26DA4D34DA4D36DA4DA4DA4DA6DA4DB7
:10C79800B4DA4DB6DA6924DA6926DA6934DA693640
:10C7A800DA69A4DA69A6DA69B4DA69B6DA6D24DA7C
:10C7B8006D26DA6D34DA6D36DA6DA4DA6DA6DA6DC7
:10C7C800B4DA6DB6DB4924DB4926DB4934DB49366C
:10C7D800DB49A4DB49A6DB49B4DB49B6DB4D24DBE6
:10C7E8004D26DB4D34DB4D36DB4DA4DB4DA6DB4D52
:10C7F800B4DB4DB6DB6924DB6926DB6934DB6936DB
:10C80800DB69A4DB69A6DB69B4DB69B6DB6D24DB15
:10C818006D26DB6D34DB6D36DB6DA4DB6DA6DB6D61
:10C82800B4DB6DB64300504F534958002E00232DFA
:10C83800302B2000686C4C00656667454647003021
:10C84800313233343536373839414243444546006E
:10C85800303132333435363738396162636465666E
:10C8680000002020202020202020202828282828D8
:10C8780020202020202020202020202020202020B0
:10C888002020881010101010101010101010101008
:10C898001010040404040404040404041010101008
:10C8A80010101041414141414101010101010101C3
:10C8B8000101010101010101010101010110101033
:10C8C8001010104242424242420202020202020296
:10C8D8000202020202020202020202020210101006
:10C8E8001020000000000000000000000000000010
:10C8F8000000000000000000000000000000000030
:10C90800000000000000000000000000000000001F
:10C91800000000000000000000000000000000000F
:10C9280000000000000000000000000000000000FF
:10C9380000000000000000000000000000000000EF
:10C9480000000000000000000000000000000000DF
:10C9580000000000000000000000000000000000CF
:10C968000000706F77000000000000000000F03F3A
:10C97800000000000000F83F000000000000000078
:10C988000000004003B8E23F000000000000000083
:10C9980006D0CF43EBFD4C3EFB21F93FFB2109407C
:10C9A8007CD91240FB2119407A6A1F407CD9224069
:10C9B800BBFD2540FB2129403A462C407A6A2F408E
:10C9C8005C4731407CD932409C6B3440BBFD3540DC
:10C9D800DB8F3740FB2139401BB43A403A463C4094
:10C9E8005AD83D407A6A3F404C7E40405C474140BF
:10C9F8006C1042407CD942408CA243409C6B44401E
:10CA0800AC344540BBFD4540CBC64640DB8F474074
:10CA1800EB584840FB21494083F9A200444E6E0080
:10CA2800FC291500D1572700DD34F50062DBC00072
:10CA38003C999500419043006351FE00BBDEAB007A
:10CA4800B761C5003A6E2400D24D42004906E000A5
:10CA580009EA2E001C92D100EB1DFE0029B11C0032
:10CA6800E83EA700F535820044BB2E009CE984000F
:10CA7800B4267000417E5F00D69139005383390097
:10CA88009CF439008B5F840028F9BD00F81F3B0037
:10CA9800DEFF97000F980500112FEF000A5A8B0050
:10CAA8006D1F6D00CF7E360009CB2700464FB700BB
:10CAB8009E663F002DEA5F00BA277500E5EBC700C8
:10CAC8003D7BF100F739070092528A00FB6BEA00C0
:10CAD8001FB15F00085D8D00300356007BFC4600E7
:10CAE800F0AB6B0020BCCF0036F49A00E3A91D0020
:10CAF8005E619100081BE60085996500A0145F003F
:10CB08008D40680080D8FF0027734D00060631006D
:10CB1800CA561500C9A873007BE260006B8CC00080
:10CB280000000040FB21F93F000000002D44743E46
:10CB3800000000809846F83C0000006051CC783B2B
:10CB480000000080831BF0390000004020257A385F
:10CB5800000000802282E336000000001DF36935E2
:10CB680002000000030000000400000006000000AE
:10CB7800000000000000304300000000000030C347
:04CB8800350100086B
:04CB8C00110100088B
:10CB900001000000100000003CB3000848B300088A
:10CBA00050B300085CB3000868B3000870B3000815
:10CBB0007CB3000888B3000890B300089CB3000859
:10CBC000A8B30008B4B30008C0B30008D0B300088D
:10CBD000E0B30008ECB30008FCB3000808B4000898
:10CBE00014B4000820B4000830B4000840B40008B1
:10CBF0004CB400085CB4000868B4000874B40008C1
:10CC0000010000000024F400010000000000000109
:10CC100000020100010101020200020102020203FE
:10CC20009008002098000020000000000000000094
:10CC300000000000000000000000000000000000F4
:10CC400000000000000000000000000000000000E4
:10CC500000000000000000000000000000000000D4
:10CC600000000000000000000000000000000000C4
:10CC700000000000000000000000000000000000B4
:10CC80000000000000000000430000000000000061
:10CC90000000000000000000000000000000000094
:10CCA0000000000000000000430000000000000041
:10CCB0000000000000000000000000000000000074
:10CCC0000000000000000000430000000000000021
:10CCD0000000000000000000000000000000000054
:10CCE0000000000000000000430000000000000001
:10CCF0000000000000000000000000000000000034
:10CD000000000000000000004300000000000000E0
:10CD10000000000000000000000000000000000013
:10CD200000000000000000004300000000000000C0
:10CD300000000000000000000000000000000000F3
:10CD400000000000000000004300000000000000A0
:10CD500000000000000000000000000000000000D3
:10CD6000000000000000000095920008B78C000849
:10CD70000000000069C8000834C800083BC800086B
:10CD80003BC800083BC800083BC800083BC8000877
:10CD90003BC800083BC800083BC800083BC8000867
:10CDA000FFFFFFFFFFFFFFFFFFFFFFFFFFFF000091
:10CDB0000100415343494900000000000000000009
:10CDC0000000000000000000000000000000000063
:10CDD00000004153434949000000000000000000EA
:10CDE0000000000000000000000000000000000043
:08CDF00000000000010000003A
:0400000508008799CF
:00000001FF
