Archive member included to satisfy reference by file (symbol)

c:/st/stm32cubeide_1.3.0/stm32cubeide/plugins/com.st.stm32cube.ide.mcu.externaltools.gnu-tools-for-stm32.7-2018-q2-update.win32_1.0.0.201904181610/tools/bin/../lib/gcc/arm-none-eabi/7.3.1/../../../../arm-none-eabi/lib/thumb/v7-m\libc_nano.a(lib_a-atoi.o)
                              Src/shell_cmd.o (atoi)
c:/st/stm32cubeide_1.3.0/stm32cubeide/plugins/com.st.stm32cube.ide.mcu.externaltools.gnu-tools-for-stm32.7-2018-q2-update.win32_1.0.0.201904181610/tools/bin/../lib/gcc/arm-none-eabi/7.3.1/../../../../arm-none-eabi/lib/thumb/v7-m\libc_nano.a(lib_a-calloc.o)
                              Src/ring_buffer.o (calloc)
c:/st/stm32cubeide_1.3.0/stm32cubeide/plugins/com.st.stm32cube.ide.mcu.externaltools.gnu-tools-for-stm32.7-2018-q2-update.win32_1.0.0.201904181610/tools/bin/../lib/gcc/arm-none-eabi/7.3.1/../../../../arm-none-eabi/lib/thumb/v7-m\libc_nano.a(lib_a-errno.o)
                              Src/syscalls.o (__errno)
c:/st/stm32cubeide_1.3.0/stm32cubeide/plugins/com.st.stm32cube.ide.mcu.externaltools.gnu-tools-for-stm32.7-2018-q2-update.win32_1.0.0.201904181610/tools/bin/../lib/gcc/arm-none-eabi/7.3.1/../../../../arm-none-eabi/lib/thumb/v7-m\libc_nano.a(lib_a-exit.o)
                              c:/st/stm32cubeide_1.3.0/stm32cubeide/plugins/com.st.stm32cube.ide.mcu.externaltools.gnu-tools-for-stm32.7-2018-q2-update.win32_1.0.0.201904181610/tools/bin/../lib/gcc/arm-none-eabi/7.3.1/../../../../arm-none-eabi/lib/thumb/v7-m/crt0.o (exit)
c:/st/stm32cubeide_1.3.0/stm32cubeide/plugins/com.st.stm32cube.ide.mcu.externaltools.gnu-tools-for-stm32.7-2018-q2-update.win32_1.0.0.201904181610/tools/bin/../lib/gcc/arm-none-eabi/7.3.1/../../../../arm-none-eabi/lib/thumb/v7-m\libc_nano.a(lib_a-impure.o)
                              c:/st/stm32cubeide_1.3.0/stm32cubeide/plugins/com.st.stm32cube.ide.mcu.externaltools.gnu-tools-for-stm32.7-2018-q2-update.win32_1.0.0.201904181610/tools/bin/../lib/gcc/arm-none-eabi/7.3.1/../../../../arm-none-eabi/lib/thumb/v7-m\libc_nano.a(lib_a-exit.o) (_global_impure_ptr)
c:/st/stm32cubeide_1.3.0/stm32cubeide/plugins/com.st.stm32cube.ide.mcu.externaltools.gnu-tools-for-stm32.7-2018-q2-update.win32_1.0.0.201904181610/tools/bin/../lib/gcc/arm-none-eabi/7.3.1/../../../../arm-none-eabi/lib/thumb/v7-m\libc_nano.a(lib_a-init.o)
                              c:/st/stm32cubeide_1.3.0/stm32cubeide/plugins/com.st.stm32cube.ide.mcu.externaltools.gnu-tools-for-stm32.7-2018-q2-update.win32_1.0.0.201904181610/tools/bin/../lib/gcc/arm-none-eabi/7.3.1/../../../../arm-none-eabi/lib/thumb/v7-m/crt0.o (__libc_init_array)
c:/st/stm32cubeide_1.3.0/stm32cubeide/plugins/com.st.stm32cube.ide.mcu.externaltools.gnu-tools-for-stm32.7-2018-q2-update.win32_1.0.0.201904181610/tools/bin/../lib/gcc/arm-none-eabi/7.3.1/../../../../arm-none-eabi/lib/thumb/v7-m\libc_nano.a(lib_a-malloc.o)
                              Src/dmx512_config.o (malloc)
c:/st/stm32cubeide_1.3.0/stm32cubeide/plugins/com.st.stm32cube.ide.mcu.externaltools.gnu-tools-for-stm32.7-2018-q2-update.win32_1.0.0.201904181610/tools/bin/../lib/gcc/arm-none-eabi/7.3.1/../../../../arm-none-eabi/lib/thumb/v7-m\libc_nano.a(lib_a-memcpy-stub.o)
                              Src/ring_buffer.o (memcpy)
c:/st/stm32cubeide_1.3.0/stm32cubeide/plugins/com.st.stm32cube.ide.mcu.externaltools.gnu-tools-for-stm32.7-2018-q2-update.win32_1.0.0.201904181610/tools/bin/../lib/gcc/arm-none-eabi/7.3.1/../../../../arm-none-eabi/lib/thumb/v7-m\libc_nano.a(lib_a-memset.o)
                              c:/st/stm32cubeide_1.3.0/stm32cubeide/plugins/com.st.stm32cube.ide.mcu.externaltools.gnu-tools-for-stm32.7-2018-q2-update.win32_1.0.0.201904181610/tools/bin/../lib/gcc/arm-none-eabi/7.3.1/../../../../arm-none-eabi/lib/thumb/v7-m/crt0.o (memset)
c:/st/stm32cubeide_1.3.0/stm32cubeide/plugins/com.st.stm32cube.ide.mcu.externaltools.gnu-tools-for-stm32.7-2018-q2-update.win32_1.0.0.201904181610/tools/bin/../lib/gcc/arm-none-eabi/7.3.1/../../../../arm-none-eabi/lib/thumb/v7-m\libc_nano.a(lib_a-nano-callocr.o)
                              c:/st/stm32cubeide_1.3.0/stm32cubeide/plugins/com.st.stm32cube.ide.mcu.externaltools.gnu-tools-for-stm32.7-2018-q2-update.win32_1.0.0.201904181610/tools/bin/../lib/gcc/arm-none-eabi/7.3.1/../../../../arm-none-eabi/lib/thumb/v7-m\libc_nano.a(lib_a-calloc.o) (_calloc_r)
c:/st/stm32cubeide_1.3.0/stm32cubeide/plugins/com.st.stm32cube.ide.mcu.externaltools.gnu-tools-for-stm32.7-2018-q2-update.win32_1.0.0.201904181610/tools/bin/../lib/gcc/arm-none-eabi/7.3.1/../../../../arm-none-eabi/lib/thumb/v7-m\libc_nano.a(lib_a-nano-freer.o)
                              c:/st/stm32cubeide_1.3.0/stm32cubeide/plugins/com.st.stm32cube.ide.mcu.externaltools.gnu-tools-for-stm32.7-2018-q2-update.win32_1.0.0.201904181610/tools/bin/../lib/gcc/arm-none-eabi/7.3.1/../../../../arm-none-eabi/lib/thumb/v7-m\libc_nano.a(lib_a-malloc.o) (_free_r)
c:/st/stm32cubeide_1.3.0/stm32cubeide/plugins/com.st.stm32cube.ide.mcu.externaltools.gnu-tools-for-stm32.7-2018-q2-update.win32_1.0.0.201904181610/tools/bin/../lib/gcc/arm-none-eabi/7.3.1/../../../../arm-none-eabi/lib/thumb/v7-m\libc_nano.a(lib_a-nano-mallocr.o)
                              c:/st/stm32cubeide_1.3.0/stm32cubeide/plugins/com.st.stm32cube.ide.mcu.externaltools.gnu-tools-for-stm32.7-2018-q2-update.win32_1.0.0.201904181610/tools/bin/../lib/gcc/arm-none-eabi/7.3.1/../../../../arm-none-eabi/lib/thumb/v7-m\libc_nano.a(lib_a-malloc.o) (_malloc_r)
c:/st/stm32cubeide_1.3.0/stm32cubeide/plugins/com.st.stm32cube.ide.mcu.externaltools.gnu-tools-for-stm32.7-2018-q2-update.win32_1.0.0.201904181610/tools/bin/../lib/gcc/arm-none-eabi/7.3.1/../../../../arm-none-eabi/lib/thumb/v7-m\libc_nano.a(lib_a-sbrkr.o)
                              c:/st/stm32cubeide_1.3.0/stm32cubeide/plugins/com.st.stm32cube.ide.mcu.externaltools.gnu-tools-for-stm32.7-2018-q2-update.win32_1.0.0.201904181610/tools/bin/../lib/gcc/arm-none-eabi/7.3.1/../../../../arm-none-eabi/lib/thumb/v7-m\libc_nano.a(lib_a-nano-mallocr.o) (_sbrk_r)
c:/st/stm32cubeide_1.3.0/stm32cubeide/plugins/com.st.stm32cube.ide.mcu.externaltools.gnu-tools-for-stm32.7-2018-q2-update.win32_1.0.0.201904181610/tools/bin/../lib/gcc/arm-none-eabi/7.3.1/../../../../arm-none-eabi/lib/thumb/v7-m\libc_nano.a(lib_a-strlen.o)
                              Src/shell.o (strlen)
c:/st/stm32cubeide_1.3.0/stm32cubeide/plugins/com.st.stm32cube.ide.mcu.externaltools.gnu-tools-for-stm32.7-2018-q2-update.win32_1.0.0.201904181610/tools/bin/../lib/gcc/arm-none-eabi/7.3.1/../../../../arm-none-eabi/lib/thumb/v7-m\libc_nano.a(lib_a-strncmp.o)
                              Src/shell.o (strncmp)
c:/st/stm32cubeide_1.3.0/stm32cubeide/plugins/com.st.stm32cube.ide.mcu.externaltools.gnu-tools-for-stm32.7-2018-q2-update.win32_1.0.0.201904181610/tools/bin/../lib/gcc/arm-none-eabi/7.3.1/../../../../arm-none-eabi/lib/thumb/v7-m\libc_nano.a(lib_a-strncpy.o)
                              Src/shell.o (strncpy)
c:/st/stm32cubeide_1.3.0/stm32cubeide/plugins/com.st.stm32cube.ide.mcu.externaltools.gnu-tools-for-stm32.7-2018-q2-update.win32_1.0.0.201904181610/tools/bin/../lib/gcc/arm-none-eabi/7.3.1/../../../../arm-none-eabi/lib/thumb/v7-m\libc_nano.a(lib_a-strtok.o)
                              Src/shell.o (strtok)
c:/st/stm32cubeide_1.3.0/stm32cubeide/plugins/com.st.stm32cube.ide.mcu.externaltools.gnu-tools-for-stm32.7-2018-q2-update.win32_1.0.0.201904181610/tools/bin/../lib/gcc/arm-none-eabi/7.3.1/../../../../arm-none-eabi/lib/thumb/v7-m\libc_nano.a(lib_a-strtok_r.o)
                              c:/st/stm32cubeide_1.3.0/stm32cubeide/plugins/com.st.stm32cube.ide.mcu.externaltools.gnu-tools-for-stm32.7-2018-q2-update.win32_1.0.0.201904181610/tools/bin/../lib/gcc/arm-none-eabi/7.3.1/../../../../arm-none-eabi/lib/thumb/v7-m\libc_nano.a(lib_a-strtok.o) (__strtok_r)
c:/st/stm32cubeide_1.3.0/stm32cubeide/plugins/com.st.stm32cube.ide.mcu.externaltools.gnu-tools-for-stm32.7-2018-q2-update.win32_1.0.0.201904181610/tools/bin/../lib/gcc/arm-none-eabi/7.3.1/../../../../arm-none-eabi/lib/thumb/v7-m\libc_nano.a(lib_a-strtol.o)
                              c:/st/stm32cubeide_1.3.0/stm32cubeide/plugins/com.st.stm32cube.ide.mcu.externaltools.gnu-tools-for-stm32.7-2018-q2-update.win32_1.0.0.201904181610/tools/bin/../lib/gcc/arm-none-eabi/7.3.1/../../../../arm-none-eabi/lib/thumb/v7-m\libc_nano.a(lib_a-atoi.o) (_strtol_r)
c:/st/stm32cubeide_1.3.0/stm32cubeide/plugins/com.st.stm32cube.ide.mcu.externaltools.gnu-tools-for-stm32.7-2018-q2-update.win32_1.0.0.201904181610/tools/bin/../lib/gcc/arm-none-eabi/7.3.1/../../../../arm-none-eabi/lib/thumb/v7-m\libc_nano.a(lib_a-vsnprintf.o)
                              Src/shell.o (vsnprintf)
c:/st/stm32cubeide_1.3.0/stm32cubeide/plugins/com.st.stm32cube.ide.mcu.externaltools.gnu-tools-for-stm32.7-2018-q2-update.win32_1.0.0.201904181610/tools/bin/../lib/gcc/arm-none-eabi/7.3.1/../../../../arm-none-eabi/lib/thumb/v7-m\libc_nano.a(lib_a-locale.o)
                              c:/st/stm32cubeide_1.3.0/stm32cubeide/plugins/com.st.stm32cube.ide.mcu.externaltools.gnu-tools-for-stm32.7-2018-q2-update.win32_1.0.0.201904181610/tools/bin/../lib/gcc/arm-none-eabi/7.3.1/../../../../arm-none-eabi/lib/thumb/v7-m\libc_nano.a(lib_a-strtol.o) (__locale_ctype_ptr_l)
c:/st/stm32cubeide_1.3.0/stm32cubeide/plugins/com.st.stm32cube.ide.mcu.externaltools.gnu-tools-for-stm32.7-2018-q2-update.win32_1.0.0.201904181610/tools/bin/../lib/gcc/arm-none-eabi/7.3.1/../../../../arm-none-eabi/lib/thumb/v7-m\libc_nano.a(lib_a-mbtowc_r.o)
                              c:/st/stm32cubeide_1.3.0/stm32cubeide/plugins/com.st.stm32cube.ide.mcu.externaltools.gnu-tools-for-stm32.7-2018-q2-update.win32_1.0.0.201904181610/tools/bin/../lib/gcc/arm-none-eabi/7.3.1/../../../../arm-none-eabi/lib/thumb/v7-m\libc_nano.a(lib_a-locale.o) (__ascii_mbtowc)
c:/st/stm32cubeide_1.3.0/stm32cubeide/plugins/com.st.stm32cube.ide.mcu.externaltools.gnu-tools-for-stm32.7-2018-q2-update.win32_1.0.0.201904181610/tools/bin/../lib/gcc/arm-none-eabi/7.3.1/../../../../arm-none-eabi/lib/thumb/v7-m\libc_nano.a(lib_a-mlock.o)
                              c:/st/stm32cubeide_1.3.0/stm32cubeide/plugins/com.st.stm32cube.ide.mcu.externaltools.gnu-tools-for-stm32.7-2018-q2-update.win32_1.0.0.201904181610/tools/bin/../lib/gcc/arm-none-eabi/7.3.1/../../../../arm-none-eabi/lib/thumb/v7-m\libc_nano.a(lib_a-nano-freer.o) (__malloc_lock)
c:/st/stm32cubeide_1.3.0/stm32cubeide/plugins/com.st.stm32cube.ide.mcu.externaltools.gnu-tools-for-stm32.7-2018-q2-update.win32_1.0.0.201904181610/tools/bin/../lib/gcc/arm-none-eabi/7.3.1/../../../../arm-none-eabi/lib/thumb/v7-m\libc_nano.a(lib_a-nano-svfprintf.o)
                              c:/st/stm32cubeide_1.3.0/stm32cubeide/plugins/com.st.stm32cube.ide.mcu.externaltools.gnu-tools-for-stm32.7-2018-q2-update.win32_1.0.0.201904181610/tools/bin/../lib/gcc/arm-none-eabi/7.3.1/../../../../arm-none-eabi/lib/thumb/v7-m\libc_nano.a(lib_a-vsnprintf.o) (_svfprintf_r)
c:/st/stm32cubeide_1.3.0/stm32cubeide/plugins/com.st.stm32cube.ide.mcu.externaltools.gnu-tools-for-stm32.7-2018-q2-update.win32_1.0.0.201904181610/tools/bin/../lib/gcc/arm-none-eabi/7.3.1/../../../../arm-none-eabi/lib/thumb/v7-m\libc_nano.a(lib_a-nano-vfprintf_i.o)
                              c:/st/stm32cubeide_1.3.0/stm32cubeide/plugins/com.st.stm32cube.ide.mcu.externaltools.gnu-tools-for-stm32.7-2018-q2-update.win32_1.0.0.201904181610/tools/bin/../lib/gcc/arm-none-eabi/7.3.1/../../../../arm-none-eabi/lib/thumb/v7-m\libc_nano.a(lib_a-nano-svfprintf.o) (_printf_i)
c:/st/stm32cubeide_1.3.0/stm32cubeide/plugins/com.st.stm32cube.ide.mcu.externaltools.gnu-tools-for-stm32.7-2018-q2-update.win32_1.0.0.201904181610/tools/bin/../lib/gcc/arm-none-eabi/7.3.1/../../../../arm-none-eabi/lib/thumb/v7-m\libc_nano.a(lib_a-reent.o)
                              c:/st/stm32cubeide_1.3.0/stm32cubeide/plugins/com.st.stm32cube.ide.mcu.externaltools.gnu-tools-for-stm32.7-2018-q2-update.win32_1.0.0.201904181610/tools/bin/../lib/gcc/arm-none-eabi/7.3.1/../../../../arm-none-eabi/lib/thumb/v7-m\libc_nano.a(lib_a-sbrkr.o) (errno)
c:/st/stm32cubeide_1.3.0/stm32cubeide/plugins/com.st.stm32cube.ide.mcu.externaltools.gnu-tools-for-stm32.7-2018-q2-update.win32_1.0.0.201904181610/tools/bin/../lib/gcc/arm-none-eabi/7.3.1/../../../../arm-none-eabi/lib/thumb/v7-m\libc_nano.a(lib_a-strcmp.o)
                              c:/st/stm32cubeide_1.3.0/stm32cubeide/plugins/com.st.stm32cube.ide.mcu.externaltools.gnu-tools-for-stm32.7-2018-q2-update.win32_1.0.0.201904181610/tools/bin/../lib/gcc/arm-none-eabi/7.3.1/../../../../arm-none-eabi/lib/thumb/v7-m\libc_nano.a(lib_a-locale.o) (strcmp)
c:/st/stm32cubeide_1.3.0/stm32cubeide/plugins/com.st.stm32cube.ide.mcu.externaltools.gnu-tools-for-stm32.7-2018-q2-update.win32_1.0.0.201904181610/tools/bin/../lib/gcc/arm-none-eabi/7.3.1/../../../../arm-none-eabi/lib/thumb/v7-m\libc_nano.a(lib_a-wctomb_r.o)
                              c:/st/stm32cubeide_1.3.0/stm32cubeide/plugins/com.st.stm32cube.ide.mcu.externaltools.gnu-tools-for-stm32.7-2018-q2-update.win32_1.0.0.201904181610/tools/bin/../lib/gcc/arm-none-eabi/7.3.1/../../../../arm-none-eabi/lib/thumb/v7-m\libc_nano.a(lib_a-locale.o) (__ascii_wctomb)
c:/st/stm32cubeide_1.3.0/stm32cubeide/plugins/com.st.stm32cube.ide.mcu.externaltools.gnu-tools-for-stm32.7-2018-q2-update.win32_1.0.0.201904181610/tools/bin/../lib/gcc/arm-none-eabi/7.3.1/../../../../arm-none-eabi/lib/thumb/v7-m\libc_nano.a(lib_a-ctype_.o)
                              c:/st/stm32cubeide_1.3.0/stm32cubeide/plugins/com.st.stm32cube.ide.mcu.externaltools.gnu-tools-for-stm32.7-2018-q2-update.win32_1.0.0.201904181610/tools/bin/../lib/gcc/arm-none-eabi/7.3.1/../../../../arm-none-eabi/lib/thumb/v7-m\libc_nano.a(lib_a-locale.o) (_ctype_)
c:/st/stm32cubeide_1.3.0/stm32cubeide/plugins/com.st.stm32cube.ide.mcu.externaltools.gnu-tools-for-stm32.7-2018-q2-update.win32_1.0.0.201904181610/tools/bin/../lib/gcc/arm-none-eabi/7.3.1/../../../../arm-none-eabi/lib/thumb/v7-m\libc_nano.a(lib_a-memchr-stub.o)
                              c:/st/stm32cubeide_1.3.0/stm32cubeide/plugins/com.st.stm32cube.ide.mcu.externaltools.gnu-tools-for-stm32.7-2018-q2-update.win32_1.0.0.201904181610/tools/bin/../lib/gcc/arm-none-eabi/7.3.1/../../../../arm-none-eabi/lib/thumb/v7-m\libc_nano.a(lib_a-nano-svfprintf.o) (memchr)
c:/st/stm32cubeide_1.3.0/stm32cubeide/plugins/com.st.stm32cube.ide.mcu.externaltools.gnu-tools-for-stm32.7-2018-q2-update.win32_1.0.0.201904181610/tools/bin/../lib/gcc/arm-none-eabi/7.3.1/../../../../arm-none-eabi/lib/thumb/v7-m\libc_nano.a(lib_a-memmove.o)
                              c:/st/stm32cubeide_1.3.0/stm32cubeide/plugins/com.st.stm32cube.ide.mcu.externaltools.gnu-tools-for-stm32.7-2018-q2-update.win32_1.0.0.201904181610/tools/bin/../lib/gcc/arm-none-eabi/7.3.1/../../../../arm-none-eabi/lib/thumb/v7-m\libc_nano.a(lib_a-nano-svfprintf.o) (memmove)
c:/st/stm32cubeide_1.3.0/stm32cubeide/plugins/com.st.stm32cube.ide.mcu.externaltools.gnu-tools-for-stm32.7-2018-q2-update.win32_1.0.0.201904181610/tools/bin/../lib/gcc/arm-none-eabi/7.3.1/../../../../arm-none-eabi/lib/thumb/v7-m\libc_nano.a(lib_a-nano-reallocr.o)
                              c:/st/stm32cubeide_1.3.0/stm32cubeide/plugins/com.st.stm32cube.ide.mcu.externaltools.gnu-tools-for-stm32.7-2018-q2-update.win32_1.0.0.201904181610/tools/bin/../lib/gcc/arm-none-eabi/7.3.1/../../../../arm-none-eabi/lib/thumb/v7-m\libc_nano.a(lib_a-nano-svfprintf.o) (_realloc_r)
c:/st/stm32cubeide_1.3.0/stm32cubeide/plugins/com.st.stm32cube.ide.mcu.externaltools.gnu-tools-for-stm32.7-2018-q2-update.win32_1.0.0.201904181610/tools/bin/../lib/gcc/arm-none-eabi/7.3.1/../../../../arm-none-eabi/lib/thumb/v7-m\libc_nano.a(lib_a-nano-msizer.o)
                              c:/st/stm32cubeide_1.3.0/stm32cubeide/plugins/com.st.stm32cube.ide.mcu.externaltools.gnu-tools-for-stm32.7-2018-q2-update.win32_1.0.0.201904181610/tools/bin/../lib/gcc/arm-none-eabi/7.3.1/../../../../arm-none-eabi/lib/thumb/v7-m\libc_nano.a(lib_a-nano-reallocr.o) (_malloc_usable_size_r)
c:/st/stm32cubeide_1.3.0/stm32cubeide/plugins/com.st.stm32cube.ide.mcu.externaltools.gnu-tools-for-stm32.7-2018-q2-update.win32_1.0.0.201904181610/tools/bin/../lib/gcc/arm-none-eabi/7.3.1/../../../../arm-none-eabi/lib/thumb/v7-m\libm.a(lib_a-s_round.o)
                              Src/gammactrl.o (round)
c:/st/stm32cubeide_1.3.0/stm32cubeide/plugins/com.st.stm32cube.ide.mcu.externaltools.gnu-tools-for-stm32.7-2018-q2-update.win32_1.0.0.201904181610/tools/bin/../lib/gcc/arm-none-eabi/7.3.1/../../../../arm-none-eabi/lib/thumb/v7-m\libm.a(lib_a-s_sin.o)
                              Src/fx/fx_strip_cylon.o (sin)
c:/st/stm32cubeide_1.3.0/stm32cubeide/plugins/com.st.stm32cube.ide.mcu.externaltools.gnu-tools-for-stm32.7-2018-q2-update.win32_1.0.0.201904181610/tools/bin/../lib/gcc/arm-none-eabi/7.3.1/../../../../arm-none-eabi/lib/thumb/v7-m\libm.a(lib_a-w_pow.o)
                              Src/gammactrl.o (pow)
c:/st/stm32cubeide_1.3.0/stm32cubeide/plugins/com.st.stm32cube.ide.mcu.externaltools.gnu-tools-for-stm32.7-2018-q2-update.win32_1.0.0.201904181610/tools/bin/../lib/gcc/arm-none-eabi/7.3.1/../../../../arm-none-eabi/lib/thumb/v7-m\libm.a(lib_a-e_pow.o)
                              c:/st/stm32cubeide_1.3.0/stm32cubeide/plugins/com.st.stm32cube.ide.mcu.externaltools.gnu-tools-for-stm32.7-2018-q2-update.win32_1.0.0.201904181610/tools/bin/../lib/gcc/arm-none-eabi/7.3.1/../../../../arm-none-eabi/lib/thumb/v7-m\libm.a(lib_a-w_pow.o) (__ieee754_pow)
c:/st/stm32cubeide_1.3.0/stm32cubeide/plugins/com.st.stm32cube.ide.mcu.externaltools.gnu-tools-for-stm32.7-2018-q2-update.win32_1.0.0.201904181610/tools/bin/../lib/gcc/arm-none-eabi/7.3.1/../../../../arm-none-eabi/lib/thumb/v7-m\libm.a(lib_a-e_rem_pio2.o)
                              c:/st/stm32cubeide_1.3.0/stm32cubeide/plugins/com.st.stm32cube.ide.mcu.externaltools.gnu-tools-for-stm32.7-2018-q2-update.win32_1.0.0.201904181610/tools/bin/../lib/gcc/arm-none-eabi/7.3.1/../../../../arm-none-eabi/lib/thumb/v7-m\libm.a(lib_a-s_sin.o) (__ieee754_rem_pio2)
c:/st/stm32cubeide_1.3.0/stm32cubeide/plugins/com.st.stm32cube.ide.mcu.externaltools.gnu-tools-for-stm32.7-2018-q2-update.win32_1.0.0.201904181610/tools/bin/../lib/gcc/arm-none-eabi/7.3.1/../../../../arm-none-eabi/lib/thumb/v7-m\libm.a(lib_a-e_sqrt.o)
                              c:/st/stm32cubeide_1.3.0/stm32cubeide/plugins/com.st.stm32cube.ide.mcu.externaltools.gnu-tools-for-stm32.7-2018-q2-update.win32_1.0.0.201904181610/tools/bin/../lib/gcc/arm-none-eabi/7.3.1/../../../../arm-none-eabi/lib/thumb/v7-m\libm.a(lib_a-e_pow.o) (__ieee754_sqrt)
c:/st/stm32cubeide_1.3.0/stm32cubeide/plugins/com.st.stm32cube.ide.mcu.externaltools.gnu-tools-for-stm32.7-2018-q2-update.win32_1.0.0.201904181610/tools/bin/../lib/gcc/arm-none-eabi/7.3.1/../../../../arm-none-eabi/lib/thumb/v7-m\libm.a(lib_a-k_cos.o)
                              c:/st/stm32cubeide_1.3.0/stm32cubeide/plugins/com.st.stm32cube.ide.mcu.externaltools.gnu-tools-for-stm32.7-2018-q2-update.win32_1.0.0.201904181610/tools/bin/../lib/gcc/arm-none-eabi/7.3.1/../../../../arm-none-eabi/lib/thumb/v7-m\libm.a(lib_a-s_sin.o) (__kernel_cos)
c:/st/stm32cubeide_1.3.0/stm32cubeide/plugins/com.st.stm32cube.ide.mcu.externaltools.gnu-tools-for-stm32.7-2018-q2-update.win32_1.0.0.201904181610/tools/bin/../lib/gcc/arm-none-eabi/7.3.1/../../../../arm-none-eabi/lib/thumb/v7-m\libm.a(lib_a-k_rem_pio2.o)
                              c:/st/stm32cubeide_1.3.0/stm32cubeide/plugins/com.st.stm32cube.ide.mcu.externaltools.gnu-tools-for-stm32.7-2018-q2-update.win32_1.0.0.201904181610/tools/bin/../lib/gcc/arm-none-eabi/7.3.1/../../../../arm-none-eabi/lib/thumb/v7-m\libm.a(lib_a-e_rem_pio2.o) (__kernel_rem_pio2)
c:/st/stm32cubeide_1.3.0/stm32cubeide/plugins/com.st.stm32cube.ide.mcu.externaltools.gnu-tools-for-stm32.7-2018-q2-update.win32_1.0.0.201904181610/tools/bin/../lib/gcc/arm-none-eabi/7.3.1/../../../../arm-none-eabi/lib/thumb/v7-m\libm.a(lib_a-k_sin.o)
                              c:/st/stm32cubeide_1.3.0/stm32cubeide/plugins/com.st.stm32cube.ide.mcu.externaltools.gnu-tools-for-stm32.7-2018-q2-update.win32_1.0.0.201904181610/tools/bin/../lib/gcc/arm-none-eabi/7.3.1/../../../../arm-none-eabi/lib/thumb/v7-m\libm.a(lib_a-s_sin.o) (__kernel_sin)
c:/st/stm32cubeide_1.3.0/stm32cubeide/plugins/com.st.stm32cube.ide.mcu.externaltools.gnu-tools-for-stm32.7-2018-q2-update.win32_1.0.0.201904181610/tools/bin/../lib/gcc/arm-none-eabi/7.3.1/../../../../arm-none-eabi/lib/thumb/v7-m\libm.a(lib_a-s_fabs.o)
                              c:/st/stm32cubeide_1.3.0/stm32cubeide/plugins/com.st.stm32cube.ide.mcu.externaltools.gnu-tools-for-stm32.7-2018-q2-update.win32_1.0.0.201904181610/tools/bin/../lib/gcc/arm-none-eabi/7.3.1/../../../../arm-none-eabi/lib/thumb/v7-m\libm.a(lib_a-e_pow.o) (fabs)
c:/st/stm32cubeide_1.3.0/stm32cubeide/plugins/com.st.stm32cube.ide.mcu.externaltools.gnu-tools-for-stm32.7-2018-q2-update.win32_1.0.0.201904181610/tools/bin/../lib/gcc/arm-none-eabi/7.3.1/../../../../arm-none-eabi/lib/thumb/v7-m\libm.a(lib_a-s_finite.o)
                              c:/st/stm32cubeide_1.3.0/stm32cubeide/plugins/com.st.stm32cube.ide.mcu.externaltools.gnu-tools-for-stm32.7-2018-q2-update.win32_1.0.0.201904181610/tools/bin/../lib/gcc/arm-none-eabi/7.3.1/../../../../arm-none-eabi/lib/thumb/v7-m\libm.a(lib_a-w_pow.o) (finite)
c:/st/stm32cubeide_1.3.0/stm32cubeide/plugins/com.st.stm32cube.ide.mcu.externaltools.gnu-tools-for-stm32.7-2018-q2-update.win32_1.0.0.201904181610/tools/bin/../lib/gcc/arm-none-eabi/7.3.1/../../../../arm-none-eabi/lib/thumb/v7-m\libm.a(lib_a-s_floor.o)
                              c:/st/stm32cubeide_1.3.0/stm32cubeide/plugins/com.st.stm32cube.ide.mcu.externaltools.gnu-tools-for-stm32.7-2018-q2-update.win32_1.0.0.201904181610/tools/bin/../lib/gcc/arm-none-eabi/7.3.1/../../../../arm-none-eabi/lib/thumb/v7-m\libm.a(lib_a-k_rem_pio2.o) (floor)
c:/st/stm32cubeide_1.3.0/stm32cubeide/plugins/com.st.stm32cube.ide.mcu.externaltools.gnu-tools-for-stm32.7-2018-q2-update.win32_1.0.0.201904181610/tools/bin/../lib/gcc/arm-none-eabi/7.3.1/../../../../arm-none-eabi/lib/thumb/v7-m\libm.a(lib_a-s_lib_ver.o)
                              c:/st/stm32cubeide_1.3.0/stm32cubeide/plugins/com.st.stm32cube.ide.mcu.externaltools.gnu-tools-for-stm32.7-2018-q2-update.win32_1.0.0.201904181610/tools/bin/../lib/gcc/arm-none-eabi/7.3.1/../../../../arm-none-eabi/lib/thumb/v7-m\libm.a(lib_a-w_pow.o) (__fdlib_version)
c:/st/stm32cubeide_1.3.0/stm32cubeide/plugins/com.st.stm32cube.ide.mcu.externaltools.gnu-tools-for-stm32.7-2018-q2-update.win32_1.0.0.201904181610/tools/bin/../lib/gcc/arm-none-eabi/7.3.1/../../../../arm-none-eabi/lib/thumb/v7-m\libm.a(lib_a-s_matherr.o)
                              c:/st/stm32cubeide_1.3.0/stm32cubeide/plugins/com.st.stm32cube.ide.mcu.externaltools.gnu-tools-for-stm32.7-2018-q2-update.win32_1.0.0.201904181610/tools/bin/../lib/gcc/arm-none-eabi/7.3.1/../../../../arm-none-eabi/lib/thumb/v7-m\libm.a(lib_a-w_pow.o) (matherr)
c:/st/stm32cubeide_1.3.0/stm32cubeide/plugins/com.st.stm32cube.ide.mcu.externaltools.gnu-tools-for-stm32.7-2018-q2-update.win32_1.0.0.201904181610/tools/bin/../lib/gcc/arm-none-eabi/7.3.1/../../../../arm-none-eabi/lib/thumb/v7-m\libm.a(lib_a-s_nan.o)
                              c:/st/stm32cubeide_1.3.0/stm32cubeide/plugins/com.st.stm32cube.ide.mcu.externaltools.gnu-tools-for-stm32.7-2018-q2-update.win32_1.0.0.201904181610/tools/bin/../lib/gcc/arm-none-eabi/7.3.1/../../../../arm-none-eabi/lib/thumb/v7-m\libm.a(lib_a-e_pow.o) (nan)
c:/st/stm32cubeide_1.3.0/stm32cubeide/plugins/com.st.stm32cube.ide.mcu.externaltools.gnu-tools-for-stm32.7-2018-q2-update.win32_1.0.0.201904181610/tools/bin/../lib/gcc/arm-none-eabi/7.3.1/../../../../arm-none-eabi/lib/thumb/v7-m\libm.a(lib_a-s_rint.o)
                              c:/st/stm32cubeide_1.3.0/stm32cubeide/plugins/com.st.stm32cube.ide.mcu.externaltools.gnu-tools-for-stm32.7-2018-q2-update.win32_1.0.0.201904181610/tools/bin/../lib/gcc/arm-none-eabi/7.3.1/../../../../arm-none-eabi/lib/thumb/v7-m\libm.a(lib_a-w_pow.o) (rint)
c:/st/stm32cubeide_1.3.0/stm32cubeide/plugins/com.st.stm32cube.ide.mcu.externaltools.gnu-tools-for-stm32.7-2018-q2-update.win32_1.0.0.201904181610/tools/bin/../lib/gcc/arm-none-eabi/7.3.1/../../../../arm-none-eabi/lib/thumb/v7-m\libm.a(lib_a-s_scalbn.o)
                              c:/st/stm32cubeide_1.3.0/stm32cubeide/plugins/com.st.stm32cube.ide.mcu.externaltools.gnu-tools-for-stm32.7-2018-q2-update.win32_1.0.0.201904181610/tools/bin/../lib/gcc/arm-none-eabi/7.3.1/../../../../arm-none-eabi/lib/thumb/v7-m\libm.a(lib_a-e_pow.o) (scalbn)
c:/st/stm32cubeide_1.3.0/stm32cubeide/plugins/com.st.stm32cube.ide.mcu.externaltools.gnu-tools-for-stm32.7-2018-q2-update.win32_1.0.0.201904181610/tools/bin/../lib/gcc/arm-none-eabi/7.3.1/../../../../arm-none-eabi/lib/thumb/v7-m\libm.a(lib_a-s_copysign.o)
                              c:/st/stm32cubeide_1.3.0/stm32cubeide/plugins/com.st.stm32cube.ide.mcu.externaltools.gnu-tools-for-stm32.7-2018-q2-update.win32_1.0.0.201904181610/tools/bin/../lib/gcc/arm-none-eabi/7.3.1/../../../../arm-none-eabi/lib/thumb/v7-m\libm.a(lib_a-s_scalbn.o) (copysign)
c:/st/stm32cubeide_1.3.0/stm32cubeide/plugins/com.st.stm32cube.ide.mcu.externaltools.gnu-tools-for-stm32.7-2018-q2-update.win32_1.0.0.201904181610/tools/bin/../lib/gcc/arm-none-eabi/7.3.1/thumb/v7-m\libgcc.a(_arm_addsubdf3.o)
                              c:/st/stm32cubeide_1.3.0/stm32cubeide/plugins/com.st.stm32cube.ide.mcu.externaltools.gnu-tools-for-stm32.7-2018-q2-update.win32_1.0.0.201904181610/tools/bin/../lib/gcc/arm-none-eabi/7.3.1/../../../../arm-none-eabi/lib/thumb/v7-m\libm.a(lib_a-s_sin.o) (__aeabi_dsub)
c:/st/stm32cubeide_1.3.0/stm32cubeide/plugins/com.st.stm32cube.ide.mcu.externaltools.gnu-tools-for-stm32.7-2018-q2-update.win32_1.0.0.201904181610/tools/bin/../lib/gcc/arm-none-eabi/7.3.1/thumb/v7-m\libgcc.a(_arm_muldivdf3.o)
                              Src/gammactrl.o (__aeabi_dmul)
c:/st/stm32cubeide_1.3.0/stm32cubeide/plugins/com.st.stm32cube.ide.mcu.externaltools.gnu-tools-for-stm32.7-2018-q2-update.win32_1.0.0.201904181610/tools/bin/../lib/gcc/arm-none-eabi/7.3.1/thumb/v7-m\libgcc.a(_arm_cmpdf2.o)
                              c:/st/stm32cubeide_1.3.0/stm32cubeide/plugins/com.st.stm32cube.ide.mcu.externaltools.gnu-tools-for-stm32.7-2018-q2-update.win32_1.0.0.201904181610/tools/bin/../lib/gcc/arm-none-eabi/7.3.1/../../../../arm-none-eabi/lib/thumb/v7-m\libm.a(lib_a-w_pow.o) (__aeabi_dcmpeq)
c:/st/stm32cubeide_1.3.0/stm32cubeide/plugins/com.st.stm32cube.ide.mcu.externaltools.gnu-tools-for-stm32.7-2018-q2-update.win32_1.0.0.201904181610/tools/bin/../lib/gcc/arm-none-eabi/7.3.1/thumb/v7-m\libgcc.a(_arm_unorddf2.o)
                              c:/st/stm32cubeide_1.3.0/stm32cubeide/plugins/com.st.stm32cube.ide.mcu.externaltools.gnu-tools-for-stm32.7-2018-q2-update.win32_1.0.0.201904181610/tools/bin/../lib/gcc/arm-none-eabi/7.3.1/../../../../arm-none-eabi/lib/thumb/v7-m\libm.a(lib_a-w_pow.o) (__aeabi_dcmpun)
c:/st/stm32cubeide_1.3.0/stm32cubeide/plugins/com.st.stm32cube.ide.mcu.externaltools.gnu-tools-for-stm32.7-2018-q2-update.win32_1.0.0.201904181610/tools/bin/../lib/gcc/arm-none-eabi/7.3.1/thumb/v7-m\libgcc.a(_arm_fixdfsi.o)
                              Src/fx/fx_strip_cylon.o (__aeabi_d2iz)
c:/st/stm32cubeide_1.3.0/stm32cubeide/plugins/com.st.stm32cube.ide.mcu.externaltools.gnu-tools-for-stm32.7-2018-q2-update.win32_1.0.0.201904181610/tools/bin/../lib/gcc/arm-none-eabi/7.3.1/thumb/v7-m\libgcc.a(_arm_truncdfsf2.o)
                              Src/gammactrl.o (__aeabi_d2f)
c:/st/stm32cubeide_1.3.0/stm32cubeide/plugins/com.st.stm32cube.ide.mcu.externaltools.gnu-tools-for-stm32.7-2018-q2-update.win32_1.0.0.201904181610/tools/bin/../lib/gcc/arm-none-eabi/7.3.1/thumb/v7-m\libgcc.a(_arm_addsubsf3.o)
                              Src/gammactrl.o (__aeabi_ui2f)
c:/st/stm32cubeide_1.3.0/stm32cubeide/plugins/com.st.stm32cube.ide.mcu.externaltools.gnu-tools-for-stm32.7-2018-q2-update.win32_1.0.0.201904181610/tools/bin/../lib/gcc/arm-none-eabi/7.3.1/thumb/v7-m\libgcc.a(_arm_muldivsf3.o)
                              Src/light_update.o (__aeabi_fmul)
c:/st/stm32cubeide_1.3.0/stm32cubeide/plugins/com.st.stm32cube.ide.mcu.externaltools.gnu-tools-for-stm32.7-2018-q2-update.win32_1.0.0.201904181610/tools/bin/../lib/gcc/arm-none-eabi/7.3.1/thumb/v7-m\libgcc.a(_arm_cmpsf2.o)
                              Src/gammactrl.o (__aeabi_fcmplt)
c:/st/stm32cubeide_1.3.0/stm32cubeide/plugins/com.st.stm32cube.ide.mcu.externaltools.gnu-tools-for-stm32.7-2018-q2-update.win32_1.0.0.201904181610/tools/bin/../lib/gcc/arm-none-eabi/7.3.1/thumb/v7-m\libgcc.a(_arm_fixsfsi.o)
                              Src/light_update.o (__aeabi_f2iz)
c:/st/stm32cubeide_1.3.0/stm32cubeide/plugins/com.st.stm32cube.ide.mcu.externaltools.gnu-tools-for-stm32.7-2018-q2-update.win32_1.0.0.201904181610/tools/bin/../lib/gcc/arm-none-eabi/7.3.1/thumb/v7-m\libgcc.a(_arm_fixunssfsi.o)
                              Src/gammactrl.o (__aeabi_f2uiz)

Allocating common symbols
Common symbol       size              file

hUsbDeviceFS        0x2c4             Src/usb_device.o
hspi2               0x58              Src/main.o
errno               0x4               c:/st/stm32cubeide_1.3.0/stm32cubeide/plugins/com.st.stm32cube.ide.mcu.externaltools.gnu-tools-for-stm32.7-2018-q2-update.win32_1.0.0.201904181610/tools/bin/../lib/gcc/arm-none-eabi/7.3.1/../../../../arm-none-eabi/lib/thumb/v7-m\libc_nano.a(lib_a-reent.o)
settings            0x5c              Src/gammactrl.o
huart3              0x40              Src/main.o
hadc2               0x30              Src/main.o
hiwdg               0xc               Src/main.o
stripchannel        0x30              Src/main.o
uwTick              0x4               Drivers/STM32F1xx_HAL_Driver/Src/stm32f1xx_hal.o
pFlash              0x20              Drivers/STM32F1xx_HAL_Driver/Src/stm32f1xx_hal_flash.o
UserRxBufferFS      0x1f4             Src/usbd_cdc_if.o
hadc1               0x30              Src/main.o
huart1              0x40              Src/main.o
UserTxBufferFS      0x1f4             Src/usbd_cdc_if.o
timerinfo           0xc0              Src/pwm_control.o
frame_ms            0x4               Src/main.o
pfx_list            0x100             Src/fx_list.o
rx_buff_dmx         0x18              Src/dmx512_rec.o
data                0x4               Src/fx/fx_pwm_running_light.o
hspi1               0x58              Src/main.o
rx_buff_shell       0x18              Src/dmx512_rec.o
hdma_spi2_tx        0x44              Src/main.o
hpcd_USB_FS         0x26c             Src/usbd_conf.o
USBD_StrDesc        0x200             Src/usbd_desc.o
hdma_spi1_tx        0x44              Src/main.o
adcdata             0x20              Src/triggers.o

Discarded input sections

 .text          0x0000000000000000        0x0 c:/st/stm32cubeide_1.3.0/stm32cubeide/plugins/com.st.stm32cube.ide.mcu.externaltools.gnu-tools-for-stm32.7-2018-q2-update.win32_1.0.0.201904181610/tools/bin/../lib/gcc/arm-none-eabi/7.3.1/thumb/v7-m/crti.o
 .data          0x0000000000000000        0x0 c:/st/stm32cubeide_1.3.0/stm32cubeide/plugins/com.st.stm32cube.ide.mcu.externaltools.gnu-tools-for-stm32.7-2018-q2-update.win32_1.0.0.201904181610/tools/bin/../lib/gcc/arm-none-eabi/7.3.1/thumb/v7-m/crti.o
 .bss           0x0000000000000000        0x0 c:/st/stm32cubeide_1.3.0/stm32cubeide/plugins/com.st.stm32cube.ide.mcu.externaltools.gnu-tools-for-stm32.7-2018-q2-update.win32_1.0.0.201904181610/tools/bin/../lib/gcc/arm-none-eabi/7.3.1/thumb/v7-m/crti.o
 .data          0x0000000000000000        0x4 c:/st/stm32cubeide_1.3.0/stm32cubeide/plugins/com.st.stm32cube.ide.mcu.externaltools.gnu-tools-for-stm32.7-2018-q2-update.win32_1.0.0.201904181610/tools/bin/../lib/gcc/arm-none-eabi/7.3.1/thumb/v7-m/crtbegin.o
 .text          0x0000000000000000       0x74 c:/st/stm32cubeide_1.3.0/stm32cubeide/plugins/com.st.stm32cube.ide.mcu.externaltools.gnu-tools-for-stm32.7-2018-q2-update.win32_1.0.0.201904181610/tools/bin/../lib/gcc/arm-none-eabi/7.3.1/../../../../arm-none-eabi/lib/thumb/v7-m/crt0.o
 .data          0x0000000000000000        0x0 c:/st/stm32cubeide_1.3.0/stm32cubeide/plugins/com.st.stm32cube.ide.mcu.externaltools.gnu-tools-for-stm32.7-2018-q2-update.win32_1.0.0.201904181610/tools/bin/../lib/gcc/arm-none-eabi/7.3.1/../../../../arm-none-eabi/lib/thumb/v7-m/crt0.o
 .bss           0x0000000000000000        0x0 c:/st/stm32cubeide_1.3.0/stm32cubeide/plugins/com.st.stm32cube.ide.mcu.externaltools.gnu-tools-for-stm32.7-2018-q2-update.win32_1.0.0.201904181610/tools/bin/../lib/gcc/arm-none-eabi/7.3.1/../../../../arm-none-eabi/lib/thumb/v7-m/crt0.o
 .ARM.extab     0x0000000000000000        0x0 c:/st/stm32cubeide_1.3.0/stm32cubeide/plugins/com.st.stm32cube.ide.mcu.externaltools.gnu-tools-for-stm32.7-2018-q2-update.win32_1.0.0.201904181610/tools/bin/../lib/gcc/arm-none-eabi/7.3.1/../../../../arm-none-eabi/lib/thumb/v7-m/crt0.o
 .ARM.exidx     0x0000000000000000        0x8 c:/st/stm32cubeide_1.3.0/stm32cubeide/plugins/com.st.stm32cube.ide.mcu.externaltools.gnu-tools-for-stm32.7-2018-q2-update.win32_1.0.0.201904181610/tools/bin/../lib/gcc/arm-none-eabi/7.3.1/../../../../arm-none-eabi/lib/thumb/v7-m/crt0.o
 .ARM.attributes
                0x0000000000000000       0x1b c:/st/stm32cubeide_1.3.0/stm32cubeide/plugins/com.st.stm32cube.ide.mcu.externaltools.gnu-tools-for-stm32.7-2018-q2-update.win32_1.0.0.201904181610/tools/bin/../lib/gcc/arm-none-eabi/7.3.1/../../../../arm-none-eabi/lib/thumb/v7-m/crt0.o
 .group         0x0000000000000000        0xc Drivers/STM32F1xx_HAL_Driver/Src/stm32f1xx_hal.o
 .group         0x0000000000000000        0xc Drivers/STM32F1xx_HAL_Driver/Src/stm32f1xx_hal.o
 .group         0x0000000000000000        0xc Drivers/STM32F1xx_HAL_Driver/Src/stm32f1xx_hal.o
 .group         0x0000000000000000        0xc Drivers/STM32F1xx_HAL_Driver/Src/stm32f1xx_hal.o
 .group         0x0000000000000000        0xc Drivers/STM32F1xx_HAL_Driver/Src/stm32f1xx_hal.o
 .group         0x0000000000000000        0xc Drivers/STM32F1xx_HAL_Driver/Src/stm32f1xx_hal.o
 .group         0x0000000000000000        0xc Drivers/STM32F1xx_HAL_Driver/Src/stm32f1xx_hal.o
Memory Configuration

Name             Origin             Length             Attributes
RAM              0x0000000020000000 0x0000000000005000 xrw
FLASH            0x0000000008000000 0x0000000000020000 xr
*default*        0x0000000000000000 0xffffffffffffffff

Linker script and memory map

LOAD c:/st/stm32cubeide_1.3.0/stm32cubeide/plugins/com.st.stm32cube.ide.mcu.externaltools.gnu-tools-for-stm32.7-2018-q2-update.win32_1.0.0.201904181610/tools/bin/../lib/gcc/arm-none-eabi/7.3.1/thumb/v7-m/crti.o
LOAD c:/st/stm32cubeide_1.3.0/stm32cubeide/plugins/com.st.stm32cube.ide.mcu.externaltools.gnu-tools-for-stm32.7-2018-q2-update.win32_1.0.0.201904181610/tools/bin/../lib/gcc/arm-none-eabi/7.3.1/thumb/v7-m/crtbegin.o
LOAD c:/st/stm32cubeide_1.3.0/stm32cubeide/plugins/com.st.stm32cube.ide.mcu.externaltools.gnu-tools-for-stm32.7-2018-q2-update.win32_1.0.0.201904181610/tools/bin/../lib/gcc/arm-none-eabi/7.3.1/../../../../arm-none-eabi/lib/thumb/v7-m/crt0.o
LOAD Drivers/STM32F1xx_HAL_Driver/Src/stm32f1xx_hal.o
LOAD Drivers/STM32F1xx_HAL_Driver/Src/stm32f1xx_hal_adc.o
LOAD Drivers/STM32F1xx_HAL_Driver/Src/stm32f1xx_hal_adc_ex.o
LOAD Drivers/STM32F1xx_HAL_Driver/Src/stm32f1xx_hal_cortex.o
LOAD Drivers/STM32F1xx_HAL_Driver/Src/stm32f1xx_hal_dma.o
LOAD Drivers/STM32F1xx_HAL_Driver/Src/stm32f1xx_hal_exti.o
LOAD Drivers/STM32F1xx_HAL_Driver/Src/stm32f1xx_hal_flash.o
LOAD Drivers/STM32F1xx_HAL_Driver/Src/stm32f1xx_hal_flash_ex.o
LOAD Drivers/STM32F1xx_HAL_Driver/Src/stm32f1xx_hal_gpio.o
LOAD Drivers/STM32F1xx_HAL_Driver/Src/stm32f1xx_hal_gpio_ex.o
LOAD Drivers/STM32F1xx_HAL_Driver/Src/stm32f1xx_hal_iwdg.o
LOAD Drivers/STM32F1xx_HAL_Driver/Src/stm32f1xx_hal_pcd.o
LOAD Drivers/STM32F1xx_HAL_Driver/Src/stm32f1xx_hal_pcd_ex.o
LOAD Drivers/STM32F1xx_HAL_Driver/Src/stm32f1xx_hal_pwr.o
LOAD Drivers/STM32F1xx_HAL_Driver/Src/stm32f1xx_hal_rcc.o
LOAD Drivers/STM32F1xx_HAL_Driver/Src/stm32f1xx_hal_rcc_ex.o
LOAD Drivers/STM32F1xx_HAL_Driver/Src/stm32f1xx_hal_spi.o
LOAD Drivers/STM32F1xx_HAL_Driver/Src/stm32f1xx_hal_tim.o
LOAD Drivers/STM32F1xx_HAL_Driver/Src/stm32f1xx_hal_tim_ex.o
LOAD Drivers/STM32F1xx_HAL_Driver/Src/stm32f1xx_hal_uart.o
LOAD Drivers/STM32F1xx_HAL_Driver/Src/stm32f1xx_ll_usb.o
LOAD Middlewares/ST/STM32_USB_Device_Library/Class/CDC/Src/usbd_cdc.o
LOAD Middlewares/ST/STM32_USB_Device_Library/Core/Src/usbd_core.o
LOAD Middlewares/ST/STM32_USB_Device_Library/Core/Src/usbd_ctlreq.o
LOAD Middlewares/ST/STM32_USB_Device_Library/Core/Src/usbd_ioreq.o
LOAD Src/dmx512_config.o
LOAD Src/dmx512_rec.o
LOAD Src/eeprom.o
LOAD Src/fx_list.o
LOAD Src/fx_manager.o
LOAD Src/gammactrl.o
LOAD Src/gpio_control.o
LOAD Src/light_update.o
LOAD Src/main.o
LOAD Src/pwm_control.o
LOAD Src/ring_buffer.o
LOAD Src/serial_dmx_parser.o
LOAD Src/serial_tracer.o
LOAD Src/settings.o
LOAD Src/shell.o
LOAD Src/shell_cmd.o
LOAD Src/stm32f1xx_hal_msp.o
LOAD Src/stm32f1xx_it.o
LOAD Src/syscalls.o
LOAD Src/system_stm32f1xx.o
LOAD Src/testmode.o
LOAD Src/triggers.o
LOAD Src/usb_device.o
LOAD Src/usbd_cdc_if.o
LOAD Src/usbd_conf.o
LOAD Src/usbd_desc.o
LOAD Src/vt100.o
LOAD Src/fx/fx_pwm_pulsing_light.o
LOAD Src/fx/fx_pwm_running_light.o
LOAD Src/fx/fx_strip_cylon.o
LOAD Src/fx/fx_strip_rainbow.o
LOAD Src/fx/fx_strip_running_light.o
LOAD Src/fx_api/fx_api.o
LOAD Src/ws2812B/WS2812B.o
LOAD startup/startup_stm32f103xb.o
START GROUP
LOAD c:/st/stm32cubeide_1.3.0/stm32cubeide/plugins/com.st.stm32cube.ide.mcu.externaltools.gnu-tools-for-stm32.7-2018-q2-update.win32_1.0.0.201904181610/tools/bin/../lib/gcc/arm-none-eabi/7.3.1/../../../../arm-none-eabi/lib/thumb/v7-m\libc_nano.a
LOAD c:/st/stm32cubeide_1.3.0/stm32cubeide/plugins/com.st.stm32cube.ide.mcu.externaltools.gnu-tools-for-stm32.7-2018-q2-update.win32_1.0.0.201904181610/tools/bin/../lib/gcc/arm-none-eabi/7.3.1/../../../../arm-none-eabi/lib/thumb/v7-m\libm.a
END GROUP
START GROUP
LOAD c:/st/stm32cubeide_1.3.0/stm32cubeide/plugins/com.st.stm32cube.ide.mcu.externaltools.gnu-tools-for-stm32.7-2018-q2-update.win32_1.0.0.201904181610/tools/bin/../lib/gcc/arm-none-eabi/7.3.1/thumb/v7-m\libgcc.a
LOAD c:/st/stm32cubeide_1.3.0/stm32cubeide/plugins/com.st.stm32cube.ide.mcu.externaltools.gnu-tools-for-stm32.7-2018-q2-update.win32_1.0.0.201904181610/tools/bin/../lib/gcc/arm-none-eabi/7.3.1/../../../../arm-none-eabi/lib/thumb/v7-m\libc_nano.a
END GROUP
START GROUP
LOAD c:/st/stm32cubeide_1.3.0/stm32cubeide/plugins/com.st.stm32cube.ide.mcu.externaltools.gnu-tools-for-stm32.7-2018-q2-update.win32_1.0.0.201904181610/tools/bin/../lib/gcc/arm-none-eabi/7.3.1/thumb/v7-m\libgcc.a
LOAD c:/st/stm32cubeide_1.3.0/stm32cubeide/plugins/com.st.stm32cube.ide.mcu.externaltools.gnu-tools-for-stm32.7-2018-q2-update.win32_1.0.0.201904181610/tools/bin/../lib/gcc/arm-none-eabi/7.3.1/../../../../arm-none-eabi/lib/thumb/v7-m\libc_nano.a
LOAD c:/st/stm32cubeide_1.3.0/stm32cubeide/plugins/com.st.stm32cube.ide.mcu.externaltools.gnu-tools-for-stm32.7-2018-q2-update.win32_1.0.0.201904181610/tools/bin/../lib/gcc/arm-none-eabi/7.3.1/../../../../arm-none-eabi/lib/thumb/v7-m\libnosys.a
END GROUP
START GROUP
LOAD c:/st/stm32cubeide_1.3.0/stm32cubeide/plugins/com.st.stm32cube.ide.mcu.externaltools.gnu-tools-for-stm32.7-2018-q2-update.win32_1.0.0.201904181610/tools/bin/../lib/gcc/arm-none-eabi/7.3.1/thumb/v7-m\libgcc.a
LOAD c:/st/stm32cubeide_1.3.0/stm32cubeide/plugins/com.st.stm32cube.ide.mcu.externaltools.gnu-tools-for-stm32.7-2018-q2-update.win32_1.0.0.201904181610/tools/bin/../lib/gcc/arm-none-eabi/7.3.1/../../../../arm-none-eabi/lib/thumb/v7-m\libc_nano.a
LOAD c:/st/stm32cubeide_1.3.0/stm32cubeide/plugins/com.st.stm32cube.ide.mcu.externaltools.gnu-tools-for-stm32.7-2018-q2-update.win32_1.0.0.201904181610/tools/bin/../lib/gcc/arm-none-eabi/7.3.1/../../../../arm-none-eabi/lib/thumb/v7-m\libnosys.a
END GROUP
LOAD c:/st/stm32cubeide_1.3.0/stm32cubeide/plugins/com.st.stm32cube.ide.mcu.externaltools.gnu-tools-for-stm32.7-2018-q2-update.win32_1.0.0.201904181610/tools/bin/../lib/gcc/arm-none-eabi/7.3.1/thumb/v7-m/crtend.o
LOAD c:/st/stm32cubeide_1.3.0/stm32cubeide/plugins/com.st.stm32cube.ide.mcu.externaltools.gnu-tools-for-stm32.7-2018-q2-update.win32_1.0.0.201904181610/tools/bin/../lib/gcc/arm-none-eabi/7.3.1/thumb/v7-m/crtn.o
                0x0000000020005000                _estack = 0x20005000
                0x0000000000000200                _Min_Heap_Size = 0x200
                0x0000000000000400                _Min_Stack_Size = 0x400

.isr_vector     0x0000000008000000      0x10c
                0x0000000008000000                . = ALIGN (0x4)
 *(.isr_vector)
 .isr_vector    0x0000000008000000      0x10c startup/startup_stm32f103xb.o
                0x0000000008000000                g_pfnVectors
                0x000000000800010c                . = ALIGN (0x4)

.text           0x0000000008000110     0xb218
                0x0000000008000110                . = ALIGN (0x4)
 *(.text)
 .text          0x0000000008000110       0x40 c:/st/stm32cubeide_1.3.0/stm32cubeide/plugins/com.st.stm32cube.ide.mcu.externaltools.gnu-tools-for-stm32.7-2018-q2-update.win32_1.0.0.201904181610/tools/bin/../lib/gcc/arm-none-eabi/7.3.1/thumb/v7-m/crtbegin.o
 .text          0x0000000008000150       0x10 c:/st/stm32cubeide_1.3.0/stm32cubeide/plugins/com.st.stm32cube.ide.mcu.externaltools.gnu-tools-for-stm32.7-2018-q2-update.win32_1.0.0.201904181610/tools/bin/../lib/gcc/arm-none-eabi/7.3.1/../../../../arm-none-eabi/lib/thumb/v7-m\libc_nano.a(lib_a-strlen.o)
                0x0000000008000150                strlen
 .text          0x0000000008000160      0x378 c:/st/stm32cubeide_1.3.0/stm32cubeide/plugins/com.st.stm32cube.ide.mcu.externaltools.gnu-tools-for-stm32.7-2018-q2-update.win32_1.0.0.201904181610/tools/bin/../lib/gcc/arm-none-eabi/7.3.1/thumb/v7-m\libgcc.a(_arm_addsubdf3.o)
                0x0000000008000160                __aeabi_drsub
                0x0000000008000168                __aeabi_dsub
                0x0000000008000168                __subdf3
                0x000000000800016c                __aeabi_dadd
                0x000000000800016c                __adddf3
                0x00000000080003e4                __floatunsidf
                0x00000000080003e4                __aeabi_ui2d
                0x0000000008000404                __floatsidf
                0x0000000008000404                __aeabi_i2d
                0x0000000008000428                __aeabi_f2d
                0x0000000008000428                __extendsfdf2
                0x000000000800046c                __floatundidf
                0x000000000800046c                __aeabi_ul2d
                0x000000000800047c                __floatdidf
                0x000000000800047c                __aeabi_l2d
 .text          0x00000000080004d8      0x424 c:/st/stm32cubeide_1.3.0/stm32cubeide/plugins/com.st.stm32cube.ide.mcu.externaltools.gnu-tools-for-stm32.7-2018-q2-update.win32_1.0.0.201904181610/tools/bin/../lib/gcc/arm-none-eabi/7.3.1/thumb/v7-m\libgcc.a(_arm_muldivdf3.o)
                0x00000000080004d8                __aeabi_dmul
                0x00000000080004d8                __muldf3
                0x000000000800072c                __divdf3
                0x000000000800072c                __aeabi_ddiv
 .text          0x00000000080008fc      0x110 c:/st/stm32cubeide_1.3.0/stm32cubeide/plugins/com.st.stm32cube.ide.mcu.externaltools.gnu-tools-for-stm32.7-2018-q2-update.win32_1.0.0.201904181610/tools/bin/../lib/gcc/arm-none-eabi/7.3.1/thumb/v7-m\libgcc.a(_arm_cmpdf2.o)
                0x00000000080008fc                __gtdf2
                0x00000000080008fc                __gedf2
                0x0000000008000904                __ltdf2
                0x0000000008000904                __ledf2
                0x000000000800090c                __nedf2
                0x000000000800090c                __eqdf2
                0x000000000800090c                __cmpdf2
                0x0000000008000988                __aeabi_cdrcmple
                0x0000000008000998                __aeabi_cdcmpeq
                0x0000000008000998                __aeabi_cdcmple
                0x00000000080009a8                __aeabi_dcmpeq
                0x00000000080009bc                __aeabi_dcmplt
                0x00000000080009d0                __aeabi_dcmple
                0x00000000080009e4                __aeabi_dcmpge
                0x00000000080009f8                __aeabi_dcmpgt
 .text          0x0000000008000a0c       0x2c c:/st/stm32cubeide_1.3.0/stm32cubeide/plugins/com.st.stm32cube.ide.mcu.externaltools.gnu-tools-for-stm32.7-2018-q2-update.win32_1.0.0.201904181610/tools/bin/../lib/gcc/arm-none-eabi/7.3.1/thumb/v7-m\libgcc.a(_arm_unorddf2.o)
                0x0000000008000a0c                __unorddf2
                0x0000000008000a0c                __aeabi_dcmpun
 .text          0x0000000008000a38       0x50 c:/st/stm32cubeide_1.3.0/stm32cubeide/plugins/com.st.stm32cube.ide.mcu.externaltools.gnu-tools-for-stm32.7-2018-q2-update.win32_1.0.0.201904181610/tools/bin/../lib/gcc/arm-none-eabi/7.3.1/thumb/v7-m\libgcc.a(_arm_fixdfsi.o)
                0x0000000008000a38                __aeabi_d2iz
                0x0000000008000a38                __fixdfsi
 .text          0x0000000008000a88       0xa0 c:/st/stm32cubeide_1.3.0/stm32cubeide/plugins/com.st.stm32cube.ide.mcu.externaltools.gnu-tools-for-stm32.7-2018-q2-update.win32_1.0.0.201904181610/tools/bin/../lib/gcc/arm-none-eabi/7.3.1/thumb/v7-m\libgcc.a(_arm_truncdfsf2.o)
                0x0000000008000a88                __truncdfsf2
                0x0000000008000a88                __aeabi_d2f
 .text          0x0000000008000b28      0x21c c:/st/stm32cubeide_1.3.0/stm32cubeide/plugins/com.st.stm32cube.ide.mcu.externaltools.gnu-tools-for-stm32.7-2018-q2-update.win32_1.0.0.201904181610/tools/bin/../lib/gcc/arm-none-eabi/7.3.1/thumb/v7-m\libgcc.a(_arm_addsubsf3.o)
                0x0000000008000b28                __aeabi_frsub
                0x0000000008000b30                __subsf3
                0x0000000008000b30                __aeabi_fsub
                0x0000000008000b34                __aeabi_fadd
                0x0000000008000b34                __addsf3
                0x0000000008000c94                __aeabi_ui2f
                0x0000000008000c94                __floatunsisf
                0x0000000008000c9c                __aeabi_i2f
                0x0000000008000c9c                __floatsisf
                0x0000000008000cb8                __aeabi_ul2f
                0x0000000008000cb8                __floatundisf
                0x0000000008000cc8                __aeabi_l2f
                0x0000000008000cc8                __floatdisf
 .text          0x0000000008000d44      0x2a0 c:/st/stm32cubeide_1.3.0/stm32cubeide/plugins/com.st.stm32cube.ide.mcu.externaltools.gnu-tools-for-stm32.7-2018-q2-update.win32_1.0.0.201904181610/tools/bin/../lib/gcc/arm-none-eabi/7.3.1/thumb/v7-m\libgcc.a(_arm_muldivsf3.o)
                0x0000000008000d44                __mulsf3
                0x0000000008000d44                __aeabi_fmul
                0x0000000008000eac                __aeabi_fdiv
                0x0000000008000eac                __divsf3
 .text          0x0000000008000fe4       0xec c:/st/stm32cubeide_1.3.0/stm32cubeide/plugins/com.st.stm32cube.ide.mcu.externaltools.gnu-tools-for-stm32.7-2018-q2-update.win32_1.0.0.201904181610/tools/bin/../lib/gcc/arm-none-eabi/7.3.1/thumb/v7-m\libgcc.a(_arm_cmpsf2.o)
                0x0000000008000fe4                __gesf2
                0x0000000008000fe4                __gtsf2
                0x0000000008000fec                __lesf2
                0x0000000008000fec                __ltsf2
                0x0000000008000ff4                __nesf2
                0x0000000008000ff4                __eqsf2
                0x0000000008000ff4                __cmpsf2
                0x0000000008001054                __aeabi_cfrcmple
                0x000000000800105c                __aeabi_cfcmpeq
                0x000000000800105c                __aeabi_cfcmple
                0x000000000800106c                __aeabi_fcmpeq
                0x0000000008001080                __aeabi_fcmplt
                0x0000000008001094                __aeabi_fcmple
                0x00000000080010a8                __aeabi_fcmpge
                0x00000000080010bc                __aeabi_fcmpgt
 .text          0x00000000080010d0       0x4c c:/st/stm32cubeide_1.3.0/stm32cubeide/plugins/com.st.stm32cube.ide.mcu.externaltools.gnu-tools-for-stm32.7-2018-q2-update.win32_1.0.0.201904181610/tools/bin/../lib/gcc/arm-none-eabi/7.3.1/thumb/v7-m\libgcc.a(_arm_fixsfsi.o)
                0x00000000080010d0                __aeabi_f2iz
                0x00000000080010d0                __fixsfsi
 .text          0x000000000800111c       0x40 c:/st/stm32cubeide_1.3.0/stm32cubeide/plugins/com.st.stm32cube.ide.mcu.externaltools.gnu-tools-for-stm32.7-2018-q2-update.win32_1.0.0.201904181610/tools/bin/../lib/gcc/arm-none-eabi/7.3.1/thumb/v7-m\libgcc.a(_arm_fixunssfsi.o)
                0x000000000800111c                __fixunssfsi
                0x000000000800111c                __aeabi_f2uiz
 *(.text*)
 .text.HAL_InitTick
                0x000000000800115c       0x4c Drivers/STM32F1xx_HAL_Driver/Src/stm32f1xx_hal.o
                0x000000000800115c                HAL_InitTick
 .text.HAL_Init
                0x00000000080011a8       0x24 Drivers/STM32F1xx_HAL_Driver/Src/stm32f1xx_hal.o
                0x00000000080011a8                HAL_Init
 .text.HAL_IncTick
                0x00000000080011cc       0x18 Drivers/STM32F1xx_HAL_Driver/Src/stm32f1xx_hal.o
                0x00000000080011cc                HAL_IncTick
 .text.HAL_GetTick
                0x00000000080011e4        0xc Drivers/STM32F1xx_HAL_Driver/Src/stm32f1xx_hal.o
                0x00000000080011e4                HAL_GetTick
 .text.HAL_ADC_GetValue
                0x00000000080011f0        0x6 Drivers/STM32F1xx_HAL_Driver/Src/stm32f1xx_hal_adc.o
                0x00000000080011f0                HAL_ADC_GetValue
 .text.HAL_ADC_LevelOutOfWindowCallback
                0x00000000080011f6        0x2 Drivers/STM32F1xx_HAL_Driver/Src/stm32f1xx_hal_adc.o
                0x00000000080011f6                HAL_ADC_LevelOutOfWindowCallback
 .text.HAL_ADC_IRQHandler
                0x00000000080011f8      0x10c Drivers/STM32F1xx_HAL_Driver/Src/stm32f1xx_hal_adc.o
                0x00000000080011f8                HAL_ADC_IRQHandler
 .text.HAL_ADC_ConfigChannel
                0x0000000008001304      0x138 Drivers/STM32F1xx_HAL_Driver/Src/stm32f1xx_hal_adc.o
                0x0000000008001304                HAL_ADC_ConfigChannel
 .text.ADC_Enable
                0x000000000800143c       0x80 Drivers/STM32F1xx_HAL_Driver/Src/stm32f1xx_hal_adc.o
                0x000000000800143c                ADC_Enable
 .text.HAL_ADC_Start_IT
                0x00000000080014bc       0xf8 Drivers/STM32F1xx_HAL_Driver/Src/stm32f1xx_hal_adc.o
                0x00000000080014bc                HAL_ADC_Start_IT
 .text.ADC_ConversionStop_Disable
                0x00000000080015b4       0x4c Drivers/STM32F1xx_HAL_Driver/Src/stm32f1xx_hal_adc.o
                0x00000000080015b4                ADC_ConversionStop_Disable
 .text.HAL_ADC_Init
                0x0000000008001600      0x110 Drivers/STM32F1xx_HAL_Driver/Src/stm32f1xx_hal_adc.o
                0x0000000008001600                HAL_ADC_Init
 .text.HAL_ADCEx_InjectedConvCpltCallback
                0x0000000008001710        0x2 Drivers/STM32F1xx_HAL_Driver/Src/stm32f1xx_hal_adc_ex.o
                0x0000000008001710                HAL_ADCEx_InjectedConvCpltCallback
 *fill*         0x0000000008001712        0x2 
 .text.HAL_NVIC_SetPriorityGrouping
                0x0000000008001714       0x24 Drivers/STM32F1xx_HAL_Driver/Src/stm32f1xx_hal_cortex.o
                0x0000000008001714                HAL_NVIC_SetPriorityGrouping
 .text.HAL_NVIC_SetPriority
                0x0000000008001738       0x68 Drivers/STM32F1xx_HAL_Driver/Src/stm32f1xx_hal_cortex.o
                0x0000000008001738                HAL_NVIC_SetPriority
 .text.HAL_NVIC_EnableIRQ
                0x00000000080017a0       0x1c Drivers/STM32F1xx_HAL_Driver/Src/stm32f1xx_hal_cortex.o
                0x00000000080017a0                HAL_NVIC_EnableIRQ
 .text.HAL_SYSTICK_Config
                0x00000000080017bc       0x2c Drivers/STM32F1xx_HAL_Driver/Src/stm32f1xx_hal_cortex.o
                0x00000000080017bc                HAL_SYSTICK_Config
 .text.DMA_SetConfig
                0x00000000080017e8       0x2c Drivers/STM32F1xx_HAL_Driver/Src/stm32f1xx_hal_dma.o
 .text.HAL_DMA_Init
                0x0000000008001814       0x6c Drivers/STM32F1xx_HAL_Driver/Src/stm32f1xx_hal_dma.o
                0x0000000008001814                HAL_DMA_Init
 .text.HAL_DMA_Start_IT
                0x0000000008001880       0x74 Drivers/STM32F1xx_HAL_Driver/Src/stm32f1xx_hal_dma.o
                0x0000000008001880                HAL_DMA_Start_IT
 .text.HAL_DMA_Abort_IT
                0x00000000080018f4       0x98 Drivers/STM32F1xx_HAL_Driver/Src/stm32f1xx_hal_dma.o
                0x00000000080018f4                HAL_DMA_Abort_IT
 .text.HAL_DMA_IRQHandler
                0x000000000800198c      0x144 Drivers/STM32F1xx_HAL_Driver/Src/stm32f1xx_hal_dma.o
                0x000000000800198c                HAL_DMA_IRQHandler
 .text.FLASH_Program_HalfWord
                0x0000000008001ad0       0x1c Drivers/STM32F1xx_HAL_Driver/Src/stm32f1xx_hal_flash.o
 .text.FLASH_SetErrorCode
                0x0000000008001aec       0x74 Drivers/STM32F1xx_HAL_Driver/Src/stm32f1xx_hal_flash.o
 .text.HAL_FLASH_Unlock
                0x0000000008001b60       0x34 Drivers/STM32F1xx_HAL_Driver/Src/stm32f1xx_hal_flash.o
                0x0000000008001b60                HAL_FLASH_Unlock
 .text.HAL_FLASH_Lock
                0x0000000008001b94       0x14 Drivers/STM32F1xx_HAL_Driver/Src/stm32f1xx_hal_flash.o
                0x0000000008001b94                HAL_FLASH_Lock
 .text.FLASH_WaitForLastOperation
                0x0000000008001ba8       0x6c Drivers/STM32F1xx_HAL_Driver/Src/stm32f1xx_hal_flash.o
                0x0000000008001ba8                FLASH_WaitForLastOperation
 .text.HAL_FLASH_Program
                0x0000000008001c14       0x9c Drivers/STM32F1xx_HAL_Driver/Src/stm32f1xx_hal_flash.o
                0x0000000008001c14                HAL_FLASH_Program
 .text.FLASH_MassErase
                0x0000000008001cb0       0x24 Drivers/STM32F1xx_HAL_Driver/Src/stm32f1xx_hal_flash_ex.o
 .text.FLASH_PageErase
                0x0000000008001cd4       0x24 Drivers/STM32F1xx_HAL_Driver/Src/stm32f1xx_hal_flash_ex.o
                0x0000000008001cd4                FLASH_PageErase
 .text.HAL_FLASHEx_Erase
                0x0000000008001cf8       0xa4 Drivers/STM32F1xx_HAL_Driver/Src/stm32f1xx_hal_flash_ex.o
                0x0000000008001cf8                HAL_FLASHEx_Erase
 .text.HAL_GPIO_Init
                0x0000000008001d9c      0x1d8 Drivers/STM32F1xx_HAL_Driver/Src/stm32f1xx_hal_gpio.o
                0x0000000008001d9c                HAL_GPIO_Init
 .text.HAL_GPIO_ReadPin
                0x0000000008001f74        0xe Drivers/STM32F1xx_HAL_Driver/Src/stm32f1xx_hal_gpio.o
                0x0000000008001f74                HAL_GPIO_ReadPin
 .text.HAL_GPIO_WritePin
                0x0000000008001f82        0xc Drivers/STM32F1xx_HAL_Driver/Src/stm32f1xx_hal_gpio.o
                0x0000000008001f82                HAL_GPIO_WritePin
 .text.HAL_PCD_SetAddress
                0x0000000008001f8e       0x28 Drivers/STM32F1xx_HAL_Driver/Src/stm32f1xx_hal_pcd.o
                0x0000000008001f8e                HAL_PCD_SetAddress
 .text.HAL_PCD_EP_Open
                0x0000000008001fb6       0x70 Drivers/STM32F1xx_HAL_Driver/Src/stm32f1xx_hal_pcd.o
                0x0000000008001fb6                HAL_PCD_EP_Open
 .text.HAL_PCD_EP_Receive
                0x0000000008002026       0x3e Drivers/STM32F1xx_HAL_Driver/Src/stm32f1xx_hal_pcd.o
                0x0000000008002026                HAL_PCD_EP_Receive
 .text.HAL_PCD_EP_Transmit
                0x0000000008002064       0x3c Drivers/STM32F1xx_HAL_Driver/Src/stm32f1xx_hal_pcd.o
                0x0000000008002064                HAL_PCD_EP_Transmit
 .text.PCD_EP_ISR_Handler
                0x00000000080020a0      0x370 Drivers/STM32F1xx_HAL_Driver/Src/stm32f1xx_hal_pcd.o
 .text.HAL_PCD_IRQHandler
                0x0000000008002410      0x172 Drivers/STM32F1xx_HAL_Driver/Src/stm32f1xx_hal_pcd.o
                0x0000000008002410                HAL_PCD_IRQHandler
 .text.HAL_PCD_EP_SetStall
                0x0000000008002582       0x6e Drivers/STM32F1xx_HAL_Driver/Src/stm32f1xx_hal_pcd.o
                0x0000000008002582                HAL_PCD_EP_SetStall
 .text.HAL_PCD_EP_ClrStall
                0x00000000080025f0       0x6e Drivers/STM32F1xx_HAL_Driver/Src/stm32f1xx_hal_pcd.o
                0x00000000080025f0                HAL_PCD_EP_ClrStall
 *fill*         0x000000000800265e        0x2 
 .text.RCC_Delay
                0x0000000008002660       0x2c Drivers/STM32F1xx_HAL_Driver/Src/stm32f1xx_hal_rcc.o
 .text.HAL_RCC_OscConfig
                0x000000000800268c      0x410 Drivers/STM32F1xx_HAL_Driver/Src/stm32f1xx_hal_rcc.o
                0x000000000800268c                HAL_RCC_OscConfig
 .text.HAL_RCC_GetSysClockFreq
                0x0000000008002a9c       0x70 Drivers/STM32F1xx_HAL_Driver/Src/stm32f1xx_hal_rcc.o
                0x0000000008002a9c                HAL_RCC_GetSysClockFreq
 .text.HAL_RCC_ClockConfig
                0x0000000008002b0c      0x168 Drivers/STM32F1xx_HAL_Driver/Src/stm32f1xx_hal_rcc.o
                0x0000000008002b0c                HAL_RCC_ClockConfig
 .text.HAL_RCC_GetHCLKFreq
                0x0000000008002c74        0xc Drivers/STM32F1xx_HAL_Driver/Src/stm32f1xx_hal_rcc.o
                0x0000000008002c74                HAL_RCC_GetHCLKFreq
 .text.HAL_RCC_GetPCLK1Freq
                0x0000000008002c80       0x20 Drivers/STM32F1xx_HAL_Driver/Src/stm32f1xx_hal_rcc.o
                0x0000000008002c80                HAL_RCC_GetPCLK1Freq
 .text.HAL_RCC_GetPCLK2Freq
                0x0000000008002ca0       0x20 Drivers/STM32F1xx_HAL_Driver/Src/stm32f1xx_hal_rcc.o
                0x0000000008002ca0                HAL_RCC_GetPCLK2Freq
 .text.HAL_RCCEx_PeriphCLKConfig
                0x0000000008002cc0      0x114 Drivers/STM32F1xx_HAL_Driver/Src/stm32f1xx_hal_rcc_ex.o
                0x0000000008002cc0                HAL_RCCEx_PeriphCLKConfig
 .text.SPI_WaitFlagStateUntilTimeout
                0x0000000008002dd4       0x90 Drivers/STM32F1xx_HAL_Driver/Src/stm32f1xx_hal_spi.o
 .text.SPI_EndRxTxTransaction
                0x0000000008002e64       0x28 Drivers/STM32F1xx_HAL_Driver/Src/stm32f1xx_hal_spi.o
 .text.HAL_SPI_MspInit
                0x0000000008002e8c        0x2 Drivers/STM32F1xx_HAL_Driver/Src/stm32f1xx_hal_spi.o
                0x0000000008002e8c                HAL_SPI_MspInit
 .text.HAL_SPI_Init
                0x0000000008002e8e       0x7c Drivers/STM32F1xx_HAL_Driver/Src/stm32f1xx_hal_spi.o
                0x0000000008002e8e                HAL_SPI_Init
 .text.HAL_SPI_Transmit
                0x0000000008002f0a      0x19a Drivers/STM32F1xx_HAL_Driver/Src/stm32f1xx_hal_spi.o
                0x0000000008002f0a                HAL_SPI_Transmit
 .text.HAL_SPI_Transmit_DMA
                0x00000000080030a4       0xdc Drivers/STM32F1xx_HAL_Driver/Src/stm32f1xx_hal_spi.o
                0x00000000080030a4                HAL_SPI_Transmit_DMA
 .text.HAL_SPI_TxCpltCallback
                0x0000000008003180        0x2 Drivers/STM32F1xx_HAL_Driver/Src/stm32f1xx_hal_spi.o
                0x0000000008003180                HAL_SPI_TxCpltCallback
 .text.HAL_SPI_TxHalfCpltCallback
                0x0000000008003182        0x2 Drivers/STM32F1xx_HAL_Driver/Src/stm32f1xx_hal_spi.o
                0x0000000008003182                HAL_SPI_TxHalfCpltCallback
 .text.SPI_DMAHalfTransmitCplt
                0x0000000008003184        0xa Drivers/STM32F1xx_HAL_Driver/Src/stm32f1xx_hal_spi.o
 .text.HAL_SPI_ErrorCallback
                0x000000000800318e        0x2 Drivers/STM32F1xx_HAL_Driver/Src/stm32f1xx_hal_spi.o
                0x000000000800318e                HAL_SPI_ErrorCallback
 .text.SPI_DMAError
                0x0000000008003190       0x22 Drivers/STM32F1xx_HAL_Driver/Src/stm32f1xx_hal_spi.o
 .text.SPI_DMATransmitCplt
                0x00000000080031b2       0x70 Drivers/STM32F1xx_HAL_Driver/Src/stm32f1xx_hal_spi.o
 *fill*         0x0000000008003222        0x2 
 .text.TIM_OC1_SetConfig
                0x0000000008003224       0x5c Drivers/STM32F1xx_HAL_Driver/Src/stm32f1xx_hal_tim.o
 .text.TIM_OC3_SetConfig
                0x0000000008003280       0x64 Drivers/STM32F1xx_HAL_Driver/Src/stm32f1xx_hal_tim.o
 .text.TIM_OC4_SetConfig
                0x00000000080032e4       0x48 Drivers/STM32F1xx_HAL_Driver/Src/stm32f1xx_hal_tim.o
 .text.TIM_TI1_ConfigInputStage
                0x000000000800332c       0x24 Drivers/STM32F1xx_HAL_Driver/Src/stm32f1xx_hal_tim.o
 .text.TIM_TI2_ConfigInputStage
                0x0000000008003350       0x26 Drivers/STM32F1xx_HAL_Driver/Src/stm32f1xx_hal_tim.o
 .text.TIM_ITRx_SetConfig
                0x0000000008003376       0x10 Drivers/STM32F1xx_HAL_Driver/Src/stm32f1xx_hal_tim.o
 .text.HAL_TIM_Base_MspInit
                0x0000000008003386        0x2 Drivers/STM32F1xx_HAL_Driver/Src/stm32f1xx_hal_tim.o
                0x0000000008003386                HAL_TIM_Base_MspInit
 .text.HAL_TIM_Base_Start
                0x0000000008003388       0x24 Drivers/STM32F1xx_HAL_Driver/Src/stm32f1xx_hal_tim.o
                0x0000000008003388                HAL_TIM_Base_Start
 .text.HAL_TIM_PWM_MspInit
                0x00000000080033ac        0x2 Drivers/STM32F1xx_HAL_Driver/Src/stm32f1xx_hal_tim.o
                0x00000000080033ac                HAL_TIM_PWM_MspInit
 *fill*         0x00000000080033ae        0x2 
 .text.TIM_Base_SetConfig
                0x00000000080033b0       0x74 Drivers/STM32F1xx_HAL_Driver/Src/stm32f1xx_hal_tim.o
                0x00000000080033b0                TIM_Base_SetConfig
 .text.HAL_TIM_Base_Init
                0x0000000008003424       0x32 Drivers/STM32F1xx_HAL_Driver/Src/stm32f1xx_hal_tim.o
                0x0000000008003424                HAL_TIM_Base_Init
 .text.HAL_TIM_PWM_Init
                0x0000000008003456       0x32 Drivers/STM32F1xx_HAL_Driver/Src/stm32f1xx_hal_tim.o
                0x0000000008003456                HAL_TIM_PWM_Init
 .text.TIM_OC2_SetConfig
                0x0000000008003488       0x64 Drivers/STM32F1xx_HAL_Driver/Src/stm32f1xx_hal_tim.o
                0x0000000008003488                TIM_OC2_SetConfig
 .text.HAL_TIM_PWM_ConfigChannel
                0x00000000080034ec       0xdc Drivers/STM32F1xx_HAL_Driver/Src/stm32f1xx_hal_tim.o
                0x00000000080034ec                HAL_TIM_PWM_ConfigChannel
 .text.TIM_ETR_SetConfig
                0x00000000080035c8       0x16 Drivers/STM32F1xx_HAL_Driver/Src/stm32f1xx_hal_tim.o
                0x00000000080035c8                TIM_ETR_SetConfig
 .text.HAL_TIM_ConfigClockSource
                0x00000000080035de       0xda Drivers/STM32F1xx_HAL_Driver/Src/stm32f1xx_hal_tim.o
                0x00000000080035de                HAL_TIM_ConfigClockSource
 .text.TIM_CCxChannelCmd
                0x00000000080036b8       0x20 Drivers/STM32F1xx_HAL_Driver/Src/stm32f1xx_hal_tim.o
                0x00000000080036b8                TIM_CCxChannelCmd
 .text.HAL_TIM_PWM_Start
                0x00000000080036d8       0x3c Drivers/STM32F1xx_HAL_Driver/Src/stm32f1xx_hal_tim.o
                0x00000000080036d8                HAL_TIM_PWM_Start
 .text.UART_EndRxTransfer
                0x0000000008003714       0x1c Drivers/STM32F1xx_HAL_Driver/Src/stm32f1xx_hal_uart.o
 .text.UART_Transmit_IT
                0x0000000008003730       0x68 Drivers/STM32F1xx_HAL_Driver/Src/stm32f1xx_hal_uart.o
 .text.UART_SetConfig
                0x0000000008003798       0xcc Drivers/STM32F1xx_HAL_Driver/Src/stm32f1xx_hal_uart.o
 .text.UART_WaitOnFlagUntilTimeout
                0x0000000008003864       0x62 Drivers/STM32F1xx_HAL_Driver/Src/stm32f1xx_hal_uart.o
 .text.HAL_UART_Init
                0x00000000080038c6       0x5e Drivers/STM32F1xx_HAL_Driver/Src/stm32f1xx_hal_uart.o
                0x00000000080038c6                HAL_UART_Init
 .text.HAL_HalfDuplex_Init
                0x0000000008003924       0x6a Drivers/STM32F1xx_HAL_Driver/Src/stm32f1xx_hal_uart.o
                0x0000000008003924                HAL_HalfDuplex_Init
 .text.HAL_UART_Transmit
                0x000000000800398e       0xe0 Drivers/STM32F1xx_HAL_Driver/Src/stm32f1xx_hal_uart.o
                0x000000000800398e                HAL_UART_Transmit
 .text.HAL_UART_Receive_IT
                0x0000000008003a6e       0x5c Drivers/STM32F1xx_HAL_Driver/Src/stm32f1xx_hal_uart.o
                0x0000000008003a6e                HAL_UART_Receive_IT
 .text.HAL_UART_TxCpltCallback
                0x0000000008003aca        0x2 Drivers/STM32F1xx_HAL_Driver/Src/stm32f1xx_hal_uart.o
                0x0000000008003aca                HAL_UART_TxCpltCallback
 .text.UART_EndTransmit_IT
                0x0000000008003acc       0x1a Drivers/STM32F1xx_HAL_Driver/Src/stm32f1xx_hal_uart.o
 .text.UART_Receive_IT
                0x0000000008003ae6       0x9c Drivers/STM32F1xx_HAL_Driver/Src/stm32f1xx_hal_uart.o
 .text.HAL_UART_ErrorCallback
                0x0000000008003b82        0x2 Drivers/STM32F1xx_HAL_Driver/Src/stm32f1xx_hal_uart.o
                0x0000000008003b82                HAL_UART_ErrorCallback
 .text.HAL_UART_IRQHandler
                0x0000000008003b84      0x120 Drivers/STM32F1xx_HAL_Driver/Src/stm32f1xx_hal_uart.o
                0x0000000008003b84                HAL_UART_IRQHandler
 .text.UART_DMAAbortOnError
                0x0000000008003ca4       0x10 Drivers/STM32F1xx_HAL_Driver/Src/stm32f1xx_hal_uart.o
 .text.HAL_HalfDuplex_EnableReceiver
                0x0000000008003cb4       0x36 Drivers/STM32F1xx_HAL_Driver/Src/stm32f1xx_hal_uart.o
                0x0000000008003cb4                HAL_HalfDuplex_EnableReceiver
 .text.USB_ActivateEndpoint
                0x0000000008003cea      0x368 Drivers/STM32F1xx_HAL_Driver/Src/stm32f1xx_ll_usb.o
                0x0000000008003cea                USB_ActivateEndpoint
 .text.USB_EPSetStall
                0x0000000008004052       0x4a Drivers/STM32F1xx_HAL_Driver/Src/stm32f1xx_ll_usb.o
                0x0000000008004052                USB_EPSetStall
 .text.USB_EPClearStall
                0x000000000800409c       0xa2 Drivers/STM32F1xx_HAL_Driver/Src/stm32f1xx_ll_usb.o
                0x000000000800409c                USB_EPClearStall
 .text.USB_SetDevAddress
                0x000000000800413e        0xc Drivers/STM32F1xx_HAL_Driver/Src/stm32f1xx_ll_usb.o
                0x000000000800413e                USB_SetDevAddress
 .text.USB_ReadInterrupts
                0x000000000800414a        0x6 Drivers/STM32F1xx_HAL_Driver/Src/stm32f1xx_ll_usb.o
                0x000000000800414a                USB_ReadInterrupts
 .text.USB_EP0_OutStart
                0x0000000008004150        0x4 Drivers/STM32F1xx_HAL_Driver/Src/stm32f1xx_ll_usb.o
                0x0000000008004150                USB_EP0_OutStart
 .text.USB_WritePMA
                0x0000000008004154       0x2a Drivers/STM32F1xx_HAL_Driver/Src/stm32f1xx_ll_usb.o
                0x0000000008004154                USB_WritePMA
 .text.USB_EPStartXfer
                0x000000000800417e      0x320 Drivers/STM32F1xx_HAL_Driver/Src/stm32f1xx_ll_usb.o
                0x000000000800417e                USB_EPStartXfer
 .text.USB_ReadPMA
                0x000000000800449e       0x30 Drivers/STM32F1xx_HAL_Driver/Src/stm32f1xx_ll_usb.o
                0x000000000800449e                USB_ReadPMA
 .text.USBD_SetClassConfig
                0x00000000080044ce       0x1a Middlewares/ST/STM32_USB_Device_Library/Core/Src/usbd_core.o
                0x00000000080044ce                USBD_SetClassConfig
 .text.USBD_ClrClassConfig
                0x00000000080044e8        0xe Middlewares/ST/STM32_USB_Device_Library/Core/Src/usbd_core.o
                0x00000000080044e8                USBD_ClrClassConfig
 .text.USBD_LL_SetupStage
                0x00000000080044f6       0x5a Middlewares/ST/STM32_USB_Device_Library/Core/Src/usbd_core.o
                0x00000000080044f6                USBD_LL_SetupStage
 .text.USBD_LL_DataOutStage
                0x0000000008004550       0x92 Middlewares/ST/STM32_USB_Device_Library/Core/Src/usbd_core.o
                0x0000000008004550                USBD_LL_DataOutStage
 .text.USBD_LL_DataInStage
                0x00000000080045e2       0xd2 Middlewares/ST/STM32_USB_Device_Library/Core/Src/usbd_core.o
                0x00000000080045e2                USBD_LL_DataInStage
 .text.USBD_LL_Reset
                0x00000000080046b4       0x50 Middlewares/ST/STM32_USB_Device_Library/Core/Src/usbd_core.o
                0x00000000080046b4                USBD_LL_Reset
 .text.USBD_LL_SetSpeed
                0x0000000008004704        0x6 Middlewares/ST/STM32_USB_Device_Library/Core/Src/usbd_core.o
                0x0000000008004704                USBD_LL_SetSpeed
 .text.USBD_LL_Suspend
                0x000000000800470a       0x12 Middlewares/ST/STM32_USB_Device_Library/Core/Src/usbd_core.o
                0x000000000800470a                USBD_LL_Suspend
 .text.USBD_LL_Resume
                0x000000000800471c       0x16 Middlewares/ST/STM32_USB_Device_Library/Core/Src/usbd_core.o
                0x000000000800471c                USBD_LL_Resume
 .text.USBD_LL_SOF
                0x0000000008004732       0x1c Middlewares/ST/STM32_USB_Device_Library/Core/Src/usbd_core.o
                0x0000000008004732                USBD_LL_SOF
 .text.USBD_SetFeature
                0x000000000800474e       0x14 Middlewares/ST/STM32_USB_Device_Library/Core/Src/usbd_ctlreq.o
 .text.USBD_ParseSetupRequest
                0x0000000008004762       0x28 Middlewares/ST/STM32_USB_Device_Library/Core/Src/usbd_ctlreq.o
                0x0000000008004762                USBD_ParseSetupRequest
 .text.USBD_CtlError
                0x000000000800478a       0x14 Middlewares/ST/STM32_USB_Device_Library/Core/Src/usbd_ctlreq.o
                0x000000000800478a                USBD_CtlError
 .text.USBD_GetDescriptor
                0x000000000800479e      0x186 Middlewares/ST/STM32_USB_Device_Library/Core/Src/usbd_ctlreq.o
 .text.USBD_SetAddress
                0x0000000008004924       0x4e Middlewares/ST/STM32_USB_Device_Library/Core/Src/usbd_ctlreq.o
 *fill*         0x0000000008004972        0x2 
 .text.USBD_SetConfig
                0x0000000008004974       0xb0 Middlewares/ST/STM32_USB_Device_Library/Core/Src/usbd_ctlreq.o
 .text.USBD_GetConfig
                0x0000000008004a24       0x3c Middlewares/ST/STM32_USB_Device_Library/Core/Src/usbd_ctlreq.o
 .text.USBD_GetStatus
                0x0000000008004a60       0x38 Middlewares/ST/STM32_USB_Device_Library/Core/Src/usbd_ctlreq.o
 .text.USBD_ClrFeature
                0x0000000008004a98       0x26 Middlewares/ST/STM32_USB_Device_Library/Core/Src/usbd_ctlreq.o
 .text.USBD_StdDevReq
                0x0000000008004abe       0x68 Middlewares/ST/STM32_USB_Device_Library/Core/Src/usbd_ctlreq.o
                0x0000000008004abe                USBD_StdDevReq
 .text.USBD_StdItfReq
                0x0000000008004b26       0x60 Middlewares/ST/STM32_USB_Device_Library/Core/Src/usbd_ctlreq.o
                0x0000000008004b26                USBD_StdItfReq
 .text.USBD_StdEPReq
                0x0000000008004b86      0x20e Middlewares/ST/STM32_USB_Device_Library/Core/Src/usbd_ctlreq.o
                0x0000000008004b86                USBD_StdEPReq
 .text.USBD_CtlSendData
                0x0000000008004d94       0x1a Middlewares/ST/STM32_USB_Device_Library/Core/Src/usbd_ioreq.o
                0x0000000008004d94                USBD_CtlSendData
 .text.USBD_CtlContinueSendData
                0x0000000008004dae       0x10 Middlewares/ST/STM32_USB_Device_Library/Core/Src/usbd_ioreq.o
                0x0000000008004dae                USBD_CtlContinueSendData
 .text.USBD_CtlContinueRx
                0x0000000008004dbe       0x10 Middlewares/ST/STM32_USB_Device_Library/Core/Src/usbd_ioreq.o
                0x0000000008004dbe                USBD_CtlContinueRx
 .text.USBD_CtlSendStatus
                0x0000000008004dce       0x16 Middlewares/ST/STM32_USB_Device_Library/Core/Src/usbd_ioreq.o
                0x0000000008004dce                USBD_CtlSendStatus
 .text.USBD_CtlReceiveStatus
                0x0000000008004de4       0x16 Middlewares/ST/STM32_USB_Device_Library/Core/Src/usbd_ioreq.o
                0x0000000008004de4                USBD_CtlReceiveStatus
 *fill*         0x0000000008004dfa        0x2 
 .text.set_addr
                0x0000000008004dfc        0xc Src/dmx512_config.o
                0x0000000008004dfc                set_addr
 .text.get_addr
                0x0000000008004e08        0xc Src/dmx512_config.o
                0x0000000008004e08                get_addr
 .text.get_mode
                0x0000000008004e14        0xc Src/dmx512_config.o
                0x0000000008004e14                get_mode
 .text.set_reg_length
                0x0000000008004e20        0xc Src/dmx512_config.o
                0x0000000008004e20                set_reg_length
 .text.get_reg_length
                0x0000000008004e2c        0xc Src/dmx512_config.o
                0x0000000008004e2c                get_reg_length
 .text.init_regs
                0x0000000008004e38       0x2c Src/dmx512_config.o
                0x0000000008004e38                init_regs
 .text.dmx512_init
                0x0000000008004e64       0x38 Src/dmx512_config.o
                0x0000000008004e64                dmx512_init
 .text.set_reg  0x0000000008004e9c       0x1c Src/dmx512_config.o
                0x0000000008004e9c                set_reg
 .text.get_reg  0x0000000008004eb8       0x24 Src/dmx512_config.o
                0x0000000008004eb8                get_reg
 .text.get_reg_name
                0x0000000008004edc       0x1c Src/dmx512_config.o
                0x0000000008004edc                get_reg_name
 .text.USART1_IRQHandler
                0x0000000008004ef8       0x38 Src/dmx512_rec.o
                0x0000000008004ef8                USART1_IRQHandler
 .text.USART3_IRQHandler
                0x0000000008004f30       0x10 Src/dmx512_rec.o
                0x0000000008004f30                USART3_IRQHandler
 .text.HAL_UART_RxCpltCallback
                0x0000000008004f40      0x154 Src/dmx512_rec.o
                0x0000000008004f40                HAL_UART_RxCpltCallback
 .text.dmx512_setRx
                0x0000000008005094       0x1c Src/dmx512_rec.o
                0x0000000008005094                dmx512_setRx
 .text.dmx512_rec_enable
                0x00000000080050b0       0x38 Src/dmx512_rec.o
                0x00000000080050b0                dmx512_rec_enable
 .text.dmx512_rec_init
                0x00000000080050e8       0x1c Src/dmx512_rec.o
                0x00000000080050e8                dmx512_rec_init
 .text.EE_LL_Format
                0x0000000008005104       0x46 Src/eeprom.o
                0x0000000008005104                EE_LL_Format
 .text.EE_LL_Read
                0x000000000800514a       0x22 Src/eeprom.o
                0x000000000800514a                EE_LL_Read
 .text.EE_Format
                0x000000000800516c        0xc Src/eeprom.o
                0x000000000800516c                EE_Format
 .text.EE_Reads
                0x0000000008005178       0x28 Src/eeprom.o
                0x0000000008005178                EE_Reads
 .text.EE_Writes
                0x00000000080051a0       0x52 Src/eeprom.o
                0x00000000080051a0                EE_Writes
 *fill*         0x00000000080051f2        0x2 
 .text.init_fx_list
                0x00000000080051f4       0x20 Src/fx_list.o
                0x00000000080051f4                init_fx_list
 .text.register_fx
                0x0000000008005214       0x50 Src/fx_list.o
                0x0000000008005214                register_fx
 .text.fx_install
                0x0000000008005264       0x2e Src/fx_manager.o
                0x0000000008005264                fx_install
 .text.install_fx
                0x0000000008005292        0x8 Src/fx_manager.o
                0x0000000008005292                install_fx
 *fill*         0x000000000800529a        0x2 
 .text.start_fx
                0x000000000800529c       0xd0 Src/fx_manager.o
                0x000000000800529c                start_fx
 .text.fx_done  0x000000000800536c       0x58 Src/fx_manager.o
                0x000000000800536c                fx_done
 .text.run_fx   0x00000000080053c4       0x8c Src/fx_manager.o
                0x00000000080053c4                run_fx
 .text.calc_gamma_val
                0x0000000008005450       0x9c Src/gammactrl.o
                0x0000000008005450                calc_gamma_val
 .text.recalcGamma
                0x00000000080054ec      0x128 Src/gammactrl.o
                0x00000000080054ec                recalcGamma
 .text.getGamma
                0x0000000008005614       0x20 Src/gammactrl.o
                0x0000000008005614                getGamma
 .text.get_mode_from_pins
                0x0000000008005634       0x2c Src/gpio_control.o
                0x0000000008005634                get_mode_from_pins
 .text.get_addr_from_pins
                0x0000000008005660       0x8c Src/gpio_control.o
                0x0000000008005660                get_addr_from_pins
 .text.check_button
                0x00000000080056ec       0x18 Src/gpio_control.o
                0x00000000080056ec                check_button
 .text.scale_value
                0x0000000008005704       0x8c Src/light_update.o
                0x0000000008005704                scale_value
 .text.update_pwm_lights
                0x0000000008005790      0x2b8 Src/light_update.o
                0x0000000008005790                update_pwm_lights
 .text.init_update_lights
                0x0000000008005a48       0x3c Src/light_update.o
                0x0000000008005a48                init_update_lights
 .text.update_fx
                0x0000000008005a84       0x48 Src/light_update.o
                0x0000000008005a84                update_fx
 .text.MX_GPIO_Init
                0x0000000008005acc      0x140 Src/main.o
 .text.MX_ADC1_Init
                0x0000000008005c0c       0x44 Src/main.o
 .text.MX_ADC2_Init
                0x0000000008005c50       0x48 Src/main.o
 .text.MX_DMA_Init
                0x0000000008005c98       0x44 Src/main.o
 .text.MX_USART1_UART_Init
                0x0000000008005cdc       0x44 Src/main.o
 .text.MX_USART3_UART_Init
                0x0000000008005d20       0x38 Src/main.o
 .text.MX_SPI1_Init
                0x0000000008005d58       0x58 Src/main.o
 .text.MX_SPI2_Init
                0x0000000008005db0       0x58 Src/main.o
 .text.SystemClock_Config
                0x0000000008005e08       0x6e Src/main.o
                0x0000000008005e08                SystemClock_Config
 *fill*         0x0000000008005e76        0x2 
 .text.main     0x0000000008005e78      0x360 Src/main.o
                0x0000000008005e78                main
 .text.Error_Handler
                0x00000000080061d8        0x2 Src/main.o
                0x00000000080061d8                Error_Handler
 *fill*         0x00000000080061da        0x2 
 .text.PWM_Timer_Init
                0x00000000080061dc      0x15c Src/pwm_control.o
                0x00000000080061dc                PWM_Timer_Init
 .text.init_timers
                0x0000000008006338       0x58 Src/pwm_control.o
                0x0000000008006338                init_timers
 .text.configPWM
                0x0000000008006390       0x48 Src/pwm_control.o
                0x0000000008006390                configPWM
 .text.ring_buffer_init
                0x00000000080063d8       0x2a Src/ring_buffer.o
                0x00000000080063d8                ring_buffer_init
 .text.ring_buffer_free_elements
                0x0000000008006402       0x10 Src/ring_buffer.o
                0x0000000008006402                ring_buffer_free_elements
 .text.ring_buffer_put
                0x0000000008006412       0x80 Src/ring_buffer.o
                0x0000000008006412                ring_buffer_put
 .text.ring_buffer_size
                0x0000000008006492        0xa Src/ring_buffer.o
                0x0000000008006492                ring_buffer_size
 .text.ring_buffer_get
                0x000000000800649c       0x80 Src/ring_buffer.o
                0x000000000800649c                ring_buffer_get
 .text.dmx_serial_process
                0x000000000800651c      0x134 Src/serial_dmx_parser.o
                0x000000000800651c                dmx_serial_process
 .text.tracer_puts
                0x0000000008006650       0x24 Src/serial_tracer.o
                0x0000000008006650                tracer_puts
 .text.tracer_getchar
                0x0000000008006674       0x24 Src/serial_tracer.o
                0x0000000008006674                tracer_getchar
 .text.makeVersion
                0x0000000008006698        0x6 Src/settings.o
                0x0000000008006698                makeVersion
 *fill*         0x000000000800669e        0x2 
 .text.init_settings
                0x00000000080066a0       0x74 Src/settings.o
                0x00000000080066a0                init_settings
 .text.apply_settings
                0x0000000008006714       0xfc Src/settings.o
                0x0000000008006714                apply_settings
 .text.load_settings
                0x0000000008006810       0x58 Src/settings.o
                0x0000000008006810                load_settings
 .text.save_settings
                0x0000000008006868       0x20 Src/settings.o
                0x0000000008006868                save_settings
 .text.print_settings
                0x0000000008006888      0x348 Src/settings.o
                0x0000000008006888                print_settings
 .text.cmd_buf_add_char
                0x0000000008006bd0       0x1c Src/shell.o
 .text.cmd_buf_remove_char
                0x0000000008006bec       0x20 Src/shell.o
 .text.save_command_to_command_history
                0x0000000008006c0c       0x3c Src/shell.o
 .text.parse_shell_cmd
                0x0000000008006c48       0x30 Src/shell.o
 .text.cmd_buf_reset
                0x0000000008006c78       0x1c Src/shell.o
 .text.load_command_from_command_history
                0x0000000008006c94       0xa4 Src/shell.o
 .text.uart_receive_byte
                0x0000000008006d38       0x14 Src/shell.o
                0x0000000008006d38                uart_receive_byte
 .text.uart_send
                0x0000000008006d4c        0xa Src/shell.o
                0x0000000008006d4c                uart_send
 .text.send_vt100_key
                0x0000000008006d56       0x12 Src/shell.o
 .text.print    0x0000000008006d68       0x4c Src/shell.o
                0x0000000008006d68                print
 .text.process_shell_cmd
                0x0000000008006db4       0xe0 Src/shell.o
 .text.print_no_newline
                0x0000000008006e94       0x34 Src/shell.o
                0x0000000008006e94                print_no_newline
 .text.shell_process
                0x0000000008006ec8      0x104 Src/shell.o
                0x0000000008006ec8                shell_process
 .text.shell_cmd_settargetfps
                0x0000000008006fcc       0x1c Src/shell_cmd.o
 .text.shell_cmd_switchuartmode
                0x0000000008006fe8       0x38 Src/shell_cmd.o
 .text.shell_cmd_setuartmode
                0x0000000008007020       0x44 Src/shell_cmd.o
 .text.shell_cmd_setstriplength
                0x0000000008007064       0x40 Src/shell_cmd.o
 .text.shell_cmd_settriggerctrl
                0x00000000080070a4       0x80 Src/shell_cmd.o
 .text.shell_cmd_settriggerconfig
                0x0000000008007124       0x6c Src/shell_cmd.o
 .text.shell_cmd_setoffset
                0x0000000008007190       0x4c Src/shell_cmd.o
 .text.shell_cmd_setgain
                0x00000000080071dc       0x4c Src/shell_cmd.o
 .text.shell_cmd_currentfps
                0x0000000008007228       0x30 Src/shell_cmd.o
 .text.shell_cmd_setfxmultiplier
                0x0000000008007258       0x38 Src/shell_cmd.o
 .text.shell_cmd_test
                0x0000000008007290       0x1c Src/shell_cmd.o
 .text.shell_cmd_dumpadc
                0x00000000080072ac        0xa Src/shell_cmd.o
 *fill*         0x00000000080072b6        0x2 
 .text.shell_cmd_storedefaultregs
                0x00000000080072b8       0xfc Src/shell_cmd.o
 .text.shell_cmd_getmode
                0x00000000080073b4       0x28 Src/shell_cmd.o
 .text.shell_cmd_setreg
                0x00000000080073dc       0x26 Src/shell_cmd.o
 .text.shell_cmd_setbrightness
                0x0000000008007402       0x1e Src/shell_cmd.o
 .text.shell_cmd_setgamma
                0x0000000008007420       0x70 Src/shell_cmd.o
 .text.shell_cmd_savesettings
                0x0000000008007490        0xa Src/shell_cmd.o
 .text.shell_cmd_setpwm
                0x000000000800749a       0x30 Src/shell_cmd.o
 .text.shell_cmd_dumpsettings
                0x00000000080074ca        0xa Src/shell_cmd.o
 .text.shell_cmd_getaddr
                0x00000000080074d4       0x18 Src/shell_cmd.o
 .text.shell_cmd_dumpregs
                0x00000000080074ec       0x78 Src/shell_cmd.o
 .text.HAL_MspInit
                0x0000000008007564       0x44 Src/stm32f1xx_hal_msp.o
                0x0000000008007564                HAL_MspInit
 .text.HAL_ADC_MspInit
                0x00000000080075a8       0xa4 Src/stm32f1xx_hal_msp.o
                0x00000000080075a8                HAL_ADC_MspInit
 .text.HAL_UART_MspInit
                0x000000000800764c       0xd4 Src/stm32f1xx_hal_msp.o
                0x000000000800764c                HAL_UART_MspInit
 .text.NMI_Handler
                0x0000000008007720        0x2 Src/stm32f1xx_it.o
                0x0000000008007720                NMI_Handler
 .text.HardFault_Handler
                0x0000000008007722        0x2 Src/stm32f1xx_it.o
                0x0000000008007722                HardFault_Handler
 .text.MemManage_Handler
                0x0000000008007724        0x2 Src/stm32f1xx_it.o
                0x0000000008007724                MemManage_Handler
 .text.BusFault_Handler
                0x0000000008007726        0x2 Src/stm32f1xx_it.o
                0x0000000008007726                BusFault_Handler
 .text.UsageFault_Handler
                0x0000000008007728        0x2 Src/stm32f1xx_it.o
                0x0000000008007728                UsageFault_Handler
 .text.SVC_Handler
                0x000000000800772a        0x2 Src/stm32f1xx_it.o
                0x000000000800772a                SVC_Handler
 .text.DebugMon_Handler
                0x000000000800772c        0x2 Src/stm32f1xx_it.o
                0x000000000800772c                DebugMon_Handler
 .text.PendSV_Handler
                0x000000000800772e        0x2 Src/stm32f1xx_it.o
                0x000000000800772e                PendSV_Handler
 .text.SysTick_Handler
                0x0000000008007730        0x8 Src/stm32f1xx_it.o
                0x0000000008007730                SysTick_Handler
 .text.DMA1_Channel3_IRQHandler
                0x0000000008007738       0x10 Src/stm32f1xx_it.o
                0x0000000008007738                DMA1_Channel3_IRQHandler
 .text.DMA1_Channel4_IRQHandler
                0x0000000008007748       0x10 Src/stm32f1xx_it.o
                0x0000000008007748                DMA1_Channel4_IRQHandler
 .text.USB_LP_CAN1_RX0_IRQHandler
                0x0000000008007758       0x10 Src/stm32f1xx_it.o
                0x0000000008007758                USB_LP_CAN1_RX0_IRQHandler
 .text._sbrk    0x0000000008007768       0x3c Src/syscalls.o
                0x0000000008007768                _sbrk
 .text.SystemInit
                0x00000000080077a4       0x4c Src/system_stm32f1xx.o
                0x00000000080077a4                SystemInit
 .text.lights_off
                0x00000000080077f0       0x28 Src/testmode.o
                0x00000000080077f0                lights_off
 .text.process_testmode
                0x0000000008007818       0xb0 Src/testmode.o
                0x0000000008007818                process_testmode
 .text.ADC1_2_IRQHandler
                0x00000000080078c8       0x10 Src/triggers.o
                0x00000000080078c8                ADC1_2_IRQHandler
 .text.HAL_ADC_ConvCpltCallback
                0x00000000080078d8       0xa8 Src/triggers.o
                0x00000000080078d8                HAL_ADC_ConvCpltCallback
 .text.init_trigger
                0x0000000008007980       0x40 Src/triggers.o
                0x0000000008007980                init_trigger
 .text.process_trigger
                0x00000000080079c0       0xd4 Src/triggers.o
                0x00000000080079c0                process_trigger
 .text.print_adc_data
                0x0000000008007a94       0x60 Src/triggers.o
                0x0000000008007a94                print_adc_data
 .text.USBD_Get_USB_Status
                0x0000000008007af4       0x12 Src/usbd_conf.o
 .text.HAL_PCD_SetupStageCallback
                0x0000000008007b06       0x10 Src/usbd_conf.o
                0x0000000008007b06                HAL_PCD_SetupStageCallback
 .text.HAL_PCD_DataOutStageCallback
                0x0000000008007b16       0x14 Src/usbd_conf.o
                0x0000000008007b16                HAL_PCD_DataOutStageCallback
 .text.HAL_PCD_DataInStageCallback
                0x0000000008007b2a       0x12 Src/usbd_conf.o
                0x0000000008007b2a                HAL_PCD_DataInStageCallback
 .text.HAL_PCD_SOFCallback
                0x0000000008007b3c        0xc Src/usbd_conf.o
                0x0000000008007b3c                HAL_PCD_SOFCallback
 .text.HAL_PCD_ResetCallback
                0x0000000008007b48       0x22 Src/usbd_conf.o
                0x0000000008007b48                HAL_PCD_ResetCallback
 *fill*         0x0000000008007b6a        0x2 
 .text.HAL_PCD_SuspendCallback
                0x0000000008007b6c       0x20 Src/usbd_conf.o
                0x0000000008007b6c                HAL_PCD_SuspendCallback
 .text.HAL_PCD_ResumeCallback
                0x0000000008007b8c        0xc Src/usbd_conf.o
                0x0000000008007b8c                HAL_PCD_ResumeCallback
 .text.USBD_LL_OpenEP
                0x0000000008007b98       0x16 Src/usbd_conf.o
                0x0000000008007b98                USBD_LL_OpenEP
 .text.USBD_LL_StallEP
                0x0000000008007bae       0x10 Src/usbd_conf.o
                0x0000000008007bae                USBD_LL_StallEP
 .text.USBD_LL_ClearStallEP
                0x0000000008007bbe       0x10 Src/usbd_conf.o
                0x0000000008007bbe                USBD_LL_ClearStallEP
 .text.USBD_LL_IsStallEP
                0x0000000008007bce       0x26 Src/usbd_conf.o
                0x0000000008007bce                USBD_LL_IsStallEP
 .text.USBD_LL_SetUSBAddress
                0x0000000008007bf4       0x10 Src/usbd_conf.o
                0x0000000008007bf4                USBD_LL_SetUSBAddress
 .text.USBD_LL_Transmit
                0x0000000008007c04       0x10 Src/usbd_conf.o
                0x0000000008007c04                USBD_LL_Transmit
 .text.USBD_LL_PrepareReceive
                0x0000000008007c14       0x10 Src/usbd_conf.o
                0x0000000008007c14                USBD_LL_PrepareReceive
 .text.is_printable
                0x0000000008007c24        0xe Src/vt100.o
 *fill*         0x0000000008007c32        0x2 
 .text.find_key
                0x0000000008007c34       0x48 Src/vt100.o
 .text.vt100_process_byte
                0x0000000008007c7c       0x60 Src/vt100.o
                0x0000000008007c7c                vt100_process_byte
 .text.vt100_get_keycode
                0x0000000008007cdc       0x34 Src/vt100.o
                0x0000000008007cdc                vt100_get_keycode
 .text.fx_pwm_pulsing_light_run
                0x0000000008007d10       0xd8 Src/fx/fx_pwm_pulsing_light.o
                0x0000000008007d10                fx_pwm_pulsing_light_run
 .text.fx_pwm_pulsing_light
                0x0000000008007de8       0x10 Src/fx/fx_pwm_pulsing_light.o
                0x0000000008007de8                fx_pwm_pulsing_light
 .text.fx_pwm_pulsing_pulse_light
                0x0000000008007df8       0x10 Src/fx/fx_pwm_pulsing_light.o
                0x0000000008007df8                fx_pwm_pulsing_pulse_light
 .text.fx_pwm_running_light_run
                0x0000000008007e08       0xe4 Src/fx/fx_pwm_running_light.o
                0x0000000008007e08                fx_pwm_running_light_run
 .text.fx_pwm_running_light
                0x0000000008007eec       0x10 Src/fx/fx_pwm_running_light.o
                0x0000000008007eec                fx_pwm_running_light
 .text.fx_pwm_running_pulse_light
                0x0000000008007efc       0x10 Src/fx/fx_pwm_running_light.o
                0x0000000008007efc                fx_pwm_running_pulse_light
 *fill*         0x0000000008007f0c        0x4 
 .text.fx_strip_cylon_run
                0x0000000008007f10      0x14c Src/fx/fx_strip_cylon.o
                0x0000000008007f10                fx_strip_cylon_run
 .text.fx_strip_cylon
                0x000000000800805c       0x10 Src/fx/fx_strip_cylon.o
                0x000000000800805c                fx_strip_cylon
 .text.fx_strip_rainbow_run
                0x000000000800806c       0xec Src/fx/fx_strip_rainbow.o
                0x000000000800806c                fx_strip_rainbow_run
 .text.fx_strip_rainbow
                0x0000000008008158       0x10 Src/fx/fx_strip_rainbow.o
                0x0000000008008158                fx_strip_rainbow
 .text.fx_strip_running_light_run
                0x0000000008008168      0x148 Src/fx/fx_strip_running_light.o
                0x0000000008008168                fx_strip_running_light_run
 .text.fx_strip_running_light
                0x00000000080082b0       0x10 Src/fx/fx_strip_running_light.o
                0x00000000080082b0                fx_strip_running_light
 .text.reset_frame_delay
                0x00000000080082c0        0xc Src/fx_api/fx_api.o
                0x00000000080082c0                reset_frame_delay
 .text.check_frame_delay
                0x00000000080082cc       0x20 Src/fx_api/fx_api.o
                0x00000000080082cc                check_frame_delay
 .text.check_custom_frame_delay
                0x00000000080082ec       0x16 Src/fx_api/fx_api.o
                0x00000000080082ec                check_custom_frame_delay
 .text.set_pwm_light
                0x0000000008008302        0xa Src/fx_api/fx_api.o
                0x0000000008008302                set_pwm_light
 .text.get_DMX_variable
                0x000000000800830c        0x8 Src/fx_api/fx_api.o
                0x000000000800830c                get_DMX_variable
 .text.millisec
                0x0000000008008314        0x8 Src/fx_api/fx_api.o
                0x0000000008008314                millisec
 .text.scale256
                0x000000000800831c        0x8 Src/fx_api/fx_api.o
                0x000000000800831c                scale256
 .text.create_rgb_buffer
                0x0000000008008324       0x20 Src/fx_api/fx_api.o
                0x0000000008008324                create_rgb_buffer
 .text.destroy_rgb_buffer
                0x0000000008008344        0xa Src/fx_api/fx_api.o
                0x0000000008008344                destroy_rgb_buffer
 .text.set_buffer_pixel
                0x000000000800834e       0x18 Src/fx_api/fx_api.o
                0x000000000800834e                set_buffer_pixel
 .text.set_pixels_from_buf
                0x0000000008008366       0x3c Src/fx_api/fx_api.o
                0x0000000008008366                set_pixels_from_buf
 .text.fade_rgb_buf
                0x00000000080083a2       0x42 Src/fx_api/fx_api.o
                0x00000000080083a2                fade_rgb_buf
 .text.WS2812B_show
                0x00000000080083e4       0xb0 Src/ws2812B/WS2812B.o
                0x00000000080083e4                WS2812B_show
 .text.WS2812B_setPixelColor
                0x0000000008008494       0x60 Src/ws2812B/WS2812B.o
                0x0000000008008494                WS2812B_setPixelColor
 .text.WS2812B_setPixelColorDirect
                0x00000000080084f4       0x1a Src/ws2812B/WS2812B.o
                0x00000000080084f4                WS2812B_setPixelColorDirect
 .text.WS2812B_Color
                0x000000000800850e        0xa Src/ws2812B/WS2812B.o
                0x000000000800850e                WS2812B_Color
 .text.WS2812B_numPixels
                0x0000000008008518       0x14 Src/ws2812B/WS2812B.o
                0x0000000008008518                WS2812B_numPixels
 .text.WS2812B_clear
                0x000000000800852c       0x40 Src/ws2812B/WS2812B.o
                0x000000000800852c                WS2812B_clear
 .text.WS2812B_init
                0x000000000800856c      0x144 Src/ws2812B/WS2812B.o
                0x000000000800856c                WS2812B_init
 .text.WS2812B_colorWheel
                0x00000000080086b0       0x54 Src/ws2812B/WS2812B.o
                0x00000000080086b0                WS2812B_colorWheel
 .text.WS2812B_rainbow
                0x0000000008008704       0x5a Src/ws2812B/WS2812B.o
                0x0000000008008704                WS2812B_rainbow
 *fill*         0x000000000800875e        0x2 
 .text.WS2812B_test
                0x0000000008008760       0x38 Src/ws2812B/WS2812B.o
                0x0000000008008760                WS2812B_test
 .text.Reset_Handler
                0x0000000008008798       0x48 startup/startup_stm32f103xb.o
                0x0000000008008798                Reset_Handler
 .text.Default_Handler
                0x00000000080087e0        0x2 startup/startup_stm32f103xb.o
                0x00000000080087e0                RTC_Alarm_IRQHandler
                0x00000000080087e0                EXTI2_IRQHandler
                0x00000000080087e0                TIM1_CC_IRQHandler
                0x00000000080087e0                PVD_IRQHandler
                0x00000000080087e0                EXTI3_IRQHandler
                0x00000000080087e0                EXTI0_IRQHandler
                0x00000000080087e0                I2C2_EV_IRQHandler
                0x00000000080087e0                SPI1_IRQHandler
                0x00000000080087e0                TAMPER_IRQHandler
                0x00000000080087e0                RTC_IRQHandler
                0x00000000080087e0                DMA1_Channel7_IRQHandler
                0x00000000080087e0                CAN1_RX1_IRQHandler
                0x00000000080087e0                TIM4_IRQHandler
                0x00000000080087e0                I2C1_EV_IRQHandler
                0x00000000080087e0                DMA1_Channel6_IRQHandler
                0x00000000080087e0                TIM3_IRQHandler
                0x00000000080087e0                RCC_IRQHandler
                0x00000000080087e0                TIM1_TRG_COM_IRQHandler
                0x00000000080087e0                DMA1_Channel1_IRQHandler
                0x00000000080087e0                Default_Handler
                0x00000000080087e0                EXTI15_10_IRQHandler
                0x00000000080087e0                EXTI9_5_IRQHandler
                0x00000000080087e0                SPI2_IRQHandler
                0x00000000080087e0                DMA1_Channel5_IRQHandler
                0x00000000080087e0                EXTI4_IRQHandler
                0x00000000080087e0                USB_HP_CAN1_TX_IRQHandler
                0x00000000080087e0                TIM1_UP_IRQHandler
                0x00000000080087e0                WWDG_IRQHandler
                0x00000000080087e0                TIM2_IRQHandler
                0x00000000080087e0                TIM1_BRK_IRQHandler
                0x00000000080087e0                EXTI1_IRQHandler
                0x00000000080087e0                USART2_IRQHandler
                0x00000000080087e0                I2C2_ER_IRQHandler
                0x00000000080087e0                DMA1_Channel2_IRQHandler
                0x00000000080087e0                CAN1_SCE_IRQHandler
                0x00000000080087e0                FLASH_IRQHandler
                0x00000000080087e0                I2C1_ER_IRQHandler
                0x00000000080087e0                USBWakeUp_IRQHandler
 .text.atoi     0x00000000080087e2        0x8 c:/st/stm32cubeide_1.3.0/stm32cubeide/plugins/com.st.stm32cube.ide.mcu.externaltools.gnu-tools-for-stm32.7-2018-q2-update.win32_1.0.0.201904181610/tools/bin/../lib/gcc/arm-none-eabi/7.3.1/../../../../arm-none-eabi/lib/thumb/v7-m\libc_nano.a(lib_a-atoi.o)
                0x00000000080087e2                atoi
 *fill*         0x00000000080087ea        0x2 
 .text.calloc   0x00000000080087ec       0x10 c:/st/stm32cubeide_1.3.0/stm32cubeide/plugins/com.st.stm32cube.ide.mcu.externaltools.gnu-tools-for-stm32.7-2018-q2-update.win32_1.0.0.201904181610/tools/bin/../lib/gcc/arm-none-eabi/7.3.1/../../../../arm-none-eabi/lib/thumb/v7-m\libc_nano.a(lib_a-calloc.o)
                0x00000000080087ec                calloc
 .text.__errno  0x00000000080087fc        0xc c:/st/stm32cubeide_1.3.0/stm32cubeide/plugins/com.st.stm32cube.ide.mcu.externaltools.gnu-tools-for-stm32.7-2018-q2-update.win32_1.0.0.201904181610/tools/bin/../lib/gcc/arm-none-eabi/7.3.1/../../../../arm-none-eabi/lib/thumb/v7-m\libc_nano.a(lib_a-errno.o)
                0x00000000080087fc                __errno
 .text.__libc_init_array
                0x0000000008008808       0x48 c:/st/stm32cubeide_1.3.0/stm32cubeide/plugins/com.st.stm32cube.ide.mcu.externaltools.gnu-tools-for-stm32.7-2018-q2-update.win32_1.0.0.201904181610/tools/bin/../lib/gcc/arm-none-eabi/7.3.1/../../../../arm-none-eabi/lib/thumb/v7-m\libc_nano.a(lib_a-init.o)
                0x0000000008008808                __libc_init_array
 .text.malloc   0x0000000008008850       0x10 c:/st/stm32cubeide_1.3.0/stm32cubeide/plugins/com.st.stm32cube.ide.mcu.externaltools.gnu-tools-for-stm32.7-2018-q2-update.win32_1.0.0.201904181610/tools/bin/../lib/gcc/arm-none-eabi/7.3.1/../../../../arm-none-eabi/lib/thumb/v7-m\libc_nano.a(lib_a-malloc.o)
                0x0000000008008850                malloc
 .text.free     0x0000000008008860       0x10 c:/st/stm32cubeide_1.3.0/stm32cubeide/plugins/com.st.stm32cube.ide.mcu.externaltools.gnu-tools-for-stm32.7-2018-q2-update.win32_1.0.0.201904181610/tools/bin/../lib/gcc/arm-none-eabi/7.3.1/../../../../arm-none-eabi/lib/thumb/v7-m\libc_nano.a(lib_a-malloc.o)
                0x0000000008008860                free
 .text.memcpy   0x0000000008008870       0x16 c:/st/stm32cubeide_1.3.0/stm32cubeide/plugins/com.st.stm32cube.ide.mcu.externaltools.gnu-tools-for-stm32.7-2018-q2-update.win32_1.0.0.201904181610/tools/bin/../lib/gcc/arm-none-eabi/7.3.1/../../../../arm-none-eabi/lib/thumb/v7-m\libc_nano.a(lib_a-memcpy-stub.o)
                0x0000000008008870                memcpy
 .text.memset   0x0000000008008886       0x10 c:/st/stm32cubeide_1.3.0/stm32cubeide/plugins/com.st.stm32cube.ide.mcu.externaltools.gnu-tools-for-stm32.7-2018-q2-update.win32_1.0.0.201904181610/tools/bin/../lib/gcc/arm-none-eabi/7.3.1/../../../../arm-none-eabi/lib/thumb/v7-m\libc_nano.a(lib_a-memset.o)
                0x0000000008008886                memset
 .text._calloc_r
                0x0000000008008896       0x1c c:/st/stm32cubeide_1.3.0/stm32cubeide/plugins/com.st.stm32cube.ide.mcu.externaltools.gnu-tools-for-stm32.7-2018-q2-update.win32_1.0.0.201904181610/tools/bin/../lib/gcc/arm-none-eabi/7.3.1/../../../../arm-none-eabi/lib/thumb/v7-m\libc_nano.a(lib_a-nano-callocr.o)
                0x0000000008008896                _calloc_r
 *fill*         0x00000000080088b2        0x2 
 .text._free_r  0x00000000080088b4       0x98 c:/st/stm32cubeide_1.3.0/stm32cubeide/plugins/com.st.stm32cube.ide.mcu.externaltools.gnu-tools-for-stm32.7-2018-q2-update.win32_1.0.0.201904181610/tools/bin/../lib/gcc/arm-none-eabi/7.3.1/../../../../arm-none-eabi/lib/thumb/v7-m\libc_nano.a(lib_a-nano-freer.o)
                0x00000000080088b4                _free_r
 .text._malloc_r
                0x000000000800894c       0xb4 c:/st/stm32cubeide_1.3.0/stm32cubeide/plugins/com.st.stm32cube.ide.mcu.externaltools.gnu-tools-for-stm32.7-2018-q2-update.win32_1.0.0.201904181610/tools/bin/../lib/gcc/arm-none-eabi/7.3.1/../../../../arm-none-eabi/lib/thumb/v7-m\libc_nano.a(lib_a-nano-mallocr.o)
                0x000000000800894c                _malloc_r
 .text._sbrk_r  0x0000000008008a00       0x20 c:/st/stm32cubeide_1.3.0/stm32cubeide/plugins/com.st.stm32cube.ide.mcu.externaltools.gnu-tools-for-stm32.7-2018-q2-update.win32_1.0.0.201904181610/tools/bin/../lib/gcc/arm-none-eabi/7.3.1/../../../../arm-none-eabi/lib/thumb/v7-m\libc_nano.a(lib_a-sbrkr.o)
                0x0000000008008a00                _sbrk_r
 .text.strncmp  0x0000000008008a20       0x24 c:/st/stm32cubeide_1.3.0/stm32cubeide/plugins/com.st.stm32cube.ide.mcu.externaltools.gnu-tools-for-stm32.7-2018-q2-update.win32_1.0.0.201904181610/tools/bin/../lib/gcc/arm-none-eabi/7.3.1/../../../../arm-none-eabi/lib/thumb/v7-m\libc_nano.a(lib_a-strncmp.o)
                0x0000000008008a20                strncmp
 .text.strncpy  0x0000000008008a44       0x2a c:/st/stm32cubeide_1.3.0/stm32cubeide/plugins/com.st.stm32cube.ide.mcu.externaltools.gnu-tools-for-stm32.7-2018-q2-update.win32_1.0.0.201904181610/tools/bin/../lib/gcc/arm-none-eabi/7.3.1/../../../../arm-none-eabi/lib/thumb/v7-m\libc_nano.a(lib_a-strncpy.o)
                0x0000000008008a44                strncpy
 *fill*         0x0000000008008a6e        0x2 
 .text.strtok   0x0000000008008a70       0x54 c:/st/stm32cubeide_1.3.0/stm32cubeide/plugins/com.st.stm32cube.ide.mcu.externaltools.gnu-tools-for-stm32.7-2018-q2-update.win32_1.0.0.201904181610/tools/bin/../lib/gcc/arm-none-eabi/7.3.1/../../../../arm-none-eabi/lib/thumb/v7-m\libc_nano.a(lib_a-strtok.o)
                0x0000000008008a70                strtok
 .text.__strtok_r
                0x0000000008008ac4       0x54 c:/st/stm32cubeide_1.3.0/stm32cubeide/plugins/com.st.stm32cube.ide.mcu.externaltools.gnu-tools-for-stm32.7-2018-q2-update.win32_1.0.0.201904181610/tools/bin/../lib/gcc/arm-none-eabi/7.3.1/../../../../arm-none-eabi/lib/thumb/v7-m\libc_nano.a(lib_a-strtok_r.o)
                0x0000000008008ac4                __strtok_r
 .text._strtol_l.isra.0
                0x0000000008008b18       0xf6 c:/st/stm32cubeide_1.3.0/stm32cubeide/plugins/com.st.stm32cube.ide.mcu.externaltools.gnu-tools-for-stm32.7-2018-q2-update.win32_1.0.0.201904181610/tools/bin/../lib/gcc/arm-none-eabi/7.3.1/../../../../arm-none-eabi/lib/thumb/v7-m\libc_nano.a(lib_a-strtol.o)
 *fill*         0x0000000008008c0e        0x2 
 .text.strtol   0x0000000008008c10       0x2c c:/st/stm32cubeide_1.3.0/stm32cubeide/plugins/com.st.stm32cube.ide.mcu.externaltools.gnu-tools-for-stm32.7-2018-q2-update.win32_1.0.0.201904181610/tools/bin/../lib/gcc/arm-none-eabi/7.3.1/../../../../arm-none-eabi/lib/thumb/v7-m\libc_nano.a(lib_a-strtol.o)
                0x0000000008008c10                strtol
 .text._vsnprintf_r
                0x0000000008008c3c       0x58 c:/st/stm32cubeide_1.3.0/stm32cubeide/plugins/com.st.stm32cube.ide.mcu.externaltools.gnu-tools-for-stm32.7-2018-q2-update.win32_1.0.0.201904181610/tools/bin/../lib/gcc/arm-none-eabi/7.3.1/../../../../arm-none-eabi/lib/thumb/v7-m\libc_nano.a(lib_a-vsnprintf.o)
                0x0000000008008c3c                _vsniprintf_r
                0x0000000008008c3c                _vsnprintf_r
 .text.vsnprintf
                0x0000000008008c94       0x1c c:/st/stm32cubeide_1.3.0/stm32cubeide/plugins/com.st.stm32cube.ide.mcu.externaltools.gnu-tools-for-stm32.7-2018-q2-update.win32_1.0.0.201904181610/tools/bin/../lib/gcc/arm-none-eabi/7.3.1/../../../../arm-none-eabi/lib/thumb/v7-m\libc_nano.a(lib_a-vsnprintf.o)
                0x0000000008008c94                vsniprintf
                0x0000000008008c94                vsnprintf
 .text.__locale_ctype_ptr_l
                0x0000000008008cb0        0x6 c:/st/stm32cubeide_1.3.0/stm32cubeide/plugins/com.st.stm32cube.ide.mcu.externaltools.gnu-tools-for-stm32.7-2018-q2-update.win32_1.0.0.201904181610/tools/bin/../lib/gcc/arm-none-eabi/7.3.1/../../../../arm-none-eabi/lib/thumb/v7-m\libc_nano.a(lib_a-locale.o)
                0x0000000008008cb0                __locale_ctype_ptr_l
 .text.__ascii_mbtowc
                0x0000000008008cb6       0x24 c:/st/stm32cubeide_1.3.0/stm32cubeide/plugins/com.st.stm32cube.ide.mcu.externaltools.gnu-tools-for-stm32.7-2018-q2-update.win32_1.0.0.201904181610/tools/bin/../lib/gcc/arm-none-eabi/7.3.1/../../../../arm-none-eabi/lib/thumb/v7-m\libc_nano.a(lib_a-mbtowc_r.o)
                0x0000000008008cb6                __ascii_mbtowc
 .text.__malloc_lock
                0x0000000008008cda        0x2 c:/st/stm32cubeide_1.3.0/stm32cubeide/plugins/com.st.stm32cube.ide.mcu.externaltools.gnu-tools-for-stm32.7-2018-q2-update.win32_1.0.0.201904181610/tools/bin/../lib/gcc/arm-none-eabi/7.3.1/../../../../arm-none-eabi/lib/thumb/v7-m\libc_nano.a(lib_a-mlock.o)
                0x0000000008008cda                __malloc_lock
 .text.__malloc_unlock
                0x0000000008008cdc        0x2 c:/st/stm32cubeide_1.3.0/stm32cubeide/plugins/com.st.stm32cube.ide.mcu.externaltools.gnu-tools-for-stm32.7-2018-q2-update.win32_1.0.0.201904181610/tools/bin/../lib/gcc/arm-none-eabi/7.3.1/../../../../arm-none-eabi/lib/thumb/v7-m\libc_nano.a(lib_a-mlock.o)
                0x0000000008008cdc                __malloc_unlock
 .text.__ssputs_r
                0x0000000008008cde       0xb4 c:/st/stm32cubeide_1.3.0/stm32cubeide/plugins/com.st.stm32cube.ide.mcu.externaltools.gnu-tools-for-stm32.7-2018-q2-update.win32_1.0.0.201904181610/tools/bin/../lib/gcc/arm-none-eabi/7.3.1/../../../../arm-none-eabi/lib/thumb/v7-m\libc_nano.a(lib_a-nano-svfprintf.o)
                0x0000000008008cde                __ssputs_r
 *fill*         0x0000000008008d92        0x2 
 .text._svfprintf_r
                0x0000000008008d94      0x1f0 c:/st/stm32cubeide_1.3.0/stm32cubeide/plugins/com.st.stm32cube.ide.mcu.externaltools.gnu-tools-for-stm32.7-2018-q2-update.win32_1.0.0.201904181610/tools/bin/../lib/gcc/arm-none-eabi/7.3.1/../../../../arm-none-eabi/lib/thumb/v7-m\libc_nano.a(lib_a-nano-svfprintf.o)
                0x0000000008008d94                _svfiprintf_r
                0x0000000008008d94                _svfprintf_r
 .text._printf_common
                0x0000000008008f84       0xec c:/st/stm32cubeide_1.3.0/stm32cubeide/plugins/com.st.stm32cube.ide.mcu.externaltools.gnu-tools-for-stm32.7-2018-q2-update.win32_1.0.0.201904181610/tools/bin/../lib/gcc/arm-none-eabi/7.3.1/../../../../arm-none-eabi/lib/thumb/v7-m\libc_nano.a(lib_a-nano-vfprintf_i.o)
                0x0000000008008f84                _printf_common
 .text._printf_i
                0x0000000008009070      0x224 c:/st/stm32cubeide_1.3.0/stm32cubeide/plugins/com.st.stm32cube.ide.mcu.externaltools.gnu-tools-for-stm32.7-2018-q2-update.win32_1.0.0.201904181610/tools/bin/../lib/gcc/arm-none-eabi/7.3.1/../../../../arm-none-eabi/lib/thumb/v7-m\libc_nano.a(lib_a-nano-vfprintf_i.o)
                0x0000000008009070                _printf_i
 .text.__ascii_wctomb
                0x0000000008009294       0x1a c:/st/stm32cubeide_1.3.0/stm32cubeide/plugins/com.st.stm32cube.ide.mcu.externaltools.gnu-tools-for-stm32.7-2018-q2-update.win32_1.0.0.201904181610/tools/bin/../lib/gcc/arm-none-eabi/7.3.1/../../../../arm-none-eabi/lib/thumb/v7-m\libc_nano.a(lib_a-wctomb_r.o)
                0x0000000008009294                __ascii_wctomb
 .text.memchr   0x00000000080092ae       0x1c c:/st/stm32cubeide_1.3.0/stm32cubeide/plugins/com.st.stm32cube.ide.mcu.externaltools.gnu-tools-for-stm32.7-2018-q2-update.win32_1.0.0.201904181610/tools/bin/../lib/gcc/arm-none-eabi/7.3.1/../../../../arm-none-eabi/lib/thumb/v7-m\libc_nano.a(lib_a-memchr-stub.o)
                0x00000000080092ae                memchr
 .text.memmove  0x00000000080092ca       0x32 c:/st/stm32cubeide_1.3.0/stm32cubeide/plugins/com.st.stm32cube.ide.mcu.externaltools.gnu-tools-for-stm32.7-2018-q2-update.win32_1.0.0.201904181610/tools/bin/../lib/gcc/arm-none-eabi/7.3.1/../../../../arm-none-eabi/lib/thumb/v7-m\libc_nano.a(lib_a-memmove.o)
                0x00000000080092ca                memmove
 .text._realloc_r
                0x00000000080092fc       0x4c c:/st/stm32cubeide_1.3.0/stm32cubeide/plugins/com.st.stm32cube.ide.mcu.externaltools.gnu-tools-for-stm32.7-2018-q2-update.win32_1.0.0.201904181610/tools/bin/../lib/gcc/arm-none-eabi/7.3.1/../../../../arm-none-eabi/lib/thumb/v7-m\libc_nano.a(lib_a-nano-reallocr.o)
                0x00000000080092fc                _realloc_r
 .text._malloc_usable_size_r
                0x0000000008009348       0x10 c:/st/stm32cubeide_1.3.0/stm32cubeide/plugins/com.st.stm32cube.ide.mcu.externaltools.gnu-tools-for-stm32.7-2018-q2-update.win32_1.0.0.201904181610/tools/bin/../lib/gcc/arm-none-eabi/7.3.1/../../../../arm-none-eabi/lib/thumb/v7-m\libc_nano.a(lib_a-nano-msizer.o)
                0x0000000008009348                _malloc_usable_size_r
 .text.round    0x0000000008009358       0x8c c:/st/stm32cubeide_1.3.0/stm32cubeide/plugins/com.st.stm32cube.ide.mcu.externaltools.gnu-tools-for-stm32.7-2018-q2-update.win32_1.0.0.201904181610/tools/bin/../lib/gcc/arm-none-eabi/7.3.1/../../../../arm-none-eabi/lib/thumb/v7-m\libm.a(lib_a-s_round.o)
                0x0000000008009358                round
 .text.sin      0x00000000080093e4       0x74 c:/st/stm32cubeide_1.3.0/stm32cubeide/plugins/com.st.stm32cube.ide.mcu.externaltools.gnu-tools-for-stm32.7-2018-q2-update.win32_1.0.0.201904181610/tools/bin/../lib/gcc/arm-none-eabi/7.3.1/../../../../arm-none-eabi/lib/thumb/v7-m\libm.a(lib_a-s_sin.o)
                0x00000000080093e4                sin
 .text.pow      0x0000000008009458      0x2b8 c:/st/stm32cubeide_1.3.0/stm32cubeide/plugins/com.st.stm32cube.ide.mcu.externaltools.gnu-tools-for-stm32.7-2018-q2-update.win32_1.0.0.201904181610/tools/bin/../lib/gcc/arm-none-eabi/7.3.1/../../../../arm-none-eabi/lib/thumb/v7-m\libm.a(lib_a-w_pow.o)
                0x0000000008009458                pow
 .text.__ieee754_pow
                0x0000000008009710      0xa14 c:/st/stm32cubeide_1.3.0/stm32cubeide/plugins/com.st.stm32cube.ide.mcu.externaltools.gnu-tools-for-stm32.7-2018-q2-update.win32_1.0.0.201904181610/tools/bin/../lib/gcc/arm-none-eabi/7.3.1/../../../../arm-none-eabi/lib/thumb/v7-m\libm.a(lib_a-e_pow.o)
                0x0000000008009710                __ieee754_pow
 *fill*         0x000000000800a124        0x4 
 .text.__ieee754_rem_pio2
                0x000000000800a128      0x3e0 c:/st/stm32cubeide_1.3.0/stm32cubeide/plugins/com.st.stm32cube.ide.mcu.externaltools.gnu-tools-for-stm32.7-2018-q2-update.win32_1.0.0.201904181610/tools/bin/../lib/gcc/arm-none-eabi/7.3.1/../../../../arm-none-eabi/lib/thumb/v7-m\libm.a(lib_a-e_rem_pio2.o)
                0x000000000800a128                __ieee754_rem_pio2
 .text.__ieee754_sqrt
                0x000000000800a508      0x158 c:/st/stm32cubeide_1.3.0/stm32cubeide/plugins/com.st.stm32cube.ide.mcu.externaltools.gnu-tools-for-stm32.7-2018-q2-update.win32_1.0.0.201904181610/tools/bin/../lib/gcc/arm-none-eabi/7.3.1/../../../../arm-none-eabi/lib/thumb/v7-m\libm.a(lib_a-e_sqrt.o)
                0x000000000800a508                __ieee754_sqrt
 .text.__kernel_cos
                0x000000000800a660      0x17c c:/st/stm32cubeide_1.3.0/stm32cubeide/plugins/com.st.stm32cube.ide.mcu.externaltools.gnu-tools-for-stm32.7-2018-q2-update.win32_1.0.0.201904181610/tools/bin/../lib/gcc/arm-none-eabi/7.3.1/../../../../arm-none-eabi/lib/thumb/v7-m\libm.a(lib_a-k_cos.o)
                0x000000000800a660                __kernel_cos
 .text.__kernel_rem_pio2
                0x000000000800a7dc      0x694 c:/st/stm32cubeide_1.3.0/stm32cubeide/plugins/com.st.stm32cube.ide.mcu.externaltools.gnu-tools-for-stm32.7-2018-q2-update.win32_1.0.0.201904181610/tools/bin/../lib/gcc/arm-none-eabi/7.3.1/../../../../arm-none-eabi/lib/thumb/v7-m\libm.a(lib_a-k_rem_pio2.o)
                0x000000000800a7dc                __kernel_rem_pio2
 .text.__kernel_sin
                0x000000000800ae70      0x16c c:/st/stm32cubeide_1.3.0/stm32cubeide/plugins/com.st.stm32cube.ide.mcu.externaltools.gnu-tools-for-stm32.7-2018-q2-update.win32_1.0.0.201904181610/tools/bin/../lib/gcc/arm-none-eabi/7.3.1/../../../../arm-none-eabi/lib/thumb/v7-m\libm.a(lib_a-k_sin.o)
                0x000000000800ae70                __kernel_sin
 .text.fabs     0x000000000800afdc        0x8 c:/st/stm32cubeide_1.3.0/stm32cubeide/plugins/com.st.stm32cube.ide.mcu.externaltools.gnu-tools-for-stm32.7-2018-q2-update.win32_1.0.0.201904181610/tools/bin/../lib/gcc/arm-none-eabi/7.3.1/../../../../arm-none-eabi/lib/thumb/v7-m\libm.a(lib_a-s_fabs.o)
                0x000000000800afdc                fabs
 .text.finite   0x000000000800afe4        0xc c:/st/stm32cubeide_1.3.0/stm32cubeide/plugins/com.st.stm32cube.ide.mcu.externaltools.gnu-tools-for-stm32.7-2018-q2-update.win32_1.0.0.201904181610/tools/bin/../lib/gcc/arm-none-eabi/7.3.1/../../../../arm-none-eabi/lib/thumb/v7-m\libm.a(lib_a-s_finite.o)
                0x000000000800afe4                finite
 .text.floor    0x000000000800aff0      0x108 c:/st/stm32cubeide_1.3.0/stm32cubeide/plugins/com.st.stm32cube.ide.mcu.externaltools.gnu-tools-for-stm32.7-2018-q2-update.win32_1.0.0.201904181610/tools/bin/../lib/gcc/arm-none-eabi/7.3.1/../../../../arm-none-eabi/lib/thumb/v7-m\libm.a(lib_a-s_floor.o)
                0x000000000800aff0                floor
 .text.matherr  0x000000000800b0f8        0x4 c:/st/stm32cubeide_1.3.0/stm32cubeide/plugins/com.st.stm32cube.ide.mcu.externaltools.gnu-tools-for-stm32.7-2018-q2-update.win32_1.0.0.201904181610/tools/bin/../lib/gcc/arm-none-eabi/7.3.1/../../../../arm-none-eabi/lib/thumb/v7-m\libm.a(lib_a-s_matherr.o)
                0x000000000800b0f8                matherr
 .text.nan      0x000000000800b0fc        0xc c:/st/stm32cubeide_1.3.0/stm32cubeide/plugins/com.st.stm32cube.ide.mcu.externaltools.gnu-tools-for-stm32.7-2018-q2-update.win32_1.0.0.201904181610/tools/bin/../lib/gcc/arm-none-eabi/7.3.1/../../../../arm-none-eabi/lib/thumb/v7-m\libm.a(lib_a-s_nan.o)
                0x000000000800b0fc                nan
 .text.rint     0x000000000800b108      0x114 c:/st/stm32cubeide_1.3.0/stm32cubeide/plugins/com.st.stm32cube.ide.mcu.externaltools.gnu-tools-for-stm32.7-2018-q2-update.win32_1.0.0.201904181610/tools/bin/../lib/gcc/arm-none-eabi/7.3.1/../../../../arm-none-eabi/lib/thumb/v7-m\libm.a(lib_a-s_rint.o)
                0x000000000800b108                rint
 *fill*         0x000000000800b21c        0x4 
 .text.scalbn   0x000000000800b220       0xdc c:/st/stm32cubeide_1.3.0/stm32cubeide/plugins/com.st.stm32cube.ide.mcu.externaltools.gnu-tools-for-stm32.7-2018-q2-update.win32_1.0.0.201904181610/tools/bin/../lib/gcc/arm-none-eabi/7.3.1/../../../../arm-none-eabi/lib/thumb/v7-m\libm.a(lib_a-s_scalbn.o)
                0x000000000800b220                scalbn
 .text.copysign
                0x000000000800b2fc       0x12 c:/st/stm32cubeide_1.3.0/stm32cubeide/plugins/com.st.stm32cube.ide.mcu.externaltools.gnu-tools-for-stm32.7-2018-q2-update.win32_1.0.0.201904181610/tools/bin/../lib/gcc/arm-none-eabi/7.3.1/../../../../arm-none-eabi/lib/thumb/v7-m\libm.a(lib_a-s_copysign.o)
                0x000000000800b2fc                copysign
 *(.glue_7)
 .glue_7        0x000000000800b30e        0x0 linker stubs
 *(.glue_7t)
 .glue_7t       0x000000000800b30e        0x0 linker stubs
 *(.eh_frame)
 *fill*         0x000000000800b30e        0x2 
 .eh_frame      0x000000000800b310        0x0 c:/st/stm32cubeide_1.3.0/stm32cubeide/plugins/com.st.stm32cube.ide.mcu.externaltools.gnu-tools-for-stm32.7-2018-q2-update.win32_1.0.0.201904181610/tools/bin/../lib/gcc/arm-none-eabi/7.3.1/thumb/v7-m/crtbegin.o
 *(.init)
 .init          0x000000000800b310        0x4 c:/st/stm32cubeide_1.3.0/stm32cubeide/plugins/com.st.stm32cube.ide.mcu.externaltools.gnu-tools-for-stm32.7-2018-q2-update.win32_1.0.0.201904181610/tools/bin/../lib/gcc/arm-none-eabi/7.3.1/thumb/v7-m/crti.o
                0x000000000800b310                _init
 .init          0x000000000800b314        0x8 c:/st/stm32cubeide_1.3.0/stm32cubeide/plugins/com.st.stm32cube.ide.mcu.externaltools.gnu-tools-for-stm32.7-2018-q2-update.win32_1.0.0.201904181610/tools/bin/../lib/gcc/arm-none-eabi/7.3.1/thumb/v7-m/crtn.o
 *(.fini)
 .fini          0x000000000800b31c        0x4 c:/st/stm32cubeide_1.3.0/stm32cubeide/plugins/com.st.stm32cube.ide.mcu.externaltools.gnu-tools-for-stm32.7-2018-q2-update.win32_1.0.0.201904181610/tools/bin/../lib/gcc/arm-none-eabi/7.3.1/thumb/v7-m/crti.o
                0x000000000800b31c                _fini
 .fini          0x000000000800b320        0x8 c:/st/stm32cubeide_1.3.0/stm32cubeide/plugins/com.st.stm32cube.ide.mcu.externaltools.gnu-tools-for-stm32.7-2018-q2-update.win32_1.0.0.201904181610/tools/bin/../lib/gcc/arm-none-eabi/7.3.1/thumb/v7-m/crtn.o
                0x000000000800b328                . = ALIGN (0x4)
                0x000000000800b328                _etext = .

.vfp11_veneer   0x000000000800b328        0x0
 .vfp11_veneer  0x000000000800b328        0x0 linker stubs

.v4_bx          0x000000000800b328        0x0
 .v4_bx         0x000000000800b328        0x0 linker stubs

.iplt           0x000000000800b328        0x0
 .iplt          0x000000000800b328        0x0 c:/st/stm32cubeide_1.3.0/stm32cubeide/plugins/com.st.stm32cube.ide.mcu.externaltools.gnu-tools-for-stm32.7-2018-q2-update.win32_1.0.0.201904181610/tools/bin/../lib/gcc/arm-none-eabi/7.3.1/thumb/v7-m/crtbegin.o

.rodata         0x000000000800b328     0x1860
                0x000000000800b328                . = ALIGN (0x4)
 *(.rodata)
 .rodata        0x000000000800b328       0x12 Drivers/STM32F1xx_HAL_Driver/Src/stm32f1xx_hal_rcc.o
 *(.rodata*)
 *fill*         0x000000000800b33a        0x2 
 .rodata.str1.4
                0x000000000800b33c      0x142 Src/dmx512_config.o
 *fill*         0x000000000800b47e        0x2 
 .rodata.param  0x000000000800b480       0x14 Src/fx_list.o
 .rodata.register_fx.str1.4
                0x000000000800b494       0x1e Src/fx_list.o
 *fill*         0x000000000800b4b2        0x2 
 .rodata.start_fx.str1.4
                0x000000000800b4b4       0x58 Src/fx_manager.o
 .rodata.main.str1.4
                0x000000000800b50c      0x29d Src/main.o
                                        0x2a1 (size before relaxing)
 *fill*         0x000000000800b7a9        0x3 
 .rodata.PWM_Timer_Init.str1.4
                0x000000000800b7ac       0x63 Src/pwm_control.o
 *fill*         0x000000000800b80f        0x1 
 .rodata.channelinfo
                0x000000000800b810       0x30 Src/pwm_control.o
                0x000000000800b810                channelinfo
 .rodata.load_settings.str1.4
                0x000000000800b840       0x3c Src/settings.o
 .rodata.print_settings.str1.4
                0x000000000800b87c      0x43b Src/settings.o
                                        0x453 (size before relaxing)
 *fill*         0x000000000800bcb7        0x1 
 .rodata.save_settings.str1.4
                0x000000000800bcb8       0x14 Src/settings.o
 .rodata.parse_shell_cmd.str1.4
                0x000000000800bccc        0x2 Src/shell.o
 .rodata.print.str1.4
                0x000000000800bccc        0x3 Src/shell.o
 *fill*         0x000000000800bccf        0x1 
 .rodata.process_shell_cmd.str1.4
                0x000000000800bcd0       0x10 Src/shell.o
                                         0x14 (size before relaxing)
 .rodata.shell_process.str1.4
                0x000000000800bce0        0x4 Src/shell.o
                                          0x9 (size before relaxing)
 .rodata.SHELL_CMD_NUM
                0x000000000800bce4        0x4 Src/shell_cmd.o
                0x000000000800bce4                SHELL_CMD_NUM
 .rodata.shell_cmd_currentfps.str1.4
                0x000000000800bce8       0x12 Src/shell_cmd.o
 *fill*         0x000000000800bcfa        0x2 
 .rodata.shell_cmd_dumpregs.str1.4
                0x000000000800bcfc       0x62 Src/shell_cmd.o
 *fill*         0x000000000800bd5e        0x2 
 .rodata.shell_cmd_getaddr.str1.4
                0x000000000800bd60       0x13 Src/shell_cmd.o
 *fill*         0x000000000800bd73        0x1 
 .rodata.shell_cmd_getmode.str1.4
                0x000000000800bd74       0x25 Src/shell_cmd.o
 *fill*         0x000000000800bd99        0x3 
 .rodata.shell_cmd_list
                0x000000000800bd9c      0x108 Src/shell_cmd.o
                0x000000000800bd9c                shell_cmd_list
 .rodata.shell_cmd_setfxmultiplier.str1.4
                0x000000000800bea4       0x13 Src/shell_cmd.o
 *fill*         0x000000000800beb7        0x1 
 .rodata.shell_cmd_setgamma.str1.4
                0x000000000800beb8       0x1c Src/shell_cmd.o
 .rodata.shell_cmd_test.str1.4
                0x000000000800bed4       0x12 Src/shell_cmd.o
 *fill*         0x000000000800bee6        0x2 
 .rodata.str1.4
                0x000000000800bee8      0x474 Src/shell_cmd.o
 .rodata.AHBPrescTable
                0x000000000800c35c       0x10 Src/system_stm32f1xx.o
                0x000000000800c35c                AHBPrescTable
 .rodata.APBPrescTable
                0x000000000800c36c        0x8 Src/system_stm32f1xx.o
                0x000000000800c36c                APBPrescTable
 .rodata.print_adc_data.str1.4
                0x000000000800c374       0x38 Src/triggers.o
                                         0x41 (size before relaxing)
 .rodata.key_backspace_seq
                0x000000000800c3ac        0x1 Src/vt100.o
 *fill*         0x000000000800c3ad        0x3 
 .rodata.key_clear_entire_line
                0x000000000800c3b0        0x4 Src/vt100.o
 .rodata.key_clear_eol
                0x000000000800c3b4        0x3 Src/vt100.o
 *fill*         0x000000000800c3b7        0x1 
 .rodata.key_clear_screen
                0x000000000800c3b8        0x4 Src/vt100.o
 .rodata.key_cursor_down_seq
                0x000000000800c3bc        0x3 Src/vt100.o
 *fill*         0x000000000800c3bf        0x1 
 .rodata.key_cursor_left_seq
                0x000000000800c3c0        0x3 Src/vt100.o
 *fill*         0x000000000800c3c3        0x1 
 .rodata.key_cursor_right_seq
                0x000000000800c3c4        0x3 Src/vt100.o
 *fill*         0x000000000800c3c7        0x1 
 .rodata.key_cursor_up_seq
                0x000000000800c3c8        0x3 Src/vt100.o
 *fill*         0x000000000800c3cb        0x1 
 .rodata.key_delete_seq
                0x000000000800c3cc        0x1 Src/vt100.o
 *fill*         0x000000000800c3cd        0x3 
 .rodata.key_move_cursor_home
                0x000000000800c3d0        0x3 Src/vt100.o
 *fill*         0x000000000800c3d3        0x1 
 .rodata.key_move_cursor_left
                0x000000000800c3d4        0x4 Src/vt100.o
 .rodata.key_tab_seq
                0x000000000800c3d8        0x1 Src/vt100.o
 *fill*         0x000000000800c3d9        0x3 
 .rodata.vt100_keycodes
                0x000000000800c3dc       0xb4 Src/vt100.o
 .rodata.param1
                0x000000000800c490       0x14 Src/fx/fx_pwm_pulsing_light.o
 .rodata.param2
                0x000000000800c4a4       0x14 Src/fx/fx_pwm_pulsing_light.o
 .rodata.param1
                0x000000000800c4b8       0x14 Src/fx/fx_pwm_running_light.o
 .rodata.param2
                0x000000000800c4cc       0x14 Src/fx/fx_pwm_running_light.o
 .rodata.param  0x000000000800c4e0       0x14 Src/fx/fx_strip_cylon.o
 .rodata.param  0x000000000800c4f4       0x14 Src/fx/fx_strip_rainbow.o
 .rodata.param  0x000000000800c508       0x14 Src/fx/fx_strip_running_light.o
 .rodata.DMX_CH_REG
                0x000000000800c51c        0xe Src/fx_api/fx_api.o
                0x000000000800c51c                DMX_CH_REG
 *fill*         0x000000000800c52a        0x2 
 .rodata.encoderLookup
                0x000000000800c52c      0x300 Src/ws2812B/WS2812B.o
 .rodata._setlocale_r.str1.1
                0x000000000800c82c        0x8 c:/st/stm32cubeide_1.3.0/stm32cubeide/plugins/com.st.stm32cube.ide.mcu.externaltools.gnu-tools-for-stm32.7-2018-q2-update.win32_1.0.0.201904181610/tools/bin/../lib/gcc/arm-none-eabi/7.3.1/../../../../arm-none-eabi/lib/thumb/v7-m\libc_nano.a(lib_a-locale.o)
                                          0x9 (size before relaxing)
 .rodata.str1.1
                0x000000000800c834        0x2 c:/st/stm32cubeide_1.3.0/stm32cubeide/plugins/com.st.stm32cube.ide.mcu.externaltools.gnu-tools-for-stm32.7-2018-q2-update.win32_1.0.0.201904181610/tools/bin/../lib/gcc/arm-none-eabi/7.3.1/../../../../arm-none-eabi/lib/thumb/v7-m\libc_nano.a(lib_a-locale.o)
 .rodata._svfprintf_r.str1.1
                0x000000000800c836       0x11 c:/st/stm32cubeide_1.3.0/stm32cubeide/plugins/com.st.stm32cube.ide.mcu.externaltools.gnu-tools-for-stm32.7-2018-q2-update.win32_1.0.0.201904181610/tools/bin/../lib/gcc/arm-none-eabi/7.3.1/../../../../arm-none-eabi/lib/thumb/v7-m\libc_nano.a(lib_a-nano-svfprintf.o)
 .rodata._printf_i.str1.1
                0x000000000800c847       0x22 c:/st/stm32cubeide_1.3.0/stm32cubeide/plugins/com.st.stm32cube.ide.mcu.externaltools.gnu-tools-for-stm32.7-2018-q2-update.win32_1.0.0.201904181610/tools/bin/../lib/gcc/arm-none-eabi/7.3.1/../../../../arm-none-eabi/lib/thumb/v7-m\libc_nano.a(lib_a-nano-vfprintf_i.o)
 .rodata._ctype_
                0x000000000800c869      0x101 c:/st/stm32cubeide_1.3.0/stm32cubeide/plugins/com.st.stm32cube.ide.mcu.externaltools.gnu-tools-for-stm32.7-2018-q2-update.win32_1.0.0.201904181610/tools/bin/../lib/gcc/arm-none-eabi/7.3.1/../../../../arm-none-eabi/lib/thumb/v7-m\libc_nano.a(lib_a-ctype_.o)
                0x000000000800c869                _ctype_
 .rodata.pow.str1.1
                0x000000000800c96a        0x4 c:/st/stm32cubeide_1.3.0/stm32cubeide/plugins/com.st.stm32cube.ide.mcu.externaltools.gnu-tools-for-stm32.7-2018-q2-update.win32_1.0.0.201904181610/tools/bin/../lib/gcc/arm-none-eabi/7.3.1/../../../../arm-none-eabi/lib/thumb/v7-m\libm.a(lib_a-w_pow.o)
 .rodata.__ieee754_pow.str1.1
                0x000000000800c96e        0x1 c:/st/stm32cubeide_1.3.0/stm32cubeide/plugins/com.st.stm32cube.ide.mcu.externaltools.gnu-tools-for-stm32.7-2018-q2-update.win32_1.0.0.201904181610/tools/bin/../lib/gcc/arm-none-eabi/7.3.1/../../../../arm-none-eabi/lib/thumb/v7-m\libm.a(lib_a-e_pow.o)
 *fill*         0x000000000800c96e        0x2 
 .rodata.bp     0x000000000800c970       0x10 c:/st/stm32cubeide_1.3.0/stm32cubeide/plugins/com.st.stm32cube.ide.mcu.externaltools.gnu-tools-for-stm32.7-2018-q2-update.win32_1.0.0.201904181610/tools/bin/../lib/gcc/arm-none-eabi/7.3.1/../../../../arm-none-eabi/lib/thumb/v7-m\libm.a(lib_a-e_pow.o)
 .rodata.dp_h   0x000000000800c980       0x10 c:/st/stm32cubeide_1.3.0/stm32cubeide/plugins/com.st.stm32cube.ide.mcu.externaltools.gnu-tools-for-stm32.7-2018-q2-update.win32_1.0.0.201904181610/tools/bin/../lib/gcc/arm-none-eabi/7.3.1/../../../../arm-none-eabi/lib/thumb/v7-m\libm.a(lib_a-e_pow.o)
 .rodata.dp_l   0x000000000800c990       0x10 c:/st/stm32cubeide_1.3.0/stm32cubeide/plugins/com.st.stm32cube.ide.mcu.externaltools.gnu-tools-for-stm32.7-2018-q2-update.win32_1.0.0.201904181610/tools/bin/../lib/gcc/arm-none-eabi/7.3.1/../../../../arm-none-eabi/lib/thumb/v7-m\libm.a(lib_a-e_pow.o)
 .rodata.npio2_hw
                0x000000000800c9a0       0x80 c:/st/stm32cubeide_1.3.0/stm32cubeide/plugins/com.st.stm32cube.ide.mcu.externaltools.gnu-tools-for-stm32.7-2018-q2-update.win32_1.0.0.201904181610/tools/bin/../lib/gcc/arm-none-eabi/7.3.1/../../../../arm-none-eabi/lib/thumb/v7-m\libm.a(lib_a-e_rem_pio2.o)
 .rodata.two_over_pi
                0x000000000800ca20      0x108 c:/st/stm32cubeide_1.3.0/stm32cubeide/plugins/com.st.stm32cube.ide.mcu.externaltools.gnu-tools-for-stm32.7-2018-q2-update.win32_1.0.0.201904181610/tools/bin/../lib/gcc/arm-none-eabi/7.3.1/../../../../arm-none-eabi/lib/thumb/v7-m\libm.a(lib_a-e_rem_pio2.o)
 .rodata.PIo2   0x000000000800cb28       0x40 c:/st/stm32cubeide_1.3.0/stm32cubeide/plugins/com.st.stm32cube.ide.mcu.externaltools.gnu-tools-for-stm32.7-2018-q2-update.win32_1.0.0.201904181610/tools/bin/../lib/gcc/arm-none-eabi/7.3.1/../../../../arm-none-eabi/lib/thumb/v7-m\libm.a(lib_a-k_rem_pio2.o)
 .rodata.init_jk
                0x000000000800cb68       0x10 c:/st/stm32cubeide_1.3.0/stm32cubeide/plugins/com.st.stm32cube.ide.mcu.externaltools.gnu-tools-for-stm32.7-2018-q2-update.win32_1.0.0.201904181610/tools/bin/../lib/gcc/arm-none-eabi/7.3.1/../../../../arm-none-eabi/lib/thumb/v7-m\libm.a(lib_a-k_rem_pio2.o)
 .rodata.TWO52  0x000000000800cb78       0x10 c:/st/stm32cubeide_1.3.0/stm32cubeide/plugins/com.st.stm32cube.ide.mcu.externaltools.gnu-tools-for-stm32.7-2018-q2-update.win32_1.0.0.201904181610/tools/bin/../lib/gcc/arm-none-eabi/7.3.1/../../../../arm-none-eabi/lib/thumb/v7-m\libm.a(lib_a-s_rint.o)
                0x000000000800cb88                . = ALIGN (0x4)

.rel.dyn        0x000000000800cb88        0x0
 .rel.iplt      0x000000000800cb88        0x0 c:/st/stm32cubeide_1.3.0/stm32cubeide/plugins/com.st.stm32cube.ide.mcu.externaltools.gnu-tools-for-stm32.7-2018-q2-update.win32_1.0.0.201904181610/tools/bin/../lib/gcc/arm-none-eabi/7.3.1/thumb/v7-m/crtbegin.o

.ARM.extab
 *(.ARM.extab* .gnu.linkonce.armextab.*)

.ARM            0x000000000800cb88        0x0
                0x000000000800cb88                __exidx_start = .
 *(.ARM.exidx*)
                0x000000000800cb88                __exidx_end = .

.preinit_array  0x000000000800cb88        0x0
                0x000000000800cb88                PROVIDE (__preinit_array_start = .)
 *(.preinit_array*)
                0x000000000800cb88                PROVIDE (__preinit_array_end = .)

.init_array     0x000000000800cb88        0x4
                0x000000000800cb88                PROVIDE (__init_array_start = .)
 *(SORT_BY_NAME(.init_array.*))
 *(.init_array*)
 .init_array    0x000000000800cb88        0x4 c:/st/stm32cubeide_1.3.0/stm32cubeide/plugins/com.st.stm32cube.ide.mcu.externaltools.gnu-tools-for-stm32.7-2018-q2-update.win32_1.0.0.201904181610/tools/bin/../lib/gcc/arm-none-eabi/7.3.1/thumb/v7-m/crtbegin.o
                0x000000000800cb8c                PROVIDE (__init_array_end = .)

.fini_array     0x000000000800cb8c        0x4
                [!provide]                        PROVIDE (__fini_array_start = .)
 *(SORT_BY_NAME(.fini_array.*))
 *(.fini_array*)
 .fini_array    0x000000000800cb8c        0x4 c:/st/stm32cubeide_1.3.0/stm32cubeide/plugins/com.st.stm32cube.ide.mcu.externaltools.gnu-tools-for-stm32.7-2018-q2-update.win32_1.0.0.201904181610/tools/bin/../lib/gcc/arm-none-eabi/7.3.1/thumb/v7-m/crtbegin.o
                [!provide]                        PROVIDE (__fini_array_end = .)
                0x000000000800cb90                _sidata = LOADADDR (.data)

.data           0x0000000020000000      0x268 load address 0x000000000800cb90
                0x0000000020000000                . = ALIGN (0x4)
                0x0000000020000000                _sdata = .
 *(.data)
 *(.data*)
 .data.uwTickFreq
                0x0000000020000000        0x1 Drivers/STM32F1xx_HAL_Driver/Src/stm32f1xx_hal.o
                0x0000000020000000                uwTickFreq
 *fill*         0x0000000020000001        0x3 
 .data.uwTickPrio
                0x0000000020000004        0x4 Drivers/STM32F1xx_HAL_Driver/Src/stm32f1xx_hal.o
                0x0000000020000004                uwTickPrio
 .data.regnames
                0x0000000020000008       0x68 Src/dmx512_config.o
                0x0000000020000008                regnames
 .data.dmx_error
                0x0000000020000070        0x1 Src/dmx512_rec.o
 *fill*         0x0000000020000071        0x3 
 .data.SystemCoreClock
                0x0000000020000074        0x4 Src/system_stm32f1xx.o
                0x0000000020000074                SystemCoreClock
 .data.last_button_state.4189
                0x0000000020000078        0x1 Src/testmode.o
 *fill*         0x0000000020000079        0x3 
 .data.states   0x000000002000007c       0x14 Src/testmode.o
                0x000000002000007c                states
 .data.currentADCHandler
                0x0000000020000090        0x4 Src/triggers.o
                0x0000000020000090                currentADCHandler
 .data._impure_ptr
                0x0000000020000094        0x4 c:/st/stm32cubeide_1.3.0/stm32cubeide/plugins/com.st.stm32cube.ide.mcu.externaltools.gnu-tools-for-stm32.7-2018-q2-update.win32_1.0.0.201904181610/tools/bin/../lib/gcc/arm-none-eabi/7.3.1/../../../../arm-none-eabi/lib/thumb/v7-m\libc_nano.a(lib_a-impure.o)
                0x0000000020000094                _impure_ptr
 .data.impure_data
                0x0000000020000098       0x60 c:/st/stm32cubeide_1.3.0/stm32cubeide/plugins/com.st.stm32cube.ide.mcu.externaltools.gnu-tools-for-stm32.7-2018-q2-update.win32_1.0.0.201904181610/tools/bin/../lib/gcc/arm-none-eabi/7.3.1/../../../../arm-none-eabi/lib/thumb/v7-m\libc_nano.a(lib_a-impure.o)
 .data.__global_locale
                0x00000000200000f8      0x16c c:/st/stm32cubeide_1.3.0/stm32cubeide/plugins/com.st.stm32cube.ide.mcu.externaltools.gnu-tools-for-stm32.7-2018-q2-update.win32_1.0.0.201904181610/tools/bin/../lib/gcc/arm-none-eabi/7.3.1/../../../../arm-none-eabi/lib/thumb/v7-m\libc_nano.a(lib_a-locale.o)
                0x00000000200000f8                __global_locale
 .data.__fdlib_version
                0x0000000020000264        0x1 c:/st/stm32cubeide_1.3.0/stm32cubeide/plugins/com.st.stm32cube.ide.mcu.externaltools.gnu-tools-for-stm32.7-2018-q2-update.win32_1.0.0.201904181610/tools/bin/../lib/gcc/arm-none-eabi/7.3.1/../../../../arm-none-eabi/lib/thumb/v7-m\libm.a(lib_a-s_lib_ver.o)
                0x0000000020000264                __fdlib_version
                0x0000000020000268                . = ALIGN (0x4)
 *fill*         0x0000000020000265        0x3 
                0x0000000020000268                _edata = .

.igot.plt       0x0000000020000268        0x0 load address 0x000000000800cdf8
 .igot.plt      0x0000000020000268        0x0 c:/st/stm32cubeide_1.3.0/stm32cubeide/plugins/com.st.stm32cube.ide.mcu.externaltools.gnu-tools-for-stm32.7-2018-q2-update.win32_1.0.0.201904181610/tools/bin/../lib/gcc/arm-none-eabi/7.3.1/thumb/v7-m/crtbegin.o
                0x0000000020000268                . = ALIGN (0x4)

.bss            0x0000000020000268      0xad0 load address 0x000000000800cdf8
                0x0000000020000268                _sbss = .
                0x0000000020000268                __bss_start__ = _sbss
 *(.bss)
 .bss           0x0000000020000268       0x1c c:/st/stm32cubeide_1.3.0/stm32cubeide/plugins/com.st.stm32cube.ide.mcu.externaltools.gnu-tools-for-stm32.7-2018-q2-update.win32_1.0.0.201904181610/tools/bin/../lib/gcc/arm-none-eabi/7.3.1/thumb/v7-m/crtbegin.o
 *(.bss*)
 .bss.cfgidx.8521
                0x0000000020000284        0x1 Middlewares/ST/STM32_USB_Device_Library/Core/Src/usbd_ctlreq.o
 .bss.dmx_mode  0x0000000020000285        0x1 Src/dmx512_config.o
 *fill*         0x0000000020000286        0x2 
 .bss.reg_addr  0x0000000020000288        0x4 Src/dmx512_config.o
 .bss.reg_data  0x000000002000028c        0x4 Src/dmx512_config.o
 .bss.reg_len   0x0000000020000290        0x4 Src/dmx512_config.o
 .bss.buffer    0x0000000020000294        0x1 Src/dmx512_rec.o
 .bss.buffer2   0x0000000020000295        0x1 Src/dmx512_rec.o
 .bss.byte_count
                0x0000000020000296        0x2 Src/dmx512_rec.o
 .bss.led_status
                0x0000000020000298        0x1 Src/dmx512_rec.o
 .bss.msg_cnt   0x0000000020000299        0x1 Src/dmx512_rec.o
 .bss.packet_type
                0x000000002000029a        0x1 Src/dmx512_rec.o
 *fill*         0x000000002000029b        0x1 
 .bss.start_addr
                0x000000002000029c        0x4 Src/dmx512_rec.o
 .bss.start_flag
                0x00000000200002a0        0x1 Src/dmx512_rec.o
 .bss.current_fx
                0x00000000200002a1        0x1 Src/fx_manager.o
                0x00000000200002a1                current_fx
 .bss.current_fx_state
                0x00000000200002a2        0x1 Src/fx_manager.o
                0x00000000200002a2                current_fx_state
 *fill*         0x00000000200002a3        0x1 
 .bss.fx_frame_count
                0x00000000200002a4        0x4 Src/fx_manager.o
                0x00000000200002a4                fx_frame_count
 .bss.last_fx   0x00000000200002a8        0x1 Src/fx_manager.o
                0x00000000200002a8                last_fx
 *fill*         0x00000000200002a9        0x1 
 .bss.brightness_scale
                0x00000000200002aa        0x2 Src/light_update.o
                0x00000000200002aa                brightness_scale
 .bss.reg_shadow
                0x00000000200002ac        0x4 Src/light_update.o
 .bss.UART_mode_SERIAL
                0x00000000200002b0        0x1 Src/main.o
                0x00000000200002b0                UART_mode_SERIAL
 .bss.UART_mode_USB
                0x00000000200002b1        0x1 Src/main.o
                0x00000000200002b1                UART_mode_USB
 .bss.testmode  0x00000000200002b2        0x1 Src/main.o
                0x00000000200002b2                testmode
 .bss.escaped   0x00000000200002b3        0x1 Src/serial_dmx_parser.o
                0x00000000200002b3                escaped
 .bss.reg_count
                0x00000000200002b4        0x2 Src/serial_dmx_parser.o
                0x00000000200002b4                reg_count
 .bss.syncstart
                0x00000000200002b6        0x1 Src/serial_dmx_parser.o
                0x00000000200002b6                syncstart
 *fill*         0x00000000200002b7        0x1 
 .bss.cmd_buf   0x00000000200002b8       0x40 Src/shell.o
 .bss.cmd_buf_idx
                0x00000000200002f8        0x4 Src/shell.o
 .bss.cmd_hist  0x00000000200002fc      0x200 Src/shell.o
 .bss.cmd_hist_get_idx
                0x00000000200004fc        0x4 Src/shell.o
 .bss.cmd_hist_put_idx
                0x0000000020000500        0x4 Src/shell.o
 .bss.dbgMsg    0x0000000020000504       0x80 Src/shell.o
 .bss.heap_end.5946
                0x0000000020000584        0x4 Src/syscalls.o
 .bss.cnt.4190  0x0000000020000588        0x2 Src/testmode.o
 .bss.done.4191
                0x000000002000058a        0x1 Src/testmode.o
 .bss.state     0x000000002000058b        0x1 Src/testmode.o
                0x000000002000058b                state
 .bss.cbuf.4595
                0x000000002000058c        0x8 Src/vt100.o
 .bss.cbuf_idx.4596
                0x0000000020000594        0x1 Src/vt100.o
 *fill*         0x0000000020000595        0x3 
 .bss.buf.8906  0x0000000020000598        0x8 Src/fx/fx_strip_cylon.o
 .bss.last_ms.8904
                0x00000000200005a0        0x4 Src/fx/fx_strip_cylon.o
 .bss.pos.8905  0x00000000200005a4        0x2 Src/fx/fx_strip_cylon.o
 *fill*         0x00000000200005a6        0x2 
 .bss.delay.8401
                0x00000000200005a8        0x8 Src/fx/fx_strip_rainbow.o
 .bss.pos.8399  0x00000000200005b0        0x4 Src/fx/fx_strip_rainbow.o
 .bss.step.8400
                0x00000000200005b4        0x4 Src/fx/fx_strip_rainbow.o
 .bss.delay.8401
                0x00000000200005b8        0x8 Src/fx/fx_strip_running_light.o
 .bss.pos.8399  0x00000000200005c0        0x4 Src/fx/fx_strip_running_light.o
 .bss.step.8400
                0x00000000200005c4        0x4 Src/fx/fx_strip_running_light.o
 .bss.delay_count
                0x00000000200005c8        0x4 Src/fx_api/fx_api.o
                0x00000000200005c8                delay_count
 .bss.errorcnt.8217
                0x00000000200005cc        0x1 Src/ws2812B/WS2812B.o
 *fill*         0x00000000200005cd        0x1 
 .bss.startval.8283
                0x00000000200005ce        0x2 Src/ws2812B/WS2812B.o
 .bss.__malloc_free_list
                0x00000000200005d0        0x4 c:/st/stm32cubeide_1.3.0/stm32cubeide/plugins/com.st.stm32cube.ide.mcu.externaltools.gnu-tools-for-stm32.7-2018-q2-update.win32_1.0.0.201904181610/tools/bin/../lib/gcc/arm-none-eabi/7.3.1/../../../../arm-none-eabi/lib/thumb/v7-m\libc_nano.a(lib_a-nano-mallocr.o)
                0x00000000200005d0                __malloc_free_list
 .bss.__malloc_sbrk_start
                0x00000000200005d4        0x4 c:/st/stm32cubeide_1.3.0/stm32cubeide/plugins/com.st.stm32cube.ide.mcu.externaltools.gnu-tools-for-stm32.7-2018-q2-update.win32_1.0.0.201904181610/tools/bin/../lib/gcc/arm-none-eabi/7.3.1/../../../../arm-none-eabi/lib/thumb/v7-m\libc_nano.a(lib_a-nano-mallocr.o)
                0x00000000200005d4                __malloc_sbrk_start
 *(COMMON)
 COMMON         0x00000000200005d8        0x4 Drivers/STM32F1xx_HAL_Driver/Src/stm32f1xx_hal.o
                0x00000000200005d8                uwTick
 *fill*         0x00000000200005dc        0x4 
 COMMON         0x00000000200005e0       0x20 Drivers/STM32F1xx_HAL_Driver/Src/stm32f1xx_hal_flash.o
                0x00000000200005e0                pFlash
 COMMON         0x0000000020000600       0x30 Src/dmx512_rec.o
                0x0000000020000600                rx_buff_dmx
                0x0000000020000618                rx_buff_shell
 COMMON         0x0000000020000630      0x100 Src/fx_list.o
                0x0000000020000630                pfx_list
 COMMON         0x0000000020000730       0x5c Src/gammactrl.o
                0x0000000020000730                settings
 COMMON         0x000000002000078c      0x258 Src/main.o
                0x000000002000078c                hspi2
                0x00000000200007e4                huart3
                0x0000000020000824                hadc2
                0x0000000020000854                hiwdg
                0x0000000020000860                stripchannel
                0x0000000020000890                hadc1
                0x00000000200008c0                huart1
                0x0000000020000900                frame_ms
                0x0000000020000904                hspi1
                0x000000002000095c                hdma_spi2_tx
                0x00000000200009a0                hdma_spi1_tx
 COMMON         0x00000000200009e4       0xc0 Src/pwm_control.o
                0x00000000200009e4                timerinfo
 COMMON         0x0000000020000aa4       0x20 Src/triggers.o
                0x0000000020000aa4                adcdata
 COMMON         0x0000000020000ac4      0x26c Src/usbd_conf.o
                0x0000000020000ac4                hpcd_USB_FS
 COMMON         0x0000000020000d30        0x4 Src/fx/fx_pwm_running_light.o
                0x0000000020000d30                data
 COMMON         0x0000000020000d34        0x4 c:/st/stm32cubeide_1.3.0/stm32cubeide/plugins/com.st.stm32cube.ide.mcu.externaltools.gnu-tools-for-stm32.7-2018-q2-update.win32_1.0.0.201904181610/tools/bin/../lib/gcc/arm-none-eabi/7.3.1/../../../../arm-none-eabi/lib/thumb/v7-m\libc_nano.a(lib_a-reent.o)
                0x0000000020000d34                errno
                0x0000000020000d38                . = ALIGN (0x4)
                0x0000000020000d38                _ebss = .
                0x0000000020000d38                __bss_end__ = _ebss

._user_heap_stack
                0x0000000020000d38      0x600 load address 0x000000000800cdf8
                0x0000000020000d38                . = ALIGN (0x4)
                0x0000000020000d38                PROVIDE (end = .)
                [!provide]                        PROVIDE (_end = .)
                0x0000000020000f38                . = (. + _Min_Heap_Size)
 *fill*         0x0000000020000d38      0x200 
                0x0000000020001338                . = (. + _Min_Stack_Size)
 *fill*         0x0000000020000f38      0x400 
                0x0000000020001338                . = ALIGN (0x4)

/DISCARD/
 libc.a(*)
 libm.a(*)
 libgcc.a(*)

.ARM.attributes
                0x0000000000000000       0x29
 *(.ARM.attributes)
 .ARM.attributes
                0x0000000000000000       0x1d c:/st/stm32cubeide_1.3.0/stm32cubeide/plugins/com.st.stm32cube.ide.mcu.externaltools.gnu-tools-for-stm32.7-2018-q2-update.win32_1.0.0.201904181610/tools/bin/../lib/gcc/arm-none-eabi/7.3.1/thumb/v7-m/crti.o
 .ARM.attributes
                0x000000000000001d       0x2d c:/st/stm32cubeide_1.3.0/stm32cubeide/plugins/com.st.stm32cube.ide.mcu.externaltools.gnu-tools-for-stm32.7-2018-q2-update.win32_1.0.0.201904181610/tools/bin/../lib/gcc/arm-none-eabi/7.3.1/thumb/v7-m/crtbegin.o
 .ARM.attributes
                0x000000000000004a       0x33 Drivers/STM32F1xx_HAL_Driver/Src/stm32f1xx_hal.o
 .ARM.attributes
                0x000000000000007d       0x33 Drivers/STM32F1xx_HAL_Driver/Src/stm32f1xx_hal_adc.o
 .ARM.attributes
                0x00000000000000b0       0x33 Drivers/STM32F1xx_HAL_Driver/Src/stm32f1xx_hal_adc_ex.o
 .ARM.attributes
                0x00000000000000e3       0x33 Drivers/STM32F1xx_HAL_Driver/Src/stm32f1xx_hal_cortex.o
 .ARM.attributes
                0x0000000000000116       0x33 Drivers/STM32F1xx_HAL_Driver/Src/stm32f1xx_hal_dma.o
 .ARM.attributes
                0x0000000000000149       0x33 Drivers/STM32F1xx_HAL_Driver/Src/stm32f1xx_hal_flash.o
 .ARM.attributes
                0x000000000000017c       0x33 Drivers/STM32F1xx_HAL_Driver/Src/stm32f1xx_hal_flash_ex.o
 .ARM.attributes
                0x00000000000001af       0x33 Drivers/STM32F1xx_HAL_Driver/Src/stm32f1xx_hal_gpio.o
 .ARM.attributes
                0x00000000000001e2       0x33 Drivers/STM32F1xx_HAL_Driver/Src/stm32f1xx_hal_pcd.o
 .ARM.attributes
                0x0000000000000215       0x33 Drivers/STM32F1xx_HAL_Driver/Src/stm32f1xx_hal_rcc.o
 .ARM.attributes
                0x0000000000000248       0x33 Drivers/STM32F1xx_HAL_Driver/Src/stm32f1xx_hal_rcc_ex.o
 .ARM.attributes
                0x000000000000027b       0x33 Drivers/STM32F1xx_HAL_Driver/Src/stm32f1xx_hal_spi.o
 .ARM.attributes
                0x00000000000002ae       0x33 Drivers/STM32F1xx_HAL_Driver/Src/stm32f1xx_hal_tim.o
 .ARM.attributes
                0x00000000000002e1       0x33 Drivers/STM32F1xx_HAL_Driver/Src/stm32f1xx_hal_uart.o
 .ARM.attributes
                0x0000000000000314       0x33 Drivers/STM32F1xx_HAL_Driver/Src/stm32f1xx_ll_usb.o
 .ARM.attributes
                0x0000000000000347       0x33 Middlewares/ST/STM32_USB_Device_Library/Core/Src/usbd_core.o
 .ARM.attributes
                0x000000000000037a       0x33 Middlewares/ST/STM32_USB_Device_Library/Core/Src/usbd_ctlreq.o
 .ARM.attributes
                0x00000000000003ad       0x33 Middlewares/ST/STM32_USB_Device_Library/Core/Src/usbd_ioreq.o
 .ARM.attributes
                0x00000000000003e0       0x33 Src/dmx512_config.o
 .ARM.attributes
                0x0000000000000413       0x33 Src/dmx512_rec.o
 .ARM.attributes
                0x0000000000000446       0x33 Src/eeprom.o
 .ARM.attributes
                0x0000000000000479       0x33 Src/fx_list.o
 .ARM.attributes
                0x00000000000004ac       0x33 Src/fx_manager.o
 .ARM.attributes
                0x00000000000004df       0x33 Src/gammactrl.o
 .ARM.attributes
                0x0000000000000512       0x33 Src/gpio_control.o
 .ARM.attributes
                0x0000000000000545       0x33 Src/light_update.o
 .ARM.attributes
                0x0000000000000578       0x33 Src/main.o
 .ARM.attributes
                0x00000000000005ab       0x33 Src/pwm_control.o
 .ARM.attributes
                0x00000000000005de       0x33 Src/ring_buffer.o
 .ARM.attributes
                0x0000000000000611       0x33 Src/serial_dmx_parser.o
 .ARM.attributes
                0x0000000000000644       0x33 Src/serial_tracer.o
 .ARM.attributes
                0x0000000000000677       0x33 Src/settings.o
 .ARM.attributes
                0x00000000000006aa       0x33 Src/shell.o
 .ARM.attributes
                0x00000000000006dd       0x33 Src/shell_cmd.o
 .ARM.attributes
                0x0000000000000710       0x33 Src/stm32f1xx_hal_msp.o
 .ARM.attributes
                0x0000000000000743       0x33 Src/stm32f1xx_it.o
 .ARM.attributes
                0x0000000000000776       0x33 Src/syscalls.o
 .ARM.attributes
                0x00000000000007a9       0x33 Src/system_stm32f1xx.o
 .ARM.attributes
                0x00000000000007dc       0x33 Src/testmode.o
 .ARM.attributes
                0x000000000000080f       0x33 Src/triggers.o
 .ARM.attributes
                0x0000000000000842       0x33 Src/usbd_conf.o
 .ARM.attributes
                0x0000000000000875       0x33 Src/vt100.o
 .ARM.attributes
                0x00000000000008a8       0x33 Src/fx/fx_pwm_pulsing_light.o
 .ARM.attributes
                0x00000000000008db       0x33 Src/fx/fx_pwm_running_light.o
 .ARM.attributes
                0x000000000000090e       0x33 Src/fx/fx_strip_cylon.o
 .ARM.attributes
                0x0000000000000941       0x33 Src/fx/fx_strip_rainbow.o
 .ARM.attributes
                0x0000000000000974       0x33 Src/fx/fx_strip_running_light.o
 .ARM.attributes
                0x00000000000009a7       0x33 Src/fx_api/fx_api.o
 .ARM.attributes
                0x00000000000009da       0x33 Src/ws2812B/WS2812B.o
 .ARM.attributes
                0x0000000000000a0d       0x21 startup/startup_stm32f103xb.o
 .ARM.attributes
                0x0000000000000a2e       0x2d c:/st/stm32cubeide_1.3.0/stm32cubeide/plugins/com.st.stm32cube.ide.mcu.externaltools.gnu-tools-for-stm32.7-2018-q2-update.win32_1.0.0.201904181610/tools/bin/../lib/gcc/arm-none-eabi/7.3.1/../../../../arm-none-eabi/lib/thumb/v7-m\libc_nano.a(lib_a-atoi.o)
 .ARM.attributes
                0x0000000000000a5b       0x2d c:/st/stm32cubeide_1.3.0/stm32cubeide/plugins/com.st.stm32cube.ide.mcu.externaltools.gnu-tools-for-stm32.7-2018-q2-update.win32_1.0.0.201904181610/tools/bin/../lib/gcc/arm-none-eabi/7.3.1/../../../../arm-none-eabi/lib/thumb/v7-m\libc_nano.a(lib_a-calloc.o)
 .ARM.attributes
                0x0000000000000a88       0x2d c:/st/stm32cubeide_1.3.0/stm32cubeide/plugins/com.st.stm32cube.ide.mcu.externaltools.gnu-tools-for-stm32.7-2018-q2-update.win32_1.0.0.201904181610/tools/bin/../lib/gcc/arm-none-eabi/7.3.1/../../../../arm-none-eabi/lib/thumb/v7-m\libc_nano.a(lib_a-errno.o)
 .ARM.attributes
                0x0000000000000ab5       0x2d c:/st/stm32cubeide_1.3.0/stm32cubeide/plugins/com.st.stm32cube.ide.mcu.externaltools.gnu-tools-for-stm32.7-2018-q2-update.win32_1.0.0.201904181610/tools/bin/../lib/gcc/arm-none-eabi/7.3.1/../../../../arm-none-eabi/lib/thumb/v7-m\libc_nano.a(lib_a-impure.o)
 .ARM.attributes
                0x0000000000000ae2       0x2d c:/st/stm32cubeide_1.3.0/stm32cubeide/plugins/com.st.stm32cube.ide.mcu.externaltools.gnu-tools-for-stm32.7-2018-q2-update.win32_1.0.0.201904181610/tools/bin/../lib/gcc/arm-none-eabi/7.3.1/../../../../arm-none-eabi/lib/thumb/v7-m\libc_nano.a(lib_a-init.o)
 .ARM.attributes
                0x0000000000000b0f       0x2d c:/st/stm32cubeide_1.3.0/stm32cubeide/plugins/com.st.stm32cube.ide.mcu.externaltools.gnu-tools-for-stm32.7-2018-q2-update.win32_1.0.0.201904181610/tools/bin/../lib/gcc/arm-none-eabi/7.3.1/../../../../arm-none-eabi/lib/thumb/v7-m\libc_nano.a(lib_a-malloc.o)
 .ARM.attributes
                0x0000000000000b3c       0x2d c:/st/stm32cubeide_1.3.0/stm32cubeide/plugins/com.st.stm32cube.ide.mcu.externaltools.gnu-tools-for-stm32.7-2018-q2-update.win32_1.0.0.201904181610/tools/bin/../lib/gcc/arm-none-eabi/7.3.1/../../../../arm-none-eabi/lib/thumb/v7-m\libc_nano.a(lib_a-memcpy-stub.o)
 .ARM.attributes
                0x0000000000000b69       0x2d c:/st/stm32cubeide_1.3.0/stm32cubeide/plugins/com.st.stm32cube.ide.mcu.externaltools.gnu-tools-for-stm32.7-2018-q2-update.win32_1.0.0.201904181610/tools/bin/../lib/gcc/arm-none-eabi/7.3.1/../../../../arm-none-eabi/lib/thumb/v7-m\libc_nano.a(lib_a-memset.o)
 .ARM.attributes
                0x0000000000000b96       0x2d c:/st/stm32cubeide_1.3.0/stm32cubeide/plugins/com.st.stm32cube.ide.mcu.externaltools.gnu-tools-for-stm32.7-2018-q2-update.win32_1.0.0.201904181610/tools/bin/../lib/gcc/arm-none-eabi/7.3.1/../../../../arm-none-eabi/lib/thumb/v7-m\libc_nano.a(lib_a-nano-callocr.o)
 .ARM.attributes
                0x0000000000000bc3       0x2d c:/st/stm32cubeide_1.3.0/stm32cubeide/plugins/com.st.stm32cube.ide.mcu.externaltools.gnu-tools-for-stm32.7-2018-q2-update.win32_1.0.0.201904181610/tools/bin/../lib/gcc/arm-none-eabi/7.3.1/../../../../arm-none-eabi/lib/thumb/v7-m\libc_nano.a(lib_a-nano-freer.o)
 .ARM.attributes
                0x0000000000000bf0       0x2d c:/st/stm32cubeide_1.3.0/stm32cubeide/plugins/com.st.stm32cube.ide.mcu.externaltools.gnu-tools-for-stm32.7-2018-q2-update.win32_1.0.0.201904181610/tools/bin/../lib/gcc/arm-none-eabi/7.3.1/../../../../arm-none-eabi/lib/thumb/v7-m\libc_nano.a(lib_a-nano-mallocr.o)
 .ARM.attributes
                0x0000000000000c1d       0x2d c:/st/stm32cubeide_1.3.0/stm32cubeide/plugins/com.st.stm32cube.ide.mcu.externaltools.gnu-tools-for-stm32.7-2018-q2-update.win32_1.0.0.201904181610/tools/bin/../lib/gcc/arm-none-eabi/7.3.1/../../../../arm-none-eabi/lib/thumb/v7-m\libc_nano.a(lib_a-sbrkr.o)
 .ARM.attributes
                0x0000000000000c4a       0x17 c:/st/stm32cubeide_1.3.0/stm32cubeide/plugins/com.st.stm32cube.ide.mcu.externaltools.gnu-tools-for-stm32.7-2018-q2-update.win32_1.0.0.201904181610/tools/bin/../lib/gcc/arm-none-eabi/7.3.1/../../../../arm-none-eabi/lib/thumb/v7-m\libc_nano.a(lib_a-strlen.o)
 .ARM.attributes
                0x0000000000000c61       0x2d c:/st/stm32cubeide_1.3.0/stm32cubeide/plugins/com.st.stm32cube.ide.mcu.externaltools.gnu-tools-for-stm32.7-2018-q2-update.win32_1.0.0.201904181610/tools/bin/../lib/gcc/arm-none-eabi/7.3.1/../../../../arm-none-eabi/lib/thumb/v7-m\libc_nano.a(lib_a-strncmp.o)
 .ARM.attributes
                0x0000000000000c8e       0x2d c:/st/stm32cubeide_1.3.0/stm32cubeide/plugins/com.st.stm32cube.ide.mcu.externaltools.gnu-tools-for-stm32.7-2018-q2-update.win32_1.0.0.201904181610/tools/bin/../lib/gcc/arm-none-eabi/7.3.1/../../../../arm-none-eabi/lib/thumb/v7-m\libc_nano.a(lib_a-strncpy.o)
 .ARM.attributes
                0x0000000000000cbb       0x2d c:/st/stm32cubeide_1.3.0/stm32cubeide/plugins/com.st.stm32cube.ide.mcu.externaltools.gnu-tools-for-stm32.7-2018-q2-update.win32_1.0.0.201904181610/tools/bin/../lib/gcc/arm-none-eabi/7.3.1/../../../../arm-none-eabi/lib/thumb/v7-m\libc_nano.a(lib_a-strtok.o)
 .ARM.attributes
                0x0000000000000ce8       0x2d c:/st/stm32cubeide_1.3.0/stm32cubeide/plugins/com.st.stm32cube.ide.mcu.externaltools.gnu-tools-for-stm32.7-2018-q2-update.win32_1.0.0.201904181610/tools/bin/../lib/gcc/arm-none-eabi/7.3.1/../../../../arm-none-eabi/lib/thumb/v7-m\libc_nano.a(lib_a-strtok_r.o)
 .ARM.attributes
                0x0000000000000d15       0x2d c:/st/stm32cubeide_1.3.0/stm32cubeide/plugins/com.st.stm32cube.ide.mcu.externaltools.gnu-tools-for-stm32.7-2018-q2-update.win32_1.0.0.201904181610/tools/bin/../lib/gcc/arm-none-eabi/7.3.1/../../../../arm-none-eabi/lib/thumb/v7-m\libc_nano.a(lib_a-strtol.o)
 .ARM.attributes
                0x0000000000000d42       0x2d c:/st/stm32cubeide_1.3.0/stm32cubeide/plugins/com.st.stm32cube.ide.mcu.externaltools.gnu-tools-for-stm32.7-2018-q2-update.win32_1.0.0.201904181610/tools/bin/../lib/gcc/arm-none-eabi/7.3.1/../../../../arm-none-eabi/lib/thumb/v7-m\libc_nano.a(lib_a-vsnprintf.o)
 .ARM.attributes
                0x0000000000000d6f       0x2d c:/st/stm32cubeide_1.3.0/stm32cubeide/plugins/com.st.stm32cube.ide.mcu.externaltools.gnu-tools-for-stm32.7-2018-q2-update.win32_1.0.0.201904181610/tools/bin/../lib/gcc/arm-none-eabi/7.3.1/../../../../arm-none-eabi/lib/thumb/v7-m\libc_nano.a(lib_a-locale.o)
 .ARM.attributes
                0x0000000000000d9c       0x2d c:/st/stm32cubeide_1.3.0/stm32cubeide/plugins/com.st.stm32cube.ide.mcu.externaltools.gnu-tools-for-stm32.7-2018-q2-update.win32_1.0.0.201904181610/tools/bin/../lib/gcc/arm-none-eabi/7.3.1/../../../../arm-none-eabi/lib/thumb/v7-m\libc_nano.a(lib_a-mbtowc_r.o)
 .ARM.attributes
                0x0000000000000dc9       0x2d c:/st/stm32cubeide_1.3.0/stm32cubeide/plugins/com.st.stm32cube.ide.mcu.externaltools.gnu-tools-for-stm32.7-2018-q2-update.win32_1.0.0.201904181610/tools/bin/../lib/gcc/arm-none-eabi/7.3.1/../../../../arm-none-eabi/lib/thumb/v7-m\libc_nano.a(lib_a-mlock.o)
 .ARM.attributes
                0x0000000000000df6       0x2d c:/st/stm32cubeide_1.3.0/stm32cubeide/plugins/com.st.stm32cube.ide.mcu.externaltools.gnu-tools-for-stm32.7-2018-q2-update.win32_1.0.0.201904181610/tools/bin/../lib/gcc/arm-none-eabi/7.3.1/../../../../arm-none-eabi/lib/thumb/v7-m\libc_nano.a(lib_a-nano-svfprintf.o)
 .ARM.attributes
                0x0000000000000e23       0x2d c:/st/stm32cubeide_1.3.0/stm32cubeide/plugins/com.st.stm32cube.ide.mcu.externaltools.gnu-tools-for-stm32.7-2018-q2-update.win32_1.0.0.201904181610/tools/bin/../lib/gcc/arm-none-eabi/7.3.1/../../../../arm-none-eabi/lib/thumb/v7-m\libc_nano.a(lib_a-nano-vfprintf_i.o)
 .ARM.attributes
                0x0000000000000e50       0x2d c:/st/stm32cubeide_1.3.0/stm32cubeide/plugins/com.st.stm32cube.ide.mcu.externaltools.gnu-tools-for-stm32.7-2018-q2-update.win32_1.0.0.201904181610/tools/bin/../lib/gcc/arm-none-eabi/7.3.1/../../../../arm-none-eabi/lib/thumb/v7-m\libc_nano.a(lib_a-reent.o)
 .ARM.attributes
                0x0000000000000e7d       0x2d c:/st/stm32cubeide_1.3.0/stm32cubeide/plugins/com.st.stm32cube.ide.mcu.externaltools.gnu-tools-for-stm32.7-2018-q2-update.win32_1.0.0.201904181610/tools/bin/../lib/gcc/arm-none-eabi/7.3.1/../../../../arm-none-eabi/lib/thumb/v7-m\libc_nano.a(lib_a-wctomb_r.o)
 .ARM.attributes
                0x0000000000000eaa       0x2d c:/st/stm32cubeide_1.3.0/stm32cubeide/plugins/com.st.stm32cube.ide.mcu.externaltools.gnu-tools-for-stm32.7-2018-q2-update.win32_1.0.0.201904181610/tools/bin/../lib/gcc/arm-none-eabi/7.3.1/../../../../arm-none-eabi/lib/thumb/v7-m\libc_nano.a(lib_a-ctype_.o)
 .ARM.attributes
                0x0000000000000ed7       0x2d c:/st/stm32cubeide_1.3.0/stm32cubeide/plugins/com.st.stm32cube.ide.mcu.externaltools.gnu-tools-for-stm32.7-2018-q2-update.win32_1.0.0.201904181610/tools/bin/../lib/gcc/arm-none-eabi/7.3.1/../../../../arm-none-eabi/lib/thumb/v7-m\libc_nano.a(lib_a-memchr-stub.o)
 .ARM.attributes
                0x0000000000000f04       0x2d c:/st/stm32cubeide_1.3.0/stm32cubeide/plugins/com.st.stm32cube.ide.mcu.externaltools.gnu-tools-for-stm32.7-2018-q2-update.win32_1.0.0.201904181610/tools/bin/../lib/gcc/arm-none-eabi/7.3.1/../../../../arm-none-eabi/lib/thumb/v7-m\libc_nano.a(lib_a-memmove.o)
 .ARM.attributes
                0x0000000000000f31       0x2d c:/st/stm32cubeide_1.3.0/stm32cubeide/plugins/com.st.stm32cube.ide.mcu.externaltools.gnu-tools-for-stm32.7-2018-q2-update.win32_1.0.0.201904181610/tools/bin/../lib/gcc/arm-none-eabi/7.3.1/../../../../arm-none-eabi/lib/thumb/v7-m\libc_nano.a(lib_a-nano-reallocr.o)
 .ARM.attributes
                0x0000000000000f5e       0x2d c:/st/stm32cubeide_1.3.0/stm32cubeide/plugins/com.st.stm32cube.ide.mcu.externaltools.gnu-tools-for-stm32.7-2018-q2-update.win32_1.0.0.201904181610/tools/bin/../lib/gcc/arm-none-eabi/7.3.1/../../../../arm-none-eabi/lib/thumb/v7-m\libc_nano.a(lib_a-nano-msizer.o)
 .ARM.attributes
                0x0000000000000f8b       0x2d c:/st/stm32cubeide_1.3.0/stm32cubeide/plugins/com.st.stm32cube.ide.mcu.externaltools.gnu-tools-for-stm32.7-2018-q2-update.win32_1.0.0.201904181610/tools/bin/../lib/gcc/arm-none-eabi/7.3.1/../../../../arm-none-eabi/lib/thumb/v7-m\libm.a(lib_a-s_round.o)
 .ARM.attributes
                0x0000000000000fb8       0x2d c:/st/stm32cubeide_1.3.0/stm32cubeide/plugins/com.st.stm32cube.ide.mcu.externaltools.gnu-tools-for-stm32.7-2018-q2-update.win32_1.0.0.201904181610/tools/bin/../lib/gcc/arm-none-eabi/7.3.1/../../../../arm-none-eabi/lib/thumb/v7-m\libm.a(lib_a-s_sin.o)
 .ARM.attributes
                0x0000000000000fe5       0x2d c:/st/stm32cubeide_1.3.0/stm32cubeide/plugins/com.st.stm32cube.ide.mcu.externaltools.gnu-tools-for-stm32.7-2018-q2-update.win32_1.0.0.201904181610/tools/bin/../lib/gcc/arm-none-eabi/7.3.1/../../../../arm-none-eabi/lib/thumb/v7-m\libm.a(lib_a-w_pow.o)
 .ARM.attributes
                0x0000000000001012       0x2d c:/st/stm32cubeide_1.3.0/stm32cubeide/plugins/com.st.stm32cube.ide.mcu.externaltools.gnu-tools-for-stm32.7-2018-q2-update.win32_1.0.0.201904181610/tools/bin/../lib/gcc/arm-none-eabi/7.3.1/../../../../arm-none-eabi/lib/thumb/v7-m\libm.a(lib_a-e_pow.o)
 .ARM.attributes
                0x000000000000103f       0x2d c:/st/stm32cubeide_1.3.0/stm32cubeide/plugins/com.st.stm32cube.ide.mcu.externaltools.gnu-tools-for-stm32.7-2018-q2-update.win32_1.0.0.201904181610/tools/bin/../lib/gcc/arm-none-eabi/7.3.1/../../../../arm-none-eabi/lib/thumb/v7-m\libm.a(lib_a-e_rem_pio2.o)
 .ARM.attributes
                0x000000000000106c       0x2d c:/st/stm32cubeide_1.3.0/stm32cubeide/plugins/com.st.stm32cube.ide.mcu.externaltools.gnu-tools-for-stm32.7-2018-q2-update.win32_1.0.0.201904181610/tools/bin/../lib/gcc/arm-none-eabi/7.3.1/../../../../arm-none-eabi/lib/thumb/v7-m\libm.a(lib_a-e_sqrt.o)
 .ARM.attributes
                0x0000000000001099       0x2d c:/st/stm32cubeide_1.3.0/stm32cubeide/plugins/com.st.stm32cube.ide.mcu.externaltools.gnu-tools-for-stm32.7-2018-q2-update.win32_1.0.0.201904181610/tools/bin/../lib/gcc/arm-none-eabi/7.3.1/../../../../arm-none-eabi/lib/thumb/v7-m\libm.a(lib_a-k_cos.o)
 .ARM.attributes
                0x00000000000010c6       0x2d c:/st/stm32cubeide_1.3.0/stm32cubeide/plugins/com.st.stm32cube.ide.mcu.externaltools.gnu-tools-for-stm32.7-2018-q2-update.win32_1.0.0.201904181610/tools/bin/../lib/gcc/arm-none-eabi/7.3.1/../../../../arm-none-eabi/lib/thumb/v7-m\libm.a(lib_a-k_rem_pio2.o)
 .ARM.attributes
                0x00000000000010f3       0x2d c:/st/stm32cubeide_1.3.0/stm32cubeide/plugins/com.st.stm32cube.ide.mcu.externaltools.gnu-tools-for-stm32.7-2018-q2-update.win32_1.0.0.201904181610/tools/bin/../lib/gcc/arm-none-eabi/7.3.1/../../../../arm-none-eabi/lib/thumb/v7-m\libm.a(lib_a-k_sin.o)
 .ARM.attributes
                0x0000000000001120       0x2d c:/st/stm32cubeide_1.3.0/stm32cubeide/plugins/com.st.stm32cube.ide.mcu.externaltools.gnu-tools-for-stm32.7-2018-q2-update.win32_1.0.0.201904181610/tools/bin/../lib/gcc/arm-none-eabi/7.3.1/../../../../arm-none-eabi/lib/thumb/v7-m\libm.a(lib_a-s_fabs.o)
 .ARM.attributes
                0x000000000000114d       0x2d c:/st/stm32cubeide_1.3.0/stm32cubeide/plugins/com.st.stm32cube.ide.mcu.externaltools.gnu-tools-for-stm32.7-2018-q2-update.win32_1.0.0.201904181610/tools/bin/../lib/gcc/arm-none-eabi/7.3.1/../../../../arm-none-eabi/lib/thumb/v7-m\libm.a(lib_a-s_finite.o)
 .ARM.attributes
                0x000000000000117a       0x2d c:/st/stm32cubeide_1.3.0/stm32cubeide/plugins/com.st.stm32cube.ide.mcu.externaltools.gnu-tools-for-stm32.7-2018-q2-update.win32_1.0.0.201904181610/tools/bin/../lib/gcc/arm-none-eabi/7.3.1/../../../../arm-none-eabi/lib/thumb/v7-m\libm.a(lib_a-s_floor.o)
 .ARM.attributes
                0x00000000000011a7       0x2d c:/st/stm32cubeide_1.3.0/stm32cubeide/plugins/com.st.stm32cube.ide.mcu.externaltools.gnu-tools-for-stm32.7-2018-q2-update.win32_1.0.0.201904181610/tools/bin/../lib/gcc/arm-none-eabi/7.3.1/../../../../arm-none-eabi/lib/thumb/v7-m\libm.a(lib_a-s_lib_ver.o)
 .ARM.attributes
                0x00000000000011d4       0x2d c:/st/stm32cubeide_1.3.0/stm32cubeide/plugins/com.st.stm32cube.ide.mcu.externaltools.gnu-tools-for-stm32.7-2018-q2-update.win32_1.0.0.201904181610/tools/bin/../lib/gcc/arm-none-eabi/7.3.1/../../../../arm-none-eabi/lib/thumb/v7-m\libm.a(lib_a-s_matherr.o)
 .ARM.attributes
                0x0000000000001201       0x2d c:/st/stm32cubeide_1.3.0/stm32cubeide/plugins/com.st.stm32cube.ide.mcu.externaltools.gnu-tools-for-stm32.7-2018-q2-update.win32_1.0.0.201904181610/tools/bin/../lib/gcc/arm-none-eabi/7.3.1/../../../../arm-none-eabi/lib/thumb/v7-m\libm.a(lib_a-s_nan.o)
 .ARM.attributes
                0x000000000000122e       0x2d c:/st/stm32cubeide_1.3.0/stm32cubeide/plugins/com.st.stm32cube.ide.mcu.externaltools.gnu-tools-for-stm32.7-2018-q2-update.win32_1.0.0.201904181610/tools/bin/../lib/gcc/arm-none-eabi/7.3.1/../../../../arm-none-eabi/lib/thumb/v7-m\libm.a(lib_a-s_rint.o)
 .ARM.attributes
                0x000000000000125b       0x2d c:/st/stm32cubeide_1.3.0/stm32cubeide/plugins/com.st.stm32cube.ide.mcu.externaltools.gnu-tools-for-stm32.7-2018-q2-update.win32_1.0.0.201904181610/tools/bin/../lib/gcc/arm-none-eabi/7.3.1/../../../../arm-none-eabi/lib/thumb/v7-m\libm.a(lib_a-s_scalbn.o)
 .ARM.attributes
                0x0000000000001288       0x2d c:/st/stm32cubeide_1.3.0/stm32cubeide/plugins/com.st.stm32cube.ide.mcu.externaltools.gnu-tools-for-stm32.7-2018-q2-update.win32_1.0.0.201904181610/tools/bin/../lib/gcc/arm-none-eabi/7.3.1/../../../../arm-none-eabi/lib/thumb/v7-m\libm.a(lib_a-s_copysign.o)
 .ARM.attributes
                0x00000000000012b5       0x1d c:/st/stm32cubeide_1.3.0/stm32cubeide/plugins/com.st.stm32cube.ide.mcu.externaltools.gnu-tools-for-stm32.7-2018-q2-update.win32_1.0.0.201904181610/tools/bin/../lib/gcc/arm-none-eabi/7.3.1/thumb/v7-m\libgcc.a(_arm_addsubdf3.o)
 .ARM.attributes
                0x00000000000012d2       0x1d c:/st/stm32cubeide_1.3.0/stm32cubeide/plugins/com.st.stm32cube.ide.mcu.externaltools.gnu-tools-for-stm32.7-2018-q2-update.win32_1.0.0.201904181610/tools/bin/../lib/gcc/arm-none-eabi/7.3.1/thumb/v7-m\libgcc.a(_arm_muldivdf3.o)
 .ARM.attributes
                0x00000000000012ef       0x1d c:/st/stm32cubeide_1.3.0/stm32cubeide/plugins/com.st.stm32cube.ide.mcu.externaltools.gnu-tools-for-stm32.7-2018-q2-update.win32_1.0.0.201904181610/tools/bin/../lib/gcc/arm-none-eabi/7.3.1/thumb/v7-m\libgcc.a(_arm_cmpdf2.o)
 .ARM.attributes
                0x000000000000130c       0x1d c:/st/stm32cubeide_1.3.0/stm32cubeide/plugins/com.st.stm32cube.ide.mcu.externaltools.gnu-tools-for-stm32.7-2018-q2-update.win32_1.0.0.201904181610/tools/bin/../lib/gcc/arm-none-eabi/7.3.1/thumb/v7-m\libgcc.a(_arm_unorddf2.o)
 .ARM.attributes
                0x0000000000001329       0x1d c:/st/stm32cubeide_1.3.0/stm32cubeide/plugins/com.st.stm32cube.ide.mcu.externaltools.gnu-tools-for-stm32.7-2018-q2-update.win32_1.0.0.201904181610/tools/bin/../lib/gcc/arm-none-eabi/7.3.1/thumb/v7-m\libgcc.a(_arm_fixdfsi.o)
 .ARM.attributes
                0x0000000000001346       0x1d c:/st/stm32cubeide_1.3.0/stm32cubeide/plugins/com.st.stm32cube.ide.mcu.externaltools.gnu-tools-for-stm32.7-2018-q2-update.win32_1.0.0.201904181610/tools/bin/../lib/gcc/arm-none-eabi/7.3.1/thumb/v7-m\libgcc.a(_arm_truncdfsf2.o)
 .ARM.attributes
                0x0000000000001363       0x1d c:/st/stm32cubeide_1.3.0/stm32cubeide/plugins/com.st.stm32cube.ide.mcu.externaltools.gnu-tools-for-stm32.7-2018-q2-update.win32_1.0.0.201904181610/tools/bin/../lib/gcc/arm-none-eabi/7.3.1/thumb/v7-m\libgcc.a(_arm_addsubsf3.o)
 .ARM.attributes
                0x0000000000001380       0x1d c:/st/stm32cubeide_1.3.0/stm32cubeide/plugins/com.st.stm32cube.ide.mcu.externaltools.gnu-tools-for-stm32.7-2018-q2-update.win32_1.0.0.201904181610/tools/bin/../lib/gcc/arm-none-eabi/7.3.1/thumb/v7-m\libgcc.a(_arm_muldivsf3.o)
 .ARM.attributes
                0x000000000000139d       0x1d c:/st/stm32cubeide_1.3.0/stm32cubeide/plugins/com.st.stm32cube.ide.mcu.externaltools.gnu-tools-for-stm32.7-2018-q2-update.win32_1.0.0.201904181610/tools/bin/../lib/gcc/arm-none-eabi/7.3.1/thumb/v7-m\libgcc.a(_arm_cmpsf2.o)
 .ARM.attributes
                0x00000000000013ba       0x1d c:/st/stm32cubeide_1.3.0/stm32cubeide/plugins/com.st.stm32cube.ide.mcu.externaltools.gnu-tools-for-stm32.7-2018-q2-update.win32_1.0.0.201904181610/tools/bin/../lib/gcc/arm-none-eabi/7.3.1/thumb/v7-m\libgcc.a(_arm_fixsfsi.o)
 .ARM.attributes
                0x00000000000013d7       0x1d c:/st/stm32cubeide_1.3.0/stm32cubeide/plugins/com.st.stm32cube.ide.mcu.externaltools.gnu-tools-for-stm32.7-2018-q2-update.win32_1.0.0.201904181610/tools/bin/../lib/gcc/arm-none-eabi/7.3.1/thumb/v7-m\libgcc.a(_arm_fixunssfsi.o)
 .ARM.attributes
                0x00000000000013f4       0x1d c:/st/stm32cubeide_1.3.0/stm32cubeide/plugins/com.st.stm32cube.ide.mcu.externaltools.gnu-tools-for-stm32.7-2018-q2-update.win32_1.0.0.201904181610/tools/bin/../lib/gcc/arm-none-eabi/7.3.1/thumb/v7-m/crtn.o
OUTPUT(DMX_CTRL.elf elf32-littlearm)

.debug_info     0x0000000000000000    0x34b47
 .debug_info    0x0000000000000000      0x7a9 Drivers/STM32F1xx_HAL_Driver/Src/stm32f1xx_hal.o
 .debug_info    0x00000000000007a9      0xe60 Drivers/STM32F1xx_HAL_Driver/Src/stm32f1xx_hal_adc.o
 .debug_info    0x0000000000001609      0xb8a Drivers/STM32F1xx_HAL_Driver/Src/stm32f1xx_hal_adc_ex.o
 .debug_info    0x0000000000002193      0xcaa Drivers/STM32F1xx_HAL_Driver/Src/stm32f1xx_hal_cortex.o
 .debug_info    0x0000000000002e3d      0x83b Drivers/STM32F1xx_HAL_Driver/Src/stm32f1xx_hal_dma.o
 .debug_info    0x0000000000003678      0x6da Drivers/STM32F1xx_HAL_Driver/Src/stm32f1xx_hal_flash.o
 .debug_info    0x0000000000003d52      0xacb Drivers/STM32F1xx_HAL_Driver/Src/stm32f1xx_hal_flash_ex.o
 .debug_info    0x000000000000481d      0x690 Drivers/STM32F1xx_HAL_Driver/Src/stm32f1xx_hal_gpio.o
 .debug_info    0x0000000000004ead     0x12e7 Drivers/STM32F1xx_HAL_Driver/Src/stm32f1xx_hal_pcd.o
 .debug_info    0x0000000000006194      0x9e4 Drivers/STM32F1xx_HAL_Driver/Src/stm32f1xx_hal_rcc.o
 .debug_info    0x0000000000006b78      0x48c Drivers/STM32F1xx_HAL_Driver/Src/stm32f1xx_hal_rcc_ex.o
 .debug_info    0x0000000000007004     0x1acf Drivers/STM32F1xx_HAL_Driver/Src/stm32f1xx_hal_spi.o
 .debug_info    0x0000000000008ad3     0x3186 Drivers/STM32F1xx_HAL_Driver/Src/stm32f1xx_hal_tim.o
 .debug_info    0x000000000000bc59     0x169e Drivers/STM32F1xx_HAL_Driver/Src/stm32f1xx_hal_uart.o
 .debug_info    0x000000000000d2f7     0x15c5 Drivers/STM32F1xx_HAL_Driver/Src/stm32f1xx_ll_usb.o
 .debug_info    0x000000000000e8bc     0x154d Middlewares/ST/STM32_USB_Device_Library/Core/Src/usbd_core.o
 .debug_info    0x000000000000fe09     0x1872 Middlewares/ST/STM32_USB_Device_Library/Core/Src/usbd_ctlreq.o
 .debug_info    0x000000000001167b     0x101d Middlewares/ST/STM32_USB_Device_Library/Core/Src/usbd_ioreq.o
 .debug_info    0x0000000000012698      0xb4d Src/dmx512_config.o
 .debug_info    0x00000000000131e5     0x128a Src/dmx512_rec.o
 .debug_info    0x000000000001446f      0x614 Src/eeprom.o
 .debug_info    0x0000000000014a83      0xaf5 Src/fx_list.o
 .debug_info    0x0000000000015578      0xcc5 Src/fx_manager.o
 .debug_info    0x000000000001623d      0xfa3 Src/gammactrl.o
 .debug_info    0x00000000000171e0      0x3b7 Src/gpio_control.o
 .debug_info    0x0000000000017597     0x12b2 Src/light_update.o
 .debug_info    0x0000000000018849     0x2e79 Src/main.o
 .debug_info    0x000000000001b6c2     0x1333 Src/pwm_control.o
 .debug_info    0x000000000001c9f5      0xcb0 Src/ring_buffer.o
 .debug_info    0x000000000001d6a5     0x1283 Src/serial_dmx_parser.o
 .debug_info    0x000000000001e928     0x13ea Src/serial_tracer.o
 .debug_info    0x000000000001fd12     0x1633 Src/settings.o
 .debug_info    0x0000000000021345     0x1251 Src/shell.o
 .debug_info    0x0000000000022596     0x182f Src/shell_cmd.o
 .debug_info    0x0000000000023dc5      0xc56 Src/stm32f1xx_hal_msp.o
 .debug_info    0x0000000000024a1b      0x8f3 Src/stm32f1xx_it.o
 .debug_info    0x000000000002530e      0xfc3 Src/syscalls.o
 .debug_info    0x00000000000262d1      0x436 Src/system_stm32f1xx.o
 .debug_info    0x0000000000026707      0x233 Src/testmode.o
 .debug_info    0x000000000002693a     0x1510 Src/triggers.o
 .debug_info    0x0000000000027e4a     0x21c8 Src/usbd_conf.o
 .debug_info    0x000000000002a012      0xc26 Src/vt100.o
 .debug_info    0x000000000002ac38     0x1648 Src/fx/fx_pwm_pulsing_light.o
 .debug_info    0x000000000002c280     0x1638 Src/fx/fx_pwm_running_light.o
 .debug_info    0x000000000002d8b8     0x1865 Src/fx/fx_strip_cylon.o
 .debug_info    0x000000000002f11d     0x1653 Src/fx/fx_strip_rainbow.o
 .debug_info    0x0000000000030770     0x16d5 Src/fx/fx_strip_running_light.o
 .debug_info    0x0000000000031e45     0x188e Src/fx_api/fx_api.o
 .debug_info    0x00000000000336d3     0x1452 Src/ws2812B/WS2812B.o
 .debug_info    0x0000000000034b25       0x22 startup/startup_stm32f103xb.o

.debug_abbrev   0x0000000000000000     0x6fec
 .debug_abbrev  0x0000000000000000      0x1fe Drivers/STM32F1xx_HAL_Driver/Src/stm32f1xx_hal.o
 .debug_abbrev  0x00000000000001fe      0x1ee Drivers/STM32F1xx_HAL_Driver/Src/stm32f1xx_hal_adc.o
 .debug_abbrev  0x00000000000003ec      0x239 Drivers/STM32F1xx_HAL_Driver/Src/stm32f1xx_hal_adc_ex.o
 .debug_abbrev  0x0000000000000625      0x303 Drivers/STM32F1xx_HAL_Driver/Src/stm32f1xx_hal_cortex.o
 .debug_abbrev  0x0000000000000928      0x23c Drivers/STM32F1xx_HAL_Driver/Src/stm32f1xx_hal_dma.o
 .debug_abbrev  0x0000000000000b64      0x242 Drivers/STM32F1xx_HAL_Driver/Src/stm32f1xx_hal_flash.o
 .debug_abbrev  0x0000000000000da6      0x229 Drivers/STM32F1xx_HAL_Driver/Src/stm32f1xx_hal_flash_ex.o
 .debug_abbrev  0x0000000000000fcf      0x1de Drivers/STM32F1xx_HAL_Driver/Src/stm32f1xx_hal_gpio.o
 .debug_abbrev  0x00000000000011ad      0x289 Drivers/STM32F1xx_HAL_Driver/Src/stm32f1xx_hal_pcd.o
 .debug_abbrev  0x0000000000001436      0x257 Drivers/STM32F1xx_HAL_Driver/Src/stm32f1xx_hal_rcc.o
 .debug_abbrev  0x000000000000168d      0x1c9 Drivers/STM32F1xx_HAL_Driver/Src/stm32f1xx_hal_rcc_ex.o
 .debug_abbrev  0x0000000000001856      0x238 Drivers/STM32F1xx_HAL_Driver/Src/stm32f1xx_hal_spi.o
 .debug_abbrev  0x0000000000001a8e      0x237 Drivers/STM32F1xx_HAL_Driver/Src/stm32f1xx_hal_tim.o
 .debug_abbrev  0x0000000000001cc5      0x25f Drivers/STM32F1xx_HAL_Driver/Src/stm32f1xx_hal_uart.o
 .debug_abbrev  0x0000000000001f24      0x23c Drivers/STM32F1xx_HAL_Driver/Src/stm32f1xx_ll_usb.o
 .debug_abbrev  0x0000000000002160      0x285 Middlewares/ST/STM32_USB_Device_Library/Core/Src/usbd_core.o
 .debug_abbrev  0x00000000000023e5      0x302 Middlewares/ST/STM32_USB_Device_Library/Core/Src/usbd_ctlreq.o
 .debug_abbrev  0x00000000000026e7      0x1ee Middlewares/ST/STM32_USB_Device_Library/Core/Src/usbd_ioreq.o
 .debug_abbrev  0x00000000000028d5      0x275 Src/dmx512_config.o
 .debug_abbrev  0x0000000000002b4a      0x251 Src/dmx512_rec.o
 .debug_abbrev  0x0000000000002d9b      0x197 Src/eeprom.o
 .debug_abbrev  0x0000000000002f32      0x21d Src/fx_list.o
 .debug_abbrev  0x000000000000314f      0x225 Src/fx_manager.o
 .debug_abbrev  0x0000000000003374      0x28f Src/gammactrl.o
 .debug_abbrev  0x0000000000003603      0x12e Src/gpio_control.o
 .debug_abbrev  0x0000000000003731      0x25b Src/light_update.o
 .debug_abbrev  0x000000000000398c      0x32f Src/main.o
 .debug_abbrev  0x0000000000003cbb      0x26b Src/pwm_control.o
 .debug_abbrev  0x0000000000003f26      0x262 Src/ring_buffer.o
 .debug_abbrev  0x0000000000004188      0x213 Src/serial_dmx_parser.o
 .debug_abbrev  0x000000000000439b      0x24f Src/serial_tracer.o
 .debug_abbrev  0x00000000000045ea      0x231 Src/settings.o
 .debug_abbrev  0x000000000000481b      0x2f7 Src/shell.o
 .debug_abbrev  0x0000000000004b12      0x252 Src/shell_cmd.o
 .debug_abbrev  0x0000000000004d64      0x1f0 Src/stm32f1xx_hal_msp.o
 .debug_abbrev  0x0000000000004f54      0x192 Src/stm32f1xx_it.o
 .debug_abbrev  0x00000000000050e6      0x29e Src/syscalls.o
 .debug_abbrev  0x0000000000005384      0x134 Src/system_stm32f1xx.o
 .debug_abbrev  0x00000000000054b8      0x14e Src/testmode.o
 .debug_abbrev  0x0000000000005606      0x293 Src/triggers.o
 .debug_abbrev  0x0000000000005899      0x30d Src/usbd_conf.o
 .debug_abbrev  0x0000000000005ba6      0x218 Src/vt100.o
 .debug_abbrev  0x0000000000005dbe      0x25f Src/fx/fx_pwm_pulsing_light.o
 .debug_abbrev  0x000000000000601d      0x25f Src/fx/fx_pwm_running_light.o
 .debug_abbrev  0x000000000000627c      0x2aa Src/fx/fx_strip_cylon.o
 .debug_abbrev  0x0000000000006526      0x279 Src/fx/fx_strip_rainbow.o
 .debug_abbrev  0x000000000000679f      0x279 Src/fx/fx_strip_running_light.o
 .debug_abbrev  0x0000000000006a18      0x2fa Src/fx_api/fx_api.o
 .debug_abbrev  0x0000000000006d12      0x2c8 Src/ws2812B/WS2812B.o
 .debug_abbrev  0x0000000000006fda       0x12 startup/startup_stm32f103xb.o

.debug_loc      0x0000000000000000    0x1171a
 .debug_loc     0x0000000000000000      0x104 Drivers/STM32F1xx_HAL_Driver/Src/stm32f1xx_hal.o
 .debug_loc     0x0000000000000104      0x9fa Drivers/STM32F1xx_HAL_Driver/Src/stm32f1xx_hal_adc.o
 .debug_loc     0x0000000000000afe      0x798 Drivers/STM32F1xx_HAL_Driver/Src/stm32f1xx_hal_adc_ex.o
 .debug_loc     0x0000000000001296      0x5ad Drivers/STM32F1xx_HAL_Driver/Src/stm32f1xx_hal_cortex.o
 .debug_loc     0x0000000000001843      0x7c6 Drivers/STM32F1xx_HAL_Driver/Src/stm32f1xx_hal_dma.o
 .debug_loc     0x0000000000002009      0x337 Drivers/STM32F1xx_HAL_Driver/Src/stm32f1xx_hal_flash.o
 .debug_loc     0x0000000000002340      0x859 Drivers/STM32F1xx_HAL_Driver/Src/stm32f1xx_hal_flash_ex.o
 .debug_loc     0x0000000000002b99      0x3b7 Drivers/STM32F1xx_HAL_Driver/Src/stm32f1xx_hal_gpio.o
 .debug_loc     0x0000000000002f50      0xaeb Drivers/STM32F1xx_HAL_Driver/Src/stm32f1xx_hal_pcd.o
 .debug_loc     0x0000000000003a3b      0x4bb Drivers/STM32F1xx_HAL_Driver/Src/stm32f1xx_hal_rcc.o
 .debug_loc     0x0000000000003ef6      0x2d0 Drivers/STM32F1xx_HAL_Driver/Src/stm32f1xx_hal_rcc_ex.o
 .debug_loc     0x00000000000041c6     0x195f Drivers/STM32F1xx_HAL_Driver/Src/stm32f1xx_hal_spi.o
 .debug_loc     0x0000000000005b25     0x38d5 Drivers/STM32F1xx_HAL_Driver/Src/stm32f1xx_hal_tim.o
 .debug_loc     0x00000000000093fa     0x1533 Drivers/STM32F1xx_HAL_Driver/Src/stm32f1xx_hal_uart.o
 .debug_loc     0x000000000000a92d     0x10b2 Drivers/STM32F1xx_HAL_Driver/Src/stm32f1xx_ll_usb.o
 .debug_loc     0x000000000000b9df      0x6ed Middlewares/ST/STM32_USB_Device_Library/Core/Src/usbd_core.o
 .debug_loc     0x000000000000c0cc     0x105b Middlewares/ST/STM32_USB_Device_Library/Core/Src/usbd_ctlreq.o
 .debug_loc     0x000000000000d127      0x23c Middlewares/ST/STM32_USB_Device_Library/Core/Src/usbd_ioreq.o
 .debug_loc     0x000000000000d363       0xcf Src/dmx512_config.o
 .debug_loc     0x000000000000d432       0xbf Src/dmx512_rec.o
 .debug_loc     0x000000000000d4f1      0x427 Src/eeprom.o
 .debug_loc     0x000000000000d918       0xe1 Src/fx_list.o
 .debug_loc     0x000000000000d9f9       0x3a Src/fx_manager.o
 .debug_loc     0x000000000000da33      0x253 Src/gammactrl.o
 .debug_loc     0x000000000000dc86       0x56 Src/gpio_control.o
 .debug_loc     0x000000000000dcdc      0x1a7 Src/light_update.o
 .debug_loc     0x000000000000de83      0x123 Src/main.o
 .debug_loc     0x000000000000dfa6      0x105 Src/pwm_control.o
 .debug_loc     0x000000000000e0ab      0x4d5 Src/ring_buffer.o
 .debug_loc     0x000000000000e580       0x1e Src/serial_dmx_parser.o
 .debug_loc     0x000000000000e59e       0xa9 Src/serial_tracer.o
 .debug_loc     0x000000000000e647      0x2a2 Src/shell.o
 .debug_loc     0x000000000000e8e9      0x795 Src/shell_cmd.o
 .debug_loc     0x000000000000f07e      0x170 Src/stm32f1xx_hal_msp.o
 .debug_loc     0x000000000000f1ee      0x3af Src/syscalls.o
 .debug_loc     0x000000000000f59d       0xdf Src/system_stm32f1xx.o
 .debug_loc     0x000000000000f67c       0x60 Src/testmode.o
 .debug_loc     0x000000000000f6dc      0x15f Src/triggers.o
 .debug_loc     0x000000000000f83b      0x9e3 Src/usbd_conf.o
 .debug_loc     0x000000000001021e      0x154 Src/vt100.o
 .debug_loc     0x0000000000010372      0x2f0 Src/fx/fx_pwm_pulsing_light.o
 .debug_loc     0x0000000000010662      0x21e Src/fx/fx_pwm_running_light.o
 .debug_loc     0x0000000000010880      0x1a7 Src/fx/fx_strip_cylon.o
 .debug_loc     0x0000000000010a27      0x1b7 Src/fx/fx_strip_rainbow.o
 .debug_loc     0x0000000000010bde      0x1b7 Src/fx/fx_strip_running_light.o
 .debug_loc     0x0000000000010d95      0x3f2 Src/fx_api/fx_api.o
 .debug_loc     0x0000000000011187      0x593 Src/ws2812B/WS2812B.o

.debug_aranges  0x0000000000000000     0x1af0
 .debug_aranges
                0x0000000000000000       0xe0 Drivers/STM32F1xx_HAL_Driver/Src/stm32f1xx_hal.o
 .debug_aranges
                0x00000000000000e0       0xf0 Drivers/STM32F1xx_HAL_Driver/Src/stm32f1xx_hal_adc.o
 .debug_aranges
                0x00000000000001d0       0x80 Drivers/STM32F1xx_HAL_Driver/Src/stm32f1xx_hal_adc_ex.o
 .debug_aranges
                0x0000000000000250       0x90 Drivers/STM32F1xx_HAL_Driver/Src/stm32f1xx_hal_cortex.o
 .debug_aranges
                0x00000000000002e0       0x80 Drivers/STM32F1xx_HAL_Driver/Src/stm32f1xx_hal_dma.o
 .debug_aranges
                0x0000000000000360       0x88 Drivers/STM32F1xx_HAL_Driver/Src/stm32f1xx_hal_flash.o
 .debug_aranges
                0x00000000000003e8       0x98 Drivers/STM32F1xx_HAL_Driver/Src/stm32f1xx_hal_flash_ex.o
 .debug_aranges
                0x0000000000000480       0x58 Drivers/STM32F1xx_HAL_Driver/Src/stm32f1xx_hal_gpio.o
 .debug_aranges
                0x00000000000004d8      0x120 Drivers/STM32F1xx_HAL_Driver/Src/stm32f1xx_hal_pcd.o
 .debug_aranges
                0x00000000000005f8       0x90 Drivers/STM32F1xx_HAL_Driver/Src/stm32f1xx_hal_rcc.o
 .debug_aranges
                0x0000000000000688       0x30 Drivers/STM32F1xx_HAL_Driver/Src/stm32f1xx_hal_rcc_ex.o
 .debug_aranges
                0x00000000000006b8      0x1d0 Drivers/STM32F1xx_HAL_Driver/Src/stm32f1xx_hal_spi.o
 .debug_aranges
                0x0000000000000888      0x3a8 Drivers/STM32F1xx_HAL_Driver/Src/stm32f1xx_hal_tim.o
 .debug_aranges
                0x0000000000000c30      0x1d0 Drivers/STM32F1xx_HAL_Driver/Src/stm32f1xx_hal_uart.o
 .debug_aranges
                0x0000000000000e00      0x108 Drivers/STM32F1xx_HAL_Driver/Src/stm32f1xx_ll_usb.o
 .debug_aranges
                0x0000000000000f08       0xb8 Middlewares/ST/STM32_USB_Device_Library/Core/Src/usbd_core.o
 .debug_aranges
                0x0000000000000fc0       0x88 Middlewares/ST/STM32_USB_Device_Library/Core/Src/usbd_ctlreq.o
 .debug_aranges
                0x0000000000001048       0x50 Middlewares/ST/STM32_USB_Device_Library/Core/Src/usbd_ioreq.o
 .debug_aranges
                0x0000000000001098       0x70 Src/dmx512_config.o
 .debug_aranges
                0x0000000000001108       0x50 Src/dmx512_rec.o
 .debug_aranges
                0x0000000000001158       0x58 Src/eeprom.o
 .debug_aranges
                0x00000000000011b0       0x28 Src/fx_list.o
 .debug_aranges
                0x00000000000011d8       0x40 Src/fx_manager.o
 .debug_aranges
                0x0000000000001218       0x30 Src/gammactrl.o
 .debug_aranges
                0x0000000000001248       0x30 Src/gpio_control.o
 .debug_aranges
                0x0000000000001278       0x38 Src/light_update.o
 .debug_aranges
                0x00000000000012b0       0x70 Src/main.o
 .debug_aranges
                0x0000000000001320       0x30 Src/pwm_control.o
 .debug_aranges
                0x0000000000001350       0x60 Src/ring_buffer.o
 .debug_aranges
                0x00000000000013b0       0x20 Src/serial_dmx_parser.o
 .debug_aranges
                0x00000000000013d0       0x30 Src/serial_tracer.o
 .debug_aranges
                0x0000000000001400       0x48 Src/settings.o
 .debug_aranges
                0x0000000000001448       0x80 Src/shell.o
 .debug_aranges
                0x00000000000014c8       0xc8 Src/shell_cmd.o
 .debug_aranges
                0x0000000000001590       0x40 Src/stm32f1xx_hal_msp.o
 .debug_aranges
                0x00000000000015d0       0x78 Src/stm32f1xx_it.o
 .debug_aranges
                0x0000000000001648       0xb0 Src/syscalls.o
 .debug_aranges
                0x00000000000016f8       0x28 Src/system_stm32f1xx.o
 .debug_aranges
                0x0000000000001720       0x28 Src/testmode.o
 .debug_aranges
                0x0000000000001748       0x48 Src/triggers.o
 .debug_aranges
                0x0000000000001790      0x118 Src/usbd_conf.o
 .debug_aranges
                0x00000000000018a8       0x38 Src/vt100.o
 .debug_aranges
                0x00000000000018e0       0x30 Src/fx/fx_pwm_pulsing_light.o
 .debug_aranges
                0x0000000000001910       0x30 Src/fx/fx_pwm_running_light.o
 .debug_aranges
                0x0000000000001940       0x28 Src/fx/fx_strip_cylon.o
 .debug_aranges
                0x0000000000001968       0x28 Src/fx/fx_strip_rainbow.o
 .debug_aranges
                0x0000000000001990       0x28 Src/fx/fx_strip_running_light.o
 .debug_aranges
                0x00000000000019b8       0xa0 Src/fx_api/fx_api.o
 .debug_aranges
                0x0000000000001a58       0x70 Src/ws2812B/WS2812B.o
 .debug_aranges
                0x0000000000001ac8       0x28 startup/startup_stm32f103xb.o

.debug_ranges   0x0000000000000000     0x1a80
 .debug_ranges  0x0000000000000000       0xd0 Drivers/STM32F1xx_HAL_Driver/Src/stm32f1xx_hal.o
 .debug_ranges  0x00000000000000d0       0xe0 Drivers/STM32F1xx_HAL_Driver/Src/stm32f1xx_hal_adc.o
 .debug_ranges  0x00000000000001b0       0x70 Drivers/STM32F1xx_HAL_Driver/Src/stm32f1xx_hal_adc_ex.o
 .debug_ranges  0x0000000000000220       0xe0 Drivers/STM32F1xx_HAL_Driver/Src/stm32f1xx_hal_cortex.o
 .debug_ranges  0x0000000000000300       0x70 Drivers/STM32F1xx_HAL_Driver/Src/stm32f1xx_hal_dma.o
 .debug_ranges  0x0000000000000370       0x78 Drivers/STM32F1xx_HAL_Driver/Src/stm32f1xx_hal_flash.o
 .debug_ranges  0x00000000000003e8       0x88 Drivers/STM32F1xx_HAL_Driver/Src/stm32f1xx_hal_flash_ex.o
 .debug_ranges  0x0000000000000470       0x48 Drivers/STM32F1xx_HAL_Driver/Src/stm32f1xx_hal_gpio.o
 .debug_ranges  0x00000000000004b8      0x140 Drivers/STM32F1xx_HAL_Driver/Src/stm32f1xx_hal_pcd.o
 .debug_ranges  0x00000000000005f8       0xa0 Drivers/STM32F1xx_HAL_Driver/Src/stm32f1xx_hal_rcc.o
 .debug_ranges  0x0000000000000698       0x38 Drivers/STM32F1xx_HAL_Driver/Src/stm32f1xx_hal_rcc_ex.o
 .debug_ranges  0x00000000000006d0      0x1c0 Drivers/STM32F1xx_HAL_Driver/Src/stm32f1xx_hal_spi.o
 .debug_ranges  0x0000000000000890      0x398 Drivers/STM32F1xx_HAL_Driver/Src/stm32f1xx_hal_tim.o
 .debug_ranges  0x0000000000000c28      0x1c0 Drivers/STM32F1xx_HAL_Driver/Src/stm32f1xx_hal_uart.o
 .debug_ranges  0x0000000000000de8      0x218 Drivers/STM32F1xx_HAL_Driver/Src/stm32f1xx_ll_usb.o
 .debug_ranges  0x0000000000001000       0xa8 Middlewares/ST/STM32_USB_Device_Library/Core/Src/usbd_core.o
 .debug_ranges  0x00000000000010a8       0x78 Middlewares/ST/STM32_USB_Device_Library/Core/Src/usbd_ctlreq.o
 .debug_ranges  0x0000000000001120       0x40 Middlewares/ST/STM32_USB_Device_Library/Core/Src/usbd_ioreq.o
 .debug_ranges  0x0000000000001160       0x60 Src/dmx512_config.o
 .debug_ranges  0x00000000000011c0       0x40 Src/dmx512_rec.o
 .debug_ranges  0x0000000000001200       0x90 Src/eeprom.o
 .debug_ranges  0x0000000000001290       0x18 Src/fx_list.o
 .debug_ranges  0x00000000000012a8       0x30 Src/fx_manager.o
 .debug_ranges  0x00000000000012d8       0x20 Src/gammactrl.o
 .debug_ranges  0x00000000000012f8       0x20 Src/gpio_control.o
 .debug_ranges  0x0000000000001318       0x28 Src/light_update.o
 .debug_ranges  0x0000000000001340       0x78 Src/main.o
 .debug_ranges  0x00000000000013b8       0x38 Src/pwm_control.o
 .debug_ranges  0x00000000000013f0       0x50 Src/ring_buffer.o
 .debug_ranges  0x0000000000001440       0x10 Src/serial_dmx_parser.o
 .debug_ranges  0x0000000000001450       0x20 Src/serial_tracer.o
 .debug_ranges  0x0000000000001470       0x38 Src/settings.o
 .debug_ranges  0x00000000000014a8       0x88 Src/shell.o
 .debug_ranges  0x0000000000001530       0xb8 Src/shell_cmd.o
 .debug_ranges  0x00000000000015e8       0x30 Src/stm32f1xx_hal_msp.o
 .debug_ranges  0x0000000000001618       0x68 Src/stm32f1xx_it.o
 .debug_ranges  0x0000000000001680       0xa0 Src/syscalls.o
 .debug_ranges  0x0000000000001720       0x18 Src/system_stm32f1xx.o
 .debug_ranges  0x0000000000001738       0x18 Src/testmode.o
 .debug_ranges  0x0000000000001750       0x38 Src/triggers.o
 .debug_ranges  0x0000000000001788      0x108 Src/usbd_conf.o
 .debug_ranges  0x0000000000001890       0x58 Src/vt100.o
 .debug_ranges  0x00000000000018e8       0x20 Src/fx/fx_pwm_pulsing_light.o
 .debug_ranges  0x0000000000001908       0x20 Src/fx/fx_pwm_running_light.o
 .debug_ranges  0x0000000000001928       0x18 Src/fx/fx_strip_cylon.o
 .debug_ranges  0x0000000000001940       0x18 Src/fx/fx_strip_rainbow.o
 .debug_ranges  0x0000000000001958       0x18 Src/fx/fx_strip_running_light.o
 .debug_ranges  0x0000000000001970       0x90 Src/fx_api/fx_api.o
 .debug_ranges  0x0000000000001a00       0x60 Src/ws2812B/WS2812B.o
 .debug_ranges  0x0000000000001a60       0x20 startup/startup_stm32f103xb.o

.debug_macro    0x0000000000000000    0x1c239
 .debug_macro   0x0000000000000000      0x20a Drivers/STM32F1xx_HAL_Driver/Src/stm32f1xx_hal.o
 .debug_macro   0x000000000000020a      0xa54 Drivers/STM32F1xx_HAL_Driver/Src/stm32f1xx_hal.o
 .debug_macro   0x0000000000000c5e      0x239 Drivers/STM32F1xx_HAL_Driver/Src/stm32f1xx_hal.o
 .debug_macro   0x0000000000000e97       0x2e Drivers/STM32F1xx_HAL_Driver/Src/stm32f1xx_hal.o
 .debug_macro   0x0000000000000ec5       0x22 Drivers/STM32F1xx_HAL_Driver/Src/stm32f1xx_hal.o
 .debug_macro   0x0000000000000ee7       0x22 Drivers/STM32F1xx_HAL_Driver/Src/stm32f1xx_hal.o
 .debug_macro   0x0000000000000f09       0x8e Drivers/STM32F1xx_HAL_Driver/Src/stm32f1xx_hal.o
 .debug_macro   0x0000000000000f97       0x51 Drivers/STM32F1xx_HAL_Driver/Src/stm32f1xx_hal.o
 .debug_macro   0x0000000000000fe8       0xef Drivers/STM32F1xx_HAL_Driver/Src/stm32f1xx_hal.o
 .debug_macro   0x00000000000010d7       0x6a Drivers/STM32F1xx_HAL_Driver/Src/stm32f1xx_hal.o
 .debug_macro   0x0000000000001141      0x1df Drivers/STM32F1xx_HAL_Driver/Src/stm32f1xx_hal.o
 .debug_macro   0x0000000000001320       0x1c Drivers/STM32F1xx_HAL_Driver/Src/stm32f1xx_hal.o
 .debug_macro   0x000000000000133c       0x22 Drivers/STM32F1xx_HAL_Driver/Src/stm32f1xx_hal.o
 .debug_macro   0x000000000000135e       0xc3 Drivers/STM32F1xx_HAL_Driver/Src/stm32f1xx_hal.o
 .debug_macro   0x0000000000001421      0xd23 Drivers/STM32F1xx_HAL_Driver/Src/stm32f1xx_hal.o
 .debug_macro   0x0000000000002144     0xe09e Drivers/STM32F1xx_HAL_Driver/Src/stm32f1xx_hal.o
 .debug_macro   0x00000000000101e2       0x43 Drivers/STM32F1xx_HAL_Driver/Src/stm32f1xx_hal.o
 .debug_macro   0x0000000000010225      0x174 Drivers/STM32F1xx_HAL_Driver/Src/stm32f1xx_hal.o
 .debug_macro   0x0000000000010399       0x5a Drivers/STM32F1xx_HAL_Driver/Src/stm32f1xx_hal.o
 .debug_macro   0x00000000000103f3      0x5be Drivers/STM32F1xx_HAL_Driver/Src/stm32f1xx_hal.o
 .debug_macro   0x00000000000109b1      0x289 Drivers/STM32F1xx_HAL_Driver/Src/stm32f1xx_hal.o
 .debug_macro   0x0000000000010c3a      0x1cb Drivers/STM32F1xx_HAL_Driver/Src/stm32f1xx_hal.o
 .debug_macro   0x0000000000010e05      0x114 Drivers/STM32F1xx_HAL_Driver/Src/stm32f1xx_hal.o
 .debug_macro   0x0000000000010f19      0x1b2 Drivers/STM32F1xx_HAL_Driver/Src/stm32f1xx_hal.o
 .debug_macro   0x00000000000110cb       0x27 Drivers/STM32F1xx_HAL_Driver/Src/stm32f1xx_hal.o
 .debug_macro   0x00000000000110f2      0x136 Drivers/STM32F1xx_HAL_Driver/Src/stm32f1xx_hal.o
 .debug_macro   0x0000000000011228      0x1bc Drivers/STM32F1xx_HAL_Driver/Src/stm32f1xx_hal.o
 .debug_macro   0x00000000000113e4       0x34 Drivers/STM32F1xx_HAL_Driver/Src/stm32f1xx_hal.o
 .debug_macro   0x0000000000011418       0x3c Drivers/STM32F1xx_HAL_Driver/Src/stm32f1xx_hal.o
 .debug_macro   0x0000000000011454       0x57 Drivers/STM32F1xx_HAL_Driver/Src/stm32f1xx_hal.o
 .debug_macro   0x00000000000114ab      0x46a Drivers/STM32F1xx_HAL_Driver/Src/stm32f1xx_hal.o
 .debug_macro   0x0000000000011915      0x1b5 Drivers/STM32F1xx_HAL_Driver/Src/stm32f1xx_hal.o
 .debug_macro   0x0000000000011aca       0x88 Drivers/STM32F1xx_HAL_Driver/Src/stm32f1xx_hal.o
 .debug_macro   0x0000000000011b52      0x241 Drivers/STM32F1xx_HAL_Driver/Src/stm32f1xx_hal.o
 .debug_macro   0x0000000000011d93       0x78 Drivers/STM32F1xx_HAL_Driver/Src/stm32f1xx_hal.o
 .debug_macro   0x0000000000011e0b      0x141 Drivers/STM32F1xx_HAL_Driver/Src/stm32f1xx_hal.o
 .debug_macro   0x0000000000011f4c      0x217 Drivers/STM32F1xx_HAL_Driver/Src/stm32f1xx_hal.o
 .debug_macro   0x0000000000012163      0x88b Drivers/STM32F1xx_HAL_Driver/Src/stm32f1xx_hal.o
 .debug_macro   0x00000000000129ee      0x26b Drivers/STM32F1xx_HAL_Driver/Src/stm32f1xx_hal.o
 .debug_macro   0x0000000000012c59       0x65 Drivers/STM32F1xx_HAL_Driver/Src/stm32f1xx_hal.o
