
DMX_CTRL.elf:     file format elf32-littlearm

Sections:
Idx Name          Size      VMA       LMA       File off  Algn
  0 .isr_vector   0000010c  08000000  08000000  00010000  2**0
                  CONTENTS, ALLOC, LOAD, READONLY, DATA
  1 .text         0000b218  08000110  08000110  00010110  2**3
                  CONTENTS, ALLOC, LOAD, READONLY, CODE
  2 .rodata       00001860  0800b328  0800b328  0001b328  2**3
                  CONTENTS, ALLOC, LOAD, READONLY, DATA
  3 .init_array   00000004  0800cb88  0800cb88  0001cb88  2**2
                  CONTENTS, ALLOC, LOAD, DATA
  4 .fini_array   00000004  0800cb8c  0800cb8c  0001cb8c  2**2
                  CONTENTS, ALLOC, LOAD, DATA
  5 .data         00000268  20000000  0800cb90  00020000  2**2
                  CONTENTS, ALLOC, LOAD, DATA
  6 .bss          00000ad0  20000268  0800cdf8  00020268  2**3
                  ALLOC
  7 ._user_heap_stack 00000600  20000d38  0800cdf8  00020d38  2**0
                  ALLOC
  8 .ARM.attributes 00000029  00000000  00000000  00020268  2**0
                  CONTENTS, READONLY
  9 .debug_info   00034b47  00000000  00000000  00020291  2**0
                  CONTENTS, READONLY, DEBUGGING
 10 .debug_abbrev 00006fec  00000000  00000000  00054dd8  2**0
                  CONTENTS, READONLY, DEBUGGING
 11 .debug_loc    0001171a  00000000  00000000  0005bdc4  2**0
                  CONTENTS, READONLY, DEBUGGING
 12 .debug_aranges 00001af0  00000000  00000000  0006d4e0  2**3
                  CONTENTS, READONLY, DEBUGGING
 13 .debug_ranges 00001a80  00000000  00000000  0006efd0  2**3
                  CONTENTS, READONLY, DEBUGGING
 14 .debug_macro  0001c239  00000000  00000000  00070a50  2**0
                  CONTENTS, READONLY, DEBUGGING
 15 .debug_line   0001d9c1  00000000  00000000  0008cc89  2**0
                  CONTENTS, READONLY, DEBUGGING
 16 .debug_str    00081ecd  00000000  00000000  000aa64a  2**0
                  CONTENTS, READONLY, DEBUGGING
 17 .comment      0000007b  00000000  00000000  0012c517  2**0
                  CONTENTS, READONLY
 18 .debug_frame  000052f8  00000000  00000000  0012c594  2**2
                  CONTENTS, READONLY, DEBUGGING

Disassembly of section .text:

08000110 <__do_global_dtors_aux>:
 8000110:	b510      	push	{r4, lr}
 8000112:	4c05      	ldr	r4, [pc, #20]	; (8000128 <__do_global_dtors_aux+0x18>)
 8000114:	7823      	ldrb	r3, [r4, #0]
 8000116:	b933      	cbnz	r3, 8000126 <__do_global_dtors_aux+0x16>
 8000118:	4b04      	ldr	r3, [pc, #16]	; (800012c <__do_global_dtors_aux+0x1c>)
 800011a:	b113      	cbz	r3, 8000122 <__do_global_dtors_aux+0x12>
 800011c:	4804      	ldr	r0, [pc, #16]	; (8000130 <__do_global_dtors_aux+0x20>)
 800011e:	f3af 8000 	nop.w
 8000122:	2301      	movs	r3, #1
 8000124:	7023      	strb	r3, [r4, #0]
 8000126:	bd10      	pop	{r4, pc}
 8000128:	20000268 	.word	0x20000268
 800012c:	00000000 	.word	0x00000000
 8000130:	0800b310 	.word	0x0800b310

08000134 <frame_dummy>:
 8000134:	b508      	push	{r3, lr}
 8000136:	4b03      	ldr	r3, [pc, #12]	; (8000144 <frame_dummy+0x10>)
 8000138:	b11b      	cbz	r3, 8000142 <frame_dummy+0xe>
 800013a:	4903      	ldr	r1, [pc, #12]	; (8000148 <frame_dummy+0x14>)
 800013c:	4803      	ldr	r0, [pc, #12]	; (800014c <frame_dummy+0x18>)
 800013e:	f3af 8000 	nop.w
 8000142:	bd08      	pop	{r3, pc}
 8000144:	00000000 	.word	0x00000000
 8000148:	2000026c 	.word	0x2000026c
 800014c:	0800b310 	.word	0x0800b310

08000150 <strlen>:
 8000150:	4603      	mov	r3, r0
 8000152:	f813 2b01 	ldrb.w	r2, [r3], #1
 8000156:	2a00      	cmp	r2, #0
 8000158:	d1fb      	bne.n	8000152 <strlen+0x2>
 800015a:	1a18      	subs	r0, r3, r0
 800015c:	3801      	subs	r0, #1
 800015e:	4770      	bx	lr

08000160 <__aeabi_drsub>:
 8000160:	f081 4100 	eor.w	r1, r1, #2147483648	; 0x80000000
 8000164:	e002      	b.n	800016c <__adddf3>
 8000166:	bf00      	nop

08000168 <__aeabi_dsub>:
 8000168:	f083 4300 	eor.w	r3, r3, #2147483648	; 0x80000000

0800016c <__adddf3>:
 800016c:	b530      	push	{r4, r5, lr}
 800016e:	ea4f 0441 	mov.w	r4, r1, lsl #1
 8000172:	ea4f 0543 	mov.w	r5, r3, lsl #1
 8000176:	ea94 0f05 	teq	r4, r5
 800017a:	bf08      	it	eq
 800017c:	ea90 0f02 	teqeq	r0, r2
 8000180:	bf1f      	itttt	ne
 8000182:	ea54 0c00 	orrsne.w	ip, r4, r0
 8000186:	ea55 0c02 	orrsne.w	ip, r5, r2
 800018a:	ea7f 5c64 	mvnsne.w	ip, r4, asr #21
 800018e:	ea7f 5c65 	mvnsne.w	ip, r5, asr #21
 8000192:	f000 80e2 	beq.w	800035a <__adddf3+0x1ee>
 8000196:	ea4f 5454 	mov.w	r4, r4, lsr #21
 800019a:	ebd4 5555 	rsbs	r5, r4, r5, lsr #21
 800019e:	bfb8      	it	lt
 80001a0:	426d      	neglt	r5, r5
 80001a2:	dd0c      	ble.n	80001be <__adddf3+0x52>
 80001a4:	442c      	add	r4, r5
 80001a6:	ea80 0202 	eor.w	r2, r0, r2
 80001aa:	ea81 0303 	eor.w	r3, r1, r3
 80001ae:	ea82 0000 	eor.w	r0, r2, r0
 80001b2:	ea83 0101 	eor.w	r1, r3, r1
 80001b6:	ea80 0202 	eor.w	r2, r0, r2
 80001ba:	ea81 0303 	eor.w	r3, r1, r3
 80001be:	2d36      	cmp	r5, #54	; 0x36
 80001c0:	bf88      	it	hi
 80001c2:	bd30      	pophi	{r4, r5, pc}
 80001c4:	f011 4f00 	tst.w	r1, #2147483648	; 0x80000000
 80001c8:	ea4f 3101 	mov.w	r1, r1, lsl #12
 80001cc:	f44f 1c80 	mov.w	ip, #1048576	; 0x100000
 80001d0:	ea4c 3111 	orr.w	r1, ip, r1, lsr #12
 80001d4:	d002      	beq.n	80001dc <__adddf3+0x70>
 80001d6:	4240      	negs	r0, r0
 80001d8:	eb61 0141 	sbc.w	r1, r1, r1, lsl #1
 80001dc:	f013 4f00 	tst.w	r3, #2147483648	; 0x80000000
 80001e0:	ea4f 3303 	mov.w	r3, r3, lsl #12
 80001e4:	ea4c 3313 	orr.w	r3, ip, r3, lsr #12
 80001e8:	d002      	beq.n	80001f0 <__adddf3+0x84>
 80001ea:	4252      	negs	r2, r2
 80001ec:	eb63 0343 	sbc.w	r3, r3, r3, lsl #1
 80001f0:	ea94 0f05 	teq	r4, r5
 80001f4:	f000 80a7 	beq.w	8000346 <__adddf3+0x1da>
 80001f8:	f1a4 0401 	sub.w	r4, r4, #1
 80001fc:	f1d5 0e20 	rsbs	lr, r5, #32
 8000200:	db0d      	blt.n	800021e <__adddf3+0xb2>
 8000202:	fa02 fc0e 	lsl.w	ip, r2, lr
 8000206:	fa22 f205 	lsr.w	r2, r2, r5
 800020a:	1880      	adds	r0, r0, r2
 800020c:	f141 0100 	adc.w	r1, r1, #0
 8000210:	fa03 f20e 	lsl.w	r2, r3, lr
 8000214:	1880      	adds	r0, r0, r2
 8000216:	fa43 f305 	asr.w	r3, r3, r5
 800021a:	4159      	adcs	r1, r3
 800021c:	e00e      	b.n	800023c <__adddf3+0xd0>
 800021e:	f1a5 0520 	sub.w	r5, r5, #32
 8000222:	f10e 0e20 	add.w	lr, lr, #32
 8000226:	2a01      	cmp	r2, #1
 8000228:	fa03 fc0e 	lsl.w	ip, r3, lr
 800022c:	bf28      	it	cs
 800022e:	f04c 0c02 	orrcs.w	ip, ip, #2
 8000232:	fa43 f305 	asr.w	r3, r3, r5
 8000236:	18c0      	adds	r0, r0, r3
 8000238:	eb51 71e3 	adcs.w	r1, r1, r3, asr #31
 800023c:	f001 4500 	and.w	r5, r1, #2147483648	; 0x80000000
 8000240:	d507      	bpl.n	8000252 <__adddf3+0xe6>
 8000242:	f04f 0e00 	mov.w	lr, #0
 8000246:	f1dc 0c00 	rsbs	ip, ip, #0
 800024a:	eb7e 0000 	sbcs.w	r0, lr, r0
 800024e:	eb6e 0101 	sbc.w	r1, lr, r1
 8000252:	f5b1 1f80 	cmp.w	r1, #1048576	; 0x100000
 8000256:	d31b      	bcc.n	8000290 <__adddf3+0x124>
 8000258:	f5b1 1f00 	cmp.w	r1, #2097152	; 0x200000
 800025c:	d30c      	bcc.n	8000278 <__adddf3+0x10c>
 800025e:	0849      	lsrs	r1, r1, #1
 8000260:	ea5f 0030 	movs.w	r0, r0, rrx
 8000264:	ea4f 0c3c 	mov.w	ip, ip, rrx
 8000268:	f104 0401 	add.w	r4, r4, #1
 800026c:	ea4f 5244 	mov.w	r2, r4, lsl #21
 8000270:	f512 0f80 	cmn.w	r2, #4194304	; 0x400000
 8000274:	f080 809a 	bcs.w	80003ac <__adddf3+0x240>
 8000278:	f1bc 4f00 	cmp.w	ip, #2147483648	; 0x80000000
 800027c:	bf08      	it	eq
 800027e:	ea5f 0c50 	movseq.w	ip, r0, lsr #1
 8000282:	f150 0000 	adcs.w	r0, r0, #0
 8000286:	eb41 5104 	adc.w	r1, r1, r4, lsl #20
 800028a:	ea41 0105 	orr.w	r1, r1, r5
 800028e:	bd30      	pop	{r4, r5, pc}
 8000290:	ea5f 0c4c 	movs.w	ip, ip, lsl #1
 8000294:	4140      	adcs	r0, r0
 8000296:	eb41 0101 	adc.w	r1, r1, r1
 800029a:	f411 1f80 	tst.w	r1, #1048576	; 0x100000
 800029e:	f1a4 0401 	sub.w	r4, r4, #1
 80002a2:	d1e9      	bne.n	8000278 <__adddf3+0x10c>
 80002a4:	f091 0f00 	teq	r1, #0
 80002a8:	bf04      	itt	eq
 80002aa:	4601      	moveq	r1, r0
 80002ac:	2000      	moveq	r0, #0
 80002ae:	fab1 f381 	clz	r3, r1
 80002b2:	bf08      	it	eq
 80002b4:	3320      	addeq	r3, #32
 80002b6:	f1a3 030b 	sub.w	r3, r3, #11
 80002ba:	f1b3 0220 	subs.w	r2, r3, #32
 80002be:	da0c      	bge.n	80002da <__adddf3+0x16e>
 80002c0:	320c      	adds	r2, #12
 80002c2:	dd08      	ble.n	80002d6 <__adddf3+0x16a>
 80002c4:	f102 0c14 	add.w	ip, r2, #20
 80002c8:	f1c2 020c 	rsb	r2, r2, #12
 80002cc:	fa01 f00c 	lsl.w	r0, r1, ip
 80002d0:	fa21 f102 	lsr.w	r1, r1, r2
 80002d4:	e00c      	b.n	80002f0 <__adddf3+0x184>
 80002d6:	f102 0214 	add.w	r2, r2, #20
 80002da:	bfd8      	it	le
 80002dc:	f1c2 0c20 	rsble	ip, r2, #32
 80002e0:	fa01 f102 	lsl.w	r1, r1, r2
 80002e4:	fa20 fc0c 	lsr.w	ip, r0, ip
 80002e8:	bfdc      	itt	le
 80002ea:	ea41 010c 	orrle.w	r1, r1, ip
 80002ee:	4090      	lslle	r0, r2
 80002f0:	1ae4      	subs	r4, r4, r3
 80002f2:	bfa2      	ittt	ge
 80002f4:	eb01 5104 	addge.w	r1, r1, r4, lsl #20
 80002f8:	4329      	orrge	r1, r5
 80002fa:	bd30      	popge	{r4, r5, pc}
 80002fc:	ea6f 0404 	mvn.w	r4, r4
 8000300:	3c1f      	subs	r4, #31
 8000302:	da1c      	bge.n	800033e <__adddf3+0x1d2>
 8000304:	340c      	adds	r4, #12
 8000306:	dc0e      	bgt.n	8000326 <__adddf3+0x1ba>
 8000308:	f104 0414 	add.w	r4, r4, #20
 800030c:	f1c4 0220 	rsb	r2, r4, #32
 8000310:	fa20 f004 	lsr.w	r0, r0, r4
 8000314:	fa01 f302 	lsl.w	r3, r1, r2
 8000318:	ea40 0003 	orr.w	r0, r0, r3
 800031c:	fa21 f304 	lsr.w	r3, r1, r4
 8000320:	ea45 0103 	orr.w	r1, r5, r3
 8000324:	bd30      	pop	{r4, r5, pc}
 8000326:	f1c4 040c 	rsb	r4, r4, #12
 800032a:	f1c4 0220 	rsb	r2, r4, #32
 800032e:	fa20 f002 	lsr.w	r0, r0, r2
 8000332:	fa01 f304 	lsl.w	r3, r1, r4
 8000336:	ea40 0003 	orr.w	r0, r0, r3
 800033a:	4629      	mov	r1, r5
 800033c:	bd30      	pop	{r4, r5, pc}
 800033e:	fa21 f004 	lsr.w	r0, r1, r4
 8000342:	4629      	mov	r1, r5
 8000344:	bd30      	pop	{r4, r5, pc}
 8000346:	f094 0f00 	teq	r4, #0
 800034a:	f483 1380 	eor.w	r3, r3, #1048576	; 0x100000
 800034e:	bf06      	itte	eq
 8000350:	f481 1180 	eoreq.w	r1, r1, #1048576	; 0x100000
 8000354:	3401      	addeq	r4, #1
 8000356:	3d01      	subne	r5, #1
 8000358:	e74e      	b.n	80001f8 <__adddf3+0x8c>
 800035a:	ea7f 5c64 	mvns.w	ip, r4, asr #21
 800035e:	bf18      	it	ne
 8000360:	ea7f 5c65 	mvnsne.w	ip, r5, asr #21
 8000364:	d029      	beq.n	80003ba <__adddf3+0x24e>
 8000366:	ea94 0f05 	teq	r4, r5
 800036a:	bf08      	it	eq
 800036c:	ea90 0f02 	teqeq	r0, r2
 8000370:	d005      	beq.n	800037e <__adddf3+0x212>
 8000372:	ea54 0c00 	orrs.w	ip, r4, r0
 8000376:	bf04      	itt	eq
 8000378:	4619      	moveq	r1, r3
 800037a:	4610      	moveq	r0, r2
 800037c:	bd30      	pop	{r4, r5, pc}
 800037e:	ea91 0f03 	teq	r1, r3
 8000382:	bf1e      	ittt	ne
 8000384:	2100      	movne	r1, #0
 8000386:	2000      	movne	r0, #0
 8000388:	bd30      	popne	{r4, r5, pc}
 800038a:	ea5f 5c54 	movs.w	ip, r4, lsr #21
 800038e:	d105      	bne.n	800039c <__adddf3+0x230>
 8000390:	0040      	lsls	r0, r0, #1
 8000392:	4149      	adcs	r1, r1
 8000394:	bf28      	it	cs
 8000396:	f041 4100 	orrcs.w	r1, r1, #2147483648	; 0x80000000
 800039a:	bd30      	pop	{r4, r5, pc}
 800039c:	f514 0480 	adds.w	r4, r4, #4194304	; 0x400000
 80003a0:	bf3c      	itt	cc
 80003a2:	f501 1180 	addcc.w	r1, r1, #1048576	; 0x100000
 80003a6:	bd30      	popcc	{r4, r5, pc}
 80003a8:	f001 4500 	and.w	r5, r1, #2147483648	; 0x80000000
 80003ac:	f045 41fe 	orr.w	r1, r5, #2130706432	; 0x7f000000
 80003b0:	f441 0170 	orr.w	r1, r1, #15728640	; 0xf00000
 80003b4:	f04f 0000 	mov.w	r0, #0
 80003b8:	bd30      	pop	{r4, r5, pc}
 80003ba:	ea7f 5c64 	mvns.w	ip, r4, asr #21
 80003be:	bf1a      	itte	ne
 80003c0:	4619      	movne	r1, r3
 80003c2:	4610      	movne	r0, r2
 80003c4:	ea7f 5c65 	mvnseq.w	ip, r5, asr #21
 80003c8:	bf1c      	itt	ne
 80003ca:	460b      	movne	r3, r1
 80003cc:	4602      	movne	r2, r0
 80003ce:	ea50 3401 	orrs.w	r4, r0, r1, lsl #12
 80003d2:	bf06      	itte	eq
 80003d4:	ea52 3503 	orrseq.w	r5, r2, r3, lsl #12
 80003d8:	ea91 0f03 	teqeq	r1, r3
 80003dc:	f441 2100 	orrne.w	r1, r1, #524288	; 0x80000
 80003e0:	bd30      	pop	{r4, r5, pc}
 80003e2:	bf00      	nop

080003e4 <__aeabi_ui2d>:
 80003e4:	f090 0f00 	teq	r0, #0
 80003e8:	bf04      	itt	eq
 80003ea:	2100      	moveq	r1, #0
 80003ec:	4770      	bxeq	lr
 80003ee:	b530      	push	{r4, r5, lr}
 80003f0:	f44f 6480 	mov.w	r4, #1024	; 0x400
 80003f4:	f104 0432 	add.w	r4, r4, #50	; 0x32
 80003f8:	f04f 0500 	mov.w	r5, #0
 80003fc:	f04f 0100 	mov.w	r1, #0
 8000400:	e750      	b.n	80002a4 <__adddf3+0x138>
 8000402:	bf00      	nop

08000404 <__aeabi_i2d>:
 8000404:	f090 0f00 	teq	r0, #0
 8000408:	bf04      	itt	eq
 800040a:	2100      	moveq	r1, #0
 800040c:	4770      	bxeq	lr
 800040e:	b530      	push	{r4, r5, lr}
 8000410:	f44f 6480 	mov.w	r4, #1024	; 0x400
 8000414:	f104 0432 	add.w	r4, r4, #50	; 0x32
 8000418:	f010 4500 	ands.w	r5, r0, #2147483648	; 0x80000000
 800041c:	bf48      	it	mi
 800041e:	4240      	negmi	r0, r0
 8000420:	f04f 0100 	mov.w	r1, #0
 8000424:	e73e      	b.n	80002a4 <__adddf3+0x138>
 8000426:	bf00      	nop

08000428 <__aeabi_f2d>:
 8000428:	0042      	lsls	r2, r0, #1
 800042a:	ea4f 01e2 	mov.w	r1, r2, asr #3
 800042e:	ea4f 0131 	mov.w	r1, r1, rrx
 8000432:	ea4f 7002 	mov.w	r0, r2, lsl #28
 8000436:	bf1f      	itttt	ne
 8000438:	f012 437f 	andsne.w	r3, r2, #4278190080	; 0xff000000
 800043c:	f093 4f7f 	teqne	r3, #4278190080	; 0xff000000
 8000440:	f081 5160 	eorne.w	r1, r1, #939524096	; 0x38000000
 8000444:	4770      	bxne	lr
 8000446:	f032 427f 	bics.w	r2, r2, #4278190080	; 0xff000000
 800044a:	bf08      	it	eq
 800044c:	4770      	bxeq	lr
 800044e:	f093 4f7f 	teq	r3, #4278190080	; 0xff000000
 8000452:	bf04      	itt	eq
 8000454:	f441 2100 	orreq.w	r1, r1, #524288	; 0x80000
 8000458:	4770      	bxeq	lr
 800045a:	b530      	push	{r4, r5, lr}
 800045c:	f44f 7460 	mov.w	r4, #896	; 0x380
 8000460:	f001 4500 	and.w	r5, r1, #2147483648	; 0x80000000
 8000464:	f021 4100 	bic.w	r1, r1, #2147483648	; 0x80000000
 8000468:	e71c      	b.n	80002a4 <__adddf3+0x138>
 800046a:	bf00      	nop

0800046c <__aeabi_ul2d>:
 800046c:	ea50 0201 	orrs.w	r2, r0, r1
 8000470:	bf08      	it	eq
 8000472:	4770      	bxeq	lr
 8000474:	b530      	push	{r4, r5, lr}
 8000476:	f04f 0500 	mov.w	r5, #0
 800047a:	e00a      	b.n	8000492 <__aeabi_l2d+0x16>

0800047c <__aeabi_l2d>:
 800047c:	ea50 0201 	orrs.w	r2, r0, r1
 8000480:	bf08      	it	eq
 8000482:	4770      	bxeq	lr
 8000484:	b530      	push	{r4, r5, lr}
 8000486:	f011 4500 	ands.w	r5, r1, #2147483648	; 0x80000000
 800048a:	d502      	bpl.n	8000492 <__aeabi_l2d+0x16>
 800048c:	4240      	negs	r0, r0
 800048e:	eb61 0141 	sbc.w	r1, r1, r1, lsl #1
 8000492:	f44f 6480 	mov.w	r4, #1024	; 0x400
 8000496:	f104 0432 	add.w	r4, r4, #50	; 0x32
 800049a:	ea5f 5c91 	movs.w	ip, r1, lsr #22
 800049e:	f43f aed8 	beq.w	8000252 <__adddf3+0xe6>
 80004a2:	f04f 0203 	mov.w	r2, #3
 80004a6:	ea5f 0cdc 	movs.w	ip, ip, lsr #3
 80004aa:	bf18      	it	ne
 80004ac:	3203      	addne	r2, #3
 80004ae:	ea5f 0cdc 	movs.w	ip, ip, lsr #3
 80004b2:	bf18      	it	ne
 80004b4:	3203      	addne	r2, #3
 80004b6:	eb02 02dc 	add.w	r2, r2, ip, lsr #3
 80004ba:	f1c2 0320 	rsb	r3, r2, #32
 80004be:	fa00 fc03 	lsl.w	ip, r0, r3
 80004c2:	fa20 f002 	lsr.w	r0, r0, r2
 80004c6:	fa01 fe03 	lsl.w	lr, r1, r3
 80004ca:	ea40 000e 	orr.w	r0, r0, lr
 80004ce:	fa21 f102 	lsr.w	r1, r1, r2
 80004d2:	4414      	add	r4, r2
 80004d4:	e6bd      	b.n	8000252 <__adddf3+0xe6>
 80004d6:	bf00      	nop

080004d8 <__aeabi_dmul>:
 80004d8:	b570      	push	{r4, r5, r6, lr}
 80004da:	f04f 0cff 	mov.w	ip, #255	; 0xff
 80004de:	f44c 6ce0 	orr.w	ip, ip, #1792	; 0x700
 80004e2:	ea1c 5411 	ands.w	r4, ip, r1, lsr #20
 80004e6:	bf1d      	ittte	ne
 80004e8:	ea1c 5513 	andsne.w	r5, ip, r3, lsr #20
 80004ec:	ea94 0f0c 	teqne	r4, ip
 80004f0:	ea95 0f0c 	teqne	r5, ip
 80004f4:	f000 f8de 	bleq	80006b4 <__aeabi_dmul+0x1dc>
 80004f8:	442c      	add	r4, r5
 80004fa:	ea81 0603 	eor.w	r6, r1, r3
 80004fe:	ea21 514c 	bic.w	r1, r1, ip, lsl #21
 8000502:	ea23 534c 	bic.w	r3, r3, ip, lsl #21
 8000506:	ea50 3501 	orrs.w	r5, r0, r1, lsl #12
 800050a:	bf18      	it	ne
 800050c:	ea52 3503 	orrsne.w	r5, r2, r3, lsl #12
 8000510:	f441 1180 	orr.w	r1, r1, #1048576	; 0x100000
 8000514:	f443 1380 	orr.w	r3, r3, #1048576	; 0x100000
 8000518:	d038      	beq.n	800058c <__aeabi_dmul+0xb4>
 800051a:	fba0 ce02 	umull	ip, lr, r0, r2
 800051e:	f04f 0500 	mov.w	r5, #0
 8000522:	fbe1 e502 	umlal	lr, r5, r1, r2
 8000526:	f006 4200 	and.w	r2, r6, #2147483648	; 0x80000000
 800052a:	fbe0 e503 	umlal	lr, r5, r0, r3
 800052e:	f04f 0600 	mov.w	r6, #0
 8000532:	fbe1 5603 	umlal	r5, r6, r1, r3
 8000536:	f09c 0f00 	teq	ip, #0
 800053a:	bf18      	it	ne
 800053c:	f04e 0e01 	orrne.w	lr, lr, #1
 8000540:	f1a4 04ff 	sub.w	r4, r4, #255	; 0xff
 8000544:	f5b6 7f00 	cmp.w	r6, #512	; 0x200
 8000548:	f564 7440 	sbc.w	r4, r4, #768	; 0x300
 800054c:	d204      	bcs.n	8000558 <__aeabi_dmul+0x80>
 800054e:	ea5f 0e4e 	movs.w	lr, lr, lsl #1
 8000552:	416d      	adcs	r5, r5
 8000554:	eb46 0606 	adc.w	r6, r6, r6
 8000558:	ea42 21c6 	orr.w	r1, r2, r6, lsl #11
 800055c:	ea41 5155 	orr.w	r1, r1, r5, lsr #21
 8000560:	ea4f 20c5 	mov.w	r0, r5, lsl #11
 8000564:	ea40 505e 	orr.w	r0, r0, lr, lsr #21
 8000568:	ea4f 2ece 	mov.w	lr, lr, lsl #11
 800056c:	f1b4 0cfd 	subs.w	ip, r4, #253	; 0xfd
 8000570:	bf88      	it	hi
 8000572:	f5bc 6fe0 	cmphi.w	ip, #1792	; 0x700
 8000576:	d81e      	bhi.n	80005b6 <__aeabi_dmul+0xde>
 8000578:	f1be 4f00 	cmp.w	lr, #2147483648	; 0x80000000
 800057c:	bf08      	it	eq
 800057e:	ea5f 0e50 	movseq.w	lr, r0, lsr #1
 8000582:	f150 0000 	adcs.w	r0, r0, #0
 8000586:	eb41 5104 	adc.w	r1, r1, r4, lsl #20
 800058a:	bd70      	pop	{r4, r5, r6, pc}
 800058c:	f006 4600 	and.w	r6, r6, #2147483648	; 0x80000000
 8000590:	ea46 0101 	orr.w	r1, r6, r1
 8000594:	ea40 0002 	orr.w	r0, r0, r2
 8000598:	ea81 0103 	eor.w	r1, r1, r3
 800059c:	ebb4 045c 	subs.w	r4, r4, ip, lsr #1
 80005a0:	bfc2      	ittt	gt
 80005a2:	ebd4 050c 	rsbsgt	r5, r4, ip
 80005a6:	ea41 5104 	orrgt.w	r1, r1, r4, lsl #20
 80005aa:	bd70      	popgt	{r4, r5, r6, pc}
 80005ac:	f441 1180 	orr.w	r1, r1, #1048576	; 0x100000
 80005b0:	f04f 0e00 	mov.w	lr, #0
 80005b4:	3c01      	subs	r4, #1
 80005b6:	f300 80ab 	bgt.w	8000710 <__aeabi_dmul+0x238>
 80005ba:	f114 0f36 	cmn.w	r4, #54	; 0x36
 80005be:	bfde      	ittt	le
 80005c0:	2000      	movle	r0, #0
 80005c2:	f001 4100 	andle.w	r1, r1, #2147483648	; 0x80000000
 80005c6:	bd70      	pople	{r4, r5, r6, pc}
 80005c8:	f1c4 0400 	rsb	r4, r4, #0
 80005cc:	3c20      	subs	r4, #32
 80005ce:	da35      	bge.n	800063c <__aeabi_dmul+0x164>
 80005d0:	340c      	adds	r4, #12
 80005d2:	dc1b      	bgt.n	800060c <__aeabi_dmul+0x134>
 80005d4:	f104 0414 	add.w	r4, r4, #20
 80005d8:	f1c4 0520 	rsb	r5, r4, #32
 80005dc:	fa00 f305 	lsl.w	r3, r0, r5
 80005e0:	fa20 f004 	lsr.w	r0, r0, r4
 80005e4:	fa01 f205 	lsl.w	r2, r1, r5
 80005e8:	ea40 0002 	orr.w	r0, r0, r2
 80005ec:	f001 4200 	and.w	r2, r1, #2147483648	; 0x80000000
 80005f0:	f021 4100 	bic.w	r1, r1, #2147483648	; 0x80000000
 80005f4:	eb10 70d3 	adds.w	r0, r0, r3, lsr #31
 80005f8:	fa21 f604 	lsr.w	r6, r1, r4
 80005fc:	eb42 0106 	adc.w	r1, r2, r6
 8000600:	ea5e 0e43 	orrs.w	lr, lr, r3, lsl #1
 8000604:	bf08      	it	eq
 8000606:	ea20 70d3 	biceq.w	r0, r0, r3, lsr #31
 800060a:	bd70      	pop	{r4, r5, r6, pc}
 800060c:	f1c4 040c 	rsb	r4, r4, #12
 8000610:	f1c4 0520 	rsb	r5, r4, #32
 8000614:	fa00 f304 	lsl.w	r3, r0, r4
 8000618:	fa20 f005 	lsr.w	r0, r0, r5
 800061c:	fa01 f204 	lsl.w	r2, r1, r4
 8000620:	ea40 0002 	orr.w	r0, r0, r2
 8000624:	f001 4100 	and.w	r1, r1, #2147483648	; 0x80000000
 8000628:	eb10 70d3 	adds.w	r0, r0, r3, lsr #31
 800062c:	f141 0100 	adc.w	r1, r1, #0
 8000630:	ea5e 0e43 	orrs.w	lr, lr, r3, lsl #1
 8000634:	bf08      	it	eq
 8000636:	ea20 70d3 	biceq.w	r0, r0, r3, lsr #31
 800063a:	bd70      	pop	{r4, r5, r6, pc}
 800063c:	f1c4 0520 	rsb	r5, r4, #32
 8000640:	fa00 f205 	lsl.w	r2, r0, r5
 8000644:	ea4e 0e02 	orr.w	lr, lr, r2
 8000648:	fa20 f304 	lsr.w	r3, r0, r4
 800064c:	fa01 f205 	lsl.w	r2, r1, r5
 8000650:	ea43 0302 	orr.w	r3, r3, r2
 8000654:	fa21 f004 	lsr.w	r0, r1, r4
 8000658:	f001 4100 	and.w	r1, r1, #2147483648	; 0x80000000
 800065c:	fa21 f204 	lsr.w	r2, r1, r4
 8000660:	ea20 0002 	bic.w	r0, r0, r2
 8000664:	eb00 70d3 	add.w	r0, r0, r3, lsr #31
 8000668:	ea5e 0e43 	orrs.w	lr, lr, r3, lsl #1
 800066c:	bf08      	it	eq
 800066e:	ea20 70d3 	biceq.w	r0, r0, r3, lsr #31
 8000672:	bd70      	pop	{r4, r5, r6, pc}
 8000674:	f094 0f00 	teq	r4, #0
 8000678:	d10f      	bne.n	800069a <__aeabi_dmul+0x1c2>
 800067a:	f001 4600 	and.w	r6, r1, #2147483648	; 0x80000000
 800067e:	0040      	lsls	r0, r0, #1
 8000680:	eb41 0101 	adc.w	r1, r1, r1
 8000684:	f411 1f80 	tst.w	r1, #1048576	; 0x100000
 8000688:	bf08      	it	eq
 800068a:	3c01      	subeq	r4, #1
 800068c:	d0f7      	beq.n	800067e <__aeabi_dmul+0x1a6>
 800068e:	ea41 0106 	orr.w	r1, r1, r6
 8000692:	f095 0f00 	teq	r5, #0
 8000696:	bf18      	it	ne
 8000698:	4770      	bxne	lr
 800069a:	f003 4600 	and.w	r6, r3, #2147483648	; 0x80000000
 800069e:	0052      	lsls	r2, r2, #1
 80006a0:	eb43 0303 	adc.w	r3, r3, r3
 80006a4:	f413 1f80 	tst.w	r3, #1048576	; 0x100000
 80006a8:	bf08      	it	eq
 80006aa:	3d01      	subeq	r5, #1
 80006ac:	d0f7      	beq.n	800069e <__aeabi_dmul+0x1c6>
 80006ae:	ea43 0306 	orr.w	r3, r3, r6
 80006b2:	4770      	bx	lr
 80006b4:	ea94 0f0c 	teq	r4, ip
 80006b8:	ea0c 5513 	and.w	r5, ip, r3, lsr #20
 80006bc:	bf18      	it	ne
 80006be:	ea95 0f0c 	teqne	r5, ip
 80006c2:	d00c      	beq.n	80006de <__aeabi_dmul+0x206>
 80006c4:	ea50 0641 	orrs.w	r6, r0, r1, lsl #1
 80006c8:	bf18      	it	ne
 80006ca:	ea52 0643 	orrsne.w	r6, r2, r3, lsl #1
 80006ce:	d1d1      	bne.n	8000674 <__aeabi_dmul+0x19c>
 80006d0:	ea81 0103 	eor.w	r1, r1, r3
 80006d4:	f001 4100 	and.w	r1, r1, #2147483648	; 0x80000000
 80006d8:	f04f 0000 	mov.w	r0, #0
 80006dc:	bd70      	pop	{r4, r5, r6, pc}
 80006de:	ea50 0641 	orrs.w	r6, r0, r1, lsl #1
 80006e2:	bf06      	itte	eq
 80006e4:	4610      	moveq	r0, r2
 80006e6:	4619      	moveq	r1, r3
 80006e8:	ea52 0643 	orrsne.w	r6, r2, r3, lsl #1
 80006ec:	d019      	beq.n	8000722 <__aeabi_dmul+0x24a>
 80006ee:	ea94 0f0c 	teq	r4, ip
 80006f2:	d102      	bne.n	80006fa <__aeabi_dmul+0x222>
 80006f4:	ea50 3601 	orrs.w	r6, r0, r1, lsl #12
 80006f8:	d113      	bne.n	8000722 <__aeabi_dmul+0x24a>
 80006fa:	ea95 0f0c 	teq	r5, ip
 80006fe:	d105      	bne.n	800070c <__aeabi_dmul+0x234>
 8000700:	ea52 3603 	orrs.w	r6, r2, r3, lsl #12
 8000704:	bf1c      	itt	ne
 8000706:	4610      	movne	r0, r2
 8000708:	4619      	movne	r1, r3
 800070a:	d10a      	bne.n	8000722 <__aeabi_dmul+0x24a>
 800070c:	ea81 0103 	eor.w	r1, r1, r3
 8000710:	f001 4100 	and.w	r1, r1, #2147483648	; 0x80000000
 8000714:	f041 41fe 	orr.w	r1, r1, #2130706432	; 0x7f000000
 8000718:	f441 0170 	orr.w	r1, r1, #15728640	; 0xf00000
 800071c:	f04f 0000 	mov.w	r0, #0
 8000720:	bd70      	pop	{r4, r5, r6, pc}
 8000722:	f041 41fe 	orr.w	r1, r1, #2130706432	; 0x7f000000
 8000726:	f441 0178 	orr.w	r1, r1, #16252928	; 0xf80000
 800072a:	bd70      	pop	{r4, r5, r6, pc}

0800072c <__aeabi_ddiv>:
 800072c:	b570      	push	{r4, r5, r6, lr}
 800072e:	f04f 0cff 	mov.w	ip, #255	; 0xff
 8000732:	f44c 6ce0 	orr.w	ip, ip, #1792	; 0x700
 8000736:	ea1c 5411 	ands.w	r4, ip, r1, lsr #20
 800073a:	bf1d      	ittte	ne
 800073c:	ea1c 5513 	andsne.w	r5, ip, r3, lsr #20
 8000740:	ea94 0f0c 	teqne	r4, ip
 8000744:	ea95 0f0c 	teqne	r5, ip
 8000748:	f000 f8a7 	bleq	800089a <__aeabi_ddiv+0x16e>
 800074c:	eba4 0405 	sub.w	r4, r4, r5
 8000750:	ea81 0e03 	eor.w	lr, r1, r3
 8000754:	ea52 3503 	orrs.w	r5, r2, r3, lsl #12
 8000758:	ea4f 3101 	mov.w	r1, r1, lsl #12
 800075c:	f000 8088 	beq.w	8000870 <__aeabi_ddiv+0x144>
 8000760:	ea4f 3303 	mov.w	r3, r3, lsl #12
 8000764:	f04f 5580 	mov.w	r5, #268435456	; 0x10000000
 8000768:	ea45 1313 	orr.w	r3, r5, r3, lsr #4
 800076c:	ea43 6312 	orr.w	r3, r3, r2, lsr #24
 8000770:	ea4f 2202 	mov.w	r2, r2, lsl #8
 8000774:	ea45 1511 	orr.w	r5, r5, r1, lsr #4
 8000778:	ea45 6510 	orr.w	r5, r5, r0, lsr #24
 800077c:	ea4f 2600 	mov.w	r6, r0, lsl #8
 8000780:	f00e 4100 	and.w	r1, lr, #2147483648	; 0x80000000
 8000784:	429d      	cmp	r5, r3
 8000786:	bf08      	it	eq
 8000788:	4296      	cmpeq	r6, r2
 800078a:	f144 04fd 	adc.w	r4, r4, #253	; 0xfd
 800078e:	f504 7440 	add.w	r4, r4, #768	; 0x300
 8000792:	d202      	bcs.n	800079a <__aeabi_ddiv+0x6e>
 8000794:	085b      	lsrs	r3, r3, #1
 8000796:	ea4f 0232 	mov.w	r2, r2, rrx
 800079a:	1ab6      	subs	r6, r6, r2
 800079c:	eb65 0503 	sbc.w	r5, r5, r3
 80007a0:	085b      	lsrs	r3, r3, #1
 80007a2:	ea4f 0232 	mov.w	r2, r2, rrx
 80007a6:	f44f 1080 	mov.w	r0, #1048576	; 0x100000
 80007aa:	f44f 2c00 	mov.w	ip, #524288	; 0x80000
 80007ae:	ebb6 0e02 	subs.w	lr, r6, r2
 80007b2:	eb75 0e03 	sbcs.w	lr, r5, r3
 80007b6:	bf22      	ittt	cs
 80007b8:	1ab6      	subcs	r6, r6, r2
 80007ba:	4675      	movcs	r5, lr
 80007bc:	ea40 000c 	orrcs.w	r0, r0, ip
 80007c0:	085b      	lsrs	r3, r3, #1
 80007c2:	ea4f 0232 	mov.w	r2, r2, rrx
 80007c6:	ebb6 0e02 	subs.w	lr, r6, r2
 80007ca:	eb75 0e03 	sbcs.w	lr, r5, r3
 80007ce:	bf22      	ittt	cs
 80007d0:	1ab6      	subcs	r6, r6, r2
 80007d2:	4675      	movcs	r5, lr
 80007d4:	ea40 005c 	orrcs.w	r0, r0, ip, lsr #1
 80007d8:	085b      	lsrs	r3, r3, #1
 80007da:	ea4f 0232 	mov.w	r2, r2, rrx
 80007de:	ebb6 0e02 	subs.w	lr, r6, r2
 80007e2:	eb75 0e03 	sbcs.w	lr, r5, r3
 80007e6:	bf22      	ittt	cs
 80007e8:	1ab6      	subcs	r6, r6, r2
 80007ea:	4675      	movcs	r5, lr
 80007ec:	ea40 009c 	orrcs.w	r0, r0, ip, lsr #2
 80007f0:	085b      	lsrs	r3, r3, #1
 80007f2:	ea4f 0232 	mov.w	r2, r2, rrx
 80007f6:	ebb6 0e02 	subs.w	lr, r6, r2
 80007fa:	eb75 0e03 	sbcs.w	lr, r5, r3
 80007fe:	bf22      	ittt	cs
 8000800:	1ab6      	subcs	r6, r6, r2
 8000802:	4675      	movcs	r5, lr
 8000804:	ea40 00dc 	orrcs.w	r0, r0, ip, lsr #3
 8000808:	ea55 0e06 	orrs.w	lr, r5, r6
 800080c:	d018      	beq.n	8000840 <__aeabi_ddiv+0x114>
 800080e:	ea4f 1505 	mov.w	r5, r5, lsl #4
 8000812:	ea45 7516 	orr.w	r5, r5, r6, lsr #28
 8000816:	ea4f 1606 	mov.w	r6, r6, lsl #4
 800081a:	ea4f 03c3 	mov.w	r3, r3, lsl #3
 800081e:	ea43 7352 	orr.w	r3, r3, r2, lsr #29
 8000822:	ea4f 02c2 	mov.w	r2, r2, lsl #3
 8000826:	ea5f 1c1c 	movs.w	ip, ip, lsr #4
 800082a:	d1c0      	bne.n	80007ae <__aeabi_ddiv+0x82>
 800082c:	f411 1f80 	tst.w	r1, #1048576	; 0x100000
 8000830:	d10b      	bne.n	800084a <__aeabi_ddiv+0x11e>
 8000832:	ea41 0100 	orr.w	r1, r1, r0
 8000836:	f04f 0000 	mov.w	r0, #0
 800083a:	f04f 4c00 	mov.w	ip, #2147483648	; 0x80000000
 800083e:	e7b6      	b.n	80007ae <__aeabi_ddiv+0x82>
 8000840:	f411 1f80 	tst.w	r1, #1048576	; 0x100000
 8000844:	bf04      	itt	eq
 8000846:	4301      	orreq	r1, r0
 8000848:	2000      	moveq	r0, #0
 800084a:	f1b4 0cfd 	subs.w	ip, r4, #253	; 0xfd
 800084e:	bf88      	it	hi
 8000850:	f5bc 6fe0 	cmphi.w	ip, #1792	; 0x700
 8000854:	f63f aeaf 	bhi.w	80005b6 <__aeabi_dmul+0xde>
 8000858:	ebb5 0c03 	subs.w	ip, r5, r3
 800085c:	bf04      	itt	eq
 800085e:	ebb6 0c02 	subseq.w	ip, r6, r2
 8000862:	ea5f 0c50 	movseq.w	ip, r0, lsr #1
 8000866:	f150 0000 	adcs.w	r0, r0, #0
 800086a:	eb41 5104 	adc.w	r1, r1, r4, lsl #20
 800086e:	bd70      	pop	{r4, r5, r6, pc}
 8000870:	f00e 4e00 	and.w	lr, lr, #2147483648	; 0x80000000
 8000874:	ea4e 3111 	orr.w	r1, lr, r1, lsr #12
 8000878:	eb14 045c 	adds.w	r4, r4, ip, lsr #1
 800087c:	bfc2      	ittt	gt
 800087e:	ebd4 050c 	rsbsgt	r5, r4, ip
 8000882:	ea41 5104 	orrgt.w	r1, r1, r4, lsl #20
 8000886:	bd70      	popgt	{r4, r5, r6, pc}
 8000888:	f441 1180 	orr.w	r1, r1, #1048576	; 0x100000
 800088c:	f04f 0e00 	mov.w	lr, #0
 8000890:	3c01      	subs	r4, #1
 8000892:	e690      	b.n	80005b6 <__aeabi_dmul+0xde>
 8000894:	ea45 0e06 	orr.w	lr, r5, r6
 8000898:	e68d      	b.n	80005b6 <__aeabi_dmul+0xde>
 800089a:	ea0c 5513 	and.w	r5, ip, r3, lsr #20
 800089e:	ea94 0f0c 	teq	r4, ip
 80008a2:	bf08      	it	eq
 80008a4:	ea95 0f0c 	teqeq	r5, ip
 80008a8:	f43f af3b 	beq.w	8000722 <__aeabi_dmul+0x24a>
 80008ac:	ea94 0f0c 	teq	r4, ip
 80008b0:	d10a      	bne.n	80008c8 <__aeabi_ddiv+0x19c>
 80008b2:	ea50 3401 	orrs.w	r4, r0, r1, lsl #12
 80008b6:	f47f af34 	bne.w	8000722 <__aeabi_dmul+0x24a>
 80008ba:	ea95 0f0c 	teq	r5, ip
 80008be:	f47f af25 	bne.w	800070c <__aeabi_dmul+0x234>
 80008c2:	4610      	mov	r0, r2
 80008c4:	4619      	mov	r1, r3
 80008c6:	e72c      	b.n	8000722 <__aeabi_dmul+0x24a>
 80008c8:	ea95 0f0c 	teq	r5, ip
 80008cc:	d106      	bne.n	80008dc <__aeabi_ddiv+0x1b0>
 80008ce:	ea52 3503 	orrs.w	r5, r2, r3, lsl #12
 80008d2:	f43f aefd 	beq.w	80006d0 <__aeabi_dmul+0x1f8>
 80008d6:	4610      	mov	r0, r2
 80008d8:	4619      	mov	r1, r3
 80008da:	e722      	b.n	8000722 <__aeabi_dmul+0x24a>
 80008dc:	ea50 0641 	orrs.w	r6, r0, r1, lsl #1
 80008e0:	bf18      	it	ne
 80008e2:	ea52 0643 	orrsne.w	r6, r2, r3, lsl #1
 80008e6:	f47f aec5 	bne.w	8000674 <__aeabi_dmul+0x19c>
 80008ea:	ea50 0441 	orrs.w	r4, r0, r1, lsl #1
 80008ee:	f47f af0d 	bne.w	800070c <__aeabi_dmul+0x234>
 80008f2:	ea52 0543 	orrs.w	r5, r2, r3, lsl #1
 80008f6:	f47f aeeb 	bne.w	80006d0 <__aeabi_dmul+0x1f8>
 80008fa:	e712      	b.n	8000722 <__aeabi_dmul+0x24a>

080008fc <__gedf2>:
 80008fc:	f04f 3cff 	mov.w	ip, #4294967295
 8000900:	e006      	b.n	8000910 <__cmpdf2+0x4>
 8000902:	bf00      	nop

08000904 <__ledf2>:
 8000904:	f04f 0c01 	mov.w	ip, #1
 8000908:	e002      	b.n	8000910 <__cmpdf2+0x4>
 800090a:	bf00      	nop

0800090c <__cmpdf2>:
 800090c:	f04f 0c01 	mov.w	ip, #1
 8000910:	f84d cd04 	str.w	ip, [sp, #-4]!
 8000914:	ea4f 0c41 	mov.w	ip, r1, lsl #1
 8000918:	ea7f 5c6c 	mvns.w	ip, ip, asr #21
 800091c:	ea4f 0c43 	mov.w	ip, r3, lsl #1
 8000920:	bf18      	it	ne
 8000922:	ea7f 5c6c 	mvnsne.w	ip, ip, asr #21
 8000926:	d01b      	beq.n	8000960 <__cmpdf2+0x54>
 8000928:	b001      	add	sp, #4
 800092a:	ea50 0c41 	orrs.w	ip, r0, r1, lsl #1
 800092e:	bf0c      	ite	eq
 8000930:	ea52 0c43 	orrseq.w	ip, r2, r3, lsl #1
 8000934:	ea91 0f03 	teqne	r1, r3
 8000938:	bf02      	ittt	eq
 800093a:	ea90 0f02 	teqeq	r0, r2
 800093e:	2000      	moveq	r0, #0
 8000940:	4770      	bxeq	lr
 8000942:	f110 0f00 	cmn.w	r0, #0
 8000946:	ea91 0f03 	teq	r1, r3
 800094a:	bf58      	it	pl
 800094c:	4299      	cmppl	r1, r3
 800094e:	bf08      	it	eq
 8000950:	4290      	cmpeq	r0, r2
 8000952:	bf2c      	ite	cs
 8000954:	17d8      	asrcs	r0, r3, #31
 8000956:	ea6f 70e3 	mvncc.w	r0, r3, asr #31
 800095a:	f040 0001 	orr.w	r0, r0, #1
 800095e:	4770      	bx	lr
 8000960:	ea4f 0c41 	mov.w	ip, r1, lsl #1
 8000964:	ea7f 5c6c 	mvns.w	ip, ip, asr #21
 8000968:	d102      	bne.n	8000970 <__cmpdf2+0x64>
 800096a:	ea50 3c01 	orrs.w	ip, r0, r1, lsl #12
 800096e:	d107      	bne.n	8000980 <__cmpdf2+0x74>
 8000970:	ea4f 0c43 	mov.w	ip, r3, lsl #1
 8000974:	ea7f 5c6c 	mvns.w	ip, ip, asr #21
 8000978:	d1d6      	bne.n	8000928 <__cmpdf2+0x1c>
 800097a:	ea52 3c03 	orrs.w	ip, r2, r3, lsl #12
 800097e:	d0d3      	beq.n	8000928 <__cmpdf2+0x1c>
 8000980:	f85d 0b04 	ldr.w	r0, [sp], #4
 8000984:	4770      	bx	lr
 8000986:	bf00      	nop

08000988 <__aeabi_cdrcmple>:
 8000988:	4684      	mov	ip, r0
 800098a:	4610      	mov	r0, r2
 800098c:	4662      	mov	r2, ip
 800098e:	468c      	mov	ip, r1
 8000990:	4619      	mov	r1, r3
 8000992:	4663      	mov	r3, ip
 8000994:	e000      	b.n	8000998 <__aeabi_cdcmpeq>
 8000996:	bf00      	nop

08000998 <__aeabi_cdcmpeq>:
 8000998:	b501      	push	{r0, lr}
 800099a:	f7ff ffb7 	bl	800090c <__cmpdf2>
 800099e:	2800      	cmp	r0, #0
 80009a0:	bf48      	it	mi
 80009a2:	f110 0f00 	cmnmi.w	r0, #0
 80009a6:	bd01      	pop	{r0, pc}

080009a8 <__aeabi_dcmpeq>:
 80009a8:	f84d ed08 	str.w	lr, [sp, #-8]!
 80009ac:	f7ff fff4 	bl	8000998 <__aeabi_cdcmpeq>
 80009b0:	bf0c      	ite	eq
 80009b2:	2001      	moveq	r0, #1
 80009b4:	2000      	movne	r0, #0
 80009b6:	f85d fb08 	ldr.w	pc, [sp], #8
 80009ba:	bf00      	nop

080009bc <__aeabi_dcmplt>:
 80009bc:	f84d ed08 	str.w	lr, [sp, #-8]!
 80009c0:	f7ff ffea 	bl	8000998 <__aeabi_cdcmpeq>
 80009c4:	bf34      	ite	cc
 80009c6:	2001      	movcc	r0, #1
 80009c8:	2000      	movcs	r0, #0
 80009ca:	f85d fb08 	ldr.w	pc, [sp], #8
 80009ce:	bf00      	nop

080009d0 <__aeabi_dcmple>:
 80009d0:	f84d ed08 	str.w	lr, [sp, #-8]!
 80009d4:	f7ff ffe0 	bl	8000998 <__aeabi_cdcmpeq>
 80009d8:	bf94      	ite	ls
 80009da:	2001      	movls	r0, #1
 80009dc:	2000      	movhi	r0, #0
 80009de:	f85d fb08 	ldr.w	pc, [sp], #8
 80009e2:	bf00      	nop

080009e4 <__aeabi_dcmpge>:
 80009e4:	f84d ed08 	str.w	lr, [sp, #-8]!
 80009e8:	f7ff ffce 	bl	8000988 <__aeabi_cdrcmple>
 80009ec:	bf94      	ite	ls
 80009ee:	2001      	movls	r0, #1
 80009f0:	2000      	movhi	r0, #0
 80009f2:	f85d fb08 	ldr.w	pc, [sp], #8
 80009f6:	bf00      	nop

080009f8 <__aeabi_dcmpgt>:
 80009f8:	f84d ed08 	str.w	lr, [sp, #-8]!
 80009fc:	f7ff ffc4 	bl	8000988 <__aeabi_cdrcmple>
 8000a00:	bf34      	ite	cc
 8000a02:	2001      	movcc	r0, #1
 8000a04:	2000      	movcs	r0, #0
 8000a06:	f85d fb08 	ldr.w	pc, [sp], #8
 8000a0a:	bf00      	nop

08000a0c <__aeabi_dcmpun>:
 8000a0c:	ea4f 0c41 	mov.w	ip, r1, lsl #1
 8000a10:	ea7f 5c6c 	mvns.w	ip, ip, asr #21
 8000a14:	d102      	bne.n	8000a1c <__aeabi_dcmpun+0x10>
 8000a16:	ea50 3c01 	orrs.w	ip, r0, r1, lsl #12
 8000a1a:	d10a      	bne.n	8000a32 <__aeabi_dcmpun+0x26>
 8000a1c:	ea4f 0c43 	mov.w	ip, r3, lsl #1
 8000a20:	ea7f 5c6c 	mvns.w	ip, ip, asr #21
 8000a24:	d102      	bne.n	8000a2c <__aeabi_dcmpun+0x20>
 8000a26:	ea52 3c03 	orrs.w	ip, r2, r3, lsl #12
 8000a2a:	d102      	bne.n	8000a32 <__aeabi_dcmpun+0x26>
 8000a2c:	f04f 0000 	mov.w	r0, #0
 8000a30:	4770      	bx	lr
 8000a32:	f04f 0001 	mov.w	r0, #1
 8000a36:	4770      	bx	lr

08000a38 <__aeabi_d2iz>:
 8000a38:	ea4f 0241 	mov.w	r2, r1, lsl #1
 8000a3c:	f512 1200 	adds.w	r2, r2, #2097152	; 0x200000
 8000a40:	d215      	bcs.n	8000a6e <__aeabi_d2iz+0x36>
 8000a42:	d511      	bpl.n	8000a68 <__aeabi_d2iz+0x30>
 8000a44:	f46f 7378 	mvn.w	r3, #992	; 0x3e0
 8000a48:	ebb3 5262 	subs.w	r2, r3, r2, asr #21
 8000a4c:	d912      	bls.n	8000a74 <__aeabi_d2iz+0x3c>
 8000a4e:	ea4f 23c1 	mov.w	r3, r1, lsl #11
 8000a52:	f043 4300 	orr.w	r3, r3, #2147483648	; 0x80000000
 8000a56:	ea43 5350 	orr.w	r3, r3, r0, lsr #21
 8000a5a:	f011 4f00 	tst.w	r1, #2147483648	; 0x80000000
 8000a5e:	fa23 f002 	lsr.w	r0, r3, r2
 8000a62:	bf18      	it	ne
 8000a64:	4240      	negne	r0, r0
 8000a66:	4770      	bx	lr
 8000a68:	f04f 0000 	mov.w	r0, #0
 8000a6c:	4770      	bx	lr
 8000a6e:	ea50 3001 	orrs.w	r0, r0, r1, lsl #12
 8000a72:	d105      	bne.n	8000a80 <__aeabi_d2iz+0x48>
 8000a74:	f011 4000 	ands.w	r0, r1, #2147483648	; 0x80000000
 8000a78:	bf08      	it	eq
 8000a7a:	f06f 4000 	mvneq.w	r0, #2147483648	; 0x80000000
 8000a7e:	4770      	bx	lr
 8000a80:	f04f 0000 	mov.w	r0, #0
 8000a84:	4770      	bx	lr
 8000a86:	bf00      	nop

08000a88 <__aeabi_d2f>:
 8000a88:	ea4f 0241 	mov.w	r2, r1, lsl #1
 8000a8c:	f1b2 43e0 	subs.w	r3, r2, #1879048192	; 0x70000000
 8000a90:	bf24      	itt	cs
 8000a92:	f5b3 1c00 	subscs.w	ip, r3, #2097152	; 0x200000
 8000a96:	f1dc 5cfe 	rsbscs	ip, ip, #532676608	; 0x1fc00000
 8000a9a:	d90d      	bls.n	8000ab8 <__aeabi_d2f+0x30>
 8000a9c:	f001 4c00 	and.w	ip, r1, #2147483648	; 0x80000000
 8000aa0:	ea4f 02c0 	mov.w	r2, r0, lsl #3
 8000aa4:	ea4c 7050 	orr.w	r0, ip, r0, lsr #29
 8000aa8:	f1b2 4f00 	cmp.w	r2, #2147483648	; 0x80000000
 8000aac:	eb40 0083 	adc.w	r0, r0, r3, lsl #2
 8000ab0:	bf08      	it	eq
 8000ab2:	f020 0001 	biceq.w	r0, r0, #1
 8000ab6:	4770      	bx	lr
 8000ab8:	f011 4f80 	tst.w	r1, #1073741824	; 0x40000000
 8000abc:	d121      	bne.n	8000b02 <__aeabi_d2f+0x7a>
 8000abe:	f113 7238 	adds.w	r2, r3, #48234496	; 0x2e00000
 8000ac2:	bfbc      	itt	lt
 8000ac4:	f001 4000 	andlt.w	r0, r1, #2147483648	; 0x80000000
 8000ac8:	4770      	bxlt	lr
 8000aca:	f441 1180 	orr.w	r1, r1, #1048576	; 0x100000
 8000ace:	ea4f 5252 	mov.w	r2, r2, lsr #21
 8000ad2:	f1c2 0218 	rsb	r2, r2, #24
 8000ad6:	f1c2 0c20 	rsb	ip, r2, #32
 8000ada:	fa10 f30c 	lsls.w	r3, r0, ip
 8000ade:	fa20 f002 	lsr.w	r0, r0, r2
 8000ae2:	bf18      	it	ne
 8000ae4:	f040 0001 	orrne.w	r0, r0, #1
 8000ae8:	ea4f 23c1 	mov.w	r3, r1, lsl #11
 8000aec:	ea4f 23d3 	mov.w	r3, r3, lsr #11
 8000af0:	fa03 fc0c 	lsl.w	ip, r3, ip
 8000af4:	ea40 000c 	orr.w	r0, r0, ip
 8000af8:	fa23 f302 	lsr.w	r3, r3, r2
 8000afc:	ea4f 0343 	mov.w	r3, r3, lsl #1
 8000b00:	e7cc      	b.n	8000a9c <__aeabi_d2f+0x14>
 8000b02:	ea7f 5362 	mvns.w	r3, r2, asr #21
 8000b06:	d107      	bne.n	8000b18 <__aeabi_d2f+0x90>
 8000b08:	ea50 3301 	orrs.w	r3, r0, r1, lsl #12
 8000b0c:	bf1e      	ittt	ne
 8000b0e:	f04f 40fe 	movne.w	r0, #2130706432	; 0x7f000000
 8000b12:	f440 0040 	orrne.w	r0, r0, #12582912	; 0xc00000
 8000b16:	4770      	bxne	lr
 8000b18:	f001 4000 	and.w	r0, r1, #2147483648	; 0x80000000
 8000b1c:	f040 40fe 	orr.w	r0, r0, #2130706432	; 0x7f000000
 8000b20:	f440 0000 	orr.w	r0, r0, #8388608	; 0x800000
 8000b24:	4770      	bx	lr
 8000b26:	bf00      	nop

08000b28 <__aeabi_frsub>:
 8000b28:	f080 4000 	eor.w	r0, r0, #2147483648	; 0x80000000
 8000b2c:	e002      	b.n	8000b34 <__addsf3>
 8000b2e:	bf00      	nop

08000b30 <__aeabi_fsub>:
 8000b30:	f081 4100 	eor.w	r1, r1, #2147483648	; 0x80000000

08000b34 <__addsf3>:
 8000b34:	0042      	lsls	r2, r0, #1
 8000b36:	bf1f      	itttt	ne
 8000b38:	ea5f 0341 	movsne.w	r3, r1, lsl #1
 8000b3c:	ea92 0f03 	teqne	r2, r3
 8000b40:	ea7f 6c22 	mvnsne.w	ip, r2, asr #24
 8000b44:	ea7f 6c23 	mvnsne.w	ip, r3, asr #24
 8000b48:	d06a      	beq.n	8000c20 <__addsf3+0xec>
 8000b4a:	ea4f 6212 	mov.w	r2, r2, lsr #24
 8000b4e:	ebd2 6313 	rsbs	r3, r2, r3, lsr #24
 8000b52:	bfc1      	itttt	gt
 8000b54:	18d2      	addgt	r2, r2, r3
 8000b56:	4041      	eorgt	r1, r0
 8000b58:	4048      	eorgt	r0, r1
 8000b5a:	4041      	eorgt	r1, r0
 8000b5c:	bfb8      	it	lt
 8000b5e:	425b      	neglt	r3, r3
 8000b60:	2b19      	cmp	r3, #25
 8000b62:	bf88      	it	hi
 8000b64:	4770      	bxhi	lr
 8000b66:	f010 4f00 	tst.w	r0, #2147483648	; 0x80000000
 8000b6a:	f440 0000 	orr.w	r0, r0, #8388608	; 0x800000
 8000b6e:	f020 407f 	bic.w	r0, r0, #4278190080	; 0xff000000
 8000b72:	bf18      	it	ne
 8000b74:	4240      	negne	r0, r0
 8000b76:	f011 4f00 	tst.w	r1, #2147483648	; 0x80000000
 8000b7a:	f441 0100 	orr.w	r1, r1, #8388608	; 0x800000
 8000b7e:	f021 417f 	bic.w	r1, r1, #4278190080	; 0xff000000
 8000b82:	bf18      	it	ne
 8000b84:	4249      	negne	r1, r1
 8000b86:	ea92 0f03 	teq	r2, r3
 8000b8a:	d03f      	beq.n	8000c0c <__addsf3+0xd8>
 8000b8c:	f1a2 0201 	sub.w	r2, r2, #1
 8000b90:	fa41 fc03 	asr.w	ip, r1, r3
 8000b94:	eb10 000c 	adds.w	r0, r0, ip
 8000b98:	f1c3 0320 	rsb	r3, r3, #32
 8000b9c:	fa01 f103 	lsl.w	r1, r1, r3
 8000ba0:	f000 4300 	and.w	r3, r0, #2147483648	; 0x80000000
 8000ba4:	d502      	bpl.n	8000bac <__addsf3+0x78>
 8000ba6:	4249      	negs	r1, r1
 8000ba8:	eb60 0040 	sbc.w	r0, r0, r0, lsl #1
 8000bac:	f5b0 0f00 	cmp.w	r0, #8388608	; 0x800000
 8000bb0:	d313      	bcc.n	8000bda <__addsf3+0xa6>
 8000bb2:	f1b0 7f80 	cmp.w	r0, #16777216	; 0x1000000
 8000bb6:	d306      	bcc.n	8000bc6 <__addsf3+0x92>
 8000bb8:	0840      	lsrs	r0, r0, #1
 8000bba:	ea4f 0131 	mov.w	r1, r1, rrx
 8000bbe:	f102 0201 	add.w	r2, r2, #1
 8000bc2:	2afe      	cmp	r2, #254	; 0xfe
 8000bc4:	d251      	bcs.n	8000c6a <__addsf3+0x136>
 8000bc6:	f1b1 4f00 	cmp.w	r1, #2147483648	; 0x80000000
 8000bca:	eb40 50c2 	adc.w	r0, r0, r2, lsl #23
 8000bce:	bf08      	it	eq
 8000bd0:	f020 0001 	biceq.w	r0, r0, #1
 8000bd4:	ea40 0003 	orr.w	r0, r0, r3
 8000bd8:	4770      	bx	lr
 8000bda:	0049      	lsls	r1, r1, #1
 8000bdc:	eb40 0000 	adc.w	r0, r0, r0
 8000be0:	f410 0f00 	tst.w	r0, #8388608	; 0x800000
 8000be4:	f1a2 0201 	sub.w	r2, r2, #1
 8000be8:	d1ed      	bne.n	8000bc6 <__addsf3+0x92>
 8000bea:	fab0 fc80 	clz	ip, r0
 8000bee:	f1ac 0c08 	sub.w	ip, ip, #8
 8000bf2:	ebb2 020c 	subs.w	r2, r2, ip
 8000bf6:	fa00 f00c 	lsl.w	r0, r0, ip
 8000bfa:	bfaa      	itet	ge
 8000bfc:	eb00 50c2 	addge.w	r0, r0, r2, lsl #23
 8000c00:	4252      	neglt	r2, r2
 8000c02:	4318      	orrge	r0, r3
 8000c04:	bfbc      	itt	lt
 8000c06:	40d0      	lsrlt	r0, r2
 8000c08:	4318      	orrlt	r0, r3
 8000c0a:	4770      	bx	lr
 8000c0c:	f092 0f00 	teq	r2, #0
 8000c10:	f481 0100 	eor.w	r1, r1, #8388608	; 0x800000
 8000c14:	bf06      	itte	eq
 8000c16:	f480 0000 	eoreq.w	r0, r0, #8388608	; 0x800000
 8000c1a:	3201      	addeq	r2, #1
 8000c1c:	3b01      	subne	r3, #1
 8000c1e:	e7b5      	b.n	8000b8c <__addsf3+0x58>
 8000c20:	ea4f 0341 	mov.w	r3, r1, lsl #1
 8000c24:	ea7f 6c22 	mvns.w	ip, r2, asr #24
 8000c28:	bf18      	it	ne
 8000c2a:	ea7f 6c23 	mvnsne.w	ip, r3, asr #24
 8000c2e:	d021      	beq.n	8000c74 <__addsf3+0x140>
 8000c30:	ea92 0f03 	teq	r2, r3
 8000c34:	d004      	beq.n	8000c40 <__addsf3+0x10c>
 8000c36:	f092 0f00 	teq	r2, #0
 8000c3a:	bf08      	it	eq
 8000c3c:	4608      	moveq	r0, r1
 8000c3e:	4770      	bx	lr
 8000c40:	ea90 0f01 	teq	r0, r1
 8000c44:	bf1c      	itt	ne
 8000c46:	2000      	movne	r0, #0
 8000c48:	4770      	bxne	lr
 8000c4a:	f012 4f7f 	tst.w	r2, #4278190080	; 0xff000000
 8000c4e:	d104      	bne.n	8000c5a <__addsf3+0x126>
 8000c50:	0040      	lsls	r0, r0, #1
 8000c52:	bf28      	it	cs
 8000c54:	f040 4000 	orrcs.w	r0, r0, #2147483648	; 0x80000000
 8000c58:	4770      	bx	lr
 8000c5a:	f112 7200 	adds.w	r2, r2, #33554432	; 0x2000000
 8000c5e:	bf3c      	itt	cc
 8000c60:	f500 0000 	addcc.w	r0, r0, #8388608	; 0x800000
 8000c64:	4770      	bxcc	lr
 8000c66:	f000 4300 	and.w	r3, r0, #2147483648	; 0x80000000
 8000c6a:	f043 40fe 	orr.w	r0, r3, #2130706432	; 0x7f000000
 8000c6e:	f440 0000 	orr.w	r0, r0, #8388608	; 0x800000
 8000c72:	4770      	bx	lr
 8000c74:	ea7f 6222 	mvns.w	r2, r2, asr #24
 8000c78:	bf16      	itet	ne
 8000c7a:	4608      	movne	r0, r1
 8000c7c:	ea7f 6323 	mvnseq.w	r3, r3, asr #24
 8000c80:	4601      	movne	r1, r0
 8000c82:	0242      	lsls	r2, r0, #9
 8000c84:	bf06      	itte	eq
 8000c86:	ea5f 2341 	movseq.w	r3, r1, lsl #9
 8000c8a:	ea90 0f01 	teqeq	r0, r1
 8000c8e:	f440 0080 	orrne.w	r0, r0, #4194304	; 0x400000
 8000c92:	4770      	bx	lr

08000c94 <__aeabi_ui2f>:
 8000c94:	f04f 0300 	mov.w	r3, #0
 8000c98:	e004      	b.n	8000ca4 <__aeabi_i2f+0x8>
 8000c9a:	bf00      	nop

08000c9c <__aeabi_i2f>:
 8000c9c:	f010 4300 	ands.w	r3, r0, #2147483648	; 0x80000000
 8000ca0:	bf48      	it	mi
 8000ca2:	4240      	negmi	r0, r0
 8000ca4:	ea5f 0c00 	movs.w	ip, r0
 8000ca8:	bf08      	it	eq
 8000caa:	4770      	bxeq	lr
 8000cac:	f043 4396 	orr.w	r3, r3, #1258291200	; 0x4b000000
 8000cb0:	4601      	mov	r1, r0
 8000cb2:	f04f 0000 	mov.w	r0, #0
 8000cb6:	e01c      	b.n	8000cf2 <__aeabi_l2f+0x2a>

08000cb8 <__aeabi_ul2f>:
 8000cb8:	ea50 0201 	orrs.w	r2, r0, r1
 8000cbc:	bf08      	it	eq
 8000cbe:	4770      	bxeq	lr
 8000cc0:	f04f 0300 	mov.w	r3, #0
 8000cc4:	e00a      	b.n	8000cdc <__aeabi_l2f+0x14>
 8000cc6:	bf00      	nop

08000cc8 <__aeabi_l2f>:
 8000cc8:	ea50 0201 	orrs.w	r2, r0, r1
 8000ccc:	bf08      	it	eq
 8000cce:	4770      	bxeq	lr
 8000cd0:	f011 4300 	ands.w	r3, r1, #2147483648	; 0x80000000
 8000cd4:	d502      	bpl.n	8000cdc <__aeabi_l2f+0x14>
 8000cd6:	4240      	negs	r0, r0
 8000cd8:	eb61 0141 	sbc.w	r1, r1, r1, lsl #1
 8000cdc:	ea5f 0c01 	movs.w	ip, r1
 8000ce0:	bf02      	ittt	eq
 8000ce2:	4684      	moveq	ip, r0
 8000ce4:	4601      	moveq	r1, r0
 8000ce6:	2000      	moveq	r0, #0
 8000ce8:	f043 43b6 	orr.w	r3, r3, #1526726656	; 0x5b000000
 8000cec:	bf08      	it	eq
 8000cee:	f1a3 5380 	subeq.w	r3, r3, #268435456	; 0x10000000
 8000cf2:	f5a3 0300 	sub.w	r3, r3, #8388608	; 0x800000
 8000cf6:	fabc f28c 	clz	r2, ip
 8000cfa:	3a08      	subs	r2, #8
 8000cfc:	eba3 53c2 	sub.w	r3, r3, r2, lsl #23
 8000d00:	db10      	blt.n	8000d24 <__aeabi_l2f+0x5c>
 8000d02:	fa01 fc02 	lsl.w	ip, r1, r2
 8000d06:	4463      	add	r3, ip
 8000d08:	fa00 fc02 	lsl.w	ip, r0, r2
 8000d0c:	f1c2 0220 	rsb	r2, r2, #32
 8000d10:	f1bc 4f00 	cmp.w	ip, #2147483648	; 0x80000000
 8000d14:	fa20 f202 	lsr.w	r2, r0, r2
 8000d18:	eb43 0002 	adc.w	r0, r3, r2
 8000d1c:	bf08      	it	eq
 8000d1e:	f020 0001 	biceq.w	r0, r0, #1
 8000d22:	4770      	bx	lr
 8000d24:	f102 0220 	add.w	r2, r2, #32
 8000d28:	fa01 fc02 	lsl.w	ip, r1, r2
 8000d2c:	f1c2 0220 	rsb	r2, r2, #32
 8000d30:	ea50 004c 	orrs.w	r0, r0, ip, lsl #1
 8000d34:	fa21 f202 	lsr.w	r2, r1, r2
 8000d38:	eb43 0002 	adc.w	r0, r3, r2
 8000d3c:	bf08      	it	eq
 8000d3e:	ea20 70dc 	biceq.w	r0, r0, ip, lsr #31
 8000d42:	4770      	bx	lr

08000d44 <__aeabi_fmul>:
 8000d44:	f04f 0cff 	mov.w	ip, #255	; 0xff
 8000d48:	ea1c 52d0 	ands.w	r2, ip, r0, lsr #23
 8000d4c:	bf1e      	ittt	ne
 8000d4e:	ea1c 53d1 	andsne.w	r3, ip, r1, lsr #23
 8000d52:	ea92 0f0c 	teqne	r2, ip
 8000d56:	ea93 0f0c 	teqne	r3, ip
 8000d5a:	d06f      	beq.n	8000e3c <__aeabi_fmul+0xf8>
 8000d5c:	441a      	add	r2, r3
 8000d5e:	ea80 0c01 	eor.w	ip, r0, r1
 8000d62:	0240      	lsls	r0, r0, #9
 8000d64:	bf18      	it	ne
 8000d66:	ea5f 2141 	movsne.w	r1, r1, lsl #9
 8000d6a:	d01e      	beq.n	8000daa <__aeabi_fmul+0x66>
 8000d6c:	f04f 6300 	mov.w	r3, #134217728	; 0x8000000
 8000d70:	ea43 1050 	orr.w	r0, r3, r0, lsr #5
 8000d74:	ea43 1151 	orr.w	r1, r3, r1, lsr #5
 8000d78:	fba0 3101 	umull	r3, r1, r0, r1
 8000d7c:	f00c 4000 	and.w	r0, ip, #2147483648	; 0x80000000
 8000d80:	f5b1 0f00 	cmp.w	r1, #8388608	; 0x800000
 8000d84:	bf3e      	ittt	cc
 8000d86:	0049      	lslcc	r1, r1, #1
 8000d88:	ea41 71d3 	orrcc.w	r1, r1, r3, lsr #31
 8000d8c:	005b      	lslcc	r3, r3, #1
 8000d8e:	ea40 0001 	orr.w	r0, r0, r1
 8000d92:	f162 027f 	sbc.w	r2, r2, #127	; 0x7f
 8000d96:	2afd      	cmp	r2, #253	; 0xfd
 8000d98:	d81d      	bhi.n	8000dd6 <__aeabi_fmul+0x92>
 8000d9a:	f1b3 4f00 	cmp.w	r3, #2147483648	; 0x80000000
 8000d9e:	eb40 50c2 	adc.w	r0, r0, r2, lsl #23
 8000da2:	bf08      	it	eq
 8000da4:	f020 0001 	biceq.w	r0, r0, #1
 8000da8:	4770      	bx	lr
 8000daa:	f090 0f00 	teq	r0, #0
 8000dae:	f00c 4c00 	and.w	ip, ip, #2147483648	; 0x80000000
 8000db2:	bf08      	it	eq
 8000db4:	0249      	lsleq	r1, r1, #9
 8000db6:	ea4c 2050 	orr.w	r0, ip, r0, lsr #9
 8000dba:	ea40 2051 	orr.w	r0, r0, r1, lsr #9
 8000dbe:	3a7f      	subs	r2, #127	; 0x7f
 8000dc0:	bfc2      	ittt	gt
 8000dc2:	f1d2 03ff 	rsbsgt	r3, r2, #255	; 0xff
 8000dc6:	ea40 50c2 	orrgt.w	r0, r0, r2, lsl #23
 8000dca:	4770      	bxgt	lr
 8000dcc:	f440 0000 	orr.w	r0, r0, #8388608	; 0x800000
 8000dd0:	f04f 0300 	mov.w	r3, #0
 8000dd4:	3a01      	subs	r2, #1
 8000dd6:	dc5d      	bgt.n	8000e94 <__aeabi_fmul+0x150>
 8000dd8:	f112 0f19 	cmn.w	r2, #25
 8000ddc:	bfdc      	itt	le
 8000dde:	f000 4000 	andle.w	r0, r0, #2147483648	; 0x80000000
 8000de2:	4770      	bxle	lr
 8000de4:	f1c2 0200 	rsb	r2, r2, #0
 8000de8:	0041      	lsls	r1, r0, #1
 8000dea:	fa21 f102 	lsr.w	r1, r1, r2
 8000dee:	f1c2 0220 	rsb	r2, r2, #32
 8000df2:	fa00 fc02 	lsl.w	ip, r0, r2
 8000df6:	ea5f 0031 	movs.w	r0, r1, rrx
 8000dfa:	f140 0000 	adc.w	r0, r0, #0
 8000dfe:	ea53 034c 	orrs.w	r3, r3, ip, lsl #1
 8000e02:	bf08      	it	eq
 8000e04:	ea20 70dc 	biceq.w	r0, r0, ip, lsr #31
 8000e08:	4770      	bx	lr
 8000e0a:	f092 0f00 	teq	r2, #0
 8000e0e:	f000 4c00 	and.w	ip, r0, #2147483648	; 0x80000000
 8000e12:	bf02      	ittt	eq
 8000e14:	0040      	lsleq	r0, r0, #1
 8000e16:	f410 0f00 	tsteq.w	r0, #8388608	; 0x800000
 8000e1a:	3a01      	subeq	r2, #1
 8000e1c:	d0f9      	beq.n	8000e12 <__aeabi_fmul+0xce>
 8000e1e:	ea40 000c 	orr.w	r0, r0, ip
 8000e22:	f093 0f00 	teq	r3, #0
 8000e26:	f001 4c00 	and.w	ip, r1, #2147483648	; 0x80000000
 8000e2a:	bf02      	ittt	eq
 8000e2c:	0049      	lsleq	r1, r1, #1
 8000e2e:	f411 0f00 	tsteq.w	r1, #8388608	; 0x800000
 8000e32:	3b01      	subeq	r3, #1
 8000e34:	d0f9      	beq.n	8000e2a <__aeabi_fmul+0xe6>
 8000e36:	ea41 010c 	orr.w	r1, r1, ip
 8000e3a:	e78f      	b.n	8000d5c <__aeabi_fmul+0x18>
 8000e3c:	ea0c 53d1 	and.w	r3, ip, r1, lsr #23
 8000e40:	ea92 0f0c 	teq	r2, ip
 8000e44:	bf18      	it	ne
 8000e46:	ea93 0f0c 	teqne	r3, ip
 8000e4a:	d00a      	beq.n	8000e62 <__aeabi_fmul+0x11e>
 8000e4c:	f030 4c00 	bics.w	ip, r0, #2147483648	; 0x80000000
 8000e50:	bf18      	it	ne
 8000e52:	f031 4c00 	bicsne.w	ip, r1, #2147483648	; 0x80000000
 8000e56:	d1d8      	bne.n	8000e0a <__aeabi_fmul+0xc6>
 8000e58:	ea80 0001 	eor.w	r0, r0, r1
 8000e5c:	f000 4000 	and.w	r0, r0, #2147483648	; 0x80000000
 8000e60:	4770      	bx	lr
 8000e62:	f090 0f00 	teq	r0, #0
 8000e66:	bf17      	itett	ne
 8000e68:	f090 4f00 	teqne	r0, #2147483648	; 0x80000000
 8000e6c:	4608      	moveq	r0, r1
 8000e6e:	f091 0f00 	teqne	r1, #0
 8000e72:	f091 4f00 	teqne	r1, #2147483648	; 0x80000000
 8000e76:	d014      	beq.n	8000ea2 <__aeabi_fmul+0x15e>
 8000e78:	ea92 0f0c 	teq	r2, ip
 8000e7c:	d101      	bne.n	8000e82 <__aeabi_fmul+0x13e>
 8000e7e:	0242      	lsls	r2, r0, #9
 8000e80:	d10f      	bne.n	8000ea2 <__aeabi_fmul+0x15e>
 8000e82:	ea93 0f0c 	teq	r3, ip
 8000e86:	d103      	bne.n	8000e90 <__aeabi_fmul+0x14c>
 8000e88:	024b      	lsls	r3, r1, #9
 8000e8a:	bf18      	it	ne
 8000e8c:	4608      	movne	r0, r1
 8000e8e:	d108      	bne.n	8000ea2 <__aeabi_fmul+0x15e>
 8000e90:	ea80 0001 	eor.w	r0, r0, r1
 8000e94:	f000 4000 	and.w	r0, r0, #2147483648	; 0x80000000
 8000e98:	f040 40fe 	orr.w	r0, r0, #2130706432	; 0x7f000000
 8000e9c:	f440 0000 	orr.w	r0, r0, #8388608	; 0x800000
 8000ea0:	4770      	bx	lr
 8000ea2:	f040 40fe 	orr.w	r0, r0, #2130706432	; 0x7f000000
 8000ea6:	f440 0040 	orr.w	r0, r0, #12582912	; 0xc00000
 8000eaa:	4770      	bx	lr

08000eac <__aeabi_fdiv>:
 8000eac:	f04f 0cff 	mov.w	ip, #255	; 0xff
 8000eb0:	ea1c 52d0 	ands.w	r2, ip, r0, lsr #23
 8000eb4:	bf1e      	ittt	ne
 8000eb6:	ea1c 53d1 	andsne.w	r3, ip, r1, lsr #23
 8000eba:	ea92 0f0c 	teqne	r2, ip
 8000ebe:	ea93 0f0c 	teqne	r3, ip
 8000ec2:	d069      	beq.n	8000f98 <__aeabi_fdiv+0xec>
 8000ec4:	eba2 0203 	sub.w	r2, r2, r3
 8000ec8:	ea80 0c01 	eor.w	ip, r0, r1
 8000ecc:	0249      	lsls	r1, r1, #9
 8000ece:	ea4f 2040 	mov.w	r0, r0, lsl #9
 8000ed2:	d037      	beq.n	8000f44 <__aeabi_fdiv+0x98>
 8000ed4:	f04f 5380 	mov.w	r3, #268435456	; 0x10000000
 8000ed8:	ea43 1111 	orr.w	r1, r3, r1, lsr #4
 8000edc:	ea43 1310 	orr.w	r3, r3, r0, lsr #4
 8000ee0:	f00c 4000 	and.w	r0, ip, #2147483648	; 0x80000000
 8000ee4:	428b      	cmp	r3, r1
 8000ee6:	bf38      	it	cc
 8000ee8:	005b      	lslcc	r3, r3, #1
 8000eea:	f142 027d 	adc.w	r2, r2, #125	; 0x7d
 8000eee:	f44f 0c00 	mov.w	ip, #8388608	; 0x800000
 8000ef2:	428b      	cmp	r3, r1
 8000ef4:	bf24      	itt	cs
 8000ef6:	1a5b      	subcs	r3, r3, r1
 8000ef8:	ea40 000c 	orrcs.w	r0, r0, ip
 8000efc:	ebb3 0f51 	cmp.w	r3, r1, lsr #1
 8000f00:	bf24      	itt	cs
 8000f02:	eba3 0351 	subcs.w	r3, r3, r1, lsr #1
 8000f06:	ea40 005c 	orrcs.w	r0, r0, ip, lsr #1
 8000f0a:	ebb3 0f91 	cmp.w	r3, r1, lsr #2
 8000f0e:	bf24      	itt	cs
 8000f10:	eba3 0391 	subcs.w	r3, r3, r1, lsr #2
 8000f14:	ea40 009c 	orrcs.w	r0, r0, ip, lsr #2
 8000f18:	ebb3 0fd1 	cmp.w	r3, r1, lsr #3
 8000f1c:	bf24      	itt	cs
 8000f1e:	eba3 03d1 	subcs.w	r3, r3, r1, lsr #3
 8000f22:	ea40 00dc 	orrcs.w	r0, r0, ip, lsr #3
 8000f26:	011b      	lsls	r3, r3, #4
 8000f28:	bf18      	it	ne
 8000f2a:	ea5f 1c1c 	movsne.w	ip, ip, lsr #4
 8000f2e:	d1e0      	bne.n	8000ef2 <__aeabi_fdiv+0x46>
 8000f30:	2afd      	cmp	r2, #253	; 0xfd
 8000f32:	f63f af50 	bhi.w	8000dd6 <__aeabi_fmul+0x92>
 8000f36:	428b      	cmp	r3, r1
 8000f38:	eb40 50c2 	adc.w	r0, r0, r2, lsl #23
 8000f3c:	bf08      	it	eq
 8000f3e:	f020 0001 	biceq.w	r0, r0, #1
 8000f42:	4770      	bx	lr
 8000f44:	f00c 4c00 	and.w	ip, ip, #2147483648	; 0x80000000
 8000f48:	ea4c 2050 	orr.w	r0, ip, r0, lsr #9
 8000f4c:	327f      	adds	r2, #127	; 0x7f
 8000f4e:	bfc2      	ittt	gt
 8000f50:	f1d2 03ff 	rsbsgt	r3, r2, #255	; 0xff
 8000f54:	ea40 50c2 	orrgt.w	r0, r0, r2, lsl #23
 8000f58:	4770      	bxgt	lr
 8000f5a:	f440 0000 	orr.w	r0, r0, #8388608	; 0x800000
 8000f5e:	f04f 0300 	mov.w	r3, #0
 8000f62:	3a01      	subs	r2, #1
 8000f64:	e737      	b.n	8000dd6 <__aeabi_fmul+0x92>
 8000f66:	f092 0f00 	teq	r2, #0
 8000f6a:	f000 4c00 	and.w	ip, r0, #2147483648	; 0x80000000
 8000f6e:	bf02      	ittt	eq
 8000f70:	0040      	lsleq	r0, r0, #1
 8000f72:	f410 0f00 	tsteq.w	r0, #8388608	; 0x800000
 8000f76:	3a01      	subeq	r2, #1
 8000f78:	d0f9      	beq.n	8000f6e <__aeabi_fdiv+0xc2>
 8000f7a:	ea40 000c 	orr.w	r0, r0, ip
 8000f7e:	f093 0f00 	teq	r3, #0
 8000f82:	f001 4c00 	and.w	ip, r1, #2147483648	; 0x80000000
 8000f86:	bf02      	ittt	eq
 8000f88:	0049      	lsleq	r1, r1, #1
 8000f8a:	f411 0f00 	tsteq.w	r1, #8388608	; 0x800000
 8000f8e:	3b01      	subeq	r3, #1
 8000f90:	d0f9      	beq.n	8000f86 <__aeabi_fdiv+0xda>
 8000f92:	ea41 010c 	orr.w	r1, r1, ip
 8000f96:	e795      	b.n	8000ec4 <__aeabi_fdiv+0x18>
 8000f98:	ea0c 53d1 	and.w	r3, ip, r1, lsr #23
 8000f9c:	ea92 0f0c 	teq	r2, ip
 8000fa0:	d108      	bne.n	8000fb4 <__aeabi_fdiv+0x108>
 8000fa2:	0242      	lsls	r2, r0, #9
 8000fa4:	f47f af7d 	bne.w	8000ea2 <__aeabi_fmul+0x15e>
 8000fa8:	ea93 0f0c 	teq	r3, ip
 8000fac:	f47f af70 	bne.w	8000e90 <__aeabi_fmul+0x14c>
 8000fb0:	4608      	mov	r0, r1
 8000fb2:	e776      	b.n	8000ea2 <__aeabi_fmul+0x15e>
 8000fb4:	ea93 0f0c 	teq	r3, ip
 8000fb8:	d104      	bne.n	8000fc4 <__aeabi_fdiv+0x118>
 8000fba:	024b      	lsls	r3, r1, #9
 8000fbc:	f43f af4c 	beq.w	8000e58 <__aeabi_fmul+0x114>
 8000fc0:	4608      	mov	r0, r1
 8000fc2:	e76e      	b.n	8000ea2 <__aeabi_fmul+0x15e>
 8000fc4:	f030 4c00 	bics.w	ip, r0, #2147483648	; 0x80000000
 8000fc8:	bf18      	it	ne
 8000fca:	f031 4c00 	bicsne.w	ip, r1, #2147483648	; 0x80000000
 8000fce:	d1ca      	bne.n	8000f66 <__aeabi_fdiv+0xba>
 8000fd0:	f030 4200 	bics.w	r2, r0, #2147483648	; 0x80000000
 8000fd4:	f47f af5c 	bne.w	8000e90 <__aeabi_fmul+0x14c>
 8000fd8:	f031 4300 	bics.w	r3, r1, #2147483648	; 0x80000000
 8000fdc:	f47f af3c 	bne.w	8000e58 <__aeabi_fmul+0x114>
 8000fe0:	e75f      	b.n	8000ea2 <__aeabi_fmul+0x15e>
 8000fe2:	bf00      	nop

08000fe4 <__gesf2>:
 8000fe4:	f04f 3cff 	mov.w	ip, #4294967295
 8000fe8:	e006      	b.n	8000ff8 <__cmpsf2+0x4>
 8000fea:	bf00      	nop

08000fec <__lesf2>:
 8000fec:	f04f 0c01 	mov.w	ip, #1
 8000ff0:	e002      	b.n	8000ff8 <__cmpsf2+0x4>
 8000ff2:	bf00      	nop

08000ff4 <__cmpsf2>:
 8000ff4:	f04f 0c01 	mov.w	ip, #1
 8000ff8:	f84d cd04 	str.w	ip, [sp, #-4]!
 8000ffc:	ea4f 0240 	mov.w	r2, r0, lsl #1
 8001000:	ea4f 0341 	mov.w	r3, r1, lsl #1
 8001004:	ea7f 6c22 	mvns.w	ip, r2, asr #24
 8001008:	bf18      	it	ne
 800100a:	ea7f 6c23 	mvnsne.w	ip, r3, asr #24
 800100e:	d011      	beq.n	8001034 <__cmpsf2+0x40>
 8001010:	b001      	add	sp, #4
 8001012:	ea52 0c53 	orrs.w	ip, r2, r3, lsr #1
 8001016:	bf18      	it	ne
 8001018:	ea90 0f01 	teqne	r0, r1
 800101c:	bf58      	it	pl
 800101e:	ebb2 0003 	subspl.w	r0, r2, r3
 8001022:	bf88      	it	hi
 8001024:	17c8      	asrhi	r0, r1, #31
 8001026:	bf38      	it	cc
 8001028:	ea6f 70e1 	mvncc.w	r0, r1, asr #31
 800102c:	bf18      	it	ne
 800102e:	f040 0001 	orrne.w	r0, r0, #1
 8001032:	4770      	bx	lr
 8001034:	ea7f 6c22 	mvns.w	ip, r2, asr #24
 8001038:	d102      	bne.n	8001040 <__cmpsf2+0x4c>
 800103a:	ea5f 2c40 	movs.w	ip, r0, lsl #9
 800103e:	d105      	bne.n	800104c <__cmpsf2+0x58>
 8001040:	ea7f 6c23 	mvns.w	ip, r3, asr #24
 8001044:	d1e4      	bne.n	8001010 <__cmpsf2+0x1c>
 8001046:	ea5f 2c41 	movs.w	ip, r1, lsl #9
 800104a:	d0e1      	beq.n	8001010 <__cmpsf2+0x1c>
 800104c:	f85d 0b04 	ldr.w	r0, [sp], #4
 8001050:	4770      	bx	lr
 8001052:	bf00      	nop

08001054 <__aeabi_cfrcmple>:
 8001054:	4684      	mov	ip, r0
 8001056:	4608      	mov	r0, r1
 8001058:	4661      	mov	r1, ip
 800105a:	e7ff      	b.n	800105c <__aeabi_cfcmpeq>

0800105c <__aeabi_cfcmpeq>:
 800105c:	b50f      	push	{r0, r1, r2, r3, lr}
 800105e:	f7ff ffc9 	bl	8000ff4 <__cmpsf2>
 8001062:	2800      	cmp	r0, #0
 8001064:	bf48      	it	mi
 8001066:	f110 0f00 	cmnmi.w	r0, #0
 800106a:	bd0f      	pop	{r0, r1, r2, r3, pc}

0800106c <__aeabi_fcmpeq>:
 800106c:	f84d ed08 	str.w	lr, [sp, #-8]!
 8001070:	f7ff fff4 	bl	800105c <__aeabi_cfcmpeq>
 8001074:	bf0c      	ite	eq
 8001076:	2001      	moveq	r0, #1
 8001078:	2000      	movne	r0, #0
 800107a:	f85d fb08 	ldr.w	pc, [sp], #8
 800107e:	bf00      	nop

08001080 <__aeabi_fcmplt>:
 8001080:	f84d ed08 	str.w	lr, [sp, #-8]!
 8001084:	f7ff ffea 	bl	800105c <__aeabi_cfcmpeq>
 8001088:	bf34      	ite	cc
 800108a:	2001      	movcc	r0, #1
 800108c:	2000      	movcs	r0, #0
 800108e:	f85d fb08 	ldr.w	pc, [sp], #8
 8001092:	bf00      	nop

08001094 <__aeabi_fcmple>:
 8001094:	f84d ed08 	str.w	lr, [sp, #-8]!
 8001098:	f7ff ffe0 	bl	800105c <__aeabi_cfcmpeq>
 800109c:	bf94      	ite	ls
 800109e:	2001      	movls	r0, #1
 80010a0:	2000      	movhi	r0, #0
 80010a2:	f85d fb08 	ldr.w	pc, [sp], #8
 80010a6:	bf00      	nop

080010a8 <__aeabi_fcmpge>:
 80010a8:	f84d ed08 	str.w	lr, [sp, #-8]!
 80010ac:	f7ff ffd2 	bl	8001054 <__aeabi_cfrcmple>
 80010b0:	bf94      	ite	ls
 80010b2:	2001      	movls	r0, #1
 80010b4:	2000      	movhi	r0, #0
 80010b6:	f85d fb08 	ldr.w	pc, [sp], #8
 80010ba:	bf00      	nop

080010bc <__aeabi_fcmpgt>:
 80010bc:	f84d ed08 	str.w	lr, [sp, #-8]!
 80010c0:	f7ff ffc8 	bl	8001054 <__aeabi_cfrcmple>
 80010c4:	bf34      	ite	cc
 80010c6:	2001      	movcc	r0, #1
 80010c8:	2000      	movcs	r0, #0
 80010ca:	f85d fb08 	ldr.w	pc, [sp], #8
 80010ce:	bf00      	nop

080010d0 <__aeabi_f2iz>:
 80010d0:	ea4f 0240 	mov.w	r2, r0, lsl #1
 80010d4:	f1b2 4ffe 	cmp.w	r2, #2130706432	; 0x7f000000
 80010d8:	d30f      	bcc.n	80010fa <__aeabi_f2iz+0x2a>
 80010da:	f04f 039e 	mov.w	r3, #158	; 0x9e
 80010de:	ebb3 6212 	subs.w	r2, r3, r2, lsr #24
 80010e2:	d90d      	bls.n	8001100 <__aeabi_f2iz+0x30>
 80010e4:	ea4f 2300 	mov.w	r3, r0, lsl #8
 80010e8:	f043 4300 	orr.w	r3, r3, #2147483648	; 0x80000000
 80010ec:	f010 4f00 	tst.w	r0, #2147483648	; 0x80000000
 80010f0:	fa23 f002 	lsr.w	r0, r3, r2
 80010f4:	bf18      	it	ne
 80010f6:	4240      	negne	r0, r0
 80010f8:	4770      	bx	lr
 80010fa:	f04f 0000 	mov.w	r0, #0
 80010fe:	4770      	bx	lr
 8001100:	f112 0f61 	cmn.w	r2, #97	; 0x61
 8001104:	d101      	bne.n	800110a <__aeabi_f2iz+0x3a>
 8001106:	0242      	lsls	r2, r0, #9
 8001108:	d105      	bne.n	8001116 <__aeabi_f2iz+0x46>
 800110a:	f010 4000 	ands.w	r0, r0, #2147483648	; 0x80000000
 800110e:	bf08      	it	eq
 8001110:	f06f 4000 	mvneq.w	r0, #2147483648	; 0x80000000
 8001114:	4770      	bx	lr
 8001116:	f04f 0000 	mov.w	r0, #0
 800111a:	4770      	bx	lr

0800111c <__aeabi_f2uiz>:
 800111c:	0042      	lsls	r2, r0, #1
 800111e:	d20e      	bcs.n	800113e <__aeabi_f2uiz+0x22>
 8001120:	f1b2 4ffe 	cmp.w	r2, #2130706432	; 0x7f000000
 8001124:	d30b      	bcc.n	800113e <__aeabi_f2uiz+0x22>
 8001126:	f04f 039e 	mov.w	r3, #158	; 0x9e
 800112a:	ebb3 6212 	subs.w	r2, r3, r2, lsr #24
 800112e:	d409      	bmi.n	8001144 <__aeabi_f2uiz+0x28>
 8001130:	ea4f 2300 	mov.w	r3, r0, lsl #8
 8001134:	f043 4300 	orr.w	r3, r3, #2147483648	; 0x80000000
 8001138:	fa23 f002 	lsr.w	r0, r3, r2
 800113c:	4770      	bx	lr
 800113e:	f04f 0000 	mov.w	r0, #0
 8001142:	4770      	bx	lr
 8001144:	f112 0f61 	cmn.w	r2, #97	; 0x61
 8001148:	d101      	bne.n	800114e <__aeabi_f2uiz+0x32>
 800114a:	0242      	lsls	r2, r0, #9
 800114c:	d102      	bne.n	8001154 <__aeabi_f2uiz+0x38>
 800114e:	f04f 30ff 	mov.w	r0, #4294967295
 8001152:	4770      	bx	lr
 8001154:	f04f 0000 	mov.w	r0, #0
 8001158:	4770      	bx	lr
 800115a:	bf00      	nop

0800115c <HAL_InitTick>:
  *       implementation  in user file.
  * @param TickPriority Tick interrupt priority.
  * @retval HAL status
  */
__weak HAL_StatusTypeDef HAL_InitTick(uint32_t TickPriority)
{
 800115c:	b510      	push	{r4, lr}
 800115e:	4604      	mov	r4, r0
  /* Configure the SysTick to have interrupt in 1ms time basis*/
  if (HAL_SYSTICK_Config(SystemCoreClock / (1000U / uwTickFreq)) > 0U)
 8001160:	4b0e      	ldr	r3, [pc, #56]	; (800119c <HAL_InitTick+0x40>)
 8001162:	7818      	ldrb	r0, [r3, #0]
 8001164:	f44f 737a 	mov.w	r3, #1000	; 0x3e8
 8001168:	fbb3 f3f0 	udiv	r3, r3, r0
 800116c:	4a0c      	ldr	r2, [pc, #48]	; (80011a0 <HAL_InitTick+0x44>)
 800116e:	6810      	ldr	r0, [r2, #0]
 8001170:	fbb0 f0f3 	udiv	r0, r0, r3
 8001174:	f000 fb22 	bl	80017bc <HAL_SYSTICK_Config>
 8001178:	b968      	cbnz	r0, 8001196 <HAL_InitTick+0x3a>
  {
    return HAL_ERROR;
  }

  /* Configure the SysTick IRQ priority */
  if (TickPriority < (1UL << __NVIC_PRIO_BITS))
 800117a:	2c0f      	cmp	r4, #15
 800117c:	d901      	bls.n	8001182 <HAL_InitTick+0x26>
    HAL_NVIC_SetPriority(SysTick_IRQn, TickPriority, 0U);
    uwTickPrio = TickPriority;
  }
  else
  {
    return HAL_ERROR;
 800117e:	2001      	movs	r0, #1
 8001180:	e00a      	b.n	8001198 <HAL_InitTick+0x3c>
    HAL_NVIC_SetPriority(SysTick_IRQn, TickPriority, 0U);
 8001182:	2200      	movs	r2, #0
 8001184:	4621      	mov	r1, r4
 8001186:	f04f 30ff 	mov.w	r0, #4294967295
 800118a:	f000 fad5 	bl	8001738 <HAL_NVIC_SetPriority>
    uwTickPrio = TickPriority;
 800118e:	4b05      	ldr	r3, [pc, #20]	; (80011a4 <HAL_InitTick+0x48>)
 8001190:	601c      	str	r4, [r3, #0]
  }

  /* Return function status */
  return HAL_OK;
 8001192:	2000      	movs	r0, #0
 8001194:	e000      	b.n	8001198 <HAL_InitTick+0x3c>
    return HAL_ERROR;
 8001196:	2001      	movs	r0, #1
}
 8001198:	bd10      	pop	{r4, pc}
 800119a:	bf00      	nop
 800119c:	20000000 	.word	0x20000000
 80011a0:	20000074 	.word	0x20000074
 80011a4:	20000004 	.word	0x20000004

080011a8 <HAL_Init>:
{
 80011a8:	b508      	push	{r3, lr}
  __HAL_FLASH_PREFETCH_BUFFER_ENABLE();
 80011aa:	4a07      	ldr	r2, [pc, #28]	; (80011c8 <HAL_Init+0x20>)
 80011ac:	6813      	ldr	r3, [r2, #0]
 80011ae:	f043 0310 	orr.w	r3, r3, #16
 80011b2:	6013      	str	r3, [r2, #0]
  HAL_NVIC_SetPriorityGrouping(NVIC_PRIORITYGROUP_4);
 80011b4:	2003      	movs	r0, #3
 80011b6:	f000 faad 	bl	8001714 <HAL_NVIC_SetPriorityGrouping>
  HAL_InitTick(TICK_INT_PRIORITY);
 80011ba:	2000      	movs	r0, #0
 80011bc:	f7ff ffce 	bl	800115c <HAL_InitTick>
  HAL_MspInit();
 80011c0:	f006 f9d0 	bl	8007564 <HAL_MspInit>
}
 80011c4:	2000      	movs	r0, #0
 80011c6:	bd08      	pop	{r3, pc}
 80011c8:	40022000 	.word	0x40022000

080011cc <HAL_IncTick>:
  *      implementations in user file.
  * @retval None
  */
__weak void HAL_IncTick(void)
{
  uwTick += uwTickFreq;
 80011cc:	4a03      	ldr	r2, [pc, #12]	; (80011dc <HAL_IncTick+0x10>)
 80011ce:	6811      	ldr	r1, [r2, #0]
 80011d0:	4b03      	ldr	r3, [pc, #12]	; (80011e0 <HAL_IncTick+0x14>)
 80011d2:	781b      	ldrb	r3, [r3, #0]
 80011d4:	440b      	add	r3, r1
 80011d6:	6013      	str	r3, [r2, #0]
}
 80011d8:	4770      	bx	lr
 80011da:	bf00      	nop
 80011dc:	200005d8 	.word	0x200005d8
 80011e0:	20000000 	.word	0x20000000

080011e4 <HAL_GetTick>:
  *       implementations in user file.
  * @retval tick value
  */
__weak uint32_t HAL_GetTick(void)
{
  return uwTick;
 80011e4:	4b01      	ldr	r3, [pc, #4]	; (80011ec <HAL_GetTick+0x8>)
 80011e6:	6818      	ldr	r0, [r3, #0]
}
 80011e8:	4770      	bx	lr
 80011ea:	bf00      	nop
 80011ec:	200005d8 	.word	0x200005d8

080011f0 <HAL_ADC_GetValue>:

  /* Note: EOC flag is not cleared here by software because automatically     */
  /*       cleared by hardware when reading register DR.                      */
  
  /* Return ADC converted value */ 
  return hadc->Instance->DR;
 80011f0:	6803      	ldr	r3, [r0, #0]
 80011f2:	6cd8      	ldr	r0, [r3, #76]	; 0x4c
}
 80011f4:	4770      	bx	lr

080011f6 <HAL_ADC_LevelOutOfWindowCallback>:
  /* Prevent unused argument(s) compilation warning */
  UNUSED(hadc);
  /* NOTE : This function should not be modified. When the callback is needed,
            function HAL_ADC_LevelOutOfWindowCallback must be implemented in the user file.
  */
}
 80011f6:	4770      	bx	lr

080011f8 <HAL_ADC_IRQHandler>:
{
 80011f8:	b510      	push	{r4, lr}
 80011fa:	4604      	mov	r4, r0
  if(__HAL_ADC_GET_IT_SOURCE(hadc, ADC_IT_EOC))
 80011fc:	6803      	ldr	r3, [r0, #0]
 80011fe:	685a      	ldr	r2, [r3, #4]
 8001200:	f012 0f20 	tst.w	r2, #32
 8001204:	d018      	beq.n	8001238 <HAL_ADC_IRQHandler+0x40>
    if(__HAL_ADC_GET_FLAG(hadc, ADC_FLAG_EOC) )
 8001206:	681a      	ldr	r2, [r3, #0]
 8001208:	f012 0f02 	tst.w	r2, #2
 800120c:	d014      	beq.n	8001238 <HAL_ADC_IRQHandler+0x40>
      if (HAL_IS_BIT_CLR(hadc->State, HAL_ADC_STATE_ERROR_INTERNAL))
 800120e:	6a82      	ldr	r2, [r0, #40]	; 0x28
 8001210:	f012 0f10 	tst.w	r2, #16
 8001214:	d103      	bne.n	800121e <HAL_ADC_IRQHandler+0x26>
        SET_BIT(hadc->State, HAL_ADC_STATE_REG_EOC); 
 8001216:	6a82      	ldr	r2, [r0, #40]	; 0x28
 8001218:	f442 7200 	orr.w	r2, r2, #512	; 0x200
 800121c:	6282      	str	r2, [r0, #40]	; 0x28
      if(ADC_IS_SOFTWARE_START_REGULAR(hadc)        && 
 800121e:	689a      	ldr	r2, [r3, #8]
 8001220:	f402 2260 	and.w	r2, r2, #917504	; 0xe0000
 8001224:	f5b2 2f60 	cmp.w	r2, #917504	; 0xe0000
 8001228:	d038      	beq.n	800129c <HAL_ADC_IRQHandler+0xa4>
      HAL_ADC_ConvCpltCallback(hadc);
 800122a:	4620      	mov	r0, r4
 800122c:	f006 fb54 	bl	80078d8 <HAL_ADC_ConvCpltCallback>
      __HAL_ADC_CLEAR_FLAG(hadc, ADC_FLAG_STRT | ADC_FLAG_EOC);
 8001230:	6823      	ldr	r3, [r4, #0]
 8001232:	f06f 0212 	mvn.w	r2, #18
 8001236:	601a      	str	r2, [r3, #0]
  if(__HAL_ADC_GET_IT_SOURCE(hadc, ADC_IT_JEOC))
 8001238:	6823      	ldr	r3, [r4, #0]
 800123a:	685a      	ldr	r2, [r3, #4]
 800123c:	f012 0f80 	tst.w	r2, #128	; 0x80
 8001240:	d022      	beq.n	8001288 <HAL_ADC_IRQHandler+0x90>
    if(__HAL_ADC_GET_FLAG(hadc, ADC_FLAG_JEOC))
 8001242:	681a      	ldr	r2, [r3, #0]
 8001244:	f012 0f04 	tst.w	r2, #4
 8001248:	d01e      	beq.n	8001288 <HAL_ADC_IRQHandler+0x90>
      if (HAL_IS_BIT_CLR(hadc->State, HAL_ADC_STATE_ERROR_INTERNAL))
 800124a:	6aa2      	ldr	r2, [r4, #40]	; 0x28
 800124c:	f012 0f10 	tst.w	r2, #16
 8001250:	d103      	bne.n	800125a <HAL_ADC_IRQHandler+0x62>
        SET_BIT(hadc->State, HAL_ADC_STATE_INJ_EOC);
 8001252:	6aa2      	ldr	r2, [r4, #40]	; 0x28
 8001254:	f442 5200 	orr.w	r2, r2, #8192	; 0x2000
 8001258:	62a2      	str	r2, [r4, #40]	; 0x28
      if(ADC_IS_SOFTWARE_START_INJECTED(hadc)                     || 
 800125a:	689a      	ldr	r2, [r3, #8]
 800125c:	f402 42e0 	and.w	r2, r2, #28672	; 0x7000
 8001260:	f5b2 4fe0 	cmp.w	r2, #28672	; 0x7000
 8001264:	d031      	beq.n	80012ca <HAL_ADC_IRQHandler+0xd2>
         (HAL_IS_BIT_CLR(hadc->Instance->CR1, ADC_CR1_JAUTO) &&     
 8001266:	685a      	ldr	r2, [r3, #4]
      if(ADC_IS_SOFTWARE_START_INJECTED(hadc)                     || 
 8001268:	f412 6f80 	tst.w	r2, #1024	; 0x400
 800126c:	d105      	bne.n	800127a <HAL_ADC_IRQHandler+0x82>
         (ADC_IS_SOFTWARE_START_REGULAR(hadc)        &&
 800126e:	689a      	ldr	r2, [r3, #8]
 8001270:	f402 2260 	and.w	r2, r2, #917504	; 0xe0000
         (HAL_IS_BIT_CLR(hadc->Instance->CR1, ADC_CR1_JAUTO) &&     
 8001274:	f5b2 2f60 	cmp.w	r2, #917504	; 0xe0000
 8001278:	d024      	beq.n	80012c4 <HAL_ADC_IRQHandler+0xcc>
      HAL_ADCEx_InjectedConvCpltCallback(hadc);
 800127a:	4620      	mov	r0, r4
 800127c:	f000 fa48 	bl	8001710 <HAL_ADCEx_InjectedConvCpltCallback>
      __HAL_ADC_CLEAR_FLAG(hadc, (ADC_FLAG_JSTRT | ADC_FLAG_JEOC));
 8001280:	6823      	ldr	r3, [r4, #0]
 8001282:	f06f 020c 	mvn.w	r2, #12
 8001286:	601a      	str	r2, [r3, #0]
  if(__HAL_ADC_GET_IT_SOURCE(hadc, ADC_IT_AWD))
 8001288:	6823      	ldr	r3, [r4, #0]
 800128a:	685a      	ldr	r2, [r3, #4]
 800128c:	f012 0f40 	tst.w	r2, #64	; 0x40
 8001290:	d003      	beq.n	800129a <HAL_ADC_IRQHandler+0xa2>
    if(__HAL_ADC_GET_FLAG(hadc, ADC_FLAG_AWD))
 8001292:	681b      	ldr	r3, [r3, #0]
 8001294:	f013 0f01 	tst.w	r3, #1
 8001298:	d128      	bne.n	80012ec <HAL_ADC_IRQHandler+0xf4>
}
 800129a:	bd10      	pop	{r4, pc}
         (hadc->Init.ContinuousConvMode == DISABLE)   )
 800129c:	7b22      	ldrb	r2, [r4, #12]
      if(ADC_IS_SOFTWARE_START_REGULAR(hadc)        && 
 800129e:	2a00      	cmp	r2, #0
 80012a0:	d1c3      	bne.n	800122a <HAL_ADC_IRQHandler+0x32>
        __HAL_ADC_DISABLE_IT(hadc, ADC_IT_EOC);
 80012a2:	685a      	ldr	r2, [r3, #4]
 80012a4:	f022 0220 	bic.w	r2, r2, #32
 80012a8:	605a      	str	r2, [r3, #4]
        CLEAR_BIT(hadc->State, HAL_ADC_STATE_REG_BUSY);   
 80012aa:	6aa3      	ldr	r3, [r4, #40]	; 0x28
 80012ac:	f423 7380 	bic.w	r3, r3, #256	; 0x100
 80012b0:	62a3      	str	r3, [r4, #40]	; 0x28
        if (HAL_IS_BIT_CLR(hadc->State, HAL_ADC_STATE_INJ_BUSY))
 80012b2:	6aa3      	ldr	r3, [r4, #40]	; 0x28
 80012b4:	f413 5f80 	tst.w	r3, #4096	; 0x1000
 80012b8:	d1b7      	bne.n	800122a <HAL_ADC_IRQHandler+0x32>
          SET_BIT(hadc->State, HAL_ADC_STATE_READY);
 80012ba:	6aa3      	ldr	r3, [r4, #40]	; 0x28
 80012bc:	f043 0301 	orr.w	r3, r3, #1
 80012c0:	62a3      	str	r3, [r4, #40]	; 0x28
 80012c2:	e7b2      	b.n	800122a <HAL_ADC_IRQHandler+0x32>
          (hadc->Init.ContinuousConvMode == DISABLE)   )        )   )
 80012c4:	7b22      	ldrb	r2, [r4, #12]
         (ADC_IS_SOFTWARE_START_REGULAR(hadc)        &&
 80012c6:	2a00      	cmp	r2, #0
 80012c8:	d1d7      	bne.n	800127a <HAL_ADC_IRQHandler+0x82>
        __HAL_ADC_DISABLE_IT(hadc, ADC_IT_JEOC);
 80012ca:	685a      	ldr	r2, [r3, #4]
 80012cc:	f022 0280 	bic.w	r2, r2, #128	; 0x80
 80012d0:	605a      	str	r2, [r3, #4]
        CLEAR_BIT(hadc->State, HAL_ADC_STATE_INJ_BUSY);   
 80012d2:	6aa3      	ldr	r3, [r4, #40]	; 0x28
 80012d4:	f423 5380 	bic.w	r3, r3, #4096	; 0x1000
 80012d8:	62a3      	str	r3, [r4, #40]	; 0x28
        if (HAL_IS_BIT_CLR(hadc->State, HAL_ADC_STATE_REG_BUSY))
 80012da:	6aa3      	ldr	r3, [r4, #40]	; 0x28
 80012dc:	f413 7f80 	tst.w	r3, #256	; 0x100
 80012e0:	d1cb      	bne.n	800127a <HAL_ADC_IRQHandler+0x82>
          SET_BIT(hadc->State, HAL_ADC_STATE_READY);
 80012e2:	6aa3      	ldr	r3, [r4, #40]	; 0x28
 80012e4:	f043 0301 	orr.w	r3, r3, #1
 80012e8:	62a3      	str	r3, [r4, #40]	; 0x28
 80012ea:	e7c6      	b.n	800127a <HAL_ADC_IRQHandler+0x82>
      SET_BIT(hadc->State, HAL_ADC_STATE_AWD1);
 80012ec:	6aa3      	ldr	r3, [r4, #40]	; 0x28
 80012ee:	f443 3380 	orr.w	r3, r3, #65536	; 0x10000
 80012f2:	62a3      	str	r3, [r4, #40]	; 0x28
      HAL_ADC_LevelOutOfWindowCallback(hadc);
 80012f4:	4620      	mov	r0, r4
 80012f6:	f7ff ff7e 	bl	80011f6 <HAL_ADC_LevelOutOfWindowCallback>
      __HAL_ADC_CLEAR_FLAG(hadc, ADC_FLAG_AWD);
 80012fa:	6823      	ldr	r3, [r4, #0]
 80012fc:	f06f 0201 	mvn.w	r2, #1
 8001300:	601a      	str	r2, [r3, #0]
}
 8001302:	e7ca      	b.n	800129a <HAL_ADC_IRQHandler+0xa2>

08001304 <HAL_ADC_ConfigChannel>:
  * @param  hadc: ADC handle
  * @param  sConfig: Structure of ADC channel for regular group.
  * @retval HAL status
  */
HAL_StatusTypeDef HAL_ADC_ConfigChannel(ADC_HandleTypeDef* hadc, ADC_ChannelConfTypeDef* sConfig)
{ 
 8001304:	b430      	push	{r4, r5}
 8001306:	b082      	sub	sp, #8
  HAL_StatusTypeDef tmp_hal_status = HAL_OK;
  __IO uint32_t wait_loop_index = 0U;
 8001308:	2300      	movs	r3, #0
 800130a:	9301      	str	r3, [sp, #4]
  assert_param(IS_ADC_CHANNEL(sConfig->Channel));
  assert_param(IS_ADC_REGULAR_RANK(sConfig->Rank));
  assert_param(IS_ADC_SAMPLE_TIME(sConfig->SamplingTime));
  
  /* Process locked */
  __HAL_LOCK(hadc);
 800130c:	f890 3024 	ldrb.w	r3, [r0, #36]	; 0x24
 8001310:	2b01      	cmp	r3, #1
 8001312:	f000 808b 	beq.w	800142c <HAL_ADC_ConfigChannel+0x128>
 8001316:	4602      	mov	r2, r0
 8001318:	2301      	movs	r3, #1
 800131a:	f880 3024 	strb.w	r3, [r0, #36]	; 0x24
  
  
  /* Regular sequence configuration */
  /* For Rank 1 to 6 */
  if (sConfig->Rank < 7U)
 800131e:	684b      	ldr	r3, [r1, #4]
 8001320:	2b06      	cmp	r3, #6
 8001322:	d829      	bhi.n	8001378 <HAL_ADC_ConfigChannel+0x74>
  {
    MODIFY_REG(hadc->Instance->SQR3                        ,
 8001324:	6805      	ldr	r5, [r0, #0]
 8001326:	6b68      	ldr	r0, [r5, #52]	; 0x34
 8001328:	eb03 0383 	add.w	r3, r3, r3, lsl #2
 800132c:	3b05      	subs	r3, #5
 800132e:	241f      	movs	r4, #31
 8001330:	409c      	lsls	r4, r3
 8001332:	ea20 0004 	bic.w	r0, r0, r4
 8001336:	680c      	ldr	r4, [r1, #0]
 8001338:	fa04 f303 	lsl.w	r3, r4, r3
 800133c:	4303      	orrs	r3, r0
 800133e:	636b      	str	r3, [r5, #52]	; 0x34
  }
  
  
  /* Channel sampling time configuration */
  /* For channels 10 to 17 */
  if (sConfig->Channel >= ADC_CHANNEL_10)
 8001340:	680b      	ldr	r3, [r1, #0]
 8001342:	2b09      	cmp	r3, #9
 8001344:	d938      	bls.n	80013b8 <HAL_ADC_ConfigChannel+0xb4>
  {
    MODIFY_REG(hadc->Instance->SMPR1                             ,
 8001346:	6815      	ldr	r5, [r2, #0]
 8001348:	68e8      	ldr	r0, [r5, #12]
 800134a:	eb03 0343 	add.w	r3, r3, r3, lsl #1
 800134e:	3b1e      	subs	r3, #30
 8001350:	2407      	movs	r4, #7
 8001352:	409c      	lsls	r4, r3
 8001354:	ea20 0004 	bic.w	r0, r0, r4
 8001358:	688c      	ldr	r4, [r1, #8]
 800135a:	fa04 f303 	lsl.w	r3, r4, r3
 800135e:	4303      	orrs	r3, r0
 8001360:	60eb      	str	r3, [r5, #12]
               ADC_SMPR2(sConfig->SamplingTime, sConfig->Channel) );
  }
  
  /* If ADC1 Channel_16 or Channel_17 is selected, enable Temperature sensor  */
  /* and VREFINT measurement path.                                            */
  if ((sConfig->Channel == ADC_CHANNEL_TEMPSENSOR) ||
 8001362:	680b      	ldr	r3, [r1, #0]
 8001364:	3b10      	subs	r3, #16
 8001366:	2b01      	cmp	r3, #1
 8001368:	d934      	bls.n	80013d4 <HAL_ADC_ConfigChannel+0xd0>
  HAL_StatusTypeDef tmp_hal_status = HAL_OK;
 800136a:	2000      	movs	r0, #0
      tmp_hal_status = HAL_ERROR;
    }
  }
  
  /* Process unlocked */
  __HAL_UNLOCK(hadc);
 800136c:	2300      	movs	r3, #0
 800136e:	f882 3024 	strb.w	r3, [r2, #36]	; 0x24
  
  /* Return function status */
  return tmp_hal_status;
}
 8001372:	b002      	add	sp, #8
 8001374:	bc30      	pop	{r4, r5}
 8001376:	4770      	bx	lr
  else if (sConfig->Rank < 13U)
 8001378:	2b0c      	cmp	r3, #12
 800137a:	d80e      	bhi.n	800139a <HAL_ADC_ConfigChannel+0x96>
    MODIFY_REG(hadc->Instance->SQR2                        ,
 800137c:	6805      	ldr	r5, [r0, #0]
 800137e:	6b28      	ldr	r0, [r5, #48]	; 0x30
 8001380:	eb03 0383 	add.w	r3, r3, r3, lsl #2
 8001384:	3b23      	subs	r3, #35	; 0x23
 8001386:	241f      	movs	r4, #31
 8001388:	409c      	lsls	r4, r3
 800138a:	ea20 0004 	bic.w	r0, r0, r4
 800138e:	680c      	ldr	r4, [r1, #0]
 8001390:	fa04 f303 	lsl.w	r3, r4, r3
 8001394:	4303      	orrs	r3, r0
 8001396:	632b      	str	r3, [r5, #48]	; 0x30
 8001398:	e7d2      	b.n	8001340 <HAL_ADC_ConfigChannel+0x3c>
    MODIFY_REG(hadc->Instance->SQR1                        ,
 800139a:	6805      	ldr	r5, [r0, #0]
 800139c:	6ae8      	ldr	r0, [r5, #44]	; 0x2c
 800139e:	eb03 0383 	add.w	r3, r3, r3, lsl #2
 80013a2:	3b41      	subs	r3, #65	; 0x41
 80013a4:	241f      	movs	r4, #31
 80013a6:	409c      	lsls	r4, r3
 80013a8:	ea20 0004 	bic.w	r0, r0, r4
 80013ac:	680c      	ldr	r4, [r1, #0]
 80013ae:	fa04 f303 	lsl.w	r3, r4, r3
 80013b2:	4303      	orrs	r3, r0
 80013b4:	62eb      	str	r3, [r5, #44]	; 0x2c
 80013b6:	e7c3      	b.n	8001340 <HAL_ADC_ConfigChannel+0x3c>
    MODIFY_REG(hadc->Instance->SMPR2                             ,
 80013b8:	6815      	ldr	r5, [r2, #0]
 80013ba:	6928      	ldr	r0, [r5, #16]
 80013bc:	eb03 0343 	add.w	r3, r3, r3, lsl #1
 80013c0:	2407      	movs	r4, #7
 80013c2:	409c      	lsls	r4, r3
 80013c4:	ea20 0004 	bic.w	r0, r0, r4
 80013c8:	688c      	ldr	r4, [r1, #8]
 80013ca:	fa04 f303 	lsl.w	r3, r4, r3
 80013ce:	4303      	orrs	r3, r0
 80013d0:	612b      	str	r3, [r5, #16]
 80013d2:	e7c6      	b.n	8001362 <HAL_ADC_ConfigChannel+0x5e>
    if (hadc->Instance == ADC1)
 80013d4:	6813      	ldr	r3, [r2, #0]
 80013d6:	4816      	ldr	r0, [pc, #88]	; (8001430 <HAL_ADC_ConfigChannel+0x12c>)
 80013d8:	4283      	cmp	r3, r0
 80013da:	d005      	beq.n	80013e8 <HAL_ADC_ConfigChannel+0xe4>
      SET_BIT(hadc->State, HAL_ADC_STATE_ERROR_CONFIG);
 80013dc:	6a93      	ldr	r3, [r2, #40]	; 0x28
 80013de:	f043 0320 	orr.w	r3, r3, #32
 80013e2:	6293      	str	r3, [r2, #40]	; 0x28
      tmp_hal_status = HAL_ERROR;
 80013e4:	2001      	movs	r0, #1
 80013e6:	e7c1      	b.n	800136c <HAL_ADC_ConfigChannel+0x68>
      if (READ_BIT(hadc->Instance->CR2, ADC_CR2_TSVREFE) == RESET)
 80013e8:	6898      	ldr	r0, [r3, #8]
 80013ea:	f410 0f00 	tst.w	r0, #8388608	; 0x800000
 80013ee:	d11b      	bne.n	8001428 <HAL_ADC_ConfigChannel+0x124>
        SET_BIT(hadc->Instance->CR2, ADC_CR2_TSVREFE);
 80013f0:	6898      	ldr	r0, [r3, #8]
 80013f2:	f440 0000 	orr.w	r0, r0, #8388608	; 0x800000
 80013f6:	6098      	str	r0, [r3, #8]
        if ((sConfig->Channel == ADC_CHANNEL_TEMPSENSOR))
 80013f8:	680b      	ldr	r3, [r1, #0]
 80013fa:	2b10      	cmp	r3, #16
 80013fc:	d001      	beq.n	8001402 <HAL_ADC_ConfigChannel+0xfe>
  HAL_StatusTypeDef tmp_hal_status = HAL_OK;
 80013fe:	2000      	movs	r0, #0
 8001400:	e7b4      	b.n	800136c <HAL_ADC_ConfigChannel+0x68>
          wait_loop_index = (ADC_TEMPSENSOR_DELAY_US * (SystemCoreClock / 1000000U));
 8001402:	4b0c      	ldr	r3, [pc, #48]	; (8001434 <HAL_ADC_ConfigChannel+0x130>)
 8001404:	681b      	ldr	r3, [r3, #0]
 8001406:	490c      	ldr	r1, [pc, #48]	; (8001438 <HAL_ADC_ConfigChannel+0x134>)
 8001408:	fba1 1303 	umull	r1, r3, r1, r3
 800140c:	0c9b      	lsrs	r3, r3, #18
 800140e:	eb03 0383 	add.w	r3, r3, r3, lsl #2
 8001412:	0059      	lsls	r1, r3, #1
 8001414:	9101      	str	r1, [sp, #4]
          while(wait_loop_index != 0U)
 8001416:	e002      	b.n	800141e <HAL_ADC_ConfigChannel+0x11a>
            wait_loop_index--;
 8001418:	9b01      	ldr	r3, [sp, #4]
 800141a:	3b01      	subs	r3, #1
 800141c:	9301      	str	r3, [sp, #4]
          while(wait_loop_index != 0U)
 800141e:	9b01      	ldr	r3, [sp, #4]
 8001420:	2b00      	cmp	r3, #0
 8001422:	d1f9      	bne.n	8001418 <HAL_ADC_ConfigChannel+0x114>
  HAL_StatusTypeDef tmp_hal_status = HAL_OK;
 8001424:	2000      	movs	r0, #0
 8001426:	e7a1      	b.n	800136c <HAL_ADC_ConfigChannel+0x68>
 8001428:	2000      	movs	r0, #0
 800142a:	e79f      	b.n	800136c <HAL_ADC_ConfigChannel+0x68>
  __HAL_LOCK(hadc);
 800142c:	2002      	movs	r0, #2
 800142e:	e7a0      	b.n	8001372 <HAL_ADC_ConfigChannel+0x6e>
 8001430:	40012400 	.word	0x40012400
 8001434:	20000074 	.word	0x20000074
 8001438:	431bde83 	.word	0x431bde83

0800143c <ADC_Enable>:
  *         and voltage regulator must be enabled (done into HAL_ADC_Init()).
  * @param  hadc: ADC handle
  * @retval HAL status.
  */
HAL_StatusTypeDef ADC_Enable(ADC_HandleTypeDef* hadc)
{
 800143c:	b530      	push	{r4, r5, lr}
 800143e:	b083      	sub	sp, #12
  uint32_t tickstart = 0U;
  __IO uint32_t wait_loop_index = 0U;
 8001440:	2300      	movs	r3, #0
 8001442:	9301      	str	r3, [sp, #4]
  
  /* ADC enable and wait for ADC ready (in case of ADC is disabled or         */
  /* enabling phase not yet completed: flag ADC ready not yet set).           */
  /* Timeout implemented to not be stuck if ADC cannot be enabled (possible   */
  /* causes: ADC clock not running, ...).                                     */
  if (ADC_IS_ENABLE(hadc) == RESET)
 8001444:	6803      	ldr	r3, [r0, #0]
 8001446:	689a      	ldr	r2, [r3, #8]
 8001448:	f012 0f01 	tst.w	r2, #1
 800144c:	d12e      	bne.n	80014ac <ADC_Enable+0x70>
  {
    /* Enable the Peripheral */
    __HAL_ADC_ENABLE(hadc);
 800144e:	689a      	ldr	r2, [r3, #8]
 8001450:	f042 0201 	orr.w	r2, r2, #1
 8001454:	609a      	str	r2, [r3, #8]
    
    /* Delay for ADC stabilization time */
    /* Compute number of CPU cycles to wait for */
    wait_loop_index = (ADC_STAB_DELAY_US * (SystemCoreClock / 1000000U));
 8001456:	4b17      	ldr	r3, [pc, #92]	; (80014b4 <ADC_Enable+0x78>)
 8001458:	681b      	ldr	r3, [r3, #0]
 800145a:	4a17      	ldr	r2, [pc, #92]	; (80014b8 <ADC_Enable+0x7c>)
 800145c:	fba2 2303 	umull	r2, r3, r2, r3
 8001460:	0c9b      	lsrs	r3, r3, #18
 8001462:	9301      	str	r3, [sp, #4]
    while(wait_loop_index != 0U)
 8001464:	e002      	b.n	800146c <ADC_Enable+0x30>
    {
      wait_loop_index--;
 8001466:	9b01      	ldr	r3, [sp, #4]
 8001468:	3b01      	subs	r3, #1
 800146a:	9301      	str	r3, [sp, #4]
    while(wait_loop_index != 0U)
 800146c:	9b01      	ldr	r3, [sp, #4]
 800146e:	2b00      	cmp	r3, #0
 8001470:	d1f9      	bne.n	8001466 <ADC_Enable+0x2a>
 8001472:	4604      	mov	r4, r0
    }
    
    /* Get tick count */
    tickstart = HAL_GetTick();
 8001474:	f7ff feb6 	bl	80011e4 <HAL_GetTick>
 8001478:	4605      	mov	r5, r0

    /* Wait for ADC effectively enabled */
    while(ADC_IS_ENABLE(hadc) == RESET)
 800147a:	6823      	ldr	r3, [r4, #0]
 800147c:	689b      	ldr	r3, [r3, #8]
 800147e:	f013 0f01 	tst.w	r3, #1
 8001482:	d111      	bne.n	80014a8 <ADC_Enable+0x6c>
    {
      if((HAL_GetTick() - tickstart) > ADC_ENABLE_TIMEOUT)
 8001484:	f7ff feae 	bl	80011e4 <HAL_GetTick>
 8001488:	1b40      	subs	r0, r0, r5
 800148a:	2802      	cmp	r0, #2
 800148c:	d9f5      	bls.n	800147a <ADC_Enable+0x3e>
      {
        /* Update ADC state machine to error */
        SET_BIT(hadc->State, HAL_ADC_STATE_ERROR_INTERNAL);
 800148e:	6aa3      	ldr	r3, [r4, #40]	; 0x28
 8001490:	f043 0310 	orr.w	r3, r3, #16
 8001494:	62a3      	str	r3, [r4, #40]	; 0x28
      
        /* Set ADC error code to ADC IP internal error */
        SET_BIT(hadc->ErrorCode, HAL_ADC_ERROR_INTERNAL);
 8001496:	6ae3      	ldr	r3, [r4, #44]	; 0x2c
 8001498:	f043 0301 	orr.w	r3, r3, #1
 800149c:	62e3      	str	r3, [r4, #44]	; 0x2c
        
        /* Process unlocked */
        __HAL_UNLOCK(hadc);
 800149e:	2300      	movs	r3, #0
 80014a0:	f884 3024 	strb.w	r3, [r4, #36]	; 0x24
      
        return HAL_ERROR;
 80014a4:	2001      	movs	r0, #1
 80014a6:	e002      	b.n	80014ae <ADC_Enable+0x72>
      }
    }
  }
   
  /* Return HAL status */
  return HAL_OK;
 80014a8:	2000      	movs	r0, #0
 80014aa:	e000      	b.n	80014ae <ADC_Enable+0x72>
 80014ac:	2000      	movs	r0, #0
}
 80014ae:	b003      	add	sp, #12
 80014b0:	bd30      	pop	{r4, r5, pc}
 80014b2:	bf00      	nop
 80014b4:	20000074 	.word	0x20000074
 80014b8:	431bde83 	.word	0x431bde83

080014bc <HAL_ADC_Start_IT>:
  __HAL_LOCK(hadc);
 80014bc:	f890 3024 	ldrb.w	r3, [r0, #36]	; 0x24
 80014c0:	2b01      	cmp	r3, #1
 80014c2:	d06f      	beq.n	80015a4 <HAL_ADC_Start_IT+0xe8>
{
 80014c4:	b510      	push	{r4, lr}
 80014c6:	4604      	mov	r4, r0
  __HAL_LOCK(hadc);
 80014c8:	2301      	movs	r3, #1
 80014ca:	f880 3024 	strb.w	r3, [r0, #36]	; 0x24
  tmp_hal_status = ADC_Enable(hadc);
 80014ce:	f7ff ffb5 	bl	800143c <ADC_Enable>
  if (tmp_hal_status == HAL_OK)
 80014d2:	4602      	mov	r2, r0
 80014d4:	2800      	cmp	r0, #0
 80014d6:	d160      	bne.n	800159a <HAL_ADC_Start_IT+0xde>
    ADC_STATE_CLR_SET(hadc->State,
 80014d8:	6aa3      	ldr	r3, [r4, #40]	; 0x28
 80014da:	f423 6370 	bic.w	r3, r3, #3840	; 0xf00
 80014de:	f023 0301 	bic.w	r3, r3, #1
 80014e2:	f443 7380 	orr.w	r3, r3, #256	; 0x100
 80014e6:	62a3      	str	r3, [r4, #40]	; 0x28
    if (ADC_NONMULTIMODE_OR_MULTIMODEMASTER(hadc))
 80014e8:	6823      	ldr	r3, [r4, #0]
 80014ea:	4930      	ldr	r1, [pc, #192]	; (80015ac <HAL_ADC_Start_IT+0xf0>)
 80014ec:	428b      	cmp	r3, r1
 80014ee:	d02c      	beq.n	800154a <HAL_ADC_Start_IT+0x8e>
      CLEAR_BIT(hadc->State, HAL_ADC_STATE_MULTIMODE_SLAVE);
 80014f0:	6aa1      	ldr	r1, [r4, #40]	; 0x28
 80014f2:	f421 1180 	bic.w	r1, r1, #1048576	; 0x100000
 80014f6:	62a1      	str	r1, [r4, #40]	; 0x28
      if (READ_BIT(hadc->Instance->CR1, ADC_CR1_JAUTO) != RESET)
 80014f8:	6859      	ldr	r1, [r3, #4]
 80014fa:	f411 6f80 	tst.w	r1, #1024	; 0x400
 80014fe:	d005      	beq.n	800150c <HAL_ADC_Start_IT+0x50>
        ADC_STATE_CLR_SET(hadc->State, HAL_ADC_STATE_INJ_EOC, HAL_ADC_STATE_INJ_BUSY);  
 8001500:	6aa1      	ldr	r1, [r4, #40]	; 0x28
 8001502:	f421 5140 	bic.w	r1, r1, #12288	; 0x3000
 8001506:	f441 5180 	orr.w	r1, r1, #4096	; 0x1000
 800150a:	62a1      	str	r1, [r4, #40]	; 0x28
    if (HAL_IS_BIT_SET(hadc->State, HAL_ADC_STATE_INJ_BUSY))
 800150c:	6aa1      	ldr	r1, [r4, #40]	; 0x28
 800150e:	f411 5f80 	tst.w	r1, #4096	; 0x1000
 8001512:	d030      	beq.n	8001576 <HAL_ADC_Start_IT+0xba>
      CLEAR_BIT(hadc->ErrorCode, (HAL_ADC_ERROR_OVR | HAL_ADC_ERROR_DMA));         
 8001514:	6ae1      	ldr	r1, [r4, #44]	; 0x2c
 8001516:	f021 0106 	bic.w	r1, r1, #6
 800151a:	62e1      	str	r1, [r4, #44]	; 0x2c
    __HAL_UNLOCK(hadc);
 800151c:	2100      	movs	r1, #0
 800151e:	f884 1024 	strb.w	r1, [r4, #36]	; 0x24
    __HAL_ADC_CLEAR_FLAG(hadc, ADC_FLAG_EOC);
 8001522:	f06f 0102 	mvn.w	r1, #2
 8001526:	6019      	str	r1, [r3, #0]
    __HAL_ADC_ENABLE_IT(hadc, ADC_IT_EOC);
 8001528:	6821      	ldr	r1, [r4, #0]
 800152a:	684b      	ldr	r3, [r1, #4]
 800152c:	f043 0320 	orr.w	r3, r3, #32
 8001530:	604b      	str	r3, [r1, #4]
    if (ADC_IS_SOFTWARE_START_REGULAR(hadc)      &&
 8001532:	6823      	ldr	r3, [r4, #0]
 8001534:	6899      	ldr	r1, [r3, #8]
 8001536:	f401 2160 	and.w	r1, r1, #917504	; 0xe0000
 800153a:	f5b1 2f60 	cmp.w	r1, #917504	; 0xe0000
 800153e:	d01d      	beq.n	800157c <HAL_ADC_Start_IT+0xc0>
      SET_BIT(hadc->Instance->CR2, ADC_CR2_EXTTRIG);
 8001540:	6899      	ldr	r1, [r3, #8]
 8001542:	f441 1180 	orr.w	r1, r1, #1048576	; 0x100000
 8001546:	6099      	str	r1, [r3, #8]
 8001548:	e02a      	b.n	80015a0 <HAL_ADC_Start_IT+0xe4>
    if (ADC_NONMULTIMODE_OR_MULTIMODEMASTER(hadc))
 800154a:	f5a1 6180 	sub.w	r1, r1, #1024	; 0x400
 800154e:	6849      	ldr	r1, [r1, #4]
 8001550:	f411 2f70 	tst.w	r1, #983040	; 0xf0000
 8001554:	d0cc      	beq.n	80014f0 <HAL_ADC_Start_IT+0x34>
      SET_BIT(hadc->State, HAL_ADC_STATE_MULTIMODE_SLAVE);
 8001556:	6aa1      	ldr	r1, [r4, #40]	; 0x28
 8001558:	f441 1180 	orr.w	r1, r1, #1048576	; 0x100000
 800155c:	62a1      	str	r1, [r4, #40]	; 0x28
      if (ADC_MULTIMODE_AUTO_INJECTED(hadc))
 800155e:	4914      	ldr	r1, [pc, #80]	; (80015b0 <HAL_ADC_Start_IT+0xf4>)
 8001560:	6849      	ldr	r1, [r1, #4]
 8001562:	f411 6f80 	tst.w	r1, #1024	; 0x400
 8001566:	d0d1      	beq.n	800150c <HAL_ADC_Start_IT+0x50>
        ADC_STATE_CLR_SET(hadc->State, HAL_ADC_STATE_INJ_EOC, HAL_ADC_STATE_INJ_BUSY);
 8001568:	6aa1      	ldr	r1, [r4, #40]	; 0x28
 800156a:	f421 5140 	bic.w	r1, r1, #12288	; 0x3000
 800156e:	f441 5180 	orr.w	r1, r1, #4096	; 0x1000
 8001572:	62a1      	str	r1, [r4, #40]	; 0x28
 8001574:	e7ca      	b.n	800150c <HAL_ADC_Start_IT+0x50>
      ADC_CLEAR_ERRORCODE(hadc);
 8001576:	2100      	movs	r1, #0
 8001578:	62e1      	str	r1, [r4, #44]	; 0x2c
 800157a:	e7cf      	b.n	800151c <HAL_ADC_Start_IT+0x60>
    if (ADC_IS_SOFTWARE_START_REGULAR(hadc)      &&
 800157c:	490b      	ldr	r1, [pc, #44]	; (80015ac <HAL_ADC_Start_IT+0xf0>)
 800157e:	428b      	cmp	r3, r1
 8001580:	d004      	beq.n	800158c <HAL_ADC_Start_IT+0xd0>
      SET_BIT(hadc->Instance->CR2, (ADC_CR2_SWSTART | ADC_CR2_EXTTRIG));
 8001582:	6899      	ldr	r1, [r3, #8]
 8001584:	f441 01a0 	orr.w	r1, r1, #5242880	; 0x500000
 8001588:	6099      	str	r1, [r3, #8]
 800158a:	e009      	b.n	80015a0 <HAL_ADC_Start_IT+0xe4>
        ADC_NONMULTIMODE_OR_MULTIMODEMASTER(hadc)  )
 800158c:	f5a1 6180 	sub.w	r1, r1, #1024	; 0x400
 8001590:	6849      	ldr	r1, [r1, #4]
    if (ADC_IS_SOFTWARE_START_REGULAR(hadc)      &&
 8001592:	f411 2f70 	tst.w	r1, #983040	; 0xf0000
 8001596:	d1d3      	bne.n	8001540 <HAL_ADC_Start_IT+0x84>
 8001598:	e7f3      	b.n	8001582 <HAL_ADC_Start_IT+0xc6>
    __HAL_UNLOCK(hadc);
 800159a:	2300      	movs	r3, #0
 800159c:	f884 3024 	strb.w	r3, [r4, #36]	; 0x24
}
 80015a0:	4610      	mov	r0, r2
 80015a2:	bd10      	pop	{r4, pc}
  __HAL_LOCK(hadc);
 80015a4:	2202      	movs	r2, #2
}
 80015a6:	4610      	mov	r0, r2
 80015a8:	4770      	bx	lr
 80015aa:	bf00      	nop
 80015ac:	40012800 	.word	0x40012800
 80015b0:	40012400 	.word	0x40012400

080015b4 <ADC_ConversionStop_Disable>:
  *         stopped to disable the ADC.
  * @param  hadc: ADC handle
  * @retval HAL status.
  */
HAL_StatusTypeDef ADC_ConversionStop_Disable(ADC_HandleTypeDef* hadc)
{
 80015b4:	b538      	push	{r3, r4, r5, lr}
  uint32_t tickstart = 0U;
  
  /* Verification if ADC is not already disabled */
  if (ADC_IS_ENABLE(hadc) != RESET)
 80015b6:	6803      	ldr	r3, [r0, #0]
 80015b8:	689a      	ldr	r2, [r3, #8]
 80015ba:	f012 0f01 	tst.w	r2, #1
 80015be:	d101      	bne.n	80015c4 <ADC_ConversionStop_Disable+0x10>
      }
    }
  }
  
  /* Return HAL status */
  return HAL_OK;
 80015c0:	2000      	movs	r0, #0
}
 80015c2:	bd38      	pop	{r3, r4, r5, pc}
 80015c4:	4604      	mov	r4, r0
    __HAL_ADC_DISABLE(hadc);
 80015c6:	689a      	ldr	r2, [r3, #8]
 80015c8:	f022 0201 	bic.w	r2, r2, #1
 80015cc:	609a      	str	r2, [r3, #8]
    tickstart = HAL_GetTick();
 80015ce:	f7ff fe09 	bl	80011e4 <HAL_GetTick>
 80015d2:	4605      	mov	r5, r0
    while(ADC_IS_ENABLE(hadc) != RESET)
 80015d4:	6823      	ldr	r3, [r4, #0]
 80015d6:	689b      	ldr	r3, [r3, #8]
 80015d8:	f013 0f01 	tst.w	r3, #1
 80015dc:	d00e      	beq.n	80015fc <ADC_ConversionStop_Disable+0x48>
      if((HAL_GetTick() - tickstart) > ADC_DISABLE_TIMEOUT)
 80015de:	f7ff fe01 	bl	80011e4 <HAL_GetTick>
 80015e2:	1b40      	subs	r0, r0, r5
 80015e4:	2802      	cmp	r0, #2
 80015e6:	d9f5      	bls.n	80015d4 <ADC_ConversionStop_Disable+0x20>
        SET_BIT(hadc->State, HAL_ADC_STATE_ERROR_INTERNAL);
 80015e8:	6aa3      	ldr	r3, [r4, #40]	; 0x28
 80015ea:	f043 0310 	orr.w	r3, r3, #16
 80015ee:	62a3      	str	r3, [r4, #40]	; 0x28
        SET_BIT(hadc->ErrorCode, HAL_ADC_ERROR_INTERNAL);
 80015f0:	6ae3      	ldr	r3, [r4, #44]	; 0x2c
 80015f2:	f043 0301 	orr.w	r3, r3, #1
 80015f6:	62e3      	str	r3, [r4, #44]	; 0x2c
        return HAL_ERROR;
 80015f8:	2001      	movs	r0, #1
 80015fa:	e7e2      	b.n	80015c2 <ADC_ConversionStop_Disable+0xe>
  return HAL_OK;
 80015fc:	2000      	movs	r0, #0
 80015fe:	e7e0      	b.n	80015c2 <ADC_ConversionStop_Disable+0xe>

08001600 <HAL_ADC_Init>:
  if(hadc == NULL)
 8001600:	2800      	cmp	r0, #0
 8001602:	d07f      	beq.n	8001704 <HAL_ADC_Init+0x104>
{
 8001604:	b538      	push	{r3, r4, r5, lr}
 8001606:	4604      	mov	r4, r0
  if (hadc->State == HAL_ADC_STATE_RESET)
 8001608:	6a83      	ldr	r3, [r0, #40]	; 0x28
 800160a:	2b00      	cmp	r3, #0
 800160c:	d033      	beq.n	8001676 <HAL_ADC_Init+0x76>
  tmp_hal_status = ADC_ConversionStop_Disable(hadc);
 800160e:	4620      	mov	r0, r4
 8001610:	f7ff ffd0 	bl	80015b4 <ADC_ConversionStop_Disable>
  if (HAL_IS_BIT_CLR(hadc->State, HAL_ADC_STATE_ERROR_INTERNAL) &&
 8001614:	6aa3      	ldr	r3, [r4, #40]	; 0x28
 8001616:	f013 0310 	ands.w	r3, r3, #16
 800161a:	d16d      	bne.n	80016f8 <HAL_ADC_Init+0xf8>
 800161c:	2800      	cmp	r0, #0
 800161e:	d16b      	bne.n	80016f8 <HAL_ADC_Init+0xf8>
    ADC_STATE_CLR_SET(hadc->State,
 8001620:	6aa2      	ldr	r2, [r4, #40]	; 0x28
 8001622:	f422 5288 	bic.w	r2, r2, #4352	; 0x1100
 8001626:	f022 0202 	bic.w	r2, r2, #2
 800162a:	f042 0202 	orr.w	r2, r2, #2
 800162e:	62a2      	str	r2, [r4, #40]	; 0x28
    tmp_cr2 |= (hadc->Init.DataAlign                                          |
 8001630:	6862      	ldr	r2, [r4, #4]
                ADC_CFGR_EXTSEL(hadc, hadc->Init.ExternalTrigConv)            |
 8001632:	69e1      	ldr	r1, [r4, #28]
    tmp_cr2 |= (hadc->Init.DataAlign                                          |
 8001634:	430a      	orrs	r2, r1
                ADC_CR2_CONTINUOUS((uint32_t)hadc->Init.ContinuousConvMode)   );
 8001636:	7b25      	ldrb	r5, [r4, #12]
                ADC_CFGR_EXTSEL(hadc, hadc->Init.ExternalTrigConv)            |
 8001638:	ea42 0245 	orr.w	r2, r2, r5, lsl #1
    tmp_cr1 |= (ADC_CR1_SCAN_SET(hadc->Init.ScanConvMode));
 800163c:	68a1      	ldr	r1, [r4, #8]
 800163e:	f5b1 7f80 	cmp.w	r1, #256	; 0x100
 8001642:	d021      	beq.n	8001688 <HAL_ADC_Init+0x88>
 8001644:	2901      	cmp	r1, #1
 8001646:	d01c      	beq.n	8001682 <HAL_ADC_Init+0x82>
    if (hadc->Init.DiscontinuousConvMode == ENABLE)
 8001648:	7d21      	ldrb	r1, [r4, #20]
 800164a:	2901      	cmp	r1, #1
 800164c:	d01f      	beq.n	800168e <HAL_ADC_Init+0x8e>
      MODIFY_REG(hadc->Instance->CR1,
 800164e:	6825      	ldr	r5, [r4, #0]
 8001650:	6869      	ldr	r1, [r5, #4]
 8001652:	f421 4169 	bic.w	r1, r1, #59648	; 0xe900
 8001656:	430b      	orrs	r3, r1
 8001658:	606b      	str	r3, [r5, #4]
      MODIFY_REG(hadc->Instance->CR2,
 800165a:	6821      	ldr	r1, [r4, #0]
 800165c:	688d      	ldr	r5, [r1, #8]
 800165e:	4b2a      	ldr	r3, [pc, #168]	; (8001708 <HAL_ADC_Init+0x108>)
 8001660:	402b      	ands	r3, r5
 8001662:	4313      	orrs	r3, r2
 8001664:	608b      	str	r3, [r1, #8]
    if (ADC_CR1_SCAN_SET(hadc->Init.ScanConvMode) == ADC_SCAN_ENABLE)
 8001666:	68a3      	ldr	r3, [r4, #8]
 8001668:	f5b3 7f80 	cmp.w	r3, #256	; 0x100
 800166c:	d020      	beq.n	80016b0 <HAL_ADC_Init+0xb0>
 800166e:	2b01      	cmp	r3, #1
 8001670:	d01e      	beq.n	80016b0 <HAL_ADC_Init+0xb0>
  uint32_t tmp_sqr1 = 0U;
 8001672:	2100      	movs	r1, #0
 8001674:	e01f      	b.n	80016b6 <HAL_ADC_Init+0xb6>
    ADC_CLEAR_ERRORCODE(hadc);
 8001676:	62c3      	str	r3, [r0, #44]	; 0x2c
    hadc->Lock = HAL_UNLOCKED;
 8001678:	f880 3024 	strb.w	r3, [r0, #36]	; 0x24
    HAL_ADC_MspInit(hadc);
 800167c:	f005 ff94 	bl	80075a8 <HAL_ADC_MspInit>
 8001680:	e7c5      	b.n	800160e <HAL_ADC_Init+0xe>
    tmp_cr1 |= (ADC_CR1_SCAN_SET(hadc->Init.ScanConvMode));
 8001682:	f44f 7380 	mov.w	r3, #256	; 0x100
 8001686:	e7df      	b.n	8001648 <HAL_ADC_Init+0x48>
 8001688:	f44f 7380 	mov.w	r3, #256	; 0x100
 800168c:	e7dc      	b.n	8001648 <HAL_ADC_Init+0x48>
      if (hadc->Init.ContinuousConvMode == DISABLE)
 800168e:	b935      	cbnz	r5, 800169e <HAL_ADC_Init+0x9e>
        SET_BIT(tmp_cr1, ADC_CR1_DISCEN                                            |
 8001690:	69a1      	ldr	r1, [r4, #24]
 8001692:	3901      	subs	r1, #1
 8001694:	ea43 3341 	orr.w	r3, r3, r1, lsl #13
 8001698:	f443 6300 	orr.w	r3, r3, #2048	; 0x800
 800169c:	e7d7      	b.n	800164e <HAL_ADC_Init+0x4e>
        SET_BIT(hadc->State, HAL_ADC_STATE_ERROR_CONFIG);
 800169e:	6aa1      	ldr	r1, [r4, #40]	; 0x28
 80016a0:	f041 0120 	orr.w	r1, r1, #32
 80016a4:	62a1      	str	r1, [r4, #40]	; 0x28
        SET_BIT(hadc->ErrorCode, HAL_ADC_ERROR_INTERNAL);
 80016a6:	6ae1      	ldr	r1, [r4, #44]	; 0x2c
 80016a8:	f041 0101 	orr.w	r1, r1, #1
 80016ac:	62e1      	str	r1, [r4, #44]	; 0x2c
 80016ae:	e7ce      	b.n	800164e <HAL_ADC_Init+0x4e>
      tmp_sqr1 = ADC_SQR1_L_SHIFT(hadc->Init.NbrOfConversion);
 80016b0:	6923      	ldr	r3, [r4, #16]
 80016b2:	3b01      	subs	r3, #1
 80016b4:	0519      	lsls	r1, r3, #20
    MODIFY_REG(hadc->Instance->SQR1,
 80016b6:	6825      	ldr	r5, [r4, #0]
 80016b8:	6aeb      	ldr	r3, [r5, #44]	; 0x2c
 80016ba:	f423 0370 	bic.w	r3, r3, #15728640	; 0xf00000
 80016be:	430b      	orrs	r3, r1
 80016c0:	62eb      	str	r3, [r5, #44]	; 0x2c
    if (READ_BIT(hadc->Instance->CR2, ~(ADC_CR2_ADON | ADC_CR2_DMA |
 80016c2:	6823      	ldr	r3, [r4, #0]
 80016c4:	6899      	ldr	r1, [r3, #8]
 80016c6:	4b11      	ldr	r3, [pc, #68]	; (800170c <HAL_ADC_Init+0x10c>)
 80016c8:	400b      	ands	r3, r1
 80016ca:	429a      	cmp	r2, r3
 80016cc:	d00b      	beq.n	80016e6 <HAL_ADC_Init+0xe6>
      ADC_STATE_CLR_SET(hadc->State,
 80016ce:	6aa3      	ldr	r3, [r4, #40]	; 0x28
 80016d0:	f023 0312 	bic.w	r3, r3, #18
 80016d4:	f043 0310 	orr.w	r3, r3, #16
 80016d8:	62a3      	str	r3, [r4, #40]	; 0x28
      SET_BIT(hadc->ErrorCode, HAL_ADC_ERROR_INTERNAL);
 80016da:	6ae3      	ldr	r3, [r4, #44]	; 0x2c
 80016dc:	f043 0301 	orr.w	r3, r3, #1
 80016e0:	62e3      	str	r3, [r4, #44]	; 0x2c
      tmp_hal_status = HAL_ERROR;
 80016e2:	2001      	movs	r0, #1
 80016e4:	e00d      	b.n	8001702 <HAL_ADC_Init+0x102>
      ADC_CLEAR_ERRORCODE(hadc);
 80016e6:	2300      	movs	r3, #0
 80016e8:	62e3      	str	r3, [r4, #44]	; 0x2c
      ADC_STATE_CLR_SET(hadc->State,
 80016ea:	6aa3      	ldr	r3, [r4, #40]	; 0x28
 80016ec:	f023 0303 	bic.w	r3, r3, #3
 80016f0:	f043 0301 	orr.w	r3, r3, #1
 80016f4:	62a3      	str	r3, [r4, #40]	; 0x28
 80016f6:	e004      	b.n	8001702 <HAL_ADC_Init+0x102>
    SET_BIT(hadc->State, HAL_ADC_STATE_ERROR_INTERNAL);
 80016f8:	6aa3      	ldr	r3, [r4, #40]	; 0x28
 80016fa:	f043 0310 	orr.w	r3, r3, #16
 80016fe:	62a3      	str	r3, [r4, #40]	; 0x28
    tmp_hal_status = HAL_ERROR;
 8001700:	2001      	movs	r0, #1
}
 8001702:	bd38      	pop	{r3, r4, r5, pc}
    return HAL_ERROR;
 8001704:	2001      	movs	r0, #1
}
 8001706:	4770      	bx	lr
 8001708:	ffe1f7fd 	.word	0xffe1f7fd
 800170c:	ff1f0efe 	.word	0xff1f0efe

08001710 <HAL_ADCEx_InjectedConvCpltCallback>:
  /* Prevent unused argument(s) compilation warning */
  UNUSED(hadc);
  /* NOTE : This function Should not be modified, when the callback is needed,
            the HAL_ADCEx_InjectedConvCpltCallback could be implemented in the user file
  */
}
 8001710:	4770      	bx	lr
	...

08001714 <HAL_NVIC_SetPriorityGrouping>:
__STATIC_INLINE void __NVIC_SetPriorityGrouping(uint32_t PriorityGroup)
{
  uint32_t reg_value;
  uint32_t PriorityGroupTmp = (PriorityGroup & (uint32_t)0x07UL);             /* only values 0..7 are used          */

  reg_value  =  SCB->AIRCR;                                                   /* read old register configuration    */
 8001714:	4a07      	ldr	r2, [pc, #28]	; (8001734 <HAL_NVIC_SetPriorityGrouping+0x20>)
 8001716:	68d3      	ldr	r3, [r2, #12]
  reg_value &= ~((uint32_t)(SCB_AIRCR_VECTKEY_Msk | SCB_AIRCR_PRIGROUP_Msk)); /* clear bits to change               */
 8001718:	f423 63e0 	bic.w	r3, r3, #1792	; 0x700
 800171c:	041b      	lsls	r3, r3, #16
 800171e:	0c1b      	lsrs	r3, r3, #16
  reg_value  =  (reg_value                                   |
                ((uint32_t)0x5FAUL << SCB_AIRCR_VECTKEY_Pos) |
                (PriorityGroupTmp << SCB_AIRCR_PRIGROUP_Pos) );               /* Insert write key and priority group */
 8001720:	0200      	lsls	r0, r0, #8
 8001722:	f400 60e0 	and.w	r0, r0, #1792	; 0x700
                ((uint32_t)0x5FAUL << SCB_AIRCR_VECTKEY_Pos) |
 8001726:	4318      	orrs	r0, r3
  reg_value  =  (reg_value                                   |
 8001728:	f040 60bf 	orr.w	r0, r0, #100139008	; 0x5f80000
 800172c:	f440 3000 	orr.w	r0, r0, #131072	; 0x20000
  SCB->AIRCR =  reg_value;
 8001730:	60d0      	str	r0, [r2, #12]
  /* Check the parameters */
  assert_param(IS_NVIC_PRIORITY_GROUP(PriorityGroup));
  
  /* Set the PRIGROUP[10:8] bits according to the PriorityGroup parameter value */
  NVIC_SetPriorityGrouping(PriorityGroup);
}
 8001732:	4770      	bx	lr
 8001734:	e000ed00 	.word	0xe000ed00

08001738 <HAL_NVIC_SetPriority>:
  *         This parameter can be a value between 0 and 15
  *         A lower priority value indicates a higher priority.          
  * @retval None
  */
void HAL_NVIC_SetPriority(IRQn_Type IRQn, uint32_t PreemptPriority, uint32_t SubPriority)
{ 
 8001738:	b430      	push	{r4, r5}
  \details Reads the priority grouping field from the NVIC Interrupt Controller.
  \return                Priority grouping field (SCB->AIRCR [10:8] PRIGROUP field).
 */
__STATIC_INLINE uint32_t __NVIC_GetPriorityGrouping(void)
{
  return ((uint32_t)((SCB->AIRCR & SCB_AIRCR_PRIGROUP_Msk) >> SCB_AIRCR_PRIGROUP_Pos));
 800173a:	4b17      	ldr	r3, [pc, #92]	; (8001798 <HAL_NVIC_SetPriority+0x60>)
 800173c:	68db      	ldr	r3, [r3, #12]
 800173e:	f3c3 2302 	ubfx	r3, r3, #8, #3
{
  uint32_t PriorityGroupTmp = (PriorityGroup & (uint32_t)0x07UL);   /* only values 0..7 are used          */
  uint32_t PreemptPriorityBits;
  uint32_t SubPriorityBits;

  PreemptPriorityBits = ((7UL - PriorityGroupTmp) > (uint32_t)(__NVIC_PRIO_BITS)) ? (uint32_t)(__NVIC_PRIO_BITS) : (uint32_t)(7UL - PriorityGroupTmp);
 8001742:	f1c3 0407 	rsb	r4, r3, #7
 8001746:	2c04      	cmp	r4, #4
 8001748:	bf28      	it	cs
 800174a:	2404      	movcs	r4, #4
  SubPriorityBits     = ((PriorityGroupTmp + (uint32_t)(__NVIC_PRIO_BITS)) < (uint32_t)7UL) ? (uint32_t)0UL : (uint32_t)((PriorityGroupTmp - 7UL) + (uint32_t)(__NVIC_PRIO_BITS));
 800174c:	1d1d      	adds	r5, r3, #4
 800174e:	2d06      	cmp	r5, #6
 8001750:	d918      	bls.n	8001784 <HAL_NVIC_SetPriority+0x4c>
 8001752:	3b03      	subs	r3, #3

  return (
           ((PreemptPriority & (uint32_t)((1UL << (PreemptPriorityBits)) - 1UL)) << SubPriorityBits) |
 8001754:	f04f 35ff 	mov.w	r5, #4294967295
 8001758:	fa05 f404 	lsl.w	r4, r5, r4
 800175c:	ea21 0104 	bic.w	r1, r1, r4
 8001760:	4099      	lsls	r1, r3
           ((SubPriority     & (uint32_t)((1UL << (SubPriorityBits    )) - 1UL)))
 8001762:	fa05 f303 	lsl.w	r3, r5, r3
 8001766:	ea22 0303 	bic.w	r3, r2, r3
           ((PreemptPriority & (uint32_t)((1UL << (PreemptPriorityBits)) - 1UL)) << SubPriorityBits) |
 800176a:	4319      	orrs	r1, r3
  if ((int32_t)(IRQn) >= 0)
 800176c:	2800      	cmp	r0, #0
 800176e:	db0b      	blt.n	8001788 <HAL_NVIC_SetPriority+0x50>
    NVIC->IP[((uint32_t)IRQn)]               = (uint8_t)((priority << (8U - __NVIC_PRIO_BITS)) & (uint32_t)0xFFUL);
 8001770:	0109      	lsls	r1, r1, #4
 8001772:	b2c9      	uxtb	r1, r1
 8001774:	f100 4060 	add.w	r0, r0, #3758096384	; 0xe0000000
 8001778:	f500 4061 	add.w	r0, r0, #57600	; 0xe100
 800177c:	f880 1300 	strb.w	r1, [r0, #768]	; 0x300
  assert_param(IS_NVIC_PREEMPTION_PRIORITY(PreemptPriority));
  
  prioritygroup = NVIC_GetPriorityGrouping();
  
  NVIC_SetPriority(IRQn, NVIC_EncodePriority(prioritygroup, PreemptPriority, SubPriority));
}
 8001780:	bc30      	pop	{r4, r5}
 8001782:	4770      	bx	lr
  SubPriorityBits     = ((PriorityGroupTmp + (uint32_t)(__NVIC_PRIO_BITS)) < (uint32_t)7UL) ? (uint32_t)0UL : (uint32_t)((PriorityGroupTmp - 7UL) + (uint32_t)(__NVIC_PRIO_BITS));
 8001784:	2300      	movs	r3, #0
 8001786:	e7e5      	b.n	8001754 <HAL_NVIC_SetPriority+0x1c>
    SCB->SHP[(((uint32_t)IRQn) & 0xFUL)-4UL] = (uint8_t)((priority << (8U - __NVIC_PRIO_BITS)) & (uint32_t)0xFFUL);
 8001788:	f000 000f 	and.w	r0, r0, #15
 800178c:	0109      	lsls	r1, r1, #4
 800178e:	b2c9      	uxtb	r1, r1
 8001790:	4b02      	ldr	r3, [pc, #8]	; (800179c <HAL_NVIC_SetPriority+0x64>)
 8001792:	5419      	strb	r1, [r3, r0]
 8001794:	e7f4      	b.n	8001780 <HAL_NVIC_SetPriority+0x48>
 8001796:	bf00      	nop
 8001798:	e000ed00 	.word	0xe000ed00
 800179c:	e000ed14 	.word	0xe000ed14

080017a0 <HAL_NVIC_EnableIRQ>:
  if ((int32_t)(IRQn) >= 0)
 80017a0:	2800      	cmp	r0, #0
 80017a2:	db07      	blt.n	80017b4 <HAL_NVIC_EnableIRQ+0x14>
    NVIC->ISER[(((uint32_t)IRQn) >> 5UL)] = (uint32_t)(1UL << (((uint32_t)IRQn) & 0x1FUL));
 80017a4:	f000 021f 	and.w	r2, r0, #31
 80017a8:	0940      	lsrs	r0, r0, #5
 80017aa:	2301      	movs	r3, #1
 80017ac:	4093      	lsls	r3, r2
 80017ae:	4a02      	ldr	r2, [pc, #8]	; (80017b8 <HAL_NVIC_EnableIRQ+0x18>)
 80017b0:	f842 3020 	str.w	r3, [r2, r0, lsl #2]
  /* Check the parameters */
  assert_param(IS_NVIC_DEVICE_IRQ(IRQn));

  /* Enable interrupt */
  NVIC_EnableIRQ(IRQn);
}
 80017b4:	4770      	bx	lr
 80017b6:	bf00      	nop
 80017b8:	e000e100 	.word	0xe000e100

080017bc <HAL_SYSTICK_Config>:
           function <b>SysTick_Config</b> is not included. In this case, the file <b><i>device</i>.h</b>
           must contain a vendor-specific implementation of this function.
 */
__STATIC_INLINE uint32_t SysTick_Config(uint32_t ticks)
{
  if ((ticks - 1UL) > SysTick_LOAD_RELOAD_Msk)
 80017bc:	3801      	subs	r0, #1
 80017be:	f1b0 7f80 	cmp.w	r0, #16777216	; 0x1000000
 80017c2:	d20a      	bcs.n	80017da <HAL_SYSTICK_Config+0x1e>
  {
    return (1UL);                                                   /* Reload value impossible */
  }

  SysTick->LOAD  = (uint32_t)(ticks - 1UL);                         /* set reload register */
 80017c4:	4b06      	ldr	r3, [pc, #24]	; (80017e0 <HAL_SYSTICK_Config+0x24>)
 80017c6:	6058      	str	r0, [r3, #4]
    SCB->SHP[(((uint32_t)IRQn) & 0xFUL)-4UL] = (uint8_t)((priority << (8U - __NVIC_PRIO_BITS)) & (uint32_t)0xFFUL);
 80017c8:	4a06      	ldr	r2, [pc, #24]	; (80017e4 <HAL_SYSTICK_Config+0x28>)
 80017ca:	21f0      	movs	r1, #240	; 0xf0
 80017cc:	f882 1023 	strb.w	r1, [r2, #35]	; 0x23
  NVIC_SetPriority (SysTick_IRQn, (1UL << __NVIC_PRIO_BITS) - 1UL); /* set Priority for Systick Interrupt */
  SysTick->VAL   = 0UL;                                             /* Load the SysTick Counter Value */
 80017d0:	2000      	movs	r0, #0
 80017d2:	6098      	str	r0, [r3, #8]
  SysTick->CTRL  = SysTick_CTRL_CLKSOURCE_Msk |
 80017d4:	2207      	movs	r2, #7
 80017d6:	601a      	str	r2, [r3, #0]
 80017d8:	4770      	bx	lr
    return (1UL);                                                   /* Reload value impossible */
 80017da:	2001      	movs	r0, #1
  *                  - 1  Function failed.
  */
uint32_t HAL_SYSTICK_Config(uint32_t TicksNumb)
{
   return SysTick_Config(TicksNumb);
}
 80017dc:	4770      	bx	lr
 80017de:	bf00      	nop
 80017e0:	e000e010 	.word	0xe000e010
 80017e4:	e000ed00 	.word	0xe000ed00

080017e8 <DMA_SetConfig>:
  * @param  DstAddress: The destination memory Buffer address
  * @param  DataLength: The length of data to be transferred from source to destination
  * @retval HAL status
  */
static void DMA_SetConfig(DMA_HandleTypeDef *hdma, uint32_t SrcAddress, uint32_t DstAddress, uint32_t DataLength)
{
 80017e8:	b470      	push	{r4, r5, r6}
  /* Clear all flags */
  hdma->DmaBaseAddress->IFCR = (DMA_ISR_GIF1 << hdma->ChannelIndex);
 80017ea:	6c06      	ldr	r6, [r0, #64]	; 0x40
 80017ec:	6bc5      	ldr	r5, [r0, #60]	; 0x3c
 80017ee:	2401      	movs	r4, #1
 80017f0:	40b4      	lsls	r4, r6
 80017f2:	606c      	str	r4, [r5, #4]

  /* Configure DMA Channel data length */
  hdma->Instance->CNDTR = DataLength;
 80017f4:	6804      	ldr	r4, [r0, #0]
 80017f6:	6063      	str	r3, [r4, #4]

  /* Memory to Peripheral */
  if((hdma->Init.Direction) == DMA_MEMORY_TO_PERIPH)
 80017f8:	6843      	ldr	r3, [r0, #4]
 80017fa:	2b10      	cmp	r3, #16
 80017fc:	d005      	beq.n	800180a <DMA_SetConfig+0x22>
  }
  /* Peripheral to Memory */
  else
  {
    /* Configure DMA Channel source address */
    hdma->Instance->CPAR = SrcAddress;
 80017fe:	6803      	ldr	r3, [r0, #0]
 8001800:	6099      	str	r1, [r3, #8]

    /* Configure DMA Channel destination address */
    hdma->Instance->CMAR = DstAddress;
 8001802:	6803      	ldr	r3, [r0, #0]
 8001804:	60da      	str	r2, [r3, #12]
  }
}
 8001806:	bc70      	pop	{r4, r5, r6}
 8001808:	4770      	bx	lr
    hdma->Instance->CPAR = DstAddress;
 800180a:	6803      	ldr	r3, [r0, #0]
 800180c:	609a      	str	r2, [r3, #8]
    hdma->Instance->CMAR = SrcAddress;
 800180e:	6803      	ldr	r3, [r0, #0]
 8001810:	60d9      	str	r1, [r3, #12]
 8001812:	e7f8      	b.n	8001806 <DMA_SetConfig+0x1e>

08001814 <HAL_DMA_Init>:
  if(hdma == NULL)
 8001814:	b360      	cbz	r0, 8001870 <HAL_DMA_Init+0x5c>
{
 8001816:	b410      	push	{r4}
 8001818:	4602      	mov	r2, r0
  hdma->ChannelIndex = (((uint32_t)hdma->Instance - (uint32_t)DMA1_Channel1) / ((uint32_t)DMA1_Channel2 - (uint32_t)DMA1_Channel1)) << 2;
 800181a:	6801      	ldr	r1, [r0, #0]
 800181c:	4b15      	ldr	r3, [pc, #84]	; (8001874 <HAL_DMA_Init+0x60>)
 800181e:	440b      	add	r3, r1
 8001820:	4815      	ldr	r0, [pc, #84]	; (8001878 <HAL_DMA_Init+0x64>)
 8001822:	fba0 0303 	umull	r0, r3, r0, r3
 8001826:	091b      	lsrs	r3, r3, #4
 8001828:	009b      	lsls	r3, r3, #2
 800182a:	6413      	str	r3, [r2, #64]	; 0x40
  hdma->DmaBaseAddress = DMA1;
 800182c:	4b13      	ldr	r3, [pc, #76]	; (800187c <HAL_DMA_Init+0x68>)
 800182e:	63d3      	str	r3, [r2, #60]	; 0x3c
  hdma->State = HAL_DMA_STATE_BUSY;
 8001830:	2302      	movs	r3, #2
 8001832:	f882 3021 	strb.w	r3, [r2, #33]	; 0x21
  tmp = hdma->Instance->CCR;
 8001836:	6808      	ldr	r0, [r1, #0]
  tmp &= ((uint32_t)~(DMA_CCR_PL    | DMA_CCR_MSIZE  | DMA_CCR_PSIZE  | \
 8001838:	f420 507f 	bic.w	r0, r0, #16320	; 0x3fc0
 800183c:	f020 0030 	bic.w	r0, r0, #48	; 0x30
  tmp |=  hdma->Init.Direction        |
 8001840:	6853      	ldr	r3, [r2, #4]
          hdma->Init.PeriphInc           | hdma->Init.MemInc           |
 8001842:	6894      	ldr	r4, [r2, #8]
  tmp |=  hdma->Init.Direction        |
 8001844:	4323      	orrs	r3, r4
          hdma->Init.PeriphInc           | hdma->Init.MemInc           |
 8001846:	68d4      	ldr	r4, [r2, #12]
 8001848:	4323      	orrs	r3, r4
          hdma->Init.PeriphDataAlignment | hdma->Init.MemDataAlignment |
 800184a:	6914      	ldr	r4, [r2, #16]
          hdma->Init.PeriphInc           | hdma->Init.MemInc           |
 800184c:	4323      	orrs	r3, r4
          hdma->Init.PeriphDataAlignment | hdma->Init.MemDataAlignment |
 800184e:	6954      	ldr	r4, [r2, #20]
 8001850:	4323      	orrs	r3, r4
          hdma->Init.Mode                | hdma->Init.Priority;
 8001852:	6994      	ldr	r4, [r2, #24]
          hdma->Init.PeriphDataAlignment | hdma->Init.MemDataAlignment |
 8001854:	4323      	orrs	r3, r4
          hdma->Init.Mode                | hdma->Init.Priority;
 8001856:	69d4      	ldr	r4, [r2, #28]
 8001858:	4323      	orrs	r3, r4
  tmp |=  hdma->Init.Direction        |
 800185a:	4303      	orrs	r3, r0
  hdma->Instance->CCR = tmp;
 800185c:	600b      	str	r3, [r1, #0]
  hdma->ErrorCode = HAL_DMA_ERROR_NONE;
 800185e:	2000      	movs	r0, #0
 8001860:	6390      	str	r0, [r2, #56]	; 0x38
  hdma->State = HAL_DMA_STATE_READY;
 8001862:	2301      	movs	r3, #1
 8001864:	f882 3021 	strb.w	r3, [r2, #33]	; 0x21
  hdma->Lock = HAL_UNLOCKED;
 8001868:	f882 0020 	strb.w	r0, [r2, #32]
}
 800186c:	bc10      	pop	{r4}
 800186e:	4770      	bx	lr
    return HAL_ERROR;
 8001870:	2001      	movs	r0, #1
}
 8001872:	4770      	bx	lr
 8001874:	bffdfff8 	.word	0xbffdfff8
 8001878:	cccccccd 	.word	0xcccccccd
 800187c:	40020000 	.word	0x40020000

08001880 <HAL_DMA_Start_IT>:
{
 8001880:	b538      	push	{r3, r4, r5, lr}
  __HAL_LOCK(hdma);
 8001882:	f890 4020 	ldrb.w	r4, [r0, #32]
 8001886:	2c01      	cmp	r4, #1
 8001888:	d032      	beq.n	80018f0 <HAL_DMA_Start_IT+0x70>
 800188a:	2401      	movs	r4, #1
 800188c:	f880 4020 	strb.w	r4, [r0, #32]
  if(HAL_DMA_STATE_READY == hdma->State)
 8001890:	f890 4021 	ldrb.w	r4, [r0, #33]	; 0x21
 8001894:	2c01      	cmp	r4, #1
 8001896:	d004      	beq.n	80018a2 <HAL_DMA_Start_IT+0x22>
    __HAL_UNLOCK(hdma); 
 8001898:	2300      	movs	r3, #0
 800189a:	f880 3020 	strb.w	r3, [r0, #32]
    status = HAL_BUSY;
 800189e:	2002      	movs	r0, #2
}
 80018a0:	bd38      	pop	{r3, r4, r5, pc}
 80018a2:	4604      	mov	r4, r0
    hdma->State = HAL_DMA_STATE_BUSY;
 80018a4:	2002      	movs	r0, #2
 80018a6:	f884 0021 	strb.w	r0, [r4, #33]	; 0x21
    hdma->ErrorCode = HAL_DMA_ERROR_NONE;
 80018aa:	2000      	movs	r0, #0
 80018ac:	63a0      	str	r0, [r4, #56]	; 0x38
    __HAL_DMA_DISABLE(hdma);
 80018ae:	6825      	ldr	r5, [r4, #0]
 80018b0:	6828      	ldr	r0, [r5, #0]
 80018b2:	f020 0001 	bic.w	r0, r0, #1
 80018b6:	6028      	str	r0, [r5, #0]
    DMA_SetConfig(hdma, SrcAddress, DstAddress, DataLength);
 80018b8:	4620      	mov	r0, r4
 80018ba:	f7ff ff95 	bl	80017e8 <DMA_SetConfig>
    if(NULL != hdma->XferHalfCpltCallback)
 80018be:	6ae3      	ldr	r3, [r4, #44]	; 0x2c
 80018c0:	b15b      	cbz	r3, 80018da <HAL_DMA_Start_IT+0x5a>
      __HAL_DMA_ENABLE_IT(hdma, (DMA_IT_TC | DMA_IT_HT | DMA_IT_TE));
 80018c2:	6822      	ldr	r2, [r4, #0]
 80018c4:	6813      	ldr	r3, [r2, #0]
 80018c6:	f043 030e 	orr.w	r3, r3, #14
 80018ca:	6013      	str	r3, [r2, #0]
    __HAL_DMA_ENABLE(hdma);
 80018cc:	6822      	ldr	r2, [r4, #0]
 80018ce:	6813      	ldr	r3, [r2, #0]
 80018d0:	f043 0301 	orr.w	r3, r3, #1
 80018d4:	6013      	str	r3, [r2, #0]
  HAL_StatusTypeDef status = HAL_OK;
 80018d6:	2000      	movs	r0, #0
 80018d8:	e7e2      	b.n	80018a0 <HAL_DMA_Start_IT+0x20>
      __HAL_DMA_DISABLE_IT(hdma, DMA_IT_HT);
 80018da:	6822      	ldr	r2, [r4, #0]
 80018dc:	6813      	ldr	r3, [r2, #0]
 80018de:	f023 0304 	bic.w	r3, r3, #4
 80018e2:	6013      	str	r3, [r2, #0]
      __HAL_DMA_ENABLE_IT(hdma, (DMA_IT_TC | DMA_IT_TE));
 80018e4:	6822      	ldr	r2, [r4, #0]
 80018e6:	6813      	ldr	r3, [r2, #0]
 80018e8:	f043 030a 	orr.w	r3, r3, #10
 80018ec:	6013      	str	r3, [r2, #0]
 80018ee:	e7ed      	b.n	80018cc <HAL_DMA_Start_IT+0x4c>
  __HAL_LOCK(hdma);
 80018f0:	2002      	movs	r0, #2
 80018f2:	e7d5      	b.n	80018a0 <HAL_DMA_Start_IT+0x20>

080018f4 <HAL_DMA_Abort_IT>:
{  
 80018f4:	b508      	push	{r3, lr}
  if(HAL_DMA_STATE_BUSY != hdma->State)
 80018f6:	f890 3021 	ldrb.w	r3, [r0, #33]	; 0x21
 80018fa:	2b02      	cmp	r3, #2
 80018fc:	d003      	beq.n	8001906 <HAL_DMA_Abort_IT+0x12>
    hdma->ErrorCode = HAL_DMA_ERROR_NO_XFER;
 80018fe:	2304      	movs	r3, #4
 8001900:	6383      	str	r3, [r0, #56]	; 0x38
    status = HAL_ERROR;
 8001902:	2001      	movs	r0, #1
}
 8001904:	bd08      	pop	{r3, pc}
    __HAL_DMA_DISABLE_IT(hdma, (DMA_IT_TC | DMA_IT_HT | DMA_IT_TE));
 8001906:	6802      	ldr	r2, [r0, #0]
 8001908:	6813      	ldr	r3, [r2, #0]
 800190a:	f023 030e 	bic.w	r3, r3, #14
 800190e:	6013      	str	r3, [r2, #0]
    __HAL_DMA_DISABLE(hdma);
 8001910:	6802      	ldr	r2, [r0, #0]
 8001912:	6813      	ldr	r3, [r2, #0]
 8001914:	f023 0301 	bic.w	r3, r3, #1
 8001918:	6013      	str	r3, [r2, #0]
    __HAL_DMA_CLEAR_FLAG(hdma, __HAL_DMA_GET_GI_FLAG_INDEX(hdma));
 800191a:	6803      	ldr	r3, [r0, #0]
 800191c:	4a19      	ldr	r2, [pc, #100]	; (8001984 <HAL_DMA_Abort_IT+0x90>)
 800191e:	4293      	cmp	r3, r2
 8001920:	d014      	beq.n	800194c <HAL_DMA_Abort_IT+0x58>
 8001922:	3214      	adds	r2, #20
 8001924:	4293      	cmp	r3, r2
 8001926:	d01f      	beq.n	8001968 <HAL_DMA_Abort_IT+0x74>
 8001928:	3214      	adds	r2, #20
 800192a:	4293      	cmp	r3, r2
 800192c:	d01e      	beq.n	800196c <HAL_DMA_Abort_IT+0x78>
 800192e:	3214      	adds	r2, #20
 8001930:	4293      	cmp	r3, r2
 8001932:	d01e      	beq.n	8001972 <HAL_DMA_Abort_IT+0x7e>
 8001934:	3214      	adds	r2, #20
 8001936:	4293      	cmp	r3, r2
 8001938:	d01e      	beq.n	8001978 <HAL_DMA_Abort_IT+0x84>
 800193a:	3214      	adds	r2, #20
 800193c:	4293      	cmp	r3, r2
 800193e:	d002      	beq.n	8001946 <HAL_DMA_Abort_IT+0x52>
 8001940:	f04f 7280 	mov.w	r2, #16777216	; 0x1000000
 8001944:	e003      	b.n	800194e <HAL_DMA_Abort_IT+0x5a>
 8001946:	f44f 1280 	mov.w	r2, #1048576	; 0x100000
 800194a:	e000      	b.n	800194e <HAL_DMA_Abort_IT+0x5a>
 800194c:	2201      	movs	r2, #1
 800194e:	4b0e      	ldr	r3, [pc, #56]	; (8001988 <HAL_DMA_Abort_IT+0x94>)
 8001950:	605a      	str	r2, [r3, #4]
    hdma->State = HAL_DMA_STATE_READY;
 8001952:	2301      	movs	r3, #1
 8001954:	f880 3021 	strb.w	r3, [r0, #33]	; 0x21
    __HAL_UNLOCK(hdma);
 8001958:	2300      	movs	r3, #0
 800195a:	f880 3020 	strb.w	r3, [r0, #32]
    if(hdma->XferAbortCallback != NULL)
 800195e:	6b43      	ldr	r3, [r0, #52]	; 0x34
 8001960:	b16b      	cbz	r3, 800197e <HAL_DMA_Abort_IT+0x8a>
      hdma->XferAbortCallback(hdma);
 8001962:	4798      	blx	r3
  HAL_StatusTypeDef status = HAL_OK;
 8001964:	2000      	movs	r0, #0
 8001966:	e7cd      	b.n	8001904 <HAL_DMA_Abort_IT+0x10>
    __HAL_DMA_CLEAR_FLAG(hdma, __HAL_DMA_GET_GI_FLAG_INDEX(hdma));
 8001968:	2210      	movs	r2, #16
 800196a:	e7f0      	b.n	800194e <HAL_DMA_Abort_IT+0x5a>
 800196c:	f44f 7280 	mov.w	r2, #256	; 0x100
 8001970:	e7ed      	b.n	800194e <HAL_DMA_Abort_IT+0x5a>
 8001972:	f44f 5280 	mov.w	r2, #4096	; 0x1000
 8001976:	e7ea      	b.n	800194e <HAL_DMA_Abort_IT+0x5a>
 8001978:	f44f 3280 	mov.w	r2, #65536	; 0x10000
 800197c:	e7e7      	b.n	800194e <HAL_DMA_Abort_IT+0x5a>
  HAL_StatusTypeDef status = HAL_OK;
 800197e:	2000      	movs	r0, #0
 8001980:	e7c0      	b.n	8001904 <HAL_DMA_Abort_IT+0x10>
 8001982:	bf00      	nop
 8001984:	40020008 	.word	0x40020008
 8001988:	40020000 	.word	0x40020000

0800198c <HAL_DMA_IRQHandler>:
{
 800198c:	b538      	push	{r3, r4, r5, lr}
  uint32_t flag_it = hdma->DmaBaseAddress->ISR;
 800198e:	6bc3      	ldr	r3, [r0, #60]	; 0x3c
 8001990:	681a      	ldr	r2, [r3, #0]
  uint32_t source_it = hdma->Instance->CCR;
 8001992:	6804      	ldr	r4, [r0, #0]
 8001994:	6825      	ldr	r5, [r4, #0]
  if (((flag_it & (DMA_FLAG_HT1 << hdma->ChannelIndex)) != RESET) && ((source_it & DMA_IT_HT) != RESET))
 8001996:	6c01      	ldr	r1, [r0, #64]	; 0x40
 8001998:	2304      	movs	r3, #4
 800199a:	408b      	lsls	r3, r1
 800199c:	4213      	tst	r3, r2
 800199e:	d035      	beq.n	8001a0c <HAL_DMA_IRQHandler+0x80>
 80019a0:	f015 0f04 	tst.w	r5, #4
 80019a4:	d032      	beq.n	8001a0c <HAL_DMA_IRQHandler+0x80>
    if((hdma->Instance->CCR & DMA_CCR_CIRC) == 0U)
 80019a6:	6823      	ldr	r3, [r4, #0]
 80019a8:	f013 0f20 	tst.w	r3, #32
 80019ac:	d103      	bne.n	80019b6 <HAL_DMA_IRQHandler+0x2a>
      __HAL_DMA_DISABLE_IT(hdma, DMA_IT_HT);
 80019ae:	6823      	ldr	r3, [r4, #0]
 80019b0:	f023 0304 	bic.w	r3, r3, #4
 80019b4:	6023      	str	r3, [r4, #0]
    __HAL_DMA_CLEAR_FLAG(hdma, __HAL_DMA_GET_HT_FLAG_INDEX(hdma));
 80019b6:	6803      	ldr	r3, [r0, #0]
 80019b8:	4a43      	ldr	r2, [pc, #268]	; (8001ac8 <HAL_DMA_IRQHandler+0x13c>)
 80019ba:	4293      	cmp	r3, r2
 80019bc:	d014      	beq.n	80019e8 <HAL_DMA_IRQHandler+0x5c>
 80019be:	3214      	adds	r2, #20
 80019c0:	4293      	cmp	r3, r2
 80019c2:	d018      	beq.n	80019f6 <HAL_DMA_IRQHandler+0x6a>
 80019c4:	3214      	adds	r2, #20
 80019c6:	4293      	cmp	r3, r2
 80019c8:	d017      	beq.n	80019fa <HAL_DMA_IRQHandler+0x6e>
 80019ca:	3214      	adds	r2, #20
 80019cc:	4293      	cmp	r3, r2
 80019ce:	d017      	beq.n	8001a00 <HAL_DMA_IRQHandler+0x74>
 80019d0:	3214      	adds	r2, #20
 80019d2:	4293      	cmp	r3, r2
 80019d4:	d017      	beq.n	8001a06 <HAL_DMA_IRQHandler+0x7a>
 80019d6:	3214      	adds	r2, #20
 80019d8:	4293      	cmp	r3, r2
 80019da:	d002      	beq.n	80019e2 <HAL_DMA_IRQHandler+0x56>
 80019dc:	f04f 6280 	mov.w	r2, #67108864	; 0x4000000
 80019e0:	e003      	b.n	80019ea <HAL_DMA_IRQHandler+0x5e>
 80019e2:	f44f 0280 	mov.w	r2, #4194304	; 0x400000
 80019e6:	e000      	b.n	80019ea <HAL_DMA_IRQHandler+0x5e>
 80019e8:	2204      	movs	r2, #4
 80019ea:	4b38      	ldr	r3, [pc, #224]	; (8001acc <HAL_DMA_IRQHandler+0x140>)
 80019ec:	605a      	str	r2, [r3, #4]
    if(hdma->XferHalfCpltCallback != NULL)
 80019ee:	6ac3      	ldr	r3, [r0, #44]	; 0x2c
 80019f0:	b103      	cbz	r3, 80019f4 <HAL_DMA_IRQHandler+0x68>
      hdma->XferHalfCpltCallback(hdma);
 80019f2:	4798      	blx	r3
}
 80019f4:	bd38      	pop	{r3, r4, r5, pc}
    __HAL_DMA_CLEAR_FLAG(hdma, __HAL_DMA_GET_HT_FLAG_INDEX(hdma));
 80019f6:	2240      	movs	r2, #64	; 0x40
 80019f8:	e7f7      	b.n	80019ea <HAL_DMA_IRQHandler+0x5e>
 80019fa:	f44f 6280 	mov.w	r2, #1024	; 0x400
 80019fe:	e7f4      	b.n	80019ea <HAL_DMA_IRQHandler+0x5e>
 8001a00:	f44f 4280 	mov.w	r2, #16384	; 0x4000
 8001a04:	e7f1      	b.n	80019ea <HAL_DMA_IRQHandler+0x5e>
 8001a06:	f44f 2280 	mov.w	r2, #262144	; 0x40000
 8001a0a:	e7ee      	b.n	80019ea <HAL_DMA_IRQHandler+0x5e>
  else if (((flag_it & (DMA_FLAG_TC1 << hdma->ChannelIndex)) != RESET) && ((source_it & DMA_IT_TC) != RESET))
 8001a0c:	2302      	movs	r3, #2
 8001a0e:	408b      	lsls	r3, r1
 8001a10:	4213      	tst	r3, r2
 8001a12:	d03c      	beq.n	8001a8e <HAL_DMA_IRQHandler+0x102>
 8001a14:	f015 0f02 	tst.w	r5, #2
 8001a18:	d039      	beq.n	8001a8e <HAL_DMA_IRQHandler+0x102>
    if((hdma->Instance->CCR & DMA_CCR_CIRC) == 0U)
 8001a1a:	6823      	ldr	r3, [r4, #0]
 8001a1c:	f013 0f20 	tst.w	r3, #32
 8001a20:	d106      	bne.n	8001a30 <HAL_DMA_IRQHandler+0xa4>
      __HAL_DMA_DISABLE_IT(hdma, DMA_IT_TE | DMA_IT_TC);  
 8001a22:	6823      	ldr	r3, [r4, #0]
 8001a24:	f023 030a 	bic.w	r3, r3, #10
 8001a28:	6023      	str	r3, [r4, #0]
      hdma->State = HAL_DMA_STATE_READY;
 8001a2a:	2301      	movs	r3, #1
 8001a2c:	f880 3021 	strb.w	r3, [r0, #33]	; 0x21
      __HAL_DMA_CLEAR_FLAG(hdma, __HAL_DMA_GET_TC_FLAG_INDEX(hdma));
 8001a30:	6803      	ldr	r3, [r0, #0]
 8001a32:	4a25      	ldr	r2, [pc, #148]	; (8001ac8 <HAL_DMA_IRQHandler+0x13c>)
 8001a34:	4293      	cmp	r3, r2
 8001a36:	d014      	beq.n	8001a62 <HAL_DMA_IRQHandler+0xd6>
 8001a38:	3214      	adds	r2, #20
 8001a3a:	4293      	cmp	r3, r2
 8001a3c:	d01c      	beq.n	8001a78 <HAL_DMA_IRQHandler+0xec>
 8001a3e:	3214      	adds	r2, #20
 8001a40:	4293      	cmp	r3, r2
 8001a42:	d01b      	beq.n	8001a7c <HAL_DMA_IRQHandler+0xf0>
 8001a44:	3214      	adds	r2, #20
 8001a46:	4293      	cmp	r3, r2
 8001a48:	d01b      	beq.n	8001a82 <HAL_DMA_IRQHandler+0xf6>
 8001a4a:	3214      	adds	r2, #20
 8001a4c:	4293      	cmp	r3, r2
 8001a4e:	d01b      	beq.n	8001a88 <HAL_DMA_IRQHandler+0xfc>
 8001a50:	3214      	adds	r2, #20
 8001a52:	4293      	cmp	r3, r2
 8001a54:	d002      	beq.n	8001a5c <HAL_DMA_IRQHandler+0xd0>
 8001a56:	f04f 7200 	mov.w	r2, #33554432	; 0x2000000
 8001a5a:	e003      	b.n	8001a64 <HAL_DMA_IRQHandler+0xd8>
 8001a5c:	f44f 1200 	mov.w	r2, #2097152	; 0x200000
 8001a60:	e000      	b.n	8001a64 <HAL_DMA_IRQHandler+0xd8>
 8001a62:	2202      	movs	r2, #2
 8001a64:	4b19      	ldr	r3, [pc, #100]	; (8001acc <HAL_DMA_IRQHandler+0x140>)
 8001a66:	605a      	str	r2, [r3, #4]
    __HAL_UNLOCK(hdma);
 8001a68:	2300      	movs	r3, #0
 8001a6a:	f880 3020 	strb.w	r3, [r0, #32]
    if(hdma->XferCpltCallback != NULL)
 8001a6e:	6a83      	ldr	r3, [r0, #40]	; 0x28
 8001a70:	2b00      	cmp	r3, #0
 8001a72:	d0bf      	beq.n	80019f4 <HAL_DMA_IRQHandler+0x68>
      hdma->XferCpltCallback(hdma);
 8001a74:	4798      	blx	r3
 8001a76:	e7bd      	b.n	80019f4 <HAL_DMA_IRQHandler+0x68>
      __HAL_DMA_CLEAR_FLAG(hdma, __HAL_DMA_GET_TC_FLAG_INDEX(hdma));
 8001a78:	2220      	movs	r2, #32
 8001a7a:	e7f3      	b.n	8001a64 <HAL_DMA_IRQHandler+0xd8>
 8001a7c:	f44f 7200 	mov.w	r2, #512	; 0x200
 8001a80:	e7f0      	b.n	8001a64 <HAL_DMA_IRQHandler+0xd8>
 8001a82:	f44f 5200 	mov.w	r2, #8192	; 0x2000
 8001a86:	e7ed      	b.n	8001a64 <HAL_DMA_IRQHandler+0xd8>
 8001a88:	f44f 3200 	mov.w	r2, #131072	; 0x20000
 8001a8c:	e7ea      	b.n	8001a64 <HAL_DMA_IRQHandler+0xd8>
  else if (( RESET != (flag_it & (DMA_FLAG_TE1 << hdma->ChannelIndex))) && (RESET != (source_it & DMA_IT_TE)))
 8001a8e:	2308      	movs	r3, #8
 8001a90:	fa03 f101 	lsl.w	r1, r3, r1
 8001a94:	4211      	tst	r1, r2
 8001a96:	d0ad      	beq.n	80019f4 <HAL_DMA_IRQHandler+0x68>
 8001a98:	f015 0f08 	tst.w	r5, #8
 8001a9c:	d0aa      	beq.n	80019f4 <HAL_DMA_IRQHandler+0x68>
    __HAL_DMA_DISABLE_IT(hdma, (DMA_IT_TC | DMA_IT_HT | DMA_IT_TE));
 8001a9e:	6823      	ldr	r3, [r4, #0]
 8001aa0:	f023 030e 	bic.w	r3, r3, #14
 8001aa4:	6023      	str	r3, [r4, #0]
    hdma->DmaBaseAddress->IFCR = (DMA_ISR_GIF1 << hdma->ChannelIndex);
 8001aa6:	6c02      	ldr	r2, [r0, #64]	; 0x40
 8001aa8:	6bc1      	ldr	r1, [r0, #60]	; 0x3c
 8001aaa:	2301      	movs	r3, #1
 8001aac:	fa03 f202 	lsl.w	r2, r3, r2
 8001ab0:	604a      	str	r2, [r1, #4]
    hdma->ErrorCode = HAL_DMA_ERROR_TE;
 8001ab2:	6383      	str	r3, [r0, #56]	; 0x38
    hdma->State = HAL_DMA_STATE_READY;
 8001ab4:	f880 3021 	strb.w	r3, [r0, #33]	; 0x21
    __HAL_UNLOCK(hdma);
 8001ab8:	2300      	movs	r3, #0
 8001aba:	f880 3020 	strb.w	r3, [r0, #32]
    if (hdma->XferErrorCallback != NULL)
 8001abe:	6b03      	ldr	r3, [r0, #48]	; 0x30
 8001ac0:	2b00      	cmp	r3, #0
 8001ac2:	d097      	beq.n	80019f4 <HAL_DMA_IRQHandler+0x68>
      hdma->XferErrorCallback(hdma);
 8001ac4:	4798      	blx	r3
  return;
 8001ac6:	e795      	b.n	80019f4 <HAL_DMA_IRQHandler+0x68>
 8001ac8:	40020008 	.word	0x40020008
 8001acc:	40020000 	.word	0x40020000

08001ad0 <FLASH_Program_HalfWord>:
  * @retval None
  */
static void FLASH_Program_HalfWord(uint32_t Address, uint16_t Data)
{
  /* Clean the error context */
  pFlash.ErrorCode = HAL_FLASH_ERROR_NONE;
 8001ad0:	4b04      	ldr	r3, [pc, #16]	; (8001ae4 <FLASH_Program_HalfWord+0x14>)
 8001ad2:	2200      	movs	r2, #0
 8001ad4:	61da      	str	r2, [r3, #28]
#if defined(FLASH_BANK2_END)
  if(Address <= FLASH_BANK1_END)
  {
#endif /* FLASH_BANK2_END */
    /* Proceed to program the new data */
    SET_BIT(FLASH->CR, FLASH_CR_PG);
 8001ad6:	4a04      	ldr	r2, [pc, #16]	; (8001ae8 <FLASH_Program_HalfWord+0x18>)
 8001ad8:	6913      	ldr	r3, [r2, #16]
 8001ada:	f043 0301 	orr.w	r3, r3, #1
 8001ade:	6113      	str	r3, [r2, #16]
    SET_BIT(FLASH->CR2, FLASH_CR2_PG);
  }
#endif /* FLASH_BANK2_END */

  /* Write data in the address */
  *(__IO uint16_t*)Address = Data;
 8001ae0:	8001      	strh	r1, [r0, #0]
}
 8001ae2:	4770      	bx	lr
 8001ae4:	200005e0 	.word	0x200005e0
 8001ae8:	40022000 	.word	0x40022000

08001aec <FLASH_SetErrorCode>:
  uint32_t flags = 0U;
  
#if defined(FLASH_BANK2_END)
  if(__HAL_FLASH_GET_FLAG(FLASH_FLAG_WRPERR) || __HAL_FLASH_GET_FLAG(FLASH_FLAG_WRPERR_BANK2))
#else
  if(__HAL_FLASH_GET_FLAG(FLASH_FLAG_WRPERR))
 8001aec:	4b1a      	ldr	r3, [pc, #104]	; (8001b58 <FLASH_SetErrorCode+0x6c>)
 8001aee:	68db      	ldr	r3, [r3, #12]
 8001af0:	f013 0f10 	tst.w	r3, #16
 8001af4:	d027      	beq.n	8001b46 <FLASH_SetErrorCode+0x5a>
#endif /* FLASH_BANK2_END */
  {
    pFlash.ErrorCode |= HAL_FLASH_ERROR_WRP;
 8001af6:	4a19      	ldr	r2, [pc, #100]	; (8001b5c <FLASH_SetErrorCode+0x70>)
 8001af8:	69d3      	ldr	r3, [r2, #28]
 8001afa:	f043 0302 	orr.w	r3, r3, #2
 8001afe:	61d3      	str	r3, [r2, #28]
#if defined(FLASH_BANK2_END)
    flags |= FLASH_FLAG_WRPERR | FLASH_FLAG_WRPERR_BANK2;
#else
    flags |= FLASH_FLAG_WRPERR;
 8001b00:	2310      	movs	r3, #16
#endif /* FLASH_BANK2_END */
  }
#if defined(FLASH_BANK2_END)
  if(__HAL_FLASH_GET_FLAG(FLASH_FLAG_PGERR) || __HAL_FLASH_GET_FLAG(FLASH_FLAG_PGERR_BANK2))
#else
  if(__HAL_FLASH_GET_FLAG(FLASH_FLAG_PGERR))
 8001b02:	4a15      	ldr	r2, [pc, #84]	; (8001b58 <FLASH_SetErrorCode+0x6c>)
 8001b04:	68d2      	ldr	r2, [r2, #12]
 8001b06:	f012 0f04 	tst.w	r2, #4
 8001b0a:	d006      	beq.n	8001b1a <FLASH_SetErrorCode+0x2e>
#endif /* FLASH_BANK2_END */
  {
    pFlash.ErrorCode |= HAL_FLASH_ERROR_PROG;
 8001b0c:	4913      	ldr	r1, [pc, #76]	; (8001b5c <FLASH_SetErrorCode+0x70>)
 8001b0e:	69ca      	ldr	r2, [r1, #28]
 8001b10:	f042 0201 	orr.w	r2, r2, #1
 8001b14:	61ca      	str	r2, [r1, #28]
#if defined(FLASH_BANK2_END)
    flags |= FLASH_FLAG_PGERR | FLASH_FLAG_PGERR_BANK2;
#else
    flags |= FLASH_FLAG_PGERR;
 8001b16:	f043 0304 	orr.w	r3, r3, #4
#endif /* FLASH_BANK2_END */
  }
  if(__HAL_FLASH_GET_FLAG(FLASH_FLAG_OPTVERR))
 8001b1a:	4a0f      	ldr	r2, [pc, #60]	; (8001b58 <FLASH_SetErrorCode+0x6c>)
 8001b1c:	69d2      	ldr	r2, [r2, #28]
 8001b1e:	f012 0f01 	tst.w	r2, #1
 8001b22:	d009      	beq.n	8001b38 <FLASH_SetErrorCode+0x4c>
  {
    pFlash.ErrorCode |= HAL_FLASH_ERROR_OPTV;
 8001b24:	490d      	ldr	r1, [pc, #52]	; (8001b5c <FLASH_SetErrorCode+0x70>)
 8001b26:	69ca      	ldr	r2, [r1, #28]
 8001b28:	f042 0204 	orr.w	r2, r2, #4
 8001b2c:	61ca      	str	r2, [r1, #28]
  __HAL_FLASH_CLEAR_FLAG(FLASH_FLAG_OPTVERR);
 8001b2e:	490a      	ldr	r1, [pc, #40]	; (8001b58 <FLASH_SetErrorCode+0x6c>)
 8001b30:	69ca      	ldr	r2, [r1, #28]
 8001b32:	f022 0201 	bic.w	r2, r2, #1
 8001b36:	61ca      	str	r2, [r1, #28]
  }

  /* Clear FLASH error pending bits */
  __HAL_FLASH_CLEAR_FLAG(flags);
 8001b38:	f240 1201 	movw	r2, #257	; 0x101
 8001b3c:	4293      	cmp	r3, r2
 8001b3e:	d004      	beq.n	8001b4a <FLASH_SetErrorCode+0x5e>
 8001b40:	4a05      	ldr	r2, [pc, #20]	; (8001b58 <FLASH_SetErrorCode+0x6c>)
 8001b42:	60d3      	str	r3, [r2, #12]
}  
 8001b44:	4770      	bx	lr
  uint32_t flags = 0U;
 8001b46:	2300      	movs	r3, #0
 8001b48:	e7db      	b.n	8001b02 <FLASH_SetErrorCode+0x16>
  __HAL_FLASH_CLEAR_FLAG(flags);
 8001b4a:	4a03      	ldr	r2, [pc, #12]	; (8001b58 <FLASH_SetErrorCode+0x6c>)
 8001b4c:	69d3      	ldr	r3, [r2, #28]
 8001b4e:	f023 0301 	bic.w	r3, r3, #1
 8001b52:	61d3      	str	r3, [r2, #28]
 8001b54:	4770      	bx	lr
 8001b56:	bf00      	nop
 8001b58:	40022000 	.word	0x40022000
 8001b5c:	200005e0 	.word	0x200005e0

08001b60 <HAL_FLASH_Unlock>:
  if(READ_BIT(FLASH->CR, FLASH_CR_LOCK) != RESET)
 8001b60:	4b0a      	ldr	r3, [pc, #40]	; (8001b8c <HAL_FLASH_Unlock+0x2c>)
 8001b62:	691b      	ldr	r3, [r3, #16]
 8001b64:	f013 0f80 	tst.w	r3, #128	; 0x80
 8001b68:	d00d      	beq.n	8001b86 <HAL_FLASH_Unlock+0x26>
    WRITE_REG(FLASH->KEYR, FLASH_KEY1);
 8001b6a:	4b08      	ldr	r3, [pc, #32]	; (8001b8c <HAL_FLASH_Unlock+0x2c>)
 8001b6c:	4a08      	ldr	r2, [pc, #32]	; (8001b90 <HAL_FLASH_Unlock+0x30>)
 8001b6e:	605a      	str	r2, [r3, #4]
    WRITE_REG(FLASH->KEYR, FLASH_KEY2);
 8001b70:	f102 3288 	add.w	r2, r2, #2290649224	; 0x88888888
 8001b74:	605a      	str	r2, [r3, #4]
    if(READ_BIT(FLASH->CR, FLASH_CR_LOCK) != RESET)
 8001b76:	691b      	ldr	r3, [r3, #16]
 8001b78:	f013 0f80 	tst.w	r3, #128	; 0x80
 8001b7c:	d001      	beq.n	8001b82 <HAL_FLASH_Unlock+0x22>
      status = HAL_ERROR;
 8001b7e:	2001      	movs	r0, #1
}
 8001b80:	4770      	bx	lr
  HAL_StatusTypeDef status = HAL_OK;
 8001b82:	2000      	movs	r0, #0
 8001b84:	4770      	bx	lr
 8001b86:	2000      	movs	r0, #0
 8001b88:	4770      	bx	lr
 8001b8a:	bf00      	nop
 8001b8c:	40022000 	.word	0x40022000
 8001b90:	45670123 	.word	0x45670123

08001b94 <HAL_FLASH_Lock>:
  SET_BIT(FLASH->CR, FLASH_CR_LOCK);
 8001b94:	4a03      	ldr	r2, [pc, #12]	; (8001ba4 <HAL_FLASH_Lock+0x10>)
 8001b96:	6913      	ldr	r3, [r2, #16]
 8001b98:	f043 0380 	orr.w	r3, r3, #128	; 0x80
 8001b9c:	6113      	str	r3, [r2, #16]
}
 8001b9e:	2000      	movs	r0, #0
 8001ba0:	4770      	bx	lr
 8001ba2:	bf00      	nop
 8001ba4:	40022000 	.word	0x40022000

08001ba8 <FLASH_WaitForLastOperation>:
{
 8001ba8:	b538      	push	{r3, r4, r5, lr}
 8001baa:	4604      	mov	r4, r0
  uint32_t tickstart = HAL_GetTick();
 8001bac:	f7ff fb1a 	bl	80011e4 <HAL_GetTick>
 8001bb0:	4605      	mov	r5, r0
  while(__HAL_FLASH_GET_FLAG(FLASH_FLAG_BSY)) 
 8001bb2:	4b17      	ldr	r3, [pc, #92]	; (8001c10 <FLASH_WaitForLastOperation+0x68>)
 8001bb4:	68db      	ldr	r3, [r3, #12]
 8001bb6:	f013 0f01 	tst.w	r3, #1
 8001bba:	d00a      	beq.n	8001bd2 <FLASH_WaitForLastOperation+0x2a>
    if (Timeout != HAL_MAX_DELAY)
 8001bbc:	f1b4 3fff 	cmp.w	r4, #4294967295
 8001bc0:	d0f7      	beq.n	8001bb2 <FLASH_WaitForLastOperation+0xa>
      if((Timeout == 0U) || ((HAL_GetTick()-tickstart) > Timeout))
 8001bc2:	b30c      	cbz	r4, 8001c08 <FLASH_WaitForLastOperation+0x60>
 8001bc4:	f7ff fb0e 	bl	80011e4 <HAL_GetTick>
 8001bc8:	1b40      	subs	r0, r0, r5
 8001bca:	42a0      	cmp	r0, r4
 8001bcc:	d9f1      	bls.n	8001bb2 <FLASH_WaitForLastOperation+0xa>
        return HAL_TIMEOUT;
 8001bce:	2003      	movs	r0, #3
 8001bd0:	e019      	b.n	8001c06 <FLASH_WaitForLastOperation+0x5e>
  if (__HAL_FLASH_GET_FLAG(FLASH_FLAG_EOP))
 8001bd2:	4b0f      	ldr	r3, [pc, #60]	; (8001c10 <FLASH_WaitForLastOperation+0x68>)
 8001bd4:	68db      	ldr	r3, [r3, #12]
 8001bd6:	f013 0f20 	tst.w	r3, #32
 8001bda:	d002      	beq.n	8001be2 <FLASH_WaitForLastOperation+0x3a>
    __HAL_FLASH_CLEAR_FLAG(FLASH_FLAG_EOP);
 8001bdc:	4b0c      	ldr	r3, [pc, #48]	; (8001c10 <FLASH_WaitForLastOperation+0x68>)
 8001bde:	2220      	movs	r2, #32
 8001be0:	60da      	str	r2, [r3, #12]
  if(__HAL_FLASH_GET_FLAG(FLASH_FLAG_WRPERR)  || 
 8001be2:	4b0b      	ldr	r3, [pc, #44]	; (8001c10 <FLASH_WaitForLastOperation+0x68>)
 8001be4:	68db      	ldr	r3, [r3, #12]
 8001be6:	f013 0f10 	tst.w	r3, #16
 8001bea:	d109      	bne.n	8001c00 <FLASH_WaitForLastOperation+0x58>
     __HAL_FLASH_GET_FLAG(FLASH_FLAG_OPTVERR) || 
 8001bec:	4b08      	ldr	r3, [pc, #32]	; (8001c10 <FLASH_WaitForLastOperation+0x68>)
 8001bee:	69db      	ldr	r3, [r3, #28]
  if(__HAL_FLASH_GET_FLAG(FLASH_FLAG_WRPERR)  || 
 8001bf0:	f013 0f01 	tst.w	r3, #1
 8001bf4:	d104      	bne.n	8001c00 <FLASH_WaitForLastOperation+0x58>
     __HAL_FLASH_GET_FLAG(FLASH_FLAG_PGERR))
 8001bf6:	4b06      	ldr	r3, [pc, #24]	; (8001c10 <FLASH_WaitForLastOperation+0x68>)
 8001bf8:	68db      	ldr	r3, [r3, #12]
     __HAL_FLASH_GET_FLAG(FLASH_FLAG_OPTVERR) || 
 8001bfa:	f013 0f04 	tst.w	r3, #4
 8001bfe:	d005      	beq.n	8001c0c <FLASH_WaitForLastOperation+0x64>
    FLASH_SetErrorCode();
 8001c00:	f7ff ff74 	bl	8001aec <FLASH_SetErrorCode>
    return HAL_ERROR;
 8001c04:	2001      	movs	r0, #1
}
 8001c06:	bd38      	pop	{r3, r4, r5, pc}
        return HAL_TIMEOUT;
 8001c08:	2003      	movs	r0, #3
 8001c0a:	e7fc      	b.n	8001c06 <FLASH_WaitForLastOperation+0x5e>
  return HAL_OK;
 8001c0c:	2000      	movs	r0, #0
 8001c0e:	e7fa      	b.n	8001c06 <FLASH_WaitForLastOperation+0x5e>
 8001c10:	40022000 	.word	0x40022000

08001c14 <HAL_FLASH_Program>:
{
 8001c14:	e92d 43f8 	stmdb	sp!, {r3, r4, r5, r6, r7, r8, r9, lr}
  __HAL_LOCK(&pFlash);
 8001c18:	4c23      	ldr	r4, [pc, #140]	; (8001ca8 <HAL_FLASH_Program+0x94>)
 8001c1a:	7e24      	ldrb	r4, [r4, #24]
 8001c1c:	2c01      	cmp	r4, #1
 8001c1e:	d041      	beq.n	8001ca4 <HAL_FLASH_Program+0x90>
 8001c20:	461e      	mov	r6, r3
 8001c22:	4690      	mov	r8, r2
 8001c24:	460f      	mov	r7, r1
 8001c26:	4604      	mov	r4, r0
 8001c28:	4b1f      	ldr	r3, [pc, #124]	; (8001ca8 <HAL_FLASH_Program+0x94>)
 8001c2a:	2201      	movs	r2, #1
 8001c2c:	761a      	strb	r2, [r3, #24]
    status = FLASH_WaitForLastOperation(FLASH_TIMEOUT_VALUE);
 8001c2e:	f24c 3050 	movw	r0, #50000	; 0xc350
 8001c32:	f7ff ffb9 	bl	8001ba8 <FLASH_WaitForLastOperation>
  if(status == HAL_OK)
 8001c36:	4603      	mov	r3, r0
 8001c38:	bb70      	cbnz	r0, 8001c98 <HAL_FLASH_Program+0x84>
    if(TypeProgram == FLASH_TYPEPROGRAM_HALFWORD)
 8001c3a:	2c01      	cmp	r4, #1
 8001c3c:	d029      	beq.n	8001c92 <HAL_FLASH_Program+0x7e>
    else if(TypeProgram == FLASH_TYPEPROGRAM_WORD)
 8001c3e:	2c02      	cmp	r4, #2
 8001c40:	d024      	beq.n	8001c8c <HAL_FLASH_Program+0x78>
      nbiterations = 4U;
 8001c42:	f04f 0904 	mov.w	r9, #4
    for (index = 0U; index < nbiterations; index++)
 8001c46:	2400      	movs	r4, #0
 8001c48:	454c      	cmp	r4, r9
 8001c4a:	d225      	bcs.n	8001c98 <HAL_FLASH_Program+0x84>
      FLASH_Program_HalfWord((Address + (2U*index)), (uint16_t)(Data >> (16U*index)));
 8001c4c:	0121      	lsls	r1, r4, #4
 8001c4e:	f1c1 0220 	rsb	r2, r1, #32
 8001c52:	f1a1 0320 	sub.w	r3, r1, #32
 8001c56:	fa28 f101 	lsr.w	r1, r8, r1
 8001c5a:	fa06 f202 	lsl.w	r2, r6, r2
 8001c5e:	4311      	orrs	r1, r2
 8001c60:	fa26 f303 	lsr.w	r3, r6, r3
 8001c64:	4319      	orrs	r1, r3
 8001c66:	b289      	uxth	r1, r1
 8001c68:	eb07 0044 	add.w	r0, r7, r4, lsl #1
 8001c6c:	f7ff ff30 	bl	8001ad0 <FLASH_Program_HalfWord>
        status = FLASH_WaitForLastOperation(FLASH_TIMEOUT_VALUE);
 8001c70:	f24c 3050 	movw	r0, #50000	; 0xc350
 8001c74:	f7ff ff98 	bl	8001ba8 <FLASH_WaitForLastOperation>
        CLEAR_BIT(FLASH->CR, FLASH_CR_PG);
 8001c78:	4b0c      	ldr	r3, [pc, #48]	; (8001cac <HAL_FLASH_Program+0x98>)
 8001c7a:	691d      	ldr	r5, [r3, #16]
 8001c7c:	f025 0501 	bic.w	r5, r5, #1
 8001c80:	611d      	str	r5, [r3, #16]
      if (status != HAL_OK)
 8001c82:	4603      	mov	r3, r0
 8001c84:	b940      	cbnz	r0, 8001c98 <HAL_FLASH_Program+0x84>
    for (index = 0U; index < nbiterations; index++)
 8001c86:	3401      	adds	r4, #1
 8001c88:	b2e4      	uxtb	r4, r4
 8001c8a:	e7dd      	b.n	8001c48 <HAL_FLASH_Program+0x34>
      nbiterations = 2U;
 8001c8c:	f04f 0902 	mov.w	r9, #2
 8001c90:	e7d9      	b.n	8001c46 <HAL_FLASH_Program+0x32>
      nbiterations = 1U;
 8001c92:	f04f 0901 	mov.w	r9, #1
 8001c96:	e7d6      	b.n	8001c46 <HAL_FLASH_Program+0x32>
  __HAL_UNLOCK(&pFlash);
 8001c98:	4a03      	ldr	r2, [pc, #12]	; (8001ca8 <HAL_FLASH_Program+0x94>)
 8001c9a:	2100      	movs	r1, #0
 8001c9c:	7611      	strb	r1, [r2, #24]
}
 8001c9e:	4618      	mov	r0, r3
 8001ca0:	e8bd 83f8 	ldmia.w	sp!, {r3, r4, r5, r6, r7, r8, r9, pc}
  __HAL_LOCK(&pFlash);
 8001ca4:	2302      	movs	r3, #2
 8001ca6:	e7fa      	b.n	8001c9e <HAL_FLASH_Program+0x8a>
 8001ca8:	200005e0 	.word	0x200005e0
 8001cac:	40022000 	.word	0x40022000

08001cb0 <FLASH_MassErase>:
{
  /* Check the parameters */
  assert_param(IS_FLASH_BANK(Banks));

  /* Clean the error context */
  pFlash.ErrorCode = HAL_FLASH_ERROR_NONE;
 8001cb0:	4b06      	ldr	r3, [pc, #24]	; (8001ccc <FLASH_MassErase+0x1c>)
 8001cb2:	2200      	movs	r2, #0
 8001cb4:	61da      	str	r2, [r3, #28]
#if !defined(FLASH_BANK2_END)
  /* Prevent unused argument(s) compilation warning */
  UNUSED(Banks);
#endif /* FLASH_BANK2_END */  
    /* Only bank1 will be erased*/
    SET_BIT(FLASH->CR, FLASH_CR_MER);
 8001cb6:	4b06      	ldr	r3, [pc, #24]	; (8001cd0 <FLASH_MassErase+0x20>)
 8001cb8:	691a      	ldr	r2, [r3, #16]
 8001cba:	f042 0204 	orr.w	r2, r2, #4
 8001cbe:	611a      	str	r2, [r3, #16]
    SET_BIT(FLASH->CR, FLASH_CR_STRT);
 8001cc0:	691a      	ldr	r2, [r3, #16]
 8001cc2:	f042 0240 	orr.w	r2, r2, #64	; 0x40
 8001cc6:	611a      	str	r2, [r3, #16]
#if defined(FLASH_BANK2_END)
  }
#endif /* FLASH_BANK2_END */
}
 8001cc8:	4770      	bx	lr
 8001cca:	bf00      	nop
 8001ccc:	200005e0 	.word	0x200005e0
 8001cd0:	40022000 	.word	0x40022000

08001cd4 <FLASH_PageErase>:
  * @retval None
  */
void FLASH_PageErase(uint32_t PageAddress)
{
  /* Clean the error context */
  pFlash.ErrorCode = HAL_FLASH_ERROR_NONE;
 8001cd4:	4b06      	ldr	r3, [pc, #24]	; (8001cf0 <FLASH_PageErase+0x1c>)
 8001cd6:	2200      	movs	r2, #0
 8001cd8:	61da      	str	r2, [r3, #28]
  }
  else
  {
#endif /* FLASH_BANK2_END */
    /* Proceed to erase the page */
    SET_BIT(FLASH->CR, FLASH_CR_PER);
 8001cda:	4b06      	ldr	r3, [pc, #24]	; (8001cf4 <FLASH_PageErase+0x20>)
 8001cdc:	691a      	ldr	r2, [r3, #16]
 8001cde:	f042 0202 	orr.w	r2, r2, #2
 8001ce2:	611a      	str	r2, [r3, #16]
    WRITE_REG(FLASH->AR, PageAddress);
 8001ce4:	6158      	str	r0, [r3, #20]
    SET_BIT(FLASH->CR, FLASH_CR_STRT);
 8001ce6:	691a      	ldr	r2, [r3, #16]
 8001ce8:	f042 0240 	orr.w	r2, r2, #64	; 0x40
 8001cec:	611a      	str	r2, [r3, #16]
#if defined(FLASH_BANK2_END)
  }
#endif /* FLASH_BANK2_END */
}
 8001cee:	4770      	bx	lr
 8001cf0:	200005e0 	.word	0x200005e0
 8001cf4:	40022000 	.word	0x40022000

08001cf8 <HAL_FLASHEx_Erase>:
  __HAL_LOCK(&pFlash);
 8001cf8:	4b26      	ldr	r3, [pc, #152]	; (8001d94 <HAL_FLASHEx_Erase+0x9c>)
 8001cfa:	7e1b      	ldrb	r3, [r3, #24]
 8001cfc:	2b01      	cmp	r3, #1
 8001cfe:	d046      	beq.n	8001d8e <HAL_FLASHEx_Erase+0x96>
{
 8001d00:	b570      	push	{r4, r5, r6, lr}
 8001d02:	460e      	mov	r6, r1
 8001d04:	4604      	mov	r4, r0
  __HAL_LOCK(&pFlash);
 8001d06:	4b23      	ldr	r3, [pc, #140]	; (8001d94 <HAL_FLASHEx_Erase+0x9c>)
 8001d08:	2201      	movs	r2, #1
 8001d0a:	761a      	strb	r2, [r3, #24]
  if (pEraseInit->TypeErase == FLASH_TYPEERASE_MASSERASE)
 8001d0c:	6803      	ldr	r3, [r0, #0]
 8001d0e:	2b02      	cmp	r3, #2
 8001d10:	d020      	beq.n	8001d54 <HAL_FLASHEx_Erase+0x5c>
      if (FLASH_WaitForLastOperation((uint32_t)FLASH_TIMEOUT_VALUE) == HAL_OK)
 8001d12:	f24c 3050 	movw	r0, #50000	; 0xc350
 8001d16:	f7ff ff47 	bl	8001ba8 <FLASH_WaitForLastOperation>
 8001d1a:	bb90      	cbnz	r0, 8001d82 <HAL_FLASHEx_Erase+0x8a>
        *PageError = 0xFFFFFFFFU;
 8001d1c:	f04f 33ff 	mov.w	r3, #4294967295
 8001d20:	6033      	str	r3, [r6, #0]
        for(address = pEraseInit->PageAddress;
 8001d22:	68a5      	ldr	r5, [r4, #8]
  HAL_StatusTypeDef status = HAL_ERROR;
 8001d24:	2201      	movs	r2, #1
            address < ((pEraseInit->NbPages * FLASH_PAGE_SIZE) + pEraseInit->PageAddress);
 8001d26:	68e1      	ldr	r1, [r4, #12]
 8001d28:	68a3      	ldr	r3, [r4, #8]
 8001d2a:	eb03 2381 	add.w	r3, r3, r1, lsl #10
        for(address = pEraseInit->PageAddress;
 8001d2e:	42ab      	cmp	r3, r5
 8001d30:	d928      	bls.n	8001d84 <HAL_FLASHEx_Erase+0x8c>
          FLASH_PageErase(address);
 8001d32:	4628      	mov	r0, r5
 8001d34:	f7ff ffce 	bl	8001cd4 <FLASH_PageErase>
          status = FLASH_WaitForLastOperation((uint32_t)FLASH_TIMEOUT_VALUE);
 8001d38:	f24c 3050 	movw	r0, #50000	; 0xc350
 8001d3c:	f7ff ff34 	bl	8001ba8 <FLASH_WaitForLastOperation>
          CLEAR_BIT(FLASH->CR, FLASH_CR_PER);
 8001d40:	4a15      	ldr	r2, [pc, #84]	; (8001d98 <HAL_FLASHEx_Erase+0xa0>)
 8001d42:	6913      	ldr	r3, [r2, #16]
 8001d44:	f023 0302 	bic.w	r3, r3, #2
 8001d48:	6113      	str	r3, [r2, #16]
          if (status != HAL_OK)
 8001d4a:	4602      	mov	r2, r0
 8001d4c:	b9b8      	cbnz	r0, 8001d7e <HAL_FLASHEx_Erase+0x86>
            address += FLASH_PAGE_SIZE)
 8001d4e:	f505 6580 	add.w	r5, r5, #1024	; 0x400
 8001d52:	e7e8      	b.n	8001d26 <HAL_FLASHEx_Erase+0x2e>
      if (FLASH_WaitForLastOperation((uint32_t)FLASH_TIMEOUT_VALUE) == HAL_OK)
 8001d54:	f24c 3050 	movw	r0, #50000	; 0xc350
 8001d58:	f7ff ff26 	bl	8001ba8 <FLASH_WaitForLastOperation>
 8001d5c:	b108      	cbz	r0, 8001d62 <HAL_FLASHEx_Erase+0x6a>
  HAL_StatusTypeDef status = HAL_ERROR;
 8001d5e:	2201      	movs	r2, #1
 8001d60:	e010      	b.n	8001d84 <HAL_FLASHEx_Erase+0x8c>
        FLASH_MassErase(FLASH_BANK_1);
 8001d62:	2001      	movs	r0, #1
 8001d64:	f7ff ffa4 	bl	8001cb0 <FLASH_MassErase>
        status = FLASH_WaitForLastOperation((uint32_t)FLASH_TIMEOUT_VALUE);
 8001d68:	f24c 3050 	movw	r0, #50000	; 0xc350
 8001d6c:	f7ff ff1c 	bl	8001ba8 <FLASH_WaitForLastOperation>
 8001d70:	4602      	mov	r2, r0
        CLEAR_BIT(FLASH->CR, FLASH_CR_MER);
 8001d72:	4909      	ldr	r1, [pc, #36]	; (8001d98 <HAL_FLASHEx_Erase+0xa0>)
 8001d74:	690b      	ldr	r3, [r1, #16]
 8001d76:	f023 0304 	bic.w	r3, r3, #4
 8001d7a:	610b      	str	r3, [r1, #16]
 8001d7c:	e002      	b.n	8001d84 <HAL_FLASHEx_Erase+0x8c>
            *PageError = address;
 8001d7e:	6035      	str	r5, [r6, #0]
            break;
 8001d80:	e000      	b.n	8001d84 <HAL_FLASHEx_Erase+0x8c>
  HAL_StatusTypeDef status = HAL_ERROR;
 8001d82:	2201      	movs	r2, #1
  __HAL_UNLOCK(&pFlash);
 8001d84:	4b03      	ldr	r3, [pc, #12]	; (8001d94 <HAL_FLASHEx_Erase+0x9c>)
 8001d86:	2100      	movs	r1, #0
 8001d88:	7619      	strb	r1, [r3, #24]
}
 8001d8a:	4610      	mov	r0, r2
 8001d8c:	bd70      	pop	{r4, r5, r6, pc}
  __HAL_LOCK(&pFlash);
 8001d8e:	2202      	movs	r2, #2
}
 8001d90:	4610      	mov	r0, r2
 8001d92:	4770      	bx	lr
 8001d94:	200005e0 	.word	0x200005e0
 8001d98:	40022000 	.word	0x40022000

08001d9c <HAL_GPIO_Init>:
  * @param  GPIO_Init: pointer to a GPIO_InitTypeDef structure that contains
  *         the configuration information for the specified GPIO peripheral.
  * @retval None
  */
void HAL_GPIO_Init(GPIO_TypeDef  *GPIOx, GPIO_InitTypeDef *GPIO_Init)
{
 8001d9c:	b4f0      	push	{r4, r5, r6, r7}
 8001d9e:	b082      	sub	sp, #8
  uint32_t position = 0x00u;
  uint32_t ioposition;
  uint32_t iocurrent;
  uint32_t temp;
  uint32_t config = 0x00u;
 8001da0:	2600      	movs	r6, #0
  uint32_t position = 0x00u;
 8001da2:	4632      	mov	r2, r6
  assert_param(IS_GPIO_ALL_INSTANCE(GPIOx));
  assert_param(IS_GPIO_PIN(GPIO_Init->Pin));
  assert_param(IS_GPIO_MODE(GPIO_Init->Mode));

  /* Configure the port pins */
  while (((GPIO_Init->Pin) >> position) != 0x00u)
 8001da4:	e0a2      	b.n	8001eec <HAL_GPIO_Init+0x150>
    {
      /* Check the Alternate function parameters */
      assert_param(IS_GPIO_AF_INSTANCE(GPIOx));

      /* Based on the required mode, filling config variable with MODEy[1:0] and CNFy[3:2] corresponding bits */
      switch (GPIO_Init->Mode)
 8001da6:	2d00      	cmp	r5, #0
 8001da8:	d05a      	beq.n	8001e60 <HAL_GPIO_Init+0xc4>
 8001daa:	2d01      	cmp	r5, #1
 8001dac:	d100      	bne.n	8001db0 <HAL_GPIO_Init+0x14>
      {
        /* If we are configuring the pin in OUTPUT push-pull mode */
        case GPIO_MODE_OUTPUT_PP:
          /* Check the GPIO speed parameter */
          assert_param(IS_GPIO_SPEED(GPIO_Init->Speed));
          config = GPIO_Init->Speed + GPIO_CR_CNF_GP_OUTPUT_PP;
 8001dae:	68ce      	ldr	r6, [r1, #12]
          break;
      }

      /* Check if the current bit belongs to first half or last half of the pin count number
       in order to address CRH or CRL register*/
      configregister = (iocurrent < GPIO_PIN_8) ? &GPIOx->CRL     : &GPIOx->CRH;
 8001db0:	2bff      	cmp	r3, #255	; 0xff
 8001db2:	d869      	bhi.n	8001e88 <HAL_GPIO_Init+0xec>
 8001db4:	4684      	mov	ip, r0
      registeroffset = (iocurrent < GPIO_PIN_8) ? (position << 2u) : ((position - 8u) << 2u);
 8001db6:	2bff      	cmp	r3, #255	; 0xff
 8001db8:	d869      	bhi.n	8001e8e <HAL_GPIO_Init+0xf2>
 8001dba:	0095      	lsls	r5, r2, #2

      /* Apply the new configuration of the pin to the register */
      MODIFY_REG((*configregister), ((GPIO_CRL_MODE0 | GPIO_CRL_CNF0) << registeroffset), (config << registeroffset));
 8001dbc:	f8dc 4000 	ldr.w	r4, [ip]
 8001dc0:	270f      	movs	r7, #15
 8001dc2:	40af      	lsls	r7, r5
 8001dc4:	ea24 0407 	bic.w	r4, r4, r7
 8001dc8:	fa06 f505 	lsl.w	r5, r6, r5
 8001dcc:	432c      	orrs	r4, r5
 8001dce:	f8cc 4000 	str.w	r4, [ip]

      /*--------------------- EXTI Mode Configuration ------------------------*/
      /* Configure the External Interrupt or event for the current IO */
      if ((GPIO_Init->Mode & EXTI_MODE) == EXTI_MODE)
 8001dd2:	684c      	ldr	r4, [r1, #4]
 8001dd4:	f014 5f80 	tst.w	r4, #268435456	; 0x10000000
 8001dd8:	f000 8087 	beq.w	8001eea <HAL_GPIO_Init+0x14e>
      {
        /* Enable AFIO Clock */
        __HAL_RCC_AFIO_CLK_ENABLE();
 8001ddc:	4c5f      	ldr	r4, [pc, #380]	; (8001f5c <HAL_GPIO_Init+0x1c0>)
 8001dde:	69a5      	ldr	r5, [r4, #24]
 8001de0:	f045 0501 	orr.w	r5, r5, #1
 8001de4:	61a5      	str	r5, [r4, #24]
 8001de6:	69a4      	ldr	r4, [r4, #24]
 8001de8:	f004 0401 	and.w	r4, r4, #1
 8001dec:	9401      	str	r4, [sp, #4]
 8001dee:	9c01      	ldr	r4, [sp, #4]
        temp = AFIO->EXTICR[position >> 2u];
 8001df0:	0895      	lsrs	r5, r2, #2
 8001df2:	1caf      	adds	r7, r5, #2
 8001df4:	4c5a      	ldr	r4, [pc, #360]	; (8001f60 <HAL_GPIO_Init+0x1c4>)
 8001df6:	f854 4027 	ldr.w	r4, [r4, r7, lsl #2]
        CLEAR_BIT(temp, (0x0Fu) << (4u * (position & 0x03u)));
 8001dfa:	f002 0703 	and.w	r7, r2, #3
 8001dfe:	00bf      	lsls	r7, r7, #2
 8001e00:	f04f 0c0f 	mov.w	ip, #15
 8001e04:	fa0c fc07 	lsl.w	ip, ip, r7
 8001e08:	ea24 0c0c 	bic.w	ip, r4, ip
        SET_BIT(temp, (GPIO_GET_INDEX(GPIOx)) << (4u * (position & 0x03u)));
 8001e0c:	4c55      	ldr	r4, [pc, #340]	; (8001f64 <HAL_GPIO_Init+0x1c8>)
 8001e0e:	42a0      	cmp	r0, r4
 8001e10:	d043      	beq.n	8001e9a <HAL_GPIO_Init+0xfe>
 8001e12:	f504 6480 	add.w	r4, r4, #1024	; 0x400
 8001e16:	42a0      	cmp	r0, r4
 8001e18:	f000 8081 	beq.w	8001f1e <HAL_GPIO_Init+0x182>
 8001e1c:	f504 6480 	add.w	r4, r4, #1024	; 0x400
 8001e20:	42a0      	cmp	r0, r4
 8001e22:	d07e      	beq.n	8001f22 <HAL_GPIO_Init+0x186>
 8001e24:	f504 6480 	add.w	r4, r4, #1024	; 0x400
 8001e28:	42a0      	cmp	r0, r4
 8001e2a:	d034      	beq.n	8001e96 <HAL_GPIO_Init+0xfa>
 8001e2c:	2404      	movs	r4, #4
 8001e2e:	e035      	b.n	8001e9c <HAL_GPIO_Init+0x100>
      switch (GPIO_Init->Mode)
 8001e30:	4f4d      	ldr	r7, [pc, #308]	; (8001f68 <HAL_GPIO_Init+0x1cc>)
 8001e32:	42bd      	cmp	r5, r7
 8001e34:	d014      	beq.n	8001e60 <HAL_GPIO_Init+0xc4>
 8001e36:	d90b      	bls.n	8001e50 <HAL_GPIO_Init+0xb4>
 8001e38:	4f4c      	ldr	r7, [pc, #304]	; (8001f6c <HAL_GPIO_Init+0x1d0>)
 8001e3a:	42bd      	cmp	r5, r7
 8001e3c:	d010      	beq.n	8001e60 <HAL_GPIO_Init+0xc4>
 8001e3e:	f507 3780 	add.w	r7, r7, #65536	; 0x10000
 8001e42:	42bd      	cmp	r5, r7
 8001e44:	d00c      	beq.n	8001e60 <HAL_GPIO_Init+0xc4>
 8001e46:	f5a7 1780 	sub.w	r7, r7, #1048576	; 0x100000
 8001e4a:	42bd      	cmp	r5, r7
 8001e4c:	d1b0      	bne.n	8001db0 <HAL_GPIO_Init+0x14>
 8001e4e:	e007      	b.n	8001e60 <HAL_GPIO_Init+0xc4>
 8001e50:	f5a7 1780 	sub.w	r7, r7, #1048576	; 0x100000
 8001e54:	42bd      	cmp	r5, r7
 8001e56:	d003      	beq.n	8001e60 <HAL_GPIO_Init+0xc4>
 8001e58:	f507 3780 	add.w	r7, r7, #65536	; 0x10000
 8001e5c:	42bd      	cmp	r5, r7
 8001e5e:	d1a7      	bne.n	8001db0 <HAL_GPIO_Init+0x14>
          if (GPIO_Init->Pull == GPIO_NOPULL)
 8001e60:	688d      	ldr	r5, [r1, #8]
 8001e62:	b17d      	cbz	r5, 8001e84 <HAL_GPIO_Init+0xe8>
          else if (GPIO_Init->Pull == GPIO_PULLUP)
 8001e64:	2d01      	cmp	r5, #1
 8001e66:	d008      	beq.n	8001e7a <HAL_GPIO_Init+0xde>
            GPIOx->BRR = ioposition;
 8001e68:	6144      	str	r4, [r0, #20]
            config = GPIO_CR_MODE_INPUT + GPIO_CR_CNF_INPUT_PU_PD;
 8001e6a:	2608      	movs	r6, #8
 8001e6c:	e7a0      	b.n	8001db0 <HAL_GPIO_Init+0x14>
          config = GPIO_Init->Speed + GPIO_CR_CNF_AF_OUTPUT_PP;
 8001e6e:	68ce      	ldr	r6, [r1, #12]
 8001e70:	3608      	adds	r6, #8
          break;
 8001e72:	e79d      	b.n	8001db0 <HAL_GPIO_Init+0x14>
          config = GPIO_Init->Speed + GPIO_CR_CNF_AF_OUTPUT_OD;
 8001e74:	68ce      	ldr	r6, [r1, #12]
 8001e76:	360c      	adds	r6, #12
          break;
 8001e78:	e79a      	b.n	8001db0 <HAL_GPIO_Init+0x14>
            GPIOx->BSRR = ioposition;
 8001e7a:	6104      	str	r4, [r0, #16]
            config = GPIO_CR_MODE_INPUT + GPIO_CR_CNF_INPUT_PU_PD;
 8001e7c:	2608      	movs	r6, #8
 8001e7e:	e797      	b.n	8001db0 <HAL_GPIO_Init+0x14>
          config = GPIO_CR_MODE_INPUT + GPIO_CR_CNF_ANALOG;
 8001e80:	2600      	movs	r6, #0
 8001e82:	e795      	b.n	8001db0 <HAL_GPIO_Init+0x14>
            config = GPIO_CR_MODE_INPUT + GPIO_CR_CNF_INPUT_FLOATING;
 8001e84:	2604      	movs	r6, #4
 8001e86:	e793      	b.n	8001db0 <HAL_GPIO_Init+0x14>
      configregister = (iocurrent < GPIO_PIN_8) ? &GPIOx->CRL     : &GPIOx->CRH;
 8001e88:	f100 0c04 	add.w	ip, r0, #4
 8001e8c:	e793      	b.n	8001db6 <HAL_GPIO_Init+0x1a>
      registeroffset = (iocurrent < GPIO_PIN_8) ? (position << 2u) : ((position - 8u) << 2u);
 8001e8e:	f1a2 0508 	sub.w	r5, r2, #8
 8001e92:	00ad      	lsls	r5, r5, #2
 8001e94:	e792      	b.n	8001dbc <HAL_GPIO_Init+0x20>
        SET_BIT(temp, (GPIO_GET_INDEX(GPIOx)) << (4u * (position & 0x03u)));
 8001e96:	2403      	movs	r4, #3
 8001e98:	e000      	b.n	8001e9c <HAL_GPIO_Init+0x100>
 8001e9a:	2400      	movs	r4, #0
 8001e9c:	40bc      	lsls	r4, r7
 8001e9e:	ea44 040c 	orr.w	r4, r4, ip
        AFIO->EXTICR[position >> 2u] = temp;
 8001ea2:	3502      	adds	r5, #2
 8001ea4:	4f2e      	ldr	r7, [pc, #184]	; (8001f60 <HAL_GPIO_Init+0x1c4>)
 8001ea6:	f847 4025 	str.w	r4, [r7, r5, lsl #2]


        /* Configure the interrupt mask */
        if ((GPIO_Init->Mode & GPIO_MODE_IT) == GPIO_MODE_IT)
 8001eaa:	684c      	ldr	r4, [r1, #4]
 8001eac:	f414 3f80 	tst.w	r4, #65536	; 0x10000
 8001eb0:	d039      	beq.n	8001f26 <HAL_GPIO_Init+0x18a>
        {
          SET_BIT(EXTI->IMR, iocurrent);
 8001eb2:	4d2f      	ldr	r5, [pc, #188]	; (8001f70 <HAL_GPIO_Init+0x1d4>)
 8001eb4:	682c      	ldr	r4, [r5, #0]
 8001eb6:	431c      	orrs	r4, r3
 8001eb8:	602c      	str	r4, [r5, #0]
        {
          CLEAR_BIT(EXTI->IMR, iocurrent);
        }

        /* Configure the event mask */
        if ((GPIO_Init->Mode & GPIO_MODE_EVT) == GPIO_MODE_EVT)
 8001eba:	684c      	ldr	r4, [r1, #4]
 8001ebc:	f414 3f00 	tst.w	r4, #131072	; 0x20000
 8001ec0:	d037      	beq.n	8001f32 <HAL_GPIO_Init+0x196>
        {
          SET_BIT(EXTI->EMR, iocurrent);
 8001ec2:	4d2b      	ldr	r5, [pc, #172]	; (8001f70 <HAL_GPIO_Init+0x1d4>)
 8001ec4:	686c      	ldr	r4, [r5, #4]
 8001ec6:	431c      	orrs	r4, r3
 8001ec8:	606c      	str	r4, [r5, #4]
        {
          CLEAR_BIT(EXTI->EMR, iocurrent);
        }

        /* Enable or disable the rising trigger */
        if ((GPIO_Init->Mode & RISING_EDGE) == RISING_EDGE)
 8001eca:	684c      	ldr	r4, [r1, #4]
 8001ecc:	f414 1f80 	tst.w	r4, #1048576	; 0x100000
 8001ed0:	d035      	beq.n	8001f3e <HAL_GPIO_Init+0x1a2>
        {
          SET_BIT(EXTI->RTSR, iocurrent);
 8001ed2:	4d27      	ldr	r5, [pc, #156]	; (8001f70 <HAL_GPIO_Init+0x1d4>)
 8001ed4:	68ac      	ldr	r4, [r5, #8]
 8001ed6:	431c      	orrs	r4, r3
 8001ed8:	60ac      	str	r4, [r5, #8]
        {
          CLEAR_BIT(EXTI->RTSR, iocurrent);
        }

        /* Enable or disable the falling trigger */
        if ((GPIO_Init->Mode & FALLING_EDGE) == FALLING_EDGE)
 8001eda:	684c      	ldr	r4, [r1, #4]
 8001edc:	f414 1f00 	tst.w	r4, #2097152	; 0x200000
 8001ee0:	d033      	beq.n	8001f4a <HAL_GPIO_Init+0x1ae>
        {
          SET_BIT(EXTI->FTSR, iocurrent);
 8001ee2:	4d23      	ldr	r5, [pc, #140]	; (8001f70 <HAL_GPIO_Init+0x1d4>)
 8001ee4:	68ec      	ldr	r4, [r5, #12]
 8001ee6:	4323      	orrs	r3, r4
 8001ee8:	60eb      	str	r3, [r5, #12]
          CLEAR_BIT(EXTI->FTSR, iocurrent);
        }
      }
    }

	position++;
 8001eea:	3201      	adds	r2, #1
  while (((GPIO_Init->Pin) >> position) != 0x00u)
 8001eec:	680b      	ldr	r3, [r1, #0]
 8001eee:	fa33 f402 	lsrs.w	r4, r3, r2
 8001ef2:	d030      	beq.n	8001f56 <HAL_GPIO_Init+0x1ba>
    ioposition = (0x01uL << position);
 8001ef4:	2401      	movs	r4, #1
 8001ef6:	4094      	lsls	r4, r2
    iocurrent = (uint32_t)(GPIO_Init->Pin) & ioposition;
 8001ef8:	4023      	ands	r3, r4
    if (iocurrent == ioposition)
 8001efa:	429c      	cmp	r4, r3
 8001efc:	d1f5      	bne.n	8001eea <HAL_GPIO_Init+0x14e>
      switch (GPIO_Init->Mode)
 8001efe:	684d      	ldr	r5, [r1, #4]
 8001f00:	2d12      	cmp	r5, #18
 8001f02:	d0b7      	beq.n	8001e74 <HAL_GPIO_Init+0xd8>
 8001f04:	d894      	bhi.n	8001e30 <HAL_GPIO_Init+0x94>
 8001f06:	2d02      	cmp	r5, #2
 8001f08:	d0b1      	beq.n	8001e6e <HAL_GPIO_Init+0xd2>
 8001f0a:	f67f af4c 	bls.w	8001da6 <HAL_GPIO_Init+0xa>
 8001f0e:	2d03      	cmp	r5, #3
 8001f10:	d0b6      	beq.n	8001e80 <HAL_GPIO_Init+0xe4>
 8001f12:	2d11      	cmp	r5, #17
 8001f14:	f47f af4c 	bne.w	8001db0 <HAL_GPIO_Init+0x14>
          config = GPIO_Init->Speed + GPIO_CR_CNF_GP_OUTPUT_OD;
 8001f18:	68ce      	ldr	r6, [r1, #12]
 8001f1a:	3604      	adds	r6, #4
          break;
 8001f1c:	e748      	b.n	8001db0 <HAL_GPIO_Init+0x14>
        SET_BIT(temp, (GPIO_GET_INDEX(GPIOx)) << (4u * (position & 0x03u)));
 8001f1e:	2401      	movs	r4, #1
 8001f20:	e7bc      	b.n	8001e9c <HAL_GPIO_Init+0x100>
 8001f22:	2402      	movs	r4, #2
 8001f24:	e7ba      	b.n	8001e9c <HAL_GPIO_Init+0x100>
          CLEAR_BIT(EXTI->IMR, iocurrent);
 8001f26:	4d12      	ldr	r5, [pc, #72]	; (8001f70 <HAL_GPIO_Init+0x1d4>)
 8001f28:	682c      	ldr	r4, [r5, #0]
 8001f2a:	ea24 0403 	bic.w	r4, r4, r3
 8001f2e:	602c      	str	r4, [r5, #0]
 8001f30:	e7c3      	b.n	8001eba <HAL_GPIO_Init+0x11e>
          CLEAR_BIT(EXTI->EMR, iocurrent);
 8001f32:	4d0f      	ldr	r5, [pc, #60]	; (8001f70 <HAL_GPIO_Init+0x1d4>)
 8001f34:	686c      	ldr	r4, [r5, #4]
 8001f36:	ea24 0403 	bic.w	r4, r4, r3
 8001f3a:	606c      	str	r4, [r5, #4]
 8001f3c:	e7c5      	b.n	8001eca <HAL_GPIO_Init+0x12e>
          CLEAR_BIT(EXTI->RTSR, iocurrent);
 8001f3e:	4d0c      	ldr	r5, [pc, #48]	; (8001f70 <HAL_GPIO_Init+0x1d4>)
 8001f40:	68ac      	ldr	r4, [r5, #8]
 8001f42:	ea24 0403 	bic.w	r4, r4, r3
 8001f46:	60ac      	str	r4, [r5, #8]
 8001f48:	e7c7      	b.n	8001eda <HAL_GPIO_Init+0x13e>
          CLEAR_BIT(EXTI->FTSR, iocurrent);
 8001f4a:	4d09      	ldr	r5, [pc, #36]	; (8001f70 <HAL_GPIO_Init+0x1d4>)
 8001f4c:	68ec      	ldr	r4, [r5, #12]
 8001f4e:	ea24 0303 	bic.w	r3, r4, r3
 8001f52:	60eb      	str	r3, [r5, #12]
 8001f54:	e7c9      	b.n	8001eea <HAL_GPIO_Init+0x14e>
  }
}
 8001f56:	b002      	add	sp, #8
 8001f58:	bcf0      	pop	{r4, r5, r6, r7}
 8001f5a:	4770      	bx	lr
 8001f5c:	40021000 	.word	0x40021000
 8001f60:	40010000 	.word	0x40010000
 8001f64:	40010800 	.word	0x40010800
 8001f68:	10210000 	.word	0x10210000
 8001f6c:	10310000 	.word	0x10310000
 8001f70:	40010400 	.word	0x40010400

08001f74 <HAL_GPIO_ReadPin>:
  GPIO_PinState bitstatus;

  /* Check the parameters */
  assert_param(IS_GPIO_PIN(GPIO_Pin));

  if ((GPIOx->IDR & GPIO_Pin) != (uint32_t)GPIO_PIN_RESET)
 8001f74:	6883      	ldr	r3, [r0, #8]
 8001f76:	4219      	tst	r1, r3
 8001f78:	d101      	bne.n	8001f7e <HAL_GPIO_ReadPin+0xa>
  {
    bitstatus = GPIO_PIN_SET;
  }
  else
  {
    bitstatus = GPIO_PIN_RESET;
 8001f7a:	2000      	movs	r0, #0
  }
  return bitstatus;
}
 8001f7c:	4770      	bx	lr
    bitstatus = GPIO_PIN_SET;
 8001f7e:	2001      	movs	r0, #1
 8001f80:	4770      	bx	lr

08001f82 <HAL_GPIO_WritePin>:
{
  /* Check the parameters */
  assert_param(IS_GPIO_PIN(GPIO_Pin));
  assert_param(IS_GPIO_PIN_ACTION(PinState));

  if (PinState != GPIO_PIN_RESET)
 8001f82:	b912      	cbnz	r2, 8001f8a <HAL_GPIO_WritePin+0x8>
  {
    GPIOx->BSRR = GPIO_Pin;
  }
  else
  {
    GPIOx->BSRR = (uint32_t)GPIO_Pin << 16u;
 8001f84:	0409      	lsls	r1, r1, #16
 8001f86:	6101      	str	r1, [r0, #16]
  }
}
 8001f88:	4770      	bx	lr
    GPIOx->BSRR = GPIO_Pin;
 8001f8a:	6101      	str	r1, [r0, #16]
 8001f8c:	4770      	bx	lr

08001f8e <HAL_PCD_SetAddress>:
  * @param  address new device address
  * @retval HAL status
  */
HAL_StatusTypeDef HAL_PCD_SetAddress(PCD_HandleTypeDef *hpcd, uint8_t address)
{
  __HAL_LOCK(hpcd);
 8001f8e:	f890 3228 	ldrb.w	r3, [r0, #552]	; 0x228
 8001f92:	2b01      	cmp	r3, #1
 8001f94:	d00d      	beq.n	8001fb2 <HAL_PCD_SetAddress+0x24>
{
 8001f96:	b510      	push	{r4, lr}
 8001f98:	4604      	mov	r4, r0
  __HAL_LOCK(hpcd);
 8001f9a:	2301      	movs	r3, #1
 8001f9c:	f880 3228 	strb.w	r3, [r0, #552]	; 0x228
  hpcd->USB_Address = address;
 8001fa0:	f880 1024 	strb.w	r1, [r0, #36]	; 0x24
  (void)USB_SetDevAddress(hpcd->Instance, address);
 8001fa4:	6800      	ldr	r0, [r0, #0]
 8001fa6:	f002 f8ca 	bl	800413e <USB_SetDevAddress>
  __HAL_UNLOCK(hpcd);
 8001faa:	2000      	movs	r0, #0
 8001fac:	f884 0228 	strb.w	r0, [r4, #552]	; 0x228
  return HAL_OK;
}
 8001fb0:	bd10      	pop	{r4, pc}
  __HAL_LOCK(hpcd);
 8001fb2:	2002      	movs	r0, #2
}
 8001fb4:	4770      	bx	lr

08001fb6 <HAL_PCD_EP_Open>:
  * @param  ep_mps endpoint max packet size
  * @param  ep_type endpoint type
  * @retval HAL status
  */
HAL_StatusTypeDef HAL_PCD_EP_Open(PCD_HandleTypeDef *hpcd, uint8_t ep_addr, uint16_t ep_mps, uint8_t ep_type)
{
 8001fb6:	b570      	push	{r4, r5, r6, lr}
  HAL_StatusTypeDef  ret = HAL_OK;
  PCD_EPTypeDef *ep;

  if ((ep_addr & 0x80U) == 0x80U)
 8001fb8:	f011 0f80 	tst.w	r1, #128	; 0x80
 8001fbc:	d123      	bne.n	8002006 <HAL_PCD_EP_Open+0x50>
    ep = &hpcd->IN_ep[ep_addr & EP_ADDR_MSK];
    ep->is_in = 1U;
  }
  else
  {
    ep = &hpcd->OUT_ep[ep_addr & EP_ADDR_MSK];
 8001fbe:	f001 0507 	and.w	r5, r1, #7
 8001fc2:	016d      	lsls	r5, r5, #5
 8001fc4:	f505 7494 	add.w	r4, r5, #296	; 0x128
 8001fc8:	4404      	add	r4, r0
    ep->is_in = 0U;
 8001fca:	4405      	add	r5, r0
 8001fcc:	2600      	movs	r6, #0
 8001fce:	f885 6129 	strb.w	r6, [r5, #297]	; 0x129
  }

  ep->num = ep_addr & EP_ADDR_MSK;
 8001fd2:	f001 0107 	and.w	r1, r1, #7
 8001fd6:	7021      	strb	r1, [r4, #0]
  ep->maxpacket = ep_mps;
 8001fd8:	6122      	str	r2, [r4, #16]
  ep->type = ep_type;
 8001fda:	70e3      	strb	r3, [r4, #3]

  if (ep->is_in != 0U)
 8001fdc:	7862      	ldrb	r2, [r4, #1]
 8001fde:	b102      	cbz	r2, 8001fe2 <HAL_PCD_EP_Open+0x2c>
  {
    /* Assign a Tx FIFO */
    ep->tx_fifo_num = ep->num;
 8001fe0:	81e1      	strh	r1, [r4, #14]
  }
  /* Set initial data PID. */
  if (ep_type == EP_TYPE_BULK)
 8001fe2:	2b02      	cmp	r3, #2
 8001fe4:	d01a      	beq.n	800201c <HAL_PCD_EP_Open+0x66>
  {
    ep->data_pid_start = 0U;
  }

  __HAL_LOCK(hpcd);
 8001fe6:	f890 3228 	ldrb.w	r3, [r0, #552]	; 0x228
 8001fea:	2b01      	cmp	r3, #1
 8001fec:	d019      	beq.n	8002022 <HAL_PCD_EP_Open+0x6c>
 8001fee:	4605      	mov	r5, r0
 8001ff0:	2301      	movs	r3, #1
 8001ff2:	f880 3228 	strb.w	r3, [r0, #552]	; 0x228
  (void)USB_ActivateEndpoint(hpcd->Instance, ep);
 8001ff6:	4621      	mov	r1, r4
 8001ff8:	6800      	ldr	r0, [r0, #0]
 8001ffa:	f001 fe76 	bl	8003cea <USB_ActivateEndpoint>
  __HAL_UNLOCK(hpcd);
 8001ffe:	2000      	movs	r0, #0
 8002000:	f885 0228 	strb.w	r0, [r5, #552]	; 0x228

  return ret;
}
 8002004:	bd70      	pop	{r4, r5, r6, pc}
    ep = &hpcd->IN_ep[ep_addr & EP_ADDR_MSK];
 8002006:	f001 0507 	and.w	r5, r1, #7
 800200a:	016d      	lsls	r5, r5, #5
 800200c:	f105 0428 	add.w	r4, r5, #40	; 0x28
 8002010:	4404      	add	r4, r0
    ep->is_in = 1U;
 8002012:	4405      	add	r5, r0
 8002014:	2601      	movs	r6, #1
 8002016:	f885 6029 	strb.w	r6, [r5, #41]	; 0x29
 800201a:	e7da      	b.n	8001fd2 <HAL_PCD_EP_Open+0x1c>
    ep->data_pid_start = 0U;
 800201c:	2300      	movs	r3, #0
 800201e:	7123      	strb	r3, [r4, #4]
 8002020:	e7e1      	b.n	8001fe6 <HAL_PCD_EP_Open+0x30>
  __HAL_LOCK(hpcd);
 8002022:	2002      	movs	r0, #2
 8002024:	e7ee      	b.n	8002004 <HAL_PCD_EP_Open+0x4e>

08002026 <HAL_PCD_EP_Receive>:
  * @param  pBuf pointer to the reception buffer
  * @param  len amount of data to be received
  * @retval HAL status
  */
HAL_StatusTypeDef HAL_PCD_EP_Receive(PCD_HandleTypeDef *hpcd, uint8_t ep_addr, uint8_t *pBuf, uint32_t len)
{
 8002026:	b570      	push	{r4, r5, r6, lr}
 8002028:	f001 0507 	and.w	r5, r1, #7
  PCD_EPTypeDef *ep;

  ep = &hpcd->OUT_ep[ep_addr & EP_ADDR_MSK];
 800202c:	016c      	lsls	r4, r5, #5
 800202e:	f504 7194 	add.w	r1, r4, #296	; 0x128
 8002032:	4401      	add	r1, r0

  /*setup and start the Xfer */
  ep->xfer_buff = pBuf;
 8002034:	4404      	add	r4, r0
 8002036:	f8c4 213c 	str.w	r2, [r4, #316]	; 0x13c
  ep->xfer_len = len;
 800203a:	f105 020a 	add.w	r2, r5, #10
 800203e:	0152      	lsls	r2, r2, #5
 8002040:	1886      	adds	r6, r0, r2
 8002042:	5083      	str	r3, [r0, r2]
  ep->xfer_count = 0U;
 8002044:	2300      	movs	r3, #0
 8002046:	6073      	str	r3, [r6, #4]
  ep->is_in = 0U;
 8002048:	f884 3129 	strb.w	r3, [r4, #297]	; 0x129
  ep->num = ep_addr & EP_ADDR_MSK;
 800204c:	f884 5128 	strb.w	r5, [r4, #296]	; 0x128

  if ((ep_addr & EP_ADDR_MSK) == 0U)
 8002050:	b125      	cbz	r5, 800205c <HAL_PCD_EP_Receive+0x36>
  {
    (void)USB_EP0StartXfer(hpcd->Instance, ep);
  }
  else
  {
    (void)USB_EPStartXfer(hpcd->Instance, ep);
 8002052:	6800      	ldr	r0, [r0, #0]
 8002054:	f002 f893 	bl	800417e <USB_EPStartXfer>
  }

  return HAL_OK;
}
 8002058:	2000      	movs	r0, #0
 800205a:	bd70      	pop	{r4, r5, r6, pc}
    (void)USB_EP0StartXfer(hpcd->Instance, ep);
 800205c:	6800      	ldr	r0, [r0, #0]
 800205e:	f002 f88e 	bl	800417e <USB_EPStartXfer>
 8002062:	e7f9      	b.n	8002058 <HAL_PCD_EP_Receive+0x32>

08002064 <HAL_PCD_EP_Transmit>:
  * @param  pBuf pointer to the transmission buffer
  * @param  len amount of data to be sent
  * @retval HAL status
  */
HAL_StatusTypeDef HAL_PCD_EP_Transmit(PCD_HandleTypeDef *hpcd, uint8_t ep_addr, uint8_t *pBuf, uint32_t len)
{
 8002064:	b570      	push	{r4, r5, r6, lr}
 8002066:	f001 0507 	and.w	r5, r1, #7
  PCD_EPTypeDef *ep;

  ep = &hpcd->IN_ep[ep_addr & EP_ADDR_MSK];
 800206a:	016c      	lsls	r4, r5, #5
 800206c:	f104 0128 	add.w	r1, r4, #40	; 0x28
 8002070:	4401      	add	r1, r0

  /*setup and start the Xfer */
  ep->xfer_buff = pBuf;
 8002072:	4404      	add	r4, r0
 8002074:	63e2      	str	r2, [r4, #60]	; 0x3c
  ep->xfer_len = len;
 8002076:	1caa      	adds	r2, r5, #2
 8002078:	0152      	lsls	r2, r2, #5
 800207a:	1886      	adds	r6, r0, r2
 800207c:	5083      	str	r3, [r0, r2]
  ep->xfer_count = 0U;
 800207e:	2300      	movs	r3, #0
 8002080:	6073      	str	r3, [r6, #4]
  ep->is_in = 1U;
 8002082:	2301      	movs	r3, #1
 8002084:	f884 3029 	strb.w	r3, [r4, #41]	; 0x29
  ep->num = ep_addr & EP_ADDR_MSK;
 8002088:	f884 5028 	strb.w	r5, [r4, #40]	; 0x28

  if ((ep_addr & EP_ADDR_MSK) == 0U)
 800208c:	b125      	cbz	r5, 8002098 <HAL_PCD_EP_Transmit+0x34>
  {
    (void)USB_EP0StartXfer(hpcd->Instance, ep);
  }
  else
  {
    (void)USB_EPStartXfer(hpcd->Instance, ep);
 800208e:	6800      	ldr	r0, [r0, #0]
 8002090:	f002 f875 	bl	800417e <USB_EPStartXfer>
  }

  return HAL_OK;
}
 8002094:	2000      	movs	r0, #0
 8002096:	bd70      	pop	{r4, r5, r6, pc}
    (void)USB_EP0StartXfer(hpcd->Instance, ep);
 8002098:	6800      	ldr	r0, [r0, #0]
 800209a:	f002 f870 	bl	800417e <USB_EPStartXfer>
 800209e:	e7f9      	b.n	8002094 <HAL_PCD_EP_Transmit+0x30>

080020a0 <PCD_EP_ISR_Handler>:
  * @brief  This function handles PCD Endpoint interrupt request.
  * @param  hpcd PCD handle
  * @retval HAL status
  */
static HAL_StatusTypeDef PCD_EP_ISR_Handler(PCD_HandleTypeDef *hpcd)
{
 80020a0:	b5f8      	push	{r3, r4, r5, r6, r7, lr}
 80020a2:	4604      	mov	r4, r0
  uint16_t wIstr;
  uint16_t wEPVal;
  uint8_t epindex;

  /* stay in loop while pending interrupts */
  while ((hpcd->Instance->ISTR & USB_ISTR_CTR) != 0U)
 80020a4:	6820      	ldr	r0, [r4, #0]
 80020a6:	f8b0 3044 	ldrh.w	r3, [r0, #68]	; 0x44
 80020aa:	f413 4f00 	tst.w	r3, #32768	; 0x8000
 80020ae:	f000 81ad 	beq.w	800240c <PCD_EP_ISR_Handler+0x36c>
  {
    wIstr = hpcd->Instance->ISTR;
 80020b2:	f8b0 3044 	ldrh.w	r3, [r0, #68]	; 0x44
 80020b6:	b29b      	uxth	r3, r3
    /* extract highest priority endpoint number */
    epindex = (uint8_t)(wIstr & USB_ISTR_EP_ID);

    if (epindex == 0U)
 80020b8:	f013 050f 	ands.w	r5, r3, #15
 80020bc:	f040 80cd 	bne.w	800225a <PCD_EP_ISR_Handler+0x1ba>
    {
      /* Decode and service control endpoint interrupt */

      /* DIR bit = origin of the interrupt */
      if ((wIstr & USB_ISTR_DIR) == 0U)
 80020c0:	f013 0f10 	tst.w	r3, #16
 80020c4:	d058      	beq.n	8002178 <PCD_EP_ISR_Handler+0xd8>
        /* DIR = 1 */

        /* DIR = 1 & CTR_RX       => SETUP or OUT int */
        /* DIR = 1 & (CTR_TX | CTR_RX) => 2 int pending */
        ep = &hpcd->OUT_ep[0];
        wEPVal = PCD_GET_ENDPOINT(hpcd->Instance, PCD_ENDP0);
 80020c6:	8803      	ldrh	r3, [r0, #0]
 80020c8:	b29b      	uxth	r3, r3

        if ((wEPVal & USB_EP_SETUP) != 0U)
 80020ca:	f413 6f00 	tst.w	r3, #2048	; 0x800
 80020ce:	f040 8089 	bne.w	80021e4 <PCD_EP_ISR_Handler+0x144>
#else
          HAL_PCD_SetupStageCallback(hpcd);
#endif /* USE_HAL_PCD_REGISTER_CALLBACKS */
        }

        else if ((wEPVal & USB_EP_CTR_RX) != 0U)
 80020d2:	f413 4f00 	tst.w	r3, #32768	; 0x8000
 80020d6:	d0e5      	beq.n	80020a4 <PCD_EP_ISR_Handler+0x4>
        {
          PCD_CLEAR_RX_EP_CTR(hpcd->Instance, PCD_ENDP0);
 80020d8:	8803      	ldrh	r3, [r0, #0]
 80020da:	f023 0370 	bic.w	r3, r3, #112	; 0x70
 80020de:	051b      	lsls	r3, r3, #20
 80020e0:	0d1b      	lsrs	r3, r3, #20
 80020e2:	f043 0380 	orr.w	r3, r3, #128	; 0x80
 80020e6:	8003      	strh	r3, [r0, #0]

          /* Get Control Data OUT Packet*/
          ep->xfer_count = PCD_GET_EP_RX_CNT(hpcd->Instance, ep->num);
 80020e8:	6820      	ldr	r0, [r4, #0]
 80020ea:	f8b0 3050 	ldrh.w	r3, [r0, #80]	; 0x50
 80020ee:	f894 2128 	ldrb.w	r2, [r4, #296]	; 0x128
 80020f2:	eb03 03c2 	add.w	r3, r3, r2, lsl #3
 80020f6:	3306      	adds	r3, #6
 80020f8:	eb00 0343 	add.w	r3, r0, r3, lsl #1
 80020fc:	f8b3 3400 	ldrh.w	r3, [r3, #1024]	; 0x400
 8002100:	f3c3 0309 	ubfx	r3, r3, #0, #10
 8002104:	f8c4 3144 	str.w	r3, [r4, #324]	; 0x144

          if ((ep->xfer_count != 0U) && (ep->xfer_buff != 0U))
 8002108:	b18b      	cbz	r3, 800212e <PCD_EP_ISR_Handler+0x8e>
 800210a:	f8d4 113c 	ldr.w	r1, [r4, #316]	; 0x13c
 800210e:	b171      	cbz	r1, 800212e <PCD_EP_ISR_Handler+0x8e>
          {
            USB_ReadPMA(hpcd->Instance, ep->xfer_buff,
 8002110:	f8b4 212e 	ldrh.w	r2, [r4, #302]	; 0x12e
 8002114:	f002 f9c3 	bl	800449e <USB_ReadPMA>
                        ep->pmaadress, (uint16_t)ep->xfer_count);

            ep->xfer_buff += ep->xfer_count;
 8002118:	f8d4 2144 	ldr.w	r2, [r4, #324]	; 0x144
 800211c:	f8d4 313c 	ldr.w	r3, [r4, #316]	; 0x13c
 8002120:	4413      	add	r3, r2
 8002122:	f8c4 313c 	str.w	r3, [r4, #316]	; 0x13c

            /* Process Control Data OUT Packet*/
#if (USE_HAL_PCD_REGISTER_CALLBACKS == 1U)
            hpcd->DataOutStageCallback(hpcd, 0U);
#else
            HAL_PCD_DataOutStageCallback(hpcd, 0U);
 8002126:	2100      	movs	r1, #0
 8002128:	4620      	mov	r0, r4
 800212a:	f005 fcf4 	bl	8007b16 <HAL_PCD_DataOutStageCallback>
#endif /* USE_HAL_PCD_REGISTER_CALLBACKS */
          }

          PCD_SET_EP_RX_CNT(hpcd->Instance, PCD_ENDP0, ep->maxpacket);
 800212e:	6823      	ldr	r3, [r4, #0]
 8002130:	f8b3 2050 	ldrh.w	r2, [r3, #80]	; 0x50
 8002134:	4413      	add	r3, r2
 8002136:	f8d4 2138 	ldr.w	r2, [r4, #312]	; 0x138
 800213a:	2a00      	cmp	r2, #0
 800213c:	d174      	bne.n	8002228 <PCD_EP_ISR_Handler+0x188>
 800213e:	f8b3 240c 	ldrh.w	r2, [r3, #1036]	; 0x40c
 8002142:	b292      	uxth	r2, r2
 8002144:	f422 42f8 	bic.w	r2, r2, #31744	; 0x7c00
 8002148:	b292      	uxth	r2, r2
 800214a:	f8a3 240c 	strh.w	r2, [r3, #1036]	; 0x40c
 800214e:	f8b3 240c 	ldrh.w	r2, [r3, #1036]	; 0x40c
 8002152:	f442 4200 	orr.w	r2, r2, #32768	; 0x8000
 8002156:	f8a3 240c 	strh.w	r2, [r3, #1036]	; 0x40c
          PCD_SET_EP_RX_STATUS(hpcd->Instance, PCD_ENDP0, USB_EP_RX_VALID);
 800215a:	6822      	ldr	r2, [r4, #0]
 800215c:	8813      	ldrh	r3, [r2, #0]
 800215e:	b29b      	uxth	r3, r3
 8002160:	f423 4380 	bic.w	r3, r3, #16384	; 0x4000
 8002164:	f023 0370 	bic.w	r3, r3, #112	; 0x70
 8002168:	f483 5340 	eor.w	r3, r3, #12288	; 0x3000
 800216c:	f443 4300 	orr.w	r3, r3, #32768	; 0x8000
 8002170:	f043 0380 	orr.w	r3, r3, #128	; 0x80
 8002174:	8013      	strh	r3, [r2, #0]
 8002176:	e795      	b.n	80020a4 <PCD_EP_ISR_Handler+0x4>
        PCD_CLEAR_TX_EP_CTR(hpcd->Instance, PCD_ENDP0);
 8002178:	8803      	ldrh	r3, [r0, #0]
 800217a:	b29b      	uxth	r3, r3
 800217c:	f423 43e1 	bic.w	r3, r3, #28800	; 0x7080
 8002180:	f023 0370 	bic.w	r3, r3, #112	; 0x70
 8002184:	ea6f 4343 	mvn.w	r3, r3, lsl #17
 8002188:	ea6f 4353 	mvn.w	r3, r3, lsr #17
 800218c:	b29b      	uxth	r3, r3
 800218e:	8003      	strh	r3, [r0, #0]
        ep->xfer_count = PCD_GET_EP_TX_CNT(hpcd->Instance, ep->num);
 8002190:	6822      	ldr	r2, [r4, #0]
 8002192:	f8b2 3050 	ldrh.w	r3, [r2, #80]	; 0x50
 8002196:	f894 1028 	ldrb.w	r1, [r4, #40]	; 0x28
 800219a:	eb03 03c1 	add.w	r3, r3, r1, lsl #3
 800219e:	3302      	adds	r3, #2
 80021a0:	eb02 0343 	add.w	r3, r2, r3, lsl #1
 80021a4:	f8b3 3400 	ldrh.w	r3, [r3, #1024]	; 0x400
 80021a8:	f3c3 0309 	ubfx	r3, r3, #0, #10
 80021ac:	6463      	str	r3, [r4, #68]	; 0x44
        ep->xfer_buff += ep->xfer_count;
 80021ae:	6be2      	ldr	r2, [r4, #60]	; 0x3c
 80021b0:	4413      	add	r3, r2
 80021b2:	63e3      	str	r3, [r4, #60]	; 0x3c
        HAL_PCD_DataInStageCallback(hpcd, 0U);
 80021b4:	2100      	movs	r1, #0
 80021b6:	4620      	mov	r0, r4
 80021b8:	f005 fcb7 	bl	8007b2a <HAL_PCD_DataInStageCallback>
        if ((hpcd->USB_Address > 0U) && (ep->xfer_len == 0U))
 80021bc:	f894 3024 	ldrb.w	r3, [r4, #36]	; 0x24
 80021c0:	2b00      	cmp	r3, #0
 80021c2:	f43f af6f 	beq.w	80020a4 <PCD_EP_ISR_Handler+0x4>
 80021c6:	6c23      	ldr	r3, [r4, #64]	; 0x40
 80021c8:	2b00      	cmp	r3, #0
 80021ca:	f47f af6b 	bne.w	80020a4 <PCD_EP_ISR_Handler+0x4>
          hpcd->Instance->DADDR = ((uint16_t)hpcd->USB_Address | USB_DADDR_EF);
 80021ce:	f894 3024 	ldrb.w	r3, [r4, #36]	; 0x24
 80021d2:	6822      	ldr	r2, [r4, #0]
 80021d4:	f043 0380 	orr.w	r3, r3, #128	; 0x80
 80021d8:	f8a2 304c 	strh.w	r3, [r2, #76]	; 0x4c
          hpcd->USB_Address = 0U;
 80021dc:	2300      	movs	r3, #0
 80021de:	f884 3024 	strb.w	r3, [r4, #36]	; 0x24
 80021e2:	e75f      	b.n	80020a4 <PCD_EP_ISR_Handler+0x4>
          ep->xfer_count = PCD_GET_EP_RX_CNT(hpcd->Instance, ep->num);
 80021e4:	f8b0 3050 	ldrh.w	r3, [r0, #80]	; 0x50
 80021e8:	f894 2128 	ldrb.w	r2, [r4, #296]	; 0x128
 80021ec:	eb03 03c2 	add.w	r3, r3, r2, lsl #3
 80021f0:	3306      	adds	r3, #6
 80021f2:	eb00 0343 	add.w	r3, r0, r3, lsl #1
 80021f6:	f8b3 3400 	ldrh.w	r3, [r3, #1024]	; 0x400
 80021fa:	f3c3 0309 	ubfx	r3, r3, #0, #10
 80021fe:	f8c4 3144 	str.w	r3, [r4, #324]	; 0x144
          USB_ReadPMA(hpcd->Instance, (uint8_t *)hpcd->Setup,
 8002202:	f8b4 212e 	ldrh.w	r2, [r4, #302]	; 0x12e
 8002206:	f504 710c 	add.w	r1, r4, #560	; 0x230
 800220a:	f002 f948 	bl	800449e <USB_ReadPMA>
          PCD_CLEAR_RX_EP_CTR(hpcd->Instance, PCD_ENDP0);
 800220e:	6822      	ldr	r2, [r4, #0]
 8002210:	8813      	ldrh	r3, [r2, #0]
 8002212:	f023 0370 	bic.w	r3, r3, #112	; 0x70
 8002216:	051b      	lsls	r3, r3, #20
 8002218:	0d1b      	lsrs	r3, r3, #20
 800221a:	f043 0380 	orr.w	r3, r3, #128	; 0x80
 800221e:	8013      	strh	r3, [r2, #0]
          HAL_PCD_SetupStageCallback(hpcd);
 8002220:	4620      	mov	r0, r4
 8002222:	f005 fc70 	bl	8007b06 <HAL_PCD_SetupStageCallback>
 8002226:	e73d      	b.n	80020a4 <PCD_EP_ISR_Handler+0x4>
          PCD_SET_EP_RX_CNT(hpcd->Instance, PCD_ENDP0, ep->maxpacket);
 8002228:	2a3e      	cmp	r2, #62	; 0x3e
 800222a:	d809      	bhi.n	8002240 <PCD_EP_ISR_Handler+0x1a0>
 800222c:	0851      	lsrs	r1, r2, #1
 800222e:	f012 0f01 	tst.w	r2, #1
 8002232:	d000      	beq.n	8002236 <PCD_EP_ISR_Handler+0x196>
 8002234:	3101      	adds	r1, #1
 8002236:	0289      	lsls	r1, r1, #10
 8002238:	b289      	uxth	r1, r1
 800223a:	f8a3 140c 	strh.w	r1, [r3, #1036]	; 0x40c
 800223e:	e78c      	b.n	800215a <PCD_EP_ISR_Handler+0xba>
 8002240:	0951      	lsrs	r1, r2, #5
 8002242:	f012 0f1f 	tst.w	r2, #31
 8002246:	d100      	bne.n	800224a <PCD_EP_ISR_Handler+0x1aa>
 8002248:	3901      	subs	r1, #1
 800224a:	ea6f 62c1 	mvn.w	r2, r1, lsl #27
 800224e:	ea6f 4252 	mvn.w	r2, r2, lsr #17
 8002252:	b292      	uxth	r2, r2
 8002254:	f8a3 240c 	strh.w	r2, [r3, #1036]	; 0x40c
 8002258:	e77f      	b.n	800215a <PCD_EP_ISR_Handler+0xba>
    else
    {
      /* Decode and service non control endpoints interrupt  */

      /* process related endpoint register */
      wEPVal = PCD_GET_ENDPOINT(hpcd->Instance, epindex);
 800225a:	f830 6025 	ldrh.w	r6, [r0, r5, lsl #2]
 800225e:	b2b6      	uxth	r6, r6
      if ((wEPVal & USB_EP_CTR_RX) != 0U)
 8002260:	f416 4f00 	tst.w	r6, #32768	; 0x8000
 8002264:	d133      	bne.n	80022ce <PCD_EP_ISR_Handler+0x22e>
          (void)HAL_PCD_EP_Receive(hpcd, ep->num, ep->xfer_buff, ep->xfer_len);
        }

      } /* if((wEPVal & EP_CTR_RX) */

      if ((wEPVal & USB_EP_CTR_TX) != 0U)
 8002266:	f016 0f80 	tst.w	r6, #128	; 0x80
 800226a:	f43f af1b 	beq.w	80020a4 <PCD_EP_ISR_Handler+0x4>
      {
        ep = &hpcd->IN_ep[epindex];

        /* clear int flag */
        PCD_CLEAR_TX_EP_CTR(hpcd->Instance, epindex);
 800226e:	6822      	ldr	r2, [r4, #0]
 8002270:	f832 3025 	ldrh.w	r3, [r2, r5, lsl #2]
 8002274:	b29b      	uxth	r3, r3
 8002276:	f423 43e1 	bic.w	r3, r3, #28800	; 0x7080
 800227a:	f023 0370 	bic.w	r3, r3, #112	; 0x70
 800227e:	ea6f 4343 	mvn.w	r3, r3, lsl #17
 8002282:	ea6f 4353 	mvn.w	r3, r3, lsr #17
 8002286:	b29b      	uxth	r3, r3
 8002288:	f822 3025 	strh.w	r3, [r2, r5, lsl #2]

        /*multi-packet on the NON control IN endpoint*/
        ep->xfer_count = PCD_GET_EP_TX_CNT(hpcd->Instance, ep->num);
 800228c:	6822      	ldr	r2, [r4, #0]
 800228e:	f8b2 3050 	ldrh.w	r3, [r2, #80]	; 0x50
 8002292:	eb04 1045 	add.w	r0, r4, r5, lsl #5
 8002296:	f890 1028 	ldrb.w	r1, [r0, #40]	; 0x28
 800229a:	eb03 03c1 	add.w	r3, r3, r1, lsl #3
 800229e:	3302      	adds	r3, #2
 80022a0:	eb02 0343 	add.w	r3, r2, r3, lsl #1
 80022a4:	f8b3 2400 	ldrh.w	r2, [r3, #1024]	; 0x400
 80022a8:	f3c2 0209 	ubfx	r2, r2, #0, #10
 80022ac:	1cab      	adds	r3, r5, #2
 80022ae:	015b      	lsls	r3, r3, #5
 80022b0:	18e1      	adds	r1, r4, r3
 80022b2:	604a      	str	r2, [r1, #4]
        ep->xfer_buff += ep->xfer_count;
 80022b4:	6bc1      	ldr	r1, [r0, #60]	; 0x3c
 80022b6:	440a      	add	r2, r1
 80022b8:	63c2      	str	r2, [r0, #60]	; 0x3c

        /* Zero Length Packet? */
        if (ep->xfer_len == 0U)
 80022ba:	58e3      	ldr	r3, [r4, r3]
 80022bc:	2b00      	cmp	r3, #0
 80022be:	f040 809d 	bne.w	80023fc <PCD_EP_ISR_Handler+0x35c>
        {
          /* TX COMPLETE */
#if (USE_HAL_PCD_REGISTER_CALLBACKS == 1U)
          hpcd->DataInStageCallback(hpcd, ep->num);
#else
          HAL_PCD_DataInStageCallback(hpcd, ep->num);
 80022c2:	f890 1028 	ldrb.w	r1, [r0, #40]	; 0x28
 80022c6:	4620      	mov	r0, r4
 80022c8:	f005 fc2f 	bl	8007b2a <HAL_PCD_DataInStageCallback>
 80022cc:	e6ea      	b.n	80020a4 <PCD_EP_ISR_Handler+0x4>
        PCD_CLEAR_RX_EP_CTR(hpcd->Instance, epindex);
 80022ce:	f830 3025 	ldrh.w	r3, [r0, r5, lsl #2]
 80022d2:	f023 0370 	bic.w	r3, r3, #112	; 0x70
 80022d6:	051b      	lsls	r3, r3, #20
 80022d8:	0d1b      	lsrs	r3, r3, #20
 80022da:	f043 0380 	orr.w	r3, r3, #128	; 0x80
 80022de:	f820 3025 	strh.w	r3, [r0, r5, lsl #2]
        if (ep->doublebuffer == 0U)
 80022e2:	eb04 1345 	add.w	r3, r4, r5, lsl #5
 80022e6:	f893 3134 	ldrb.w	r3, [r3, #308]	; 0x134
 80022ea:	b9d3      	cbnz	r3, 8002322 <PCD_EP_ISR_Handler+0x282>
          count = (uint16_t)PCD_GET_EP_RX_CNT(hpcd->Instance, ep->num);
 80022ec:	6820      	ldr	r0, [r4, #0]
 80022ee:	f8b0 3050 	ldrh.w	r3, [r0, #80]	; 0x50
 80022f2:	eb04 1245 	add.w	r2, r4, r5, lsl #5
 80022f6:	f892 2128 	ldrb.w	r2, [r2, #296]	; 0x128
 80022fa:	eb03 03c2 	add.w	r3, r3, r2, lsl #3
 80022fe:	3306      	adds	r3, #6
 8002300:	eb00 0343 	add.w	r3, r0, r3, lsl #1
 8002304:	f8b3 7400 	ldrh.w	r7, [r3, #1024]	; 0x400
 8002308:	f3c7 0709 	ubfx	r7, r7, #0, #10
          if (count != 0U)
 800230c:	b38f      	cbz	r7, 8002372 <PCD_EP_ISR_Handler+0x2d2>
            USB_ReadPMA(hpcd->Instance, ep->xfer_buff, ep->pmaadress, count);
 800230e:	eb04 1145 	add.w	r1, r4, r5, lsl #5
 8002312:	463b      	mov	r3, r7
 8002314:	f8b1 212e 	ldrh.w	r2, [r1, #302]	; 0x12e
 8002318:	f8d1 113c 	ldr.w	r1, [r1, #316]	; 0x13c
 800231c:	f002 f8bf 	bl	800449e <USB_ReadPMA>
 8002320:	e027      	b.n	8002372 <PCD_EP_ISR_Handler+0x2d2>
          if ((PCD_GET_ENDPOINT(hpcd->Instance, ep->num) & USB_EP_DTOG_RX) != 0U)
 8002322:	6820      	ldr	r0, [r4, #0]
 8002324:	eb04 1345 	add.w	r3, r4, r5, lsl #5
 8002328:	f893 2128 	ldrb.w	r2, [r3, #296]	; 0x128
 800232c:	f830 3022 	ldrh.w	r3, [r0, r2, lsl #2]
 8002330:	f413 4f80 	tst.w	r3, #16384	; 0x4000
 8002334:	d043      	beq.n	80023be <PCD_EP_ISR_Handler+0x31e>
            count = (uint16_t)PCD_GET_EP_DBUF0_CNT(hpcd->Instance, ep->num);
 8002336:	f8b0 3050 	ldrh.w	r3, [r0, #80]	; 0x50
 800233a:	eb03 03c2 	add.w	r3, r3, r2, lsl #3
 800233e:	3302      	adds	r3, #2
 8002340:	eb00 0343 	add.w	r3, r0, r3, lsl #1
 8002344:	f8b3 7400 	ldrh.w	r7, [r3, #1024]	; 0x400
 8002348:	f3c7 0709 	ubfx	r7, r7, #0, #10
            if (count != 0U)
 800234c:	bb6f      	cbnz	r7, 80023aa <PCD_EP_ISR_Handler+0x30a>
          PCD_FreeUserBuffer(hpcd->Instance, ep->num, 0U);
 800234e:	6822      	ldr	r2, [r4, #0]
 8002350:	eb04 1345 	add.w	r3, r4, r5, lsl #5
 8002354:	f893 1128 	ldrb.w	r1, [r3, #296]	; 0x128
 8002358:	f832 3021 	ldrh.w	r3, [r2, r1, lsl #2]
 800235c:	b29b      	uxth	r3, r3
 800235e:	f423 43e0 	bic.w	r3, r3, #28672	; 0x7000
 8002362:	f023 0370 	bic.w	r3, r3, #112	; 0x70
 8002366:	f443 4300 	orr.w	r3, r3, #32768	; 0x8000
 800236a:	f043 03c0 	orr.w	r3, r3, #192	; 0xc0
 800236e:	f822 3021 	strh.w	r3, [r2, r1, lsl #2]
        ep->xfer_count += count;
 8002372:	f105 030a 	add.w	r3, r5, #10
 8002376:	015b      	lsls	r3, r3, #5
 8002378:	18e1      	adds	r1, r4, r3
 800237a:	684a      	ldr	r2, [r1, #4]
 800237c:	443a      	add	r2, r7
 800237e:	604a      	str	r2, [r1, #4]
        ep->xfer_buff += count;
 8002380:	eb04 1145 	add.w	r1, r4, r5, lsl #5
 8002384:	f8d1 213c 	ldr.w	r2, [r1, #316]	; 0x13c
 8002388:	443a      	add	r2, r7
 800238a:	f8c1 213c 	str.w	r2, [r1, #316]	; 0x13c
        if ((ep->xfer_len == 0U) || (count < ep->maxpacket))
 800238e:	58e3      	ldr	r3, [r4, r3]
 8002390:	b11b      	cbz	r3, 800239a <PCD_EP_ISR_Handler+0x2fa>
 8002392:	f8d1 1138 	ldr.w	r1, [r1, #312]	; 0x138
 8002396:	428f      	cmp	r7, r1
 8002398:	d228      	bcs.n	80023ec <PCD_EP_ISR_Handler+0x34c>
          HAL_PCD_DataOutStageCallback(hpcd, ep->num);
 800239a:	eb04 1345 	add.w	r3, r4, r5, lsl #5
 800239e:	f893 1128 	ldrb.w	r1, [r3, #296]	; 0x128
 80023a2:	4620      	mov	r0, r4
 80023a4:	f005 fbb7 	bl	8007b16 <HAL_PCD_DataOutStageCallback>
 80023a8:	e75d      	b.n	8002266 <PCD_EP_ISR_Handler+0x1c6>
              USB_ReadPMA(hpcd->Instance, ep->xfer_buff, ep->pmaaddr0, count);
 80023aa:	eb04 1145 	add.w	r1, r4, r5, lsl #5
 80023ae:	463b      	mov	r3, r7
 80023b0:	f8b1 2130 	ldrh.w	r2, [r1, #304]	; 0x130
 80023b4:	f8d1 113c 	ldr.w	r1, [r1, #316]	; 0x13c
 80023b8:	f002 f871 	bl	800449e <USB_ReadPMA>
 80023bc:	e7c7      	b.n	800234e <PCD_EP_ISR_Handler+0x2ae>
            count = (uint16_t)PCD_GET_EP_DBUF1_CNT(hpcd->Instance, ep->num);
 80023be:	f8b0 3050 	ldrh.w	r3, [r0, #80]	; 0x50
 80023c2:	eb03 03c2 	add.w	r3, r3, r2, lsl #3
 80023c6:	3306      	adds	r3, #6
 80023c8:	eb00 0343 	add.w	r3, r0, r3, lsl #1
 80023cc:	f8b3 7400 	ldrh.w	r7, [r3, #1024]	; 0x400
 80023d0:	f3c7 0709 	ubfx	r7, r7, #0, #10
            if (count != 0U)
 80023d4:	2f00      	cmp	r7, #0
 80023d6:	d0ba      	beq.n	800234e <PCD_EP_ISR_Handler+0x2ae>
              USB_ReadPMA(hpcd->Instance, ep->xfer_buff, ep->pmaaddr1, count);
 80023d8:	eb04 1145 	add.w	r1, r4, r5, lsl #5
 80023dc:	463b      	mov	r3, r7
 80023de:	f8b1 2132 	ldrh.w	r2, [r1, #306]	; 0x132
 80023e2:	f8d1 113c 	ldr.w	r1, [r1, #316]	; 0x13c
 80023e6:	f002 f85a 	bl	800449e <USB_ReadPMA>
 80023ea:	e7b0      	b.n	800234e <PCD_EP_ISR_Handler+0x2ae>
          (void)HAL_PCD_EP_Receive(hpcd, ep->num, ep->xfer_buff, ep->xfer_len);
 80023ec:	eb04 1145 	add.w	r1, r4, r5, lsl #5
 80023f0:	f891 1128 	ldrb.w	r1, [r1, #296]	; 0x128
 80023f4:	4620      	mov	r0, r4
 80023f6:	f7ff fe16 	bl	8002026 <HAL_PCD_EP_Receive>
 80023fa:	e734      	b.n	8002266 <PCD_EP_ISR_Handler+0x1c6>
#endif /* USE_HAL_PCD_REGISTER_CALLBACKS */
        }
        else
        {
          (void)HAL_PCD_EP_Transmit(hpcd, ep->num, ep->xfer_buff, ep->xfer_len);
 80023fc:	eb04 1545 	add.w	r5, r4, r5, lsl #5
 8002400:	f895 1028 	ldrb.w	r1, [r5, #40]	; 0x28
 8002404:	4620      	mov	r0, r4
 8002406:	f7ff fe2d 	bl	8002064 <HAL_PCD_EP_Transmit>
 800240a:	e64b      	b.n	80020a4 <PCD_EP_ISR_Handler+0x4>
        }
      }
    }
  }
  return HAL_OK;
}
 800240c:	2000      	movs	r0, #0
 800240e:	bdf8      	pop	{r3, r4, r5, r6, r7, pc}

08002410 <HAL_PCD_IRQHandler>:
{
 8002410:	b510      	push	{r4, lr}
 8002412:	4604      	mov	r4, r0
  if (__HAL_PCD_GET_FLAG(hpcd, USB_ISTR_CTR))
 8002414:	6800      	ldr	r0, [r0, #0]
 8002416:	f001 fe98 	bl	800414a <USB_ReadInterrupts>
 800241a:	f410 4f00 	tst.w	r0, #32768	; 0x8000
 800241e:	d145      	bne.n	80024ac <HAL_PCD_IRQHandler+0x9c>
  if (__HAL_PCD_GET_FLAG(hpcd, USB_ISTR_RESET))
 8002420:	6820      	ldr	r0, [r4, #0]
 8002422:	f001 fe92 	bl	800414a <USB_ReadInterrupts>
 8002426:	f410 6f80 	tst.w	r0, #1024	; 0x400
 800242a:	d143      	bne.n	80024b4 <HAL_PCD_IRQHandler+0xa4>
  if (__HAL_PCD_GET_FLAG(hpcd, USB_ISTR_PMAOVR))
 800242c:	6820      	ldr	r0, [r4, #0]
 800242e:	f001 fe8c 	bl	800414a <USB_ReadInterrupts>
 8002432:	f410 4f80 	tst.w	r0, #16384	; 0x4000
 8002436:	d008      	beq.n	800244a <HAL_PCD_IRQHandler+0x3a>
    __HAL_PCD_CLEAR_FLAG(hpcd, USB_ISTR_PMAOVR);
 8002438:	6822      	ldr	r2, [r4, #0]
 800243a:	f8b2 3044 	ldrh.w	r3, [r2, #68]	; 0x44
 800243e:	b29b      	uxth	r3, r3
 8002440:	f423 4380 	bic.w	r3, r3, #16384	; 0x4000
 8002444:	b29b      	uxth	r3, r3
 8002446:	f8a2 3044 	strh.w	r3, [r2, #68]	; 0x44
  if (__HAL_PCD_GET_FLAG(hpcd, USB_ISTR_ERR))
 800244a:	6820      	ldr	r0, [r4, #0]
 800244c:	f001 fe7d 	bl	800414a <USB_ReadInterrupts>
 8002450:	f410 5f00 	tst.w	r0, #8192	; 0x2000
 8002454:	d008      	beq.n	8002468 <HAL_PCD_IRQHandler+0x58>
    __HAL_PCD_CLEAR_FLAG(hpcd, USB_ISTR_ERR);
 8002456:	6822      	ldr	r2, [r4, #0]
 8002458:	f8b2 3044 	ldrh.w	r3, [r2, #68]	; 0x44
 800245c:	b29b      	uxth	r3, r3
 800245e:	f423 5300 	bic.w	r3, r3, #8192	; 0x2000
 8002462:	b29b      	uxth	r3, r3
 8002464:	f8a2 3044 	strh.w	r3, [r2, #68]	; 0x44
  if (__HAL_PCD_GET_FLAG(hpcd, USB_ISTR_WKUP))
 8002468:	6820      	ldr	r0, [r4, #0]
 800246a:	f001 fe6e 	bl	800414a <USB_ReadInterrupts>
 800246e:	f410 5f80 	tst.w	r0, #4096	; 0x1000
 8002472:	d130      	bne.n	80024d6 <HAL_PCD_IRQHandler+0xc6>
  if (__HAL_PCD_GET_FLAG(hpcd, USB_ISTR_SUSP))
 8002474:	6820      	ldr	r0, [r4, #0]
 8002476:	f001 fe68 	bl	800414a <USB_ReadInterrupts>
 800247a:	f410 6f00 	tst.w	r0, #2048	; 0x800
 800247e:	d149      	bne.n	8002514 <HAL_PCD_IRQHandler+0x104>
  if (__HAL_PCD_GET_FLAG(hpcd, USB_ISTR_SOF))
 8002480:	6820      	ldr	r0, [r4, #0]
 8002482:	f001 fe62 	bl	800414a <USB_ReadInterrupts>
 8002486:	f410 7f00 	tst.w	r0, #512	; 0x200
 800248a:	d16d      	bne.n	8002568 <HAL_PCD_IRQHandler+0x158>
  if (__HAL_PCD_GET_FLAG(hpcd, USB_ISTR_ESOF))
 800248c:	6820      	ldr	r0, [r4, #0]
 800248e:	f001 fe5c 	bl	800414a <USB_ReadInterrupts>
 8002492:	f410 7f80 	tst.w	r0, #256	; 0x100
 8002496:	d008      	beq.n	80024aa <HAL_PCD_IRQHandler+0x9a>
    __HAL_PCD_CLEAR_FLAG(hpcd, USB_ISTR_ESOF);
 8002498:	6822      	ldr	r2, [r4, #0]
 800249a:	f8b2 3044 	ldrh.w	r3, [r2, #68]	; 0x44
 800249e:	b29b      	uxth	r3, r3
 80024a0:	f423 7380 	bic.w	r3, r3, #256	; 0x100
 80024a4:	b29b      	uxth	r3, r3
 80024a6:	f8a2 3044 	strh.w	r3, [r2, #68]	; 0x44
}
 80024aa:	bd10      	pop	{r4, pc}
    (void)PCD_EP_ISR_Handler(hpcd);
 80024ac:	4620      	mov	r0, r4
 80024ae:	f7ff fdf7 	bl	80020a0 <PCD_EP_ISR_Handler>
 80024b2:	e7b5      	b.n	8002420 <HAL_PCD_IRQHandler+0x10>
    __HAL_PCD_CLEAR_FLAG(hpcd, USB_ISTR_RESET);
 80024b4:	6822      	ldr	r2, [r4, #0]
 80024b6:	f8b2 3044 	ldrh.w	r3, [r2, #68]	; 0x44
 80024ba:	b29b      	uxth	r3, r3
 80024bc:	f423 6380 	bic.w	r3, r3, #1024	; 0x400
 80024c0:	b29b      	uxth	r3, r3
 80024c2:	f8a2 3044 	strh.w	r3, [r2, #68]	; 0x44
    HAL_PCD_ResetCallback(hpcd);
 80024c6:	4620      	mov	r0, r4
 80024c8:	f005 fb3e 	bl	8007b48 <HAL_PCD_ResetCallback>
    (void)HAL_PCD_SetAddress(hpcd, 0U);
 80024cc:	2100      	movs	r1, #0
 80024ce:	4620      	mov	r0, r4
 80024d0:	f7ff fd5d 	bl	8001f8e <HAL_PCD_SetAddress>
 80024d4:	e7aa      	b.n	800242c <HAL_PCD_IRQHandler+0x1c>
    hpcd->Instance->CNTR &= (uint16_t) ~(USB_CNTR_LP_MODE);
 80024d6:	6822      	ldr	r2, [r4, #0]
 80024d8:	f8b2 3040 	ldrh.w	r3, [r2, #64]	; 0x40
 80024dc:	b29b      	uxth	r3, r3
 80024de:	f023 0304 	bic.w	r3, r3, #4
 80024e2:	b29b      	uxth	r3, r3
 80024e4:	f8a2 3040 	strh.w	r3, [r2, #64]	; 0x40
    hpcd->Instance->CNTR &= (uint16_t) ~(USB_CNTR_FSUSP);
 80024e8:	6822      	ldr	r2, [r4, #0]
 80024ea:	f8b2 3040 	ldrh.w	r3, [r2, #64]	; 0x40
 80024ee:	b29b      	uxth	r3, r3
 80024f0:	f023 0308 	bic.w	r3, r3, #8
 80024f4:	b29b      	uxth	r3, r3
 80024f6:	f8a2 3040 	strh.w	r3, [r2, #64]	; 0x40
    HAL_PCD_ResumeCallback(hpcd);
 80024fa:	4620      	mov	r0, r4
 80024fc:	f005 fb46 	bl	8007b8c <HAL_PCD_ResumeCallback>
    __HAL_PCD_CLEAR_FLAG(hpcd, USB_ISTR_WKUP);
 8002500:	6822      	ldr	r2, [r4, #0]
 8002502:	f8b2 3044 	ldrh.w	r3, [r2, #68]	; 0x44
 8002506:	b29b      	uxth	r3, r3
 8002508:	f423 5380 	bic.w	r3, r3, #4096	; 0x1000
 800250c:	b29b      	uxth	r3, r3
 800250e:	f8a2 3044 	strh.w	r3, [r2, #68]	; 0x44
 8002512:	e7af      	b.n	8002474 <HAL_PCD_IRQHandler+0x64>
    hpcd->Instance->CNTR |= USB_CNTR_FSUSP;
 8002514:	6822      	ldr	r2, [r4, #0]
 8002516:	f8b2 3040 	ldrh.w	r3, [r2, #64]	; 0x40
 800251a:	f043 0308 	orr.w	r3, r3, #8
 800251e:	f8a2 3040 	strh.w	r3, [r2, #64]	; 0x40
    __HAL_PCD_CLEAR_FLAG(hpcd, USB_ISTR_SUSP);
 8002522:	6822      	ldr	r2, [r4, #0]
 8002524:	f8b2 3044 	ldrh.w	r3, [r2, #68]	; 0x44
 8002528:	b29b      	uxth	r3, r3
 800252a:	f423 6300 	bic.w	r3, r3, #2048	; 0x800
 800252e:	b29b      	uxth	r3, r3
 8002530:	f8a2 3044 	strh.w	r3, [r2, #68]	; 0x44
    hpcd->Instance->CNTR |= USB_CNTR_LP_MODE;
 8002534:	6822      	ldr	r2, [r4, #0]
 8002536:	f8b2 3040 	ldrh.w	r3, [r2, #64]	; 0x40
 800253a:	f043 0304 	orr.w	r3, r3, #4
 800253e:	f8a2 3040 	strh.w	r3, [r2, #64]	; 0x40
    if (__HAL_PCD_GET_FLAG(hpcd, USB_ISTR_WKUP))
 8002542:	6820      	ldr	r0, [r4, #0]
 8002544:	f001 fe01 	bl	800414a <USB_ReadInterrupts>
 8002548:	f410 5f80 	tst.w	r0, #4096	; 0x1000
 800254c:	d008      	beq.n	8002560 <HAL_PCD_IRQHandler+0x150>
       __HAL_PCD_CLEAR_FLAG(hpcd, USB_ISTR_WKUP);
 800254e:	6822      	ldr	r2, [r4, #0]
 8002550:	f8b2 3044 	ldrh.w	r3, [r2, #68]	; 0x44
 8002554:	b29b      	uxth	r3, r3
 8002556:	f423 5380 	bic.w	r3, r3, #4096	; 0x1000
 800255a:	b29b      	uxth	r3, r3
 800255c:	f8a2 3044 	strh.w	r3, [r2, #68]	; 0x44
    HAL_PCD_SuspendCallback(hpcd);
 8002560:	4620      	mov	r0, r4
 8002562:	f005 fb03 	bl	8007b6c <HAL_PCD_SuspendCallback>
 8002566:	e78b      	b.n	8002480 <HAL_PCD_IRQHandler+0x70>
    __HAL_PCD_CLEAR_FLAG(hpcd, USB_ISTR_SOF);
 8002568:	6822      	ldr	r2, [r4, #0]
 800256a:	f8b2 3044 	ldrh.w	r3, [r2, #68]	; 0x44
 800256e:	b29b      	uxth	r3, r3
 8002570:	f423 7300 	bic.w	r3, r3, #512	; 0x200
 8002574:	b29b      	uxth	r3, r3
 8002576:	f8a2 3044 	strh.w	r3, [r2, #68]	; 0x44
    HAL_PCD_SOFCallback(hpcd);
 800257a:	4620      	mov	r0, r4
 800257c:	f005 fade 	bl	8007b3c <HAL_PCD_SOFCallback>
 8002580:	e784      	b.n	800248c <HAL_PCD_IRQHandler+0x7c>

08002582 <HAL_PCD_EP_SetStall>:
{
 8002582:	b538      	push	{r3, r4, r5, lr}
 8002584:	f001 0507 	and.w	r5, r1, #7
  if (((uint32_t)ep_addr & EP_ADDR_MSK) > hpcd->Init.dev_endpoints)
 8002588:	6843      	ldr	r3, [r0, #4]
 800258a:	429d      	cmp	r5, r3
 800258c:	d82c      	bhi.n	80025e8 <HAL_PCD_EP_SetStall+0x66>
  if ((0x80U & ep_addr) == 0x80U)
 800258e:	f011 0f80 	tst.w	r1, #128	; 0x80
 8002592:	d11a      	bne.n	80025ca <HAL_PCD_EP_SetStall+0x48>
    ep = &hpcd->OUT_ep[ep_addr];
 8002594:	014b      	lsls	r3, r1, #5
 8002596:	f503 7194 	add.w	r1, r3, #296	; 0x128
 800259a:	4401      	add	r1, r0
    ep->is_in = 0U;
 800259c:	4403      	add	r3, r0
 800259e:	2200      	movs	r2, #0
 80025a0:	f883 2129 	strb.w	r2, [r3, #297]	; 0x129
  ep->is_stall = 1U;
 80025a4:	2301      	movs	r3, #1
 80025a6:	708b      	strb	r3, [r1, #2]
  ep->num = ep_addr & EP_ADDR_MSK;
 80025a8:	700d      	strb	r5, [r1, #0]
  __HAL_LOCK(hpcd);
 80025aa:	f890 3228 	ldrb.w	r3, [r0, #552]	; 0x228
 80025ae:	2b01      	cmp	r3, #1
 80025b0:	d01c      	beq.n	80025ec <HAL_PCD_EP_SetStall+0x6a>
 80025b2:	4604      	mov	r4, r0
 80025b4:	2301      	movs	r3, #1
 80025b6:	f880 3228 	strb.w	r3, [r0, #552]	; 0x228
  (void)USB_EPSetStall(hpcd->Instance, ep);
 80025ba:	6800      	ldr	r0, [r0, #0]
 80025bc:	f001 fd49 	bl	8004052 <USB_EPSetStall>
  if ((ep_addr & EP_ADDR_MSK) == 0U)
 80025c0:	b165      	cbz	r5, 80025dc <HAL_PCD_EP_SetStall+0x5a>
  __HAL_UNLOCK(hpcd);
 80025c2:	2000      	movs	r0, #0
 80025c4:	f884 0228 	strb.w	r0, [r4, #552]	; 0x228
  return HAL_OK;
 80025c8:	e00f      	b.n	80025ea <HAL_PCD_EP_SetStall+0x68>
    ep = &hpcd->IN_ep[ep_addr & EP_ADDR_MSK];
 80025ca:	016b      	lsls	r3, r5, #5
 80025cc:	f103 0128 	add.w	r1, r3, #40	; 0x28
 80025d0:	4401      	add	r1, r0
    ep->is_in = 1U;
 80025d2:	4403      	add	r3, r0
 80025d4:	2201      	movs	r2, #1
 80025d6:	f883 2029 	strb.w	r2, [r3, #41]	; 0x29
 80025da:	e7e3      	b.n	80025a4 <HAL_PCD_EP_SetStall+0x22>
    (void)USB_EP0_OutStart(hpcd->Instance, (uint8_t *)hpcd->Setup);
 80025dc:	f504 710c 	add.w	r1, r4, #560	; 0x230
 80025e0:	6820      	ldr	r0, [r4, #0]
 80025e2:	f001 fdb5 	bl	8004150 <USB_EP0_OutStart>
 80025e6:	e7ec      	b.n	80025c2 <HAL_PCD_EP_SetStall+0x40>
    return HAL_ERROR;
 80025e8:	2001      	movs	r0, #1
}
 80025ea:	bd38      	pop	{r3, r4, r5, pc}
  __HAL_LOCK(hpcd);
 80025ec:	2002      	movs	r0, #2
 80025ee:	e7fc      	b.n	80025ea <HAL_PCD_EP_SetStall+0x68>

080025f0 <HAL_PCD_EP_ClrStall>:
  if (((uint32_t)ep_addr & 0x0FU) > hpcd->Init.dev_endpoints)
 80025f0:	f001 020f 	and.w	r2, r1, #15
 80025f4:	6843      	ldr	r3, [r0, #4]
 80025f6:	429a      	cmp	r2, r3
 80025f8:	d82d      	bhi.n	8002656 <HAL_PCD_EP_ClrStall+0x66>
{
 80025fa:	b510      	push	{r4, lr}
  if ((0x80U & ep_addr) == 0x80U)
 80025fc:	f011 0f80 	tst.w	r1, #128	; 0x80
 8002600:	d11e      	bne.n	8002640 <HAL_PCD_EP_ClrStall+0x50>
    ep = &hpcd->OUT_ep[ep_addr & EP_ADDR_MSK];
 8002602:	f001 0307 	and.w	r3, r1, #7
 8002606:	015b      	lsls	r3, r3, #5
 8002608:	f503 7294 	add.w	r2, r3, #296	; 0x128
 800260c:	4402      	add	r2, r0
    ep->is_in = 0U;
 800260e:	4403      	add	r3, r0
 8002610:	2400      	movs	r4, #0
 8002612:	f883 4129 	strb.w	r4, [r3, #297]	; 0x129
  ep->is_stall = 0U;
 8002616:	2300      	movs	r3, #0
 8002618:	7093      	strb	r3, [r2, #2]
  ep->num = ep_addr & EP_ADDR_MSK;
 800261a:	f001 0307 	and.w	r3, r1, #7
 800261e:	7013      	strb	r3, [r2, #0]
  __HAL_LOCK(hpcd);
 8002620:	f890 3228 	ldrb.w	r3, [r0, #552]	; 0x228
 8002624:	2b01      	cmp	r3, #1
 8002626:	d018      	beq.n	800265a <HAL_PCD_EP_ClrStall+0x6a>
 8002628:	4604      	mov	r4, r0
 800262a:	2301      	movs	r3, #1
 800262c:	f880 3228 	strb.w	r3, [r0, #552]	; 0x228
  (void)USB_EPClearStall(hpcd->Instance, ep);
 8002630:	4611      	mov	r1, r2
 8002632:	6800      	ldr	r0, [r0, #0]
 8002634:	f001 fd32 	bl	800409c <USB_EPClearStall>
  __HAL_UNLOCK(hpcd);
 8002638:	2000      	movs	r0, #0
 800263a:	f884 0228 	strb.w	r0, [r4, #552]	; 0x228
}
 800263e:	bd10      	pop	{r4, pc}
    ep = &hpcd->IN_ep[ep_addr & EP_ADDR_MSK];
 8002640:	f001 0307 	and.w	r3, r1, #7
 8002644:	015b      	lsls	r3, r3, #5
 8002646:	f103 0228 	add.w	r2, r3, #40	; 0x28
 800264a:	4402      	add	r2, r0
    ep->is_in = 1U;
 800264c:	4403      	add	r3, r0
 800264e:	2401      	movs	r4, #1
 8002650:	f883 4029 	strb.w	r4, [r3, #41]	; 0x29
 8002654:	e7df      	b.n	8002616 <HAL_PCD_EP_ClrStall+0x26>
    return HAL_ERROR;
 8002656:	2001      	movs	r0, #1
}
 8002658:	4770      	bx	lr
  __HAL_LOCK(hpcd);
 800265a:	2002      	movs	r0, #2
 800265c:	e7ef      	b.n	800263e <HAL_PCD_EP_ClrStall+0x4e>
	...

08002660 <RCC_Delay>:
  * @brief  This function provides delay (in milliseconds) based on CPU cycles method.
  * @param  mdelay: specifies the delay time length, in milliseconds.
  * @retval None
  */
static void RCC_Delay(uint32_t mdelay)
{
 8002660:	b082      	sub	sp, #8
  __IO uint32_t Delay = mdelay * (SystemCoreClock / 8U / 1000U);
 8002662:	4b08      	ldr	r3, [pc, #32]	; (8002684 <RCC_Delay+0x24>)
 8002664:	681b      	ldr	r3, [r3, #0]
 8002666:	4a08      	ldr	r2, [pc, #32]	; (8002688 <RCC_Delay+0x28>)
 8002668:	fba2 2303 	umull	r2, r3, r2, r3
 800266c:	0a5b      	lsrs	r3, r3, #9
 800266e:	fb00 f003 	mul.w	r0, r0, r3
 8002672:	9001      	str	r0, [sp, #4]
  do
  {
    __NOP();
 8002674:	bf00      	nop
  }
  while (Delay --);
 8002676:	9b01      	ldr	r3, [sp, #4]
 8002678:	1e5a      	subs	r2, r3, #1
 800267a:	9201      	str	r2, [sp, #4]
 800267c:	2b00      	cmp	r3, #0
 800267e:	d1f9      	bne.n	8002674 <RCC_Delay+0x14>
}
 8002680:	b002      	add	sp, #8
 8002682:	4770      	bx	lr
 8002684:	20000074 	.word	0x20000074
 8002688:	10624dd3 	.word	0x10624dd3

0800268c <HAL_RCC_OscConfig>:
  if (RCC_OscInitStruct == NULL)
 800268c:	2800      	cmp	r0, #0
 800268e:	f000 81f5 	beq.w	8002a7c <HAL_RCC_OscConfig+0x3f0>
{
 8002692:	b570      	push	{r4, r5, r6, lr}
 8002694:	b082      	sub	sp, #8
 8002696:	4604      	mov	r4, r0
  if (((RCC_OscInitStruct->OscillatorType) & RCC_OSCILLATORTYPE_HSE) == RCC_OSCILLATORTYPE_HSE)
 8002698:	6803      	ldr	r3, [r0, #0]
 800269a:	f013 0f01 	tst.w	r3, #1
 800269e:	d02c      	beq.n	80026fa <HAL_RCC_OscConfig+0x6e>
    if ((__HAL_RCC_GET_SYSCLK_SOURCE() == RCC_SYSCLKSOURCE_STATUS_HSE)
 80026a0:	4bab      	ldr	r3, [pc, #684]	; (8002950 <HAL_RCC_OscConfig+0x2c4>)
 80026a2:	685b      	ldr	r3, [r3, #4]
 80026a4:	f003 030c 	and.w	r3, r3, #12
 80026a8:	2b04      	cmp	r3, #4
 80026aa:	d01d      	beq.n	80026e8 <HAL_RCC_OscConfig+0x5c>
        || ((__HAL_RCC_GET_SYSCLK_SOURCE() == RCC_SYSCLKSOURCE_STATUS_PLLCLK) && (__HAL_RCC_GET_PLL_OSCSOURCE() == RCC_PLLSOURCE_HSE)))
 80026ac:	4ba8      	ldr	r3, [pc, #672]	; (8002950 <HAL_RCC_OscConfig+0x2c4>)
 80026ae:	685b      	ldr	r3, [r3, #4]
 80026b0:	f003 030c 	and.w	r3, r3, #12
 80026b4:	2b08      	cmp	r3, #8
 80026b6:	d012      	beq.n	80026de <HAL_RCC_OscConfig+0x52>
      __HAL_RCC_HSE_CONFIG(RCC_OscInitStruct->HSEState);
 80026b8:	6863      	ldr	r3, [r4, #4]
 80026ba:	f5b3 3f80 	cmp.w	r3, #65536	; 0x10000
 80026be:	d041      	beq.n	8002744 <HAL_RCC_OscConfig+0xb8>
 80026c0:	2b00      	cmp	r3, #0
 80026c2:	d155      	bne.n	8002770 <HAL_RCC_OscConfig+0xe4>
 80026c4:	f103 4380 	add.w	r3, r3, #1073741824	; 0x40000000
 80026c8:	f503 3304 	add.w	r3, r3, #135168	; 0x21000
 80026cc:	681a      	ldr	r2, [r3, #0]
 80026ce:	f422 3280 	bic.w	r2, r2, #65536	; 0x10000
 80026d2:	601a      	str	r2, [r3, #0]
 80026d4:	681a      	ldr	r2, [r3, #0]
 80026d6:	f422 2280 	bic.w	r2, r2, #262144	; 0x40000
 80026da:	601a      	str	r2, [r3, #0]
 80026dc:	e037      	b.n	800274e <HAL_RCC_OscConfig+0xc2>
        || ((__HAL_RCC_GET_SYSCLK_SOURCE() == RCC_SYSCLKSOURCE_STATUS_PLLCLK) && (__HAL_RCC_GET_PLL_OSCSOURCE() == RCC_PLLSOURCE_HSE)))
 80026de:	4b9c      	ldr	r3, [pc, #624]	; (8002950 <HAL_RCC_OscConfig+0x2c4>)
 80026e0:	685b      	ldr	r3, [r3, #4]
 80026e2:	f413 3f80 	tst.w	r3, #65536	; 0x10000
 80026e6:	d0e7      	beq.n	80026b8 <HAL_RCC_OscConfig+0x2c>
      if ((__HAL_RCC_GET_FLAG(RCC_FLAG_HSERDY) != RESET) && (RCC_OscInitStruct->HSEState == RCC_HSE_OFF))
 80026e8:	4b99      	ldr	r3, [pc, #612]	; (8002950 <HAL_RCC_OscConfig+0x2c4>)
 80026ea:	681b      	ldr	r3, [r3, #0]
 80026ec:	f413 3f00 	tst.w	r3, #131072	; 0x20000
 80026f0:	d003      	beq.n	80026fa <HAL_RCC_OscConfig+0x6e>
 80026f2:	6863      	ldr	r3, [r4, #4]
 80026f4:	2b00      	cmp	r3, #0
 80026f6:	f000 81c3 	beq.w	8002a80 <HAL_RCC_OscConfig+0x3f4>
  if (((RCC_OscInitStruct->OscillatorType) & RCC_OSCILLATORTYPE_HSI) == RCC_OSCILLATORTYPE_HSI)
