
USB_TEST.elf:     file format elf32-littlearm

Sections:
Idx Name          Size      VMA       LMA       File off  Algn
  0 .isr_vector   0000010c  08000000  08000000  00010000  2**0
                  CONTENTS, ALLOC, LOAD, READONLY, DATA
  1 .text         00005f80  0800010c  0800010c  0001010c  2**2
                  CONTENTS, ALLOC, LOAD, READONLY, CODE
  2 .rodata       0000006c  0800608c  0800608c  0001608c  2**2
                  CONTENTS, ALLOC, LOAD, READONLY, DATA
  3 .ARM.extab    00000000  080060f8  080060f8  0002017c  2**0
                  CONTENTS
  4 .ARM          00000000  080060f8  080060f8  0002017c  2**0
                  CONTENTS
  5 .preinit_array 00000000  080060f8  080060f8  0002017c  2**0
                  CONTENTS, ALLOC, LOAD, DATA
  6 .init_array   00000004  080060f8  080060f8  000160f8  2**2
                  CONTENTS, ALLOC, LOAD, DATA
  7 .fini_array   00000004  080060fc  080060fc  000160fc  2**2
                  CONTENTS, ALLOC, LOAD, DATA
  8 .data         0000017c  20000000  08006100  00020000  2**2
                  CONTENTS, ALLOC, LOAD, DATA
  9 .bss          00000e60  2000017c  0800627c  0002017c  2**2
                  ALLOC
 10 ._user_heap_stack 00000604  20000fdc  0800627c  00020fdc  2**0
                  ALLOC
 11 .ARM.attributes 00000029  00000000  00000000  0002017c  2**0
                  CONTENTS, READONLY
 12 .debug_info   00012f0e  00000000  00000000  000201a5  2**0
                  CONTENTS, READONLY, DEBUGGING
 13 .debug_abbrev 00002f07  00000000  00000000  000330b3  2**0
                  CONTENTS, READONLY, DEBUGGING
 14 .debug_aranges 00000d90  00000000  00000000  00035fc0  2**3
                  CONTENTS, READONLY, DEBUGGING
 15 .debug_ranges 00000c18  00000000  00000000  00036d50  2**3
                  CONTENTS, READONLY, DEBUGGING
 16 .debug_macro  000174d7  00000000  00000000  00037968  2**0
                  CONTENTS, READONLY, DEBUGGING
 17 .debug_line   0000e130  00000000  00000000  0004ee3f  2**0
                  CONTENTS, READONLY, DEBUGGING
 18 .debug_str    00074cec  00000000  00000000  0005cf6f  2**0
                  CONTENTS, READONLY, DEBUGGING
 19 .comment      0000007b  00000000  00000000  000d1c5b  2**0
                  CONTENTS, READONLY
 20 .debug_frame  00003588  00000000  00000000  000d1cd8  2**2
                  CONTENTS, READONLY, DEBUGGING

Disassembly of section .text:

0800010c <__do_global_dtors_aux>:
 800010c:	b510      	push	{r4, lr}
 800010e:	4c05      	ldr	r4, [pc, #20]	; (8000124 <__do_global_dtors_aux+0x18>)
 8000110:	7823      	ldrb	r3, [r4, #0]
 8000112:	b933      	cbnz	r3, 8000122 <__do_global_dtors_aux+0x16>
 8000114:	4b04      	ldr	r3, [pc, #16]	; (8000128 <__do_global_dtors_aux+0x1c>)
 8000116:	b113      	cbz	r3, 800011e <__do_global_dtors_aux+0x12>
 8000118:	4804      	ldr	r0, [pc, #16]	; (800012c <__do_global_dtors_aux+0x20>)
 800011a:	f3af 8000 	nop.w
 800011e:	2301      	movs	r3, #1
 8000120:	7023      	strb	r3, [r4, #0]
 8000122:	bd10      	pop	{r4, pc}
 8000124:	2000017c 	.word	0x2000017c
 8000128:	00000000 	.word	0x00000000
 800012c:	08006074 	.word	0x08006074

08000130 <frame_dummy>:
 8000130:	b508      	push	{r3, lr}
 8000132:	4b03      	ldr	r3, [pc, #12]	; (8000140 <frame_dummy+0x10>)
 8000134:	b11b      	cbz	r3, 800013e <frame_dummy+0xe>
 8000136:	4903      	ldr	r1, [pc, #12]	; (8000144 <frame_dummy+0x14>)
 8000138:	4803      	ldr	r0, [pc, #12]	; (8000148 <frame_dummy+0x18>)
 800013a:	f3af 8000 	nop.w
 800013e:	bd08      	pop	{r3, pc}
 8000140:	00000000 	.word	0x00000000
 8000144:	20000180 	.word	0x20000180
 8000148:	08006074 	.word	0x08006074

0800014c <main>:
/**
  * @brief  The application entry point.
  * @retval int
  */
int main(void)
{
 800014c:	b580      	push	{r7, lr}
 800014e:	af00      	add	r7, sp, #0
  /* USER CODE END 1 */

  /* MCU Configuration--------------------------------------------------------*/

  /* Reset of all peripherals, Initializes the Flash interface and the Systick. */
  HAL_Init();
 8000150:	f000 fbc4 	bl	80008dc <HAL_Init>
  /* USER CODE BEGIN Init */

  /* USER CODE END Init */

  /* Configure the system clock */
  SystemClock_Config();
 8000154:	f000 f80f 	bl	8000176 <SystemClock_Config>
  /* USER CODE BEGIN SysInit */

  /* USER CODE END SysInit */

  /* Initialize all configured peripherals */
  MX_GPIO_Init();
 8000158:	f000 f956 	bl	8000408 <MX_GPIO_Init>
  MX_ADC1_Init();
 800015c:	f000 f86a 	bl	8000234 <MX_ADC1_Init>
  MX_ADC2_Init();
 8000160:	f000 f8a6 	bl	80002b0 <MX_ADC2_Init>
  MX_IWDG_Init();
 8000164:	f000 f8e2 	bl	800032c <MX_IWDG_Init>
  MX_USART1_UART_Init();
 8000168:	f000 f8fa 	bl	8000360 <MX_USART1_UART_Init>
  MX_USART3_UART_Init();
 800016c:	f000 f922 	bl	80003b4 <MX_USART3_UART_Init>
  MX_USB_DEVICE_Init();
 8000170:	f005 fabe 	bl	80056f0 <MX_USB_DEVICE_Init>

  /* USER CODE END 2 */

  /* Infinite loop */
  /* USER CODE BEGIN WHILE */
  while (1)
 8000174:	e7fe      	b.n	8000174 <main+0x28>

08000176 <SystemClock_Config>:
/**
  * @brief System Clock Configuration
  * @retval None
  */
void SystemClock_Config(void)
{
 8000176:	b580      	push	{r7, lr}
 8000178:	b094      	sub	sp, #80	; 0x50
 800017a:	af00      	add	r7, sp, #0
  RCC_OscInitTypeDef RCC_OscInitStruct = {0};
 800017c:	f107 0328 	add.w	r3, r7, #40	; 0x28
 8000180:	2228      	movs	r2, #40	; 0x28
 8000182:	2100      	movs	r1, #0
 8000184:	4618      	mov	r0, r3
 8000186:	f005 ff6d 	bl	8006064 <memset>
  RCC_ClkInitTypeDef RCC_ClkInitStruct = {0};
 800018a:	f107 0314 	add.w	r3, r7, #20
 800018e:	2200      	movs	r2, #0
 8000190:	601a      	str	r2, [r3, #0]
 8000192:	605a      	str	r2, [r3, #4]
 8000194:	609a      	str	r2, [r3, #8]
 8000196:	60da      	str	r2, [r3, #12]
 8000198:	611a      	str	r2, [r3, #16]
  RCC_PeriphCLKInitTypeDef PeriphClkInit = {0};
 800019a:	1d3b      	adds	r3, r7, #4
 800019c:	2200      	movs	r2, #0
 800019e:	601a      	str	r2, [r3, #0]
 80001a0:	605a      	str	r2, [r3, #4]
 80001a2:	609a      	str	r2, [r3, #8]
 80001a4:	60da      	str	r2, [r3, #12]

  /** Initializes the CPU, AHB and APB busses clocks 
  */
  RCC_OscInitStruct.OscillatorType = RCC_OSCILLATORTYPE_LSI|RCC_OSCILLATORTYPE_HSE;
 80001a6:	2309      	movs	r3, #9
 80001a8:	62bb      	str	r3, [r7, #40]	; 0x28
  RCC_OscInitStruct.HSEState = RCC_HSE_ON;
 80001aa:	f44f 3380 	mov.w	r3, #65536	; 0x10000
 80001ae:	62fb      	str	r3, [r7, #44]	; 0x2c
  RCC_OscInitStruct.HSEPredivValue = RCC_HSE_PREDIV_DIV1;
 80001b0:	2300      	movs	r3, #0
 80001b2:	633b      	str	r3, [r7, #48]	; 0x30
  RCC_OscInitStruct.HSIState = RCC_HSI_ON;
 80001b4:	2301      	movs	r3, #1
 80001b6:	63bb      	str	r3, [r7, #56]	; 0x38
  RCC_OscInitStruct.LSIState = RCC_LSI_ON;
 80001b8:	2301      	movs	r3, #1
 80001ba:	643b      	str	r3, [r7, #64]	; 0x40
  RCC_OscInitStruct.PLL.PLLState = RCC_PLL_ON;
 80001bc:	2302      	movs	r3, #2
 80001be:	647b      	str	r3, [r7, #68]	; 0x44
  RCC_OscInitStruct.PLL.PLLSource = RCC_PLLSOURCE_HSE;
 80001c0:	f44f 3380 	mov.w	r3, #65536	; 0x10000
 80001c4:	64bb      	str	r3, [r7, #72]	; 0x48
  RCC_OscInitStruct.PLL.PLLMUL = RCC_PLL_MUL9;
 80001c6:	f44f 13e0 	mov.w	r3, #1835008	; 0x1c0000
 80001ca:	64fb      	str	r3, [r7, #76]	; 0x4c
  if (HAL_RCC_OscConfig(&RCC_OscInitStruct) != HAL_OK)
 80001cc:	f107 0328 	add.w	r3, r7, #40	; 0x28
 80001d0:	4618      	mov	r0, r3
 80001d2:	f001 ff89 	bl	80020e8 <HAL_RCC_OscConfig>
 80001d6:	4603      	mov	r3, r0
 80001d8:	2b00      	cmp	r3, #0
 80001da:	d001      	beq.n	80001e0 <SystemClock_Config+0x6a>
  {
    Error_Handler();
 80001dc:	f000 f9ca 	bl	8000574 <Error_Handler>
  }
  /** Initializes the CPU, AHB and APB busses clocks 
  */
  RCC_ClkInitStruct.ClockType = RCC_CLOCKTYPE_HCLK|RCC_CLOCKTYPE_SYSCLK
 80001e0:	230f      	movs	r3, #15
 80001e2:	617b      	str	r3, [r7, #20]
                              |RCC_CLOCKTYPE_PCLK1|RCC_CLOCKTYPE_PCLK2;
  RCC_ClkInitStruct.SYSCLKSource = RCC_SYSCLKSOURCE_PLLCLK;
 80001e4:	2302      	movs	r3, #2
 80001e6:	61bb      	str	r3, [r7, #24]
  RCC_ClkInitStruct.AHBCLKDivider = RCC_SYSCLK_DIV1;
 80001e8:	2300      	movs	r3, #0
 80001ea:	61fb      	str	r3, [r7, #28]
  RCC_ClkInitStruct.APB1CLKDivider = RCC_HCLK_DIV2;
 80001ec:	f44f 6380 	mov.w	r3, #1024	; 0x400
 80001f0:	623b      	str	r3, [r7, #32]
  RCC_ClkInitStruct.APB2CLKDivider = RCC_HCLK_DIV1;
 80001f2:	2300      	movs	r3, #0
 80001f4:	627b      	str	r3, [r7, #36]	; 0x24

  if (HAL_RCC_ClockConfig(&RCC_ClkInitStruct, FLASH_LATENCY_2) != HAL_OK)
 80001f6:	f107 0314 	add.w	r3, r7, #20
 80001fa:	2102      	movs	r1, #2
 80001fc:	4618      	mov	r0, r3
 80001fe:	f002 f9f3 	bl	80025e8 <HAL_RCC_ClockConfig>
 8000202:	4603      	mov	r3, r0
 8000204:	2b00      	cmp	r3, #0
 8000206:	d001      	beq.n	800020c <SystemClock_Config+0x96>
  {
    Error_Handler();
 8000208:	f000 f9b4 	bl	8000574 <Error_Handler>
  }
  PeriphClkInit.PeriphClockSelection = RCC_PERIPHCLK_ADC|RCC_PERIPHCLK_USB;
 800020c:	2312      	movs	r3, #18
 800020e:	607b      	str	r3, [r7, #4]
  PeriphClkInit.AdcClockSelection = RCC_ADCPCLK2_DIV6;
 8000210:	f44f 4300 	mov.w	r3, #32768	; 0x8000
 8000214:	60fb      	str	r3, [r7, #12]
  PeriphClkInit.UsbClockSelection = RCC_USBCLKSOURCE_PLL_DIV1_5;
 8000216:	2300      	movs	r3, #0
 8000218:	613b      	str	r3, [r7, #16]
  if (HAL_RCCEx_PeriphCLKConfig(&PeriphClkInit) != HAL_OK)
 800021a:	1d3b      	adds	r3, r7, #4
 800021c:	4618      	mov	r0, r3
 800021e:	f002 fb7f 	bl	8002920 <HAL_RCCEx_PeriphCLKConfig>
 8000222:	4603      	mov	r3, r0
 8000224:	2b00      	cmp	r3, #0
 8000226:	d001      	beq.n	800022c <SystemClock_Config+0xb6>
  {
    Error_Handler();
 8000228:	f000 f9a4 	bl	8000574 <Error_Handler>
  }
}
 800022c:	bf00      	nop
 800022e:	3750      	adds	r7, #80	; 0x50
 8000230:	46bd      	mov	sp, r7
 8000232:	bd80      	pop	{r7, pc}

08000234 <MX_ADC1_Init>:
  * @brief ADC1 Initialization Function
  * @param None
  * @retval None
  */
static void MX_ADC1_Init(void)
{
 8000234:	b580      	push	{r7, lr}
 8000236:	b084      	sub	sp, #16
 8000238:	af00      	add	r7, sp, #0

  /* USER CODE BEGIN ADC1_Init 0 */

  /* USER CODE END ADC1_Init 0 */

  ADC_ChannelConfTypeDef sConfig = {0};
 800023a:	1d3b      	adds	r3, r7, #4
 800023c:	2200      	movs	r2, #0
 800023e:	601a      	str	r2, [r3, #0]
 8000240:	605a      	str	r2, [r3, #4]
 8000242:	609a      	str	r2, [r3, #8]
  /* USER CODE BEGIN ADC1_Init 1 */

  /* USER CODE END ADC1_Init 1 */
  /** Common config 
  */
  hadc1.Instance = ADC1;
 8000244:	4b18      	ldr	r3, [pc, #96]	; (80002a8 <MX_ADC1_Init+0x74>)
 8000246:	4a19      	ldr	r2, [pc, #100]	; (80002ac <MX_ADC1_Init+0x78>)
 8000248:	601a      	str	r2, [r3, #0]
  hadc1.Init.ScanConvMode = ADC_SCAN_DISABLE;
 800024a:	4b17      	ldr	r3, [pc, #92]	; (80002a8 <MX_ADC1_Init+0x74>)
 800024c:	2200      	movs	r2, #0
 800024e:	609a      	str	r2, [r3, #8]
  hadc1.Init.ContinuousConvMode = DISABLE;
 8000250:	4b15      	ldr	r3, [pc, #84]	; (80002a8 <MX_ADC1_Init+0x74>)
 8000252:	2200      	movs	r2, #0
 8000254:	731a      	strb	r2, [r3, #12]
  hadc1.Init.DiscontinuousConvMode = DISABLE;
 8000256:	4b14      	ldr	r3, [pc, #80]	; (80002a8 <MX_ADC1_Init+0x74>)
 8000258:	2200      	movs	r2, #0
 800025a:	751a      	strb	r2, [r3, #20]
  hadc1.Init.ExternalTrigConv = ADC_SOFTWARE_START;
 800025c:	4b12      	ldr	r3, [pc, #72]	; (80002a8 <MX_ADC1_Init+0x74>)
 800025e:	f44f 2260 	mov.w	r2, #917504	; 0xe0000
 8000262:	61da      	str	r2, [r3, #28]
  hadc1.Init.DataAlign = ADC_DATAALIGN_RIGHT;
 8000264:	4b10      	ldr	r3, [pc, #64]	; (80002a8 <MX_ADC1_Init+0x74>)
 8000266:	2200      	movs	r2, #0
 8000268:	605a      	str	r2, [r3, #4]
  hadc1.Init.NbrOfConversion = 1;
 800026a:	4b0f      	ldr	r3, [pc, #60]	; (80002a8 <MX_ADC1_Init+0x74>)
 800026c:	2201      	movs	r2, #1
 800026e:	611a      	str	r2, [r3, #16]
  if (HAL_ADC_Init(&hadc1) != HAL_OK)
 8000270:	480d      	ldr	r0, [pc, #52]	; (80002a8 <MX_ADC1_Init+0x74>)
 8000272:	f000 fb95 	bl	80009a0 <HAL_ADC_Init>
 8000276:	4603      	mov	r3, r0
 8000278:	2b00      	cmp	r3, #0
 800027a:	d001      	beq.n	8000280 <MX_ADC1_Init+0x4c>
  {
    Error_Handler();
 800027c:	f000 f97a 	bl	8000574 <Error_Handler>
  }
  /** Configure Regular Channel 
  */
  sConfig.Channel = ADC_CHANNEL_0;
 8000280:	2300      	movs	r3, #0
 8000282:	607b      	str	r3, [r7, #4]
  sConfig.Rank = ADC_REGULAR_RANK_1;
 8000284:	2301      	movs	r3, #1
 8000286:	60bb      	str	r3, [r7, #8]
  sConfig.SamplingTime = ADC_SAMPLETIME_1CYCLE_5;
 8000288:	2300      	movs	r3, #0
 800028a:	60fb      	str	r3, [r7, #12]
  if (HAL_ADC_ConfigChannel(&hadc1, &sConfig) != HAL_OK)
 800028c:	1d3b      	adds	r3, r7, #4
 800028e:	4619      	mov	r1, r3
 8000290:	4805      	ldr	r0, [pc, #20]	; (80002a8 <MX_ADC1_Init+0x74>)
 8000292:	f000 fc5d 	bl	8000b50 <HAL_ADC_ConfigChannel>
 8000296:	4603      	mov	r3, r0
 8000298:	2b00      	cmp	r3, #0
 800029a:	d001      	beq.n	80002a0 <MX_ADC1_Init+0x6c>
  {
    Error_Handler();
 800029c:	f000 f96a 	bl	8000574 <Error_Handler>
  }
  /* USER CODE BEGIN ADC1_Init 2 */

  /* USER CODE END ADC1_Init 2 */

}
 80002a0:	bf00      	nop
 80002a2:	3710      	adds	r7, #16
 80002a4:	46bd      	mov	sp, r7
 80002a6:	bd80      	pop	{r7, pc}
 80002a8:	20000438 	.word	0x20000438
 80002ac:	40012400 	.word	0x40012400

080002b0 <MX_ADC2_Init>:
  * @brief ADC2 Initialization Function
  * @param None
  * @retval None
  */
static void MX_ADC2_Init(void)
{
 80002b0:	b580      	push	{r7, lr}
 80002b2:	b084      	sub	sp, #16
 80002b4:	af00      	add	r7, sp, #0

  /* USER CODE BEGIN ADC2_Init 0 */

  /* USER CODE END ADC2_Init 0 */

  ADC_ChannelConfTypeDef sConfig = {0};
 80002b6:	1d3b      	adds	r3, r7, #4
 80002b8:	2200      	movs	r2, #0
 80002ba:	601a      	str	r2, [r3, #0]
 80002bc:	605a      	str	r2, [r3, #4]
 80002be:	609a      	str	r2, [r3, #8]
  /* USER CODE BEGIN ADC2_Init 1 */

  /* USER CODE END ADC2_Init 1 */
  /** Common config 
  */
  hadc2.Instance = ADC2;
 80002c0:	4b18      	ldr	r3, [pc, #96]	; (8000324 <MX_ADC2_Init+0x74>)
 80002c2:	4a19      	ldr	r2, [pc, #100]	; (8000328 <MX_ADC2_Init+0x78>)
 80002c4:	601a      	str	r2, [r3, #0]
  hadc2.Init.ScanConvMode = ADC_SCAN_DISABLE;
 80002c6:	4b17      	ldr	r3, [pc, #92]	; (8000324 <MX_ADC2_Init+0x74>)
 80002c8:	2200      	movs	r2, #0
 80002ca:	609a      	str	r2, [r3, #8]
  hadc2.Init.ContinuousConvMode = DISABLE;
 80002cc:	4b15      	ldr	r3, [pc, #84]	; (8000324 <MX_ADC2_Init+0x74>)
 80002ce:	2200      	movs	r2, #0
 80002d0:	731a      	strb	r2, [r3, #12]
  hadc2.Init.DiscontinuousConvMode = DISABLE;
 80002d2:	4b14      	ldr	r3, [pc, #80]	; (8000324 <MX_ADC2_Init+0x74>)
 80002d4:	2200      	movs	r2, #0
 80002d6:	751a      	strb	r2, [r3, #20]
  hadc2.Init.ExternalTrigConv = ADC_SOFTWARE_START;
 80002d8:	4b12      	ldr	r3, [pc, #72]	; (8000324 <MX_ADC2_Init+0x74>)
 80002da:	f44f 2260 	mov.w	r2, #917504	; 0xe0000
 80002de:	61da      	str	r2, [r3, #28]
  hadc2.Init.DataAlign = ADC_DATAALIGN_RIGHT;
 80002e0:	4b10      	ldr	r3, [pc, #64]	; (8000324 <MX_ADC2_Init+0x74>)
 80002e2:	2200      	movs	r2, #0
 80002e4:	605a      	str	r2, [r3, #4]
  hadc2.Init.NbrOfConversion = 1;
 80002e6:	4b0f      	ldr	r3, [pc, #60]	; (8000324 <MX_ADC2_Init+0x74>)
 80002e8:	2201      	movs	r2, #1
 80002ea:	611a      	str	r2, [r3, #16]
  if (HAL_ADC_Init(&hadc2) != HAL_OK)
 80002ec:	480d      	ldr	r0, [pc, #52]	; (8000324 <MX_ADC2_Init+0x74>)
 80002ee:	f000 fb57 	bl	80009a0 <HAL_ADC_Init>
 80002f2:	4603      	mov	r3, r0
 80002f4:	2b00      	cmp	r3, #0
 80002f6:	d001      	beq.n	80002fc <MX_ADC2_Init+0x4c>
  {
    Error_Handler();
 80002f8:	f000 f93c 	bl	8000574 <Error_Handler>
  }
  /** Configure Regular Channel 
  */
  sConfig.Channel = ADC_CHANNEL_4;
 80002fc:	2304      	movs	r3, #4
 80002fe:	607b      	str	r3, [r7, #4]
  sConfig.Rank = ADC_REGULAR_RANK_1;
 8000300:	2301      	movs	r3, #1
 8000302:	60bb      	str	r3, [r7, #8]
  sConfig.SamplingTime = ADC_SAMPLETIME_1CYCLE_5;
 8000304:	2300      	movs	r3, #0
 8000306:	60fb      	str	r3, [r7, #12]
  if (HAL_ADC_ConfigChannel(&hadc2, &sConfig) != HAL_OK)
 8000308:	1d3b      	adds	r3, r7, #4
 800030a:	4619      	mov	r1, r3
 800030c:	4805      	ldr	r0, [pc, #20]	; (8000324 <MX_ADC2_Init+0x74>)
 800030e:	f000 fc1f 	bl	8000b50 <HAL_ADC_ConfigChannel>
 8000312:	4603      	mov	r3, r0
 8000314:	2b00      	cmp	r3, #0
 8000316:	d001      	beq.n	800031c <MX_ADC2_Init+0x6c>
  {
    Error_Handler();
 8000318:	f000 f92c 	bl	8000574 <Error_Handler>
  }
  /* USER CODE BEGIN ADC2_Init 2 */

  /* USER CODE END ADC2_Init 2 */

}
 800031c:	bf00      	nop
 800031e:	3710      	adds	r7, #16
 8000320:	46bd      	mov	sp, r7
 8000322:	bd80      	pop	{r7, pc}
 8000324:	200003fc 	.word	0x200003fc
 8000328:	40012800 	.word	0x40012800

0800032c <MX_IWDG_Init>:
  * @brief IWDG Initialization Function
  * @param None
  * @retval None
  */
static void MX_IWDG_Init(void)
{
 800032c:	b580      	push	{r7, lr}
 800032e:	af00      	add	r7, sp, #0
  /* USER CODE END IWDG_Init 0 */

  /* USER CODE BEGIN IWDG_Init 1 */

  /* USER CODE END IWDG_Init 1 */
  hiwdg.Instance = IWDG;
 8000330:	4b09      	ldr	r3, [pc, #36]	; (8000358 <MX_IWDG_Init+0x2c>)
 8000332:	4a0a      	ldr	r2, [pc, #40]	; (800035c <MX_IWDG_Init+0x30>)
 8000334:	601a      	str	r2, [r3, #0]
  hiwdg.Init.Prescaler = IWDG_PRESCALER_4;
 8000336:	4b08      	ldr	r3, [pc, #32]	; (8000358 <MX_IWDG_Init+0x2c>)
 8000338:	2200      	movs	r2, #0
 800033a:	605a      	str	r2, [r3, #4]
  hiwdg.Init.Reload = 4095;
 800033c:	4b06      	ldr	r3, [pc, #24]	; (8000358 <MX_IWDG_Init+0x2c>)
 800033e:	f640 72ff 	movw	r2, #4095	; 0xfff
 8000342:	609a      	str	r2, [r3, #8]
  if (HAL_IWDG_Init(&hiwdg) != HAL_OK)
 8000344:	4804      	ldr	r0, [pc, #16]	; (8000358 <MX_IWDG_Init+0x2c>)
 8000346:	f000 ffb5 	bl	80012b4 <HAL_IWDG_Init>
 800034a:	4603      	mov	r3, r0
 800034c:	2b00      	cmp	r3, #0
 800034e:	d001      	beq.n	8000354 <MX_IWDG_Init+0x28>
  {
    Error_Handler();
 8000350:	f000 f910 	bl	8000574 <Error_Handler>
  }
  /* USER CODE BEGIN IWDG_Init 2 */

  /* USER CODE END IWDG_Init 2 */

}
 8000354:	bf00      	nop
 8000356:	bd80      	pop	{r7, pc}
 8000358:	2000042c 	.word	0x2000042c
 800035c:	40003000 	.word	0x40003000

08000360 <MX_USART1_UART_Init>:
  * @brief USART1 Initialization Function
  * @param None
  * @retval None
  */
static void MX_USART1_UART_Init(void)
{
 8000360:	b580      	push	{r7, lr}
 8000362:	af00      	add	r7, sp, #0
  /* USER CODE END USART1_Init 0 */

  /* USER CODE BEGIN USART1_Init 1 */

  /* USER CODE END USART1_Init 1 */
  huart1.Instance = USART1;
 8000364:	4b11      	ldr	r3, [pc, #68]	; (80003ac <MX_USART1_UART_Init+0x4c>)
 8000366:	4a12      	ldr	r2, [pc, #72]	; (80003b0 <MX_USART1_UART_Init+0x50>)
 8000368:	601a      	str	r2, [r3, #0]
  huart1.Init.BaudRate = 115200;
 800036a:	4b10      	ldr	r3, [pc, #64]	; (80003ac <MX_USART1_UART_Init+0x4c>)
 800036c:	f44f 32e1 	mov.w	r2, #115200	; 0x1c200
 8000370:	605a      	str	r2, [r3, #4]
  huart1.Init.WordLength = UART_WORDLENGTH_8B;
 8000372:	4b0e      	ldr	r3, [pc, #56]	; (80003ac <MX_USART1_UART_Init+0x4c>)
 8000374:	2200      	movs	r2, #0
 8000376:	609a      	str	r2, [r3, #8]
  huart1.Init.StopBits = UART_STOPBITS_1;
 8000378:	4b0c      	ldr	r3, [pc, #48]	; (80003ac <MX_USART1_UART_Init+0x4c>)
 800037a:	2200      	movs	r2, #0
 800037c:	60da      	str	r2, [r3, #12]
  huart1.Init.Parity = UART_PARITY_NONE;
 800037e:	4b0b      	ldr	r3, [pc, #44]	; (80003ac <MX_USART1_UART_Init+0x4c>)
 8000380:	2200      	movs	r2, #0
 8000382:	611a      	str	r2, [r3, #16]
  huart1.Init.Mode = UART_MODE_TX_RX;
 8000384:	4b09      	ldr	r3, [pc, #36]	; (80003ac <MX_USART1_UART_Init+0x4c>)
 8000386:	220c      	movs	r2, #12
 8000388:	615a      	str	r2, [r3, #20]
  huart1.Init.HwFlowCtl = UART_HWCONTROL_NONE;
 800038a:	4b08      	ldr	r3, [pc, #32]	; (80003ac <MX_USART1_UART_Init+0x4c>)
 800038c:	2200      	movs	r2, #0
 800038e:	619a      	str	r2, [r3, #24]
  huart1.Init.OverSampling = UART_OVERSAMPLING_16;
 8000390:	4b06      	ldr	r3, [pc, #24]	; (80003ac <MX_USART1_UART_Init+0x4c>)
 8000392:	2200      	movs	r2, #0
 8000394:	61da      	str	r2, [r3, #28]
  if (HAL_HalfDuplex_Init(&huart1) != HAL_OK)
 8000396:	4805      	ldr	r0, [pc, #20]	; (80003ac <MX_USART1_UART_Init+0x4c>)
 8000398:	f002 fbc5 	bl	8002b26 <HAL_HalfDuplex_Init>
 800039c:	4603      	mov	r3, r0
 800039e:	2b00      	cmp	r3, #0
 80003a0:	d001      	beq.n	80003a6 <MX_USART1_UART_Init+0x46>
  {
    Error_Handler();
 80003a2:	f000 f8e7 	bl	8000574 <Error_Handler>
  }
  /* USER CODE BEGIN USART1_Init 2 */

  /* USER CODE END USART1_Init 2 */

}
 80003a6:	bf00      	nop
 80003a8:	bd80      	pop	{r7, pc}
 80003aa:	bf00      	nop
 80003ac:	20000468 	.word	0x20000468
 80003b0:	40013800 	.word	0x40013800

080003b4 <MX_USART3_UART_Init>:
  * @brief USART3 Initialization Function
  * @param None
  * @retval None
  */
static void MX_USART3_UART_Init(void)
{
 80003b4:	b580      	push	{r7, lr}
 80003b6:	af00      	add	r7, sp, #0
  /* USER CODE END USART3_Init 0 */

  /* USER CODE BEGIN USART3_Init 1 */

  /* USER CODE END USART3_Init 1 */
  huart3.Instance = USART3;
 80003b8:	4b11      	ldr	r3, [pc, #68]	; (8000400 <MX_USART3_UART_Init+0x4c>)
 80003ba:	4a12      	ldr	r2, [pc, #72]	; (8000404 <MX_USART3_UART_Init+0x50>)
 80003bc:	601a      	str	r2, [r3, #0]
  huart3.Init.BaudRate = 115200;
 80003be:	4b10      	ldr	r3, [pc, #64]	; (8000400 <MX_USART3_UART_Init+0x4c>)
 80003c0:	f44f 32e1 	mov.w	r2, #115200	; 0x1c200
 80003c4:	605a      	str	r2, [r3, #4]
  huart3.Init.WordLength = UART_WORDLENGTH_8B;
 80003c6:	4b0e      	ldr	r3, [pc, #56]	; (8000400 <MX_USART3_UART_Init+0x4c>)
 80003c8:	2200      	movs	r2, #0
 80003ca:	609a      	str	r2, [r3, #8]
  huart3.Init.StopBits = UART_STOPBITS_1;
 80003cc:	4b0c      	ldr	r3, [pc, #48]	; (8000400 <MX_USART3_UART_Init+0x4c>)
 80003ce:	2200      	movs	r2, #0
 80003d0:	60da      	str	r2, [r3, #12]
  huart3.Init.Parity = UART_PARITY_NONE;
 80003d2:	4b0b      	ldr	r3, [pc, #44]	; (8000400 <MX_USART3_UART_Init+0x4c>)
 80003d4:	2200      	movs	r2, #0
 80003d6:	611a      	str	r2, [r3, #16]
  huart3.Init.Mode = UART_MODE_TX_RX;
 80003d8:	4b09      	ldr	r3, [pc, #36]	; (8000400 <MX_USART3_UART_Init+0x4c>)
 80003da:	220c      	movs	r2, #12
 80003dc:	615a      	str	r2, [r3, #20]
  huart3.Init.HwFlowCtl = UART_HWCONTROL_NONE;
 80003de:	4b08      	ldr	r3, [pc, #32]	; (8000400 <MX_USART3_UART_Init+0x4c>)
 80003e0:	2200      	movs	r2, #0
 80003e2:	619a      	str	r2, [r3, #24]
  huart3.Init.OverSampling = UART_OVERSAMPLING_16;
 80003e4:	4b06      	ldr	r3, [pc, #24]	; (8000400 <MX_USART3_UART_Init+0x4c>)
 80003e6:	2200      	movs	r2, #0
 80003e8:	61da      	str	r2, [r3, #28]
  if (HAL_UART_Init(&huart3) != HAL_OK)
 80003ea:	4805      	ldr	r0, [pc, #20]	; (8000400 <MX_USART3_UART_Init+0x4c>)
 80003ec:	f002 fb4e 	bl	8002a8c <HAL_UART_Init>
 80003f0:	4603      	mov	r3, r0
 80003f2:	2b00      	cmp	r3, #0
 80003f4:	d001      	beq.n	80003fa <MX_USART3_UART_Init+0x46>
  {
    Error_Handler();
 80003f6:	f000 f8bd 	bl	8000574 <Error_Handler>
  }
  /* USER CODE BEGIN USART3_Init 2 */

  /* USER CODE END USART3_Init 2 */

}
 80003fa:	bf00      	nop
 80003fc:	bd80      	pop	{r7, pc}
 80003fe:	bf00      	nop
 8000400:	200003bc 	.word	0x200003bc
 8000404:	40004800 	.word	0x40004800

08000408 <MX_GPIO_Init>:
  * @brief GPIO Initialization Function
  * @param None
  * @retval None
  */
static void MX_GPIO_Init(void)
{
 8000408:	b580      	push	{r7, lr}
 800040a:	b08a      	sub	sp, #40	; 0x28
 800040c:	af00      	add	r7, sp, #0
  GPIO_InitTypeDef GPIO_InitStruct = {0};
 800040e:	f107 0314 	add.w	r3, r7, #20
 8000412:	2200      	movs	r2, #0
 8000414:	601a      	str	r2, [r3, #0]
 8000416:	605a      	str	r2, [r3, #4]
 8000418:	609a      	str	r2, [r3, #8]
 800041a:	60da      	str	r2, [r3, #12]

  /* GPIO Ports Clock Enable */
  __HAL_RCC_GPIOC_CLK_ENABLE();
 800041c:	4b50      	ldr	r3, [pc, #320]	; (8000560 <MX_GPIO_Init+0x158>)
 800041e:	699b      	ldr	r3, [r3, #24]
 8000420:	4a4f      	ldr	r2, [pc, #316]	; (8000560 <MX_GPIO_Init+0x158>)
 8000422:	f043 0310 	orr.w	r3, r3, #16
 8000426:	6193      	str	r3, [r2, #24]
 8000428:	4b4d      	ldr	r3, [pc, #308]	; (8000560 <MX_GPIO_Init+0x158>)
 800042a:	699b      	ldr	r3, [r3, #24]
 800042c:	f003 0310 	and.w	r3, r3, #16
 8000430:	613b      	str	r3, [r7, #16]
 8000432:	693b      	ldr	r3, [r7, #16]
  __HAL_RCC_GPIOD_CLK_ENABLE();
 8000434:	4b4a      	ldr	r3, [pc, #296]	; (8000560 <MX_GPIO_Init+0x158>)
 8000436:	699b      	ldr	r3, [r3, #24]
 8000438:	4a49      	ldr	r2, [pc, #292]	; (8000560 <MX_GPIO_Init+0x158>)
 800043a:	f043 0320 	orr.w	r3, r3, #32
 800043e:	6193      	str	r3, [r2, #24]
 8000440:	4b47      	ldr	r3, [pc, #284]	; (8000560 <MX_GPIO_Init+0x158>)
 8000442:	699b      	ldr	r3, [r3, #24]
 8000444:	f003 0320 	and.w	r3, r3, #32
 8000448:	60fb      	str	r3, [r7, #12]
 800044a:	68fb      	ldr	r3, [r7, #12]
  __HAL_RCC_GPIOA_CLK_ENABLE();
 800044c:	4b44      	ldr	r3, [pc, #272]	; (8000560 <MX_GPIO_Init+0x158>)
 800044e:	699b      	ldr	r3, [r3, #24]
 8000450:	4a43      	ldr	r2, [pc, #268]	; (8000560 <MX_GPIO_Init+0x158>)
 8000452:	f043 0304 	orr.w	r3, r3, #4
 8000456:	6193      	str	r3, [r2, #24]
 8000458:	4b41      	ldr	r3, [pc, #260]	; (8000560 <MX_GPIO_Init+0x158>)
 800045a:	699b      	ldr	r3, [r3, #24]
 800045c:	f003 0304 	and.w	r3, r3, #4
 8000460:	60bb      	str	r3, [r7, #8]
 8000462:	68bb      	ldr	r3, [r7, #8]
  __HAL_RCC_GPIOB_CLK_ENABLE();
 8000464:	4b3e      	ldr	r3, [pc, #248]	; (8000560 <MX_GPIO_Init+0x158>)
 8000466:	699b      	ldr	r3, [r3, #24]
 8000468:	4a3d      	ldr	r2, [pc, #244]	; (8000560 <MX_GPIO_Init+0x158>)
 800046a:	f043 0308 	orr.w	r3, r3, #8
 800046e:	6193      	str	r3, [r2, #24]
 8000470:	4b3b      	ldr	r3, [pc, #236]	; (8000560 <MX_GPIO_Init+0x158>)
 8000472:	699b      	ldr	r3, [r3, #24]
 8000474:	f003 0308 	and.w	r3, r3, #8
 8000478:	607b      	str	r3, [r7, #4]
 800047a:	687b      	ldr	r3, [r7, #4]

  /*Configure GPIO pin Output Level */
  HAL_GPIO_WritePin(RS485_DIR_GPIO_Port, RS485_DIR_Pin, GPIO_PIN_RESET);
 800047c:	2200      	movs	r2, #0
 800047e:	2180      	movs	r1, #128	; 0x80
 8000480:	4838      	ldr	r0, [pc, #224]	; (8000564 <MX_GPIO_Init+0x15c>)
 8000482:	f000 feff 	bl	8001284 <HAL_GPIO_WritePin>

  /*Configure GPIO pins : LED_Pin MODE_0_Pin MODE_1_Pin */
  GPIO_InitStruct.Pin = LED_Pin|MODE_0_Pin|MODE_1_Pin;
 8000486:	f44f 4360 	mov.w	r3, #57344	; 0xe000
 800048a:	617b      	str	r3, [r7, #20]
  GPIO_InitStruct.Mode = GPIO_MODE_INPUT;
 800048c:	2300      	movs	r3, #0
 800048e:	61bb      	str	r3, [r7, #24]
  GPIO_InitStruct.Pull = GPIO_NOPULL;
 8000490:	2300      	movs	r3, #0
 8000492:	61fb      	str	r3, [r7, #28]
  HAL_GPIO_Init(GPIOC, &GPIO_InitStruct);
 8000494:	f107 0314 	add.w	r3, r7, #20
 8000498:	4619      	mov	r1, r3
 800049a:	4833      	ldr	r0, [pc, #204]	; (8000568 <MX_GPIO_Init+0x160>)
 800049c:	f000 fd98 	bl	8000fd0 <HAL_GPIO_Init>

  /*Configure GPIO pins : CH1_R_Pin CH1_G_Pin CH1_B_Pin CH2_R_Pin 
                           CH2_G_Pin CH3_R_Pin CH3_G_Pin CH3_B_Pin */
  GPIO_InitStruct.Pin = CH1_R_Pin|CH1_G_Pin|CH1_B_Pin|CH2_R_Pin 
 80004a0:	f240 73ce 	movw	r3, #1998	; 0x7ce
 80004a4:	617b      	str	r3, [r7, #20]
                          |CH2_G_Pin|CH3_R_Pin|CH3_G_Pin|CH3_B_Pin;
  GPIO_InitStruct.Mode = GPIO_MODE_AF_PP;
 80004a6:	2302      	movs	r3, #2
 80004a8:	61bb      	str	r3, [r7, #24]
  GPIO_InitStruct.Speed = GPIO_SPEED_FREQ_LOW;
 80004aa:	2302      	movs	r3, #2
 80004ac:	623b      	str	r3, [r7, #32]
  HAL_GPIO_Init(GPIOA, &GPIO_InitStruct);
 80004ae:	f107 0314 	add.w	r3, r7, #20
 80004b2:	4619      	mov	r1, r3
 80004b4:	482d      	ldr	r0, [pc, #180]	; (800056c <MX_GPIO_Init+0x164>)
 80004b6:	f000 fd8b 	bl	8000fd0 <HAL_GPIO_Init>

  /*Configure GPIO pins : BUTTON_Pin ADDR_0_Pin */
  GPIO_InitStruct.Pin = BUTTON_Pin|ADDR_0_Pin;
 80004ba:	f248 0320 	movw	r3, #32800	; 0x8020
 80004be:	617b      	str	r3, [r7, #20]
  GPIO_InitStruct.Mode = GPIO_MODE_INPUT;
 80004c0:	2300      	movs	r3, #0
 80004c2:	61bb      	str	r3, [r7, #24]
  GPIO_InitStruct.Pull = GPIO_NOPULL;
 80004c4:	2300      	movs	r3, #0
 80004c6:	61fb      	str	r3, [r7, #28]
  HAL_GPIO_Init(GPIOA, &GPIO_InitStruct);
 80004c8:	f107 0314 	add.w	r3, r7, #20
 80004cc:	4619      	mov	r1, r3
 80004ce:	4827      	ldr	r0, [pc, #156]	; (800056c <MX_GPIO_Init+0x164>)
 80004d0:	f000 fd7e 	bl	8000fd0 <HAL_GPIO_Init>

  /*Configure GPIO pins : CH2_B_Pin CH2_W_Pin */
  GPIO_InitStruct.Pin = CH2_B_Pin|CH2_W_Pin;
 80004d4:	2303      	movs	r3, #3
 80004d6:	617b      	str	r3, [r7, #20]
  GPIO_InitStruct.Mode = GPIO_MODE_AF_PP;
 80004d8:	2302      	movs	r3, #2
 80004da:	61bb      	str	r3, [r7, #24]
  GPIO_InitStruct.Speed = GPIO_SPEED_FREQ_LOW;
 80004dc:	2302      	movs	r3, #2
 80004de:	623b      	str	r3, [r7, #32]
  HAL_GPIO_Init(GPIOB, &GPIO_InitStruct);
 80004e0:	f107 0314 	add.w	r3, r7, #20
 80004e4:	4619      	mov	r1, r3
 80004e6:	481f      	ldr	r0, [pc, #124]	; (8000564 <MX_GPIO_Init+0x15c>)
 80004e8:	f000 fd72 	bl	8000fd0 <HAL_GPIO_Init>

  /*Configure GPIO pins : ADDR_5_Pin ADDR_6_Pin ADDR_7_Pin ADDR_1_Pin 
                           ADDR_2_Pin ADDR_3_Pin ADDR_4_Pin */
  GPIO_InitStruct.Pin = ADDR_5_Pin|ADDR_6_Pin|ADDR_7_Pin|ADDR_1_Pin 
 80004ec:	f247 3318 	movw	r3, #29464	; 0x7318
 80004f0:	617b      	str	r3, [r7, #20]
                          |ADDR_2_Pin|ADDR_3_Pin|ADDR_4_Pin;
  GPIO_InitStruct.Mode = GPIO_MODE_INPUT;
 80004f2:	2300      	movs	r3, #0
 80004f4:	61bb      	str	r3, [r7, #24]
  GPIO_InitStruct.Pull = GPIO_NOPULL;
 80004f6:	2300      	movs	r3, #0
 80004f8:	61fb      	str	r3, [r7, #28]
  HAL_GPIO_Init(GPIOB, &GPIO_InitStruct);
 80004fa:	f107 0314 	add.w	r3, r7, #20
 80004fe:	4619      	mov	r1, r3
 8000500:	4818      	ldr	r0, [pc, #96]	; (8000564 <MX_GPIO_Init+0x15c>)
 8000502:	f000 fd65 	bl	8000fd0 <HAL_GPIO_Init>

  /*Configure GPIO pins : WS8212_CH2_Pin WS8212_CH1_Pin */
  GPIO_InitStruct.Pin = WS8212_CH2_Pin|WS8212_CH1_Pin;
 8000506:	f248 0320 	movw	r3, #32800	; 0x8020
 800050a:	617b      	str	r3, [r7, #20]
  GPIO_InitStruct.Mode = GPIO_MODE_AF_PP;
 800050c:	2302      	movs	r3, #2
 800050e:	61bb      	str	r3, [r7, #24]
  GPIO_InitStruct.Speed = GPIO_SPEED_FREQ_HIGH;
 8000510:	2303      	movs	r3, #3
 8000512:	623b      	str	r3, [r7, #32]
  HAL_GPIO_Init(GPIOB, &GPIO_InitStruct);
 8000514:	f107 0314 	add.w	r3, r7, #20
 8000518:	4619      	mov	r1, r3
 800051a:	4812      	ldr	r0, [pc, #72]	; (8000564 <MX_GPIO_Init+0x15c>)
 800051c:	f000 fd58 	bl	8000fd0 <HAL_GPIO_Init>

  /*Configure GPIO pin : RS485_DIR_Pin */
  GPIO_InitStruct.Pin = RS485_DIR_Pin;
 8000520:	2380      	movs	r3, #128	; 0x80
 8000522:	617b      	str	r3, [r7, #20]
  GPIO_InitStruct.Mode = GPIO_MODE_OUTPUT_PP;
 8000524:	2301      	movs	r3, #1
 8000526:	61bb      	str	r3, [r7, #24]
  GPIO_InitStruct.Pull = GPIO_NOPULL;
 8000528:	2300      	movs	r3, #0
 800052a:	61fb      	str	r3, [r7, #28]
  GPIO_InitStruct.Speed = GPIO_SPEED_FREQ_LOW;
 800052c:	2302      	movs	r3, #2
 800052e:	623b      	str	r3, [r7, #32]
  HAL_GPIO_Init(RS485_DIR_GPIO_Port, &GPIO_InitStruct);
 8000530:	f107 0314 	add.w	r3, r7, #20
 8000534:	4619      	mov	r1, r3
 8000536:	480b      	ldr	r0, [pc, #44]	; (8000564 <MX_GPIO_Init+0x15c>)
 8000538:	f000 fd4a 	bl	8000fd0 <HAL_GPIO_Init>

  /*Configure peripheral I/O remapping */
  __HAL_AFIO_REMAP_SPI1_ENABLE();
 800053c:	4b0c      	ldr	r3, [pc, #48]	; (8000570 <MX_GPIO_Init+0x168>)
 800053e:	685b      	ldr	r3, [r3, #4]
 8000540:	627b      	str	r3, [r7, #36]	; 0x24
 8000542:	6a7b      	ldr	r3, [r7, #36]	; 0x24
 8000544:	f043 63e0 	orr.w	r3, r3, #117440512	; 0x7000000
 8000548:	627b      	str	r3, [r7, #36]	; 0x24
 800054a:	6a7b      	ldr	r3, [r7, #36]	; 0x24
 800054c:	f043 0301 	orr.w	r3, r3, #1
 8000550:	627b      	str	r3, [r7, #36]	; 0x24
 8000552:	4a07      	ldr	r2, [pc, #28]	; (8000570 <MX_GPIO_Init+0x168>)
 8000554:	6a7b      	ldr	r3, [r7, #36]	; 0x24
 8000556:	6053      	str	r3, [r2, #4]

}
 8000558:	bf00      	nop
 800055a:	3728      	adds	r7, #40	; 0x28
 800055c:	46bd      	mov	sp, r7
 800055e:	bd80      	pop	{r7, pc}
 8000560:	40021000 	.word	0x40021000
 8000564:	40010c00 	.word	0x40010c00
 8000568:	40011000 	.word	0x40011000
 800056c:	40010800 	.word	0x40010800
 8000570:	40010000 	.word	0x40010000

08000574 <Error_Handler>:
/**
  * @brief  This function is executed in case of error occurrence.
  * @retval None
  */
void Error_Handler(void)
{
 8000574:	b480      	push	{r7}
 8000576:	af00      	add	r7, sp, #0
  /* USER CODE BEGIN Error_Handler_Debug */
  /* User can add his own implementation to report the HAL error return state */

  /* USER CODE END Error_Handler_Debug */
}
 8000578:	bf00      	nop
 800057a:	46bd      	mov	sp, r7
 800057c:	bc80      	pop	{r7}
 800057e:	4770      	bx	lr

08000580 <HAL_MspInit>:
/* USER CODE END 0 */
/**
  * Initializes the Global MSP.
  */
void HAL_MspInit(void)
{
 8000580:	b480      	push	{r7}
 8000582:	b085      	sub	sp, #20
 8000584:	af00      	add	r7, sp, #0
  /* USER CODE BEGIN MspInit 0 */

  /* USER CODE END MspInit 0 */

  __HAL_RCC_AFIO_CLK_ENABLE();
 8000586:	4b15      	ldr	r3, [pc, #84]	; (80005dc <HAL_MspInit+0x5c>)
 8000588:	699b      	ldr	r3, [r3, #24]
 800058a:	4a14      	ldr	r2, [pc, #80]	; (80005dc <HAL_MspInit+0x5c>)
 800058c:	f043 0301 	orr.w	r3, r3, #1
 8000590:	6193      	str	r3, [r2, #24]
 8000592:	4b12      	ldr	r3, [pc, #72]	; (80005dc <HAL_MspInit+0x5c>)
 8000594:	699b      	ldr	r3, [r3, #24]
 8000596:	f003 0301 	and.w	r3, r3, #1
 800059a:	60bb      	str	r3, [r7, #8]
 800059c:	68bb      	ldr	r3, [r7, #8]
  __HAL_RCC_PWR_CLK_ENABLE();
 800059e:	4b0f      	ldr	r3, [pc, #60]	; (80005dc <HAL_MspInit+0x5c>)
 80005a0:	69db      	ldr	r3, [r3, #28]
 80005a2:	4a0e      	ldr	r2, [pc, #56]	; (80005dc <HAL_MspInit+0x5c>)
 80005a4:	f043 5380 	orr.w	r3, r3, #268435456	; 0x10000000
 80005a8:	61d3      	str	r3, [r2, #28]
 80005aa:	4b0c      	ldr	r3, [pc, #48]	; (80005dc <HAL_MspInit+0x5c>)
 80005ac:	69db      	ldr	r3, [r3, #28]
 80005ae:	f003 5380 	and.w	r3, r3, #268435456	; 0x10000000
 80005b2:	607b      	str	r3, [r7, #4]
 80005b4:	687b      	ldr	r3, [r7, #4]

  /* System interrupt init*/

  /** NOJTAG: JTAG-DP Disabled and SW-DP Enabled 
  */
  __HAL_AFIO_REMAP_SWJ_NOJTAG();
 80005b6:	4b0a      	ldr	r3, [pc, #40]	; (80005e0 <HAL_MspInit+0x60>)
 80005b8:	685b      	ldr	r3, [r3, #4]
 80005ba:	60fb      	str	r3, [r7, #12]
 80005bc:	68fb      	ldr	r3, [r7, #12]
 80005be:	f023 63e0 	bic.w	r3, r3, #117440512	; 0x7000000
 80005c2:	60fb      	str	r3, [r7, #12]
 80005c4:	68fb      	ldr	r3, [r7, #12]
 80005c6:	f043 7300 	orr.w	r3, r3, #33554432	; 0x2000000
 80005ca:	60fb      	str	r3, [r7, #12]
 80005cc:	4a04      	ldr	r2, [pc, #16]	; (80005e0 <HAL_MspInit+0x60>)
 80005ce:	68fb      	ldr	r3, [r7, #12]
 80005d0:	6053      	str	r3, [r2, #4]

  /* USER CODE BEGIN MspInit 1 */

  /* USER CODE END MspInit 1 */
}
 80005d2:	bf00      	nop
 80005d4:	3714      	adds	r7, #20
 80005d6:	46bd      	mov	sp, r7
 80005d8:	bc80      	pop	{r7}
 80005da:	4770      	bx	lr
 80005dc:	40021000 	.word	0x40021000
 80005e0:	40010000 	.word	0x40010000

080005e4 <HAL_ADC_MspInit>:
* This function configures the hardware resources used in this example
* @param hadc: ADC handle pointer
* @retval None
*/
void HAL_ADC_MspInit(ADC_HandleTypeDef* hadc)
{
 80005e4:	b580      	push	{r7, lr}
 80005e6:	b08a      	sub	sp, #40	; 0x28
 80005e8:	af00      	add	r7, sp, #0
 80005ea:	6078      	str	r0, [r7, #4]
  GPIO_InitTypeDef GPIO_InitStruct = {0};
 80005ec:	f107 0318 	add.w	r3, r7, #24
 80005f0:	2200      	movs	r2, #0
 80005f2:	601a      	str	r2, [r3, #0]
 80005f4:	605a      	str	r2, [r3, #4]
 80005f6:	609a      	str	r2, [r3, #8]
 80005f8:	60da      	str	r2, [r3, #12]
  if(hadc->Instance==ADC1)
 80005fa:	687b      	ldr	r3, [r7, #4]
 80005fc:	681b      	ldr	r3, [r3, #0]
 80005fe:	4a28      	ldr	r2, [pc, #160]	; (80006a0 <HAL_ADC_MspInit+0xbc>)
 8000600:	4293      	cmp	r3, r2
 8000602:	d122      	bne.n	800064a <HAL_ADC_MspInit+0x66>
  {
  /* USER CODE BEGIN ADC1_MspInit 0 */

  /* USER CODE END ADC1_MspInit 0 */
    /* Peripheral clock enable */
    __HAL_RCC_ADC1_CLK_ENABLE();
 8000604:	4b27      	ldr	r3, [pc, #156]	; (80006a4 <HAL_ADC_MspInit+0xc0>)
 8000606:	699b      	ldr	r3, [r3, #24]
 8000608:	4a26      	ldr	r2, [pc, #152]	; (80006a4 <HAL_ADC_MspInit+0xc0>)
 800060a:	f443 7300 	orr.w	r3, r3, #512	; 0x200
 800060e:	6193      	str	r3, [r2, #24]
 8000610:	4b24      	ldr	r3, [pc, #144]	; (80006a4 <HAL_ADC_MspInit+0xc0>)
 8000612:	699b      	ldr	r3, [r3, #24]
 8000614:	f403 7300 	and.w	r3, r3, #512	; 0x200
 8000618:	617b      	str	r3, [r7, #20]
 800061a:	697b      	ldr	r3, [r7, #20]
  
    __HAL_RCC_GPIOA_CLK_ENABLE();
 800061c:	4b21      	ldr	r3, [pc, #132]	; (80006a4 <HAL_ADC_MspInit+0xc0>)
 800061e:	699b      	ldr	r3, [r3, #24]
 8000620:	4a20      	ldr	r2, [pc, #128]	; (80006a4 <HAL_ADC_MspInit+0xc0>)
 8000622:	f043 0304 	orr.w	r3, r3, #4
 8000626:	6193      	str	r3, [r2, #24]
 8000628:	4b1e      	ldr	r3, [pc, #120]	; (80006a4 <HAL_ADC_MspInit+0xc0>)
 800062a:	699b      	ldr	r3, [r3, #24]
 800062c:	f003 0304 	and.w	r3, r3, #4
 8000630:	613b      	str	r3, [r7, #16]
 8000632:	693b      	ldr	r3, [r7, #16]
    /**ADC1 GPIO Configuration    
    PA0-WKUP     ------> ADC1_IN0 
    */
    GPIO_InitStruct.Pin = ANALOG_0_Pin;
 8000634:	2301      	movs	r3, #1
 8000636:	61bb      	str	r3, [r7, #24]
    GPIO_InitStruct.Mode = GPIO_MODE_ANALOG;
 8000638:	2303      	movs	r3, #3
 800063a:	61fb      	str	r3, [r7, #28]
    HAL_GPIO_Init(ANALOG_0_GPIO_Port, &GPIO_InitStruct);
 800063c:	f107 0318 	add.w	r3, r7, #24
 8000640:	4619      	mov	r1, r3
 8000642:	4819      	ldr	r0, [pc, #100]	; (80006a8 <HAL_ADC_MspInit+0xc4>)
 8000644:	f000 fcc4 	bl	8000fd0 <HAL_GPIO_Init>
  /* USER CODE BEGIN ADC2_MspInit 1 */

  /* USER CODE END ADC2_MspInit 1 */
  }

}
 8000648:	e026      	b.n	8000698 <HAL_ADC_MspInit+0xb4>
  else if(hadc->Instance==ADC2)
 800064a:	687b      	ldr	r3, [r7, #4]
 800064c:	681b      	ldr	r3, [r3, #0]
 800064e:	4a17      	ldr	r2, [pc, #92]	; (80006ac <HAL_ADC_MspInit+0xc8>)
 8000650:	4293      	cmp	r3, r2
 8000652:	d121      	bne.n	8000698 <HAL_ADC_MspInit+0xb4>
    __HAL_RCC_ADC2_CLK_ENABLE();
 8000654:	4b13      	ldr	r3, [pc, #76]	; (80006a4 <HAL_ADC_MspInit+0xc0>)
 8000656:	699b      	ldr	r3, [r3, #24]
 8000658:	4a12      	ldr	r2, [pc, #72]	; (80006a4 <HAL_ADC_MspInit+0xc0>)
 800065a:	f443 6380 	orr.w	r3, r3, #1024	; 0x400
 800065e:	6193      	str	r3, [r2, #24]
 8000660:	4b10      	ldr	r3, [pc, #64]	; (80006a4 <HAL_ADC_MspInit+0xc0>)
 8000662:	699b      	ldr	r3, [r3, #24]
 8000664:	f403 6380 	and.w	r3, r3, #1024	; 0x400
 8000668:	60fb      	str	r3, [r7, #12]
 800066a:	68fb      	ldr	r3, [r7, #12]
    __HAL_RCC_GPIOA_CLK_ENABLE();
 800066c:	4b0d      	ldr	r3, [pc, #52]	; (80006a4 <HAL_ADC_MspInit+0xc0>)
 800066e:	699b      	ldr	r3, [r3, #24]
 8000670:	4a0c      	ldr	r2, [pc, #48]	; (80006a4 <HAL_ADC_MspInit+0xc0>)
 8000672:	f043 0304 	orr.w	r3, r3, #4
 8000676:	6193      	str	r3, [r2, #24]
 8000678:	4b0a      	ldr	r3, [pc, #40]	; (80006a4 <HAL_ADC_MspInit+0xc0>)
 800067a:	699b      	ldr	r3, [r3, #24]
 800067c:	f003 0304 	and.w	r3, r3, #4
 8000680:	60bb      	str	r3, [r7, #8]
 8000682:	68bb      	ldr	r3, [r7, #8]
    GPIO_InitStruct.Pin = ANALOG_1_Pin;
 8000684:	2310      	movs	r3, #16
 8000686:	61bb      	str	r3, [r7, #24]
    GPIO_InitStruct.Mode = GPIO_MODE_ANALOG;
 8000688:	2303      	movs	r3, #3
 800068a:	61fb      	str	r3, [r7, #28]
    HAL_GPIO_Init(ANALOG_1_GPIO_Port, &GPIO_InitStruct);
 800068c:	f107 0318 	add.w	r3, r7, #24
 8000690:	4619      	mov	r1, r3
 8000692:	4805      	ldr	r0, [pc, #20]	; (80006a8 <HAL_ADC_MspInit+0xc4>)
 8000694:	f000 fc9c 	bl	8000fd0 <HAL_GPIO_Init>
}
 8000698:	bf00      	nop
 800069a:	3728      	adds	r7, #40	; 0x28
 800069c:	46bd      	mov	sp, r7
 800069e:	bd80      	pop	{r7, pc}
 80006a0:	40012400 	.word	0x40012400
 80006a4:	40021000 	.word	0x40021000
 80006a8:	40010800 	.word	0x40010800
 80006ac:	40012800 	.word	0x40012800

080006b0 <HAL_UART_MspInit>:
* This function configures the hardware resources used in this example
* @param huart: UART handle pointer
* @retval None
*/
void HAL_UART_MspInit(UART_HandleTypeDef* huart)
{
 80006b0:	b580      	push	{r7, lr}
 80006b2:	b08c      	sub	sp, #48	; 0x30
 80006b4:	af00      	add	r7, sp, #0
 80006b6:	6078      	str	r0, [r7, #4]
  GPIO_InitTypeDef GPIO_InitStruct = {0};
 80006b8:	f107 031c 	add.w	r3, r7, #28
 80006bc:	2200      	movs	r2, #0
 80006be:	601a      	str	r2, [r3, #0]
 80006c0:	605a      	str	r2, [r3, #4]
 80006c2:	609a      	str	r2, [r3, #8]
 80006c4:	60da      	str	r2, [r3, #12]
  if(huart->Instance==USART1)
 80006c6:	687b      	ldr	r3, [r7, #4]
 80006c8:	681b      	ldr	r3, [r3, #0]
 80006ca:	4a38      	ldr	r2, [pc, #224]	; (80007ac <HAL_UART_MspInit+0xfc>)
 80006cc:	4293      	cmp	r3, r2
 80006ce:	d132      	bne.n	8000736 <HAL_UART_MspInit+0x86>
  {
  /* USER CODE BEGIN USART1_MspInit 0 */

  /* USER CODE END USART1_MspInit 0 */
    /* Peripheral clock enable */
    __HAL_RCC_USART1_CLK_ENABLE();
 80006d0:	4b37      	ldr	r3, [pc, #220]	; (80007b0 <HAL_UART_MspInit+0x100>)
 80006d2:	699b      	ldr	r3, [r3, #24]
 80006d4:	4a36      	ldr	r2, [pc, #216]	; (80007b0 <HAL_UART_MspInit+0x100>)
 80006d6:	f443 4380 	orr.w	r3, r3, #16384	; 0x4000
 80006da:	6193      	str	r3, [r2, #24]
 80006dc:	4b34      	ldr	r3, [pc, #208]	; (80007b0 <HAL_UART_MspInit+0x100>)
 80006de:	699b      	ldr	r3, [r3, #24]
 80006e0:	f403 4380 	and.w	r3, r3, #16384	; 0x4000
 80006e4:	61bb      	str	r3, [r7, #24]
 80006e6:	69bb      	ldr	r3, [r7, #24]
  
    __HAL_RCC_GPIOB_CLK_ENABLE();
 80006e8:	4b31      	ldr	r3, [pc, #196]	; (80007b0 <HAL_UART_MspInit+0x100>)
 80006ea:	699b      	ldr	r3, [r3, #24]
 80006ec:	4a30      	ldr	r2, [pc, #192]	; (80007b0 <HAL_UART_MspInit+0x100>)
 80006ee:	f043 0308 	orr.w	r3, r3, #8
 80006f2:	6193      	str	r3, [r2, #24]
 80006f4:	4b2e      	ldr	r3, [pc, #184]	; (80007b0 <HAL_UART_MspInit+0x100>)
 80006f6:	699b      	ldr	r3, [r3, #24]
 80006f8:	f003 0308 	and.w	r3, r3, #8
 80006fc:	617b      	str	r3, [r7, #20]
 80006fe:	697b      	ldr	r3, [r7, #20]
    /**USART1 GPIO Configuration    
    PB6     ------> USART1_TX 
    */
    GPIO_InitStruct.Pin = RS485_RXTX_Pin;
 8000700:	2340      	movs	r3, #64	; 0x40
 8000702:	61fb      	str	r3, [r7, #28]
    GPIO_InitStruct.Mode = GPIO_MODE_AF_OD;
 8000704:	2312      	movs	r3, #18
 8000706:	623b      	str	r3, [r7, #32]
    GPIO_InitStruct.Speed = GPIO_SPEED_FREQ_HIGH;
 8000708:	2303      	movs	r3, #3
 800070a:	62bb      	str	r3, [r7, #40]	; 0x28
    HAL_GPIO_Init(RS485_RXTX_GPIO_Port, &GPIO_InitStruct);
 800070c:	f107 031c 	add.w	r3, r7, #28
 8000710:	4619      	mov	r1, r3
 8000712:	4828      	ldr	r0, [pc, #160]	; (80007b4 <HAL_UART_MspInit+0x104>)
 8000714:	f000 fc5c 	bl	8000fd0 <HAL_GPIO_Init>

    __HAL_AFIO_REMAP_USART1_ENABLE();
 8000718:	4b27      	ldr	r3, [pc, #156]	; (80007b8 <HAL_UART_MspInit+0x108>)
 800071a:	685b      	ldr	r3, [r3, #4]
 800071c:	62fb      	str	r3, [r7, #44]	; 0x2c
 800071e:	6afb      	ldr	r3, [r7, #44]	; 0x2c
 8000720:	f043 63e0 	orr.w	r3, r3, #117440512	; 0x7000000
 8000724:	62fb      	str	r3, [r7, #44]	; 0x2c
 8000726:	6afb      	ldr	r3, [r7, #44]	; 0x2c
 8000728:	f043 0304 	orr.w	r3, r3, #4
 800072c:	62fb      	str	r3, [r7, #44]	; 0x2c
 800072e:	4a22      	ldr	r2, [pc, #136]	; (80007b8 <HAL_UART_MspInit+0x108>)
 8000730:	6afb      	ldr	r3, [r7, #44]	; 0x2c
 8000732:	6053      	str	r3, [r2, #4]
  /* USER CODE BEGIN USART3_MspInit 1 */

  /* USER CODE END USART3_MspInit 1 */
  }

}
 8000734:	e036      	b.n	80007a4 <HAL_UART_MspInit+0xf4>
  else if(huart->Instance==USART3)
 8000736:	687b      	ldr	r3, [r7, #4]
 8000738:	681b      	ldr	r3, [r3, #0]
 800073a:	4a20      	ldr	r2, [pc, #128]	; (80007bc <HAL_UART_MspInit+0x10c>)
 800073c:	4293      	cmp	r3, r2
 800073e:	d131      	bne.n	80007a4 <HAL_UART_MspInit+0xf4>
    __HAL_RCC_USART3_CLK_ENABLE();
 8000740:	4b1b      	ldr	r3, [pc, #108]	; (80007b0 <HAL_UART_MspInit+0x100>)
 8000742:	69db      	ldr	r3, [r3, #28]
 8000744:	4a1a      	ldr	r2, [pc, #104]	; (80007b0 <HAL_UART_MspInit+0x100>)
 8000746:	f443 2380 	orr.w	r3, r3, #262144	; 0x40000
 800074a:	61d3      	str	r3, [r2, #28]
 800074c:	4b18      	ldr	r3, [pc, #96]	; (80007b0 <HAL_UART_MspInit+0x100>)
 800074e:	69db      	ldr	r3, [r3, #28]
 8000750:	f403 2380 	and.w	r3, r3, #262144	; 0x40000
 8000754:	613b      	str	r3, [r7, #16]
 8000756:	693b      	ldr	r3, [r7, #16]
    __HAL_RCC_GPIOB_CLK_ENABLE();
 8000758:	4b15      	ldr	r3, [pc, #84]	; (80007b0 <HAL_UART_MspInit+0x100>)
 800075a:	699b      	ldr	r3, [r3, #24]
 800075c:	4a14      	ldr	r2, [pc, #80]	; (80007b0 <HAL_UART_MspInit+0x100>)
 800075e:	f043 0308 	orr.w	r3, r3, #8
 8000762:	6193      	str	r3, [r2, #24]
 8000764:	4b12      	ldr	r3, [pc, #72]	; (80007b0 <HAL_UART_MspInit+0x100>)
 8000766:	699b      	ldr	r3, [r3, #24]
 8000768:	f003 0308 	and.w	r3, r3, #8
 800076c:	60fb      	str	r3, [r7, #12]
 800076e:	68fb      	ldr	r3, [r7, #12]
    GPIO_InitStruct.Pin = RS232_TX_Pin;
 8000770:	f44f 6380 	mov.w	r3, #1024	; 0x400
 8000774:	61fb      	str	r3, [r7, #28]
    GPIO_InitStruct.Mode = GPIO_MODE_AF_PP;
 8000776:	2302      	movs	r3, #2
 8000778:	623b      	str	r3, [r7, #32]
    GPIO_InitStruct.Speed = GPIO_SPEED_FREQ_HIGH;
 800077a:	2303      	movs	r3, #3
 800077c:	62bb      	str	r3, [r7, #40]	; 0x28
    HAL_GPIO_Init(RS232_TX_GPIO_Port, &GPIO_InitStruct);
 800077e:	f107 031c 	add.w	r3, r7, #28
 8000782:	4619      	mov	r1, r3
 8000784:	480b      	ldr	r0, [pc, #44]	; (80007b4 <HAL_UART_MspInit+0x104>)
 8000786:	f000 fc23 	bl	8000fd0 <HAL_GPIO_Init>
    GPIO_InitStruct.Pin = RS232_RX_Pin;
 800078a:	f44f 6300 	mov.w	r3, #2048	; 0x800
 800078e:	61fb      	str	r3, [r7, #28]
    GPIO_InitStruct.Mode = GPIO_MODE_INPUT;
 8000790:	2300      	movs	r3, #0
 8000792:	623b      	str	r3, [r7, #32]
    GPIO_InitStruct.Pull = GPIO_NOPULL;
 8000794:	2300      	movs	r3, #0
 8000796:	627b      	str	r3, [r7, #36]	; 0x24
    HAL_GPIO_Init(RS232_RX_GPIO_Port, &GPIO_InitStruct);
 8000798:	f107 031c 	add.w	r3, r7, #28
 800079c:	4619      	mov	r1, r3
 800079e:	4805      	ldr	r0, [pc, #20]	; (80007b4 <HAL_UART_MspInit+0x104>)
 80007a0:	f000 fc16 	bl	8000fd0 <HAL_GPIO_Init>
}
 80007a4:	bf00      	nop
 80007a6:	3730      	adds	r7, #48	; 0x30
 80007a8:	46bd      	mov	sp, r7
 80007aa:	bd80      	pop	{r7, pc}
 80007ac:	40013800 	.word	0x40013800
 80007b0:	40021000 	.word	0x40021000
 80007b4:	40010c00 	.word	0x40010c00
 80007b8:	40010000 	.word	0x40010000
 80007bc:	40004800 	.word	0x40004800

080007c0 <NMI_Handler>:
/******************************************************************************/
/**
  * @brief This function handles Non maskable interrupt.
  */
void NMI_Handler(void)
{
 80007c0:	b480      	push	{r7}
 80007c2:	af00      	add	r7, sp, #0

  /* USER CODE END NonMaskableInt_IRQn 0 */
  /* USER CODE BEGIN NonMaskableInt_IRQn 1 */

  /* USER CODE END NonMaskableInt_IRQn 1 */
}
 80007c4:	bf00      	nop
 80007c6:	46bd      	mov	sp, r7
 80007c8:	bc80      	pop	{r7}
 80007ca:	4770      	bx	lr

080007cc <HardFault_Handler>:

/**
  * @brief This function handles Hard fault interrupt.
  */
void HardFault_Handler(void)
{
 80007cc:	b480      	push	{r7}
 80007ce:	af00      	add	r7, sp, #0
  /* USER CODE BEGIN HardFault_IRQn 0 */

  /* USER CODE END HardFault_IRQn 0 */
  while (1)
 80007d0:	e7fe      	b.n	80007d0 <HardFault_Handler+0x4>

080007d2 <MemManage_Handler>:

/**
  * @brief This function handles Memory management fault.
  */
void MemManage_Handler(void)
{
 80007d2:	b480      	push	{r7}
 80007d4:	af00      	add	r7, sp, #0
  /* USER CODE BEGIN MemoryManagement_IRQn 0 */

  /* USER CODE END MemoryManagement_IRQn 0 */
  while (1)
 80007d6:	e7fe      	b.n	80007d6 <MemManage_Handler+0x4>

080007d8 <BusFault_Handler>:

/**
  * @brief This function handles Prefetch fault, memory access fault.
  */
void BusFault_Handler(void)
{
 80007d8:	b480      	push	{r7}
 80007da:	af00      	add	r7, sp, #0
  /* USER CODE BEGIN BusFault_IRQn 0 */

  /* USER CODE END BusFault_IRQn 0 */
  while (1)
 80007dc:	e7fe      	b.n	80007dc <BusFault_Handler+0x4>

080007de <UsageFault_Handler>:

/**
  * @brief This function handles Undefined instruction or illegal state.
  */
void UsageFault_Handler(void)
{
 80007de:	b480      	push	{r7}
 80007e0:	af00      	add	r7, sp, #0
  /* USER CODE BEGIN UsageFault_IRQn 0 */

  /* USER CODE END UsageFault_IRQn 0 */
  while (1)
 80007e2:	e7fe      	b.n	80007e2 <UsageFault_Handler+0x4>

080007e4 <SVC_Handler>:

/**
  * @brief This function handles System service call via SWI instruction.
  */
void SVC_Handler(void)
{
 80007e4:	b480      	push	{r7}
 80007e6:	af00      	add	r7, sp, #0

  /* USER CODE END SVCall_IRQn 0 */
  /* USER CODE BEGIN SVCall_IRQn 1 */

  /* USER CODE END SVCall_IRQn 1 */
}
 80007e8:	bf00      	nop
 80007ea:	46bd      	mov	sp, r7
 80007ec:	bc80      	pop	{r7}
 80007ee:	4770      	bx	lr

080007f0 <DebugMon_Handler>:

/**
  * @brief This function handles Debug monitor.
  */
void DebugMon_Handler(void)
{
 80007f0:	b480      	push	{r7}
 80007f2:	af00      	add	r7, sp, #0

  /* USER CODE END DebugMonitor_IRQn 0 */
  /* USER CODE BEGIN DebugMonitor_IRQn 1 */

  /* USER CODE END DebugMonitor_IRQn 1 */
}
 80007f4:	bf00      	nop
 80007f6:	46bd      	mov	sp, r7
 80007f8:	bc80      	pop	{r7}
 80007fa:	4770      	bx	lr

080007fc <PendSV_Handler>:

/**
  * @brief This function handles Pendable request for system service.
  */
void PendSV_Handler(void)
{
 80007fc:	b480      	push	{r7}
 80007fe:	af00      	add	r7, sp, #0

  /* USER CODE END PendSV_IRQn 0 */
  /* USER CODE BEGIN PendSV_IRQn 1 */

  /* USER CODE END PendSV_IRQn 1 */
}
 8000800:	bf00      	nop
 8000802:	46bd      	mov	sp, r7
 8000804:	bc80      	pop	{r7}
 8000806:	4770      	bx	lr

08000808 <SysTick_Handler>:

/**
  * @brief This function handles System tick timer.
  */
void SysTick_Handler(void)
{
 8000808:	b580      	push	{r7, lr}
 800080a:	af00      	add	r7, sp, #0
  /* USER CODE BEGIN SysTick_IRQn 0 */

  /* USER CODE END SysTick_IRQn 0 */
  HAL_IncTick();
 800080c:	f000 f8ac 	bl	8000968 <HAL_IncTick>
  /* USER CODE BEGIN SysTick_IRQn 1 */

  /* USER CODE END SysTick_IRQn 1 */
}
 8000810:	bf00      	nop
 8000812:	bd80      	pop	{r7, pc}

08000814 <USB_LP_CAN1_RX0_IRQHandler>:

/**
  * @brief This function handles USB low priority or CAN RX0 interrupts.
  */
void USB_LP_CAN1_RX0_IRQHandler(void)
{
 8000814:	b580      	push	{r7, lr}
 8000816:	af00      	add	r7, sp, #0
  /* USER CODE BEGIN USB_LP_CAN1_RX0_IRQn 0 */

  /* USER CODE END USB_LP_CAN1_RX0_IRQn 0 */
  HAL_PCD_IRQHandler(&hpcd_USB_FS);
 8000818:	4802      	ldr	r0, [pc, #8]	; (8000824 <USB_LP_CAN1_RX0_IRQHandler+0x10>)
 800081a:	f000 fe8b 	bl	8001534 <HAL_PCD_IRQHandler>
  /* USER CODE BEGIN USB_LP_CAN1_RX0_IRQn 1 */

  /* USER CODE END USB_LP_CAN1_RX0_IRQn 1 */
}
 800081e:	bf00      	nop
 8000820:	bd80      	pop	{r7, pc}
 8000822:	bf00      	nop
 8000824:	20000d70 	.word	0x20000d70

08000828 <SystemInit>:
  * @note   This function should be used only after reset.
  * @param  None
  * @retval None
  */
void SystemInit (void)
{
 8000828:	b480      	push	{r7}
 800082a:	af00      	add	r7, sp, #0
  /* Reset the RCC clock configuration to the default reset state(for debug purpose) */
  /* Set HSION bit */
  RCC->CR |= 0x00000001U;
 800082c:	4b15      	ldr	r3, [pc, #84]	; (8000884 <SystemInit+0x5c>)
 800082e:	681b      	ldr	r3, [r3, #0]
 8000830:	4a14      	ldr	r2, [pc, #80]	; (8000884 <SystemInit+0x5c>)
 8000832:	f043 0301 	orr.w	r3, r3, #1
 8000836:	6013      	str	r3, [r2, #0]

  /* Reset SW, HPRE, PPRE1, PPRE2, ADCPRE and MCO bits */
#if !defined(STM32F105xC) && !defined(STM32F107xC)
  RCC->CFGR &= 0xF8FF0000U;
 8000838:	4b12      	ldr	r3, [pc, #72]	; (8000884 <SystemInit+0x5c>)
 800083a:	685a      	ldr	r2, [r3, #4]
 800083c:	4911      	ldr	r1, [pc, #68]	; (8000884 <SystemInit+0x5c>)
 800083e:	4b12      	ldr	r3, [pc, #72]	; (8000888 <SystemInit+0x60>)
 8000840:	4013      	ands	r3, r2
 8000842:	604b      	str	r3, [r1, #4]
#else
  RCC->CFGR &= 0xF0FF0000U;
#endif /* STM32F105xC */   
  
  /* Reset HSEON, CSSON and PLLON bits */
  RCC->CR &= 0xFEF6FFFFU;
 8000844:	4b0f      	ldr	r3, [pc, #60]	; (8000884 <SystemInit+0x5c>)
 8000846:	681b      	ldr	r3, [r3, #0]
 8000848:	4a0e      	ldr	r2, [pc, #56]	; (8000884 <SystemInit+0x5c>)
 800084a:	f023 7384 	bic.w	r3, r3, #17301504	; 0x1080000
 800084e:	f423 3380 	bic.w	r3, r3, #65536	; 0x10000
 8000852:	6013      	str	r3, [r2, #0]

  /* Reset HSEBYP bit */
  RCC->CR &= 0xFFFBFFFFU;
 8000854:	4b0b      	ldr	r3, [pc, #44]	; (8000884 <SystemInit+0x5c>)
 8000856:	681b      	ldr	r3, [r3, #0]
 8000858:	4a0a      	ldr	r2, [pc, #40]	; (8000884 <SystemInit+0x5c>)
 800085a:	f423 2380 	bic.w	r3, r3, #262144	; 0x40000
 800085e:	6013      	str	r3, [r2, #0]

  /* Reset PLLSRC, PLLXTPRE, PLLMUL and USBPRE/OTGFSPRE bits */
  RCC->CFGR &= 0xFF80FFFFU;
 8000860:	4b08      	ldr	r3, [pc, #32]	; (8000884 <SystemInit+0x5c>)
 8000862:	685b      	ldr	r3, [r3, #4]
 8000864:	4a07      	ldr	r2, [pc, #28]	; (8000884 <SystemInit+0x5c>)
 8000866:	f423 03fe 	bic.w	r3, r3, #8323072	; 0x7f0000
 800086a:	6053      	str	r3, [r2, #4]

  /* Reset CFGR2 register */
  RCC->CFGR2 = 0x00000000U;      
#else
  /* Disable all interrupts and clear pending bits  */
  RCC->CIR = 0x009F0000U;
 800086c:	4b05      	ldr	r3, [pc, #20]	; (8000884 <SystemInit+0x5c>)
 800086e:	f44f 021f 	mov.w	r2, #10420224	; 0x9f0000
 8000872:	609a      	str	r2, [r3, #8]
#endif 

#ifdef VECT_TAB_SRAM
  SCB->VTOR = SRAM_BASE | VECT_TAB_OFFSET; /* Vector Table Relocation in Internal SRAM. */
#else
  SCB->VTOR = FLASH_BASE | VECT_TAB_OFFSET; /* Vector Table Relocation in Internal FLASH. */
 8000874:	4b05      	ldr	r3, [pc, #20]	; (800088c <SystemInit+0x64>)
 8000876:	f04f 6200 	mov.w	r2, #134217728	; 0x8000000
 800087a:	609a      	str	r2, [r3, #8]
#endif 
}
 800087c:	bf00      	nop
 800087e:	46bd      	mov	sp, r7
 8000880:	bc80      	pop	{r7}
 8000882:	4770      	bx	lr
 8000884:	40021000 	.word	0x40021000
 8000888:	f8ff0000 	.word	0xf8ff0000
 800088c:	e000ed00 	.word	0xe000ed00

08000890 <Reset_Handler>:
  .weak Reset_Handler
  .type Reset_Handler, %function
Reset_Handler:

/* Copy the data segment initializers from flash to SRAM */
  movs r1, #0
 8000890:	2100      	movs	r1, #0
  b LoopCopyDataInit
 8000892:	e003      	b.n	800089c <LoopCopyDataInit>

08000894 <CopyDataInit>:

CopyDataInit:
  ldr r3, =_sidata
 8000894:	4b0b      	ldr	r3, [pc, #44]	; (80008c4 <LoopFillZerobss+0x14>)
  ldr r3, [r3, r1]
 8000896:	585b      	ldr	r3, [r3, r1]
  str r3, [r0, r1]
 8000898:	5043      	str	r3, [r0, r1]
  adds r1, r1, #4
 800089a:	3104      	adds	r1, #4

0800089c <LoopCopyDataInit>:

LoopCopyDataInit:
  ldr r0, =_sdata
 800089c:	480a      	ldr	r0, [pc, #40]	; (80008c8 <LoopFillZerobss+0x18>)
  ldr r3, =_edata
 800089e:	4b0b      	ldr	r3, [pc, #44]	; (80008cc <LoopFillZerobss+0x1c>)
  adds r2, r0, r1
 80008a0:	1842      	adds	r2, r0, r1
  cmp r2, r3
 80008a2:	429a      	cmp	r2, r3
  bcc CopyDataInit
 80008a4:	d3f6      	bcc.n	8000894 <CopyDataInit>
  ldr r2, =_sbss
 80008a6:	4a0a      	ldr	r2, [pc, #40]	; (80008d0 <LoopFillZerobss+0x20>)
  b LoopFillZerobss
 80008a8:	e002      	b.n	80008b0 <LoopFillZerobss>

080008aa <FillZerobss>:
/* Zero fill the bss segment. */
FillZerobss:
  movs r3, #0
 80008aa:	2300      	movs	r3, #0
  str r3, [r2], #4
 80008ac:	f842 3b04 	str.w	r3, [r2], #4

080008b0 <LoopFillZerobss>:

LoopFillZerobss:
  ldr r3, = _ebss
 80008b0:	4b08      	ldr	r3, [pc, #32]	; (80008d4 <LoopFillZerobss+0x24>)
  cmp r2, r3
 80008b2:	429a      	cmp	r2, r3
  bcc FillZerobss
 80008b4:	d3f9      	bcc.n	80008aa <FillZerobss>

/* Call the clock system intitialization function.*/
    bl  SystemInit
 80008b6:	f7ff ffb7 	bl	8000828 <SystemInit>
/* Call static constructors */
    bl __libc_init_array
 80008ba:	f005 fbaf 	bl	800601c <__libc_init_array>
/* Call the application's entry point.*/
  bl main
 80008be:	f7ff fc45 	bl	800014c <main>
  bx lr
 80008c2:	4770      	bx	lr
  ldr r3, =_sidata
 80008c4:	08006100 	.word	0x08006100
  ldr r0, =_sdata
 80008c8:	20000000 	.word	0x20000000
  ldr r3, =_edata
 80008cc:	2000017c 	.word	0x2000017c
  ldr r2, =_sbss
 80008d0:	2000017c 	.word	0x2000017c
  ldr r3, = _ebss
 80008d4:	20000fdc 	.word	0x20000fdc

080008d8 <ADC1_2_IRQHandler>:
 * @retval : None
*/
    .section .text.Default_Handler,"ax",%progbits
Default_Handler:
Infinite_Loop:
  b Infinite_Loop
 80008d8:	e7fe      	b.n	80008d8 <ADC1_2_IRQHandler>
	...

080008dc <HAL_Init>:
  *         need to ensure that the SysTick time base is always set to 1 millisecond
  *         to have correct HAL operation.
  * @retval HAL status
  */
HAL_StatusTypeDef HAL_Init(void)
{
 80008dc:	b580      	push	{r7, lr}
 80008de:	af00      	add	r7, sp, #0
    defined(STM32F102x6) || defined(STM32F102xB) || \
    defined(STM32F103x6) || defined(STM32F103xB) || defined(STM32F103xE) || defined(STM32F103xG) || \
    defined(STM32F105xC) || defined(STM32F107xC)

  /* Prefetch buffer is not available on value line devices */
  __HAL_FLASH_PREFETCH_BUFFER_ENABLE();
 80008e0:	4b08      	ldr	r3, [pc, #32]	; (8000904 <HAL_Init+0x28>)
 80008e2:	681b      	ldr	r3, [r3, #0]
 80008e4:	4a07      	ldr	r2, [pc, #28]	; (8000904 <HAL_Init+0x28>)
 80008e6:	f043 0310 	orr.w	r3, r3, #16
 80008ea:	6013      	str	r3, [r2, #0]
#endif
#endif /* PREFETCH_ENABLE */

  /* Set Interrupt Group Priority */
  HAL_NVIC_SetPriorityGrouping(NVIC_PRIORITYGROUP_4);
 80008ec:	2003      	movs	r0, #3
 80008ee:	f000 fb2d 	bl	8000f4c <HAL_NVIC_SetPriorityGrouping>

  /* Use systick as time base source and configure 1ms tick (default clock after Reset is HSI) */
  HAL_InitTick(TICK_INT_PRIORITY);
 80008f2:	2000      	movs	r0, #0
 80008f4:	f000 f808 	bl	8000908 <HAL_InitTick>

  /* Init the low level hardware */
  HAL_MspInit();
 80008f8:	f7ff fe42 	bl	8000580 <HAL_MspInit>

  /* Return function status */
  return HAL_OK;
 80008fc:	2300      	movs	r3, #0
}
 80008fe:	4618      	mov	r0, r3
 8000900:	bd80      	pop	{r7, pc}
 8000902:	bf00      	nop
 8000904:	40022000 	.word	0x40022000

08000908 <HAL_InitTick>:
  *       implementation  in user file.
  * @param TickPriority Tick interrupt priority.
  * @retval HAL status
  */
__weak HAL_StatusTypeDef HAL_InitTick(uint32_t TickPriority)
{
 8000908:	b580      	push	{r7, lr}
 800090a:	b082      	sub	sp, #8
 800090c:	af00      	add	r7, sp, #0
 800090e:	6078      	str	r0, [r7, #4]
  /* Configure the SysTick to have interrupt in 1ms time basis*/
  if (HAL_SYSTICK_Config(SystemCoreClock / (1000U / uwTickFreq)) > 0U)
 8000910:	4b12      	ldr	r3, [pc, #72]	; (800095c <HAL_InitTick+0x54>)
 8000912:	681a      	ldr	r2, [r3, #0]
 8000914:	4b12      	ldr	r3, [pc, #72]	; (8000960 <HAL_InitTick+0x58>)
 8000916:	781b      	ldrb	r3, [r3, #0]
 8000918:	4619      	mov	r1, r3
 800091a:	f44f 737a 	mov.w	r3, #1000	; 0x3e8
 800091e:	fbb3 f3f1 	udiv	r3, r3, r1
 8000922:	fbb2 f3f3 	udiv	r3, r2, r3
 8000926:	4618      	mov	r0, r3
 8000928:	f000 fb45 	bl	8000fb6 <HAL_SYSTICK_Config>
 800092c:	4603      	mov	r3, r0
 800092e:	2b00      	cmp	r3, #0
 8000930:	d001      	beq.n	8000936 <HAL_InitTick+0x2e>
  {
    return HAL_ERROR;
 8000932:	2301      	movs	r3, #1
 8000934:	e00e      	b.n	8000954 <HAL_InitTick+0x4c>
  }

  /* Configure the SysTick IRQ priority */
  if (TickPriority < (1UL << __NVIC_PRIO_BITS))
 8000936:	687b      	ldr	r3, [r7, #4]
 8000938:	2b0f      	cmp	r3, #15
 800093a:	d80a      	bhi.n	8000952 <HAL_InitTick+0x4a>
  {
    HAL_NVIC_SetPriority(SysTick_IRQn, TickPriority, 0U);
 800093c:	2200      	movs	r2, #0
 800093e:	6879      	ldr	r1, [r7, #4]
 8000940:	f04f 30ff 	mov.w	r0, #4294967295
 8000944:	f000 fb0d 	bl	8000f62 <HAL_NVIC_SetPriority>
    uwTickPrio = TickPriority;
 8000948:	4a06      	ldr	r2, [pc, #24]	; (8000964 <HAL_InitTick+0x5c>)
 800094a:	687b      	ldr	r3, [r7, #4]
 800094c:	6013      	str	r3, [r2, #0]
  {
    return HAL_ERROR;
  }

  /* Return function status */
  return HAL_OK;
 800094e:	2300      	movs	r3, #0
 8000950:	e000      	b.n	8000954 <HAL_InitTick+0x4c>
    return HAL_ERROR;
 8000952:	2301      	movs	r3, #1
}
 8000954:	4618      	mov	r0, r3
 8000956:	3708      	adds	r7, #8
 8000958:	46bd      	mov	sp, r7
 800095a:	bd80      	pop	{r7, pc}
 800095c:	20000000 	.word	0x20000000
 8000960:	20000008 	.word	0x20000008
 8000964:	20000004 	.word	0x20000004

08000968 <HAL_IncTick>:
  * @note This function is declared as __weak to be overwritten in case of other
  *      implementations in user file.
  * @retval None
  */
__weak void HAL_IncTick(void)
{
 8000968:	b480      	push	{r7}
 800096a:	af00      	add	r7, sp, #0
  uwTick += uwTickFreq;
 800096c:	4b05      	ldr	r3, [pc, #20]	; (8000984 <HAL_IncTick+0x1c>)
 800096e:	781b      	ldrb	r3, [r3, #0]
 8000970:	461a      	mov	r2, r3
 8000972:	4b05      	ldr	r3, [pc, #20]	; (8000988 <HAL_IncTick+0x20>)
 8000974:	681b      	ldr	r3, [r3, #0]
 8000976:	4413      	add	r3, r2
 8000978:	4a03      	ldr	r2, [pc, #12]	; (8000988 <HAL_IncTick+0x20>)
 800097a:	6013      	str	r3, [r2, #0]
}
 800097c:	bf00      	nop
 800097e:	46bd      	mov	sp, r7
 8000980:	bc80      	pop	{r7}
 8000982:	4770      	bx	lr
 8000984:	20000008 	.word	0x20000008
 8000988:	200004a8 	.word	0x200004a8

0800098c <HAL_GetTick>:
  * @note  This function is declared as __weak to be overwritten in case of other
  *       implementations in user file.
  * @retval tick value
  */
__weak uint32_t HAL_GetTick(void)
{
 800098c:	b480      	push	{r7}
 800098e:	af00      	add	r7, sp, #0
  return uwTick;
 8000990:	4b02      	ldr	r3, [pc, #8]	; (800099c <HAL_GetTick+0x10>)
 8000992:	681b      	ldr	r3, [r3, #0]
}
 8000994:	4618      	mov	r0, r3
 8000996:	46bd      	mov	sp, r7
 8000998:	bc80      	pop	{r7}
 800099a:	4770      	bx	lr
 800099c:	200004a8 	.word	0x200004a8

080009a0 <HAL_ADC_Init>:
  *         of structure "ADC_InitTypeDef".
  * @param  hadc: ADC handle
  * @retval HAL status
  */
HAL_StatusTypeDef HAL_ADC_Init(ADC_HandleTypeDef* hadc)
{
 80009a0:	b580      	push	{r7, lr}
 80009a2:	b086      	sub	sp, #24
 80009a4:	af00      	add	r7, sp, #0
 80009a6:	6078      	str	r0, [r7, #4]
  HAL_StatusTypeDef tmp_hal_status = HAL_OK;
 80009a8:	2300      	movs	r3, #0
 80009aa:	75fb      	strb	r3, [r7, #23]
  uint32_t tmp_cr1 = 0U;
 80009ac:	2300      	movs	r3, #0
 80009ae:	613b      	str	r3, [r7, #16]
  uint32_t tmp_cr2 = 0U;
 80009b0:	2300      	movs	r3, #0
 80009b2:	60bb      	str	r3, [r7, #8]
  uint32_t tmp_sqr1 = 0U;
 80009b4:	2300      	movs	r3, #0
 80009b6:	60fb      	str	r3, [r7, #12]
  
  /* Check ADC handle */
  if(hadc == NULL)
 80009b8:	687b      	ldr	r3, [r7, #4]
 80009ba:	2b00      	cmp	r3, #0
 80009bc:	d101      	bne.n	80009c2 <HAL_ADC_Init+0x22>
  {
    return HAL_ERROR;
 80009be:	2301      	movs	r3, #1
 80009c0:	e0be      	b.n	8000b40 <HAL_ADC_Init+0x1a0>
  assert_param(IS_ADC_DATA_ALIGN(hadc->Init.DataAlign));
  assert_param(IS_ADC_SCAN_MODE(hadc->Init.ScanConvMode));
  assert_param(IS_FUNCTIONAL_STATE(hadc->Init.ContinuousConvMode));
  assert_param(IS_ADC_EXTTRIG(hadc->Init.ExternalTrigConv));
  
  if(hadc->Init.ScanConvMode != ADC_SCAN_DISABLE)
 80009c2:	687b      	ldr	r3, [r7, #4]
 80009c4:	689b      	ldr	r3, [r3, #8]
 80009c6:	2b00      	cmp	r3, #0
  /* Refer to header of this file for more details on clock enabling          */
  /* procedure.                                                               */

  /* Actions performed only if ADC is coming from state reset:                */
  /* - Initialization of ADC MSP                                              */
  if (hadc->State == HAL_ADC_STATE_RESET)
 80009c8:	687b      	ldr	r3, [r7, #4]
 80009ca:	6a9b      	ldr	r3, [r3, #40]	; 0x28
 80009cc:	2b00      	cmp	r3, #0
 80009ce:	d109      	bne.n	80009e4 <HAL_ADC_Init+0x44>
  {
    /* Initialize ADC error code */
    ADC_CLEAR_ERRORCODE(hadc);
 80009d0:	687b      	ldr	r3, [r7, #4]
 80009d2:	2200      	movs	r2, #0
 80009d4:	62da      	str	r2, [r3, #44]	; 0x2c
    
    /* Allocate lock resource and initialize it */
    hadc->Lock = HAL_UNLOCKED;
 80009d6:	687b      	ldr	r3, [r7, #4]
 80009d8:	2200      	movs	r2, #0
 80009da:	f883 2024 	strb.w	r2, [r3, #36]	; 0x24
    
    /* Init the low level hardware */
    hadc->MspInitCallback(hadc);
#else
    /* Init the low level hardware */
    HAL_ADC_MspInit(hadc);
 80009de:	6878      	ldr	r0, [r7, #4]
 80009e0:	f7ff fe00 	bl	80005e4 <HAL_ADC_MspInit>
  /* Stop potential conversion on going, on regular and injected groups */
  /* Disable ADC peripheral */
  /* Note: In case of ADC already enabled, precaution to not launch an        */
  /*       unwanted conversion while modifying register CR2 by writing 1 to   */
  /*       bit ADON.                                                          */
  tmp_hal_status = ADC_ConversionStop_Disable(hadc);
 80009e4:	6878      	ldr	r0, [r7, #4]
 80009e6:	f000 f9ab 	bl	8000d40 <ADC_ConversionStop_Disable>
 80009ea:	4603      	mov	r3, r0
 80009ec:	75fb      	strb	r3, [r7, #23]
  
  
  /* Configuration of ADC parameters if previous preliminary actions are      */ 
  /* correctly completed.                                                     */
  if (HAL_IS_BIT_CLR(hadc->State, HAL_ADC_STATE_ERROR_INTERNAL) &&
 80009ee:	687b      	ldr	r3, [r7, #4]
 80009f0:	6a9b      	ldr	r3, [r3, #40]	; 0x28
 80009f2:	f003 0310 	and.w	r3, r3, #16
 80009f6:	2b00      	cmp	r3, #0
 80009f8:	f040 8099 	bne.w	8000b2e <HAL_ADC_Init+0x18e>
 80009fc:	7dfb      	ldrb	r3, [r7, #23]
 80009fe:	2b00      	cmp	r3, #0
 8000a00:	f040 8095 	bne.w	8000b2e <HAL_ADC_Init+0x18e>
      (tmp_hal_status == HAL_OK)                                  )
  {
    /* Set ADC state */
    ADC_STATE_CLR_SET(hadc->State,
 8000a04:	687b      	ldr	r3, [r7, #4]
 8000a06:	6a9b      	ldr	r3, [r3, #40]	; 0x28
 8000a08:	f423 5388 	bic.w	r3, r3, #4352	; 0x1100
 8000a0c:	f023 0302 	bic.w	r3, r3, #2
 8000a10:	f043 0202 	orr.w	r2, r3, #2
 8000a14:	687b      	ldr	r3, [r7, #4]
 8000a16:	629a      	str	r2, [r3, #40]	; 0x28
    /*  - continuous conversion mode                                          */
    /* Note: External trigger polarity (ADC_CR2_EXTTRIG) is set into          */
    /*       HAL_ADC_Start_xxx functions because if set in this function,     */
    /*       a conversion on injected group would start a conversion also on  */
    /*       regular group after ADC enabling.                                */
    tmp_cr2 |= (hadc->Init.DataAlign                                          |
 8000a18:	687b      	ldr	r3, [r7, #4]
 8000a1a:	685a      	ldr	r2, [r3, #4]
                ADC_CFGR_EXTSEL(hadc, hadc->Init.ExternalTrigConv)            |
 8000a1c:	687b      	ldr	r3, [r7, #4]
 8000a1e:	69db      	ldr	r3, [r3, #28]
    tmp_cr2 |= (hadc->Init.DataAlign                                          |
 8000a20:	431a      	orrs	r2, r3
                ADC_CR2_CONTINUOUS((uint32_t)hadc->Init.ContinuousConvMode)   );
 8000a22:	687b      	ldr	r3, [r7, #4]
 8000a24:	7b1b      	ldrb	r3, [r3, #12]
 8000a26:	005b      	lsls	r3, r3, #1
                ADC_CFGR_EXTSEL(hadc, hadc->Init.ExternalTrigConv)            |
 8000a28:	4313      	orrs	r3, r2
    tmp_cr2 |= (hadc->Init.DataAlign                                          |
 8000a2a:	68ba      	ldr	r2, [r7, #8]
 8000a2c:	4313      	orrs	r3, r2
 8000a2e:	60bb      	str	r3, [r7, #8]

    /* Configuration of ADC:                                                  */
    /*  - scan mode                                                           */
    /*  - discontinuous mode disable/enable                                   */
    /*  - discontinuous mode number of conversions                            */
    tmp_cr1 |= (ADC_CR1_SCAN_SET(hadc->Init.ScanConvMode));
 8000a30:	687b      	ldr	r3, [r7, #4]
 8000a32:	689b      	ldr	r3, [r3, #8]
 8000a34:	f5b3 7f80 	cmp.w	r3, #256	; 0x100
 8000a38:	d003      	beq.n	8000a42 <HAL_ADC_Init+0xa2>
 8000a3a:	687b      	ldr	r3, [r7, #4]
 8000a3c:	689b      	ldr	r3, [r3, #8]
 8000a3e:	2b01      	cmp	r3, #1
 8000a40:	d102      	bne.n	8000a48 <HAL_ADC_Init+0xa8>
 8000a42:	f44f 7380 	mov.w	r3, #256	; 0x100
 8000a46:	e000      	b.n	8000a4a <HAL_ADC_Init+0xaa>
 8000a48:	2300      	movs	r3, #0
 8000a4a:	693a      	ldr	r2, [r7, #16]
 8000a4c:	4313      	orrs	r3, r2
 8000a4e:	613b      	str	r3, [r7, #16]
    
    /* Enable discontinuous mode only if continuous mode is disabled */
    /* Note: If parameter "Init.ScanConvMode" is set to disable, parameter    */
    /*       discontinuous is set anyway, but will have no effect on ADC HW.  */
    if (hadc->Init.DiscontinuousConvMode == ENABLE)
 8000a50:	687b      	ldr	r3, [r7, #4]
 8000a52:	7d1b      	ldrb	r3, [r3, #20]
 8000a54:	2b01      	cmp	r3, #1
 8000a56:	d119      	bne.n	8000a8c <HAL_ADC_Init+0xec>
    {
      if (hadc->Init.ContinuousConvMode == DISABLE)
 8000a58:	687b      	ldr	r3, [r7, #4]
 8000a5a:	7b1b      	ldrb	r3, [r3, #12]
 8000a5c:	2b00      	cmp	r3, #0
 8000a5e:	d109      	bne.n	8000a74 <HAL_ADC_Init+0xd4>
      {
        /* Enable the selected ADC regular discontinuous mode */
        /* Set the number of channels to be converted in discontinuous mode */
        SET_BIT(tmp_cr1, ADC_CR1_DISCEN                                            |
 8000a60:	687b      	ldr	r3, [r7, #4]
 8000a62:	699b      	ldr	r3, [r3, #24]
 8000a64:	3b01      	subs	r3, #1
 8000a66:	035a      	lsls	r2, r3, #13
 8000a68:	693b      	ldr	r3, [r7, #16]
 8000a6a:	4313      	orrs	r3, r2
 8000a6c:	f443 6300 	orr.w	r3, r3, #2048	; 0x800
 8000a70:	613b      	str	r3, [r7, #16]
 8000a72:	e00b      	b.n	8000a8c <HAL_ADC_Init+0xec>
      {
        /* ADC regular group settings continuous and sequencer discontinuous*/
        /* cannot be enabled simultaneously.                                */
        
        /* Update ADC state machine to error */
        SET_BIT(hadc->State, HAL_ADC_STATE_ERROR_CONFIG);
 8000a74:	687b      	ldr	r3, [r7, #4]
 8000a76:	6a9b      	ldr	r3, [r3, #40]	; 0x28
 8000a78:	f043 0220 	orr.w	r2, r3, #32
 8000a7c:	687b      	ldr	r3, [r7, #4]
 8000a7e:	629a      	str	r2, [r3, #40]	; 0x28
        
        /* Set ADC error code to ADC IP internal error */
        SET_BIT(hadc->ErrorCode, HAL_ADC_ERROR_INTERNAL);
 8000a80:	687b      	ldr	r3, [r7, #4]
 8000a82:	6adb      	ldr	r3, [r3, #44]	; 0x2c
 8000a84:	f043 0201 	orr.w	r2, r3, #1
 8000a88:	687b      	ldr	r3, [r7, #4]
 8000a8a:	62da      	str	r2, [r3, #44]	; 0x2c
      }
    }
    
    /* Update ADC configuration register CR1 with previous settings */
      MODIFY_REG(hadc->Instance->CR1,
 8000a8c:	687b      	ldr	r3, [r7, #4]
 8000a8e:	681b      	ldr	r3, [r3, #0]
 8000a90:	685b      	ldr	r3, [r3, #4]
 8000a92:	f423 4169 	bic.w	r1, r3, #59648	; 0xe900
 8000a96:	687b      	ldr	r3, [r7, #4]
 8000a98:	681b      	ldr	r3, [r3, #0]
 8000a9a:	693a      	ldr	r2, [r7, #16]
 8000a9c:	430a      	orrs	r2, r1
 8000a9e:	605a      	str	r2, [r3, #4]
                 ADC_CR1_DISCEN  |
                 ADC_CR1_DISCNUM    ,
                 tmp_cr1             );
    
    /* Update ADC configuration register CR2 with previous settings */
      MODIFY_REG(hadc->Instance->CR2,
 8000aa0:	687b      	ldr	r3, [r7, #4]
 8000aa2:	681b      	ldr	r3, [r3, #0]
 8000aa4:	689a      	ldr	r2, [r3, #8]
 8000aa6:	4b28      	ldr	r3, [pc, #160]	; (8000b48 <HAL_ADC_Init+0x1a8>)
 8000aa8:	4013      	ands	r3, r2
 8000aaa:	687a      	ldr	r2, [r7, #4]
 8000aac:	6812      	ldr	r2, [r2, #0]
 8000aae:	68b9      	ldr	r1, [r7, #8]
 8000ab0:	430b      	orrs	r3, r1
 8000ab2:	6093      	str	r3, [r2, #8]
    /*   Note: Scan mode is present by hardware on this device and, if        */
    /*   disabled, discards automatically nb of conversions. Anyway, nb of    */
    /*   conversions is forced to 0x00 for alignment over all STM32 devices.  */
    /* - if scan mode is enabled, regular channels sequence length is set to  */
    /*   parameter "NbrOfConversion"                                          */
    if (ADC_CR1_SCAN_SET(hadc->Init.ScanConvMode) == ADC_SCAN_ENABLE)
 8000ab4:	687b      	ldr	r3, [r7, #4]
 8000ab6:	689b      	ldr	r3, [r3, #8]
 8000ab8:	f5b3 7f80 	cmp.w	r3, #256	; 0x100
 8000abc:	d003      	beq.n	8000ac6 <HAL_ADC_Init+0x126>
 8000abe:	687b      	ldr	r3, [r7, #4]
 8000ac0:	689b      	ldr	r3, [r3, #8]
 8000ac2:	2b01      	cmp	r3, #1
 8000ac4:	d104      	bne.n	8000ad0 <HAL_ADC_Init+0x130>
    {
      tmp_sqr1 = ADC_SQR1_L_SHIFT(hadc->Init.NbrOfConversion);
 8000ac6:	687b      	ldr	r3, [r7, #4]
 8000ac8:	691b      	ldr	r3, [r3, #16]
 8000aca:	3b01      	subs	r3, #1
 8000acc:	051b      	lsls	r3, r3, #20
 8000ace:	60fb      	str	r3, [r7, #12]
    }
      
    MODIFY_REG(hadc->Instance->SQR1,
 8000ad0:	687b      	ldr	r3, [r7, #4]
 8000ad2:	681b      	ldr	r3, [r3, #0]
 8000ad4:	6adb      	ldr	r3, [r3, #44]	; 0x2c
 8000ad6:	f423 0170 	bic.w	r1, r3, #15728640	; 0xf00000
 8000ada:	687b      	ldr	r3, [r7, #4]
 8000adc:	681b      	ldr	r3, [r3, #0]
 8000ade:	68fa      	ldr	r2, [r7, #12]
 8000ae0:	430a      	orrs	r2, r1
 8000ae2:	62da      	str	r2, [r3, #44]	; 0x2c
    /* ensure of no potential problem of ADC core IP clocking.                */
    /* Check through register CR2 (excluding bits set in other functions:     */
    /* execution control bits (ADON, JSWSTART, SWSTART), regular group bits   */
    /* (DMA), injected group bits (JEXTTRIG and JEXTSEL), channel internal    */
    /* measurement path bit (TSVREFE).                                        */
    if (READ_BIT(hadc->Instance->CR2, ~(ADC_CR2_ADON | ADC_CR2_DMA |
 8000ae4:	687b      	ldr	r3, [r7, #4]
 8000ae6:	681b      	ldr	r3, [r3, #0]
 8000ae8:	689a      	ldr	r2, [r3, #8]
 8000aea:	4b18      	ldr	r3, [pc, #96]	; (8000b4c <HAL_ADC_Init+0x1ac>)
 8000aec:	4013      	ands	r3, r2
 8000aee:	68ba      	ldr	r2, [r7, #8]
 8000af0:	429a      	cmp	r2, r3
 8000af2:	d10b      	bne.n	8000b0c <HAL_ADC_Init+0x16c>
                                        ADC_CR2_JEXTTRIG | ADC_CR2_JEXTSEL |
                                        ADC_CR2_TSVREFE                     ))
         == tmp_cr2)
    {
      /* Set ADC error code to none */
      ADC_CLEAR_ERRORCODE(hadc);
 8000af4:	687b      	ldr	r3, [r7, #4]
 8000af6:	2200      	movs	r2, #0
 8000af8:	62da      	str	r2, [r3, #44]	; 0x2c
      
      /* Set the ADC state */
      ADC_STATE_CLR_SET(hadc->State,
 8000afa:	687b      	ldr	r3, [r7, #4]
 8000afc:	6a9b      	ldr	r3, [r3, #40]	; 0x28
 8000afe:	f023 0303 	bic.w	r3, r3, #3
 8000b02:	f043 0201 	orr.w	r2, r3, #1
 8000b06:	687b      	ldr	r3, [r7, #4]
 8000b08:	629a      	str	r2, [r3, #40]	; 0x28
    if (READ_BIT(hadc->Instance->CR2, ~(ADC_CR2_ADON | ADC_CR2_DMA |
 8000b0a:	e018      	b.n	8000b3e <HAL_ADC_Init+0x19e>
                        HAL_ADC_STATE_READY);
    }
    else
    {
      /* Update ADC state machine to error */
      ADC_STATE_CLR_SET(hadc->State,
 8000b0c:	687b      	ldr	r3, [r7, #4]
 8000b0e:	6a9b      	ldr	r3, [r3, #40]	; 0x28
 8000b10:	f023 0312 	bic.w	r3, r3, #18
 8000b14:	f043 0210 	orr.w	r2, r3, #16
 8000b18:	687b      	ldr	r3, [r7, #4]
 8000b1a:	629a      	str	r2, [r3, #40]	; 0x28
                        HAL_ADC_STATE_BUSY_INTERNAL,
                        HAL_ADC_STATE_ERROR_INTERNAL);
      
      /* Set ADC error code to ADC IP internal error */
      SET_BIT(hadc->ErrorCode, HAL_ADC_ERROR_INTERNAL);
 8000b1c:	687b      	ldr	r3, [r7, #4]
 8000b1e:	6adb      	ldr	r3, [r3, #44]	; 0x2c
 8000b20:	f043 0201 	orr.w	r2, r3, #1
 8000b24:	687b      	ldr	r3, [r7, #4]
 8000b26:	62da      	str	r2, [r3, #44]	; 0x2c
      
      tmp_hal_status = HAL_ERROR;
 8000b28:	2301      	movs	r3, #1
 8000b2a:	75fb      	strb	r3, [r7, #23]
    if (READ_BIT(hadc->Instance->CR2, ~(ADC_CR2_ADON | ADC_CR2_DMA |
 8000b2c:	e007      	b.n	8000b3e <HAL_ADC_Init+0x19e>
  
  }
  else
  {
    /* Update ADC state machine to error */
    SET_BIT(hadc->State, HAL_ADC_STATE_ERROR_INTERNAL);
 8000b2e:	687b      	ldr	r3, [r7, #4]
 8000b30:	6a9b      	ldr	r3, [r3, #40]	; 0x28
 8000b32:	f043 0210 	orr.w	r2, r3, #16
 8000b36:	687b      	ldr	r3, [r7, #4]
 8000b38:	629a      	str	r2, [r3, #40]	; 0x28
        
    tmp_hal_status = HAL_ERROR;
 8000b3a:	2301      	movs	r3, #1
 8000b3c:	75fb      	strb	r3, [r7, #23]
  }
  
  /* Return function status */
  return tmp_hal_status;
 8000b3e:	7dfb      	ldrb	r3, [r7, #23]
}
 8000b40:	4618      	mov	r0, r3
 8000b42:	3718      	adds	r7, #24
 8000b44:	46bd      	mov	sp, r7
 8000b46:	bd80      	pop	{r7, pc}
 8000b48:	ffe1f7fd 	.word	0xffe1f7fd
 8000b4c:	ff1f0efe 	.word	0xff1f0efe

08000b50 <HAL_ADC_ConfigChannel>:
  * @param  hadc: ADC handle
  * @param  sConfig: Structure of ADC channel for regular group.
  * @retval HAL status
  */
HAL_StatusTypeDef HAL_ADC_ConfigChannel(ADC_HandleTypeDef* hadc, ADC_ChannelConfTypeDef* sConfig)
{ 
 8000b50:	b480      	push	{r7}
 8000b52:	b085      	sub	sp, #20
 8000b54:	af00      	add	r7, sp, #0
 8000b56:	6078      	str	r0, [r7, #4]
 8000b58:	6039      	str	r1, [r7, #0]
  HAL_StatusTypeDef tmp_hal_status = HAL_OK;
 8000b5a:	2300      	movs	r3, #0
 8000b5c:	73fb      	strb	r3, [r7, #15]
  __IO uint32_t wait_loop_index = 0U;
 8000b5e:	2300      	movs	r3, #0
 8000b60:	60bb      	str	r3, [r7, #8]
  assert_param(IS_ADC_CHANNEL(sConfig->Channel));
  assert_param(IS_ADC_REGULAR_RANK(sConfig->Rank));
  assert_param(IS_ADC_SAMPLE_TIME(sConfig->SamplingTime));
  
  /* Process locked */
  __HAL_LOCK(hadc);
 8000b62:	687b      	ldr	r3, [r7, #4]
 8000b64:	f893 3024 	ldrb.w	r3, [r3, #36]	; 0x24
 8000b68:	2b01      	cmp	r3, #1
 8000b6a:	d101      	bne.n	8000b70 <HAL_ADC_ConfigChannel+0x20>
 8000b6c:	2302      	movs	r3, #2
 8000b6e:	e0dc      	b.n	8000d2a <HAL_ADC_ConfigChannel+0x1da>
 8000b70:	687b      	ldr	r3, [r7, #4]
 8000b72:	2201      	movs	r2, #1
 8000b74:	f883 2024 	strb.w	r2, [r3, #36]	; 0x24
  
  
  /* Regular sequence configuration */
  /* For Rank 1 to 6 */
  if (sConfig->Rank < 7U)
 8000b78:	683b      	ldr	r3, [r7, #0]
 8000b7a:	685b      	ldr	r3, [r3, #4]
 8000b7c:	2b06      	cmp	r3, #6
 8000b7e:	d81c      	bhi.n	8000bba <HAL_ADC_ConfigChannel+0x6a>
  {
    MODIFY_REG(hadc->Instance->SQR3                        ,
 8000b80:	687b      	ldr	r3, [r7, #4]
 8000b82:	681b      	ldr	r3, [r3, #0]
 8000b84:	6b59      	ldr	r1, [r3, #52]	; 0x34
 8000b86:	683b      	ldr	r3, [r7, #0]
 8000b88:	685a      	ldr	r2, [r3, #4]
 8000b8a:	4613      	mov	r3, r2
 8000b8c:	009b      	lsls	r3, r3, #2
 8000b8e:	4413      	add	r3, r2
 8000b90:	3b05      	subs	r3, #5
 8000b92:	221f      	movs	r2, #31
 8000b94:	fa02 f303 	lsl.w	r3, r2, r3
 8000b98:	43db      	mvns	r3, r3
 8000b9a:	4019      	ands	r1, r3
 8000b9c:	683b      	ldr	r3, [r7, #0]
 8000b9e:	6818      	ldr	r0, [r3, #0]
 8000ba0:	683b      	ldr	r3, [r7, #0]
 8000ba2:	685a      	ldr	r2, [r3, #4]
 8000ba4:	4613      	mov	r3, r2
 8000ba6:	009b      	lsls	r3, r3, #2
 8000ba8:	4413      	add	r3, r2
 8000baa:	3b05      	subs	r3, #5
 8000bac:	fa00 f203 	lsl.w	r2, r0, r3
 8000bb0:	687b      	ldr	r3, [r7, #4]
 8000bb2:	681b      	ldr	r3, [r3, #0]
 8000bb4:	430a      	orrs	r2, r1
 8000bb6:	635a      	str	r2, [r3, #52]	; 0x34
 8000bb8:	e03c      	b.n	8000c34 <HAL_ADC_ConfigChannel+0xe4>
               ADC_SQR3_RK(ADC_SQR3_SQ1, sConfig->Rank)    ,
               ADC_SQR3_RK(sConfig->Channel, sConfig->Rank) );
  }
  /* For Rank 7 to 12 */
  else if (sConfig->Rank < 13U)
 8000bba:	683b      	ldr	r3, [r7, #0]
 8000bbc:	685b      	ldr	r3, [r3, #4]
 8000bbe:	2b0c      	cmp	r3, #12
 8000bc0:	d81c      	bhi.n	8000bfc <HAL_ADC_ConfigChannel+0xac>
  {
    MODIFY_REG(hadc->Instance->SQR2                        ,
 8000bc2:	687b      	ldr	r3, [r7, #4]
 8000bc4:	681b      	ldr	r3, [r3, #0]
 8000bc6:	6b19      	ldr	r1, [r3, #48]	; 0x30
 8000bc8:	683b      	ldr	r3, [r7, #0]
 8000bca:	685a      	ldr	r2, [r3, #4]
 8000bcc:	4613      	mov	r3, r2
 8000bce:	009b      	lsls	r3, r3, #2
 8000bd0:	4413      	add	r3, r2
 8000bd2:	3b23      	subs	r3, #35	; 0x23
 8000bd4:	221f      	movs	r2, #31
 8000bd6:	fa02 f303 	lsl.w	r3, r2, r3
 8000bda:	43db      	mvns	r3, r3
 8000bdc:	4019      	ands	r1, r3
 8000bde:	683b      	ldr	r3, [r7, #0]
 8000be0:	6818      	ldr	r0, [r3, #0]
 8000be2:	683b      	ldr	r3, [r7, #0]
 8000be4:	685a      	ldr	r2, [r3, #4]
 8000be6:	4613      	mov	r3, r2
 8000be8:	009b      	lsls	r3, r3, #2
 8000bea:	4413      	add	r3, r2
 8000bec:	3b23      	subs	r3, #35	; 0x23
 8000bee:	fa00 f203 	lsl.w	r2, r0, r3
 8000bf2:	687b      	ldr	r3, [r7, #4]
 8000bf4:	681b      	ldr	r3, [r3, #0]
 8000bf6:	430a      	orrs	r2, r1
 8000bf8:	631a      	str	r2, [r3, #48]	; 0x30
 8000bfa:	e01b      	b.n	8000c34 <HAL_ADC_ConfigChannel+0xe4>
               ADC_SQR2_RK(sConfig->Channel, sConfig->Rank) );
  }
  /* For Rank 13 to 16 */
  else
  {
    MODIFY_REG(hadc->Instance->SQR1                        ,
 8000bfc:	687b      	ldr	r3, [r7, #4]
 8000bfe:	681b      	ldr	r3, [r3, #0]
 8000c00:	6ad9      	ldr	r1, [r3, #44]	; 0x2c
 8000c02:	683b      	ldr	r3, [r7, #0]
 8000c04:	685a      	ldr	r2, [r3, #4]
 8000c06:	4613      	mov	r3, r2
 8000c08:	009b      	lsls	r3, r3, #2
 8000c0a:	4413      	add	r3, r2
 8000c0c:	3b41      	subs	r3, #65	; 0x41
 8000c0e:	221f      	movs	r2, #31
 8000c10:	fa02 f303 	lsl.w	r3, r2, r3
 8000c14:	43db      	mvns	r3, r3
 8000c16:	4019      	ands	r1, r3
 8000c18:	683b      	ldr	r3, [r7, #0]
 8000c1a:	6818      	ldr	r0, [r3, #0]
 8000c1c:	683b      	ldr	r3, [r7, #0]
 8000c1e:	685a      	ldr	r2, [r3, #4]
 8000c20:	4613      	mov	r3, r2
 8000c22:	009b      	lsls	r3, r3, #2
 8000c24:	4413      	add	r3, r2
 8000c26:	3b41      	subs	r3, #65	; 0x41
 8000c28:	fa00 f203 	lsl.w	r2, r0, r3
 8000c2c:	687b      	ldr	r3, [r7, #4]
 8000c2e:	681b      	ldr	r3, [r3, #0]
 8000c30:	430a      	orrs	r2, r1
 8000c32:	62da      	str	r2, [r3, #44]	; 0x2c
  }
  
  
  /* Channel sampling time configuration */
  /* For channels 10 to 17 */
  if (sConfig->Channel >= ADC_CHANNEL_10)
 8000c34:	683b      	ldr	r3, [r7, #0]
 8000c36:	681b      	ldr	r3, [r3, #0]
 8000c38:	2b09      	cmp	r3, #9
 8000c3a:	d91c      	bls.n	8000c76 <HAL_ADC_ConfigChannel+0x126>
  {
    MODIFY_REG(hadc->Instance->SMPR1                             ,
 8000c3c:	687b      	ldr	r3, [r7, #4]
 8000c3e:	681b      	ldr	r3, [r3, #0]
 8000c40:	68d9      	ldr	r1, [r3, #12]
 8000c42:	683b      	ldr	r3, [r7, #0]
 8000c44:	681a      	ldr	r2, [r3, #0]
 8000c46:	4613      	mov	r3, r2
 8000c48:	005b      	lsls	r3, r3, #1
 8000c4a:	4413      	add	r3, r2
 8000c4c:	3b1e      	subs	r3, #30
 8000c4e:	2207      	movs	r2, #7
 8000c50:	fa02 f303 	lsl.w	r3, r2, r3
 8000c54:	43db      	mvns	r3, r3
 8000c56:	4019      	ands	r1, r3
 8000c58:	683b      	ldr	r3, [r7, #0]
 8000c5a:	6898      	ldr	r0, [r3, #8]
 8000c5c:	683b      	ldr	r3, [r7, #0]
 8000c5e:	681a      	ldr	r2, [r3, #0]
 8000c60:	4613      	mov	r3, r2
 8000c62:	005b      	lsls	r3, r3, #1
 8000c64:	4413      	add	r3, r2
 8000c66:	3b1e      	subs	r3, #30
 8000c68:	fa00 f203 	lsl.w	r2, r0, r3
 8000c6c:	687b      	ldr	r3, [r7, #4]
 8000c6e:	681b      	ldr	r3, [r3, #0]
 8000c70:	430a      	orrs	r2, r1
 8000c72:	60da      	str	r2, [r3, #12]
 8000c74:	e019      	b.n	8000caa <HAL_ADC_ConfigChannel+0x15a>
               ADC_SMPR1(ADC_SMPR1_SMP10, sConfig->Channel)      ,
               ADC_SMPR1(sConfig->SamplingTime, sConfig->Channel) );
  }
  else /* For channels 0 to 9 */
  {
    MODIFY_REG(hadc->Instance->SMPR2                             ,
 8000c76:	687b      	ldr	r3, [r7, #4]
 8000c78:	681b      	ldr	r3, [r3, #0]
 8000c7a:	6919      	ldr	r1, [r3, #16]
 8000c7c:	683b      	ldr	r3, [r7, #0]
 8000c7e:	681a      	ldr	r2, [r3, #0]
 8000c80:	4613      	mov	r3, r2
 8000c82:	005b      	lsls	r3, r3, #1
 8000c84:	4413      	add	r3, r2
 8000c86:	2207      	movs	r2, #7
 8000c88:	fa02 f303 	lsl.w	r3, r2, r3
 8000c8c:	43db      	mvns	r3, r3
 8000c8e:	4019      	ands	r1, r3
 8000c90:	683b      	ldr	r3, [r7, #0]
 8000c92:	6898      	ldr	r0, [r3, #8]
 8000c94:	683b      	ldr	r3, [r7, #0]
 8000c96:	681a      	ldr	r2, [r3, #0]
 8000c98:	4613      	mov	r3, r2
 8000c9a:	005b      	lsls	r3, r3, #1
 8000c9c:	4413      	add	r3, r2
 8000c9e:	fa00 f203 	lsl.w	r2, r0, r3
 8000ca2:	687b      	ldr	r3, [r7, #4]
 8000ca4:	681b      	ldr	r3, [r3, #0]
 8000ca6:	430a      	orrs	r2, r1
 8000ca8:	611a      	str	r2, [r3, #16]
               ADC_SMPR2(sConfig->SamplingTime, sConfig->Channel) );
  }
  
  /* If ADC1 Channel_16 or Channel_17 is selected, enable Temperature sensor  */
  /* and VREFINT measurement path.                                            */
  if ((sConfig->Channel == ADC_CHANNEL_TEMPSENSOR) ||
 8000caa:	683b      	ldr	r3, [r7, #0]
 8000cac:	681b      	ldr	r3, [r3, #0]
 8000cae:	2b10      	cmp	r3, #16
 8000cb0:	d003      	beq.n	8000cba <HAL_ADC_ConfigChannel+0x16a>
      (sConfig->Channel == ADC_CHANNEL_VREFINT)      )
 8000cb2:	683b      	ldr	r3, [r7, #0]
 8000cb4:	681b      	ldr	r3, [r3, #0]
  if ((sConfig->Channel == ADC_CHANNEL_TEMPSENSOR) ||
 8000cb6:	2b11      	cmp	r3, #17
 8000cb8:	d132      	bne.n	8000d20 <HAL_ADC_ConfigChannel+0x1d0>
  {
    /* For STM32F1 devices with several ADC: Only ADC1 can access internal    */
    /* measurement channels (VrefInt/TempSensor). If these channels are       */
    /* intended to be set on other ADC instances, an error is reported.       */
    if (hadc->Instance == ADC1)
 8000cba:	687b      	ldr	r3, [r7, #4]
 8000cbc:	681b      	ldr	r3, [r3, #0]
 8000cbe:	4a1d      	ldr	r2, [pc, #116]	; (8000d34 <HAL_ADC_ConfigChannel+0x1e4>)
 8000cc0:	4293      	cmp	r3, r2
 8000cc2:	d125      	bne.n	8000d10 <HAL_ADC_ConfigChannel+0x1c0>
    {
      if (READ_BIT(hadc->Instance->CR2, ADC_CR2_TSVREFE) == RESET)
 8000cc4:	687b      	ldr	r3, [r7, #4]
 8000cc6:	681b      	ldr	r3, [r3, #0]
 8000cc8:	689b      	ldr	r3, [r3, #8]
 8000cca:	f403 0300 	and.w	r3, r3, #8388608	; 0x800000
 8000cce:	2b00      	cmp	r3, #0
 8000cd0:	d126      	bne.n	8000d20 <HAL_ADC_ConfigChannel+0x1d0>
      {
        SET_BIT(hadc->Instance->CR2, ADC_CR2_TSVREFE);
 8000cd2:	687b      	ldr	r3, [r7, #4]
 8000cd4:	681b      	ldr	r3, [r3, #0]
 8000cd6:	689a      	ldr	r2, [r3, #8]
 8000cd8:	687b      	ldr	r3, [r7, #4]
 8000cda:	681b      	ldr	r3, [r3, #0]
 8000cdc:	f442 0200 	orr.w	r2, r2, #8388608	; 0x800000
 8000ce0:	609a      	str	r2, [r3, #8]
        
        if ((sConfig->Channel == ADC_CHANNEL_TEMPSENSOR))
 8000ce2:	683b      	ldr	r3, [r7, #0]
 8000ce4:	681b      	ldr	r3, [r3, #0]
 8000ce6:	2b10      	cmp	r3, #16
 8000ce8:	d11a      	bne.n	8000d20 <HAL_ADC_ConfigChannel+0x1d0>
        {
          /* Delay for temperature sensor stabilization time */
          /* Compute number of CPU cycles to wait for */
          wait_loop_index = (ADC_TEMPSENSOR_DELAY_US * (SystemCoreClock / 1000000U));
 8000cea:	4b13      	ldr	r3, [pc, #76]	; (8000d38 <HAL_ADC_ConfigChannel+0x1e8>)
 8000cec:	681b      	ldr	r3, [r3, #0]
 8000cee:	4a13      	ldr	r2, [pc, #76]	; (8000d3c <HAL_ADC_ConfigChannel+0x1ec>)
 8000cf0:	fba2 2303 	umull	r2, r3, r2, r3
 8000cf4:	0c9a      	lsrs	r2, r3, #18
 8000cf6:	4613      	mov	r3, r2
 8000cf8:	009b      	lsls	r3, r3, #2
 8000cfa:	4413      	add	r3, r2
 8000cfc:	005b      	lsls	r3, r3, #1
 8000cfe:	60bb      	str	r3, [r7, #8]
          while(wait_loop_index != 0U)
 8000d00:	e002      	b.n	8000d08 <HAL_ADC_ConfigChannel+0x1b8>
          {
            wait_loop_index--;
 8000d02:	68bb      	ldr	r3, [r7, #8]
 8000d04:	3b01      	subs	r3, #1
 8000d06:	60bb      	str	r3, [r7, #8]
          while(wait_loop_index != 0U)
 8000d08:	68bb      	ldr	r3, [r7, #8]
 8000d0a:	2b00      	cmp	r3, #0
 8000d0c:	d1f9      	bne.n	8000d02 <HAL_ADC_ConfigChannel+0x1b2>
 8000d0e:	e007      	b.n	8000d20 <HAL_ADC_ConfigChannel+0x1d0>
      }
    }
    else
    {
      /* Update ADC state machine to error */
      SET_BIT(hadc->State, HAL_ADC_STATE_ERROR_CONFIG);
 8000d10:	687b      	ldr	r3, [r7, #4]
 8000d12:	6a9b      	ldr	r3, [r3, #40]	; 0x28
 8000d14:	f043 0220 	orr.w	r2, r3, #32
 8000d18:	687b      	ldr	r3, [r7, #4]
 8000d1a:	629a      	str	r2, [r3, #40]	; 0x28
      
      tmp_hal_status = HAL_ERROR;
 8000d1c:	2301      	movs	r3, #1
 8000d1e:	73fb      	strb	r3, [r7, #15]
    }
  }
  
  /* Process unlocked */
  __HAL_UNLOCK(hadc);
 8000d20:	687b      	ldr	r3, [r7, #4]
 8000d22:	2200      	movs	r2, #0
 8000d24:	f883 2024 	strb.w	r2, [r3, #36]	; 0x24
  
  /* Return function status */
  return tmp_hal_status;
 8000d28:	7bfb      	ldrb	r3, [r7, #15]
}
 8000d2a:	4618      	mov	r0, r3
 8000d2c:	3714      	adds	r7, #20
 8000d2e:	46bd      	mov	sp, r7
 8000d30:	bc80      	pop	{r7}
 8000d32:	4770      	bx	lr
 8000d34:	40012400 	.word	0x40012400
 8000d38:	20000000 	.word	0x20000000
 8000d3c:	431bde83 	.word	0x431bde83

08000d40 <ADC_ConversionStop_Disable>:
  *         stopped to disable the ADC.
  * @param  hadc: ADC handle
  * @retval HAL status.
  */
HAL_StatusTypeDef ADC_ConversionStop_Disable(ADC_HandleTypeDef* hadc)
{
 8000d40:	b580      	push	{r7, lr}
 8000d42:	b084      	sub	sp, #16
 8000d44:	af00      	add	r7, sp, #0
 8000d46:	6078      	str	r0, [r7, #4]
  uint32_t tickstart = 0U;
 8000d48:	2300      	movs	r3, #0
 8000d4a:	60fb      	str	r3, [r7, #12]
  
  /* Verification if ADC is not already disabled */
  if (ADC_IS_ENABLE(hadc) != RESET)
 8000d4c:	687b      	ldr	r3, [r7, #4]
 8000d4e:	681b      	ldr	r3, [r3, #0]
 8000d50:	689b      	ldr	r3, [r3, #8]
 8000d52:	f003 0301 	and.w	r3, r3, #1
 8000d56:	2b01      	cmp	r3, #1
 8000d58:	d127      	bne.n	8000daa <ADC_ConversionStop_Disable+0x6a>
  {
    /* Disable the ADC peripheral */
    __HAL_ADC_DISABLE(hadc);
 8000d5a:	687b      	ldr	r3, [r7, #4]
 8000d5c:	681b      	ldr	r3, [r3, #0]
 8000d5e:	689a      	ldr	r2, [r3, #8]
 8000d60:	687b      	ldr	r3, [r7, #4]
 8000d62:	681b      	ldr	r3, [r3, #0]
 8000d64:	f022 0201 	bic.w	r2, r2, #1
 8000d68:	609a      	str	r2, [r3, #8]
     
    /* Get tick count */
    tickstart = HAL_GetTick();
 8000d6a:	f7ff fe0f 	bl	800098c <HAL_GetTick>
 8000d6e:	60f8      	str	r0, [r7, #12]
    
    /* Wait for ADC effectively disabled */
    while(ADC_IS_ENABLE(hadc) != RESET)
 8000d70:	e014      	b.n	8000d9c <ADC_ConversionStop_Disable+0x5c>
    {
      if((HAL_GetTick() - tickstart) > ADC_DISABLE_TIMEOUT)
 8000d72:	f7ff fe0b 	bl	800098c <HAL_GetTick>
 8000d76:	4602      	mov	r2, r0
 8000d78:	68fb      	ldr	r3, [r7, #12]
 8000d7a:	1ad3      	subs	r3, r2, r3
 8000d7c:	2b02      	cmp	r3, #2
 8000d7e:	d90d      	bls.n	8000d9c <ADC_ConversionStop_Disable+0x5c>
      {
        /* Update ADC state machine to error */
        SET_BIT(hadc->State, HAL_ADC_STATE_ERROR_INTERNAL);
 8000d80:	687b      	ldr	r3, [r7, #4]
 8000d82:	6a9b      	ldr	r3, [r3, #40]	; 0x28
 8000d84:	f043 0210 	orr.w	r2, r3, #16
 8000d88:	687b      	ldr	r3, [r7, #4]
 8000d8a:	629a      	str	r2, [r3, #40]	; 0x28
        
        /* Set ADC error code to ADC IP internal error */
        SET_BIT(hadc->ErrorCode, HAL_ADC_ERROR_INTERNAL);
 8000d8c:	687b      	ldr	r3, [r7, #4]
 8000d8e:	6adb      	ldr	r3, [r3, #44]	; 0x2c
 8000d90:	f043 0201 	orr.w	r2, r3, #1
 8000d94:	687b      	ldr	r3, [r7, #4]
 8000d96:	62da      	str	r2, [r3, #44]	; 0x2c
        
        return HAL_ERROR;
 8000d98:	2301      	movs	r3, #1
 8000d9a:	e007      	b.n	8000dac <ADC_ConversionStop_Disable+0x6c>
    while(ADC_IS_ENABLE(hadc) != RESET)
 8000d9c:	687b      	ldr	r3, [r7, #4]
 8000d9e:	681b      	ldr	r3, [r3, #0]
 8000da0:	689b      	ldr	r3, [r3, #8]
 8000da2:	f003 0301 	and.w	r3, r3, #1
 8000da6:	2b01      	cmp	r3, #1
 8000da8:	d0e3      	beq.n	8000d72 <ADC_ConversionStop_Disable+0x32>
      }
    }
  }
  
  /* Return HAL status */
  return HAL_OK;
 8000daa:	2300      	movs	r3, #0
}
 8000dac:	4618      	mov	r0, r3
 8000dae:	3710      	adds	r7, #16
 8000db0:	46bd      	mov	sp, r7
 8000db2:	bd80      	pop	{r7, pc}

08000db4 <__NVIC_SetPriorityGrouping>:
           In case of a conflict between priority grouping and available
           priority bits (__NVIC_PRIO_BITS), the smallest possible priority group is set.
  \param [in]      PriorityGroup  Priority grouping field.
 */
__STATIC_INLINE void __NVIC_SetPriorityGrouping(uint32_t PriorityGroup)
{
 8000db4:	b480      	push	{r7}
 8000db6:	b085      	sub	sp, #20
 8000db8:	af00      	add	r7, sp, #0
 8000dba:	6078      	str	r0, [r7, #4]
  uint32_t reg_value;
  uint32_t PriorityGroupTmp = (PriorityGroup & (uint32_t)0x07UL);             /* only values 0..7 are used          */
 8000dbc:	687b      	ldr	r3, [r7, #4]
 8000dbe:	f003 0307 	and.w	r3, r3, #7
 8000dc2:	60fb      	str	r3, [r7, #12]

  reg_value  =  SCB->AIRCR;                                                   /* read old register configuration    */
 8000dc4:	4b0c      	ldr	r3, [pc, #48]	; (8000df8 <__NVIC_SetPriorityGrouping+0x44>)
 8000dc6:	68db      	ldr	r3, [r3, #12]
 8000dc8:	60bb      	str	r3, [r7, #8]
  reg_value &= ~((uint32_t)(SCB_AIRCR_VECTKEY_Msk | SCB_AIRCR_PRIGROUP_Msk)); /* clear bits to change               */
 8000dca:	68ba      	ldr	r2, [r7, #8]
 8000dcc:	f64f 03ff 	movw	r3, #63743	; 0xf8ff
 8000dd0:	4013      	ands	r3, r2
 8000dd2:	60bb      	str	r3, [r7, #8]
  reg_value  =  (reg_value                                   |
                ((uint32_t)0x5FAUL << SCB_AIRCR_VECTKEY_Pos) |
                (PriorityGroupTmp << SCB_AIRCR_PRIGROUP_Pos) );               /* Insert write key and priority group */
 8000dd4:	68fb      	ldr	r3, [r7, #12]
 8000dd6:	021a      	lsls	r2, r3, #8
                ((uint32_t)0x5FAUL << SCB_AIRCR_VECTKEY_Pos) |
 8000dd8:	68bb      	ldr	r3, [r7, #8]
 8000dda:	4313      	orrs	r3, r2
  reg_value  =  (reg_value                                   |
 8000ddc:	f043 63bf 	orr.w	r3, r3, #100139008	; 0x5f80000
 8000de0:	f443 3300 	orr.w	r3, r3, #131072	; 0x20000
 8000de4:	60bb      	str	r3, [r7, #8]
  SCB->AIRCR =  reg_value;
 8000de6:	4a04      	ldr	r2, [pc, #16]	; (8000df8 <__NVIC_SetPriorityGrouping+0x44>)
 8000de8:	68bb      	ldr	r3, [r7, #8]
 8000dea:	60d3      	str	r3, [r2, #12]
}
 8000dec:	bf00      	nop
 8000dee:	3714      	adds	r7, #20
 8000df0:	46bd      	mov	sp, r7
 8000df2:	bc80      	pop	{r7}
 8000df4:	4770      	bx	lr
 8000df6:	bf00      	nop
 8000df8:	e000ed00 	.word	0xe000ed00

08000dfc <__NVIC_GetPriorityGrouping>:
  \brief   Get Priority Grouping
  \details Reads the priority grouping field from the NVIC Interrupt Controller.
  \return                Priority grouping field (SCB->AIRCR [10:8] PRIGROUP field).
 */
__STATIC_INLINE uint32_t __NVIC_GetPriorityGrouping(void)
{
 8000dfc:	b480      	push	{r7}
 8000dfe:	af00      	add	r7, sp, #0
  return ((uint32_t)((SCB->AIRCR & SCB_AIRCR_PRIGROUP_Msk) >> SCB_AIRCR_PRIGROUP_Pos));
 8000e00:	4b04      	ldr	r3, [pc, #16]	; (8000e14 <__NVIC_GetPriorityGrouping+0x18>)
 8000e02:	68db      	ldr	r3, [r3, #12]
 8000e04:	0a1b      	lsrs	r3, r3, #8
 8000e06:	f003 0307 	and.w	r3, r3, #7
}
 8000e0a:	4618      	mov	r0, r3
 8000e0c:	46bd      	mov	sp, r7
 8000e0e:	bc80      	pop	{r7}
 8000e10:	4770      	bx	lr
 8000e12:	bf00      	nop
 8000e14:	e000ed00 	.word	0xe000ed00

08000e18 <__NVIC_EnableIRQ>:
  \details Enables a device specific interrupt in the NVIC interrupt controller.
  \param [in]      IRQn  Device specific interrupt number.
  \note    IRQn must not be negative.
 */
__STATIC_INLINE void __NVIC_EnableIRQ(IRQn_Type IRQn)
{
 8000e18:	b480      	push	{r7}
 8000e1a:	b083      	sub	sp, #12
 8000e1c:	af00      	add	r7, sp, #0
 8000e1e:	4603      	mov	r3, r0
 8000e20:	71fb      	strb	r3, [r7, #7]
  if ((int32_t)(IRQn) >= 0)
 8000e22:	f997 3007 	ldrsb.w	r3, [r7, #7]
 8000e26:	2b00      	cmp	r3, #0
 8000e28:	db0b      	blt.n	8000e42 <__NVIC_EnableIRQ+0x2a>
  {
    NVIC->ISER[(((uint32_t)IRQn) >> 5UL)] = (uint32_t)(1UL << (((uint32_t)IRQn) & 0x1FUL));
 8000e2a:	79fb      	ldrb	r3, [r7, #7]
 8000e2c:	f003 021f 	and.w	r2, r3, #31
 8000e30:	4906      	ldr	r1, [pc, #24]	; (8000e4c <__NVIC_EnableIRQ+0x34>)
 8000e32:	f997 3007 	ldrsb.w	r3, [r7, #7]
 8000e36:	095b      	lsrs	r3, r3, #5
 8000e38:	2001      	movs	r0, #1
 8000e3a:	fa00 f202 	lsl.w	r2, r0, r2
 8000e3e:	f841 2023 	str.w	r2, [r1, r3, lsl #2]
  }
}
 8000e42:	bf00      	nop
 8000e44:	370c      	adds	r7, #12
 8000e46:	46bd      	mov	sp, r7
 8000e48:	bc80      	pop	{r7}
 8000e4a:	4770      	bx	lr
 8000e4c:	e000e100 	.word	0xe000e100

08000e50 <__NVIC_SetPriority>:
  \param [in]      IRQn  Interrupt number.
  \param [in]  priority  Priority to set.
  \note    The priority cannot be set for every processor exception.
 */
__STATIC_INLINE void __NVIC_SetPriority(IRQn_Type IRQn, uint32_t priority)
{
 8000e50:	b480      	push	{r7}
 8000e52:	b083      	sub	sp, #12
 8000e54:	af00      	add	r7, sp, #0
 8000e56:	4603      	mov	r3, r0
 8000e58:	6039      	str	r1, [r7, #0]
 8000e5a:	71fb      	strb	r3, [r7, #7]
  if ((int32_t)(IRQn) >= 0)
 8000e5c:	f997 3007 	ldrsb.w	r3, [r7, #7]
 8000e60:	2b00      	cmp	r3, #0
 8000e62:	db0a      	blt.n	8000e7a <__NVIC_SetPriority+0x2a>
  {
    NVIC->IP[((uint32_t)IRQn)]               = (uint8_t)((priority << (8U - __NVIC_PRIO_BITS)) & (uint32_t)0xFFUL);
 8000e64:	683b      	ldr	r3, [r7, #0]
 8000e66:	b2da      	uxtb	r2, r3
 8000e68:	490c      	ldr	r1, [pc, #48]	; (8000e9c <__NVIC_SetPriority+0x4c>)
 8000e6a:	f997 3007 	ldrsb.w	r3, [r7, #7]
 8000e6e:	0112      	lsls	r2, r2, #4
 8000e70:	b2d2      	uxtb	r2, r2
 8000e72:	440b      	add	r3, r1
 8000e74:	f883 2300 	strb.w	r2, [r3, #768]	; 0x300
  }
  else
  {
    SCB->SHP[(((uint32_t)IRQn) & 0xFUL)-4UL] = (uint8_t)((priority << (8U - __NVIC_PRIO_BITS)) & (uint32_t)0xFFUL);
  }
}
 8000e78:	e00a      	b.n	8000e90 <__NVIC_SetPriority+0x40>
    SCB->SHP[(((uint32_t)IRQn) & 0xFUL)-4UL] = (uint8_t)((priority << (8U - __NVIC_PRIO_BITS)) & (uint32_t)0xFFUL);
 8000e7a:	683b      	ldr	r3, [r7, #0]
 8000e7c:	b2da      	uxtb	r2, r3
 8000e7e:	4908      	ldr	r1, [pc, #32]	; (8000ea0 <__NVIC_SetPriority+0x50>)
 8000e80:	79fb      	ldrb	r3, [r7, #7]
 8000e82:	f003 030f 	and.w	r3, r3, #15
 8000e86:	3b04      	subs	r3, #4
 8000e88:	0112      	lsls	r2, r2, #4
 8000e8a:	b2d2      	uxtb	r2, r2
 8000e8c:	440b      	add	r3, r1
 8000e8e:	761a      	strb	r2, [r3, #24]
}
 8000e90:	bf00      	nop
 8000e92:	370c      	adds	r7, #12
 8000e94:	46bd      	mov	sp, r7
 8000e96:	bc80      	pop	{r7}
 8000e98:	4770      	bx	lr
 8000e9a:	bf00      	nop
 8000e9c:	e000e100 	.word	0xe000e100
 8000ea0:	e000ed00 	.word	0xe000ed00

08000ea4 <NVIC_EncodePriority>:
  \param [in]   PreemptPriority  Preemptive priority value (starting from 0).
  \param [in]       SubPriority  Subpriority value (starting from 0).
  \return                        Encoded priority. Value can be used in the function \ref NVIC_SetPriority().
 */
__STATIC_INLINE uint32_t NVIC_EncodePriority (uint32_t PriorityGroup, uint32_t PreemptPriority, uint32_t SubPriority)
{
 8000ea4:	b480      	push	{r7}
 8000ea6:	b089      	sub	sp, #36	; 0x24
 8000ea8:	af00      	add	r7, sp, #0
 8000eaa:	60f8      	str	r0, [r7, #12]
 8000eac:	60b9      	str	r1, [r7, #8]
 8000eae:	607a      	str	r2, [r7, #4]
  uint32_t PriorityGroupTmp = (PriorityGroup & (uint32_t)0x07UL);   /* only values 0..7 are used          */
 8000eb0:	68fb      	ldr	r3, [r7, #12]
 8000eb2:	f003 0307 	and.w	r3, r3, #7
 8000eb6:	61fb      	str	r3, [r7, #28]
  uint32_t PreemptPriorityBits;
  uint32_t SubPriorityBits;

  PreemptPriorityBits = ((7UL - PriorityGroupTmp) > (uint32_t)(__NVIC_PRIO_BITS)) ? (uint32_t)(__NVIC_PRIO_BITS) : (uint32_t)(7UL - PriorityGroupTmp);
 8000eb8:	69fb      	ldr	r3, [r7, #28]
 8000eba:	f1c3 0307 	rsb	r3, r3, #7
 8000ebe:	2b04      	cmp	r3, #4
 8000ec0:	bf28      	it	cs
 8000ec2:	2304      	movcs	r3, #4
 8000ec4:	61bb      	str	r3, [r7, #24]
  SubPriorityBits     = ((PriorityGroupTmp + (uint32_t)(__NVIC_PRIO_BITS)) < (uint32_t)7UL) ? (uint32_t)0UL : (uint32_t)((PriorityGroupTmp - 7UL) + (uint32_t)(__NVIC_PRIO_BITS));
 8000ec6:	69fb      	ldr	r3, [r7, #28]
 8000ec8:	3304      	adds	r3, #4
 8000eca:	2b06      	cmp	r3, #6
 8000ecc:	d902      	bls.n	8000ed4 <NVIC_EncodePriority+0x30>
 8000ece:	69fb      	ldr	r3, [r7, #28]
 8000ed0:	3b03      	subs	r3, #3
 8000ed2:	e000      	b.n	8000ed6 <NVIC_EncodePriority+0x32>
 8000ed4:	2300      	movs	r3, #0
 8000ed6:	617b      	str	r3, [r7, #20]

  return (
           ((PreemptPriority & (uint32_t)((1UL << (PreemptPriorityBits)) - 1UL)) << SubPriorityBits) |
 8000ed8:	f04f 32ff 	mov.w	r2, #4294967295
 8000edc:	69bb      	ldr	r3, [r7, #24]
 8000ede:	fa02 f303 	lsl.w	r3, r2, r3
 8000ee2:	43da      	mvns	r2, r3
 8000ee4:	68bb      	ldr	r3, [r7, #8]
 8000ee6:	401a      	ands	r2, r3
 8000ee8:	697b      	ldr	r3, [r7, #20]
 8000eea:	409a      	lsls	r2, r3
           ((SubPriority     & (uint32_t)((1UL << (SubPriorityBits    )) - 1UL)))
 8000eec:	f04f 31ff 	mov.w	r1, #4294967295
 8000ef0:	697b      	ldr	r3, [r7, #20]
 8000ef2:	fa01 f303 	lsl.w	r3, r1, r3
 8000ef6:	43d9      	mvns	r1, r3
 8000ef8:	687b      	ldr	r3, [r7, #4]
 8000efa:	400b      	ands	r3, r1
           ((PreemptPriority & (uint32_t)((1UL << (PreemptPriorityBits)) - 1UL)) << SubPriorityBits) |
 8000efc:	4313      	orrs	r3, r2
         );
}
 8000efe:	4618      	mov	r0, r3
 8000f00:	3724      	adds	r7, #36	; 0x24
 8000f02:	46bd      	mov	sp, r7
 8000f04:	bc80      	pop	{r7}
 8000f06:	4770      	bx	lr

08000f08 <SysTick_Config>:
  \note    When the variable <b>__Vendor_SysTickConfig</b> is set to 1, then the
           function <b>SysTick_Config</b> is not included. In this case, the file <b><i>device</i>.h</b>
           must contain a vendor-specific implementation of this function.
 */
__STATIC_INLINE uint32_t SysTick_Config(uint32_t ticks)
{
 8000f08:	b580      	push	{r7, lr}
 8000f0a:	b082      	sub	sp, #8
 8000f0c:	af00      	add	r7, sp, #0
 8000f0e:	6078      	str	r0, [r7, #4]
  if ((ticks - 1UL) > SysTick_LOAD_RELOAD_Msk)
 8000f10:	687b      	ldr	r3, [r7, #4]
 8000f12:	3b01      	subs	r3, #1
 8000f14:	f1b3 7f80 	cmp.w	r3, #16777216	; 0x1000000
 8000f18:	d301      	bcc.n	8000f1e <SysTick_Config+0x16>
  {
    return (1UL);                                                   /* Reload value impossible */
 8000f1a:	2301      	movs	r3, #1
 8000f1c:	e00f      	b.n	8000f3e <SysTick_Config+0x36>
  }

  SysTick->LOAD  = (uint32_t)(ticks - 1UL);                         /* set reload register */
 8000f1e:	4a0a      	ldr	r2, [pc, #40]	; (8000f48 <SysTick_Config+0x40>)
 8000f20:	687b      	ldr	r3, [r7, #4]
 8000f22:	3b01      	subs	r3, #1
 8000f24:	6053      	str	r3, [r2, #4]
  NVIC_SetPriority (SysTick_IRQn, (1UL << __NVIC_PRIO_BITS) - 1UL); /* set Priority for Systick Interrupt */
 8000f26:	210f      	movs	r1, #15
 8000f28:	f04f 30ff 	mov.w	r0, #4294967295
 8000f2c:	f7ff ff90 	bl	8000e50 <__NVIC_SetPriority>
  SysTick->VAL   = 0UL;                                             /* Load the SysTick Counter Value */
 8000f30:	4b05      	ldr	r3, [pc, #20]	; (8000f48 <SysTick_Config+0x40>)
 8000f32:	2200      	movs	r2, #0
 8000f34:	609a      	str	r2, [r3, #8]
  SysTick->CTRL  = SysTick_CTRL_CLKSOURCE_Msk |
 8000f36:	4b04      	ldr	r3, [pc, #16]	; (8000f48 <SysTick_Config+0x40>)
 8000f38:	2207      	movs	r2, #7
 8000f3a:	601a      	str	r2, [r3, #0]
                   SysTick_CTRL_TICKINT_Msk   |
                   SysTick_CTRL_ENABLE_Msk;                         /* Enable SysTick IRQ and SysTick Timer */
  return (0UL);                                                     /* Function successful */
 8000f3c:	2300      	movs	r3, #0
}
 8000f3e:	4618      	mov	r0, r3
 8000f40:	3708      	adds	r7, #8
 8000f42:	46bd      	mov	sp, r7
 8000f44:	bd80      	pop	{r7, pc}
 8000f46:	bf00      	nop
 8000f48:	e000e010 	.word	0xe000e010

08000f4c <HAL_NVIC_SetPriorityGrouping>:
  * @note   When the NVIC_PriorityGroup_0 is selected, IRQ preemption is no more possible. 
  *         The pending IRQ priority will be managed only by the subpriority. 
  * @retval None
  */
void HAL_NVIC_SetPriorityGrouping(uint32_t PriorityGroup)
{
 8000f4c:	b580      	push	{r7, lr}
 8000f4e:	b082      	sub	sp, #8
 8000f50:	af00      	add	r7, sp, #0
 8000f52:	6078      	str	r0, [r7, #4]
  /* Check the parameters */
  assert_param(IS_NVIC_PRIORITY_GROUP(PriorityGroup));
  
  /* Set the PRIGROUP[10:8] bits according to the PriorityGroup parameter value */
  NVIC_SetPriorityGrouping(PriorityGroup);
 8000f54:	6878      	ldr	r0, [r7, #4]
 8000f56:	f7ff ff2d 	bl	8000db4 <__NVIC_SetPriorityGrouping>
}
 8000f5a:	bf00      	nop
 8000f5c:	3708      	adds	r7, #8
 8000f5e:	46bd      	mov	sp, r7
 8000f60:	bd80      	pop	{r7, pc}

08000f62 <HAL_NVIC_SetPriority>:
  *         This parameter can be a value between 0 and 15
  *         A lower priority value indicates a higher priority.          
  * @retval None
  */
void HAL_NVIC_SetPriority(IRQn_Type IRQn, uint32_t PreemptPriority, uint32_t SubPriority)
{ 
 8000f62:	b580      	push	{r7, lr}
 8000f64:	b086      	sub	sp, #24
 8000f66:	af00      	add	r7, sp, #0
 8000f68:	4603      	mov	r3, r0
 8000f6a:	60b9      	str	r1, [r7, #8]
 8000f6c:	607a      	str	r2, [r7, #4]
 8000f6e:	73fb      	strb	r3, [r7, #15]
  uint32_t prioritygroup = 0x00U;
 8000f70:	2300      	movs	r3, #0
 8000f72:	617b      	str	r3, [r7, #20]
  
  /* Check the parameters */
  assert_param(IS_NVIC_SUB_PRIORITY(SubPriority));
  assert_param(IS_NVIC_PREEMPTION_PRIORITY(PreemptPriority));
  
  prioritygroup = NVIC_GetPriorityGrouping();
 8000f74:	f7ff ff42 	bl	8000dfc <__NVIC_GetPriorityGrouping>
 8000f78:	6178      	str	r0, [r7, #20]
  
  NVIC_SetPriority(IRQn, NVIC_EncodePriority(prioritygroup, PreemptPriority, SubPriority));
 8000f7a:	687a      	ldr	r2, [r7, #4]
 8000f7c:	68b9      	ldr	r1, [r7, #8]
 8000f7e:	6978      	ldr	r0, [r7, #20]
 8000f80:	f7ff ff90 	bl	8000ea4 <NVIC_EncodePriority>
 8000f84:	4602      	mov	r2, r0
 8000f86:	f997 300f 	ldrsb.w	r3, [r7, #15]
 8000f8a:	4611      	mov	r1, r2
 8000f8c:	4618      	mov	r0, r3
 8000f8e:	f7ff ff5f 	bl	8000e50 <__NVIC_SetPriority>
}
 8000f92:	bf00      	nop
 8000f94:	3718      	adds	r7, #24
 8000f96:	46bd      	mov	sp, r7
 8000f98:	bd80      	pop	{r7, pc}

08000f9a <HAL_NVIC_EnableIRQ>:
  *         This parameter can be an enumerator of IRQn_Type enumeration
  *         (For the complete STM32 Devices IRQ Channels list, please refer to the appropriate CMSIS device file (stm32f10xxx.h))
  * @retval None
  */
void HAL_NVIC_EnableIRQ(IRQn_Type IRQn)
{
 8000f9a:	b580      	push	{r7, lr}
 8000f9c:	b082      	sub	sp, #8
 8000f9e:	af00      	add	r7, sp, #0
 8000fa0:	4603      	mov	r3, r0
 8000fa2:	71fb      	strb	r3, [r7, #7]
  /* Check the parameters */
  assert_param(IS_NVIC_DEVICE_IRQ(IRQn));

  /* Enable interrupt */
  NVIC_EnableIRQ(IRQn);
 8000fa4:	f997 3007 	ldrsb.w	r3, [r7, #7]
 8000fa8:	4618      	mov	r0, r3
 8000faa:	f7ff ff35 	bl	8000e18 <__NVIC_EnableIRQ>
}
 8000fae:	bf00      	nop
 8000fb0:	3708      	adds	r7, #8
 8000fb2:	46bd      	mov	sp, r7
 8000fb4:	bd80      	pop	{r7, pc}

08000fb6 <HAL_SYSTICK_Config>:
  * @param  TicksNumb: Specifies the ticks Number of ticks between two interrupts.
  * @retval status:  - 0  Function succeeded.
  *                  - 1  Function failed.
  */
uint32_t HAL_SYSTICK_Config(uint32_t TicksNumb)
{
 8000fb6:	b580      	push	{r7, lr}
 8000fb8:	b082      	sub	sp, #8
 8000fba:	af00      	add	r7, sp, #0
 8000fbc:	6078      	str	r0, [r7, #4]
   return SysTick_Config(TicksNumb);
 8000fbe:	6878      	ldr	r0, [r7, #4]
 8000fc0:	f7ff ffa2 	bl	8000f08 <SysTick_Config>
 8000fc4:	4603      	mov	r3, r0
}
 8000fc6:	4618      	mov	r0, r3
 8000fc8:	3708      	adds	r7, #8
 8000fca:	46bd      	mov	sp, r7
 8000fcc:	bd80      	pop	{r7, pc}
	...

08000fd0 <HAL_GPIO_Init>:
  * @param  GPIO_Init: pointer to a GPIO_InitTypeDef structure that contains
  *         the configuration information for the specified GPIO peripheral.
  * @retval None
  */
void HAL_GPIO_Init(GPIO_TypeDef  *GPIOx, GPIO_InitTypeDef *GPIO_Init)
{
 8000fd0:	b480      	push	{r7}
 8000fd2:	b08b      	sub	sp, #44	; 0x2c
 8000fd4:	af00      	add	r7, sp, #0
 8000fd6:	6078      	str	r0, [r7, #4]
 8000fd8:	6039      	str	r1, [r7, #0]
  uint32_t position = 0x00u;
 8000fda:	2300      	movs	r3, #0
 8000fdc:	627b      	str	r3, [r7, #36]	; 0x24
  uint32_t ioposition;
  uint32_t iocurrent;
  uint32_t temp;
  uint32_t config = 0x00u;
 8000fde:	2300      	movs	r3, #0
 8000fe0:	623b      	str	r3, [r7, #32]
  assert_param(IS_GPIO_ALL_INSTANCE(GPIOx));
  assert_param(IS_GPIO_PIN(GPIO_Init->Pin));
  assert_param(IS_GPIO_MODE(GPIO_Init->Mode));

  /* Configure the port pins */
  while (((GPIO_Init->Pin) >> position) != 0x00u)
 8000fe2:	e127      	b.n	8001234 <HAL_GPIO_Init+0x264>
  {
    /* Get the IO position */
    ioposition = (0x01uL << position);
 8000fe4:	2201      	movs	r2, #1
 8000fe6:	6a7b      	ldr	r3, [r7, #36]	; 0x24
 8000fe8:	fa02 f303 	lsl.w	r3, r2, r3
 8000fec:	61fb      	str	r3, [r7, #28]

    /* Get the current IO position */
    iocurrent = (uint32_t)(GPIO_Init->Pin) & ioposition;
 8000fee:	683b      	ldr	r3, [r7, #0]
 8000ff0:	681b      	ldr	r3, [r3, #0]
 8000ff2:	69fa      	ldr	r2, [r7, #28]
 8000ff4:	4013      	ands	r3, r2
 8000ff6:	61bb      	str	r3, [r7, #24]

    if (iocurrent == ioposition)
 8000ff8:	69ba      	ldr	r2, [r7, #24]
 8000ffa:	69fb      	ldr	r3, [r7, #28]
 8000ffc:	429a      	cmp	r2, r3
 8000ffe:	f040 8116 	bne.w	800122e <HAL_GPIO_Init+0x25e>
    {
      /* Check the Alternate function parameters */
      assert_param(IS_GPIO_AF_INSTANCE(GPIOx));

      /* Based on the required mode, filling config variable with MODEy[1:0] and CNFy[3:2] corresponding bits */
      switch (GPIO_Init->Mode)
 8001002:	683b      	ldr	r3, [r7, #0]
 8001004:	685b      	ldr	r3, [r3, #4]
 8001006:	2b12      	cmp	r3, #18
 8001008:	d034      	beq.n	8001074 <HAL_GPIO_Init+0xa4>
 800100a:	2b12      	cmp	r3, #18
 800100c:	d80d      	bhi.n	800102a <HAL_GPIO_Init+0x5a>
 800100e:	2b02      	cmp	r3, #2
 8001010:	d02b      	beq.n	800106a <HAL_GPIO_Init+0x9a>
 8001012:	2b02      	cmp	r3, #2
 8001014:	d804      	bhi.n	8001020 <HAL_GPIO_Init+0x50>
 8001016:	2b00      	cmp	r3, #0
 8001018:	d031      	beq.n	800107e <HAL_GPIO_Init+0xae>
 800101a:	2b01      	cmp	r3, #1
 800101c:	d01c      	beq.n	8001058 <HAL_GPIO_Init+0x88>
          config = GPIO_CR_MODE_INPUT + GPIO_CR_CNF_ANALOG;
          break;

        /* Parameters are checked with assert_param */
        default:
          break;
 800101e:	e048      	b.n	80010b2 <HAL_GPIO_Init+0xe2>
      switch (GPIO_Init->Mode)
 8001020:	2b03      	cmp	r3, #3
 8001022:	d043      	beq.n	80010ac <HAL_GPIO_Init+0xdc>
 8001024:	2b11      	cmp	r3, #17
 8001026:	d01b      	beq.n	8001060 <HAL_GPIO_Init+0x90>
          break;
 8001028:	e043      	b.n	80010b2 <HAL_GPIO_Init+0xe2>
      switch (GPIO_Init->Mode)
 800102a:	4a89      	ldr	r2, [pc, #548]	; (8001250 <HAL_GPIO_Init+0x280>)
 800102c:	4293      	cmp	r3, r2
 800102e:	d026      	beq.n	800107e <HAL_GPIO_Init+0xae>
 8001030:	4a87      	ldr	r2, [pc, #540]	; (8001250 <HAL_GPIO_Init+0x280>)
 8001032:	4293      	cmp	r3, r2
 8001034:	d806      	bhi.n	8001044 <HAL_GPIO_Init+0x74>
 8001036:	4a87      	ldr	r2, [pc, #540]	; (8001254 <HAL_GPIO_Init+0x284>)
 8001038:	4293      	cmp	r3, r2
 800103a:	d020      	beq.n	800107e <HAL_GPIO_Init+0xae>
 800103c:	4a86      	ldr	r2, [pc, #536]	; (8001258 <HAL_GPIO_Init+0x288>)
 800103e:	4293      	cmp	r3, r2
 8001040:	d01d      	beq.n	800107e <HAL_GPIO_Init+0xae>
          break;
 8001042:	e036      	b.n	80010b2 <HAL_GPIO_Init+0xe2>
      switch (GPIO_Init->Mode)
 8001044:	4a85      	ldr	r2, [pc, #532]	; (800125c <HAL_GPIO_Init+0x28c>)
 8001046:	4293      	cmp	r3, r2
 8001048:	d019      	beq.n	800107e <HAL_GPIO_Init+0xae>
 800104a:	4a85      	ldr	r2, [pc, #532]	; (8001260 <HAL_GPIO_Init+0x290>)
 800104c:	4293      	cmp	r3, r2
 800104e:	d016      	beq.n	800107e <HAL_GPIO_Init+0xae>
 8001050:	4a84      	ldr	r2, [pc, #528]	; (8001264 <HAL_GPIO_Init+0x294>)
 8001052:	4293      	cmp	r3, r2
 8001054:	d013      	beq.n	800107e <HAL_GPIO_Init+0xae>
          break;
 8001056:	e02c      	b.n	80010b2 <HAL_GPIO_Init+0xe2>
          config = GPIO_Init->Speed + GPIO_CR_CNF_GP_OUTPUT_PP;
 8001058:	683b      	ldr	r3, [r7, #0]
 800105a:	68db      	ldr	r3, [r3, #12]
 800105c:	623b      	str	r3, [r7, #32]
          break;
 800105e:	e028      	b.n	80010b2 <HAL_GPIO_Init+0xe2>
          config = GPIO_Init->Speed + GPIO_CR_CNF_GP_OUTPUT_OD;
 8001060:	683b      	ldr	r3, [r7, #0]
 8001062:	68db      	ldr	r3, [r3, #12]
 8001064:	3304      	adds	r3, #4
 8001066:	623b      	str	r3, [r7, #32]
          break;
 8001068:	e023      	b.n	80010b2 <HAL_GPIO_Init+0xe2>
          config = GPIO_Init->Speed + GPIO_CR_CNF_AF_OUTPUT_PP;
 800106a:	683b      	ldr	r3, [r7, #0]
 800106c:	68db      	ldr	r3, [r3, #12]
 800106e:	3308      	adds	r3, #8
 8001070:	623b      	str	r3, [r7, #32]
          break;
 8001072:	e01e      	b.n	80010b2 <HAL_GPIO_Init+0xe2>
          config = GPIO_Init->Speed + GPIO_CR_CNF_AF_OUTPUT_OD;
 8001074:	683b      	ldr	r3, [r7, #0]
 8001076:	68db      	ldr	r3, [r3, #12]
 8001078:	330c      	adds	r3, #12
 800107a:	623b      	str	r3, [r7, #32]
          break;
 800107c:	e019      	b.n	80010b2 <HAL_GPIO_Init+0xe2>
          if (GPIO_Init->Pull == GPIO_NOPULL)
 800107e:	683b      	ldr	r3, [r7, #0]
 8001080:	689b      	ldr	r3, [r3, #8]
 8001082:	2b00      	cmp	r3, #0
 8001084:	d102      	bne.n	800108c <HAL_GPIO_Init+0xbc>
            config = GPIO_CR_MODE_INPUT + GPIO_CR_CNF_INPUT_FLOATING;
 8001086:	2304      	movs	r3, #4
 8001088:	623b      	str	r3, [r7, #32]
          break;
 800108a:	e012      	b.n	80010b2 <HAL_GPIO_Init+0xe2>
          else if (GPIO_Init->Pull == GPIO_PULLUP)
 800108c:	683b      	ldr	r3, [r7, #0]
 800108e:	689b      	ldr	r3, [r3, #8]
 8001090:	2b01      	cmp	r3, #1
 8001092:	d105      	bne.n	80010a0 <HAL_GPIO_Init+0xd0>
            config = GPIO_CR_MODE_INPUT + GPIO_CR_CNF_INPUT_PU_PD;
 8001094:	2308      	movs	r3, #8
 8001096:	623b      	str	r3, [r7, #32]
            GPIOx->BSRR = ioposition;
 8001098:	687b      	ldr	r3, [r7, #4]
 800109a:	69fa      	ldr	r2, [r7, #28]
 800109c:	611a      	str	r2, [r3, #16]
          break;
 800109e:	e008      	b.n	80010b2 <HAL_GPIO_Init+0xe2>
            config = GPIO_CR_MODE_INPUT + GPIO_CR_CNF_INPUT_PU_PD;
 80010a0:	2308      	movs	r3, #8
 80010a2:	623b      	str	r3, [r7, #32]
            GPIOx->BRR = ioposition;
 80010a4:	687b      	ldr	r3, [r7, #4]
 80010a6:	69fa      	ldr	r2, [r7, #28]
 80010a8:	615a      	str	r2, [r3, #20]
          break;
 80010aa:	e002      	b.n	80010b2 <HAL_GPIO_Init+0xe2>
          config = GPIO_CR_MODE_INPUT + GPIO_CR_CNF_ANALOG;
 80010ac:	2300      	movs	r3, #0
 80010ae:	623b      	str	r3, [r7, #32]
          break;
 80010b0:	bf00      	nop
      }

      /* Check if the current bit belongs to first half or last half of the pin count number
       in order to address CRH or CRL register*/
      configregister = (iocurrent < GPIO_PIN_8) ? &GPIOx->CRL     : &GPIOx->CRH;
 80010b2:	69bb      	ldr	r3, [r7, #24]
 80010b4:	2bff      	cmp	r3, #255	; 0xff
 80010b6:	d801      	bhi.n	80010bc <HAL_GPIO_Init+0xec>
 80010b8:	687b      	ldr	r3, [r7, #4]
 80010ba:	e001      	b.n	80010c0 <HAL_GPIO_Init+0xf0>
 80010bc:	687b      	ldr	r3, [r7, #4]
 80010be:	3304      	adds	r3, #4
 80010c0:	617b      	str	r3, [r7, #20]
      registeroffset = (iocurrent < GPIO_PIN_8) ? (position << 2u) : ((position - 8u) << 2u);
 80010c2:	69bb      	ldr	r3, [r7, #24]
 80010c4:	2bff      	cmp	r3, #255	; 0xff
 80010c6:	d802      	bhi.n	80010ce <HAL_GPIO_Init+0xfe>
 80010c8:	6a7b      	ldr	r3, [r7, #36]	; 0x24
 80010ca:	009b      	lsls	r3, r3, #2
 80010cc:	e002      	b.n	80010d4 <HAL_GPIO_Init+0x104>
 80010ce:	6a7b      	ldr	r3, [r7, #36]	; 0x24
 80010d0:	3b08      	subs	r3, #8
 80010d2:	009b      	lsls	r3, r3, #2
 80010d4:	613b      	str	r3, [r7, #16]

      /* Apply the new configuration of the pin to the register */
      MODIFY_REG((*configregister), ((GPIO_CRL_MODE0 | GPIO_CRL_CNF0) << registeroffset), (config << registeroffset));
 80010d6:	697b      	ldr	r3, [r7, #20]
 80010d8:	681a      	ldr	r2, [r3, #0]
 80010da:	210f      	movs	r1, #15
 80010dc:	693b      	ldr	r3, [r7, #16]
 80010de:	fa01 f303 	lsl.w	r3, r1, r3
 80010e2:	43db      	mvns	r3, r3
 80010e4:	401a      	ands	r2, r3
 80010e6:	6a39      	ldr	r1, [r7, #32]
 80010e8:	693b      	ldr	r3, [r7, #16]
 80010ea:	fa01 f303 	lsl.w	r3, r1, r3
 80010ee:	431a      	orrs	r2, r3
 80010f0:	697b      	ldr	r3, [r7, #20]
 80010f2:	601a      	str	r2, [r3, #0]

      /*--------------------- EXTI Mode Configuration ------------------------*/
      /* Configure the External Interrupt or event for the current IO */
      if ((GPIO_Init->Mode & EXTI_MODE) == EXTI_MODE)
 80010f4:	683b      	ldr	r3, [r7, #0]
 80010f6:	685b      	ldr	r3, [r3, #4]
 80010f8:	f003 5380 	and.w	r3, r3, #268435456	; 0x10000000
 80010fc:	2b00      	cmp	r3, #0
 80010fe:	f000 8096 	beq.w	800122e <HAL_GPIO_Init+0x25e>
      {
        /* Enable AFIO Clock */
        __HAL_RCC_AFIO_CLK_ENABLE();
 8001102:	4b59      	ldr	r3, [pc, #356]	; (8001268 <HAL_GPIO_Init+0x298>)
 8001104:	699b      	ldr	r3, [r3, #24]
 8001106:	4a58      	ldr	r2, [pc, #352]	; (8001268 <HAL_GPIO_Init+0x298>)
 8001108:	f043 0301 	orr.w	r3, r3, #1
 800110c:	6193      	str	r3, [r2, #24]
 800110e:	4b56      	ldr	r3, [pc, #344]	; (8001268 <HAL_GPIO_Init+0x298>)
 8001110:	699b      	ldr	r3, [r3, #24]
 8001112:	f003 0301 	and.w	r3, r3, #1
 8001116:	60bb      	str	r3, [r7, #8]
 8001118:	68bb      	ldr	r3, [r7, #8]
        temp = AFIO->EXTICR[position >> 2u];
 800111a:	4a54      	ldr	r2, [pc, #336]	; (800126c <HAL_GPIO_Init+0x29c>)
 800111c:	6a7b      	ldr	r3, [r7, #36]	; 0x24
 800111e:	089b      	lsrs	r3, r3, #2
 8001120:	3302      	adds	r3, #2
 8001122:	f852 3023 	ldr.w	r3, [r2, r3, lsl #2]
 8001126:	60fb      	str	r3, [r7, #12]
        CLEAR_BIT(temp, (0x0Fu) << (4u * (position & 0x03u)));
 8001128:	6a7b      	ldr	r3, [r7, #36]	; 0x24
 800112a:	f003 0303 	and.w	r3, r3, #3
 800112e:	009b      	lsls	r3, r3, #2
 8001130:	220f      	movs	r2, #15
 8001132:	fa02 f303 	lsl.w	r3, r2, r3
 8001136:	43db      	mvns	r3, r3
 8001138:	68fa      	ldr	r2, [r7, #12]
 800113a:	4013      	ands	r3, r2
 800113c:	60fb      	str	r3, [r7, #12]
        SET_BIT(temp, (GPIO_GET_INDEX(GPIOx)) << (4u * (position & 0x03u)));
 800113e:	687b      	ldr	r3, [r7, #4]
 8001140:	4a4b      	ldr	r2, [pc, #300]	; (8001270 <HAL_GPIO_Init+0x2a0>)
 8001142:	4293      	cmp	r3, r2
 8001144:	d013      	beq.n	800116e <HAL_GPIO_Init+0x19e>
 8001146:	687b      	ldr	r3, [r7, #4]
 8001148:	4a4a      	ldr	r2, [pc, #296]	; (8001274 <HAL_GPIO_Init+0x2a4>)
 800114a:	4293      	cmp	r3, r2
 800114c:	d00d      	beq.n	800116a <HAL_GPIO_Init+0x19a>
 800114e:	687b      	ldr	r3, [r7, #4]
 8001150:	4a49      	ldr	r2, [pc, #292]	; (8001278 <HAL_GPIO_Init+0x2a8>)
 8001152:	4293      	cmp	r3, r2
 8001154:	d007      	beq.n	8001166 <HAL_GPIO_Init+0x196>
 8001156:	687b      	ldr	r3, [r7, #4]
 8001158:	4a48      	ldr	r2, [pc, #288]	; (800127c <HAL_GPIO_Init+0x2ac>)
 800115a:	4293      	cmp	r3, r2
 800115c:	d101      	bne.n	8001162 <HAL_GPIO_Init+0x192>
 800115e:	2303      	movs	r3, #3
 8001160:	e006      	b.n	8001170 <HAL_GPIO_Init+0x1a0>
 8001162:	2304      	movs	r3, #4
 8001164:	e004      	b.n	8001170 <HAL_GPIO_Init+0x1a0>
 8001166:	2302      	movs	r3, #2
 8001168:	e002      	b.n	8001170 <HAL_GPIO_Init+0x1a0>
 800116a:	2301      	movs	r3, #1
 800116c:	e000      	b.n	8001170 <HAL_GPIO_Init+0x1a0>
 800116e:	2300      	movs	r3, #0
 8001170:	6a7a      	ldr	r2, [r7, #36]	; 0x24
 8001172:	f002 0203 	and.w	r2, r2, #3
 8001176:	0092      	lsls	r2, r2, #2
 8001178:	4093      	lsls	r3, r2
 800117a:	68fa      	ldr	r2, [r7, #12]
 800117c:	4313      	orrs	r3, r2
 800117e:	60fb      	str	r3, [r7, #12]
        AFIO->EXTICR[position >> 2u] = temp;
 8001180:	493a      	ldr	r1, [pc, #232]	; (800126c <HAL_GPIO_Init+0x29c>)
 8001182:	6a7b      	ldr	r3, [r7, #36]	; 0x24
 8001184:	089b      	lsrs	r3, r3, #2
 8001186:	3302      	adds	r3, #2
 8001188:	68fa      	ldr	r2, [r7, #12]
 800118a:	f841 2023 	str.w	r2, [r1, r3, lsl #2]


        /* Configure the interrupt mask */
        if ((GPIO_Init->Mode & GPIO_MODE_IT) == GPIO_MODE_IT)
 800118e:	683b      	ldr	r3, [r7, #0]
 8001190:	685b      	ldr	r3, [r3, #4]
 8001192:	f403 3380 	and.w	r3, r3, #65536	; 0x10000
 8001196:	2b00      	cmp	r3, #0
 8001198:	d006      	beq.n	80011a8 <HAL_GPIO_Init+0x1d8>
        {
          SET_BIT(EXTI->IMR, iocurrent);
 800119a:	4b39      	ldr	r3, [pc, #228]	; (8001280 <HAL_GPIO_Init+0x2b0>)
 800119c:	681a      	ldr	r2, [r3, #0]
 800119e:	4938      	ldr	r1, [pc, #224]	; (8001280 <HAL_GPIO_Init+0x2b0>)
 80011a0:	69bb      	ldr	r3, [r7, #24]
 80011a2:	4313      	orrs	r3, r2
 80011a4:	600b      	str	r3, [r1, #0]
 80011a6:	e006      	b.n	80011b6 <HAL_GPIO_Init+0x1e6>
        }
        else
        {
          CLEAR_BIT(EXTI->IMR, iocurrent);
 80011a8:	4b35      	ldr	r3, [pc, #212]	; (8001280 <HAL_GPIO_Init+0x2b0>)
 80011aa:	681a      	ldr	r2, [r3, #0]
 80011ac:	69bb      	ldr	r3, [r7, #24]
 80011ae:	43db      	mvns	r3, r3
 80011b0:	4933      	ldr	r1, [pc, #204]	; (8001280 <HAL_GPIO_Init+0x2b0>)
 80011b2:	4013      	ands	r3, r2
 80011b4:	600b      	str	r3, [r1, #0]
        }

        /* Configure the event mask */
        if ((GPIO_Init->Mode & GPIO_MODE_EVT) == GPIO_MODE_EVT)
 80011b6:	683b      	ldr	r3, [r7, #0]
 80011b8:	685b      	ldr	r3, [r3, #4]
 80011ba:	f403 3300 	and.w	r3, r3, #131072	; 0x20000
 80011be:	2b00      	cmp	r3, #0
 80011c0:	d006      	beq.n	80011d0 <HAL_GPIO_Init+0x200>
        {
          SET_BIT(EXTI->EMR, iocurrent);
 80011c2:	4b2f      	ldr	r3, [pc, #188]	; (8001280 <HAL_GPIO_Init+0x2b0>)
 80011c4:	685a      	ldr	r2, [r3, #4]
 80011c6:	492e      	ldr	r1, [pc, #184]	; (8001280 <HAL_GPIO_Init+0x2b0>)
 80011c8:	69bb      	ldr	r3, [r7, #24]
 80011ca:	4313      	orrs	r3, r2
 80011cc:	604b      	str	r3, [r1, #4]
 80011ce:	e006      	b.n	80011de <HAL_GPIO_Init+0x20e>
        }
        else
        {
          CLEAR_BIT(EXTI->EMR, iocurrent);
 80011d0:	4b2b      	ldr	r3, [pc, #172]	; (8001280 <HAL_GPIO_Init+0x2b0>)
 80011d2:	685a      	ldr	r2, [r3, #4]
 80011d4:	69bb      	ldr	r3, [r7, #24]
 80011d6:	43db      	mvns	r3, r3
 80011d8:	4929      	ldr	r1, [pc, #164]	; (8001280 <HAL_GPIO_Init+0x2b0>)
 80011da:	4013      	ands	r3, r2
 80011dc:	604b      	str	r3, [r1, #4]
        }

        /* Enable or disable the rising trigger */
        if ((GPIO_Init->Mode & RISING_EDGE) == RISING_EDGE)
 80011de:	683b      	ldr	r3, [r7, #0]
 80011e0:	685b      	ldr	r3, [r3, #4]
 80011e2:	f403 1380 	and.w	r3, r3, #1048576	; 0x100000
 80011e6:	2b00      	cmp	r3, #0
 80011e8:	d006      	beq.n	80011f8 <HAL_GPIO_Init+0x228>
        {
          SET_BIT(EXTI->RTSR, iocurrent);
 80011ea:	4b25      	ldr	r3, [pc, #148]	; (8001280 <HAL_GPIO_Init+0x2b0>)
 80011ec:	689a      	ldr	r2, [r3, #8]
 80011ee:	4924      	ldr	r1, [pc, #144]	; (8001280 <HAL_GPIO_Init+0x2b0>)
 80011f0:	69bb      	ldr	r3, [r7, #24]
 80011f2:	4313      	orrs	r3, r2
 80011f4:	608b      	str	r3, [r1, #8]
 80011f6:	e006      	b.n	8001206 <HAL_GPIO_Init+0x236>
        }
        else
        {
          CLEAR_BIT(EXTI->RTSR, iocurrent);
 80011f8:	4b21      	ldr	r3, [pc, #132]	; (8001280 <HAL_GPIO_Init+0x2b0>)
 80011fa:	689a      	ldr	r2, [r3, #8]
 80011fc:	69bb      	ldr	r3, [r7, #24]
 80011fe:	43db      	mvns	r3, r3
 8001200:	491f      	ldr	r1, [pc, #124]	; (8001280 <HAL_GPIO_Init+0x2b0>)
 8001202:	4013      	ands	r3, r2
 8001204:	608b      	str	r3, [r1, #8]
        }

        /* Enable or disable the falling trigger */
        if ((GPIO_Init->Mode & FALLING_EDGE) == FALLING_EDGE)
 8001206:	683b      	ldr	r3, [r7, #0]
 8001208:	685b      	ldr	r3, [r3, #4]
 800120a:	f403 1300 	and.w	r3, r3, #2097152	; 0x200000
 800120e:	2b00      	cmp	r3, #0
 8001210:	d006      	beq.n	8001220 <HAL_GPIO_Init+0x250>
        {
          SET_BIT(EXTI->FTSR, iocurrent);
 8001212:	4b1b      	ldr	r3, [pc, #108]	; (8001280 <HAL_GPIO_Init+0x2b0>)
 8001214:	68da      	ldr	r2, [r3, #12]
 8001216:	491a      	ldr	r1, [pc, #104]	; (8001280 <HAL_GPIO_Init+0x2b0>)
 8001218:	69bb      	ldr	r3, [r7, #24]
 800121a:	4313      	orrs	r3, r2
 800121c:	60cb      	str	r3, [r1, #12]
 800121e:	e006      	b.n	800122e <HAL_GPIO_Init+0x25e>
        }
        else
        {
          CLEAR_BIT(EXTI->FTSR, iocurrent);
 8001220:	4b17      	ldr	r3, [pc, #92]	; (8001280 <HAL_GPIO_Init+0x2b0>)
 8001222:	68da      	ldr	r2, [r3, #12]
 8001224:	69bb      	ldr	r3, [r7, #24]
 8001226:	43db      	mvns	r3, r3
 8001228:	4915      	ldr	r1, [pc, #84]	; (8001280 <HAL_GPIO_Init+0x2b0>)
 800122a:	4013      	ands	r3, r2
 800122c:	60cb      	str	r3, [r1, #12]
        }
      }
    }

	position++;
 800122e:	6a7b      	ldr	r3, [r7, #36]	; 0x24
 8001230:	3301      	adds	r3, #1
 8001232:	627b      	str	r3, [r7, #36]	; 0x24
  while (((GPIO_Init->Pin) >> position) != 0x00u)
 8001234:	683b      	ldr	r3, [r7, #0]
 8001236:	681a      	ldr	r2, [r3, #0]
 8001238:	6a7b      	ldr	r3, [r7, #36]	; 0x24
 800123a:	fa22 f303 	lsr.w	r3, r2, r3
 800123e:	2b00      	cmp	r3, #0
 8001240:	f47f aed0 	bne.w	8000fe4 <HAL_GPIO_Init+0x14>
  }
}
 8001244:	bf00      	nop
 8001246:	372c      	adds	r7, #44	; 0x2c
 8001248:	46bd      	mov	sp, r7
 800124a:	bc80      	pop	{r7}
 800124c:	4770      	bx	lr
 800124e:	bf00      	nop
 8001250:	10210000 	.word	0x10210000
 8001254:	10110000 	.word	0x10110000
 8001258:	10120000 	.word	0x10120000
 800125c:	10310000 	.word	0x10310000
 8001260:	10320000 	.word	0x10320000
 8001264:	10220000 	.word	0x10220000
 8001268:	40021000 	.word	0x40021000
 800126c:	40010000 	.word	0x40010000
 8001270:	40010800 	.word	0x40010800
 8001274:	40010c00 	.word	0x40010c00
 8001278:	40011000 	.word	0x40011000
 800127c:	40011400 	.word	0x40011400
 8001280:	40010400 	.word	0x40010400

08001284 <HAL_GPIO_WritePin>:
  *            @arg GPIO_PIN_RESET: to clear the port pin
  *            @arg GPIO_PIN_SET: to set the port pin
  * @retval None
  */
void HAL_GPIO_WritePin(GPIO_TypeDef *GPIOx, uint16_t GPIO_Pin, GPIO_PinState PinState)
{
 8001284:	b480      	push	{r7}
 8001286:	b083      	sub	sp, #12
 8001288:	af00      	add	r7, sp, #0
 800128a:	6078      	str	r0, [r7, #4]
 800128c:	460b      	mov	r3, r1
 800128e:	807b      	strh	r3, [r7, #2]
 8001290:	4613      	mov	r3, r2
 8001292:	707b      	strb	r3, [r7, #1]
  /* Check the parameters */
  assert_param(IS_GPIO_PIN(GPIO_Pin));
  assert_param(IS_GPIO_PIN_ACTION(PinState));

  if (PinState != GPIO_PIN_RESET)
 8001294:	787b      	ldrb	r3, [r7, #1]
 8001296:	2b00      	cmp	r3, #0
 8001298:	d003      	beq.n	80012a2 <HAL_GPIO_WritePin+0x1e>
  {
    GPIOx->BSRR = GPIO_Pin;
 800129a:	887a      	ldrh	r2, [r7, #2]
 800129c:	687b      	ldr	r3, [r7, #4]
 800129e:	611a      	str	r2, [r3, #16]
  }
  else
  {
    GPIOx->BSRR = (uint32_t)GPIO_Pin << 16u;
  }
}
 80012a0:	e003      	b.n	80012aa <HAL_GPIO_WritePin+0x26>
    GPIOx->BSRR = (uint32_t)GPIO_Pin << 16u;
 80012a2:	887b      	ldrh	r3, [r7, #2]
 80012a4:	041a      	lsls	r2, r3, #16
 80012a6:	687b      	ldr	r3, [r7, #4]
 80012a8:	611a      	str	r2, [r3, #16]
}
 80012aa:	bf00      	nop
 80012ac:	370c      	adds	r7, #12
 80012ae:	46bd      	mov	sp, r7
 80012b0:	bc80      	pop	{r7}
 80012b2:	4770      	bx	lr

080012b4 <HAL_IWDG_Init>:
  * @param  hiwdg  pointer to a IWDG_HandleTypeDef structure that contains
  *                the configuration information for the specified IWDG module.
  * @retval HAL status
  */
HAL_StatusTypeDef HAL_IWDG_Init(IWDG_HandleTypeDef *hiwdg)
{
 80012b4:	b580      	push	{r7, lr}
 80012b6:	b084      	sub	sp, #16
 80012b8:	af00      	add	r7, sp, #0
 80012ba:	6078      	str	r0, [r7, #4]
  uint32_t tickstart;

  /* Check the IWDG handle allocation */
  if (hiwdg == NULL)
 80012bc:	687b      	ldr	r3, [r7, #4]
 80012be:	2b00      	cmp	r3, #0
 80012c0:	d101      	bne.n	80012c6 <HAL_IWDG_Init+0x12>
  {
    return HAL_ERROR;
 80012c2:	2301      	movs	r3, #1
 80012c4:	e02b      	b.n	800131e <HAL_IWDG_Init+0x6a>
  assert_param(IS_IWDG_ALL_INSTANCE(hiwdg->Instance));
  assert_param(IS_IWDG_PRESCALER(hiwdg->Init.Prescaler));
  assert_param(IS_IWDG_RELOAD(hiwdg->Init.Reload));

  /* Enable IWDG. LSI is turned on automaticaly */
  __HAL_IWDG_START(hiwdg);
 80012c6:	687b      	ldr	r3, [r7, #4]
 80012c8:	681b      	ldr	r3, [r3, #0]
 80012ca:	f64c 42cc 	movw	r2, #52428	; 0xcccc
 80012ce:	601a      	str	r2, [r3, #0]

  /* Enable write access to IWDG_PR and IWDG_RLR registers by writing 0x5555 in KR */
  IWDG_ENABLE_WRITE_ACCESS(hiwdg);
 80012d0:	687b      	ldr	r3, [r7, #4]
 80012d2:	681b      	ldr	r3, [r3, #0]
 80012d4:	f245 5255 	movw	r2, #21845	; 0x5555
 80012d8:	601a      	str	r2, [r3, #0]

  /* Write to IWDG registers the Prescaler & Reload values to work with */
  hiwdg->Instance->PR = hiwdg->Init.Prescaler;
 80012da:	687b      	ldr	r3, [r7, #4]
 80012dc:	681b      	ldr	r3, [r3, #0]
 80012de:	687a      	ldr	r2, [r7, #4]
 80012e0:	6852      	ldr	r2, [r2, #4]
 80012e2:	605a      	str	r2, [r3, #4]
  hiwdg->Instance->RLR = hiwdg->Init.Reload;
 80012e4:	687b      	ldr	r3, [r7, #4]
 80012e6:	681b      	ldr	r3, [r3, #0]
 80012e8:	687a      	ldr	r2, [r7, #4]
 80012ea:	6892      	ldr	r2, [r2, #8]
 80012ec:	609a      	str	r2, [r3, #8]

  /* Check pending flag, if previous update not done, return timeout */
  tickstart = HAL_GetTick();
 80012ee:	f7ff fb4d 	bl	800098c <HAL_GetTick>
 80012f2:	60f8      	str	r0, [r7, #12]

  /* Wait for register to be updated */
  while (hiwdg->Instance->SR != RESET)
 80012f4:	e008      	b.n	8001308 <HAL_IWDG_Init+0x54>
  {
    if ((HAL_GetTick() - tickstart) > HAL_IWDG_DEFAULT_TIMEOUT)
 80012f6:	f7ff fb49 	bl	800098c <HAL_GetTick>
 80012fa:	4602      	mov	r2, r0
 80012fc:	68fb      	ldr	r3, [r7, #12]
 80012fe:	1ad3      	subs	r3, r2, r3
 8001300:	2b30      	cmp	r3, #48	; 0x30
 8001302:	d901      	bls.n	8001308 <HAL_IWDG_Init+0x54>
    {
      return HAL_TIMEOUT;
 8001304:	2303      	movs	r3, #3
 8001306:	e00a      	b.n	800131e <HAL_IWDG_Init+0x6a>
  while (hiwdg->Instance->SR != RESET)
 8001308:	687b      	ldr	r3, [r7, #4]
 800130a:	681b      	ldr	r3, [r3, #0]
 800130c:	68db      	ldr	r3, [r3, #12]
 800130e:	2b00      	cmp	r3, #0
 8001310:	d1f1      	bne.n	80012f6 <HAL_IWDG_Init+0x42>
    }
  }

  /* Reload IWDG counter with value defined in the reload register */
  __HAL_IWDG_RELOAD_COUNTER(hiwdg);
 8001312:	687b      	ldr	r3, [r7, #4]
 8001314:	681b      	ldr	r3, [r3, #0]
 8001316:	f64a 22aa 	movw	r2, #43690	; 0xaaaa
 800131a:	601a      	str	r2, [r3, #0]

  /* Return function status */
  return HAL_OK;
 800131c:	2300      	movs	r3, #0
}
 800131e:	4618      	mov	r0, r3
 8001320:	3710      	adds	r7, #16
 8001322:	46bd      	mov	sp, r7
 8001324:	bd80      	pop	{r7, pc}

08001326 <HAL_PCD_Init>:
  *         parameters in the PCD_InitTypeDef and initialize the associated handle.
  * @param  hpcd PCD handle
  * @retval HAL status
  */
HAL_StatusTypeDef HAL_PCD_Init(PCD_HandleTypeDef *hpcd)
{
 8001326:	b5f0      	push	{r4, r5, r6, r7, lr}
 8001328:	b08b      	sub	sp, #44	; 0x2c
 800132a:	af06      	add	r7, sp, #24
 800132c:	6078      	str	r0, [r7, #4]
  USB_OTG_GlobalTypeDef *USBx;
#endif /* defined (USB_OTG_FS) */
  uint8_t i;

  /* Check the PCD handle allocation */
  if (hpcd == NULL)
 800132e:	687b      	ldr	r3, [r7, #4]
 8001330:	2b00      	cmp	r3, #0
 8001332:	d101      	bne.n	8001338 <HAL_PCD_Init+0x12>
  {
    return HAL_ERROR;
 8001334:	2301      	movs	r3, #1
 8001336:	e0d3      	b.n	80014e0 <HAL_PCD_Init+0x1ba>

#if defined (USB_OTG_FS)
  USBx = hpcd->Instance;
#endif /* defined (USB_OTG_FS) */

  if (hpcd->State == HAL_PCD_STATE_RESET)
 8001338:	687b      	ldr	r3, [r7, #4]
 800133a:	f893 3229 	ldrb.w	r3, [r3, #553]	; 0x229
 800133e:	b2db      	uxtb	r3, r3
 8001340:	2b00      	cmp	r3, #0
 8001342:	d106      	bne.n	8001352 <HAL_PCD_Init+0x2c>
  {
    /* Allocate lock resource and initialize it */
    hpcd->Lock = HAL_UNLOCKED;
 8001344:	687b      	ldr	r3, [r7, #4]
 8001346:	2200      	movs	r2, #0
 8001348:	f883 2228 	strb.w	r2, [r3, #552]	; 0x228

    /* Init the low level hardware */
    hpcd->MspInitCallback(hpcd);
#else
    /* Init the low level hardware : GPIO, CLOCK, NVIC... */
    HAL_PCD_MspInit(hpcd);
 800134c:	6878      	ldr	r0, [r7, #4]
 800134e:	f004 fbc7 	bl	8005ae0 <HAL_PCD_MspInit>
#endif /* (USE_HAL_PCD_REGISTER_CALLBACKS) */
  }

  hpcd->State = HAL_PCD_STATE_BUSY;
 8001352:	687b      	ldr	r3, [r7, #4]
 8001354:	2203      	movs	r2, #3
 8001356:	f883 2229 	strb.w	r2, [r3, #553]	; 0x229
    hpcd->Init.dma_enable = 0U;
  }
#endif /* defined (USB_OTG_FS) */

  /* Disable the Interrupts */
  __HAL_PCD_DISABLE(hpcd);
 800135a:	687b      	ldr	r3, [r7, #4]
 800135c:	681b      	ldr	r3, [r3, #0]
 800135e:	4618      	mov	r0, r3
 8001360:	f001 fd37 	bl	8002dd2 <USB_DisableGlobalInt>

  /*Init the Core (common init.) */
  if (USB_CoreInit(hpcd->Instance, hpcd->Init) != HAL_OK)
 8001364:	687b      	ldr	r3, [r7, #4]
 8001366:	681b      	ldr	r3, [r3, #0]
 8001368:	603b      	str	r3, [r7, #0]
 800136a:	687e      	ldr	r6, [r7, #4]
 800136c:	466d      	mov	r5, sp
 800136e:	f106 0410 	add.w	r4, r6, #16
 8001372:	cc0f      	ldmia	r4!, {r0, r1, r2, r3}
 8001374:	c50f      	stmia	r5!, {r0, r1, r2, r3}
 8001376:	6823      	ldr	r3, [r4, #0]
 8001378:	602b      	str	r3, [r5, #0]
 800137a:	1d33      	adds	r3, r6, #4
 800137c:	cb0e      	ldmia	r3, {r1, r2, r3}
 800137e:	6838      	ldr	r0, [r7, #0]
 8001380:	f001 fd00 	bl	8002d84 <USB_CoreInit>
 8001384:	4603      	mov	r3, r0
 8001386:	2b00      	cmp	r3, #0
 8001388:	d005      	beq.n	8001396 <HAL_PCD_Init+0x70>
  {
    hpcd->State = HAL_PCD_STATE_ERROR;
 800138a:	687b      	ldr	r3, [r7, #4]
 800138c:	2202      	movs	r2, #2
 800138e:	f883 2229 	strb.w	r2, [r3, #553]	; 0x229
    return HAL_ERROR;
 8001392:	2301      	movs	r3, #1
 8001394:	e0a4      	b.n	80014e0 <HAL_PCD_Init+0x1ba>
  }

  /* Force Device Mode*/
  (void)USB_SetCurrentMode(hpcd->Instance, USB_DEVICE_MODE);
 8001396:	687b      	ldr	r3, [r7, #4]
 8001398:	681b      	ldr	r3, [r3, #0]
 800139a:	2100      	movs	r1, #0
 800139c:	4618      	mov	r0, r3
 800139e:	f001 fd34 	bl	8002e0a <USB_SetCurrentMode>

  /* Init endpoints structures */
  for (i = 0U; i < hpcd->Init.dev_endpoints; i++)
 80013a2:	2300      	movs	r3, #0
 80013a4:	73fb      	strb	r3, [r7, #15]
 80013a6:	e035      	b.n	8001414 <HAL_PCD_Init+0xee>
  {
    /* Init ep structure */
    hpcd->IN_ep[i].is_in = 1U;
 80013a8:	7bfb      	ldrb	r3, [r7, #15]
 80013aa:	687a      	ldr	r2, [r7, #4]
 80013ac:	015b      	lsls	r3, r3, #5
 80013ae:	4413      	add	r3, r2
 80013b0:	3329      	adds	r3, #41	; 0x29
 80013b2:	2201      	movs	r2, #1
 80013b4:	701a      	strb	r2, [r3, #0]
    hpcd->IN_ep[i].num = i;
 80013b6:	7bfb      	ldrb	r3, [r7, #15]
 80013b8:	687a      	ldr	r2, [r7, #4]
 80013ba:	015b      	lsls	r3, r3, #5
 80013bc:	4413      	add	r3, r2
 80013be:	3328      	adds	r3, #40	; 0x28
 80013c0:	7bfa      	ldrb	r2, [r7, #15]
 80013c2:	701a      	strb	r2, [r3, #0]
    hpcd->IN_ep[i].tx_fifo_num = i;
 80013c4:	7bfb      	ldrb	r3, [r7, #15]
 80013c6:	7bfa      	ldrb	r2, [r7, #15]
 80013c8:	b291      	uxth	r1, r2
 80013ca:	687a      	ldr	r2, [r7, #4]
 80013cc:	015b      	lsls	r3, r3, #5
 80013ce:	4413      	add	r3, r2
 80013d0:	3336      	adds	r3, #54	; 0x36
 80013d2:	460a      	mov	r2, r1
 80013d4:	801a      	strh	r2, [r3, #0]
    /* Control until ep is activated */
    hpcd->IN_ep[i].type = EP_TYPE_CTRL;
 80013d6:	7bfb      	ldrb	r3, [r7, #15]
 80013d8:	687a      	ldr	r2, [r7, #4]
 80013da:	015b      	lsls	r3, r3, #5
 80013dc:	4413      	add	r3, r2
 80013de:	332b      	adds	r3, #43	; 0x2b
 80013e0:	2200      	movs	r2, #0
 80013e2:	701a      	strb	r2, [r3, #0]
    hpcd->IN_ep[i].maxpacket = 0U;
 80013e4:	7bfb      	ldrb	r3, [r7, #15]
 80013e6:	687a      	ldr	r2, [r7, #4]
 80013e8:	015b      	lsls	r3, r3, #5
 80013ea:	4413      	add	r3, r2
 80013ec:	3338      	adds	r3, #56	; 0x38
 80013ee:	2200      	movs	r2, #0
 80013f0:	601a      	str	r2, [r3, #0]
    hpcd->IN_ep[i].xfer_buff = 0U;
 80013f2:	7bfb      	ldrb	r3, [r7, #15]
 80013f4:	687a      	ldr	r2, [r7, #4]
 80013f6:	015b      	lsls	r3, r3, #5
 80013f8:	4413      	add	r3, r2
 80013fa:	333c      	adds	r3, #60	; 0x3c
 80013fc:	2200      	movs	r2, #0
 80013fe:	601a      	str	r2, [r3, #0]
    hpcd->IN_ep[i].xfer_len = 0U;
 8001400:	7bfb      	ldrb	r3, [r7, #15]
 8001402:	687a      	ldr	r2, [r7, #4]
 8001404:	3302      	adds	r3, #2
 8001406:	015b      	lsls	r3, r3, #5
 8001408:	4413      	add	r3, r2
 800140a:	2200      	movs	r2, #0
 800140c:	601a      	str	r2, [r3, #0]
  for (i = 0U; i < hpcd->Init.dev_endpoints; i++)
 800140e:	7bfb      	ldrb	r3, [r7, #15]
 8001410:	3301      	adds	r3, #1
 8001412:	73fb      	strb	r3, [r7, #15]
 8001414:	7bfa      	ldrb	r2, [r7, #15]
 8001416:	687b      	ldr	r3, [r7, #4]
 8001418:	685b      	ldr	r3, [r3, #4]
 800141a:	429a      	cmp	r2, r3
 800141c:	d3c4      	bcc.n	80013a8 <HAL_PCD_Init+0x82>
  }

  for (i = 0U; i < hpcd->Init.dev_endpoints; i++)
 800141e:	2300      	movs	r3, #0
 8001420:	73fb      	strb	r3, [r7, #15]
 8001422:	e031      	b.n	8001488 <HAL_PCD_Init+0x162>
  {
    hpcd->OUT_ep[i].is_in = 0U;
 8001424:	7bfb      	ldrb	r3, [r7, #15]
 8001426:	687a      	ldr	r2, [r7, #4]
 8001428:	015b      	lsls	r3, r3, #5
 800142a:	4413      	add	r3, r2
 800142c:	f203 1329 	addw	r3, r3, #297	; 0x129
 8001430:	2200      	movs	r2, #0
 8001432:	701a      	strb	r2, [r3, #0]
    hpcd->OUT_ep[i].num = i;
 8001434:	7bfb      	ldrb	r3, [r7, #15]
 8001436:	687a      	ldr	r2, [r7, #4]
 8001438:	015b      	lsls	r3, r3, #5
 800143a:	4413      	add	r3, r2
 800143c:	f503 7394 	add.w	r3, r3, #296	; 0x128
 8001440:	7bfa      	ldrb	r2, [r7, #15]
 8001442:	701a      	strb	r2, [r3, #0]
    /* Control until ep is activated */
    hpcd->OUT_ep[i].type = EP_TYPE_CTRL;
 8001444:	7bfb      	ldrb	r3, [r7, #15]
 8001446:	687a      	ldr	r2, [r7, #4]
 8001448:	015b      	lsls	r3, r3, #5
 800144a:	4413      	add	r3, r2
 800144c:	f203 132b 	addw	r3, r3, #299	; 0x12b
 8001450:	2200      	movs	r2, #0
 8001452:	701a      	strb	r2, [r3, #0]
    hpcd->OUT_ep[i].maxpacket = 0U;
 8001454:	7bfb      	ldrb	r3, [r7, #15]
 8001456:	687a      	ldr	r2, [r7, #4]
 8001458:	015b      	lsls	r3, r3, #5
 800145a:	4413      	add	r3, r2
 800145c:	f503 739c 	add.w	r3, r3, #312	; 0x138
 8001460:	2200      	movs	r2, #0
 8001462:	601a      	str	r2, [r3, #0]
    hpcd->OUT_ep[i].xfer_buff = 0U;
 8001464:	7bfb      	ldrb	r3, [r7, #15]
 8001466:	687a      	ldr	r2, [r7, #4]
 8001468:	015b      	lsls	r3, r3, #5
 800146a:	4413      	add	r3, r2
 800146c:	f503 739e 	add.w	r3, r3, #316	; 0x13c
 8001470:	2200      	movs	r2, #0
 8001472:	601a      	str	r2, [r3, #0]
    hpcd->OUT_ep[i].xfer_len = 0U;
 8001474:	7bfb      	ldrb	r3, [r7, #15]
 8001476:	687a      	ldr	r2, [r7, #4]
 8001478:	330a      	adds	r3, #10
 800147a:	015b      	lsls	r3, r3, #5
 800147c:	4413      	add	r3, r2
 800147e:	2200      	movs	r2, #0
 8001480:	601a      	str	r2, [r3, #0]
  for (i = 0U; i < hpcd->Init.dev_endpoints; i++)
 8001482:	7bfb      	ldrb	r3, [r7, #15]
 8001484:	3301      	adds	r3, #1
 8001486:	73fb      	strb	r3, [r7, #15]
 8001488:	7bfa      	ldrb	r2, [r7, #15]
 800148a:	687b      	ldr	r3, [r7, #4]
 800148c:	685b      	ldr	r3, [r3, #4]
 800148e:	429a      	cmp	r2, r3
 8001490:	d3c8      	bcc.n	8001424 <HAL_PCD_Init+0xfe>
  }

  /* Init Device */
  if (USB_DevInit(hpcd->Instance, hpcd->Init) != HAL_OK)
 8001492:	687b      	ldr	r3, [r7, #4]
 8001494:	681b      	ldr	r3, [r3, #0]
 8001496:	603b      	str	r3, [r7, #0]
 8001498:	687e      	ldr	r6, [r7, #4]
 800149a:	466d      	mov	r5, sp
 800149c:	f106 0410 	add.w	r4, r6, #16
 80014a0:	cc0f      	ldmia	r4!, {r0, r1, r2, r3}
 80014a2:	c50f      	stmia	r5!, {r0, r1, r2, r3}
 80014a4:	6823      	ldr	r3, [r4, #0]
 80014a6:	602b      	str	r3, [r5, #0]
 80014a8:	1d33      	adds	r3, r6, #4
 80014aa:	cb0e      	ldmia	r3, {r1, r2, r3}
 80014ac:	6838      	ldr	r0, [r7, #0]
 80014ae:	f001 fcb8 	bl	8002e22 <USB_DevInit>
 80014b2:	4603      	mov	r3, r0
 80014b4:	2b00      	cmp	r3, #0
 80014b6:	d005      	beq.n	80014c4 <HAL_PCD_Init+0x19e>
  {
    hpcd->State = HAL_PCD_STATE_ERROR;
 80014b8:	687b      	ldr	r3, [r7, #4]
 80014ba:	2202      	movs	r2, #2
 80014bc:	f883 2229 	strb.w	r2, [r3, #553]	; 0x229
    return HAL_ERROR;
 80014c0:	2301      	movs	r3, #1
 80014c2:	e00d      	b.n	80014e0 <HAL_PCD_Init+0x1ba>
  }

  hpcd->USB_Address = 0U;
 80014c4:	687b      	ldr	r3, [r7, #4]
 80014c6:	2200      	movs	r2, #0
 80014c8:	f883 2024 	strb.w	r2, [r3, #36]	; 0x24
  hpcd->State = HAL_PCD_STATE_READY;
 80014cc:	687b      	ldr	r3, [r7, #4]
 80014ce:	2201      	movs	r2, #1
 80014d0:	f883 2229 	strb.w	r2, [r3, #553]	; 0x229
  (void)USB_DevDisconnect(hpcd->Instance);
 80014d4:	687b      	ldr	r3, [r7, #4]
 80014d6:	681b      	ldr	r3, [r3, #0]
 80014d8:	4618      	mov	r0, r3
 80014da:	f002 fcf6 	bl	8003eca <USB_DevDisconnect>

  return HAL_OK;
 80014de:	2300      	movs	r3, #0
}
 80014e0:	4618      	mov	r0, r3
 80014e2:	3714      	adds	r7, #20
 80014e4:	46bd      	mov	sp, r7
 80014e6:	bdf0      	pop	{r4, r5, r6, r7, pc}

080014e8 <HAL_PCD_Start>:
  * @brief  Start the USB device
  * @param  hpcd PCD handle
  * @retval HAL status
  */
HAL_StatusTypeDef HAL_PCD_Start(PCD_HandleTypeDef *hpcd)
{
 80014e8:	b580      	push	{r7, lr}
 80014ea:	b082      	sub	sp, #8
 80014ec:	af00      	add	r7, sp, #0
 80014ee:	6078      	str	r0, [r7, #4]
  __HAL_LOCK(hpcd);
 80014f0:	687b      	ldr	r3, [r7, #4]
 80014f2:	f893 3228 	ldrb.w	r3, [r3, #552]	; 0x228
 80014f6:	2b01      	cmp	r3, #1
 80014f8:	d101      	bne.n	80014fe <HAL_PCD_Start+0x16>
 80014fa:	2302      	movs	r3, #2
 80014fc:	e016      	b.n	800152c <HAL_PCD_Start+0x44>
 80014fe:	687b      	ldr	r3, [r7, #4]
 8001500:	2201      	movs	r2, #1
 8001502:	f883 2228 	strb.w	r2, [r3, #552]	; 0x228
#if defined (USB)
  HAL_PCDEx_SetConnectionState(hpcd, 1U);
 8001506:	2101      	movs	r1, #1
 8001508:	6878      	ldr	r0, [r7, #4]
 800150a:	f004 fd50 	bl	8005fae <HAL_PCDEx_SetConnectionState>
#endif /* defined (USB) */
  (void)USB_DevConnect(hpcd->Instance);
 800150e:	687b      	ldr	r3, [r7, #4]
 8001510:	681b      	ldr	r3, [r3, #0]
 8001512:	4618      	mov	r0, r3
 8001514:	f002 fccf 	bl	8003eb6 <USB_DevConnect>
  __HAL_PCD_ENABLE(hpcd);
 8001518:	687b      	ldr	r3, [r7, #4]
 800151a:	681b      	ldr	r3, [r3, #0]
 800151c:	4618      	mov	r0, r3
 800151e:	f001 fc41 	bl	8002da4 <USB_EnableGlobalInt>
  __HAL_UNLOCK(hpcd);
 8001522:	687b      	ldr	r3, [r7, #4]
 8001524:	2200      	movs	r2, #0
 8001526:	f883 2228 	strb.w	r2, [r3, #552]	; 0x228
  return HAL_OK;
 800152a:	2300      	movs	r3, #0
}
 800152c:	4618      	mov	r0, r3
 800152e:	3708      	adds	r7, #8
 8001530:	46bd      	mov	sp, r7
 8001532:	bd80      	pop	{r7, pc}

08001534 <HAL_PCD_IRQHandler>:
  * @brief  This function handles PCD interrupt request.
  * @param  hpcd PCD handle
  * @retval HAL status
  */
void HAL_PCD_IRQHandler(PCD_HandleTypeDef *hpcd)
{
 8001534:	b580      	push	{r7, lr}
 8001536:	b082      	sub	sp, #8
 8001538:	af00      	add	r7, sp, #0
 800153a:	6078      	str	r0, [r7, #4]
  if (__HAL_PCD_GET_FLAG(hpcd, USB_ISTR_CTR))
 800153c:	687b      	ldr	r3, [r7, #4]
 800153e:	681b      	ldr	r3, [r3, #0]
 8001540:	4618      	mov	r0, r3
 8001542:	f002 fccc 	bl	8003ede <USB_ReadInterrupts>
 8001546:	4603      	mov	r3, r0
 8001548:	f403 4300 	and.w	r3, r3, #32768	; 0x8000
 800154c:	f5b3 4f00 	cmp.w	r3, #32768	; 0x8000
 8001550:	d102      	bne.n	8001558 <HAL_PCD_IRQHandler+0x24>
  {
    /* servicing of the endpoint correct transfer interrupt */
    /* clear of the CTR flag into the sub */
    (void)PCD_EP_ISR_Handler(hpcd);
 8001552:	6878      	ldr	r0, [r7, #4]
 8001554:	f000 faf2 	bl	8001b3c <PCD_EP_ISR_Handler>
  }

  if (__HAL_PCD_GET_FLAG(hpcd, USB_ISTR_RESET))
 8001558:	687b      	ldr	r3, [r7, #4]
 800155a:	681b      	ldr	r3, [r3, #0]
 800155c:	4618      	mov	r0, r3
 800155e:	f002 fcbe 	bl	8003ede <USB_ReadInterrupts>
 8001562:	4603      	mov	r3, r0
 8001564:	f403 6380 	and.w	r3, r3, #1024	; 0x400
 8001568:	f5b3 6f80 	cmp.w	r3, #1024	; 0x400
 800156c:	d112      	bne.n	8001594 <HAL_PCD_IRQHandler+0x60>
  {
    __HAL_PCD_CLEAR_FLAG(hpcd, USB_ISTR_RESET);
 800156e:	687b      	ldr	r3, [r7, #4]
 8001570:	681b      	ldr	r3, [r3, #0]
 8001572:	f8b3 3044 	ldrh.w	r3, [r3, #68]	; 0x44
 8001576:	b29a      	uxth	r2, r3
 8001578:	687b      	ldr	r3, [r7, #4]
 800157a:	681b      	ldr	r3, [r3, #0]
 800157c:	f422 6280 	bic.w	r2, r2, #1024	; 0x400
 8001580:	b292      	uxth	r2, r2
 8001582:	f8a3 2044 	strh.w	r2, [r3, #68]	; 0x44

#if (USE_HAL_PCD_REGISTER_CALLBACKS == 1U)
    hpcd->ResetCallback(hpcd);
#else
    HAL_PCD_ResetCallback(hpcd);
 8001586:	6878      	ldr	r0, [r7, #4]
 8001588:	f004 fb1f 	bl	8005bca <HAL_PCD_ResetCallback>
#endif /* USE_HAL_PCD_REGISTER_CALLBACKS */

    (void)HAL_PCD_SetAddress(hpcd, 0U);
 800158c:	2100      	movs	r1, #0
 800158e:	6878      	ldr	r0, [r7, #4]
 8001590:	f000 f8de 	bl	8001750 <HAL_PCD_SetAddress>
  }

  if (__HAL_PCD_GET_FLAG(hpcd, USB_ISTR_PMAOVR))
 8001594:	687b      	ldr	r3, [r7, #4]
 8001596:	681b      	ldr	r3, [r3, #0]
 8001598:	4618      	mov	r0, r3
 800159a:	f002 fca0 	bl	8003ede <USB_ReadInterrupts>
 800159e:	4603      	mov	r3, r0
 80015a0:	f403 4380 	and.w	r3, r3, #16384	; 0x4000
 80015a4:	f5b3 4f80 	cmp.w	r3, #16384	; 0x4000
 80015a8:	d10b      	bne.n	80015c2 <HAL_PCD_IRQHandler+0x8e>
  {
    __HAL_PCD_CLEAR_FLAG(hpcd, USB_ISTR_PMAOVR);
 80015aa:	687b      	ldr	r3, [r7, #4]
 80015ac:	681b      	ldr	r3, [r3, #0]
 80015ae:	f8b3 3044 	ldrh.w	r3, [r3, #68]	; 0x44
 80015b2:	b29a      	uxth	r2, r3
 80015b4:	687b      	ldr	r3, [r7, #4]
 80015b6:	681b      	ldr	r3, [r3, #0]
 80015b8:	f422 4280 	bic.w	r2, r2, #16384	; 0x4000
 80015bc:	b292      	uxth	r2, r2
 80015be:	f8a3 2044 	strh.w	r2, [r3, #68]	; 0x44
  }

  if (__HAL_PCD_GET_FLAG(hpcd, USB_ISTR_ERR))
 80015c2:	687b      	ldr	r3, [r7, #4]
 80015c4:	681b      	ldr	r3, [r3, #0]
 80015c6:	4618      	mov	r0, r3
 80015c8:	f002 fc89 	bl	8003ede <USB_ReadInterrupts>
 80015cc:	4603      	mov	r3, r0
 80015ce:	f403 5300 	and.w	r3, r3, #8192	; 0x2000
 80015d2:	f5b3 5f00 	cmp.w	r3, #8192	; 0x2000
 80015d6:	d10b      	bne.n	80015f0 <HAL_PCD_IRQHandler+0xbc>
  {
    __HAL_PCD_CLEAR_FLAG(hpcd, USB_ISTR_ERR);
 80015d8:	687b      	ldr	r3, [r7, #4]
 80015da:	681b      	ldr	r3, [r3, #0]
 80015dc:	f8b3 3044 	ldrh.w	r3, [r3, #68]	; 0x44
 80015e0:	b29a      	uxth	r2, r3
 80015e2:	687b      	ldr	r3, [r7, #4]
 80015e4:	681b      	ldr	r3, [r3, #0]
 80015e6:	f422 5200 	bic.w	r2, r2, #8192	; 0x2000
 80015ea:	b292      	uxth	r2, r2
 80015ec:	f8a3 2044 	strh.w	r2, [r3, #68]	; 0x44
  }

  if (__HAL_PCD_GET_FLAG(hpcd, USB_ISTR_WKUP))
 80015f0:	687b      	ldr	r3, [r7, #4]
 80015f2:	681b      	ldr	r3, [r3, #0]
 80015f4:	4618      	mov	r0, r3
 80015f6:	f002 fc72 	bl	8003ede <USB_ReadInterrupts>
 80015fa:	4603      	mov	r3, r0
 80015fc:	f403 5380 	and.w	r3, r3, #4096	; 0x1000
 8001600:	f5b3 5f80 	cmp.w	r3, #4096	; 0x1000
 8001604:	d126      	bne.n	8001654 <HAL_PCD_IRQHandler+0x120>
  {
    hpcd->Instance->CNTR &= (uint16_t) ~(USB_CNTR_LP_MODE);
 8001606:	687b      	ldr	r3, [r7, #4]
 8001608:	681b      	ldr	r3, [r3, #0]
 800160a:	f8b3 3040 	ldrh.w	r3, [r3, #64]	; 0x40
 800160e:	b29a      	uxth	r2, r3
 8001610:	687b      	ldr	r3, [r7, #4]
 8001612:	681b      	ldr	r3, [r3, #0]
 8001614:	f022 0204 	bic.w	r2, r2, #4
 8001618:	b292      	uxth	r2, r2
 800161a:	f8a3 2040 	strh.w	r2, [r3, #64]	; 0x40
    hpcd->Instance->CNTR &= (uint16_t) ~(USB_CNTR_FSUSP);
 800161e:	687b      	ldr	r3, [r7, #4]
 8001620:	681b      	ldr	r3, [r3, #0]
 8001622:	f8b3 3040 	ldrh.w	r3, [r3, #64]	; 0x40
 8001626:	b29a      	uxth	r2, r3
 8001628:	687b      	ldr	r3, [r7, #4]
 800162a:	681b      	ldr	r3, [r3, #0]
 800162c:	f022 0208 	bic.w	r2, r2, #8
 8001630:	b292      	uxth	r2, r2
 8001632:	f8a3 2040 	strh.w	r2, [r3, #64]	; 0x40

#if (USE_HAL_PCD_REGISTER_CALLBACKS == 1U)
    hpcd->ResumeCallback(hpcd);
#else
    HAL_PCD_ResumeCallback(hpcd);
 8001636:	6878      	ldr	r0, [r7, #4]
 8001638:	f004 fb00 	bl	8005c3c <HAL_PCD_ResumeCallback>
#endif /* USE_HAL_PCD_REGISTER_CALLBACKS */

    __HAL_PCD_CLEAR_FLAG(hpcd, USB_ISTR_WKUP);
 800163c:	687b      	ldr	r3, [r7, #4]
 800163e:	681b      	ldr	r3, [r3, #0]
 8001640:	f8b3 3044 	ldrh.w	r3, [r3, #68]	; 0x44
 8001644:	b29a      	uxth	r2, r3
 8001646:	687b      	ldr	r3, [r7, #4]
 8001648:	681b      	ldr	r3, [r3, #0]
 800164a:	f422 5280 	bic.w	r2, r2, #4096	; 0x1000
 800164e:	b292      	uxth	r2, r2
 8001650:	f8a3 2044 	strh.w	r2, [r3, #68]	; 0x44
  }

  if (__HAL_PCD_GET_FLAG(hpcd, USB_ISTR_SUSP))
 8001654:	687b      	ldr	r3, [r7, #4]
 8001656:	681b      	ldr	r3, [r3, #0]
 8001658:	4618      	mov	r0, r3
 800165a:	f002 fc40 	bl	8003ede <USB_ReadInterrupts>
 800165e:	4603      	mov	r3, r0
 8001660:	f403 6300 	and.w	r3, r3, #2048	; 0x800
 8001664:	f5b3 6f00 	cmp.w	r3, #2048	; 0x800
 8001668:	d13d      	bne.n	80016e6 <HAL_PCD_IRQHandler+0x1b2>
  {
    /* Force low-power mode in the macrocell */
    hpcd->Instance->CNTR |= USB_CNTR_FSUSP;
 800166a:	687b      	ldr	r3, [r7, #4]
 800166c:	681b      	ldr	r3, [r3, #0]
 800166e:	f8b3 3040 	ldrh.w	r3, [r3, #64]	; 0x40
 8001672:	b29a      	uxth	r2, r3
 8001674:	687b      	ldr	r3, [r7, #4]
 8001676:	681b      	ldr	r3, [r3, #0]
 8001678:	f042 0208 	orr.w	r2, r2, #8
 800167c:	b292      	uxth	r2, r2
 800167e:	f8a3 2040 	strh.w	r2, [r3, #64]	; 0x40

    /* clear of the ISTR bit must be done after setting of CNTR_FSUSP */
    __HAL_PCD_CLEAR_FLAG(hpcd, USB_ISTR_SUSP);
 8001682:	687b      	ldr	r3, [r7, #4]
 8001684:	681b      	ldr	r3, [r3, #0]
 8001686:	f8b3 3044 	ldrh.w	r3, [r3, #68]	; 0x44
 800168a:	b29a      	uxth	r2, r3
 800168c:	687b      	ldr	r3, [r7, #4]
 800168e:	681b      	ldr	r3, [r3, #0]
 8001690:	f422 6200 	bic.w	r2, r2, #2048	; 0x800
 8001694:	b292      	uxth	r2, r2
 8001696:	f8a3 2044 	strh.w	r2, [r3, #68]	; 0x44

    hpcd->Instance->CNTR |= USB_CNTR_LP_MODE;
 800169a:	687b      	ldr	r3, [r7, #4]
 800169c:	681b      	ldr	r3, [r3, #0]
 800169e:	f8b3 3040 	ldrh.w	r3, [r3, #64]	; 0x40
 80016a2:	b29a      	uxth	r2, r3
 80016a4:	687b      	ldr	r3, [r7, #4]
 80016a6:	681b      	ldr	r3, [r3, #0]
 80016a8:	f042 0204 	orr.w	r2, r2, #4
 80016ac:	b292      	uxth	r2, r2
 80016ae:	f8a3 2040 	strh.w	r2, [r3, #64]	; 0x40

    /* WA: Clear Wakeup flag if raised with suspend signal */
    if (__HAL_PCD_GET_FLAG(hpcd, USB_ISTR_WKUP))
 80016b2:	687b      	ldr	r3, [r7, #4]
 80016b4:	681b      	ldr	r3, [r3, #0]
 80016b6:	4618      	mov	r0, r3
 80016b8:	f002 fc11 	bl	8003ede <USB_ReadInterrupts>
 80016bc:	4603      	mov	r3, r0
 80016be:	f403 5380 	and.w	r3, r3, #4096	; 0x1000
 80016c2:	f5b3 5f80 	cmp.w	r3, #4096	; 0x1000
 80016c6:	d10b      	bne.n	80016e0 <HAL_PCD_IRQHandler+0x1ac>
    {
       __HAL_PCD_CLEAR_FLAG(hpcd, USB_ISTR_WKUP);
 80016c8:	687b      	ldr	r3, [r7, #4]
 80016ca:	681b      	ldr	r3, [r3, #0]
 80016cc:	f8b3 3044 	ldrh.w	r3, [r3, #68]	; 0x44
 80016d0:	b29a      	uxth	r2, r3
 80016d2:	687b      	ldr	r3, [r7, #4]
 80016d4:	681b      	ldr	r3, [r3, #0]
 80016d6:	f422 5280 	bic.w	r2, r2, #4096	; 0x1000
 80016da:	b292      	uxth	r2, r2
 80016dc:	f8a3 2044 	strh.w	r2, [r3, #68]	; 0x44
    }

#if (USE_HAL_PCD_REGISTER_CALLBACKS == 1U)
    hpcd->SuspendCallback(hpcd);
#else
    HAL_PCD_SuspendCallback(hpcd);
 80016e0:	6878      	ldr	r0, [r7, #4]
 80016e2:	f004 fa91 	bl	8005c08 <HAL_PCD_SuspendCallback>
#endif /* USE_HAL_PCD_REGISTER_CALLBACKS */
  }

  if (__HAL_PCD_GET_FLAG(hpcd, USB_ISTR_SOF))
 80016e6:	687b      	ldr	r3, [r7, #4]
 80016e8:	681b      	ldr	r3, [r3, #0]
 80016ea:	4618      	mov	r0, r3
 80016ec:	f002 fbf7 	bl	8003ede <USB_ReadInterrupts>
 80016f0:	4603      	mov	r3, r0
 80016f2:	f403 7300 	and.w	r3, r3, #512	; 0x200
 80016f6:	f5b3 7f00 	cmp.w	r3, #512	; 0x200
 80016fa:	d10e      	bne.n	800171a <HAL_PCD_IRQHandler+0x1e6>
  {
    __HAL_PCD_CLEAR_FLAG(hpcd, USB_ISTR_SOF);
 80016fc:	687b      	ldr	r3, [r7, #4]
 80016fe:	681b      	ldr	r3, [r3, #0]
 8001700:	f8b3 3044 	ldrh.w	r3, [r3, #68]	; 0x44
 8001704:	b29a      	uxth	r2, r3
 8001706:	687b      	ldr	r3, [r7, #4]
 8001708:	681b      	ldr	r3, [r3, #0]
 800170a:	f422 7200 	bic.w	r2, r2, #512	; 0x200
 800170e:	b292      	uxth	r2, r2
 8001710:	f8a3 2044 	strh.w	r2, [r3, #68]	; 0x44

#if (USE_HAL_PCD_REGISTER_CALLBACKS == 1U)
    hpcd->SOFCallback(hpcd);
#else
    HAL_PCD_SOFCallback(hpcd);
 8001714:	6878      	ldr	r0, [r7, #4]
 8001716:	f004 fa4a 	bl	8005bae <HAL_PCD_SOFCallback>
#endif /* USE_HAL_PCD_REGISTER_CALLBACKS */
  }

  if (__HAL_PCD_GET_FLAG(hpcd, USB_ISTR_ESOF))
 800171a:	687b      	ldr	r3, [r7, #4]
 800171c:	681b      	ldr	r3, [r3, #0]
 800171e:	4618      	mov	r0, r3
 8001720:	f002 fbdd 	bl	8003ede <USB_ReadInterrupts>
 8001724:	4603      	mov	r3, r0
 8001726:	f403 7380 	and.w	r3, r3, #256	; 0x100
 800172a:	f5b3 7f80 	cmp.w	r3, #256	; 0x100
 800172e:	d10b      	bne.n	8001748 <HAL_PCD_IRQHandler+0x214>
  {
    /* clear ESOF flag in ISTR */
    __HAL_PCD_CLEAR_FLAG(hpcd, USB_ISTR_ESOF);
 8001730:	687b      	ldr	r3, [r7, #4]
 8001732:	681b      	ldr	r3, [r3, #0]
 8001734:	f8b3 3044 	ldrh.w	r3, [r3, #68]	; 0x44
 8001738:	b29a      	uxth	r2, r3
 800173a:	687b      	ldr	r3, [r7, #4]
 800173c:	681b      	ldr	r3, [r3, #0]
 800173e:	f422 7280 	bic.w	r2, r2, #256	; 0x100
 8001742:	b292      	uxth	r2, r2
 8001744:	f8a3 2044 	strh.w	r2, [r3, #68]	; 0x44
  }
}
 8001748:	bf00      	nop
 800174a:	3708      	adds	r7, #8
 800174c:	46bd      	mov	sp, r7
 800174e:	bd80      	pop	{r7, pc}

08001750 <HAL_PCD_SetAddress>:
  * @param  hpcd PCD handle
  * @param  address new device address
  * @retval HAL status
  */
HAL_StatusTypeDef HAL_PCD_SetAddress(PCD_HandleTypeDef *hpcd, uint8_t address)
{
 8001750:	b580      	push	{r7, lr}
 8001752:	b082      	sub	sp, #8
 8001754:	af00      	add	r7, sp, #0
 8001756:	6078      	str	r0, [r7, #4]
 8001758:	460b      	mov	r3, r1
 800175a:	70fb      	strb	r3, [r7, #3]
  __HAL_LOCK(hpcd);
 800175c:	687b      	ldr	r3, [r7, #4]
 800175e:	f893 3228 	ldrb.w	r3, [r3, #552]	; 0x228
 8001762:	2b01      	cmp	r3, #1
 8001764:	d101      	bne.n	800176a <HAL_PCD_SetAddress+0x1a>
 8001766:	2302      	movs	r3, #2
 8001768:	e013      	b.n	8001792 <HAL_PCD_SetAddress+0x42>
 800176a:	687b      	ldr	r3, [r7, #4]
 800176c:	2201      	movs	r2, #1
 800176e:	f883 2228 	strb.w	r2, [r3, #552]	; 0x228
  hpcd->USB_Address = address;
 8001772:	687b      	ldr	r3, [r7, #4]
 8001774:	78fa      	ldrb	r2, [r7, #3]
 8001776:	f883 2024 	strb.w	r2, [r3, #36]	; 0x24
  (void)USB_SetDevAddress(hpcd->Instance, address);
 800177a:	687b      	ldr	r3, [r7, #4]
 800177c:	681b      	ldr	r3, [r3, #0]
 800177e:	78fa      	ldrb	r2, [r7, #3]
 8001780:	4611      	mov	r1, r2
 8001782:	4618      	mov	r0, r3
 8001784:	f002 fb84 	bl	8003e90 <USB_SetDevAddress>
  __HAL_UNLOCK(hpcd);
 8001788:	687b      	ldr	r3, [r7, #4]
 800178a:	2200      	movs	r2, #0
 800178c:	f883 2228 	strb.w	r2, [r3, #552]	; 0x228
  return HAL_OK;
 8001790:	2300      	movs	r3, #0
}
 8001792:	4618      	mov	r0, r3
 8001794:	3708      	adds	r7, #8
 8001796:	46bd      	mov	sp, r7
 8001798:	bd80      	pop	{r7, pc}

0800179a <HAL_PCD_EP_Open>:
  * @param  ep_mps endpoint max packet size
  * @param  ep_type endpoint type
  * @retval HAL status
  */
HAL_StatusTypeDef HAL_PCD_EP_Open(PCD_HandleTypeDef *hpcd, uint8_t ep_addr, uint16_t ep_mps, uint8_t ep_type)
{
 800179a:	b580      	push	{r7, lr}
 800179c:	b084      	sub	sp, #16
 800179e:	af00      	add	r7, sp, #0
 80017a0:	6078      	str	r0, [r7, #4]
 80017a2:	4608      	mov	r0, r1
 80017a4:	4611      	mov	r1, r2
 80017a6:	461a      	mov	r2, r3
 80017a8:	4603      	mov	r3, r0
 80017aa:	70fb      	strb	r3, [r7, #3]
 80017ac:	460b      	mov	r3, r1
 80017ae:	803b      	strh	r3, [r7, #0]
 80017b0:	4613      	mov	r3, r2
 80017b2:	70bb      	strb	r3, [r7, #2]
  HAL_StatusTypeDef  ret = HAL_OK;
 80017b4:	2300      	movs	r3, #0
 80017b6:	72fb      	strb	r3, [r7, #11]
  PCD_EPTypeDef *ep;

  if ((ep_addr & 0x80U) == 0x80U)
 80017b8:	f997 3003 	ldrsb.w	r3, [r7, #3]
 80017bc:	2b00      	cmp	r3, #0
 80017be:	da0b      	bge.n	80017d8 <HAL_PCD_EP_Open+0x3e>
  {
    ep = &hpcd->IN_ep[ep_addr & EP_ADDR_MSK];
 80017c0:	78fb      	ldrb	r3, [r7, #3]
 80017c2:	f003 0307 	and.w	r3, r3, #7
 80017c6:	015b      	lsls	r3, r3, #5
 80017c8:	3328      	adds	r3, #40	; 0x28
 80017ca:	687a      	ldr	r2, [r7, #4]
 80017cc:	4413      	add	r3, r2
 80017ce:	60fb      	str	r3, [r7, #12]
    ep->is_in = 1U;
 80017d0:	68fb      	ldr	r3, [r7, #12]
 80017d2:	2201      	movs	r2, #1
 80017d4:	705a      	strb	r2, [r3, #1]
 80017d6:	e00b      	b.n	80017f0 <HAL_PCD_EP_Open+0x56>
  }
  else
  {
    ep = &hpcd->OUT_ep[ep_addr & EP_ADDR_MSK];
 80017d8:	78fb      	ldrb	r3, [r7, #3]
 80017da:	f003 0307 	and.w	r3, r3, #7
 80017de:	015b      	lsls	r3, r3, #5
 80017e0:	f503 7394 	add.w	r3, r3, #296	; 0x128
 80017e4:	687a      	ldr	r2, [r7, #4]
 80017e6:	4413      	add	r3, r2
 80017e8:	60fb      	str	r3, [r7, #12]
    ep->is_in = 0U;
 80017ea:	68fb      	ldr	r3, [r7, #12]
 80017ec:	2200      	movs	r2, #0
 80017ee:	705a      	strb	r2, [r3, #1]
  }

  ep->num = ep_addr & EP_ADDR_MSK;
 80017f0:	78fb      	ldrb	r3, [r7, #3]
 80017f2:	f003 0307 	and.w	r3, r3, #7
 80017f6:	b2da      	uxtb	r2, r3
 80017f8:	68fb      	ldr	r3, [r7, #12]
 80017fa:	701a      	strb	r2, [r3, #0]
  ep->maxpacket = ep_mps;
 80017fc:	883a      	ldrh	r2, [r7, #0]
 80017fe:	68fb      	ldr	r3, [r7, #12]
 8001800:	611a      	str	r2, [r3, #16]
  ep->type = ep_type;
 8001802:	68fb      	ldr	r3, [r7, #12]
 8001804:	78ba      	ldrb	r2, [r7, #2]
 8001806:	70da      	strb	r2, [r3, #3]

  if (ep->is_in != 0U)
 8001808:	68fb      	ldr	r3, [r7, #12]
 800180a:	785b      	ldrb	r3, [r3, #1]
 800180c:	2b00      	cmp	r3, #0
 800180e:	d004      	beq.n	800181a <HAL_PCD_EP_Open+0x80>
  {
    /* Assign a Tx FIFO */
    ep->tx_fifo_num = ep->num;
 8001810:	68fb      	ldr	r3, [r7, #12]
 8001812:	781b      	ldrb	r3, [r3, #0]
 8001814:	b29a      	uxth	r2, r3
 8001816:	68fb      	ldr	r3, [r7, #12]
 8001818:	81da      	strh	r2, [r3, #14]
  }
  /* Set initial data PID. */
  if (ep_type == EP_TYPE_BULK)
 800181a:	78bb      	ldrb	r3, [r7, #2]
 800181c:	2b02      	cmp	r3, #2
 800181e:	d102      	bne.n	8001826 <HAL_PCD_EP_Open+0x8c>
  {
    ep->data_pid_start = 0U;
 8001820:	68fb      	ldr	r3, [r7, #12]
 8001822:	2200      	movs	r2, #0
 8001824:	711a      	strb	r2, [r3, #4]
  }

  __HAL_LOCK(hpcd);
 8001826:	687b      	ldr	r3, [r7, #4]
 8001828:	f893 3228 	ldrb.w	r3, [r3, #552]	; 0x228
 800182c:	2b01      	cmp	r3, #1
 800182e:	d101      	bne.n	8001834 <HAL_PCD_EP_Open+0x9a>
 8001830:	2302      	movs	r3, #2
 8001832:	e00e      	b.n	8001852 <HAL_PCD_EP_Open+0xb8>
 8001834:	687b      	ldr	r3, [r7, #4]
 8001836:	2201      	movs	r2, #1
 8001838:	f883 2228 	strb.w	r2, [r3, #552]	; 0x228
  (void)USB_ActivateEndpoint(hpcd->Instance, ep);
 800183c:	687b      	ldr	r3, [r7, #4]
 800183e:	681b      	ldr	r3, [r3, #0]
 8001840:	68f9      	ldr	r1, [r7, #12]
 8001842:	4618      	mov	r0, r3
 8001844:	f001 fb12 	bl	8002e6c <USB_ActivateEndpoint>
  __HAL_UNLOCK(hpcd);
 8001848:	687b      	ldr	r3, [r7, #4]
 800184a:	2200      	movs	r2, #0
 800184c:	f883 2228 	strb.w	r2, [r3, #552]	; 0x228

  return ret;
 8001850:	7afb      	ldrb	r3, [r7, #11]
}
 8001852:	4618      	mov	r0, r3
 8001854:	3710      	adds	r7, #16
 8001856:	46bd      	mov	sp, r7
 8001858:	bd80      	pop	{r7, pc}

0800185a <HAL_PCD_EP_Close>:
  * @param  hpcd PCD handle
  * @param  ep_addr endpoint address
  * @retval HAL status
  */
HAL_StatusTypeDef HAL_PCD_EP_Close(PCD_HandleTypeDef *hpcd, uint8_t ep_addr)
{
 800185a:	b580      	push	{r7, lr}
 800185c:	b084      	sub	sp, #16
 800185e:	af00      	add	r7, sp, #0
 8001860:	6078      	str	r0, [r7, #4]
 8001862:	460b      	mov	r3, r1
 8001864:	70fb      	strb	r3, [r7, #3]
  PCD_EPTypeDef *ep;

  if ((ep_addr & 0x80U) == 0x80U)
 8001866:	f997 3003 	ldrsb.w	r3, [r7, #3]
 800186a:	2b00      	cmp	r3, #0
 800186c:	da0b      	bge.n	8001886 <HAL_PCD_EP_Close+0x2c>
  {
    ep = &hpcd->IN_ep[ep_addr & EP_ADDR_MSK];
 800186e:	78fb      	ldrb	r3, [r7, #3]
 8001870:	f003 0307 	and.w	r3, r3, #7
 8001874:	015b      	lsls	r3, r3, #5
 8001876:	3328      	adds	r3, #40	; 0x28
 8001878:	687a      	ldr	r2, [r7, #4]
 800187a:	4413      	add	r3, r2
 800187c:	60fb      	str	r3, [r7, #12]
    ep->is_in = 1U;
 800187e:	68fb      	ldr	r3, [r7, #12]
 8001880:	2201      	movs	r2, #1
 8001882:	705a      	strb	r2, [r3, #1]
 8001884:	e00b      	b.n	800189e <HAL_PCD_EP_Close+0x44>
  }
  else
  {
    ep = &hpcd->OUT_ep[ep_addr & EP_ADDR_MSK];
 8001886:	78fb      	ldrb	r3, [r7, #3]
 8001888:	f003 0307 	and.w	r3, r3, #7
 800188c:	015b      	lsls	r3, r3, #5
 800188e:	f503 7394 	add.w	r3, r3, #296	; 0x128
 8001892:	687a      	ldr	r2, [r7, #4]
 8001894:	4413      	add	r3, r2
 8001896:	60fb      	str	r3, [r7, #12]
    ep->is_in = 0U;
 8001898:	68fb      	ldr	r3, [r7, #12]
 800189a:	2200      	movs	r2, #0
 800189c:	705a      	strb	r2, [r3, #1]
  }
  ep->num   = ep_addr & EP_ADDR_MSK;
 800189e:	78fb      	ldrb	r3, [r7, #3]
 80018a0:	f003 0307 	and.w	r3, r3, #7
 80018a4:	b2da      	uxtb	r2, r3
 80018a6:	68fb      	ldr	r3, [r7, #12]
 80018a8:	701a      	strb	r2, [r3, #0]

  __HAL_LOCK(hpcd);
 80018aa:	687b      	ldr	r3, [r7, #4]
 80018ac:	f893 3228 	ldrb.w	r3, [r3, #552]	; 0x228
 80018b0:	2b01      	cmp	r3, #1
 80018b2:	d101      	bne.n	80018b8 <HAL_PCD_EP_Close+0x5e>
 80018b4:	2302      	movs	r3, #2
 80018b6:	e00e      	b.n	80018d6 <HAL_PCD_EP_Close+0x7c>
 80018b8:	687b      	ldr	r3, [r7, #4]
 80018ba:	2201      	movs	r2, #1
 80018bc:	f883 2228 	strb.w	r2, [r3, #552]	; 0x228
  (void)USB_DeactivateEndpoint(hpcd->Instance, ep);
 80018c0:	687b      	ldr	r3, [r7, #4]
 80018c2:	681b      	ldr	r3, [r3, #0]
 80018c4:	68f9      	ldr	r1, [r7, #12]
 80018c6:	4618      	mov	r0, r3
 80018c8:	f001 fdbe 	bl	8003448 <USB_DeactivateEndpoint>
  __HAL_UNLOCK(hpcd);
 80018cc:	687b      	ldr	r3, [r7, #4]
 80018ce:	2200      	movs	r2, #0
 80018d0:	f883 2228 	strb.w	r2, [r3, #552]	; 0x228
  return HAL_OK;
 80018d4:	2300      	movs	r3, #0
}
 80018d6:	4618      	mov	r0, r3
 80018d8:	3710      	adds	r7, #16
 80018da:	46bd      	mov	sp, r7
 80018dc:	bd80      	pop	{r7, pc}

080018de <HAL_PCD_EP_Receive>:
  * @param  pBuf pointer to the reception buffer
  * @param  len amount of data to be received
  * @retval HAL status
  */
HAL_StatusTypeDef HAL_PCD_EP_Receive(PCD_HandleTypeDef *hpcd, uint8_t ep_addr, uint8_t *pBuf, uint32_t len)
{
 80018de:	b580      	push	{r7, lr}
 80018e0:	b086      	sub	sp, #24
 80018e2:	af00      	add	r7, sp, #0
 80018e4:	60f8      	str	r0, [r7, #12]
 80018e6:	607a      	str	r2, [r7, #4]
 80018e8:	603b      	str	r3, [r7, #0]
 80018ea:	460b      	mov	r3, r1
 80018ec:	72fb      	strb	r3, [r7, #11]
  PCD_EPTypeDef *ep;

  ep = &hpcd->OUT_ep[ep_addr & EP_ADDR_MSK];
 80018ee:	7afb      	ldrb	r3, [r7, #11]
 80018f0:	f003 0307 	and.w	r3, r3, #7
 80018f4:	015b      	lsls	r3, r3, #5
 80018f6:	f503 7394 	add.w	r3, r3, #296	; 0x128
 80018fa:	68fa      	ldr	r2, [r7, #12]
 80018fc:	4413      	add	r3, r2
 80018fe:	617b      	str	r3, [r7, #20]

  /*setup and start the Xfer */
  ep->xfer_buff = pBuf;
 8001900:	697b      	ldr	r3, [r7, #20]
 8001902:	687a      	ldr	r2, [r7, #4]
 8001904:	615a      	str	r2, [r3, #20]
  ep->xfer_len = len;
 8001906:	697b      	ldr	r3, [r7, #20]
 8001908:	683a      	ldr	r2, [r7, #0]
 800190a:	619a      	str	r2, [r3, #24]
  ep->xfer_count = 0U;
 800190c:	697b      	ldr	r3, [r7, #20]
 800190e:	2200      	movs	r2, #0
 8001910:	61da      	str	r2, [r3, #28]
  ep->is_in = 0U;
 8001912:	697b      	ldr	r3, [r7, #20]
 8001914:	2200      	movs	r2, #0
 8001916:	705a      	strb	r2, [r3, #1]
  ep->num = ep_addr & EP_ADDR_MSK;
 8001918:	7afb      	ldrb	r3, [r7, #11]
 800191a:	f003 0307 	and.w	r3, r3, #7
 800191e:	b2da      	uxtb	r2, r3
 8001920:	697b      	ldr	r3, [r7, #20]
 8001922:	701a      	strb	r2, [r3, #0]

  if ((ep_addr & EP_ADDR_MSK) == 0U)
 8001924:	7afb      	ldrb	r3, [r7, #11]
 8001926:	f003 0307 	and.w	r3, r3, #7
 800192a:	2b00      	cmp	r3, #0
 800192c:	d106      	bne.n	800193c <HAL_PCD_EP_Receive+0x5e>
  {
    (void)USB_EP0StartXfer(hpcd->Instance, ep);
 800192e:	68fb      	ldr	r3, [r7, #12]
 8001930:	681b      	ldr	r3, [r3, #0]
 8001932:	6979      	ldr	r1, [r7, #20]
 8001934:	4618      	mov	r0, r3
 8001936:	f001 ff1d 	bl	8003774 <USB_EPStartXfer>
 800193a:	e005      	b.n	8001948 <HAL_PCD_EP_Receive+0x6a>
  }
  else
  {
    (void)USB_EPStartXfer(hpcd->Instance, ep);
 800193c:	68fb      	ldr	r3, [r7, #12]
 800193e:	681b      	ldr	r3, [r3, #0]
 8001940:	6979      	ldr	r1, [r7, #20]
 8001942:	4618      	mov	r0, r3
 8001944:	f001 ff16 	bl	8003774 <USB_EPStartXfer>
  }

  return HAL_OK;
 8001948:	2300      	movs	r3, #0
}
 800194a:	4618      	mov	r0, r3
 800194c:	3718      	adds	r7, #24
 800194e:	46bd      	mov	sp, r7
 8001950:	bd80      	pop	{r7, pc}

08001952 <HAL_PCD_EP_GetRxCount>:
  * @param  hpcd PCD handle
  * @param  ep_addr endpoint address
  * @retval Data Size
  */
uint32_t HAL_PCD_EP_GetRxCount(PCD_HandleTypeDef *hpcd, uint8_t ep_addr)
{
 8001952:	b480      	push	{r7}
 8001954:	b083      	sub	sp, #12
 8001956:	af00      	add	r7, sp, #0
 8001958:	6078      	str	r0, [r7, #4]
 800195a:	460b      	mov	r3, r1
 800195c:	70fb      	strb	r3, [r7, #3]
  return hpcd->OUT_ep[ep_addr & EP_ADDR_MSK].xfer_count;
 800195e:	78fb      	ldrb	r3, [r7, #3]
 8001960:	f003 0307 	and.w	r3, r3, #7
 8001964:	687a      	ldr	r2, [r7, #4]
 8001966:	330a      	adds	r3, #10
 8001968:	015b      	lsls	r3, r3, #5
 800196a:	4413      	add	r3, r2
 800196c:	3304      	adds	r3, #4
 800196e:	681b      	ldr	r3, [r3, #0]
}
 8001970:	4618      	mov	r0, r3
 8001972:	370c      	adds	r7, #12
 8001974:	46bd      	mov	sp, r7
 8001976:	bc80      	pop	{r7}
 8001978:	4770      	bx	lr

0800197a <HAL_PCD_EP_Transmit>:
  * @param  pBuf pointer to the transmission buffer
  * @param  len amount of data to be sent
  * @retval HAL status
  */
HAL_StatusTypeDef HAL_PCD_EP_Transmit(PCD_HandleTypeDef *hpcd, uint8_t ep_addr, uint8_t *pBuf, uint32_t len)
{
 800197a:	b580      	push	{r7, lr}
 800197c:	b086      	sub	sp, #24
 800197e:	af00      	add	r7, sp, #0
 8001980:	60f8      	str	r0, [r7, #12]
 8001982:	607a      	str	r2, [r7, #4]
 8001984:	603b      	str	r3, [r7, #0]
 8001986:	460b      	mov	r3, r1
 8001988:	72fb      	strb	r3, [r7, #11]
  PCD_EPTypeDef *ep;

  ep = &hpcd->IN_ep[ep_addr & EP_ADDR_MSK];
 800198a:	7afb      	ldrb	r3, [r7, #11]
 800198c:	f003 0307 	and.w	r3, r3, #7
 8001990:	015b      	lsls	r3, r3, #5
 8001992:	3328      	adds	r3, #40	; 0x28
 8001994:	68fa      	ldr	r2, [r7, #12]
 8001996:	4413      	add	r3, r2
 8001998:	617b      	str	r3, [r7, #20]

  /*setup and start the Xfer */
  ep->xfer_buff = pBuf;
 800199a:	697b      	ldr	r3, [r7, #20]
 800199c:	687a      	ldr	r2, [r7, #4]
 800199e:	615a      	str	r2, [r3, #20]
  ep->xfer_len = len;
 80019a0:	697b      	ldr	r3, [r7, #20]
 80019a2:	683a      	ldr	r2, [r7, #0]
 80019a4:	619a      	str	r2, [r3, #24]
  ep->xfer_count = 0U;
 80019a6:	697b      	ldr	r3, [r7, #20]
 80019a8:	2200      	movs	r2, #0
 80019aa:	61da      	str	r2, [r3, #28]
  ep->is_in = 1U;
 80019ac:	697b      	ldr	r3, [r7, #20]
 80019ae:	2201      	movs	r2, #1
 80019b0:	705a      	strb	r2, [r3, #1]
  ep->num = ep_addr & EP_ADDR_MSK;
 80019b2:	7afb      	ldrb	r3, [r7, #11]
 80019b4:	f003 0307 	and.w	r3, r3, #7
 80019b8:	b2da      	uxtb	r2, r3
 80019ba:	697b      	ldr	r3, [r7, #20]
 80019bc:	701a      	strb	r2, [r3, #0]

  if ((ep_addr & EP_ADDR_MSK) == 0U)
 80019be:	7afb      	ldrb	r3, [r7, #11]
 80019c0:	f003 0307 	and.w	r3, r3, #7
 80019c4:	2b00      	cmp	r3, #0
 80019c6:	d106      	bne.n	80019d6 <HAL_PCD_EP_Transmit+0x5c>
  {
    (void)USB_EP0StartXfer(hpcd->Instance, ep);
 80019c8:	68fb      	ldr	r3, [r7, #12]
 80019ca:	681b      	ldr	r3, [r3, #0]
 80019cc:	6979      	ldr	r1, [r7, #20]
 80019ce:	4618      	mov	r0, r3
 80019d0:	f001 fed0 	bl	8003774 <USB_EPStartXfer>
 80019d4:	e005      	b.n	80019e2 <HAL_PCD_EP_Transmit+0x68>
  }
  else
  {
    (void)USB_EPStartXfer(hpcd->Instance, ep);
 80019d6:	68fb      	ldr	r3, [r7, #12]
 80019d8:	681b      	ldr	r3, [r3, #0]
 80019da:	6979      	ldr	r1, [r7, #20]
 80019dc:	4618      	mov	r0, r3
 80019de:	f001 fec9 	bl	8003774 <USB_EPStartXfer>
  }

  return HAL_OK;
 80019e2:	2300      	movs	r3, #0
}
 80019e4:	4618      	mov	r0, r3
 80019e6:	3718      	adds	r7, #24
 80019e8:	46bd      	mov	sp, r7
 80019ea:	bd80      	pop	{r7, pc}

080019ec <HAL_PCD_EP_SetStall>:
  * @param  hpcd PCD handle
  * @param  ep_addr endpoint address
  * @retval HAL status
  */
HAL_StatusTypeDef HAL_PCD_EP_SetStall(PCD_HandleTypeDef *hpcd, uint8_t ep_addr)
{
 80019ec:	b580      	push	{r7, lr}
 80019ee:	b084      	sub	sp, #16
 80019f0:	af00      	add	r7, sp, #0
 80019f2:	6078      	str	r0, [r7, #4]
 80019f4:	460b      	mov	r3, r1
 80019f6:	70fb      	strb	r3, [r7, #3]
  PCD_EPTypeDef *ep;

  if (((uint32_t)ep_addr & EP_ADDR_MSK) > hpcd->Init.dev_endpoints)
 80019f8:	78fb      	ldrb	r3, [r7, #3]
 80019fa:	f003 0207 	and.w	r2, r3, #7
 80019fe:	687b      	ldr	r3, [r7, #4]
 8001a00:	685b      	ldr	r3, [r3, #4]
 8001a02:	429a      	cmp	r2, r3
 8001a04:	d901      	bls.n	8001a0a <HAL_PCD_EP_SetStall+0x1e>
  {
    return HAL_ERROR;
 8001a06:	2301      	movs	r3, #1
 8001a08:	e046      	b.n	8001a98 <HAL_PCD_EP_SetStall+0xac>
  }

  if ((0x80U & ep_addr) == 0x80U)
 8001a0a:	f997 3003 	ldrsb.w	r3, [r7, #3]
 8001a0e:	2b00      	cmp	r3, #0
 8001a10:	da0b      	bge.n	8001a2a <HAL_PCD_EP_SetStall+0x3e>
  {
    ep = &hpcd->IN_ep[ep_addr & EP_ADDR_MSK];
 8001a12:	78fb      	ldrb	r3, [r7, #3]
 8001a14:	f003 0307 	and.w	r3, r3, #7
 8001a18:	015b      	lsls	r3, r3, #5
 8001a1a:	3328      	adds	r3, #40	; 0x28
 8001a1c:	687a      	ldr	r2, [r7, #4]
 8001a1e:	4413      	add	r3, r2
 8001a20:	60fb      	str	r3, [r7, #12]
    ep->is_in = 1U;
 8001a22:	68fb      	ldr	r3, [r7, #12]
 8001a24:	2201      	movs	r2, #1
 8001a26:	705a      	strb	r2, [r3, #1]
 8001a28:	e009      	b.n	8001a3e <HAL_PCD_EP_SetStall+0x52>
  }
  else
  {
    ep = &hpcd->OUT_ep[ep_addr];
 8001a2a:	78fb      	ldrb	r3, [r7, #3]
 8001a2c:	015b      	lsls	r3, r3, #5
 8001a2e:	f503 7394 	add.w	r3, r3, #296	; 0x128
 8001a32:	687a      	ldr	r2, [r7, #4]
 8001a34:	4413      	add	r3, r2
 8001a36:	60fb      	str	r3, [r7, #12]
    ep->is_in = 0U;
 8001a38:	68fb      	ldr	r3, [r7, #12]
 8001a3a:	2200      	movs	r2, #0
 8001a3c:	705a      	strb	r2, [r3, #1]
  }

  ep->is_stall = 1U;
 8001a3e:	68fb      	ldr	r3, [r7, #12]
 8001a40:	2201      	movs	r2, #1
 8001a42:	709a      	strb	r2, [r3, #2]
  ep->num = ep_addr & EP_ADDR_MSK;
 8001a44:	78fb      	ldrb	r3, [r7, #3]
 8001a46:	f003 0307 	and.w	r3, r3, #7
 8001a4a:	b2da      	uxtb	r2, r3
 8001a4c:	68fb      	ldr	r3, [r7, #12]
 8001a4e:	701a      	strb	r2, [r3, #0]

  __HAL_LOCK(hpcd);
 8001a50:	687b      	ldr	r3, [r7, #4]
 8001a52:	f893 3228 	ldrb.w	r3, [r3, #552]	; 0x228
 8001a56:	2b01      	cmp	r3, #1
 8001a58:	d101      	bne.n	8001a5e <HAL_PCD_EP_SetStall+0x72>
 8001a5a:	2302      	movs	r3, #2
 8001a5c:	e01c      	b.n	8001a98 <HAL_PCD_EP_SetStall+0xac>
 8001a5e:	687b      	ldr	r3, [r7, #4]
 8001a60:	2201      	movs	r2, #1
 8001a62:	f883 2228 	strb.w	r2, [r3, #552]	; 0x228

  (void)USB_EPSetStall(hpcd->Instance, ep);
 8001a66:	687b      	ldr	r3, [r7, #4]
 8001a68:	681b      	ldr	r3, [r3, #0]
 8001a6a:	68f9      	ldr	r1, [r7, #12]
 8001a6c:	4618      	mov	r0, r3
 8001a6e:	f002 f939 	bl	8003ce4 <USB_EPSetStall>
  if ((ep_addr & EP_ADDR_MSK) == 0U)
 8001a72:	78fb      	ldrb	r3, [r7, #3]
 8001a74:	f003 0307 	and.w	r3, r3, #7
 8001a78:	2b00      	cmp	r3, #0
 8001a7a:	d108      	bne.n	8001a8e <HAL_PCD_EP_SetStall+0xa2>
  {
    (void)USB_EP0_OutStart(hpcd->Instance, (uint8_t *)hpcd->Setup);
 8001a7c:	687b      	ldr	r3, [r7, #4]
 8001a7e:	681a      	ldr	r2, [r3, #0]
 8001a80:	687b      	ldr	r3, [r7, #4]
 8001a82:	f503 730c 	add.w	r3, r3, #560	; 0x230
 8001a86:	4619      	mov	r1, r3
 8001a88:	4610      	mov	r0, r2
 8001a8a:	f002 fa37 	bl	8003efc <USB_EP0_OutStart>
  }
  __HAL_UNLOCK(hpcd);
 8001a8e:	687b      	ldr	r3, [r7, #4]
 8001a90:	2200      	movs	r2, #0
 8001a92:	f883 2228 	strb.w	r2, [r3, #552]	; 0x228

  return HAL_OK;
 8001a96:	2300      	movs	r3, #0
}
 8001a98:	4618      	mov	r0, r3
 8001a9a:	3710      	adds	r7, #16
 8001a9c:	46bd      	mov	sp, r7
 8001a9e:	bd80      	pop	{r7, pc}

08001aa0 <HAL_PCD_EP_ClrStall>:
  * @param  hpcd PCD handle
  * @param  ep_addr endpoint address
  * @retval HAL status
  */
HAL_StatusTypeDef HAL_PCD_EP_ClrStall(PCD_HandleTypeDef *hpcd, uint8_t ep_addr)
{
 8001aa0:	b580      	push	{r7, lr}
 8001aa2:	b084      	sub	sp, #16
 8001aa4:	af00      	add	r7, sp, #0
 8001aa6:	6078      	str	r0, [r7, #4]
 8001aa8:	460b      	mov	r3, r1
 8001aaa:	70fb      	strb	r3, [r7, #3]
  PCD_EPTypeDef *ep;

  if (((uint32_t)ep_addr & 0x0FU) > hpcd->Init.dev_endpoints)
 8001aac:	78fb      	ldrb	r3, [r7, #3]
 8001aae:	f003 020f 	and.w	r2, r3, #15
 8001ab2:	687b      	ldr	r3, [r7, #4]
 8001ab4:	685b      	ldr	r3, [r3, #4]
 8001ab6:	429a      	cmp	r2, r3
 8001ab8:	d901      	bls.n	8001abe <HAL_PCD_EP_ClrStall+0x1e>
  {
    return HAL_ERROR;
 8001aba:	2301      	movs	r3, #1
 8001abc:	e03a      	b.n	8001b34 <HAL_PCD_EP_ClrStall+0x94>
  }

  if ((0x80U & ep_addr) == 0x80U)
 8001abe:	f997 3003 	ldrsb.w	r3, [r7, #3]
 8001ac2:	2b00      	cmp	r3, #0
 8001ac4:	da0b      	bge.n	8001ade <HAL_PCD_EP_ClrStall+0x3e>
  {
    ep = &hpcd->IN_ep[ep_addr & EP_ADDR_MSK];
 8001ac6:	78fb      	ldrb	r3, [r7, #3]
 8001ac8:	f003 0307 	and.w	r3, r3, #7
 8001acc:	015b      	lsls	r3, r3, #5
 8001ace:	3328      	adds	r3, #40	; 0x28
 8001ad0:	687a      	ldr	r2, [r7, #4]
 8001ad2:	4413      	add	r3, r2
 8001ad4:	60fb      	str	r3, [r7, #12]
    ep->is_in = 1U;
 8001ad6:	68fb      	ldr	r3, [r7, #12]
 8001ad8:	2201      	movs	r2, #1
 8001ada:	705a      	strb	r2, [r3, #1]
 8001adc:	e00b      	b.n	8001af6 <HAL_PCD_EP_ClrStall+0x56>
  }
  else
  {
    ep = &hpcd->OUT_ep[ep_addr & EP_ADDR_MSK];
 8001ade:	78fb      	ldrb	r3, [r7, #3]
 8001ae0:	f003 0307 	and.w	r3, r3, #7
 8001ae4:	015b      	lsls	r3, r3, #5
 8001ae6:	f503 7394 	add.w	r3, r3, #296	; 0x128
 8001aea:	687a      	ldr	r2, [r7, #4]
 8001aec:	4413      	add	r3, r2
 8001aee:	60fb      	str	r3, [r7, #12]
    ep->is_in = 0U;
 8001af0:	68fb      	ldr	r3, [r7, #12]
 8001af2:	2200      	movs	r2, #0
 8001af4:	705a      	strb	r2, [r3, #1]
  }

  ep->is_stall = 0U;
 8001af6:	68fb      	ldr	r3, [r7, #12]
 8001af8:	2200      	movs	r2, #0
 8001afa:	709a      	strb	r2, [r3, #2]
  ep->num = ep_addr & EP_ADDR_MSK;
 8001afc:	78fb      	ldrb	r3, [r7, #3]
 8001afe:	f003 0307 	and.w	r3, r3, #7
 8001b02:	b2da      	uxtb	r2, r3
 8001b04:	68fb      	ldr	r3, [r7, #12]
 8001b06:	701a      	strb	r2, [r3, #0]

  __HAL_LOCK(hpcd);
 8001b08:	687b      	ldr	r3, [r7, #4]
 8001b0a:	f893 3228 	ldrb.w	r3, [r3, #552]	; 0x228
 8001b0e:	2b01      	cmp	r3, #1
 8001b10:	d101      	bne.n	8001b16 <HAL_PCD_EP_ClrStall+0x76>
 8001b12:	2302      	movs	r3, #2
 8001b14:	e00e      	b.n	8001b34 <HAL_PCD_EP_ClrStall+0x94>
 8001b16:	687b      	ldr	r3, [r7, #4]
 8001b18:	2201      	movs	r2, #1
 8001b1a:	f883 2228 	strb.w	r2, [r3, #552]	; 0x228
  (void)USB_EPClearStall(hpcd->Instance, ep);
 8001b1e:	687b      	ldr	r3, [r7, #4]
 8001b20:	681b      	ldr	r3, [r3, #0]
 8001b22:	68f9      	ldr	r1, [r7, #12]
 8001b24:	4618      	mov	r0, r3
 8001b26:	f002 f91f 	bl	8003d68 <USB_EPClearStall>
  __HAL_UNLOCK(hpcd);
 8001b2a:	687b      	ldr	r3, [r7, #4]
 8001b2c:	2200      	movs	r2, #0
 8001b2e:	f883 2228 	strb.w	r2, [r3, #552]	; 0x228

  return HAL_OK;
 8001b32:	2300      	movs	r3, #0
}
 8001b34:	4618      	mov	r0, r3
 8001b36:	3710      	adds	r7, #16
 8001b38:	46bd      	mov	sp, r7
 8001b3a:	bd80      	pop	{r7, pc}

08001b3c <PCD_EP_ISR_Handler>:
  * @brief  This function handles PCD Endpoint interrupt request.
  * @param  hpcd PCD handle
  * @retval HAL status
  */
static HAL_StatusTypeDef PCD_EP_ISR_Handler(PCD_HandleTypeDef *hpcd)
{
 8001b3c:	b590      	push	{r4, r7, lr}
 8001b3e:	b089      	sub	sp, #36	; 0x24
 8001b40:	af00      	add	r7, sp, #0
 8001b42:	6078      	str	r0, [r7, #4]
  uint16_t wIstr;
  uint16_t wEPVal;
  uint8_t epindex;

  /* stay in loop while pending interrupts */
  while ((hpcd->Instance->ISTR & USB_ISTR_CTR) != 0U)
 8001b44:	e282      	b.n	800204c <PCD_EP_ISR_Handler+0x510>
  {
    wIstr = hpcd->Instance->ISTR;
 8001b46:	687b      	ldr	r3, [r7, #4]
 8001b48:	681b      	ldr	r3, [r3, #0]
 8001b4a:	f8b3 3044 	ldrh.w	r3, [r3, #68]	; 0x44
 8001b4e:	82fb      	strh	r3, [r7, #22]
    /* extract highest priority endpoint number */
    epindex = (uint8_t)(wIstr & USB_ISTR_EP_ID);
 8001b50:	8afb      	ldrh	r3, [r7, #22]
 8001b52:	b2db      	uxtb	r3, r3
 8001b54:	f003 030f 	and.w	r3, r3, #15
 8001b58:	757b      	strb	r3, [r7, #21]

    if (epindex == 0U)
 8001b5a:	7d7b      	ldrb	r3, [r7, #21]
 8001b5c:	2b00      	cmp	r3, #0
 8001b5e:	f040 8142 	bne.w	8001de6 <PCD_EP_ISR_Handler+0x2aa>
    {
      /* Decode and service control endpoint interrupt */

      /* DIR bit = origin of the interrupt */
      if ((wIstr & USB_ISTR_DIR) == 0U)
 8001b62:	8afb      	ldrh	r3, [r7, #22]
 8001b64:	f003 0310 	and.w	r3, r3, #16
 8001b68:	2b00      	cmp	r3, #0
 8001b6a:	d151      	bne.n	8001c10 <PCD_EP_ISR_Handler+0xd4>
      {
        /* DIR = 0 */

        /* DIR = 0      => IN  int */
        /* DIR = 0 implies that (EP_CTR_TX = 1) always  */
        PCD_CLEAR_TX_EP_CTR(hpcd->Instance, PCD_ENDP0);
 8001b6c:	687b      	ldr	r3, [r7, #4]
 8001b6e:	681b      	ldr	r3, [r3, #0]
 8001b70:	881b      	ldrh	r3, [r3, #0]
 8001b72:	b29b      	uxth	r3, r3
 8001b74:	f423 43e1 	bic.w	r3, r3, #28800	; 0x7080
 8001b78:	f023 0370 	bic.w	r3, r3, #112	; 0x70
 8001b7c:	b29c      	uxth	r4, r3
 8001b7e:	687b      	ldr	r3, [r7, #4]
 8001b80:	681a      	ldr	r2, [r3, #0]
 8001b82:	ea6f 4344 	mvn.w	r3, r4, lsl #17
 8001b86:	ea6f 4353 	mvn.w	r3, r3, lsr #17
 8001b8a:	b29b      	uxth	r3, r3
 8001b8c:	8013      	strh	r3, [r2, #0]
        ep = &hpcd->IN_ep[0];
 8001b8e:	687b      	ldr	r3, [r7, #4]
 8001b90:	3328      	adds	r3, #40	; 0x28
 8001b92:	60fb      	str	r3, [r7, #12]

        ep->xfer_count = PCD_GET_EP_TX_CNT(hpcd->Instance, ep->num);
 8001b94:	687b      	ldr	r3, [r7, #4]
 8001b96:	681b      	ldr	r3, [r3, #0]
 8001b98:	f8b3 3050 	ldrh.w	r3, [r3, #80]	; 0x50
 8001b9c:	b29b      	uxth	r3, r3
 8001b9e:	461a      	mov	r2, r3
 8001ba0:	68fb      	ldr	r3, [r7, #12]
 8001ba2:	781b      	ldrb	r3, [r3, #0]
 8001ba4:	00db      	lsls	r3, r3, #3
 8001ba6:	4413      	add	r3, r2
 8001ba8:	3302      	adds	r3, #2
 8001baa:	005b      	lsls	r3, r3, #1
 8001bac:	687a      	ldr	r2, [r7, #4]
 8001bae:	6812      	ldr	r2, [r2, #0]
 8001bb0:	4413      	add	r3, r2
 8001bb2:	f503 6380 	add.w	r3, r3, #1024	; 0x400
 8001bb6:	881b      	ldrh	r3, [r3, #0]
 8001bb8:	f3c3 0209 	ubfx	r2, r3, #0, #10
 8001bbc:	68fb      	ldr	r3, [r7, #12]
 8001bbe:	61da      	str	r2, [r3, #28]
        ep->xfer_buff += ep->xfer_count;
 8001bc0:	68fb      	ldr	r3, [r7, #12]
 8001bc2:	695a      	ldr	r2, [r3, #20]
 8001bc4:	68fb      	ldr	r3, [r7, #12]
 8001bc6:	69db      	ldr	r3, [r3, #28]
 8001bc8:	441a      	add	r2, r3
 8001bca:	68fb      	ldr	r3, [r7, #12]
 8001bcc:	615a      	str	r2, [r3, #20]

        /* TX COMPLETE */
#if (USE_HAL_PCD_REGISTER_CALLBACKS == 1U)
        hpcd->DataInStageCallback(hpcd, 0U);
#else
        HAL_PCD_DataInStageCallback(hpcd, 0U);
 8001bce:	2100      	movs	r1, #0
 8001bd0:	6878      	ldr	r0, [r7, #4]
 8001bd2:	f003 ffd5 	bl	8005b80 <HAL_PCD_DataInStageCallback>
#endif /* USE_HAL_PCD_REGISTER_CALLBACKS */

        if ((hpcd->USB_Address > 0U) && (ep->xfer_len == 0U))
 8001bd6:	687b      	ldr	r3, [r7, #4]
 8001bd8:	f893 3024 	ldrb.w	r3, [r3, #36]	; 0x24
 8001bdc:	b2db      	uxtb	r3, r3
 8001bde:	2b00      	cmp	r3, #0
 8001be0:	f000 8234 	beq.w	800204c <PCD_EP_ISR_Handler+0x510>
 8001be4:	68fb      	ldr	r3, [r7, #12]
 8001be6:	699b      	ldr	r3, [r3, #24]
 8001be8:	2b00      	cmp	r3, #0
 8001bea:	f040 822f 	bne.w	800204c <PCD_EP_ISR_Handler+0x510>
        {
          hpcd->Instance->DADDR = ((uint16_t)hpcd->USB_Address | USB_DADDR_EF);
 8001bee:	687b      	ldr	r3, [r7, #4]
 8001bf0:	f893 3024 	ldrb.w	r3, [r3, #36]	; 0x24
 8001bf4:	b2db      	uxtb	r3, r3
 8001bf6:	f063 037f 	orn	r3, r3, #127	; 0x7f
 8001bfa:	b2da      	uxtb	r2, r3
 8001bfc:	687b      	ldr	r3, [r7, #4]
 8001bfe:	681b      	ldr	r3, [r3, #0]
 8001c00:	b292      	uxth	r2, r2
 8001c02:	f8a3 204c 	strh.w	r2, [r3, #76]	; 0x4c
          hpcd->USB_Address = 0U;
 8001c06:	687b      	ldr	r3, [r7, #4]
 8001c08:	2200      	movs	r2, #0
 8001c0a:	f883 2024 	strb.w	r2, [r3, #36]	; 0x24
 8001c0e:	e21d      	b.n	800204c <PCD_EP_ISR_Handler+0x510>
      {
        /* DIR = 1 */

        /* DIR = 1 & CTR_RX       => SETUP or OUT int */
        /* DIR = 1 & (CTR_TX | CTR_RX) => 2 int pending */
        ep = &hpcd->OUT_ep[0];
 8001c10:	687b      	ldr	r3, [r7, #4]
 8001c12:	f503 7394 	add.w	r3, r3, #296	; 0x128
 8001c16:	60fb      	str	r3, [r7, #12]
        wEPVal = PCD_GET_ENDPOINT(hpcd->Instance, PCD_ENDP0);
 8001c18:	687b      	ldr	r3, [r7, #4]
 8001c1a:	681b      	ldr	r3, [r3, #0]
 8001c1c:	881b      	ldrh	r3, [r3, #0]
 8001c1e:	827b      	strh	r3, [r7, #18]

        if ((wEPVal & USB_EP_SETUP) != 0U)
 8001c20:	8a7b      	ldrh	r3, [r7, #18]
 8001c22:	f403 6300 	and.w	r3, r3, #2048	; 0x800
 8001c26:	2b00      	cmp	r3, #0
 8001c28:	d033      	beq.n	8001c92 <PCD_EP_ISR_Handler+0x156>
        {
          /* Get SETUP Packet*/
          ep->xfer_count = PCD_GET_EP_RX_CNT(hpcd->Instance, ep->num);
 8001c2a:	687b      	ldr	r3, [r7, #4]
 8001c2c:	681b      	ldr	r3, [r3, #0]
 8001c2e:	f8b3 3050 	ldrh.w	r3, [r3, #80]	; 0x50
 8001c32:	b29b      	uxth	r3, r3
 8001c34:	461a      	mov	r2, r3
 8001c36:	68fb      	ldr	r3, [r7, #12]
 8001c38:	781b      	ldrb	r3, [r3, #0]
 8001c3a:	00db      	lsls	r3, r3, #3
 8001c3c:	4413      	add	r3, r2
 8001c3e:	3306      	adds	r3, #6
 8001c40:	005b      	lsls	r3, r3, #1
 8001c42:	687a      	ldr	r2, [r7, #4]
 8001c44:	6812      	ldr	r2, [r2, #0]
 8001c46:	4413      	add	r3, r2
 8001c48:	f503 6380 	add.w	r3, r3, #1024	; 0x400
 8001c4c:	881b      	ldrh	r3, [r3, #0]
 8001c4e:	f3c3 0209 	ubfx	r2, r3, #0, #10
 8001c52:	68fb      	ldr	r3, [r7, #12]
 8001c54:	61da      	str	r2, [r3, #28]

          USB_ReadPMA(hpcd->Instance, (uint8_t *)hpcd->Setup,
 8001c56:	687b      	ldr	r3, [r7, #4]
 8001c58:	6818      	ldr	r0, [r3, #0]
 8001c5a:	687b      	ldr	r3, [r7, #4]
 8001c5c:	f503 710c 	add.w	r1, r3, #560	; 0x230
 8001c60:	68fb      	ldr	r3, [r7, #12]
 8001c62:	88da      	ldrh	r2, [r3, #6]
                      ep->pmaadress, (uint16_t)ep->xfer_count);
 8001c64:	68fb      	ldr	r3, [r7, #12]
 8001c66:	69db      	ldr	r3, [r3, #28]
          USB_ReadPMA(hpcd->Instance, (uint8_t *)hpcd->Setup,
 8001c68:	b29b      	uxth	r3, r3
 8001c6a:	f002 f996 	bl	8003f9a <USB_ReadPMA>

          /* SETUP bit kept frozen while CTR_RX = 1*/
          PCD_CLEAR_RX_EP_CTR(hpcd->Instance, PCD_ENDP0);
 8001c6e:	687b      	ldr	r3, [r7, #4]
 8001c70:	681b      	ldr	r3, [r3, #0]
 8001c72:	881b      	ldrh	r3, [r3, #0]
 8001c74:	b29a      	uxth	r2, r3
 8001c76:	f640 738f 	movw	r3, #3983	; 0xf8f
 8001c7a:	4013      	ands	r3, r2
 8001c7c:	b29c      	uxth	r4, r3
 8001c7e:	687b      	ldr	r3, [r7, #4]
 8001c80:	681b      	ldr	r3, [r3, #0]
 8001c82:	f044 0280 	orr.w	r2, r4, #128	; 0x80
 8001c86:	b292      	uxth	r2, r2
 8001c88:	801a      	strh	r2, [r3, #0]

          /* Process SETUP Packet*/
#if (USE_HAL_PCD_REGISTER_CALLBACKS == 1U)
          hpcd->SetupStageCallback(hpcd);
#else
          HAL_PCD_SetupStageCallback(hpcd);
 8001c8a:	6878      	ldr	r0, [r7, #4]
 8001c8c:	f003 ff4e 	bl	8005b2c <HAL_PCD_SetupStageCallback>
 8001c90:	e1dc      	b.n	800204c <PCD_EP_ISR_Handler+0x510>
#endif /* USE_HAL_PCD_REGISTER_CALLBACKS */
        }

        else if ((wEPVal & USB_EP_CTR_RX) != 0U)
 8001c92:	f9b7 3012 	ldrsh.w	r3, [r7, #18]
 8001c96:	2b00      	cmp	r3, #0
 8001c98:	f280 81d8 	bge.w	800204c <PCD_EP_ISR_Handler+0x510>
        {
          PCD_CLEAR_RX_EP_CTR(hpcd->Instance, PCD_ENDP0);
 8001c9c:	687b      	ldr	r3, [r7, #4]
 8001c9e:	681b      	ldr	r3, [r3, #0]
 8001ca0:	881b      	ldrh	r3, [r3, #0]
 8001ca2:	b29a      	uxth	r2, r3
 8001ca4:	f640 738f 	movw	r3, #3983	; 0xf8f
 8001ca8:	4013      	ands	r3, r2
 8001caa:	b29c      	uxth	r4, r3
 8001cac:	687b      	ldr	r3, [r7, #4]
 8001cae:	681b      	ldr	r3, [r3, #0]
 8001cb0:	f044 0280 	orr.w	r2, r4, #128	; 0x80
 8001cb4:	b292      	uxth	r2, r2
 8001cb6:	801a      	strh	r2, [r3, #0]

          /* Get Control Data OUT Packet*/
          ep->xfer_count = PCD_GET_EP_RX_CNT(hpcd->Instance, ep->num);
 8001cb8:	687b      	ldr	r3, [r7, #4]
 8001cba:	681b      	ldr	r3, [r3, #0]
 8001cbc:	f8b3 3050 	ldrh.w	r3, [r3, #80]	; 0x50
 8001cc0:	b29b      	uxth	r3, r3
 8001cc2:	461a      	mov	r2, r3
 8001cc4:	68fb      	ldr	r3, [r7, #12]
 8001cc6:	781b      	ldrb	r3, [r3, #0]
 8001cc8:	00db      	lsls	r3, r3, #3
 8001cca:	4413      	add	r3, r2
 8001ccc:	3306      	adds	r3, #6
 8001cce:	005b      	lsls	r3, r3, #1
 8001cd0:	687a      	ldr	r2, [r7, #4]
 8001cd2:	6812      	ldr	r2, [r2, #0]
 8001cd4:	4413      	add	r3, r2
 8001cd6:	f503 6380 	add.w	r3, r3, #1024	; 0x400
 8001cda:	881b      	ldrh	r3, [r3, #0]
 8001cdc:	f3c3 0209 	ubfx	r2, r3, #0, #10
 8001ce0:	68fb      	ldr	r3, [r7, #12]
 8001ce2:	61da      	str	r2, [r3, #28]

          if ((ep->xfer_count != 0U) && (ep->xfer_buff != 0U))
 8001ce4:	68fb      	ldr	r3, [r7, #12]
 8001ce6:	69db      	ldr	r3, [r3, #28]
 8001ce8:	2b00      	cmp	r3, #0
 8001cea:	d019      	beq.n	8001d20 <PCD_EP_ISR_Handler+0x1e4>
 8001cec:	68fb      	ldr	r3, [r7, #12]
 8001cee:	695b      	ldr	r3, [r3, #20]
 8001cf0:	2b00      	cmp	r3, #0
 8001cf2:	d015      	beq.n	8001d20 <PCD_EP_ISR_Handler+0x1e4>
          {
            USB_ReadPMA(hpcd->Instance, ep->xfer_buff,
 8001cf4:	687b      	ldr	r3, [r7, #4]
 8001cf6:	6818      	ldr	r0, [r3, #0]
 8001cf8:	68fb      	ldr	r3, [r7, #12]
 8001cfa:	6959      	ldr	r1, [r3, #20]
 8001cfc:	68fb      	ldr	r3, [r7, #12]
 8001cfe:	88da      	ldrh	r2, [r3, #6]
                        ep->pmaadress, (uint16_t)ep->xfer_count);
 8001d00:	68fb      	ldr	r3, [r7, #12]
 8001d02:	69db      	ldr	r3, [r3, #28]
            USB_ReadPMA(hpcd->Instance, ep->xfer_buff,
 8001d04:	b29b      	uxth	r3, r3
 8001d06:	f002 f948 	bl	8003f9a <USB_ReadPMA>

            ep->xfer_buff += ep->xfer_count;
 8001d0a:	68fb      	ldr	r3, [r7, #12]
 8001d0c:	695a      	ldr	r2, [r3, #20]
 8001d0e:	68fb      	ldr	r3, [r7, #12]
 8001d10:	69db      	ldr	r3, [r3, #28]
 8001d12:	441a      	add	r2, r3
 8001d14:	68fb      	ldr	r3, [r7, #12]
 8001d16:	615a      	str	r2, [r3, #20]

            /* Process Control Data OUT Packet*/
#if (USE_HAL_PCD_REGISTER_CALLBACKS == 1U)
            hpcd->DataOutStageCallback(hpcd, 0U);
#else
            HAL_PCD_DataOutStageCallback(hpcd, 0U);
 8001d18:	2100      	movs	r1, #0
 8001d1a:	6878      	ldr	r0, [r7, #4]
 8001d1c:	f003 ff18 	bl	8005b50 <HAL_PCD_DataOutStageCallback>
#endif /* USE_HAL_PCD_REGISTER_CALLBACKS */
          }

          PCD_SET_EP_RX_CNT(hpcd->Instance, PCD_ENDP0, ep->maxpacket);
 8001d20:	687b      	ldr	r3, [r7, #4]
 8001d22:	681b      	ldr	r3, [r3, #0]
 8001d24:	461c      	mov	r4, r3
 8001d26:	687b      	ldr	r3, [r7, #4]
 8001d28:	681b      	ldr	r3, [r3, #0]
 8001d2a:	f8b3 3050 	ldrh.w	r3, [r3, #80]	; 0x50
 8001d2e:	b29b      	uxth	r3, r3
 8001d30:	441c      	add	r4, r3
 8001d32:	f204 430c 	addw	r3, r4, #1036	; 0x40c
 8001d36:	461c      	mov	r4, r3
 8001d38:	68fb      	ldr	r3, [r7, #12]
 8001d3a:	691b      	ldr	r3, [r3, #16]
 8001d3c:	2b00      	cmp	r3, #0
 8001d3e:	d10e      	bne.n	8001d5e <PCD_EP_ISR_Handler+0x222>
 8001d40:	8823      	ldrh	r3, [r4, #0]
 8001d42:	b29b      	uxth	r3, r3
 8001d44:	f423 43f8 	bic.w	r3, r3, #31744	; 0x7c00
 8001d48:	b29b      	uxth	r3, r3
 8001d4a:	8023      	strh	r3, [r4, #0]
 8001d4c:	8823      	ldrh	r3, [r4, #0]
 8001d4e:	b29b      	uxth	r3, r3
 8001d50:	ea6f 4343 	mvn.w	r3, r3, lsl #17
 8001d54:	ea6f 4353 	mvn.w	r3, r3, lsr #17
 8001d58:	b29b      	uxth	r3, r3
 8001d5a:	8023      	strh	r3, [r4, #0]
 8001d5c:	e02d      	b.n	8001dba <PCD_EP_ISR_Handler+0x27e>
 8001d5e:	68fb      	ldr	r3, [r7, #12]
 8001d60:	691b      	ldr	r3, [r3, #16]
 8001d62:	2b3e      	cmp	r3, #62	; 0x3e
 8001d64:	d812      	bhi.n	8001d8c <PCD_EP_ISR_Handler+0x250>
 8001d66:	68fb      	ldr	r3, [r7, #12]
 8001d68:	691b      	ldr	r3, [r3, #16]
 8001d6a:	085b      	lsrs	r3, r3, #1
 8001d6c:	61bb      	str	r3, [r7, #24]
 8001d6e:	68fb      	ldr	r3, [r7, #12]
 8001d70:	691b      	ldr	r3, [r3, #16]
 8001d72:	f003 0301 	and.w	r3, r3, #1
 8001d76:	2b00      	cmp	r3, #0
 8001d78:	d002      	beq.n	8001d80 <PCD_EP_ISR_Handler+0x244>
 8001d7a:	69bb      	ldr	r3, [r7, #24]
 8001d7c:	3301      	adds	r3, #1
 8001d7e:	61bb      	str	r3, [r7, #24]
 8001d80:	69bb      	ldr	r3, [r7, #24]
 8001d82:	b29b      	uxth	r3, r3
 8001d84:	029b      	lsls	r3, r3, #10
 8001d86:	b29b      	uxth	r3, r3
 8001d88:	8023      	strh	r3, [r4, #0]
 8001d8a:	e016      	b.n	8001dba <PCD_EP_ISR_Handler+0x27e>
 8001d8c:	68fb      	ldr	r3, [r7, #12]
 8001d8e:	691b      	ldr	r3, [r3, #16]
 8001d90:	095b      	lsrs	r3, r3, #5
 8001d92:	61bb      	str	r3, [r7, #24]
 8001d94:	68fb      	ldr	r3, [r7, #12]
 8001d96:	691b      	ldr	r3, [r3, #16]
 8001d98:	f003 031f 	and.w	r3, r3, #31
 8001d9c:	2b00      	cmp	r3, #0
 8001d9e:	d102      	bne.n	8001da6 <PCD_EP_ISR_Handler+0x26a>
 8001da0:	69bb      	ldr	r3, [r7, #24]
 8001da2:	3b01      	subs	r3, #1
 8001da4:	61bb      	str	r3, [r7, #24]
 8001da6:	69bb      	ldr	r3, [r7, #24]
 8001da8:	b29b      	uxth	r3, r3
 8001daa:	029b      	lsls	r3, r3, #10
 8001dac:	b29b      	uxth	r3, r3
 8001dae:	ea6f 4343 	mvn.w	r3, r3, lsl #17
 8001db2:	ea6f 4353 	mvn.w	r3, r3, lsr #17
 8001db6:	b29b      	uxth	r3, r3
 8001db8:	8023      	strh	r3, [r4, #0]
          PCD_SET_EP_RX_STATUS(hpcd->Instance, PCD_ENDP0, USB_EP_RX_VALID);
 8001dba:	687b      	ldr	r3, [r7, #4]
 8001dbc:	681b      	ldr	r3, [r3, #0]
 8001dbe:	881b      	ldrh	r3, [r3, #0]
 8001dc0:	b29b      	uxth	r3, r3
 8001dc2:	f423 4380 	bic.w	r3, r3, #16384	; 0x4000
 8001dc6:	f023 0370 	bic.w	r3, r3, #112	; 0x70
 8001dca:	b29c      	uxth	r4, r3
 8001dcc:	f484 5380 	eor.w	r3, r4, #4096	; 0x1000
 8001dd0:	b29c      	uxth	r4, r3
 8001dd2:	f484 5300 	eor.w	r3, r4, #8192	; 0x2000
 8001dd6:	b29c      	uxth	r4, r3
 8001dd8:	687b      	ldr	r3, [r7, #4]
 8001dda:	681a      	ldr	r2, [r3, #0]
 8001ddc:	4ba2      	ldr	r3, [pc, #648]	; (8002068 <PCD_EP_ISR_Handler+0x52c>)
 8001dde:	4323      	orrs	r3, r4
 8001de0:	b29b      	uxth	r3, r3
 8001de2:	8013      	strh	r3, [r2, #0]
 8001de4:	e132      	b.n	800204c <PCD_EP_ISR_Handler+0x510>
    else
    {
      /* Decode and service non control endpoints interrupt  */

      /* process related endpoint register */
      wEPVal = PCD_GET_ENDPOINT(hpcd->Instance, epindex);
 8001de6:	687b      	ldr	r3, [r7, #4]
 8001de8:	681b      	ldr	r3, [r3, #0]
 8001dea:	461a      	mov	r2, r3
 8001dec:	7d7b      	ldrb	r3, [r7, #21]
 8001dee:	009b      	lsls	r3, r3, #2
 8001df0:	4413      	add	r3, r2
 8001df2:	881b      	ldrh	r3, [r3, #0]
 8001df4:	827b      	strh	r3, [r7, #18]
      if ((wEPVal & USB_EP_CTR_RX) != 0U)
 8001df6:	f9b7 3012 	ldrsh.w	r3, [r7, #18]
 8001dfa:	2b00      	cmp	r3, #0
 8001dfc:	f280 80d1 	bge.w	8001fa2 <PCD_EP_ISR_Handler+0x466>
      {
        /* clear int flag */
        PCD_CLEAR_RX_EP_CTR(hpcd->Instance, epindex);
 8001e00:	687b      	ldr	r3, [r7, #4]
 8001e02:	681b      	ldr	r3, [r3, #0]
 8001e04:	461a      	mov	r2, r3
 8001e06:	7d7b      	ldrb	r3, [r7, #21]
 8001e08:	009b      	lsls	r3, r3, #2
 8001e0a:	4413      	add	r3, r2
 8001e0c:	881b      	ldrh	r3, [r3, #0]
 8001e0e:	b29a      	uxth	r2, r3
 8001e10:	f640 738f 	movw	r3, #3983	; 0xf8f
 8001e14:	4013      	ands	r3, r2
 8001e16:	b29c      	uxth	r4, r3
 8001e18:	687b      	ldr	r3, [r7, #4]
 8001e1a:	681b      	ldr	r3, [r3, #0]
 8001e1c:	461a      	mov	r2, r3
 8001e1e:	7d7b      	ldrb	r3, [r7, #21]
 8001e20:	009b      	lsls	r3, r3, #2
 8001e22:	4413      	add	r3, r2
 8001e24:	f044 0280 	orr.w	r2, r4, #128	; 0x80
 8001e28:	b292      	uxth	r2, r2
 8001e2a:	801a      	strh	r2, [r3, #0]
        ep = &hpcd->OUT_ep[epindex];
 8001e2c:	7d7b      	ldrb	r3, [r7, #21]
 8001e2e:	015b      	lsls	r3, r3, #5
 8001e30:	f503 7394 	add.w	r3, r3, #296	; 0x128
 8001e34:	687a      	ldr	r2, [r7, #4]
 8001e36:	4413      	add	r3, r2
 8001e38:	60fb      	str	r3, [r7, #12]

        /* OUT double Buffering*/
        if (ep->doublebuffer == 0U)
 8001e3a:	68fb      	ldr	r3, [r7, #12]
 8001e3c:	7b1b      	ldrb	r3, [r3, #12]
 8001e3e:	2b00      	cmp	r3, #0
 8001e40:	d121      	bne.n	8001e86 <PCD_EP_ISR_Handler+0x34a>
        {
          count = (uint16_t)PCD_GET_EP_RX_CNT(hpcd->Instance, ep->num);
 8001e42:	687b      	ldr	r3, [r7, #4]
 8001e44:	681b      	ldr	r3, [r3, #0]
 8001e46:	f8b3 3050 	ldrh.w	r3, [r3, #80]	; 0x50
 8001e4a:	b29b      	uxth	r3, r3
 8001e4c:	461a      	mov	r2, r3
 8001e4e:	68fb      	ldr	r3, [r7, #12]
 8001e50:	781b      	ldrb	r3, [r3, #0]
 8001e52:	00db      	lsls	r3, r3, #3
 8001e54:	4413      	add	r3, r2
 8001e56:	3306      	adds	r3, #6
 8001e58:	005b      	lsls	r3, r3, #1
 8001e5a:	687a      	ldr	r2, [r7, #4]
 8001e5c:	6812      	ldr	r2, [r2, #0]
 8001e5e:	4413      	add	r3, r2
 8001e60:	f503 6380 	add.w	r3, r3, #1024	; 0x400
 8001e64:	881b      	ldrh	r3, [r3, #0]
 8001e66:	f3c3 0309 	ubfx	r3, r3, #0, #10
 8001e6a:	83fb      	strh	r3, [r7, #30]
          if (count != 0U)
 8001e6c:	8bfb      	ldrh	r3, [r7, #30]
 8001e6e:	2b00      	cmp	r3, #0
 8001e70:	d072      	beq.n	8001f58 <PCD_EP_ISR_Handler+0x41c>
          {
            USB_ReadPMA(hpcd->Instance, ep->xfer_buff, ep->pmaadress, count);
 8001e72:	687b      	ldr	r3, [r7, #4]
 8001e74:	6818      	ldr	r0, [r3, #0]
 8001e76:	68fb      	ldr	r3, [r7, #12]
 8001e78:	6959      	ldr	r1, [r3, #20]
 8001e7a:	68fb      	ldr	r3, [r7, #12]
 8001e7c:	88da      	ldrh	r2, [r3, #6]
 8001e7e:	8bfb      	ldrh	r3, [r7, #30]
 8001e80:	f002 f88b 	bl	8003f9a <USB_ReadPMA>
 8001e84:	e068      	b.n	8001f58 <PCD_EP_ISR_Handler+0x41c>
          }
        }
        else
        {
          if ((PCD_GET_ENDPOINT(hpcd->Instance, ep->num) & USB_EP_DTOG_RX) != 0U)
 8001e86:	687b      	ldr	r3, [r7, #4]
 8001e88:	681b      	ldr	r3, [r3, #0]
 8001e8a:	461a      	mov	r2, r3
 8001e8c:	68fb      	ldr	r3, [r7, #12]
 8001e8e:	781b      	ldrb	r3, [r3, #0]
 8001e90:	009b      	lsls	r3, r3, #2
 8001e92:	4413      	add	r3, r2
 8001e94:	881b      	ldrh	r3, [r3, #0]
 8001e96:	b29b      	uxth	r3, r3
 8001e98:	f403 4380 	and.w	r3, r3, #16384	; 0x4000
 8001e9c:	2b00      	cmp	r3, #0
 8001e9e:	d021      	beq.n	8001ee4 <PCD_EP_ISR_Handler+0x3a8>
          {
            /*read from endpoint BUF0Addr buffer*/
            count = (uint16_t)PCD_GET_EP_DBUF0_CNT(hpcd->Instance, ep->num);
 8001ea0:	687b      	ldr	r3, [r7, #4]
 8001ea2:	681b      	ldr	r3, [r3, #0]
 8001ea4:	f8b3 3050 	ldrh.w	r3, [r3, #80]	; 0x50
 8001ea8:	b29b      	uxth	r3, r3
 8001eaa:	461a      	mov	r2, r3
 8001eac:	68fb      	ldr	r3, [r7, #12]
 8001eae:	781b      	ldrb	r3, [r3, #0]
 8001eb0:	00db      	lsls	r3, r3, #3
 8001eb2:	4413      	add	r3, r2
 8001eb4:	3302      	adds	r3, #2
 8001eb6:	005b      	lsls	r3, r3, #1
 8001eb8:	687a      	ldr	r2, [r7, #4]
 8001eba:	6812      	ldr	r2, [r2, #0]
 8001ebc:	4413      	add	r3, r2
 8001ebe:	f503 6380 	add.w	r3, r3, #1024	; 0x400
 8001ec2:	881b      	ldrh	r3, [r3, #0]
 8001ec4:	f3c3 0309 	ubfx	r3, r3, #0, #10
 8001ec8:	83fb      	strh	r3, [r7, #30]
            if (count != 0U)
 8001eca:	8bfb      	ldrh	r3, [r7, #30]
 8001ecc:	2b00      	cmp	r3, #0
 8001ece:	d02a      	beq.n	8001f26 <PCD_EP_ISR_Handler+0x3ea>
            {
              USB_ReadPMA(hpcd->Instance, ep->xfer_buff, ep->pmaaddr0, count);
 8001ed0:	687b      	ldr	r3, [r7, #4]
 8001ed2:	6818      	ldr	r0, [r3, #0]
 8001ed4:	68fb      	ldr	r3, [r7, #12]
 8001ed6:	6959      	ldr	r1, [r3, #20]
 8001ed8:	68fb      	ldr	r3, [r7, #12]
 8001eda:	891a      	ldrh	r2, [r3, #8]
 8001edc:	8bfb      	ldrh	r3, [r7, #30]
 8001ede:	f002 f85c 	bl	8003f9a <USB_ReadPMA>
 8001ee2:	e020      	b.n	8001f26 <PCD_EP_ISR_Handler+0x3ea>
            }
          }
          else
          {
            /*read from endpoint BUF1Addr buffer*/
            count = (uint16_t)PCD_GET_EP_DBUF1_CNT(hpcd->Instance, ep->num);
 8001ee4:	687b      	ldr	r3, [r7, #4]
 8001ee6:	681b      	ldr	r3, [r3, #0]
 8001ee8:	f8b3 3050 	ldrh.w	r3, [r3, #80]	; 0x50
 8001eec:	b29b      	uxth	r3, r3
 8001eee:	461a      	mov	r2, r3
 8001ef0:	68fb      	ldr	r3, [r7, #12]
 8001ef2:	781b      	ldrb	r3, [r3, #0]
 8001ef4:	00db      	lsls	r3, r3, #3
 8001ef6:	4413      	add	r3, r2
 8001ef8:	3306      	adds	r3, #6
 8001efa:	005b      	lsls	r3, r3, #1
 8001efc:	687a      	ldr	r2, [r7, #4]
 8001efe:	6812      	ldr	r2, [r2, #0]
 8001f00:	4413      	add	r3, r2
 8001f02:	f503 6380 	add.w	r3, r3, #1024	; 0x400
 8001f06:	881b      	ldrh	r3, [r3, #0]
 8001f08:	f3c3 0309 	ubfx	r3, r3, #0, #10
 8001f0c:	83fb      	strh	r3, [r7, #30]
            if (count != 0U)
 8001f0e:	8bfb      	ldrh	r3, [r7, #30]
 8001f10:	2b00      	cmp	r3, #0
 8001f12:	d008      	beq.n	8001f26 <PCD_EP_ISR_Handler+0x3ea>
            {
              USB_ReadPMA(hpcd->Instance, ep->xfer_buff, ep->pmaaddr1, count);
 8001f14:	687b      	ldr	r3, [r7, #4]
 8001f16:	6818      	ldr	r0, [r3, #0]
 8001f18:	68fb      	ldr	r3, [r7, #12]
 8001f1a:	6959      	ldr	r1, [r3, #20]
 8001f1c:	68fb      	ldr	r3, [r7, #12]
 8001f1e:	895a      	ldrh	r2, [r3, #10]
 8001f20:	8bfb      	ldrh	r3, [r7, #30]
 8001f22:	f002 f83a 	bl	8003f9a <USB_ReadPMA>
            }
          }
          /* free EP OUT Buffer */
          PCD_FreeUserBuffer(hpcd->Instance, ep->num, 0U);
 8001f26:	687b      	ldr	r3, [r7, #4]
 8001f28:	681b      	ldr	r3, [r3, #0]
 8001f2a:	461a      	mov	r2, r3
 8001f2c:	68fb      	ldr	r3, [r7, #12]
 8001f2e:	781b      	ldrb	r3, [r3, #0]
 8001f30:	009b      	lsls	r3, r3, #2
 8001f32:	4413      	add	r3, r2
 8001f34:	881b      	ldrh	r3, [r3, #0]
 8001f36:	b29b      	uxth	r3, r3
 8001f38:	f423 43e0 	bic.w	r3, r3, #28672	; 0x7000
 8001f3c:	f023 0370 	bic.w	r3, r3, #112	; 0x70
 8001f40:	b29c      	uxth	r4, r3
 8001f42:	687b      	ldr	r3, [r7, #4]
 8001f44:	681b      	ldr	r3, [r3, #0]
 8001f46:	461a      	mov	r2, r3
 8001f48:	68fb      	ldr	r3, [r7, #12]
 8001f4a:	781b      	ldrb	r3, [r3, #0]
 8001f4c:	009b      	lsls	r3, r3, #2
 8001f4e:	441a      	add	r2, r3
 8001f50:	4b46      	ldr	r3, [pc, #280]	; (800206c <PCD_EP_ISR_Handler+0x530>)
 8001f52:	4323      	orrs	r3, r4
 8001f54:	b29b      	uxth	r3, r3
 8001f56:	8013      	strh	r3, [r2, #0]
        }
        /*multi-packet on the NON control OUT endpoint*/
        ep->xfer_count += count;
 8001f58:	68fb      	ldr	r3, [r7, #12]
 8001f5a:	69da      	ldr	r2, [r3, #28]
 8001f5c:	8bfb      	ldrh	r3, [r7, #30]
 8001f5e:	441a      	add	r2, r3
 8001f60:	68fb      	ldr	r3, [r7, #12]
 8001f62:	61da      	str	r2, [r3, #28]
        ep->xfer_buff += count;
 8001f64:	68fb      	ldr	r3, [r7, #12]
 8001f66:	695a      	ldr	r2, [r3, #20]
 8001f68:	8bfb      	ldrh	r3, [r7, #30]
 8001f6a:	441a      	add	r2, r3
 8001f6c:	68fb      	ldr	r3, [r7, #12]
 8001f6e:	615a      	str	r2, [r3, #20]

        if ((ep->xfer_len == 0U) || (count < ep->maxpacket))
 8001f70:	68fb      	ldr	r3, [r7, #12]
 8001f72:	699b      	ldr	r3, [r3, #24]
 8001f74:	2b00      	cmp	r3, #0
 8001f76:	d004      	beq.n	8001f82 <PCD_EP_ISR_Handler+0x446>
 8001f78:	8bfa      	ldrh	r2, [r7, #30]
 8001f7a:	68fb      	ldr	r3, [r7, #12]
 8001f7c:	691b      	ldr	r3, [r3, #16]
 8001f7e:	429a      	cmp	r2, r3
 8001f80:	d206      	bcs.n	8001f90 <PCD_EP_ISR_Handler+0x454>
        {
          /* RX COMPLETE */
#if (USE_HAL_PCD_REGISTER_CALLBACKS == 1U)
          hpcd->DataOutStageCallback(hpcd, ep->num);
#else
          HAL_PCD_DataOutStageCallback(hpcd, ep->num);
 8001f82:	68fb      	ldr	r3, [r7, #12]
 8001f84:	781b      	ldrb	r3, [r3, #0]
 8001f86:	4619      	mov	r1, r3
 8001f88:	6878      	ldr	r0, [r7, #4]
 8001f8a:	f003 fde1 	bl	8005b50 <HAL_PCD_DataOutStageCallback>
 8001f8e:	e008      	b.n	8001fa2 <PCD_EP_ISR_Handler+0x466>
#endif /* USE_HAL_PCD_REGISTER_CALLBACKS */
        }
        else
        {
          (void)HAL_PCD_EP_Receive(hpcd, ep->num, ep->xfer_buff, ep->xfer_len);
 8001f90:	68fb      	ldr	r3, [r7, #12]
 8001f92:	7819      	ldrb	r1, [r3, #0]
 8001f94:	68fb      	ldr	r3, [r7, #12]
 8001f96:	695a      	ldr	r2, [r3, #20]
 8001f98:	68fb      	ldr	r3, [r7, #12]
 8001f9a:	699b      	ldr	r3, [r3, #24]
 8001f9c:	6878      	ldr	r0, [r7, #4]
 8001f9e:	f7ff fc9e 	bl	80018de <HAL_PCD_EP_Receive>
        }

      } /* if((wEPVal & EP_CTR_RX) */

      if ((wEPVal & USB_EP_CTR_TX) != 0U)
 8001fa2:	8a7b      	ldrh	r3, [r7, #18]
 8001fa4:	f003 0380 	and.w	r3, r3, #128	; 0x80
 8001fa8:	2b00      	cmp	r3, #0
 8001faa:	d04f      	beq.n	800204c <PCD_EP_ISR_Handler+0x510>
      {
        ep = &hpcd->IN_ep[epindex];
 8001fac:	7d7b      	ldrb	r3, [r7, #21]
 8001fae:	015b      	lsls	r3, r3, #5
 8001fb0:	3328      	adds	r3, #40	; 0x28
 8001fb2:	687a      	ldr	r2, [r7, #4]
 8001fb4:	4413      	add	r3, r2
 8001fb6:	60fb      	str	r3, [r7, #12]

        /* clear int flag */
